{
  "abi": [
    {
      "inputs": [
        {
          "internalType": "address",
          "name": "_marketplaceAddress",
          "type": "address"
        },
        {
          "internalType": "address",
          "name": "_USDC",
          "type": "address"
        }
      ],
      "stateMutability": "nonpayable",
      "type": "constructor"
    },
    {
      "anonymous": false,
      "inputs": [
        {
          "indexed": true,
          "internalType": "address",
          "name": "owner",
          "type": "address"
        },
        {
          "indexed": true,
          "internalType": "address",
          "name": "approved",
          "type": "address"
        },
        {
          "indexed": true,
          "internalType": "uint256",
          "name": "tokenId",
          "type": "uint256"
        }
      ],
      "name": "Approval",
      "type": "event"
    },
    {
      "anonymous": false,
      "inputs": [
        {
          "indexed": true,
          "internalType": "address",
          "name": "owner",
          "type": "address"
        },
        {
          "indexed": true,
          "internalType": "address",
          "name": "operator",
          "type": "address"
        },
        {
          "indexed": false,
          "internalType": "bool",
          "name": "approved",
          "type": "bool"
        }
      ],
      "name": "ApprovalForAll",
      "type": "event"
    },
    {
      "anonymous": false,
      "inputs": [
        {
          "indexed": true,
          "internalType": "address",
          "name": "previousOwner",
          "type": "address"
        },
        {
          "indexed": true,
          "internalType": "address",
          "name": "newOwner",
          "type": "address"
        }
      ],
      "name": "OwnershipTransferred",
      "type": "event"
    },
    {
      "anonymous": false,
      "inputs": [
        {
          "indexed": true,
          "internalType": "address",
          "name": "from",
          "type": "address"
        },
        {
          "indexed": true,
          "internalType": "address",
          "name": "to",
          "type": "address"
        },
        {
          "indexed": true,
          "internalType": "uint256",
          "name": "tokenId",
          "type": "uint256"
        }
      ],
      "name": "Transfer",
      "type": "event"
    },
    {
      "anonymous": false,
      "inputs": [
        {
          "indexed": true,
          "internalType": "address",
          "name": "member",
          "type": "address"
        },
        {
          "indexed": true,
          "internalType": "uint256",
          "name": "tokenId",
          "type": "uint256"
        },
        {
          "indexed": false,
          "internalType": "uint256",
          "name": "membershipPrice",
          "type": "uint256"
        },
        {
          "indexed": false,
          "internalType": "uint256",
          "name": "currTimeStamp",
          "type": "uint256"
        }
      ],
      "name": "memberChargedForMembership",
      "type": "event"
    },
    {
      "anonymous": false,
      "inputs": [
        {
          "indexed": true,
          "internalType": "address",
          "name": "member",
          "type": "address"
        },
        {
          "indexed": true,
          "internalType": "uint256",
          "name": "discountAmount",
          "type": "uint256"
        }
      ],
      "name": "memberDiscountSet",
      "type": "event"
    },
    {
      "anonymous": false,
      "inputs": [
        {
          "indexed": true,
          "internalType": "address",
          "name": "owner",
          "type": "address"
        },
        {
          "indexed": true,
          "internalType": "uint256",
          "name": "tokenId",
          "type": "uint256"
        }
      ],
      "name": "membershipNFTBurnt",
      "type": "event"
    },
    {
      "anonymous": false,
      "inputs": [
        {
          "indexed": true,
          "internalType": "address",
          "name": "owner",
          "type": "address"
        },
        {
          "indexed": true,
          "internalType": "uint256",
          "name": "tokenId",
          "type": "uint256"
        }
      ],
      "name": "membershipNFTMinted",
      "type": "event"
    },
    {
      "anonymous": false,
      "inputs": [
        {
          "indexed": true,
          "internalType": "uint256",
          "name": "newMembershipPrice",
          "type": "uint256"
        }
      ],
      "name": "membershipPriceUpdated",
      "type": "event"
    },
    {
      "anonymous": false,
      "inputs": [
        {
          "indexed": true,
          "internalType": "uint256",
          "name": "tokenId",
          "type": "uint256"
        },
        {
          "indexed": false,
          "internalType": "string",
          "name": "newTokenURI",
          "type": "string"
        }
      ],
      "name": "tokenURIUpdated",
      "type": "event"
    },
    {
      "anonymous": false,
      "inputs": [
        {
          "indexed": true,
          "internalType": "string",
          "name": "typeIdThatWasUpdated",
          "type": "string"
        },
        {
          "indexed": true,
          "internalType": "uint256",
          "name": "newTypeId",
          "type": "uint256"
        }
      ],
      "name": "typeIdUpdated",
      "type": "event"
    },
    {
      "inputs": [],
      "name": "USDC",
      "outputs": [
        {
          "internalType": "contract IERC20",
          "name": "",
          "type": "address"
        }
      ],
      "stateMutability": "view",
      "type": "function"
    },
    {
      "inputs": [],
      "name": "_tokenIds",
      "outputs": [
        {
          "internalType": "uint256",
          "name": "_value",
          "type": "uint256"
        }
      ],
      "stateMutability": "view",
      "type": "function"
    },
    {
      "inputs": [
        {
          "internalType": "address",
          "name": "memberAddress",
          "type": "address"
        }
      ],
      "name": "addMember",
      "outputs": [],
      "stateMutability": "nonpayable",
      "type": "function"
    },
    {
      "inputs": [
        {
          "internalType": "address",
          "name": "whiteListAddress",
          "type": "address"
        },
        {
          "internalType": "uint256",
          "name": "tokenId",
          "type": "uint256"
        }
      ],
      "name": "addWhiteListToToken",
      "outputs": [],
      "stateMutability": "nonpayable",
      "type": "function"
    },
    {
      "inputs": [
        {
          "internalType": "address",
          "name": "",
          "type": "address"
        }
      ],
      "name": "addressIsAdmin",
      "outputs": [
        {
          "internalType": "bool",
          "name": "",
          "type": "bool"
        }
      ],
      "stateMutability": "view",
      "type": "function"
    },
    {
      "inputs": [
        {
          "internalType": "address",
          "name": "",
          "type": "address"
        }
      ],
      "name": "addressIsMember",
      "outputs": [
        {
          "internalType": "bool",
          "name": "",
          "type": "bool"
        }
      ],
      "stateMutability": "view",
      "type": "function"
    },
    {
      "inputs": [
        {
          "internalType": "address",
          "name": "",
          "type": "address"
        }
      ],
      "name": "addressToMemberNFTCount",
      "outputs": [
        {
          "internalType": "uint256",
          "name": "",
          "type": "uint256"
        }
      ],
      "stateMutability": "view",
      "type": "function"
    },
    {
      "inputs": [
        {
          "internalType": "address",
          "name": "",
          "type": "address"
        }
      ],
      "name": "addressToMembershipDiscount",
      "outputs": [
        {
          "internalType": "uint256",
          "name": "",
          "type": "uint256"
        }
      ],
      "stateMutability": "view",
      "type": "function"
    },
    {
      "inputs": [
        {
          "internalType": "address",
          "name": "to",
          "type": "address"
        },
        {
          "internalType": "uint256",
          "name": "tokenId",
          "type": "uint256"
        }
      ],
      "name": "approve",
      "outputs": [],
      "stateMutability": "nonpayable",
      "type": "function"
    },
    {
      "inputs": [
        {
          "internalType": "address",
          "name": "owner",
          "type": "address"
        }
      ],
      "name": "balanceOf",
      "outputs": [
        {
          "internalType": "uint256",
          "name": "",
          "type": "uint256"
        }
      ],
      "stateMutability": "view",
      "type": "function"
    },
    {
      "inputs": [
        {
          "internalType": "uint256",
          "name": "tokenId",
          "type": "uint256"
        }
      ],
      "name": "burnMembershiptNFTManually",
      "outputs": [],
      "stateMutability": "nonpayable",
      "type": "function"
    },
    {
      "inputs": [
        {
          "internalType": "address",
          "name": "member",
          "type": "address"
        },
        {
          "internalType": "uint256",
          "name": "tokenId",
          "type": "uint256"
        },
        {
          "internalType": "uint256",
          "name": "currTimeStamp",
          "type": "uint256"
        }
      ],
      "name": "chargeMemberForMembership",
      "outputs": [
        {
          "internalType": "uint256",
          "name": "",
          "type": "uint256"
        }
      ],
      "stateMutability": "nonpayable",
      "type": "function"
    },
    {
      "inputs": [
        {
          "internalType": "string",
          "name": "newTokenURI",
          "type": "string"
        },
        {
          "internalType": "uint256",
          "name": "typeId",
          "type": "uint256"
        },
        {
          "internalType": "uint256",
          "name": "listingFee",
          "type": "uint256"
        },
        {
          "internalType": "uint256",
          "name": "currTimeStamp",
          "type": "uint256"
        }
      ],
      "name": "createToken",
      "outputs": [
        {
          "internalType": "uint256",
          "name": "",
          "type": "uint256"
        }
      ],
      "stateMutability": "nonpayable",
      "type": "function"
    },
    {
      "inputs": [
        {
          "internalType": "uint256",
          "name": "tokenId",
          "type": "uint256"
        }
      ],
      "name": "getApproved",
      "outputs": [
        {
          "internalType": "address",
          "name": "",
          "type": "address"
        }
      ],
      "stateMutability": "view",
      "type": "function"
    },
    {
      "inputs": [],
      "name": "getMembershipTokenIds",
      "outputs": [
        {
          "internalType": "uint256[]",
          "name": "",
          "type": "uint256[]"
        }
      ],
      "stateMutability": "view",
      "type": "function"
    },
    {
      "inputs": [],
      "name": "getOriginalCardinalTokenIds",
      "outputs": [
        {
          "internalType": "uint256[]",
          "name": "",
          "type": "uint256[]"
        }
      ],
      "stateMutability": "view",
      "type": "function"
    },
    {
      "inputs": [
        {
          "internalType": "address",
          "name": "userAddress",
          "type": "address"
        }
      ],
      "name": "getUserMembershipTokenURIs",
      "outputs": [
        {
          "internalType": "string[]",
          "name": "",
          "type": "string[]"
        }
      ],
      "stateMutability": "view",
      "type": "function"
    },
    {
      "inputs": [
        {
          "internalType": "address",
          "name": "userAddress",
          "type": "address"
        }
      ],
      "name": "getUserOriginalCardinalTokenURIs",
      "outputs": [
        {
          "internalType": "string[]",
          "name": "",
          "type": "string[]"
        }
      ],
      "stateMutability": "view",
      "type": "function"
    },
    {
      "inputs": [
        {
          "internalType": "address",
          "name": "userAddress",
          "type": "address"
        }
      ],
      "name": "getUserServiceTokenURIs",
      "outputs": [
        {
          "internalType": "string[]",
          "name": "",
          "type": "string[]"
        }
      ],
      "stateMutability": "view",
      "type": "function"
    },
    {
      "inputs": [
        {
          "internalType": "address",
          "name": "userAddress",
          "type": "address"
        }
      ],
      "name": "getUserTokenIDs",
      "outputs": [
        {
          "internalType": "uint256[]",
          "name": "",
          "type": "uint256[]"
        }
      ],
      "stateMutability": "view",
      "type": "function"
    },
    {
      "inputs": [
        {
          "internalType": "address",
          "name": "userAddress",
          "type": "address"
        }
      ],
      "name": "getUserTokenURIs",
      "outputs": [
        {
          "internalType": "string[]",
          "name": "",
          "type": "string[]"
        }
      ],
      "stateMutability": "view",
      "type": "function"
    },
    {
      "inputs": [
        {
          "internalType": "address",
          "name": "owner",
          "type": "address"
        },
        {
          "internalType": "address",
          "name": "operator",
          "type": "address"
        }
      ],
      "name": "isApprovedForAll",
      "outputs": [
        {
          "internalType": "bool",
          "name": "",
          "type": "bool"
        }
      ],
      "stateMutability": "view",
      "type": "function"
    },
    {
      "inputs": [],
      "name": "marketplaceAddress",
      "outputs": [
        {
          "internalType": "address",
          "name": "",
          "type": "address"
        }
      ],
      "stateMutability": "view",
      "type": "function"
    },
    {
      "inputs": [
        {
          "internalType": "uint256",
          "name": "",
          "type": "uint256"
        }
      ],
      "name": "membershipNFTToLastPaid",
      "outputs": [
        {
          "internalType": "uint256",
          "name": "",
          "type": "uint256"
        }
      ],
      "stateMutability": "view",
      "type": "function"
    },
    {
      "inputs": [],
      "name": "membershipPriceInUSDC",
      "outputs": [
        {
          "internalType": "uint256",
          "name": "",
          "type": "uint256"
        }
      ],
      "stateMutability": "view",
      "type": "function"
    },
    {
      "inputs": [
        {
          "internalType": "uint256",
          "name": "",
          "type": "uint256"
        }
      ],
      "name": "membershipTokenIds",
      "outputs": [
        {
          "internalType": "uint256",
          "name": "",
          "type": "uint256"
        }
      ],
      "stateMutability": "view",
      "type": "function"
    },
    {
      "inputs": [],
      "name": "membershipTokenURI",
      "outputs": [
        {
          "internalType": "string",
          "name": "",
          "type": "string"
        }
      ],
      "stateMutability": "view",
      "type": "function"
    },
    {
      "inputs": [],
      "name": "membershipTypeId",
      "outputs": [
        {
          "internalType": "uint256",
          "name": "",
          "type": "uint256"
        }
      ],
      "stateMutability": "view",
      "type": "function"
    },
    {
      "inputs": [],
      "name": "mintMembershipNFT",
      "outputs": [
        {
          "internalType": "uint256",
          "name": "",
          "type": "uint256"
        }
      ],
      "stateMutability": "nonpayable",
      "type": "function"
    },
    {
      "inputs": [],
      "name": "name",
      "outputs": [
        {
          "internalType": "string",
          "name": "",
          "type": "string"
        }
      ],
      "stateMutability": "view",
      "type": "function"
    },
    {
      "inputs": [
        {
          "internalType": "uint256",
          "name": "",
          "type": "uint256"
        }
      ],
      "name": "originalCardinalTokenIds",
      "outputs": [
        {
          "internalType": "uint256",
          "name": "",
          "type": "uint256"
        }
      ],
      "stateMutability": "view",
      "type": "function"
    },
    {
      "inputs": [],
      "name": "originalCardinalTypeId",
      "outputs": [
        {
          "internalType": "uint256",
          "name": "",
          "type": "uint256"
        }
      ],
      "stateMutability": "view",
      "type": "function"
    },
    {
      "inputs": [],
      "name": "owner",
      "outputs": [
        {
          "internalType": "address",
          "name": "",
          "type": "address"
        }
      ],
      "stateMutability": "view",
      "type": "function"
    },
    {
      "inputs": [
        {
          "internalType": "uint256",
          "name": "tokenId",
          "type": "uint256"
        }
      ],
      "name": "ownerOf",
      "outputs": [
        {
          "internalType": "address",
          "name": "",
          "type": "address"
        }
      ],
      "stateMutability": "view",
      "type": "function"
    },
    {
      "inputs": [
        {
          "internalType": "address",
          "name": "memberAddress",
          "type": "address"
        }
      ],
      "name": "removeMember",
      "outputs": [],
      "stateMutability": "nonpayable",
      "type": "function"
    },
    {
      "inputs": [],
      "name": "renounceOwnership",
      "outputs": [],
      "stateMutability": "nonpayable",
      "type": "function"
    },
    {
      "inputs": [
        {
          "internalType": "address",
          "name": "from",
          "type": "address"
        },
        {
          "internalType": "address",
          "name": "to",
          "type": "address"
        },
        {
          "internalType": "uint256",
          "name": "tokenId",
          "type": "uint256"
        }
      ],
      "name": "safeTransferFrom",
      "outputs": [],
      "stateMutability": "nonpayable",
      "type": "function"
    },
    {
      "inputs": [
        {
          "internalType": "address",
          "name": "from",
          "type": "address"
        },
        {
          "internalType": "address",
          "name": "to",
          "type": "address"
        },
        {
          "internalType": "uint256",
          "name": "tokenId",
          "type": "uint256"
        },
        {
          "internalType": "bytes",
          "name": "_data",
          "type": "bytes"
        }
      ],
      "name": "safeTransferFrom",
      "outputs": [],
      "stateMutability": "nonpayable",
      "type": "function"
    },
    {
      "inputs": [],
      "name": "serviceTypeId",
      "outputs": [
        {
          "internalType": "uint256",
          "name": "",
          "type": "uint256"
        }
      ],
      "stateMutability": "view",
      "type": "function"
    },
    {
      "inputs": [
        {
          "internalType": "address",
          "name": "adminAddress",
          "type": "address"
        },
        {
          "internalType": "bool",
          "name": "isAdmin",
          "type": "bool"
        }
      ],
      "name": "setAdminUser",
      "outputs": [],
      "stateMutability": "nonpayable",
      "type": "function"
    },
    {
      "inputs": [
        {
          "internalType": "address",
          "name": "operator",
          "type": "address"
        },
        {
          "internalType": "bool",
          "name": "approved",
          "type": "bool"
        }
      ],
      "name": "setApprovalForAll",
      "outputs": [],
      "stateMutability": "nonpayable",
      "type": "function"
    },
    {
      "inputs": [
        {
          "internalType": "address",
          "name": "memberAddress",
          "type": "address"
        },
        {
          "internalType": "uint256",
          "name": "discountAmount",
          "type": "uint256"
        }
      ],
      "name": "setMemberDiscount",
      "outputs": [],
      "stateMutability": "nonpayable",
      "type": "function"
    },
    {
      "inputs": [
        {
          "internalType": "uint256",
          "name": "tokenId",
          "type": "uint256"
        },
        {
          "internalType": "string",
          "name": "newTokenURI",
          "type": "string"
        }
      ],
      "name": "setTokenURI",
      "outputs": [],
      "stateMutability": "nonpayable",
      "type": "function"
    },
    {
      "inputs": [
        {
          "internalType": "address",
          "name": "_USDC",
          "type": "address"
        }
      ],
      "name": "setUSDCContract",
      "outputs": [],
      "stateMutability": "nonpayable",
      "type": "function"
    },
    {
      "inputs": [
        {
          "internalType": "bytes4",
          "name": "interfaceId",
          "type": "bytes4"
        }
      ],
      "name": "supportsInterface",
      "outputs": [
        {
          "internalType": "bool",
          "name": "",
          "type": "bool"
        }
      ],
      "stateMutability": "view",
      "type": "function"
    },
    {
      "inputs": [],
      "name": "symbol",
      "outputs": [
        {
          "internalType": "string",
          "name": "",
          "type": "string"
        }
      ],
      "stateMutability": "view",
      "type": "function"
    },
    {
      "inputs": [
        {
          "internalType": "uint256",
          "name": "index",
          "type": "uint256"
        }
      ],
      "name": "tokenByIndex",
      "outputs": [
        {
          "internalType": "uint256",
          "name": "",
          "type": "uint256"
        }
      ],
      "stateMutability": "view",
      "type": "function"
    },
    {
      "inputs": [
        {
          "internalType": "uint256",
          "name": "",
          "type": "uint256"
        }
      ],
      "name": "tokenIdToListingFee",
      "outputs": [
        {
          "internalType": "uint256",
          "name": "",
          "type": "uint256"
        }
      ],
      "stateMutability": "view",
      "type": "function"
    },
    {
      "inputs": [
        {
          "internalType": "uint256",
          "name": "",
          "type": "uint256"
        }
      ],
      "name": "tokenIdToTypeId",
      "outputs": [
        {
          "internalType": "uint256",
          "name": "",
          "type": "uint256"
        }
      ],
      "stateMutability": "view",
      "type": "function"
    },
    {
      "inputs": [
        {
          "internalType": "uint256",
          "name": "",
          "type": "uint256"
        }
      ],
      "name": "tokenIdToWhitelistAddress",
      "outputs": [
        {
          "internalType": "address",
          "name": "",
          "type": "address"
        }
      ],
      "stateMutability": "view",
      "type": "function"
    },
    {
      "inputs": [
        {
          "internalType": "address",
          "name": "owner",
          "type": "address"
        },
        {
          "internalType": "uint256",
          "name": "index",
          "type": "uint256"
        }
      ],
      "name": "tokenOfOwnerByIndex",
      "outputs": [
        {
          "internalType": "uint256",
          "name": "",
          "type": "uint256"
        }
      ],
      "stateMutability": "view",
      "type": "function"
    },
    {
      "inputs": [
        {
          "internalType": "uint256",
          "name": "tokenId",
          "type": "uint256"
        }
      ],
      "name": "tokenURI",
      "outputs": [
        {
          "internalType": "string",
          "name": "",
          "type": "string"
        }
      ],
      "stateMutability": "view",
      "type": "function"
    },
    {
      "inputs": [],
      "name": "totalSupply",
      "outputs": [
        {
          "internalType": "uint256",
          "name": "",
          "type": "uint256"
        }
      ],
      "stateMutability": "view",
      "type": "function"
    },
    {
      "inputs": [
        {
          "internalType": "address",
          "name": "from",
          "type": "address"
        },
        {
          "internalType": "address",
          "name": "to",
          "type": "address"
        },
        {
          "internalType": "uint256",
          "name": "tokenId",
          "type": "uint256"
        }
      ],
      "name": "transferFrom",
      "outputs": [],
      "stateMutability": "nonpayable",
      "type": "function"
    },
    {
      "inputs": [
        {
          "internalType": "address",
          "name": "newOwner",
          "type": "address"
        }
      ],
      "name": "transferOwnership",
      "outputs": [],
      "stateMutability": "nonpayable",
      "type": "function"
    },
    {
      "inputs": [
        {
          "internalType": "uint256",
          "name": "tokenId",
          "type": "uint256"
        },
        {
          "internalType": "uint256",
          "name": "lastPaidTimestamp",
          "type": "uint256"
        }
      ],
      "name": "updateMembershipNFTLastPaid",
      "outputs": [],
      "stateMutability": "nonpayable",
      "type": "function"
    },
    {
      "inputs": [
        {
          "internalType": "uint256",
          "name": "tokenId",
          "type": "uint256"
        },
        {
          "internalType": "uint256",
          "name": "newLastPaid",
          "type": "uint256"
        }
      ],
      "name": "updateMembershipNFTToLastPaid",
      "outputs": [],
      "stateMutability": "nonpayable",
      "type": "function"
    },
    {
      "inputs": [
        {
          "internalType": "uint256",
          "name": "newMembershipPrice",
          "type": "uint256"
        }
      ],
      "name": "updateMembershipPrice",
      "outputs": [],
      "stateMutability": "nonpayable",
      "type": "function"
    },
    {
      "inputs": [
        {
          "internalType": "string",
          "name": "newMembershipTokenURI",
          "type": "string"
        }
      ],
      "name": "updateMembershipTokenURI",
      "outputs": [],
      "stateMutability": "nonpayable",
      "type": "function"
    },
    {
      "inputs": [
        {
          "internalType": "uint256",
          "name": "newMembershipTypeId",
          "type": "uint256"
        }
      ],
      "name": "updateMembershipTypeId",
      "outputs": [],
      "stateMutability": "nonpayable",
      "type": "function"
    },
    {
      "inputs": [
        {
          "internalType": "uint256",
          "name": "newOriginalCardinalTypeId",
          "type": "uint256"
        }
      ],
      "name": "updateOriginalCardinalTypeId",
      "outputs": [],
      "stateMutability": "nonpayable",
      "type": "function"
    },
    {
      "inputs": [
        {
          "internalType": "uint256",
          "name": "newServiceTypeId",
          "type": "uint256"
        }
      ],
      "name": "updateServiceTypeId",
      "outputs": [],
      "stateMutability": "nonpayable",
      "type": "function"
    },
    {
      "inputs": [
        {
          "internalType": "uint256",
          "name": "tokenId",
          "type": "uint256"
        },
        {
          "internalType": "uint256",
          "name": "newListingFee",
          "type": "uint256"
        }
      ],
      "name": "updateTokenListingFee",
      "outputs": [],
      "stateMutability": "nonpayable",
      "type": "function"
    },
    {
      "inputs": [
        {
          "internalType": "uint256",
          "name": "tokenId",
          "type": "uint256"
        },
        {
          "internalType": "uint256",
          "name": "newTypeId",
          "type": "uint256"
        }
      ],
      "name": "updateTokenTypeId",
      "outputs": [],
      "stateMutability": "nonpayable",
      "type": "function"
    },
    {
      "inputs": [],
      "name": "withdrawMembershipNFTFunds",
      "outputs": [],
      "stateMutability": "nonpayable",
      "type": "function"
    }
  ],
  "bytecode": "60806040526001601755600260185560036019553480156200002057600080fd5b50604051620041fa380380620041fa833981016040819052620000439162000218565b604080518082018252601081526f10d85c991a5b985b121bdd5cd953919560821b60208083019182528351808501909452600784526610d4939313919560ca1b9084015281519192916200009a9160009162000155565b508051620000b090600190602084019062000155565b505050620000cd620000c7620000ff60201b60201c565b62000103565b600d80546001600160a01b039384166001600160a01b031991821617909155600e80549290931691161790556200028d565b3390565b600b80546001600160a01b038381166001600160a01b0319831681179093556040519116919082907f8be0079c531659141344cd1fd0a4f28419497f9722a3daafe3b4186f6b6457e090600090a35050565b828054620001639062000250565b90600052602060002090601f016020900481019282620001875760008555620001d2565b82601f10620001a257805160ff1916838001178555620001d2565b82800160010185558215620001d2579182015b82811115620001d2578251825591602001919060010190620001b5565b50620001e0929150620001e4565b5090565b5b80821115620001e05760008155600101620001e5565b80516001600160a01b03811681146200021357600080fd5b919050565b600080604083850312156200022c57600080fd5b6200023783620001fb565b91506200024760208401620001fb565b90509250929050565b600181811c908216806200026557607f821691505b602082108114156200028757634e487b7160e01b600052602260045260246000fd5b50919050565b613f5d806200029d6000396000f3fe608060405234801561001057600080fd5b50600436106103db5760003560e01c80637867ccd11161020a578063b88d4fde11610125578063daa17f49116100b8578063ebaa42ed11610087578063ebaa42ed146108af578063eecbbec4146108c2578063f2fde38b146108d5578063fd18b841146108e8578063ffeab8a4146108fb57600080fd5b8063daa17f4914610838578063dca8bc471461084b578063e4e0a9311461086b578063e985e9c51461087357600080fd5b8063c79ba39c116100f4578063c79ba39c146107f7578063c87b56dd1461080a578063ca6d56dc1461081d578063d473dab11461083057600080fd5b8063b88d4fde146107b6578063bb3b407b146107c9578063beb48326146107dc578063c34e3782146107e457600080fd5b8063a22cb4651161019d578063b15d8d5f1161016c578063b15d8d5f1461075a578063b27a5f981461076d578063b43affda14610780578063b5c4b23d1461079357600080fd5b8063a22cb4651461071d578063aa46a40014610730578063ad00920e146104cb578063b063c9541461073a57600080fd5b80638f01785d116101d95780638f01785d146106e757806395914875146106fa57806395d89b411461070257806396291db61461070a57600080fd5b80637867ccd11461069d57806386794f66146106b057806389a30271146106c35780638da5cb5b146106d657600080fd5b806342842e0e116102fa5780636352211e1161028d578063715018a61161025c578063715018a61461067157806371af8374146106795780637417353f146106825780637498d2801461069557600080fd5b80636352211e1461061857806366a98ea31461062b5780636f48853b1461063e57806370a082311461065e57600080fd5b80635575ad3a116102c95780635575ad3a146105a957806356060a74146105bc578063595ee598146105cf5780635c23a67a146105ef57600080fd5b806342842e0e146105675780634623c7401461057a57806346d362301461058d5780634f6ccce71461059657600080fd5b806317550165116103725780632517fc07116103415780632517fc07146104f157806328da575b146105115780632f745c591461053457806333a415101461054757600080fd5b806317550165146104ba57806318160ddd146104c35780631c652fb5146104cb57806323b872dd146104de57600080fd5b80630b1ca49a116103ae5780630b1ca49a1461045d5780630fec3ecc1461047057806311ab8df514610487578063162094c4146104a757600080fd5b806301ffc9a7146103e057806306fdde0314610408578063081812fc1461041d578063095ea7b314610448575b600080fd5b6103f36103ee3660046137c3565b61090e565b60405190151581526020015b60405180910390f35b61041061091f565b6040516103ff9190613838565b61043061042b36600461384b565b6109b1565b6040516001600160a01b0390911681526020016103ff565b61045b610456366004613880565b610a3e565b005b61045b61046b3660046138aa565b610b54565b610479601d5481565b6040519081526020016103ff565b61047961049536600461384b565b60146020526000908152604090205481565b61045b6104b5366004613971565b610be6565b61047960185481565b600954610479565b61045b6104d93660046139b8565b610c56565b61045b6104ec3660046139da565b610c92565b6104796104ff3660046138aa565b60166020526000908152604090205481565b6103f361051f3660046138aa565b60126020526000908152604090205460ff1681565b610479610542366004613880565b610cc3565b61055a6105553660046138aa565b610d59565b6040516103ff9190613a16565b61045b6105753660046139da565b610ef3565b610479610588366004613a78565b610f0e565b61047960175481565b6104796105a436600461384b565b611065565b61045b6105b73660046138aa565b6110f8565b61055a6105ca3660046138aa565b611144565b6105e26105dd3660046138aa565b6112a2565b6040516103ff9190613acc565b6104306105fd36600461384b565b6011602052600090815260409020546001600160a01b031681565b61043061062636600461384b565b611344565b61045b61063936600461384b565b6113bb565b61047961064c36600461384b565b600f6020526000908152604090205481565b61047961066c3660046138aa565b611442565b61045b6114c9565b61047960195481565b61045b610690366004613880565b6114ff565b610479611557565b61045b6106ab3660046139b8565b6119b3565b61045b6106be36600461384b565b6119ef565b600e54610430906001600160a01b031681565b600b546001600160a01b0316610430565b61055a6106f53660046138aa565b611a3e565b610410611af8565b610410611b86565b61045b610718366004613b10565b611b95565b61045b61072b366004613b53565b611bd6565b600c546104799081565b61047961074836600461384b565b60106020526000908152604090205481565b61047961076836600461384b565b611be1565b61045b61077b366004613b53565b611c02565b61047961078e36600461384b565b611c57565b6103f36107a13660046138aa565b60156020526000908152604090205460ff1681565b61045b6107c4366004613b8a565b611c67565b6104796107d7366004613c06565b611c9f565b61045b61209a565b61055a6107f23660046138aa565b6121e3565b61045b6108053660046139b8565b612341565b61041061081836600461384b565b61237d565b61045b61082b3660046138aa565b612388565b6105e2612419565b600d54610430906001600160a01b031681565b6104796108593660046138aa565b60136020526000908152604090205481565b6105e2612470565b6103f3610881366004613c39565b6001600160a01b03918216600090815260056020908152604080832093909416825291909152205460ff1690565b61045b6108bd36600461384b565b6124c6565b61045b6108d036600461384b565b612523565b61045b6108e33660046138aa565b612556565b61045b6108f6366004613880565b6125ee565b61045b61090936600461384b565b6126b0565b600061091982612702565b92915050565b60606000805461092e90613c6c565b80601f016020809104026020016040519081016040528092919081815260200182805461095a90613c6c565b80156109a75780601f1061097c576101008083540402835291602001916109a7565b820191906000526020600020905b81548152906001019060200180831161098a57829003601f168201915b5050505050905090565b60006109bc82612727565b610a225760405162461bcd60e51b815260206004820152602c60248201527f4552433732313a20617070726f76656420717565727920666f72206e6f6e657860448201526b34b9ba32b73a103a37b5b2b760a11b60648201526084015b60405180910390fd5b506000908152600460205260409020546001600160a01b031690565b6000610a4982611344565b9050806001600160a01b0316836001600160a01b03161415610ab75760405162461bcd60e51b815260206004820152602160248201527f4552433732313a20617070726f76616c20746f2063757272656e74206f776e656044820152603960f91b6064820152608401610a19565b336001600160a01b0382161480610ad35750610ad38133610881565b610b455760405162461bcd60e51b815260206004820152603860248201527f4552433732313a20617070726f76652063616c6c6572206973206e6f74206f7760448201527f6e6572206e6f7220617070726f76656420666f7220616c6c00000000000000006064820152608401610a19565b610b4f8383612744565b505050565b3360009081526015602052604090205460ff16610bc55760405162461bcd60e51b815260206004820152602960248201527f4f6e6c7920636f6e74726163742061646d696e732063616e2072656d6f766520604482015268309036b2b6b132b91760b91b6064820152608401610a19565b6001600160a01b03166000908152601260205260409020805460ff19169055565b600b546001600160a01b03163314610c105760405162461bcd60e51b8152600401610a1990613ca7565b610c1a82826127b2565b817fc794e2271b51f209d8a645eec85692351ad1adc857ab2e06f9c5af7961cf07d582604051610c4a9190613838565b60405180910390a25050565b600b546001600160a01b03163314610c805760405162461bcd60e51b8152600401610a1990613ca7565b60009182526014602052604090912055565b610c9c338261283d565b610cb85760405162461bcd60e51b8152600401610a1990613cdc565b610b4f838383612923565b6000610cce83611442565b8210610d305760405162461bcd60e51b815260206004820152602b60248201527f455243373231456e756d657261626c653a206f776e657220696e646578206f7560448201526a74206f6620626f756e647360a81b6064820152608401610a19565b506001600160a01b03919091166000908152600760209081526040808320938352929052205490565b60606000610d66600c5490565b905060008060015b838111610deb57856001600160a01b0316610d8882611344565b6001600160a01b0316148015610dc657506017546000828152600f60205260409020541480610dc657506018546000828152600f6020526040902054145b15610dd957610dd6600184613d43565b92505b80610de381613d5b565b915050610d6e565b5060008267ffffffffffffffff811115610e0757610e076138c5565b604051908082528060200260200182016040528015610e3a57816020015b6060815260200190600190039081610e255790505b50905060015b848111610ee957866001600160a01b0316610e5a82611344565b6001600160a01b0316148015610e9857506017546000828152600f60205260409020541480610e9857506018546000828152600f6020526040902054145b15610ed7576000610ea88261237d565b905080838581518110610ebd57610ebd613d76565b6020908102919091010152610ed3600185613d43565b9350505b80610ee181613d5b565b915050610e40565b5095945050505050565b610b4f83838360405180602001604052806000815250611c67565b600b546000906001600160a01b03163314610f3b5760405162461bcd60e51b8152600401610a1990613ca7565b610f49600c80546001019055565b6000610f54600c5490565b6000818152600f60209081526040808320899055601090915290208590559050610f7e3382612ad0565b610f8881876127b2565b610f923082610a3e565b600d54610fa9906001600160a01b03166001611bd6565b601754851415610fed57601a80546001810182556000919091527f057c384a7d1c54f3a1b2e5e67b2617b8224fdfd1ea7234eea573a6ff665ff63e0181905561105a565b60185485141561105a57601b80546001810182556000919091527f3ad8aa4f87544323a9d1e5dd902f40c356527a7955687113db5f9a85ad579dc101819055821561104857600081815260146020526040902083905561105a565b60008181526014602052604090204290555b90505b949350505050565b600061107060095490565b82106110d35760405162461bcd60e51b815260206004820152602c60248201527f455243373231456e756d657261626c653a20676c6f62616c20696e646578206f60448201526b7574206f6620626f756e647360a01b6064820152608401610a19565b600982815481106110e6576110e6613d76565b90600052602060002001549050919050565b600b546001600160a01b031633146111225760405162461bcd60e51b8152600401610a1990613ca7565b600e80546001600160a01b0319166001600160a01b0392909216919091179055565b60606000611151600c5490565b905060008060015b8381116111bd57856001600160a01b031661117382611344565b6001600160a01b031614801561119857506017546000828152600f6020526040902054145b156111ab576111a8600184613d43565b92505b806111b581613d5b565b915050611159565b5060008267ffffffffffffffff8111156111d9576111d96138c5565b60405190808252806020026020018201604052801561120c57816020015b60608152602001906001900390816111f75790505b50905060015b848111610ee957866001600160a01b031661122c82611344565b6001600160a01b031614801561125157506017546000828152600f6020526040902054145b156112905760006112618261237d565b90508083858151811061127657611276613d76565b602090810291909101015261128c600185613d43565b9350505b8061129a81613d5b565b915050611212565b606060006112af83611442565b905060008167ffffffffffffffff8111156112cc576112cc6138c5565b6040519080825280602002602001820160405280156112f5578160200160208202803683370190505b50905060005b8281101561133c5761130d8582610cc3565b82828151811061131f5761131f613d76565b60209081029190910101528061133481613d5b565b9150506112fb565b509392505050565b6000818152600260205260408120546001600160a01b0316806109195760405162461bcd60e51b815260206004820152602960248201527f4552433732313a206f776e657220717565727920666f72206e6f6e657869737460448201526832b73a103a37b5b2b760b91b6064820152608401610a19565b600b546001600160a01b031633146113e55760405162461bcd60e51b8152600401610a1990613ca7565b6017819055604051751bdc9a59da5b985b10d85c991a5b985b151e5c19525960521b815281906016015b604051908190038120907fa611ba47a2a0887b794d3e097d5cfb33522f6ed26df589ccd12c01d5c584800a90600090a350565b60006001600160a01b0382166114ad5760405162461bcd60e51b815260206004820152602a60248201527f4552433732313a2062616c616e636520717565727920666f7220746865207a65604482015269726f206164647265737360b01b6064820152608401610a19565b506001600160a01b031660009081526003602052604090205490565b600b546001600160a01b031633146114f35760405162461bcd60e51b8152600401610a1990613ca7565b6114fd6000612c17565b565b600b546001600160a01b031633146115295760405162461bcd60e51b8152600401610a1990613ca7565b600090815260116020526040902080546001600160a01b0319166001600160a01b0392909216919091179055565b601d54336000908152601660205260408120549091901561159e5733600090815260166020526040902054601d5460649161159191613d8c565b61159b9190613dc1565b90505b600e546040516370a0823160e01b815233600482015282916001600160a01b0316906370a082319060240160206040518083038186803b1580156115e157600080fd5b505afa1580156115f5573d6000803e3d6000fd5b505050506040513d601f19601f820116820180604052508101906116199190613dd5565b101561168d5760405162461bcd60e51b815260206004820152603960248201527f596f7520646f6e2774206861766520656e6f756768205553444320746f20706160448201527f7920666f7220746865206d656d62657273686970204e46542e000000000000006064820152608401610a19565b600e54604051636eb1769f60e11b815233600482015230602482015282916001600160a01b03169063dd62ed3e9060440160206040518083038186803b1580156116d657600080fd5b505afa1580156116ea573d6000803e3d6000fd5b505050506040513d601f19601f8201168201806040525081019061170e9190613dd5565b10156117a85760405162461bcd60e51b815260206004820152605e60248201527f596f7520686176656e277420617070726f766564207468697320636f6e74726160448201527f637420746f207370656e6420656e6f756768206f6620796f757220555344432060648201527f746f2070617920666f7220746865206d656d62657273686970204e46542e0000608482015260a401610a19565b600e546040516323b872dd60e01b8152336004820152306024820152604481018390526001600160a01b03909116906323b872dd90606401602060405180830381600087803b1580156117fa57600080fd5b505af115801561180e573d6000803e3d6000fd5b505050506040513d601f19601f820116820180604052508101906118329190613dee565b50611841600c80546001019055565b600061184c600c5490565b6018546000828152600f6020908152604080832093909355601090529081205590506118783382612ad0565b60008181526014602090815260408083204290553383526016909152812055601c805461192d9183916118aa90613c6c565b80601f01602080910402602001604051908101604052809291908181526020018280546118d690613c6c565b80156119235780601f106118f857610100808354040283529160200191611923565b820191906000526020600020905b81548152906001019060200180831161190657829003601f168201915b50505050506127b2565b6119373082610a3e565b600d5461194e906001600160a01b03166001611bd6565b601b805460018101825560009182527f3ad8aa4f87544323a9d1e5dd902f40c356527a7955687113db5f9a85ad579dc101829055604051829133917f7430cefc529011c1b720a4803c3a12db2bfdf282e089e2d26ff4929ef11a703c9190a392915050565b600b546001600160a01b031633146119dd5760405162461bcd60e51b8152600401610a1990613ca7565b60009182526010602052604090912055565b600b546001600160a01b03163314611a195760405162461bcd60e51b8152600401610a1990613ca7565b60198190556040516c1cd95c9d9a58d9551e5c195259609a1b81528190600d0161140f565b60606000611a4b83611442565b90506000808267ffffffffffffffff811115611a6957611a696138c5565b604051908082528060200260200182016040528015611a9c57816020015b6060815260200190600190039081611a875790505b50905060005b83811015611aef57611ab48682610cc3565b9250611abf8361237d565b828281518110611ad157611ad1613d76565b60200260200101819052508080611ae790613d5b565b915050611aa2565b50949350505050565b601c8054611b0590613c6c565b80601f0160208091040260200160405190810160405280929190818152602001828054611b3190613c6c565b8015611b7e5780601f10611b5357610100808354040283529160200191611b7e565b820191906000526020600020905b815481529060010190602001808311611b6157829003601f168201915b505050505081565b60606001805461092e90613c6c565b600b546001600160a01b03163314611bbf5760405162461bcd60e51b8152600401610a1990613ca7565b8051611bd290601c906020840190613714565b5050565b611bd2338383612c69565b601b8181548110611bf157600080fd5b600091825260209091200154905081565b600b546001600160a01b03163314611c2c5760405162461bcd60e51b8152600401610a1990613ca7565b6001600160a01b03919091166000908152601560205260409020805460ff1916911515919091179055565b601a8181548110611bf157600080fd5b611c71338361283d565b611c8d5760405162461bcd60e51b8152600401610a1990613cdc565b611c9984848484612d38565b50505050565b600b546000906001600160a01b03163314611ccc5760405162461bcd60e51b8152600401610a1990613ca7565b836001600160a01b0316611cdf84611344565b6001600160a01b031614611d495760405162461bcd60e51b815260206004820152602b60248201527f54686973206164647265737320646f65736e2774206f776e20746865204e465460448201526a1039b832b1b4b334b2b21760a91b6064820152608401610a19565b600b546001600160a01b0316611d5e84611344565b6001600160a01b031614158015611d915750600d546001600160a01b0316611d8584611344565b6001600160a01b031614155b611e035760405162461bcd60e51b815260206004820152603960248201527f43616e27742063686172676520746865206f776e6572206f72206d61726b657460448201527f706c61636520666f7220746865206d656d626572736869702e000000000000006064820152608401610a19565b601d546001600160a01b03851660009081526016602052604090205415611e59576001600160a01b038516600090815260166020526040902054601d54606491611e4c91613d8c565b611e569190613dc1565b90505b600e546040516370a0823160e01b81526001600160a01b038781166004830152839216906370a082319060240160206040518083038186803b158015611e9e57600080fd5b505afa158015611eb2573d6000803e3d6000fd5b505050506040513d601f19601f82011682018060405250810190611ed69190613dd5565b1080611f625750600e54604051636eb1769f60e11b81526001600160a01b0387811660048301523060248301528392169063dd62ed3e9060440160206040518083038186803b158015611f2857600080fd5b505afa158015611f3c573d6000803e3d6000fd5b505050506040513d601f19601f82011682018060405250810190611f609190613dd5565b105b15611f7a57611f7084612d6b565b6001915050612093565b600e546040516323b872dd60e01b81526001600160a01b03878116600483015230602483015260448201849052909116906323b872dd90606401602060405180830381600087803b158015611fce57600080fd5b505af1158015611fe2573d6000803e3d6000fd5b505050506040513d601f19601f820116820180604052508101906120069190613dee565b508215612023576000848152601460205260409020839055612035565b60008481526014602052604090204290555b6001600160a01b03851660008181526016602090815260408083209290925581518481529081018690528692917f9170d37d9d267e1d271f28f3f225ac7e95b00677566675ba1d251944eb3c5924910160405180910390a360009150505b9392505050565b600b546001600160a01b031633146120c45760405162461bcd60e51b8152600401610a1990613ca7565b600e546001600160a01b031663a9059cbb6120e7600b546001600160a01b031690565b600e546040516370a0823160e01b81523060048201526001600160a01b03909116906370a082319060240160206040518083038186803b15801561212a57600080fd5b505afa15801561213e573d6000803e3d6000fd5b505050506040513d601f19601f820116820180604052508101906121629190613dd5565b6040516001600160e01b031960e085901b1681526001600160a01b0390921660048301526024820152604401602060405180830381600087803b1580156121a857600080fd5b505af11580156121bc573d6000803e3d6000fd5b505050506040513d601f19601f820116820180604052508101906121e09190613dee565b50565b606060006121f0600c5490565b905060008060015b83811161225c57856001600160a01b031661221282611344565b6001600160a01b031614801561223757506019546000828152600f6020526040902054145b1561224a57612247600184613d43565b92505b8061225481613d5b565b9150506121f8565b5060008267ffffffffffffffff811115612278576122786138c5565b6040519080825280602002602001820160405280156122ab57816020015b60608152602001906001900390816122965790505b50905060015b848111610ee957866001600160a01b03166122cb82611344565b6001600160a01b03161480156122f057506019546000828152600f6020526040902054145b1561232f5760006123008261237d565b90508083858151811061231557612315613d76565b602090810291909101015261232b600185613d43565b9350505b8061233981613d5b565b9150506122b1565b600b546001600160a01b0316331461236b5760405162461bcd60e51b8152600401610a1990613ca7565b6000918252600f602052604090912055565b606061091982612eaa565b3360009081526015602052604090205460ff166123f55760405162461bcd60e51b815260206004820152602560248201527f4f6e6c7920636f6e74726163742061646d696e732063616e20616464206d656d6044820152643132b9399760d91b6064820152608401610a19565b6001600160a01b03166000908152601260205260409020805460ff19166001179055565b6060601b8054806020026020016040519081016040528092919081815260200182805480156109a757602002820191906000526020600020905b815481526020019060010190808311612453575050505050905090565b6060601a8054806020026020016040519081016040528092919081815260200182805480156109a75760200282019190600052602060002090815481526020019060010190808311612453575050505050905090565b600b546001600160a01b031633146124f05760405162461bcd60e51b8152600401610a1990613ca7565b601d81905560405181907f1361f6a741cb766ea2f0be44a0e1686df0e08320be065f6c8df9e4f639ab297a90600090a250565b600b546001600160a01b0316331461254d5760405162461bcd60e51b8152600401610a1990613ca7565b6121e081612d6b565b600b546001600160a01b031633146125805760405162461bcd60e51b8152600401610a1990613ca7565b6001600160a01b0381166125e55760405162461bcd60e51b815260206004820152602660248201527f4f776e61626c653a206e6577206f776e657220697320746865207a65726f206160448201526564647265737360d01b6064820152608401610a19565b6121e081612c17565b3360009081526015602052604090205460ff166126695760405162461bcd60e51b815260206004820152603360248201527f4f6e6c7920636f6e74726163742061646d696e732063616e207365742061206d60448201527232b6b132b939b434b8103234b9b1b7bab73a1760691b6064820152608401610a19565b6001600160a01b038216600081815260166020526040808220849055518392917f874556b552951a64a8a3f7627516f395097b3de40cf93b85e87b03118cc02cf091a35050565b600b546001600160a01b031633146126da5760405162461bcd60e51b8152600401610a1990613ca7565b60188190556040516f1b595b58995c9cda1a5c151e5c19525960821b8152819060100161140f565b60006001600160e01b0319821663780e9d6360e01b1480610919575061091982613019565b6000908152600260205260409020546001600160a01b0316151590565b600081815260046020526040902080546001600160a01b0319166001600160a01b038416908117909155819061277982611344565b6001600160a01b03167f8c5be1e5ebec7d5bd14f71427d1e84f3dd0314c0f7b2291e5b200ac8c7c3b92560405160405180910390a45050565b6127bb82612727565b61281e5760405162461bcd60e51b815260206004820152602e60248201527f45524337323155524953746f726167653a2055524920736574206f66206e6f6e60448201526d32bc34b9ba32b73a103a37b5b2b760911b6064820152608401610a19565b60008281526006602090815260409091208251610b4f92840190613714565b600061284882612727565b6128a95760405162461bcd60e51b815260206004820152602c60248201527f4552433732313a206f70657261746f7220717565727920666f72206e6f6e657860448201526b34b9ba32b73a103a37b5b2b760a11b6064820152608401610a19565b60006128b483611344565b9050806001600160a01b0316846001600160a01b031614806128ef5750836001600160a01b03166128e4846109b1565b6001600160a01b0316145b8061105d57506001600160a01b0380821660009081526005602090815260408083209388168352929052205460ff1661105d565b826001600160a01b031661293682611344565b6001600160a01b03161461299a5760405162461bcd60e51b815260206004820152602560248201527f4552433732313a207472616e736665722066726f6d20696e636f72726563742060448201526437bbb732b960d91b6064820152608401610a19565b6001600160a01b0382166129fc5760405162461bcd60e51b8152602060048201526024808201527f4552433732313a207472616e7366657220746f20746865207a65726f206164646044820152637265737360e01b6064820152608401610a19565b612a07838383613069565b612a12600082612744565b6001600160a01b0383166000908152600360205260408120805460019290612a3b908490613e0b565b90915550506001600160a01b0382166000908152600360205260408120805460019290612a69908490613d43565b909155505060008181526002602052604080822080546001600160a01b0319166001600160a01b0386811691821790925591518493918716917fddf252ad1be2c89b69c2b068fc378daa952ba7f163c4a11628f55a4df523b3ef91a4610b4f838383613074565b6001600160a01b038216612b265760405162461bcd60e51b815260206004820181905260248201527f4552433732313a206d696e7420746f20746865207a65726f20616464726573736044820152606401610a19565b612b2f81612727565b15612b7c5760405162461bcd60e51b815260206004820152601c60248201527f4552433732313a20746f6b656e20616c7265616479206d696e746564000000006044820152606401610a19565b612b8860008383613069565b6001600160a01b0382166000908152600360205260408120805460019290612bb1908490613d43565b909155505060008181526002602052604080822080546001600160a01b0319166001600160a01b03861690811790915590518392907fddf252ad1be2c89b69c2b068fc378daa952ba7f163c4a11628f55a4df523b3ef908290a4611bd260008383613074565b600b80546001600160a01b038381166001600160a01b0319831681179093556040519116919082907f8be0079c531659141344cd1fd0a4f28419497f9722a3daafe3b4186f6b6457e090600090a35050565b816001600160a01b0316836001600160a01b03161415612ccb5760405162461bcd60e51b815260206004820152601960248201527f4552433732313a20617070726f766520746f2063616c6c6572000000000000006044820152606401610a19565b6001600160a01b03838116600081815260056020908152604080832094871680845294825291829020805460ff191686151590811790915591519182527f17307eab39ab6107e8899845ad3d59bd9653f200f220920489ca2b5937696c31910160405180910390a3505050565b612d43848484612923565b612d4f848484846131ed565b611c995760405162461bcd60e51b8152600401610a1990613e22565b60005b601b54811015611bd25781601b8281548110612d8c57612d8c613d76565b90600052602060002001541415612e98576000612dc5601b8381548110612db557612db5613d76565b9060005260206000200154611344565b9050612def8130601b8581548110612ddf57612ddf613d76565b9060005260206000200154612923565b60405183906001600160a01b038316907f5ab068fe2788c545757bcb78e3b2d842e34ec21c90f26c60e5ce7686e90b874990600090a3601b8054612e3590600190613e0b565b81548110612e4557612e45613d76565b9060005260206000200154601b8381548110612e6357612e63613d76565b600091825260209091200155601b805480612e8057612e80613e74565b60019003818190600052602060002001600090559055505b80612ea281613d5b565b915050612d6e565b6060612eb582612727565b612f1b5760405162461bcd60e51b815260206004820152603160248201527f45524337323155524953746f726167653a2055524920717565727920666f72206044820152703737b732bc34b9ba32b73a103a37b5b2b760791b6064820152608401610a19565b60008281526006602052604081208054612f3490613c6c565b80601f0160208091040260200160405190810160405280929190818152602001828054612f6090613c6c565b8015612fad5780601f10612f8257610100808354040283529160200191612fad565b820191906000526020600020905b815481529060010190602001808311612f9057829003601f168201915b505050505090506000612fcb60408051602081019091526000815290565b9050805160001415612fde575092915050565b815115613010578082604051602001612ff8929190613e8a565b60405160208183030381529060405292505050919050565b61105d846132f7565b60006001600160e01b031982166380ac58cd60e01b148061304a57506001600160e01b03198216635b5e139f60e01b145b8061091957506301ffc9a760e01b6001600160e01b0319831614610919565b610b4f8383836133ce565b6018546000828152600f602052604090205414806130a157506017546000828152600f6020526040902054145b15610b4f57600b546001600160a01b038481169116148015906130d25750600d546001600160a01b03848116911614155b80156130e657506001600160a01b03831615155b15613194576001600160a01b03831660009081526013602052604090205415613173576001600160a01b03831660009081526013602052604090205461312e90600190613e0b565b6001600160a01b038416600090815260136020526040902081905561316e576001600160a01b0383166000908152601260205260409020805460ff191690555b613194565b6001600160a01b0383166000908152601260205260409020805460ff191690555b6001600160a01b0382166000908152601260209081526040808320805460ff191660019081179091556013909252909120546131cf91613d43565b6001600160a01b038316600090815260136020526040902055505050565b60006001600160a01b0384163b156132ef57604051630a85bd0160e11b81526001600160a01b0385169063150b7a0290613231903390899088908890600401613eb9565b602060405180830381600087803b15801561324b57600080fd5b505af192505050801561327b575060408051601f3d908101601f1916820190925261327891810190613ef6565b60015b6132d5573d8080156132a9576040519150601f19603f3d011682016040523d82523d6000602084013e6132ae565b606091505b5080516132cd5760405162461bcd60e51b8152600401610a1990613e22565b805181602001fd5b6001600160e01b031916630a85bd0160e11b14905061105d565b50600161105d565b606061330282612727565b6133665760405162461bcd60e51b815260206004820152602f60248201527f4552433732314d657461646174613a2055524920717565727920666f72206e6f60448201526e3732bc34b9ba32b73a103a37b5b2b760891b6064820152608401610a19565b600061337d60408051602081019091526000815290565b9050600081511161339d5760405180602001604052806000815250612093565b806133a784613486565b6040516020016133b8929190613e8a565b6040516020818303038152906040529392505050565b6001600160a01b0383166134295761342481600980546000838152600a60205260408120829055600182018355919091527f6e1540171b6c0c960b71a7020d9f60077f6af931a8bbf590da0223dacf75c7af0155565b61344c565b816001600160a01b0316836001600160a01b03161461344c5761344c8382613584565b6001600160a01b03821661346357610b4f81613621565b826001600160a01b0316826001600160a01b031614610b4f57610b4f82826136d0565b6060816134aa5750506040805180820190915260018152600360fc1b602082015290565b8160005b81156134d457806134be81613d5b565b91506134cd9050600a83613dc1565b91506134ae565b60008167ffffffffffffffff8111156134ef576134ef6138c5565b6040519080825280601f01601f191660200182016040528015613519576020820181803683370190505b5090505b841561105d5761352e600183613e0b565b915061353b600a86613f13565b613546906030613d43565b60f81b81838151811061355b5761355b613d76565b60200101906001600160f81b031916908160001a90535061357d600a86613dc1565b945061351d565b6000600161359184611442565b61359b9190613e0b565b6000838152600860205260409020549091508082146135ee576001600160a01b03841660009081526007602090815260408083208584528252808320548484528184208190558352600890915290208190555b5060009182526008602090815260408084208490556001600160a01b039094168352600781528383209183525290812055565b60095460009061363390600190613e0b565b6000838152600a60205260408120546009805493945090928490811061365b5761365b613d76565b90600052602060002001549050806009838154811061367c5761367c613d76565b6000918252602080832090910192909255828152600a909152604080822084905585825281205560098054806136b4576136b4613e74565b6001900381819060005260206000200160009055905550505050565b60006136db83611442565b6001600160a01b039093166000908152600760209081526040808320868452825280832085905593825260089052919091209190915550565b82805461372090613c6c565b90600052602060002090601f0160209004810192826137425760008555613788565b82601f1061375b57805160ff1916838001178555613788565b82800160010185558215613788579182015b8281111561378857825182559160200191906001019061376d565b50613794929150613798565b5090565b5b808211156137945760008155600101613799565b6001600160e01b0319811681146121e057600080fd5b6000602082840312156137d557600080fd5b8135612093816137ad565b60005b838110156137fb5781810151838201526020016137e3565b83811115611c995750506000910152565b600081518084526138248160208601602086016137e0565b601f01601f19169290920160200192915050565b602081526000612093602083018461380c565b60006020828403121561385d57600080fd5b5035919050565b80356001600160a01b038116811461387b57600080fd5b919050565b6000806040838503121561389357600080fd5b61389c83613864565b946020939093013593505050565b6000602082840312156138bc57600080fd5b61209382613864565b634e487b7160e01b600052604160045260246000fd5b600067ffffffffffffffff808411156138f6576138f66138c5565b604051601f8501601f19908116603f0116810190828211818310171561391e5761391e6138c5565b8160405280935085815286868601111561393757600080fd5b858560208301376000602087830101525050509392505050565b600082601f83011261396257600080fd5b612093838335602085016138db565b6000806040838503121561398457600080fd5b82359150602083013567ffffffffffffffff8111156139a257600080fd5b6139ae85828601613951565b9150509250929050565b600080604083850312156139cb57600080fd5b50508035926020909101359150565b6000806000606084860312156139ef57600080fd5b6139f884613864565b9250613a0660208501613864565b9150604084013590509250925092565b6000602080830181845280855180835260408601915060408160051b870101925083870160005b82811015613a6b57603f19888603018452613a5985835161380c565b94509285019290850190600101613a3d565b5092979650505050505050565b60008060008060808587031215613a8e57600080fd5b843567ffffffffffffffff811115613aa557600080fd5b613ab187828801613951565b97602087013597506040870135966060013595509350505050565b6020808252825182820181905260009190848201906040850190845b81811015613b0457835183529284019291840191600101613ae8565b50909695505050505050565b600060208284031215613b2257600080fd5b813567ffffffffffffffff811115613b3957600080fd5b61105d84828501613951565b80151581146121e057600080fd5b60008060408385031215613b6657600080fd5b613b6f83613864565b91506020830135613b7f81613b45565b809150509250929050565b60008060008060808587031215613ba057600080fd5b613ba985613864565b9350613bb760208601613864565b925060408501359150606085013567ffffffffffffffff811115613bda57600080fd5b8501601f81018713613beb57600080fd5b613bfa878235602084016138db565b91505092959194509250565b600080600060608486031215613c1b57600080fd5b613c2484613864565b95602085013595506040909401359392505050565b60008060408385031215613c4c57600080fd5b613c5583613864565b9150613c6360208401613864565b90509250929050565b600181811c90821680613c8057607f821691505b60208210811415613ca157634e487b7160e01b600052602260045260246000fd5b50919050565b6020808252818101527f4f776e61626c653a2063616c6c6572206973206e6f7420746865206f776e6572604082015260600190565b60208082526031908201527f4552433732313a207472616e736665722063616c6c6572206973206e6f74206f6040820152701ddb995c881b9bdc88185c1c1c9bdd9959607a1b606082015260800190565b634e487b7160e01b600052601160045260246000fd5b60008219821115613d5657613d56613d2d565b500190565b6000600019821415613d6f57613d6f613d2d565b5060010190565b634e487b7160e01b600052603260045260246000fd5b6000816000190483118215151615613da657613da6613d2d565b500290565b634e487b7160e01b600052601260045260246000fd5b600082613dd057613dd0613dab565b500490565b600060208284031215613de757600080fd5b5051919050565b600060208284031215613e0057600080fd5b815161209381613b45565b600082821015613e1d57613e1d613d2d565b500390565b60208082526032908201527f4552433732313a207472616e7366657220746f206e6f6e20455243373231526560408201527131b2b4bb32b91034b6b83632b6b2b73a32b960711b606082015260800190565b634e487b7160e01b600052603160045260246000fd5b60008351613e9c8184602088016137e0565b835190830190613eb08183602088016137e0565b01949350505050565b6001600160a01b0385811682528416602082015260408101839052608060608201819052600090613eec9083018461380c565b9695505050505050565b600060208284031215613f0857600080fd5b8151612093816137ad565b600082613f2257613f22613dab565b50069056fea2646970667358221220f644211d3b12e5a05edcb2475c48f088c7f53a840f13b9466680be3fe6eb3c9a64736f6c63430008080033",
  "bytecodeSha1": "2fcacc0b8debb42da06adbac1195acb146562c95",
  "compiler": {
    "evm_version": "istanbul",
    "optimizer": {
      "enabled": true,
      "runs": 200
    },
    "version": "0.8.8+commit.dddeac2f"
  },
  "contractName": "CardinalNFT",
  "language": "Solidity",
  "natspec": {
    "details": "NFT contract that will be used with the marketplace contract",
    "kind": "dev",
    "methods": {
      "addMember(address)": {
        "details": "Allows contract admins to manually add an address as a member. Necessary for memberships purchased through Patreon.",
        "params": {
          "memberAddress": "the address of the member being added"
        }
      },
      "addWhiteListToToken(address,uint256)": {
        "details": "Function to assign an NFT to a whitelist spot so only one address can purchase the NFT.",
        "params": {
          "tokenId": "the ID of the NFT that the whitelist spot is for",
          "whiteListAddress": "the address of the user who will be able to purchase the NFT"
        }
      },
      "approve(address,uint256)": {
        "details": "See {IERC721-approve}."
      },
      "balanceOf(address)": {
        "details": "See {IERC721-balanceOf}."
      },
      "burnMembershiptNFTManually(uint256)": {
        "details": "Only owner function to burn a membership NFT",
        "params": {
          "tokenId": "the tokenId of the membership NFT to burn"
        }
      },
      "chargeMemberForMembership(address,uint256,uint256)": {
        "details": "Only owner function to take funds from an address to pay for the next month of a membership",
        "params": {
          "currTimeStamp": "the current timestamp for the transaction to avoid relying on block.timestamp",
          "member": "the address of the member that is being charged for the next month of a membership",
          "tokenId": "the token ID that the member is being charged"
        },
        "returns": {
          "_0": "0 for success, 1 for failure and NFT burn"
        }
      },
      "createToken(string,uint256,uint256,uint256)": {
        "details": "Only owner function to mint a new NFT.",
        "params": {
          "currTimeStamp": "the current timestamp for the transaction to avoid relying on block.timestamp",
          "listingFee": "the fee the user pays when putting the NFT for sale on the marketplace",
          "newTokenURI": "the token URI on IPFS for the NFT metadata",
          "typeId": "the type ID of the NFT to distinguish what type of NFT it is (Original Cardinal, membership, service)"
        },
        "returns": {
          "_0": "the ID of the newly minted NFT"
        }
      },
      "getApproved(uint256)": {
        "details": "See {IERC721-getApproved}."
      },
      "getMembershipTokenIds()": {
        "details": "Function to get a list of all the membership NFT IDs.",
        "returns": {
          "_0": "list of the membership NFT IDs"
        }
      },
      "getOriginalCardinalTokenIds()": {
        "details": "Function to get a list of all the Original Cardinal NFT IDs.",
        "returns": {
          "_0": "list of the Original Cardinal NFT IDs"
        }
      },
      "getUserMembershipTokenURIs(address)": {
        "details": "Function to get all token URIs for membership NFTs that a given user owns.",
        "params": {
          "userAddress": "the user's address to get token URIs of"
        },
        "returns": {
          "_0": "list of token URIs for a user's membership NFTs"
        }
      },
      "getUserOriginalCardinalTokenURIs(address)": {
        "details": "Function to get all token URIs for Original Cardinal NFTs that a given user owns.",
        "params": {
          "userAddress": "the user's address to get token URIs of"
        },
        "returns": {
          "_0": "list of token URIs for a user's Original Cardinal NFTs"
        }
      },
      "getUserServiceTokenURIs(address)": {
        "details": "Function to get all token URIs for service NFTs that a given user owns.",
        "params": {
          "userAddress": "the user's address to get token URIs of"
        },
        "returns": {
          "_0": "list of token URIs for a user's service NFTs"
        }
      },
      "getUserTokenIDs(address)": {
        "details": "Function to get all token IDs for tokens that a given user owns.",
        "params": {
          "userAddress": "the user's address to get token IDs of"
        },
        "returns": {
          "_0": "list of token IDs for a user's NFTs"
        }
      },
      "getUserTokenURIs(address)": {
        "details": "Function to get all token URIs for tokens that a given user owns.",
        "params": {
          "userAddress": "the user's address to get token URIs of"
        },
        "returns": {
          "_0": "list of token URIs for a user's NFTs"
        }
      },
      "isApprovedForAll(address,address)": {
        "details": "See {IERC721-isApprovedForAll}."
      },
      "mintMembershipNFT()": {
        "details": "Allows someone to mint a membership NFT by paying USDC",
        "returns": {
          "_0": "the ID of the newly minted membership NFT"
        }
      },
      "name()": {
        "details": "See {IERC721Metadata-name}."
      },
      "owner()": {
        "details": "Returns the address of the current owner."
      },
      "ownerOf(uint256)": {
        "details": "See {IERC721-ownerOf}."
      },
      "removeMember(address)": {
        "details": "Allows contract admins to manually remove an address as a member. Necessary for when a membership bought through Patreon expires.",
        "params": {
          "memberAddress": "the address to remove from the membership list"
        }
      },
      "renounceOwnership()": {
        "details": "Leaves the contract without owner. It will not be possible to call `onlyOwner` functions anymore. Can only be called by the current owner. NOTE: Renouncing ownership will leave the contract without an owner, thereby removing any functionality that is only available to the owner."
      },
      "safeTransferFrom(address,address,uint256)": {
        "details": "See {IERC721-safeTransferFrom}."
      },
      "safeTransferFrom(address,address,uint256,bytes)": {
        "details": "See {IERC721-safeTransferFrom}."
      },
      "setAdminUser(address,bool)": {
        "details": "Only owner function to update the admin mapping.",
        "params": {
          "adminAddress": "the address to admin rights for",
          "isAdmin": "boolean to determine if the address is an admin or not"
        }
      },
      "setApprovalForAll(address,bool)": {
        "details": "See {IERC721-setApprovalForAll}."
      },
      "setMemberDiscount(address,uint256)": {
        "details": "Allows contract admins to set a membership discount for an address.",
        "params": {
          "discountAmount": "the discount amount, 90 for 90% of membership price, 75 for 75% of membership price, etc.",
          "memberAddress": "the address to give the discount to"
        }
      },
      "setTokenURI(uint256,string)": {
        "details": "Setter function for the token URI of an NFT.",
        "params": {
          "newTokenURI": "the token URI to update the NFT with",
          "tokenId": "the ID of the NFT to update the token URI of"
        }
      },
      "setUSDCContract(address)": {
        "details": "Only owner function to set the reference to the USDC contract",
        "params": {
          "_USDC": "the address for the USDC contract"
        }
      },
      "symbol()": {
        "details": "See {IERC721Metadata-symbol}."
      },
      "tokenByIndex(uint256)": {
        "details": "See {IERC721Enumerable-tokenByIndex}."
      },
      "tokenOfOwnerByIndex(address,uint256)": {
        "details": "See {IERC721Enumerable-tokenOfOwnerByIndex}."
      },
      "totalSupply()": {
        "details": "See {IERC721Enumerable-totalSupply}."
      },
      "transferFrom(address,address,uint256)": {
        "details": "See {IERC721-transferFrom}."
      },
      "transferOwnership(address)": {
        "details": "Transfers ownership of the contract to a new account (`newOwner`). Can only be called by the current owner."
      },
      "updateMembershipNFTLastPaid(uint256,uint256)": {
        "details": "Only owner function to update the timestamp for a membership NFT after it has been paid for for a month.",
        "params": {
          "lastPaidTimestamp": "the timestamp to update the membership NFT to for when it was last paid for",
          "tokenId": "the ID of the membership NFT to have the timestamp updated for"
        }
      },
      "updateMembershipNFTToLastPaid(uint256,uint256)": {
        "details": "Only owner function to update the timestamp for when a user last paid for their membership.",
        "params": {
          "newLastPaid": "the new timestamp that represents when the user last paid for their membership NFT",
          "tokenId": "the token ID to update the membership last paid timestamp for"
        }
      },
      "updateMembershipPrice(uint256)": {
        "details": "sets the price of the membership NFTs in USDC",
        "params": {
          "newMembershipPrice": "the new price of the membership NFTs in USDC"
        }
      },
      "updateMembershipTokenURI(string)": {
        "details": "updates the membership NFT token URI",
        "params": {
          "newMembershipTokenURI": "the new type ID of the service NFTs"
        }
      },
      "updateMembershipTypeId(uint256)": {
        "details": "updates the type ID that represents the membership NFTs",
        "params": {
          "newMembershipTypeId": "the new type ID of the membership NFTs"
        }
      },
      "updateOriginalCardinalTypeId(uint256)": {
        "details": "updates the type ID that represents the Original Cardinal NFTs",
        "params": {
          "newOriginalCardinalTypeId": "the new type ID of the Original Cardinal NFTs"
        }
      },
      "updateServiceTypeId(uint256)": {
        "details": "updates the type ID that represents the service NFTs",
        "params": {
          "newServiceTypeId": "the new type ID of the service NFTs"
        }
      },
      "updateTokenListingFee(uint256,uint256)": {
        "details": "updates the listing fee of an NFT.",
        "params": {
          "newListingFee": "the listing fee value for the NFT",
          "tokenId": "the ID of the NFT to update the listing fee of"
        }
      },
      "updateTokenTypeId(uint256,uint256)": {
        "details": "updates the type ID of an NFT.",
        "params": {
          "newTypeId": "the type ID value for the NFT",
          "tokenId": "the ID of the NFT to update the type ID of"
        }
      },
      "withdrawMembershipNFTFunds()": {
        "details": "Only owner function to withdraw the USDC that are paid to this contract for the Membership NFTs."
      }
    },
    "title": "Cardinal House NFT Contract",
    "version": 1
  },
  "opcodes": "PUSH1 0x80 PUSH1 0x40 MSTORE CALLVALUE DUP1 ISZERO PUSH2 0x10 JUMPI PUSH1 0x0 DUP1 REVERT JUMPDEST POP PUSH1 0x4 CALLDATASIZE LT PUSH2 0x3DB JUMPI PUSH1 0x0 CALLDATALOAD PUSH1 0xE0 SHR DUP1 PUSH4 0x7867CCD1 GT PUSH2 0x20A JUMPI DUP1 PUSH4 0xB88D4FDE GT PUSH2 0x125 JUMPI DUP1 PUSH4 0xDAA17F49 GT PUSH2 0xB8 JUMPI DUP1 PUSH4 0xEBAA42ED GT PUSH2 0x87 JUMPI DUP1 PUSH4 0xEBAA42ED EQ PUSH2 0x8AF JUMPI DUP1 PUSH4 0xEECBBEC4 EQ PUSH2 0x8C2 JUMPI DUP1 PUSH4 0xF2FDE38B EQ PUSH2 0x8D5 JUMPI DUP1 PUSH4 0xFD18B841 EQ PUSH2 0x8E8 JUMPI DUP1 PUSH4 0xFFEAB8A4 EQ PUSH2 0x8FB JUMPI PUSH1 0x0 DUP1 REVERT JUMPDEST DUP1 PUSH4 0xDAA17F49 EQ PUSH2 0x838 JUMPI DUP1 PUSH4 0xDCA8BC47 EQ PUSH2 0x84B JUMPI DUP1 PUSH4 0xE4E0A931 EQ PUSH2 0x86B JUMPI DUP1 PUSH4 0xE985E9C5 EQ PUSH2 0x873 JUMPI PUSH1 0x0 DUP1 REVERT JUMPDEST DUP1 PUSH4 0xC79BA39C GT PUSH2 0xF4 JUMPI DUP1 PUSH4 0xC79BA39C EQ PUSH2 0x7F7 JUMPI DUP1 PUSH4 0xC87B56DD EQ PUSH2 0x80A JUMPI DUP1 PUSH4 0xCA6D56DC EQ PUSH2 0x81D JUMPI DUP1 PUSH4 0xD473DAB1 EQ PUSH2 0x830 JUMPI PUSH1 0x0 DUP1 REVERT JUMPDEST DUP1 PUSH4 0xB88D4FDE EQ PUSH2 0x7B6 JUMPI DUP1 PUSH4 0xBB3B407B EQ PUSH2 0x7C9 JUMPI DUP1 PUSH4 0xBEB48326 EQ PUSH2 0x7DC JUMPI DUP1 PUSH4 0xC34E3782 EQ PUSH2 0x7E4 JUMPI PUSH1 0x0 DUP1 REVERT JUMPDEST DUP1 PUSH4 0xA22CB465 GT PUSH2 0x19D JUMPI DUP1 PUSH4 0xB15D8D5F GT PUSH2 0x16C JUMPI DUP1 PUSH4 0xB15D8D5F EQ PUSH2 0x75A JUMPI DUP1 PUSH4 0xB27A5F98 EQ PUSH2 0x76D JUMPI DUP1 PUSH4 0xB43AFFDA EQ PUSH2 0x780 JUMPI DUP1 PUSH4 0xB5C4B23D EQ PUSH2 0x793 JUMPI PUSH1 0x0 DUP1 REVERT JUMPDEST DUP1 PUSH4 0xA22CB465 EQ PUSH2 0x71D JUMPI DUP1 PUSH4 0xAA46A400 EQ PUSH2 0x730 JUMPI DUP1 PUSH4 0xAD00920E EQ PUSH2 0x4CB JUMPI DUP1 PUSH4 0xB063C954 EQ PUSH2 0x73A JUMPI PUSH1 0x0 DUP1 REVERT JUMPDEST DUP1 PUSH4 0x8F01785D GT PUSH2 0x1D9 JUMPI DUP1 PUSH4 0x8F01785D EQ PUSH2 0x6E7 JUMPI DUP1 PUSH4 0x95914875 EQ PUSH2 0x6FA JUMPI DUP1 PUSH4 0x95D89B41 EQ PUSH2 0x702 JUMPI DUP1 PUSH4 0x96291DB6 EQ PUSH2 0x70A JUMPI PUSH1 0x0 DUP1 REVERT JUMPDEST DUP1 PUSH4 0x7867CCD1 EQ PUSH2 0x69D JUMPI DUP1 PUSH4 0x86794F66 EQ PUSH2 0x6B0 JUMPI DUP1 PUSH4 0x89A30271 EQ PUSH2 0x6C3 JUMPI DUP1 PUSH4 0x8DA5CB5B EQ PUSH2 0x6D6 JUMPI PUSH1 0x0 DUP1 REVERT JUMPDEST DUP1 PUSH4 0x42842E0E GT PUSH2 0x2FA JUMPI DUP1 PUSH4 0x6352211E GT PUSH2 0x28D JUMPI DUP1 PUSH4 0x715018A6 GT PUSH2 0x25C JUMPI DUP1 PUSH4 0x715018A6 EQ PUSH2 0x671 JUMPI DUP1 PUSH4 0x71AF8374 EQ PUSH2 0x679 JUMPI DUP1 PUSH4 0x7417353F EQ PUSH2 0x682 JUMPI DUP1 PUSH4 0x7498D280 EQ PUSH2 0x695 JUMPI PUSH1 0x0 DUP1 REVERT JUMPDEST DUP1 PUSH4 0x6352211E EQ PUSH2 0x618 JUMPI DUP1 PUSH4 0x66A98EA3 EQ PUSH2 0x62B JUMPI DUP1 PUSH4 0x6F48853B EQ PUSH2 0x63E JUMPI DUP1 PUSH4 0x70A08231 EQ PUSH2 0x65E JUMPI PUSH1 0x0 DUP1 REVERT JUMPDEST DUP1 PUSH4 0x5575AD3A GT PUSH2 0x2C9 JUMPI DUP1 PUSH4 0x5575AD3A EQ PUSH2 0x5A9 JUMPI DUP1 PUSH4 0x56060A74 EQ PUSH2 0x5BC JUMPI DUP1 PUSH4 0x595EE598 EQ PUSH2 0x5CF JUMPI DUP1 PUSH4 0x5C23A67A EQ PUSH2 0x5EF JUMPI PUSH1 0x0 DUP1 REVERT JUMPDEST DUP1 PUSH4 0x42842E0E EQ PUSH2 0x567 JUMPI DUP1 PUSH4 0x4623C740 EQ PUSH2 0x57A JUMPI DUP1 PUSH4 0x46D36230 EQ PUSH2 0x58D JUMPI DUP1 PUSH4 0x4F6CCCE7 EQ PUSH2 0x596 JUMPI PUSH1 0x0 DUP1 REVERT JUMPDEST DUP1 PUSH4 0x17550165 GT PUSH2 0x372 JUMPI DUP1 PUSH4 0x2517FC07 GT PUSH2 0x341 JUMPI DUP1 PUSH4 0x2517FC07 EQ PUSH2 0x4F1 JUMPI DUP1 PUSH4 0x28DA575B EQ PUSH2 0x511 JUMPI DUP1 PUSH4 0x2F745C59 EQ PUSH2 0x534 JUMPI DUP1 PUSH4 0x33A41510 EQ PUSH2 0x547 JUMPI PUSH1 0x0 DUP1 REVERT JUMPDEST DUP1 PUSH4 0x17550165 EQ PUSH2 0x4BA JUMPI DUP1 PUSH4 0x18160DDD EQ PUSH2 0x4C3 JUMPI DUP1 PUSH4 0x1C652FB5 EQ PUSH2 0x4CB JUMPI DUP1 PUSH4 0x23B872DD EQ PUSH2 0x4DE JUMPI PUSH1 0x0 DUP1 REVERT JUMPDEST DUP1 PUSH4 0xB1CA49A GT PUSH2 0x3AE JUMPI DUP1 PUSH4 0xB1CA49A EQ PUSH2 0x45D JUMPI DUP1 PUSH4 0xFEC3ECC EQ PUSH2 0x470 JUMPI DUP1 PUSH4 0x11AB8DF5 EQ PUSH2 0x487 JUMPI DUP1 PUSH4 0x162094C4 EQ PUSH2 0x4A7 JUMPI PUSH1 0x0 DUP1 REVERT JUMPDEST DUP1 PUSH4 0x1FFC9A7 EQ PUSH2 0x3E0 JUMPI DUP1 PUSH4 0x6FDDE03 EQ PUSH2 0x408 JUMPI DUP1 PUSH4 0x81812FC EQ PUSH2 0x41D JUMPI DUP1 PUSH4 0x95EA7B3 EQ PUSH2 0x448 JUMPI JUMPDEST PUSH1 0x0 DUP1 REVERT JUMPDEST PUSH2 0x3F3 PUSH2 0x3EE CALLDATASIZE PUSH1 0x4 PUSH2 0x37C3 JUMP JUMPDEST PUSH2 0x90E JUMP JUMPDEST PUSH1 0x40 MLOAD SWAP1 ISZERO ISZERO DUP2 MSTORE PUSH1 0x20 ADD JUMPDEST PUSH1 0x40 MLOAD DUP1 SWAP2 SUB SWAP1 RETURN JUMPDEST PUSH2 0x410 PUSH2 0x91F JUMP JUMPDEST PUSH1 0x40 MLOAD PUSH2 0x3FF SWAP2 SWAP1 PUSH2 0x3838 JUMP JUMPDEST PUSH2 0x430 PUSH2 0x42B CALLDATASIZE PUSH1 0x4 PUSH2 0x384B JUMP JUMPDEST PUSH2 0x9B1 JUMP JUMPDEST PUSH1 0x40 MLOAD PUSH1 0x1 PUSH1 0x1 PUSH1 0xA0 SHL SUB SWAP1 SWAP2 AND DUP2 MSTORE PUSH1 0x20 ADD PUSH2 0x3FF JUMP JUMPDEST PUSH2 0x45B PUSH2 0x456 CALLDATASIZE PUSH1 0x4 PUSH2 0x3880 JUMP JUMPDEST PUSH2 0xA3E JUMP JUMPDEST STOP JUMPDEST PUSH2 0x45B PUSH2 0x46B CALLDATASIZE PUSH1 0x4 PUSH2 0x38AA JUMP JUMPDEST PUSH2 0xB54 JUMP JUMPDEST PUSH2 0x479 PUSH1 0x1D SLOAD DUP2 JUMP JUMPDEST PUSH1 0x40 MLOAD SWAP1 DUP2 MSTORE PUSH1 0x20 ADD PUSH2 0x3FF JUMP JUMPDEST PUSH2 0x479 PUSH2 0x495 CALLDATASIZE PUSH1 0x4 PUSH2 0x384B JUMP JUMPDEST PUSH1 0x14 PUSH1 0x20 MSTORE PUSH1 0x0 SWAP1 DUP2 MSTORE PUSH1 0x40 SWAP1 KECCAK256 SLOAD DUP2 JUMP JUMPDEST PUSH2 0x45B PUSH2 0x4B5 CALLDATASIZE PUSH1 0x4 PUSH2 0x3971 JUMP JUMPDEST PUSH2 0xBE6 JUMP JUMPDEST PUSH2 0x479 PUSH1 0x18 SLOAD DUP2 JUMP JUMPDEST PUSH1 0x9 SLOAD PUSH2 0x479 JUMP JUMPDEST PUSH2 0x45B PUSH2 0x4D9 CALLDATASIZE PUSH1 0x4 PUSH2 0x39B8 JUMP JUMPDEST PUSH2 0xC56 JUMP JUMPDEST PUSH2 0x45B PUSH2 0x4EC CALLDATASIZE PUSH1 0x4 PUSH2 0x39DA JUMP JUMPDEST PUSH2 0xC92 JUMP JUMPDEST PUSH2 0x479 PUSH2 0x4FF CALLDATASIZE PUSH1 0x4 PUSH2 0x38AA JUMP JUMPDEST PUSH1 0x16 PUSH1 0x20 MSTORE PUSH1 0x0 SWAP1 DUP2 MSTORE PUSH1 0x40 SWAP1 KECCAK256 SLOAD DUP2 JUMP JUMPDEST PUSH2 0x3F3 PUSH2 0x51F CALLDATASIZE PUSH1 0x4 PUSH2 0x38AA JUMP JUMPDEST PUSH1 0x12 PUSH1 0x20 MSTORE PUSH1 0x0 SWAP1 DUP2 MSTORE PUSH1 0x40 SWAP1 KECCAK256 SLOAD PUSH1 0xFF AND DUP2 JUMP JUMPDEST PUSH2 0x479 PUSH2 0x542 CALLDATASIZE PUSH1 0x4 PUSH2 0x3880 JUMP JUMPDEST PUSH2 0xCC3 JUMP JUMPDEST PUSH2 0x55A PUSH2 0x555 CALLDATASIZE PUSH1 0x4 PUSH2 0x38AA JUMP JUMPDEST PUSH2 0xD59 JUMP JUMPDEST PUSH1 0x40 MLOAD PUSH2 0x3FF SWAP2 SWAP1 PUSH2 0x3A16 JUMP JUMPDEST PUSH2 0x45B PUSH2 0x575 CALLDATASIZE PUSH1 0x4 PUSH2 0x39DA JUMP JUMPDEST PUSH2 0xEF3 JUMP JUMPDEST PUSH2 0x479 PUSH2 0x588 CALLDATASIZE PUSH1 0x4 PUSH2 0x3A78 JUMP JUMPDEST PUSH2 0xF0E JUMP JUMPDEST PUSH2 0x479 PUSH1 0x17 SLOAD DUP2 JUMP JUMPDEST PUSH2 0x479 PUSH2 0x5A4 CALLDATASIZE PUSH1 0x4 PUSH2 0x384B JUMP JUMPDEST PUSH2 0x1065 JUMP JUMPDEST PUSH2 0x45B PUSH2 0x5B7 CALLDATASIZE PUSH1 0x4 PUSH2 0x38AA JUMP JUMPDEST PUSH2 0x10F8 JUMP JUMPDEST PUSH2 0x55A PUSH2 0x5CA CALLDATASIZE PUSH1 0x4 PUSH2 0x38AA JUMP JUMPDEST PUSH2 0x1144 JUMP JUMPDEST PUSH2 0x5E2 PUSH2 0x5DD CALLDATASIZE PUSH1 0x4 PUSH2 0x38AA JUMP JUMPDEST PUSH2 0x12A2 JUMP JUMPDEST PUSH1 0x40 MLOAD PUSH2 0x3FF SWAP2 SWAP1 PUSH2 0x3ACC JUMP JUMPDEST PUSH2 0x430 PUSH2 0x5FD CALLDATASIZE PUSH1 0x4 PUSH2 0x384B JUMP JUMPDEST PUSH1 0x11 PUSH1 0x20 MSTORE PUSH1 0x0 SWAP1 DUP2 MSTORE PUSH1 0x40 SWAP1 KECCAK256 SLOAD PUSH1 0x1 PUSH1 0x1 PUSH1 0xA0 SHL SUB AND DUP2 JUMP JUMPDEST PUSH2 0x430 PUSH2 0x626 CALLDATASIZE PUSH1 0x4 PUSH2 0x384B JUMP JUMPDEST PUSH2 0x1344 JUMP JUMPDEST PUSH2 0x45B PUSH2 0x639 CALLDATASIZE PUSH1 0x4 PUSH2 0x384B JUMP JUMPDEST PUSH2 0x13BB JUMP JUMPDEST PUSH2 0x479 PUSH2 0x64C CALLDATASIZE PUSH1 0x4 PUSH2 0x384B JUMP JUMPDEST PUSH1 0xF PUSH1 0x20 MSTORE PUSH1 0x0 SWAP1 DUP2 MSTORE PUSH1 0x40 SWAP1 KECCAK256 SLOAD DUP2 JUMP JUMPDEST PUSH2 0x479 PUSH2 0x66C CALLDATASIZE PUSH1 0x4 PUSH2 0x38AA JUMP JUMPDEST PUSH2 0x1442 JUMP JUMPDEST PUSH2 0x45B PUSH2 0x14C9 JUMP JUMPDEST PUSH2 0x479 PUSH1 0x19 SLOAD DUP2 JUMP JUMPDEST PUSH2 0x45B PUSH2 0x690 CALLDATASIZE PUSH1 0x4 PUSH2 0x3880 JUMP JUMPDEST PUSH2 0x14FF JUMP JUMPDEST PUSH2 0x479 PUSH2 0x1557 JUMP JUMPDEST PUSH2 0x45B PUSH2 0x6AB CALLDATASIZE PUSH1 0x4 PUSH2 0x39B8 JUMP JUMPDEST PUSH2 0x19B3 JUMP JUMPDEST PUSH2 0x45B PUSH2 0x6BE CALLDATASIZE PUSH1 0x4 PUSH2 0x384B JUMP JUMPDEST PUSH2 0x19EF JUMP JUMPDEST PUSH1 0xE SLOAD PUSH2 0x430 SWAP1 PUSH1 0x1 PUSH1 0x1 PUSH1 0xA0 SHL SUB AND DUP2 JUMP JUMPDEST PUSH1 0xB SLOAD PUSH1 0x1 PUSH1 0x1 PUSH1 0xA0 SHL SUB AND PUSH2 0x430 JUMP JUMPDEST PUSH2 0x55A PUSH2 0x6F5 CALLDATASIZE PUSH1 0x4 PUSH2 0x38AA JUMP JUMPDEST PUSH2 0x1A3E JUMP JUMPDEST PUSH2 0x410 PUSH2 0x1AF8 JUMP JUMPDEST PUSH2 0x410 PUSH2 0x1B86 JUMP JUMPDEST PUSH2 0x45B PUSH2 0x718 CALLDATASIZE PUSH1 0x4 PUSH2 0x3B10 JUMP JUMPDEST PUSH2 0x1B95 JUMP JUMPDEST PUSH2 0x45B PUSH2 0x72B CALLDATASIZE PUSH1 0x4 PUSH2 0x3B53 JUMP JUMPDEST PUSH2 0x1BD6 JUMP JUMPDEST PUSH1 0xC SLOAD PUSH2 0x479 SWAP1 DUP2 JUMP JUMPDEST PUSH2 0x479 PUSH2 0x748 CALLDATASIZE PUSH1 0x4 PUSH2 0x384B JUMP JUMPDEST PUSH1 0x10 PUSH1 0x20 MSTORE PUSH1 0x0 SWAP1 DUP2 MSTORE PUSH1 0x40 SWAP1 KECCAK256 SLOAD DUP2 JUMP JUMPDEST PUSH2 0x479 PUSH2 0x768 CALLDATASIZE PUSH1 0x4 PUSH2 0x384B JUMP JUMPDEST PUSH2 0x1BE1 JUMP JUMPDEST PUSH2 0x45B PUSH2 0x77B CALLDATASIZE PUSH1 0x4 PUSH2 0x3B53 JUMP JUMPDEST PUSH2 0x1C02 JUMP JUMPDEST PUSH2 0x479 PUSH2 0x78E CALLDATASIZE PUSH1 0x4 PUSH2 0x384B JUMP JUMPDEST PUSH2 0x1C57 JUMP JUMPDEST PUSH2 0x3F3 PUSH2 0x7A1 CALLDATASIZE PUSH1 0x4 PUSH2 0x38AA JUMP JUMPDEST PUSH1 0x15 PUSH1 0x20 MSTORE PUSH1 0x0 SWAP1 DUP2 MSTORE PUSH1 0x40 SWAP1 KECCAK256 SLOAD PUSH1 0xFF AND DUP2 JUMP JUMPDEST PUSH2 0x45B PUSH2 0x7C4 CALLDATASIZE PUSH1 0x4 PUSH2 0x3B8A JUMP JUMPDEST PUSH2 0x1C67 JUMP JUMPDEST PUSH2 0x479 PUSH2 0x7D7 CALLDATASIZE PUSH1 0x4 PUSH2 0x3C06 JUMP JUMPDEST PUSH2 0x1C9F JUMP JUMPDEST PUSH2 0x45B PUSH2 0x209A JUMP JUMPDEST PUSH2 0x55A PUSH2 0x7F2 CALLDATASIZE PUSH1 0x4 PUSH2 0x38AA JUMP JUMPDEST PUSH2 0x21E3 JUMP JUMPDEST PUSH2 0x45B PUSH2 0x805 CALLDATASIZE PUSH1 0x4 PUSH2 0x39B8 JUMP JUMPDEST PUSH2 0x2341 JUMP JUMPDEST PUSH2 0x410 PUSH2 0x818 CALLDATASIZE PUSH1 0x4 PUSH2 0x384B JUMP JUMPDEST PUSH2 0x237D JUMP JUMPDEST PUSH2 0x45B PUSH2 0x82B CALLDATASIZE PUSH1 0x4 PUSH2 0x38AA JUMP JUMPDEST PUSH2 0x2388 JUMP JUMPDEST PUSH2 0x5E2 PUSH2 0x2419 JUMP JUMPDEST PUSH1 0xD SLOAD PUSH2 0x430 SWAP1 PUSH1 0x1 PUSH1 0x1 PUSH1 0xA0 SHL SUB AND DUP2 JUMP JUMPDEST PUSH2 0x479 PUSH2 0x859 CALLDATASIZE PUSH1 0x4 PUSH2 0x38AA JUMP JUMPDEST PUSH1 0x13 PUSH1 0x20 MSTORE PUSH1 0x0 SWAP1 DUP2 MSTORE PUSH1 0x40 SWAP1 KECCAK256 SLOAD DUP2 JUMP JUMPDEST PUSH2 0x5E2 PUSH2 0x2470 JUMP JUMPDEST PUSH2 0x3F3 PUSH2 0x881 CALLDATASIZE PUSH1 0x4 PUSH2 0x3C39 JUMP JUMPDEST PUSH1 0x1 PUSH1 0x1 PUSH1 0xA0 SHL SUB SWAP2 DUP3 AND PUSH1 0x0 SWAP1 DUP2 MSTORE PUSH1 0x5 PUSH1 0x20 SWAP1 DUP2 MSTORE PUSH1 0x40 DUP1 DUP4 KECCAK256 SWAP4 SWAP1 SWAP5 AND DUP3 MSTORE SWAP2 SWAP1 SWAP2 MSTORE KECCAK256 SLOAD PUSH1 0xFF AND SWAP1 JUMP JUMPDEST PUSH2 0x45B PUSH2 0x8BD CALLDATASIZE PUSH1 0x4 PUSH2 0x384B JUMP JUMPDEST PUSH2 0x24C6 JUMP JUMPDEST PUSH2 0x45B PUSH2 0x8D0 CALLDATASIZE PUSH1 0x4 PUSH2 0x384B JUMP JUMPDEST PUSH2 0x2523 JUMP JUMPDEST PUSH2 0x45B PUSH2 0x8E3 CALLDATASIZE PUSH1 0x4 PUSH2 0x38AA JUMP JUMPDEST PUSH2 0x2556 JUMP JUMPDEST PUSH2 0x45B PUSH2 0x8F6 CALLDATASIZE PUSH1 0x4 PUSH2 0x3880 JUMP JUMPDEST PUSH2 0x25EE JUMP JUMPDEST PUSH2 0x45B PUSH2 0x909 CALLDATASIZE PUSH1 0x4 PUSH2 0x384B JUMP JUMPDEST PUSH2 0x26B0 JUMP JUMPDEST PUSH1 0x0 PUSH2 0x919 DUP3 PUSH2 0x2702 JUMP JUMPDEST SWAP3 SWAP2 POP POP JUMP JUMPDEST PUSH1 0x60 PUSH1 0x0 DUP1 SLOAD PUSH2 0x92E SWAP1 PUSH2 0x3C6C JUMP JUMPDEST DUP1 PUSH1 0x1F ADD PUSH1 0x20 DUP1 SWAP2 DIV MUL PUSH1 0x20 ADD PUSH1 0x40 MLOAD SWAP1 DUP2 ADD PUSH1 0x40 MSTORE DUP1 SWAP3 SWAP2 SWAP1 DUP2 DUP2 MSTORE PUSH1 0x20 ADD DUP3 DUP1 SLOAD PUSH2 0x95A SWAP1 PUSH2 0x3C6C JUMP JUMPDEST DUP1 ISZERO PUSH2 0x9A7 JUMPI DUP1 PUSH1 0x1F LT PUSH2 0x97C JUMPI PUSH2 0x100 DUP1 DUP4 SLOAD DIV MUL DUP4 MSTORE SWAP2 PUSH1 0x20 ADD SWAP2 PUSH2 0x9A7 JUMP JUMPDEST DUP3 ADD SWAP2 SWAP1 PUSH1 0x0 MSTORE PUSH1 0x20 PUSH1 0x0 KECCAK256 SWAP1 JUMPDEST DUP2 SLOAD DUP2 MSTORE SWAP1 PUSH1 0x1 ADD SWAP1 PUSH1 0x20 ADD DUP1 DUP4 GT PUSH2 0x98A JUMPI DUP3 SWAP1 SUB PUSH1 0x1F AND DUP3 ADD SWAP2 JUMPDEST POP POP POP POP POP SWAP1 POP SWAP1 JUMP JUMPDEST PUSH1 0x0 PUSH2 0x9BC DUP3 PUSH2 0x2727 JUMP JUMPDEST PUSH2 0xA22 JUMPI PUSH1 0x40 MLOAD PUSH3 0x461BCD PUSH1 0xE5 SHL DUP2 MSTORE PUSH1 0x20 PUSH1 0x4 DUP3 ADD MSTORE PUSH1 0x2C PUSH1 0x24 DUP3 ADD MSTORE PUSH32 0x4552433732313A20617070726F76656420717565727920666F72206E6F6E6578 PUSH1 0x44 DUP3 ADD MSTORE PUSH12 0x34B9BA32B73A103A37B5B2B7 PUSH1 0xA1 SHL PUSH1 0x64 DUP3 ADD MSTORE PUSH1 0x84 ADD JUMPDEST PUSH1 0x40 MLOAD DUP1 SWAP2 SUB SWAP1 REVERT JUMPDEST POP PUSH1 0x0 SWAP1 DUP2 MSTORE PUSH1 0x4 PUSH1 0x20 MSTORE PUSH1 0x40 SWAP1 KECCAK256 SLOAD PUSH1 0x1 PUSH1 0x1 PUSH1 0xA0 SHL SUB AND SWAP1 JUMP JUMPDEST PUSH1 0x0 PUSH2 0xA49 DUP3 PUSH2 0x1344 JUMP JUMPDEST SWAP1 POP DUP1 PUSH1 0x1 PUSH1 0x1 PUSH1 0xA0 SHL SUB AND DUP4 PUSH1 0x1 PUSH1 0x1 PUSH1 0xA0 SHL SUB AND EQ ISZERO PUSH2 0xAB7 JUMPI PUSH1 0x40 MLOAD PUSH3 0x461BCD PUSH1 0xE5 SHL DUP2 MSTORE PUSH1 0x20 PUSH1 0x4 DUP3 ADD MSTORE PUSH1 0x21 PUSH1 0x24 DUP3 ADD MSTORE PUSH32 0x4552433732313A20617070726F76616C20746F2063757272656E74206F776E65 PUSH1 0x44 DUP3 ADD MSTORE PUSH1 0x39 PUSH1 0xF9 SHL PUSH1 0x64 DUP3 ADD MSTORE PUSH1 0x84 ADD PUSH2 0xA19 JUMP JUMPDEST CALLER PUSH1 0x1 PUSH1 0x1 PUSH1 0xA0 SHL SUB DUP3 AND EQ DUP1 PUSH2 0xAD3 JUMPI POP PUSH2 0xAD3 DUP2 CALLER PUSH2 0x881 JUMP JUMPDEST PUSH2 0xB45 JUMPI PUSH1 0x40 MLOAD PUSH3 0x461BCD PUSH1 0xE5 SHL DUP2 MSTORE PUSH1 0x20 PUSH1 0x4 DUP3 ADD MSTORE PUSH1 0x38 PUSH1 0x24 DUP3 ADD MSTORE PUSH32 0x4552433732313A20617070726F76652063616C6C6572206973206E6F74206F77 PUSH1 0x44 DUP3 ADD MSTORE PUSH32 0x6E6572206E6F7220617070726F76656420666F7220616C6C0000000000000000 PUSH1 0x64 DUP3 ADD MSTORE PUSH1 0x84 ADD PUSH2 0xA19 JUMP JUMPDEST PUSH2 0xB4F DUP4 DUP4 PUSH2 0x2744 JUMP JUMPDEST POP POP POP JUMP JUMPDEST CALLER PUSH1 0x0 SWAP1 DUP2 MSTORE PUSH1 0x15 PUSH1 0x20 MSTORE PUSH1 0x40 SWAP1 KECCAK256 SLOAD PUSH1 0xFF AND PUSH2 0xBC5 JUMPI PUSH1 0x40 MLOAD PUSH3 0x461BCD PUSH1 0xE5 SHL DUP2 MSTORE PUSH1 0x20 PUSH1 0x4 DUP3 ADD MSTORE PUSH1 0x29 PUSH1 0x24 DUP3 ADD MSTORE PUSH32 0x4F6E6C7920636F6E74726163742061646D696E732063616E2072656D6F766520 PUSH1 0x44 DUP3 ADD MSTORE PUSH9 0x309036B2B6B132B917 PUSH1 0xB9 SHL PUSH1 0x64 DUP3 ADD MSTORE PUSH1 0x84 ADD PUSH2 0xA19 JUMP JUMPDEST PUSH1 0x1 PUSH1 0x1 PUSH1 0xA0 SHL SUB AND PUSH1 0x0 SWAP1 DUP2 MSTORE PUSH1 0x12 PUSH1 0x20 MSTORE PUSH1 0x40 SWAP1 KECCAK256 DUP1 SLOAD PUSH1 0xFF NOT AND SWAP1 SSTORE JUMP JUMPDEST PUSH1 0xB SLOAD PUSH1 0x1 PUSH1 0x1 PUSH1 0xA0 SHL SUB AND CALLER EQ PUSH2 0xC10 JUMPI PUSH1 0x40 MLOAD PUSH3 0x461BCD PUSH1 0xE5 SHL DUP2 MSTORE PUSH1 0x4 ADD PUSH2 0xA19 SWAP1 PUSH2 0x3CA7 JUMP JUMPDEST PUSH2 0xC1A DUP3 DUP3 PUSH2 0x27B2 JUMP JUMPDEST DUP2 PUSH32 0xC794E2271B51F209D8A645EEC85692351AD1ADC857AB2E06F9C5AF7961CF07D5 DUP3 PUSH1 0x40 MLOAD PUSH2 0xC4A SWAP2 SWAP1 PUSH2 0x3838 JUMP JUMPDEST PUSH1 0x40 MLOAD DUP1 SWAP2 SUB SWAP1 LOG2 POP POP JUMP JUMPDEST PUSH1 0xB SLOAD PUSH1 0x1 PUSH1 0x1 PUSH1 0xA0 SHL SUB AND CALLER EQ PUSH2 0xC80 JUMPI PUSH1 0x40 MLOAD PUSH3 0x461BCD PUSH1 0xE5 SHL DUP2 MSTORE PUSH1 0x4 ADD PUSH2 0xA19 SWAP1 PUSH2 0x3CA7 JUMP JUMPDEST PUSH1 0x0 SWAP2 DUP3 MSTORE PUSH1 0x14 PUSH1 0x20 MSTORE PUSH1 0x40 SWAP1 SWAP2 KECCAK256 SSTORE JUMP JUMPDEST PUSH2 0xC9C CALLER DUP3 PUSH2 0x283D JUMP JUMPDEST PUSH2 0xCB8 JUMPI PUSH1 0x40 MLOAD PUSH3 0x461BCD PUSH1 0xE5 SHL DUP2 MSTORE PUSH1 0x4 ADD PUSH2 0xA19 SWAP1 PUSH2 0x3CDC JUMP JUMPDEST PUSH2 0xB4F DUP4 DUP4 DUP4 PUSH2 0x2923 JUMP JUMPDEST PUSH1 0x0 PUSH2 0xCCE DUP4 PUSH2 0x1442 JUMP JUMPDEST DUP3 LT PUSH2 0xD30 JUMPI PUSH1 0x40 MLOAD PUSH3 0x461BCD PUSH1 0xE5 SHL DUP2 MSTORE PUSH1 0x20 PUSH1 0x4 DUP3 ADD MSTORE PUSH1 0x2B PUSH1 0x24 DUP3 ADD MSTORE PUSH32 0x455243373231456E756D657261626C653A206F776E657220696E646578206F75 PUSH1 0x44 DUP3 ADD MSTORE PUSH11 0x74206F6620626F756E6473 PUSH1 0xA8 SHL PUSH1 0x64 DUP3 ADD MSTORE PUSH1 0x84 ADD PUSH2 0xA19 JUMP JUMPDEST POP PUSH1 0x1 PUSH1 0x1 PUSH1 0xA0 SHL SUB SWAP2 SWAP1 SWAP2 AND PUSH1 0x0 SWAP1 DUP2 MSTORE PUSH1 0x7 PUSH1 0x20 SWAP1 DUP2 MSTORE PUSH1 0x40 DUP1 DUP4 KECCAK256 SWAP4 DUP4 MSTORE SWAP3 SWAP1 MSTORE KECCAK256 SLOAD SWAP1 JUMP JUMPDEST PUSH1 0x60 PUSH1 0x0 PUSH2 0xD66 PUSH1 0xC SLOAD SWAP1 JUMP JUMPDEST SWAP1 POP PUSH1 0x0 DUP1 PUSH1 0x1 JUMPDEST DUP4 DUP2 GT PUSH2 0xDEB JUMPI DUP6 PUSH1 0x1 PUSH1 0x1 PUSH1 0xA0 SHL SUB AND PUSH2 0xD88 DUP3 PUSH2 0x1344 JUMP JUMPDEST PUSH1 0x1 PUSH1 0x1 PUSH1 0xA0 SHL SUB AND EQ DUP1 ISZERO PUSH2 0xDC6 JUMPI POP PUSH1 0x17 SLOAD PUSH1 0x0 DUP3 DUP2 MSTORE PUSH1 0xF PUSH1 0x20 MSTORE PUSH1 0x40 SWAP1 KECCAK256 SLOAD EQ DUP1 PUSH2 0xDC6 JUMPI POP PUSH1 0x18 SLOAD PUSH1 0x0 DUP3 DUP2 MSTORE PUSH1 0xF PUSH1 0x20 MSTORE PUSH1 0x40 SWAP1 KECCAK256 SLOAD EQ JUMPDEST ISZERO PUSH2 0xDD9 JUMPI PUSH2 0xDD6 PUSH1 0x1 DUP5 PUSH2 0x3D43 JUMP JUMPDEST SWAP3 POP JUMPDEST DUP1 PUSH2 0xDE3 DUP2 PUSH2 0x3D5B JUMP JUMPDEST SWAP2 POP POP PUSH2 0xD6E JUMP JUMPDEST POP PUSH1 0x0 DUP3 PUSH8 0xFFFFFFFFFFFFFFFF DUP2 GT ISZERO PUSH2 0xE07 JUMPI PUSH2 0xE07 PUSH2 0x38C5 JUMP JUMPDEST PUSH1 0x40 MLOAD SWAP1 DUP1 DUP3 MSTORE DUP1 PUSH1 0x20 MUL PUSH1 0x20 ADD DUP3 ADD PUSH1 0x40 MSTORE DUP1 ISZERO PUSH2 0xE3A JUMPI DUP2 PUSH1 0x20 ADD JUMPDEST PUSH1 0x60 DUP2 MSTORE PUSH1 0x20 ADD SWAP1 PUSH1 0x1 SWAP1 SUB SWAP1 DUP2 PUSH2 0xE25 JUMPI SWAP1 POP JUMPDEST POP SWAP1 POP PUSH1 0x1 JUMPDEST DUP5 DUP2 GT PUSH2 0xEE9 JUMPI DUP7 PUSH1 0x1 PUSH1 0x1 PUSH1 0xA0 SHL SUB AND PUSH2 0xE5A DUP3 PUSH2 0x1344 JUMP JUMPDEST PUSH1 0x1 PUSH1 0x1 PUSH1 0xA0 SHL SUB AND EQ DUP1 ISZERO PUSH2 0xE98 JUMPI POP PUSH1 0x17 SLOAD PUSH1 0x0 DUP3 DUP2 MSTORE PUSH1 0xF PUSH1 0x20 MSTORE PUSH1 0x40 SWAP1 KECCAK256 SLOAD EQ DUP1 PUSH2 0xE98 JUMPI POP PUSH1 0x18 SLOAD PUSH1 0x0 DUP3 DUP2 MSTORE PUSH1 0xF PUSH1 0x20 MSTORE PUSH1 0x40 SWAP1 KECCAK256 SLOAD EQ JUMPDEST ISZERO PUSH2 0xED7 JUMPI PUSH1 0x0 PUSH2 0xEA8 DUP3 PUSH2 0x237D JUMP JUMPDEST SWAP1 POP DUP1 DUP4 DUP6 DUP2 MLOAD DUP2 LT PUSH2 0xEBD JUMPI PUSH2 0xEBD PUSH2 0x3D76 JUMP JUMPDEST PUSH1 0x20 SWAP1 DUP2 MUL SWAP2 SWAP1 SWAP2 ADD ADD MSTORE PUSH2 0xED3 PUSH1 0x1 DUP6 PUSH2 0x3D43 JUMP JUMPDEST SWAP4 POP POP JUMPDEST DUP1 PUSH2 0xEE1 DUP2 PUSH2 0x3D5B JUMP JUMPDEST SWAP2 POP POP PUSH2 0xE40 JUMP JUMPDEST POP SWAP6 SWAP5 POP POP POP POP POP JUMP JUMPDEST PUSH2 0xB4F DUP4 DUP4 DUP4 PUSH1 0x40 MLOAD DUP1 PUSH1 0x20 ADD PUSH1 0x40 MSTORE DUP1 PUSH1 0x0 DUP2 MSTORE POP PUSH2 0x1C67 JUMP JUMPDEST PUSH1 0xB SLOAD PUSH1 0x0 SWAP1 PUSH1 0x1 PUSH1 0x1 PUSH1 0xA0 SHL SUB AND CALLER EQ PUSH2 0xF3B JUMPI PUSH1 0x40 MLOAD PUSH3 0x461BCD PUSH1 0xE5 SHL DUP2 MSTORE PUSH1 0x4 ADD PUSH2 0xA19 SWAP1 PUSH2 0x3CA7 JUMP JUMPDEST PUSH2 0xF49 PUSH1 0xC DUP1 SLOAD PUSH1 0x1 ADD SWAP1 SSTORE JUMP JUMPDEST PUSH1 0x0 PUSH2 0xF54 PUSH1 0xC SLOAD SWAP1 JUMP JUMPDEST PUSH1 0x0 DUP2 DUP2 MSTORE PUSH1 0xF PUSH1 0x20 SWAP1 DUP2 MSTORE PUSH1 0x40 DUP1 DUP4 KECCAK256 DUP10 SWAP1 SSTORE PUSH1 0x10 SWAP1 SWAP2 MSTORE SWAP1 KECCAK256 DUP6 SWAP1 SSTORE SWAP1 POP PUSH2 0xF7E CALLER DUP3 PUSH2 0x2AD0 JUMP JUMPDEST PUSH2 0xF88 DUP2 DUP8 PUSH2 0x27B2 JUMP JUMPDEST PUSH2 0xF92 ADDRESS DUP3 PUSH2 0xA3E JUMP JUMPDEST PUSH1 0xD SLOAD PUSH2 0xFA9 SWAP1 PUSH1 0x1 PUSH1 0x1 PUSH1 0xA0 SHL SUB AND PUSH1 0x1 PUSH2 0x1BD6 JUMP JUMPDEST PUSH1 0x17 SLOAD DUP6 EQ ISZERO PUSH2 0xFED JUMPI PUSH1 0x1A DUP1 SLOAD PUSH1 0x1 DUP2 ADD DUP3 SSTORE PUSH1 0x0 SWAP2 SWAP1 SWAP2 MSTORE PUSH32 0x57C384A7D1C54F3A1B2E5E67B2617B8224FDFD1EA7234EEA573A6FF665FF63E ADD DUP2 SWAP1 SSTORE PUSH2 0x105A JUMP JUMPDEST PUSH1 0x18 SLOAD DUP6 EQ ISZERO PUSH2 0x105A JUMPI PUSH1 0x1B DUP1 SLOAD PUSH1 0x1 DUP2 ADD DUP3 SSTORE PUSH1 0x0 SWAP2 SWAP1 SWAP2 MSTORE PUSH32 0x3AD8AA4F87544323A9D1E5DD902F40C356527A7955687113DB5F9A85AD579DC1 ADD DUP2 SWAP1 SSTORE DUP3 ISZERO PUSH2 0x1048 JUMPI PUSH1 0x0 DUP2 DUP2 MSTORE PUSH1 0x14 PUSH1 0x20 MSTORE PUSH1 0x40 SWAP1 KECCAK256 DUP4 SWAP1 SSTORE PUSH2 0x105A JUMP JUMPDEST PUSH1 0x0 DUP2 DUP2 MSTORE PUSH1 0x14 PUSH1 0x20 MSTORE PUSH1 0x40 SWAP1 KECCAK256 TIMESTAMP SWAP1 SSTORE JUMPDEST SWAP1 POP JUMPDEST SWAP5 SWAP4 POP POP POP POP JUMP JUMPDEST PUSH1 0x0 PUSH2 0x1070 PUSH1 0x9 SLOAD SWAP1 JUMP JUMPDEST DUP3 LT PUSH2 0x10D3 JUMPI PUSH1 0x40 MLOAD PUSH3 0x461BCD PUSH1 0xE5 SHL DUP2 MSTORE PUSH1 0x20 PUSH1 0x4 DUP3 ADD MSTORE PUSH1 0x2C PUSH1 0x24 DUP3 ADD MSTORE PUSH32 0x455243373231456E756D657261626C653A20676C6F62616C20696E646578206F PUSH1 0x44 DUP3 ADD MSTORE PUSH12 0x7574206F6620626F756E6473 PUSH1 0xA0 SHL PUSH1 0x64 DUP3 ADD MSTORE PUSH1 0x84 ADD PUSH2 0xA19 JUMP JUMPDEST PUSH1 0x9 DUP3 DUP2 SLOAD DUP2 LT PUSH2 0x10E6 JUMPI PUSH2 0x10E6 PUSH2 0x3D76 JUMP JUMPDEST SWAP1 PUSH1 0x0 MSTORE PUSH1 0x20 PUSH1 0x0 KECCAK256 ADD SLOAD SWAP1 POP SWAP2 SWAP1 POP JUMP JUMPDEST PUSH1 0xB SLOAD PUSH1 0x1 PUSH1 0x1 PUSH1 0xA0 SHL SUB AND CALLER EQ PUSH2 0x1122 JUMPI PUSH1 0x40 MLOAD PUSH3 0x461BCD PUSH1 0xE5 SHL DUP2 MSTORE PUSH1 0x4 ADD PUSH2 0xA19 SWAP1 PUSH2 0x3CA7 JUMP JUMPDEST PUSH1 0xE DUP1 SLOAD PUSH1 0x1 PUSH1 0x1 PUSH1 0xA0 SHL SUB NOT AND PUSH1 0x1 PUSH1 0x1 PUSH1 0xA0 SHL SUB SWAP3 SWAP1 SWAP3 AND SWAP2 SWAP1 SWAP2 OR SWAP1 SSTORE JUMP JUMPDEST PUSH1 0x60 PUSH1 0x0 PUSH2 0x1151 PUSH1 0xC SLOAD SWAP1 JUMP JUMPDEST SWAP1 POP PUSH1 0x0 DUP1 PUSH1 0x1 JUMPDEST DUP4 DUP2 GT PUSH2 0x11BD JUMPI DUP6 PUSH1 0x1 PUSH1 0x1 PUSH1 0xA0 SHL SUB AND PUSH2 0x1173 DUP3 PUSH2 0x1344 JUMP JUMPDEST PUSH1 0x1 PUSH1 0x1 PUSH1 0xA0 SHL SUB AND EQ DUP1 ISZERO PUSH2 0x1198 JUMPI POP PUSH1 0x17 SLOAD PUSH1 0x0 DUP3 DUP2 MSTORE PUSH1 0xF PUSH1 0x20 MSTORE PUSH1 0x40 SWAP1 KECCAK256 SLOAD EQ JUMPDEST ISZERO PUSH2 0x11AB JUMPI PUSH2 0x11A8 PUSH1 0x1 DUP5 PUSH2 0x3D43 JUMP JUMPDEST SWAP3 POP JUMPDEST DUP1 PUSH2 0x11B5 DUP2 PUSH2 0x3D5B JUMP JUMPDEST SWAP2 POP POP PUSH2 0x1159 JUMP JUMPDEST POP PUSH1 0x0 DUP3 PUSH8 0xFFFFFFFFFFFFFFFF DUP2 GT ISZERO PUSH2 0x11D9 JUMPI PUSH2 0x11D9 PUSH2 0x38C5 JUMP JUMPDEST PUSH1 0x40 MLOAD SWAP1 DUP1 DUP3 MSTORE DUP1 PUSH1 0x20 MUL PUSH1 0x20 ADD DUP3 ADD PUSH1 0x40 MSTORE DUP1 ISZERO PUSH2 0x120C JUMPI DUP2 PUSH1 0x20 ADD JUMPDEST PUSH1 0x60 DUP2 MSTORE PUSH1 0x20 ADD SWAP1 PUSH1 0x1 SWAP1 SUB SWAP1 DUP2 PUSH2 0x11F7 JUMPI SWAP1 POP JUMPDEST POP SWAP1 POP PUSH1 0x1 JUMPDEST DUP5 DUP2 GT PUSH2 0xEE9 JUMPI DUP7 PUSH1 0x1 PUSH1 0x1 PUSH1 0xA0 SHL SUB AND PUSH2 0x122C DUP3 PUSH2 0x1344 JUMP JUMPDEST PUSH1 0x1 PUSH1 0x1 PUSH1 0xA0 SHL SUB AND EQ DUP1 ISZERO PUSH2 0x1251 JUMPI POP PUSH1 0x17 SLOAD PUSH1 0x0 DUP3 DUP2 MSTORE PUSH1 0xF PUSH1 0x20 MSTORE PUSH1 0x40 SWAP1 KECCAK256 SLOAD EQ JUMPDEST ISZERO PUSH2 0x1290 JUMPI PUSH1 0x0 PUSH2 0x1261 DUP3 PUSH2 0x237D JUMP JUMPDEST SWAP1 POP DUP1 DUP4 DUP6 DUP2 MLOAD DUP2 LT PUSH2 0x1276 JUMPI PUSH2 0x1276 PUSH2 0x3D76 JUMP JUMPDEST PUSH1 0x20 SWAP1 DUP2 MUL SWAP2 SWAP1 SWAP2 ADD ADD MSTORE PUSH2 0x128C PUSH1 0x1 DUP6 PUSH2 0x3D43 JUMP JUMPDEST SWAP4 POP POP JUMPDEST DUP1 PUSH2 0x129A DUP2 PUSH2 0x3D5B JUMP JUMPDEST SWAP2 POP POP PUSH2 0x1212 JUMP JUMPDEST PUSH1 0x60 PUSH1 0x0 PUSH2 0x12AF DUP4 PUSH2 0x1442 JUMP JUMPDEST SWAP1 POP PUSH1 0x0 DUP2 PUSH8 0xFFFFFFFFFFFFFFFF DUP2 GT ISZERO PUSH2 0x12CC JUMPI PUSH2 0x12CC PUSH2 0x38C5 JUMP JUMPDEST PUSH1 0x40 MLOAD SWAP1 DUP1 DUP3 MSTORE DUP1 PUSH1 0x20 MUL PUSH1 0x20 ADD DUP3 ADD PUSH1 0x40 MSTORE DUP1 ISZERO PUSH2 0x12F5 JUMPI DUP2 PUSH1 0x20 ADD PUSH1 0x20 DUP3 MUL DUP1 CALLDATASIZE DUP4 CALLDATACOPY ADD SWAP1 POP JUMPDEST POP SWAP1 POP PUSH1 0x0 JUMPDEST DUP3 DUP2 LT ISZERO PUSH2 0x133C JUMPI PUSH2 0x130D DUP6 DUP3 PUSH2 0xCC3 JUMP JUMPDEST DUP3 DUP3 DUP2 MLOAD DUP2 LT PUSH2 0x131F JUMPI PUSH2 0x131F PUSH2 0x3D76 JUMP JUMPDEST PUSH1 0x20 SWAP1 DUP2 MUL SWAP2 SWAP1 SWAP2 ADD ADD MSTORE DUP1 PUSH2 0x1334 DUP2 PUSH2 0x3D5B JUMP JUMPDEST SWAP2 POP POP PUSH2 0x12FB JUMP JUMPDEST POP SWAP4 SWAP3 POP POP POP JUMP JUMPDEST PUSH1 0x0 DUP2 DUP2 MSTORE PUSH1 0x2 PUSH1 0x20 MSTORE PUSH1 0x40 DUP2 KECCAK256 SLOAD PUSH1 0x1 PUSH1 0x1 PUSH1 0xA0 SHL SUB AND DUP1 PUSH2 0x919 JUMPI PUSH1 0x40 MLOAD PUSH3 0x461BCD PUSH1 0xE5 SHL DUP2 MSTORE PUSH1 0x20 PUSH1 0x4 DUP3 ADD MSTORE PUSH1 0x29 PUSH1 0x24 DUP3 ADD MSTORE PUSH32 0x4552433732313A206F776E657220717565727920666F72206E6F6E6578697374 PUSH1 0x44 DUP3 ADD MSTORE PUSH9 0x32B73A103A37B5B2B7 PUSH1 0xB9 SHL PUSH1 0x64 DUP3 ADD MSTORE PUSH1 0x84 ADD PUSH2 0xA19 JUMP JUMPDEST PUSH1 0xB SLOAD PUSH1 0x1 PUSH1 0x1 PUSH1 0xA0 SHL SUB AND CALLER EQ PUSH2 0x13E5 JUMPI PUSH1 0x40 MLOAD PUSH3 0x461BCD PUSH1 0xE5 SHL DUP2 MSTORE PUSH1 0x4 ADD PUSH2 0xA19 SWAP1 PUSH2 0x3CA7 JUMP JUMPDEST PUSH1 0x17 DUP2 SWAP1 SSTORE PUSH1 0x40 MLOAD PUSH22 0x1BDC9A59DA5B985B10D85C991A5B985B151E5C195259 PUSH1 0x52 SHL DUP2 MSTORE DUP2 SWAP1 PUSH1 0x16 ADD JUMPDEST PUSH1 0x40 MLOAD SWAP1 DUP2 SWAP1 SUB DUP2 KECCAK256 SWAP1 PUSH32 0xA611BA47A2A0887B794D3E097D5CFB33522F6ED26DF589CCD12C01D5C584800A SWAP1 PUSH1 0x0 SWAP1 LOG3 POP JUMP JUMPDEST PUSH1 0x0 PUSH1 0x1 PUSH1 0x1 PUSH1 0xA0 SHL SUB DUP3 AND PUSH2 0x14AD JUMPI PUSH1 0x40 MLOAD PUSH3 0x461BCD PUSH1 0xE5 SHL DUP2 MSTORE PUSH1 0x20 PUSH1 0x4 DUP3 ADD MSTORE PUSH1 0x2A PUSH1 0x24 DUP3 ADD MSTORE PUSH32 0x4552433732313A2062616C616E636520717565727920666F7220746865207A65 PUSH1 0x44 DUP3 ADD MSTORE PUSH10 0x726F2061646472657373 PUSH1 0xB0 SHL PUSH1 0x64 DUP3 ADD MSTORE PUSH1 0x84 ADD PUSH2 0xA19 JUMP JUMPDEST POP PUSH1 0x1 PUSH1 0x1 PUSH1 0xA0 SHL SUB AND PUSH1 0x0 SWAP1 DUP2 MSTORE PUSH1 0x3 PUSH1 0x20 MSTORE PUSH1 0x40 SWAP1 KECCAK256 SLOAD SWAP1 JUMP JUMPDEST PUSH1 0xB SLOAD PUSH1 0x1 PUSH1 0x1 PUSH1 0xA0 SHL SUB AND CALLER EQ PUSH2 0x14F3 JUMPI PUSH1 0x40 MLOAD PUSH3 0x461BCD PUSH1 0xE5 SHL DUP2 MSTORE PUSH1 0x4 ADD PUSH2 0xA19 SWAP1 PUSH2 0x3CA7 JUMP JUMPDEST PUSH2 0x14FD PUSH1 0x0 PUSH2 0x2C17 JUMP JUMPDEST JUMP JUMPDEST PUSH1 0xB SLOAD PUSH1 0x1 PUSH1 0x1 PUSH1 0xA0 SHL SUB AND CALLER EQ PUSH2 0x1529 JUMPI PUSH1 0x40 MLOAD PUSH3 0x461BCD PUSH1 0xE5 SHL DUP2 MSTORE PUSH1 0x4 ADD PUSH2 0xA19 SWAP1 PUSH2 0x3CA7 JUMP JUMPDEST PUSH1 0x0 SWAP1 DUP2 MSTORE PUSH1 0x11 PUSH1 0x20 MSTORE PUSH1 0x40 SWAP1 KECCAK256 DUP1 SLOAD PUSH1 0x1 PUSH1 0x1 PUSH1 0xA0 SHL SUB NOT AND PUSH1 0x1 PUSH1 0x1 PUSH1 0xA0 SHL SUB SWAP3 SWAP1 SWAP3 AND SWAP2 SWAP1 SWAP2 OR SWAP1 SSTORE JUMP JUMPDEST PUSH1 0x1D SLOAD CALLER PUSH1 0x0 SWAP1 DUP2 MSTORE PUSH1 0x16 PUSH1 0x20 MSTORE PUSH1 0x40 DUP2 KECCAK256 SLOAD SWAP1 SWAP2 SWAP1 ISZERO PUSH2 0x159E JUMPI CALLER PUSH1 0x0 SWAP1 DUP2 MSTORE PUSH1 0x16 PUSH1 0x20 MSTORE PUSH1 0x40 SWAP1 KECCAK256 SLOAD PUSH1 0x1D SLOAD PUSH1 0x64 SWAP2 PUSH2 0x1591 SWAP2 PUSH2 0x3D8C JUMP JUMPDEST PUSH2 0x159B SWAP2 SWAP1 PUSH2 0x3DC1 JUMP JUMPDEST SWAP1 POP JUMPDEST PUSH1 0xE SLOAD PUSH1 0x40 MLOAD PUSH4 0x70A08231 PUSH1 0xE0 SHL DUP2 MSTORE CALLER PUSH1 0x4 DUP3 ADD MSTORE DUP3 SWAP2 PUSH1 0x1 PUSH1 0x1 PUSH1 0xA0 SHL SUB AND SWAP1 PUSH4 0x70A08231 SWAP1 PUSH1 0x24 ADD PUSH1 0x20 PUSH1 0x40 MLOAD DUP1 DUP4 SUB DUP2 DUP7 DUP1 EXTCODESIZE ISZERO DUP1 ISZERO PUSH2 0x15E1 JUMPI PUSH1 0x0 DUP1 REVERT JUMPDEST POP GAS STATICCALL ISZERO DUP1 ISZERO PUSH2 0x15F5 JUMPI RETURNDATASIZE PUSH1 0x0 DUP1 RETURNDATACOPY RETURNDATASIZE PUSH1 0x0 REVERT JUMPDEST POP POP POP POP PUSH1 0x40 MLOAD RETURNDATASIZE PUSH1 0x1F NOT PUSH1 0x1F DUP3 ADD AND DUP3 ADD DUP1 PUSH1 0x40 MSTORE POP DUP2 ADD SWAP1 PUSH2 0x1619 SWAP2 SWAP1 PUSH2 0x3DD5 JUMP JUMPDEST LT ISZERO PUSH2 0x168D JUMPI PUSH1 0x40 MLOAD PUSH3 0x461BCD PUSH1 0xE5 SHL DUP2 MSTORE PUSH1 0x20 PUSH1 0x4 DUP3 ADD MSTORE PUSH1 0x39 PUSH1 0x24 DUP3 ADD MSTORE PUSH32 0x596F7520646F6E2774206861766520656E6F756768205553444320746F207061 PUSH1 0x44 DUP3 ADD MSTORE PUSH32 0x7920666F7220746865206D656D62657273686970204E46542E00000000000000 PUSH1 0x64 DUP3 ADD MSTORE PUSH1 0x84 ADD PUSH2 0xA19 JUMP JUMPDEST PUSH1 0xE SLOAD PUSH1 0x40 MLOAD PUSH4 0x6EB1769F PUSH1 0xE1 SHL DUP2 MSTORE CALLER PUSH1 0x4 DUP3 ADD MSTORE ADDRESS PUSH1 0x24 DUP3 ADD MSTORE DUP3 SWAP2 PUSH1 0x1 PUSH1 0x1 PUSH1 0xA0 SHL SUB AND SWAP1 PUSH4 0xDD62ED3E SWAP1 PUSH1 0x44 ADD PUSH1 0x20 PUSH1 0x40 MLOAD DUP1 DUP4 SUB DUP2 DUP7 DUP1 EXTCODESIZE ISZERO DUP1 ISZERO PUSH2 0x16D6 JUMPI PUSH1 0x0 DUP1 REVERT JUMPDEST POP GAS STATICCALL ISZERO DUP1 ISZERO PUSH2 0x16EA JUMPI RETURNDATASIZE PUSH1 0x0 DUP1 RETURNDATACOPY RETURNDATASIZE PUSH1 0x0 REVERT JUMPDEST POP POP POP POP PUSH1 0x40 MLOAD RETURNDATASIZE PUSH1 0x1F NOT PUSH1 0x1F DUP3 ADD AND DUP3 ADD DUP1 PUSH1 0x40 MSTORE POP DUP2 ADD SWAP1 PUSH2 0x170E SWAP2 SWAP1 PUSH2 0x3DD5 JUMP JUMPDEST LT ISZERO PUSH2 0x17A8 JUMPI PUSH1 0x40 MLOAD PUSH3 0x461BCD PUSH1 0xE5 SHL DUP2 MSTORE PUSH1 0x20 PUSH1 0x4 DUP3 ADD MSTORE PUSH1 0x5E PUSH1 0x24 DUP3 ADD MSTORE PUSH32 0x596F7520686176656E277420617070726F766564207468697320636F6E747261 PUSH1 0x44 DUP3 ADD MSTORE PUSH32 0x637420746F207370656E6420656E6F756768206F6620796F7572205553444320 PUSH1 0x64 DUP3 ADD MSTORE PUSH32 0x746F2070617920666F7220746865206D656D62657273686970204E46542E0000 PUSH1 0x84 DUP3 ADD MSTORE PUSH1 0xA4 ADD PUSH2 0xA19 JUMP JUMPDEST PUSH1 0xE SLOAD PUSH1 0x40 MLOAD PUSH4 0x23B872DD PUSH1 0xE0 SHL DUP2 MSTORE CALLER PUSH1 0x4 DUP3 ADD MSTORE ADDRESS PUSH1 0x24 DUP3 ADD MSTORE PUSH1 0x44 DUP2 ADD DUP4 SWAP1 MSTORE PUSH1 0x1 PUSH1 0x1 PUSH1 0xA0 SHL SUB SWAP1 SWAP2 AND SWAP1 PUSH4 0x23B872DD SWAP1 PUSH1 0x64 ADD PUSH1 0x20 PUSH1 0x40 MLOAD DUP1 DUP4 SUB DUP2 PUSH1 0x0 DUP8 DUP1 EXTCODESIZE ISZERO DUP1 ISZERO PUSH2 0x17FA JUMPI PUSH1 0x0 DUP1 REVERT JUMPDEST POP GAS CALL ISZERO DUP1 ISZERO PUSH2 0x180E JUMPI RETURNDATASIZE PUSH1 0x0 DUP1 RETURNDATACOPY RETURNDATASIZE PUSH1 0x0 REVERT JUMPDEST POP POP POP POP PUSH1 0x40 MLOAD RETURNDATASIZE PUSH1 0x1F NOT PUSH1 0x1F DUP3 ADD AND DUP3 ADD DUP1 PUSH1 0x40 MSTORE POP DUP2 ADD SWAP1 PUSH2 0x1832 SWAP2 SWAP1 PUSH2 0x3DEE JUMP JUMPDEST POP PUSH2 0x1841 PUSH1 0xC DUP1 SLOAD PUSH1 0x1 ADD SWAP1 SSTORE JUMP JUMPDEST PUSH1 0x0 PUSH2 0x184C PUSH1 0xC SLOAD SWAP1 JUMP JUMPDEST PUSH1 0x18 SLOAD PUSH1 0x0 DUP3 DUP2 MSTORE PUSH1 0xF PUSH1 0x20 SWAP1 DUP2 MSTORE PUSH1 0x40 DUP1 DUP4 KECCAK256 SWAP4 SWAP1 SWAP4 SSTORE PUSH1 0x10 SWAP1 MSTORE SWAP1 DUP2 KECCAK256 SSTORE SWAP1 POP PUSH2 0x1878 CALLER DUP3 PUSH2 0x2AD0 JUMP JUMPDEST PUSH1 0x0 DUP2 DUP2 MSTORE PUSH1 0x14 PUSH1 0x20 SWAP1 DUP2 MSTORE PUSH1 0x40 DUP1 DUP4 KECCAK256 TIMESTAMP SWAP1 SSTORE CALLER DUP4 MSTORE PUSH1 0x16 SWAP1 SWAP2 MSTORE DUP2 KECCAK256 SSTORE PUSH1 0x1C DUP1 SLOAD PUSH2 0x192D SWAP2 DUP4 SWAP2 PUSH2 0x18AA SWAP1 PUSH2 0x3C6C JUMP JUMPDEST DUP1 PUSH1 0x1F ADD PUSH1 0x20 DUP1 SWAP2 DIV MUL PUSH1 0x20 ADD PUSH1 0x40 MLOAD SWAP1 DUP2 ADD PUSH1 0x40 MSTORE DUP1 SWAP3 SWAP2 SWAP1 DUP2 DUP2 MSTORE PUSH1 0x20 ADD DUP3 DUP1 SLOAD PUSH2 0x18D6 SWAP1 PUSH2 0x3C6C JUMP JUMPDEST DUP1 ISZERO PUSH2 0x1923 JUMPI DUP1 PUSH1 0x1F LT PUSH2 0x18F8 JUMPI PUSH2 0x100 DUP1 DUP4 SLOAD DIV MUL DUP4 MSTORE SWAP2 PUSH1 0x20 ADD SWAP2 PUSH2 0x1923 JUMP JUMPDEST DUP3 ADD SWAP2 SWAP1 PUSH1 0x0 MSTORE PUSH1 0x20 PUSH1 0x0 KECCAK256 SWAP1 JUMPDEST DUP2 SLOAD DUP2 MSTORE SWAP1 PUSH1 0x1 ADD SWAP1 PUSH1 0x20 ADD DUP1 DUP4 GT PUSH2 0x1906 JUMPI DUP3 SWAP1 SUB PUSH1 0x1F AND DUP3 ADD SWAP2 JUMPDEST POP POP POP POP POP PUSH2 0x27B2 JUMP JUMPDEST PUSH2 0x1937 ADDRESS DUP3 PUSH2 0xA3E JUMP JUMPDEST PUSH1 0xD SLOAD PUSH2 0x194E SWAP1 PUSH1 0x1 PUSH1 0x1 PUSH1 0xA0 SHL SUB AND PUSH1 0x1 PUSH2 0x1BD6 JUMP JUMPDEST PUSH1 0x1B DUP1 SLOAD PUSH1 0x1 DUP2 ADD DUP3 SSTORE PUSH1 0x0 SWAP2 DUP3 MSTORE PUSH32 0x3AD8AA4F87544323A9D1E5DD902F40C356527A7955687113DB5F9A85AD579DC1 ADD DUP3 SWAP1 SSTORE PUSH1 0x40 MLOAD DUP3 SWAP2 CALLER SWAP2 PUSH32 0x7430CEFC529011C1B720A4803C3A12DB2BFDF282E089E2D26FF4929EF11A703C SWAP2 SWAP1 LOG3 SWAP3 SWAP2 POP POP JUMP JUMPDEST PUSH1 0xB SLOAD PUSH1 0x1 PUSH1 0x1 PUSH1 0xA0 SHL SUB AND CALLER EQ PUSH2 0x19DD JUMPI PUSH1 0x40 MLOAD PUSH3 0x461BCD PUSH1 0xE5 SHL DUP2 MSTORE PUSH1 0x4 ADD PUSH2 0xA19 SWAP1 PUSH2 0x3CA7 JUMP JUMPDEST PUSH1 0x0 SWAP2 DUP3 MSTORE PUSH1 0x10 PUSH1 0x20 MSTORE PUSH1 0x40 SWAP1 SWAP2 KECCAK256 SSTORE JUMP JUMPDEST PUSH1 0xB SLOAD PUSH1 0x1 PUSH1 0x1 PUSH1 0xA0 SHL SUB AND CALLER EQ PUSH2 0x1A19 JUMPI PUSH1 0x40 MLOAD PUSH3 0x461BCD PUSH1 0xE5 SHL DUP2 MSTORE PUSH1 0x4 ADD PUSH2 0xA19 SWAP1 PUSH2 0x3CA7 JUMP JUMPDEST PUSH1 0x19 DUP2 SWAP1 SSTORE PUSH1 0x40 MLOAD PUSH13 0x1CD95C9D9A58D9551E5C195259 PUSH1 0x9A SHL DUP2 MSTORE DUP2 SWAP1 PUSH1 0xD ADD PUSH2 0x140F JUMP JUMPDEST PUSH1 0x60 PUSH1 0x0 PUSH2 0x1A4B DUP4 PUSH2 0x1442 JUMP JUMPDEST SWAP1 POP PUSH1 0x0 DUP1 DUP3 PUSH8 0xFFFFFFFFFFFFFFFF DUP2 GT ISZERO PUSH2 0x1A69 JUMPI PUSH2 0x1A69 PUSH2 0x38C5 JUMP JUMPDEST PUSH1 0x40 MLOAD SWAP1 DUP1 DUP3 MSTORE DUP1 PUSH1 0x20 MUL PUSH1 0x20 ADD DUP3 ADD PUSH1 0x40 MSTORE DUP1 ISZERO PUSH2 0x1A9C JUMPI DUP2 PUSH1 0x20 ADD JUMPDEST PUSH1 0x60 DUP2 MSTORE PUSH1 0x20 ADD SWAP1 PUSH1 0x1 SWAP1 SUB SWAP1 DUP2 PUSH2 0x1A87 JUMPI SWAP1 POP JUMPDEST POP SWAP1 POP PUSH1 0x0 JUMPDEST DUP4 DUP2 LT ISZERO PUSH2 0x1AEF JUMPI PUSH2 0x1AB4 DUP7 DUP3 PUSH2 0xCC3 JUMP JUMPDEST SWAP3 POP PUSH2 0x1ABF DUP4 PUSH2 0x237D JUMP JUMPDEST DUP3 DUP3 DUP2 MLOAD DUP2 LT PUSH2 0x1AD1 JUMPI PUSH2 0x1AD1 PUSH2 0x3D76 JUMP JUMPDEST PUSH1 0x20 MUL PUSH1 0x20 ADD ADD DUP2 SWAP1 MSTORE POP DUP1 DUP1 PUSH2 0x1AE7 SWAP1 PUSH2 0x3D5B JUMP JUMPDEST SWAP2 POP POP PUSH2 0x1AA2 JUMP JUMPDEST POP SWAP5 SWAP4 POP POP POP POP JUMP JUMPDEST PUSH1 0x1C DUP1 SLOAD PUSH2 0x1B05 SWAP1 PUSH2 0x3C6C JUMP JUMPDEST DUP1 PUSH1 0x1F ADD PUSH1 0x20 DUP1 SWAP2 DIV MUL PUSH1 0x20 ADD PUSH1 0x40 MLOAD SWAP1 DUP2 ADD PUSH1 0x40 MSTORE DUP1 SWAP3 SWAP2 SWAP1 DUP2 DUP2 MSTORE PUSH1 0x20 ADD DUP3 DUP1 SLOAD PUSH2 0x1B31 SWAP1 PUSH2 0x3C6C JUMP JUMPDEST DUP1 ISZERO PUSH2 0x1B7E JUMPI DUP1 PUSH1 0x1F LT PUSH2 0x1B53 JUMPI PUSH2 0x100 DUP1 DUP4 SLOAD DIV MUL DUP4 MSTORE SWAP2 PUSH1 0x20 ADD SWAP2 PUSH2 0x1B7E JUMP JUMPDEST DUP3 ADD SWAP2 SWAP1 PUSH1 0x0 MSTORE PUSH1 0x20 PUSH1 0x0 KECCAK256 SWAP1 JUMPDEST DUP2 SLOAD DUP2 MSTORE SWAP1 PUSH1 0x1 ADD SWAP1 PUSH1 0x20 ADD DUP1 DUP4 GT PUSH2 0x1B61 JUMPI DUP3 SWAP1 SUB PUSH1 0x1F AND DUP3 ADD SWAP2 JUMPDEST POP POP POP POP POP DUP2 JUMP JUMPDEST PUSH1 0x60 PUSH1 0x1 DUP1 SLOAD PUSH2 0x92E SWAP1 PUSH2 0x3C6C JUMP JUMPDEST PUSH1 0xB SLOAD PUSH1 0x1 PUSH1 0x1 PUSH1 0xA0 SHL SUB AND CALLER EQ PUSH2 0x1BBF JUMPI PUSH1 0x40 MLOAD PUSH3 0x461BCD PUSH1 0xE5 SHL DUP2 MSTORE PUSH1 0x4 ADD PUSH2 0xA19 SWAP1 PUSH2 0x3CA7 JUMP JUMPDEST DUP1 MLOAD PUSH2 0x1BD2 SWAP1 PUSH1 0x1C SWAP1 PUSH1 0x20 DUP5 ADD SWAP1 PUSH2 0x3714 JUMP JUMPDEST POP POP JUMP JUMPDEST PUSH2 0x1BD2 CALLER DUP4 DUP4 PUSH2 0x2C69 JUMP JUMPDEST PUSH1 0x1B DUP2 DUP2 SLOAD DUP2 LT PUSH2 0x1BF1 JUMPI PUSH1 0x0 DUP1 REVERT JUMPDEST PUSH1 0x0 SWAP2 DUP3 MSTORE PUSH1 0x20 SWAP1 SWAP2 KECCAK256 ADD SLOAD SWAP1 POP DUP2 JUMP JUMPDEST PUSH1 0xB SLOAD PUSH1 0x1 PUSH1 0x1 PUSH1 0xA0 SHL SUB AND CALLER EQ PUSH2 0x1C2C JUMPI PUSH1 0x40 MLOAD PUSH3 0x461BCD PUSH1 0xE5 SHL DUP2 MSTORE PUSH1 0x4 ADD PUSH2 0xA19 SWAP1 PUSH2 0x3CA7 JUMP JUMPDEST PUSH1 0x1 PUSH1 0x1 PUSH1 0xA0 SHL SUB SWAP2 SWAP1 SWAP2 AND PUSH1 0x0 SWAP1 DUP2 MSTORE PUSH1 0x15 PUSH1 0x20 MSTORE PUSH1 0x40 SWAP1 KECCAK256 DUP1 SLOAD PUSH1 0xFF NOT AND SWAP2 ISZERO ISZERO SWAP2 SWAP1 SWAP2 OR SWAP1 SSTORE JUMP JUMPDEST PUSH1 0x1A DUP2 DUP2 SLOAD DUP2 LT PUSH2 0x1BF1 JUMPI PUSH1 0x0 DUP1 REVERT JUMPDEST PUSH2 0x1C71 CALLER DUP4 PUSH2 0x283D JUMP JUMPDEST PUSH2 0x1C8D JUMPI PUSH1 0x40 MLOAD PUSH3 0x461BCD PUSH1 0xE5 SHL DUP2 MSTORE PUSH1 0x4 ADD PUSH2 0xA19 SWAP1 PUSH2 0x3CDC JUMP JUMPDEST PUSH2 0x1C99 DUP5 DUP5 DUP5 DUP5 PUSH2 0x2D38 JUMP JUMPDEST POP POP POP POP JUMP JUMPDEST PUSH1 0xB SLOAD PUSH1 0x0 SWAP1 PUSH1 0x1 PUSH1 0x1 PUSH1 0xA0 SHL SUB AND CALLER EQ PUSH2 0x1CCC JUMPI PUSH1 0x40 MLOAD PUSH3 0x461BCD PUSH1 0xE5 SHL DUP2 MSTORE PUSH1 0x4 ADD PUSH2 0xA19 SWAP1 PUSH2 0x3CA7 JUMP JUMPDEST DUP4 PUSH1 0x1 PUSH1 0x1 PUSH1 0xA0 SHL SUB AND PUSH2 0x1CDF DUP5 PUSH2 0x1344 JUMP JUMPDEST PUSH1 0x1 PUSH1 0x1 PUSH1 0xA0 SHL SUB AND EQ PUSH2 0x1D49 JUMPI PUSH1 0x40 MLOAD PUSH3 0x461BCD PUSH1 0xE5 SHL DUP2 MSTORE PUSH1 0x20 PUSH1 0x4 DUP3 ADD MSTORE PUSH1 0x2B PUSH1 0x24 DUP3 ADD MSTORE PUSH32 0x54686973206164647265737320646F65736E2774206F776E20746865204E4654 PUSH1 0x44 DUP3 ADD MSTORE PUSH11 0x1039B832B1B4B334B2B217 PUSH1 0xA9 SHL PUSH1 0x64 DUP3 ADD MSTORE PUSH1 0x84 ADD PUSH2 0xA19 JUMP JUMPDEST PUSH1 0xB SLOAD PUSH1 0x1 PUSH1 0x1 PUSH1 0xA0 SHL SUB AND PUSH2 0x1D5E DUP5 PUSH2 0x1344 JUMP JUMPDEST PUSH1 0x1 PUSH1 0x1 PUSH1 0xA0 SHL SUB AND EQ ISZERO DUP1 ISZERO PUSH2 0x1D91 JUMPI POP PUSH1 0xD SLOAD PUSH1 0x1 PUSH1 0x1 PUSH1 0xA0 SHL SUB AND PUSH2 0x1D85 DUP5 PUSH2 0x1344 JUMP JUMPDEST PUSH1 0x1 PUSH1 0x1 PUSH1 0xA0 SHL SUB AND EQ ISZERO JUMPDEST PUSH2 0x1E03 JUMPI PUSH1 0x40 MLOAD PUSH3 0x461BCD PUSH1 0xE5 SHL DUP2 MSTORE PUSH1 0x20 PUSH1 0x4 DUP3 ADD MSTORE PUSH1 0x39 PUSH1 0x24 DUP3 ADD MSTORE PUSH32 0x43616E27742063686172676520746865206F776E6572206F72206D61726B6574 PUSH1 0x44 DUP3 ADD MSTORE PUSH32 0x706C61636520666F7220746865206D656D626572736869702E00000000000000 PUSH1 0x64 DUP3 ADD MSTORE PUSH1 0x84 ADD PUSH2 0xA19 JUMP JUMPDEST PUSH1 0x1D SLOAD PUSH1 0x1 PUSH1 0x1 PUSH1 0xA0 SHL SUB DUP6 AND PUSH1 0x0 SWAP1 DUP2 MSTORE PUSH1 0x16 PUSH1 0x20 MSTORE PUSH1 0x40 SWAP1 KECCAK256 SLOAD ISZERO PUSH2 0x1E59 JUMPI PUSH1 0x1 PUSH1 0x1 PUSH1 0xA0 SHL SUB DUP6 AND PUSH1 0x0 SWAP1 DUP2 MSTORE PUSH1 0x16 PUSH1 0x20 MSTORE PUSH1 0x40 SWAP1 KECCAK256 SLOAD PUSH1 0x1D SLOAD PUSH1 0x64 SWAP2 PUSH2 0x1E4C SWAP2 PUSH2 0x3D8C JUMP JUMPDEST PUSH2 0x1E56 SWAP2 SWAP1 PUSH2 0x3DC1 JUMP JUMPDEST SWAP1 POP JUMPDEST PUSH1 0xE SLOAD PUSH1 0x40 MLOAD PUSH4 0x70A08231 PUSH1 0xE0 SHL DUP2 MSTORE PUSH1 0x1 PUSH1 0x1 PUSH1 0xA0 SHL SUB DUP8 DUP2 AND PUSH1 0x4 DUP4 ADD MSTORE DUP4 SWAP3 AND SWAP1 PUSH4 0x70A08231 SWAP1 PUSH1 0x24 ADD PUSH1 0x20 PUSH1 0x40 MLOAD DUP1 DUP4 SUB DUP2 DUP7 DUP1 EXTCODESIZE ISZERO DUP1 ISZERO PUSH2 0x1E9E JUMPI PUSH1 0x0 DUP1 REVERT JUMPDEST POP GAS STATICCALL ISZERO DUP1 ISZERO PUSH2 0x1EB2 JUMPI RETURNDATASIZE PUSH1 0x0 DUP1 RETURNDATACOPY RETURNDATASIZE PUSH1 0x0 REVERT JUMPDEST POP POP POP POP PUSH1 0x40 MLOAD RETURNDATASIZE PUSH1 0x1F NOT PUSH1 0x1F DUP3 ADD AND DUP3 ADD DUP1 PUSH1 0x40 MSTORE POP DUP2 ADD SWAP1 PUSH2 0x1ED6 SWAP2 SWAP1 PUSH2 0x3DD5 JUMP JUMPDEST LT DUP1 PUSH2 0x1F62 JUMPI POP PUSH1 0xE SLOAD PUSH1 0x40 MLOAD PUSH4 0x6EB1769F PUSH1 0xE1 SHL DUP2 MSTORE PUSH1 0x1 PUSH1 0x1 PUSH1 0xA0 SHL SUB DUP8 DUP2 AND PUSH1 0x4 DUP4 ADD MSTORE ADDRESS PUSH1 0x24 DUP4 ADD MSTORE DUP4 SWAP3 AND SWAP1 PUSH4 0xDD62ED3E SWAP1 PUSH1 0x44 ADD PUSH1 0x20 PUSH1 0x40 MLOAD DUP1 DUP4 SUB DUP2 DUP7 DUP1 EXTCODESIZE ISZERO DUP1 ISZERO PUSH2 0x1F28 JUMPI PUSH1 0x0 DUP1 REVERT JUMPDEST POP GAS STATICCALL ISZERO DUP1 ISZERO PUSH2 0x1F3C JUMPI RETURNDATASIZE PUSH1 0x0 DUP1 RETURNDATACOPY RETURNDATASIZE PUSH1 0x0 REVERT JUMPDEST POP POP POP POP PUSH1 0x40 MLOAD RETURNDATASIZE PUSH1 0x1F NOT PUSH1 0x1F DUP3 ADD AND DUP3 ADD DUP1 PUSH1 0x40 MSTORE POP DUP2 ADD SWAP1 PUSH2 0x1F60 SWAP2 SWAP1 PUSH2 0x3DD5 JUMP JUMPDEST LT JUMPDEST ISZERO PUSH2 0x1F7A JUMPI PUSH2 0x1F70 DUP5 PUSH2 0x2D6B JUMP JUMPDEST PUSH1 0x1 SWAP2 POP POP PUSH2 0x2093 JUMP JUMPDEST PUSH1 0xE SLOAD PUSH1 0x40 MLOAD PUSH4 0x23B872DD PUSH1 0xE0 SHL DUP2 MSTORE PUSH1 0x1 PUSH1 0x1 PUSH1 0xA0 SHL SUB DUP8 DUP2 AND PUSH1 0x4 DUP4 ADD MSTORE ADDRESS PUSH1 0x24 DUP4 ADD MSTORE PUSH1 0x44 DUP3 ADD DUP5 SWAP1 MSTORE SWAP1 SWAP2 AND SWAP1 PUSH4 0x23B872DD SWAP1 PUSH1 0x64 ADD PUSH1 0x20 PUSH1 0x40 MLOAD DUP1 DUP4 SUB DUP2 PUSH1 0x0 DUP8 DUP1 EXTCODESIZE ISZERO DUP1 ISZERO PUSH2 0x1FCE JUMPI PUSH1 0x0 DUP1 REVERT JUMPDEST POP GAS CALL ISZERO DUP1 ISZERO PUSH2 0x1FE2 JUMPI RETURNDATASIZE PUSH1 0x0 DUP1 RETURNDATACOPY RETURNDATASIZE PUSH1 0x0 REVERT JUMPDEST POP POP POP POP PUSH1 0x40 MLOAD RETURNDATASIZE PUSH1 0x1F NOT PUSH1 0x1F DUP3 ADD AND DUP3 ADD DUP1 PUSH1 0x40 MSTORE POP DUP2 ADD SWAP1 PUSH2 0x2006 SWAP2 SWAP1 PUSH2 0x3DEE JUMP JUMPDEST POP DUP3 ISZERO PUSH2 0x2023 JUMPI PUSH1 0x0 DUP5 DUP2 MSTORE PUSH1 0x14 PUSH1 0x20 MSTORE PUSH1 0x40 SWAP1 KECCAK256 DUP4 SWAP1 SSTORE PUSH2 0x2035 JUMP JUMPDEST PUSH1 0x0 DUP5 DUP2 MSTORE PUSH1 0x14 PUSH1 0x20 MSTORE PUSH1 0x40 SWAP1 KECCAK256 TIMESTAMP SWAP1 SSTORE JUMPDEST PUSH1 0x1 PUSH1 0x1 PUSH1 0xA0 SHL SUB DUP6 AND PUSH1 0x0 DUP2 DUP2 MSTORE PUSH1 0x16 PUSH1 0x20 SWAP1 DUP2 MSTORE PUSH1 0x40 DUP1 DUP4 KECCAK256 SWAP3 SWAP1 SWAP3 SSTORE DUP2 MLOAD DUP5 DUP2 MSTORE SWAP1 DUP2 ADD DUP7 SWAP1 MSTORE DUP7 SWAP3 SWAP2 PUSH32 0x9170D37D9D267E1D271F28F3F225AC7E95B00677566675BA1D251944EB3C5924 SWAP2 ADD PUSH1 0x40 MLOAD DUP1 SWAP2 SUB SWAP1 LOG3 PUSH1 0x0 SWAP2 POP POP JUMPDEST SWAP4 SWAP3 POP POP POP JUMP JUMPDEST PUSH1 0xB SLOAD PUSH1 0x1 PUSH1 0x1 PUSH1 0xA0 SHL SUB AND CALLER EQ PUSH2 0x20C4 JUMPI PUSH1 0x40 MLOAD PUSH3 0x461BCD PUSH1 0xE5 SHL DUP2 MSTORE PUSH1 0x4 ADD PUSH2 0xA19 SWAP1 PUSH2 0x3CA7 JUMP JUMPDEST PUSH1 0xE SLOAD PUSH1 0x1 PUSH1 0x1 PUSH1 0xA0 SHL SUB AND PUSH4 0xA9059CBB PUSH2 0x20E7 PUSH1 0xB SLOAD PUSH1 0x1 PUSH1 0x1 PUSH1 0xA0 SHL SUB AND SWAP1 JUMP JUMPDEST PUSH1 0xE SLOAD PUSH1 0x40 MLOAD PUSH4 0x70A08231 PUSH1 0xE0 SHL DUP2 MSTORE ADDRESS PUSH1 0x4 DUP3 ADD MSTORE PUSH1 0x1 PUSH1 0x1 PUSH1 0xA0 SHL SUB SWAP1 SWAP2 AND SWAP1 PUSH4 0x70A08231 SWAP1 PUSH1 0x24 ADD PUSH1 0x20 PUSH1 0x40 MLOAD DUP1 DUP4 SUB DUP2 DUP7 DUP1 EXTCODESIZE ISZERO DUP1 ISZERO PUSH2 0x212A JUMPI PUSH1 0x0 DUP1 REVERT JUMPDEST POP GAS STATICCALL ISZERO DUP1 ISZERO PUSH2 0x213E JUMPI RETURNDATASIZE PUSH1 0x0 DUP1 RETURNDATACOPY RETURNDATASIZE PUSH1 0x0 REVERT JUMPDEST POP POP POP POP PUSH1 0x40 MLOAD RETURNDATASIZE PUSH1 0x1F NOT PUSH1 0x1F DUP3 ADD AND DUP3 ADD DUP1 PUSH1 0x40 MSTORE POP DUP2 ADD SWAP1 PUSH2 0x2162 SWAP2 SWAP1 PUSH2 0x3DD5 JUMP JUMPDEST PUSH1 0x40 MLOAD PUSH1 0x1 PUSH1 0x1 PUSH1 0xE0 SHL SUB NOT PUSH1 0xE0 DUP6 SWAP1 SHL AND DUP2 MSTORE PUSH1 0x1 PUSH1 0x1 PUSH1 0xA0 SHL SUB SWAP1 SWAP3 AND PUSH1 0x4 DUP4 ADD MSTORE PUSH1 0x24 DUP3 ADD MSTORE PUSH1 0x44 ADD PUSH1 0x20 PUSH1 0x40 MLOAD DUP1 DUP4 SUB DUP2 PUSH1 0x0 DUP8 DUP1 EXTCODESIZE ISZERO DUP1 ISZERO PUSH2 0x21A8 JUMPI PUSH1 0x0 DUP1 REVERT JUMPDEST POP GAS CALL ISZERO DUP1 ISZERO PUSH2 0x21BC JUMPI RETURNDATASIZE PUSH1 0x0 DUP1 RETURNDATACOPY RETURNDATASIZE PUSH1 0x0 REVERT JUMPDEST POP POP POP POP PUSH1 0x40 MLOAD RETURNDATASIZE PUSH1 0x1F NOT PUSH1 0x1F DUP3 ADD AND DUP3 ADD DUP1 PUSH1 0x40 MSTORE POP DUP2 ADD SWAP1 PUSH2 0x21E0 SWAP2 SWAP1 PUSH2 0x3DEE JUMP JUMPDEST POP JUMP JUMPDEST PUSH1 0x60 PUSH1 0x0 PUSH2 0x21F0 PUSH1 0xC SLOAD SWAP1 JUMP JUMPDEST SWAP1 POP PUSH1 0x0 DUP1 PUSH1 0x1 JUMPDEST DUP4 DUP2 GT PUSH2 0x225C JUMPI DUP6 PUSH1 0x1 PUSH1 0x1 PUSH1 0xA0 SHL SUB AND PUSH2 0x2212 DUP3 PUSH2 0x1344 JUMP JUMPDEST PUSH1 0x1 PUSH1 0x1 PUSH1 0xA0 SHL SUB AND EQ DUP1 ISZERO PUSH2 0x2237 JUMPI POP PUSH1 0x19 SLOAD PUSH1 0x0 DUP3 DUP2 MSTORE PUSH1 0xF PUSH1 0x20 MSTORE PUSH1 0x40 SWAP1 KECCAK256 SLOAD EQ JUMPDEST ISZERO PUSH2 0x224A JUMPI PUSH2 0x2247 PUSH1 0x1 DUP5 PUSH2 0x3D43 JUMP JUMPDEST SWAP3 POP JUMPDEST DUP1 PUSH2 0x2254 DUP2 PUSH2 0x3D5B JUMP JUMPDEST SWAP2 POP POP PUSH2 0x21F8 JUMP JUMPDEST POP PUSH1 0x0 DUP3 PUSH8 0xFFFFFFFFFFFFFFFF DUP2 GT ISZERO PUSH2 0x2278 JUMPI PUSH2 0x2278 PUSH2 0x38C5 JUMP JUMPDEST PUSH1 0x40 MLOAD SWAP1 DUP1 DUP3 MSTORE DUP1 PUSH1 0x20 MUL PUSH1 0x20 ADD DUP3 ADD PUSH1 0x40 MSTORE DUP1 ISZERO PUSH2 0x22AB JUMPI DUP2 PUSH1 0x20 ADD JUMPDEST PUSH1 0x60 DUP2 MSTORE PUSH1 0x20 ADD SWAP1 PUSH1 0x1 SWAP1 SUB SWAP1 DUP2 PUSH2 0x2296 JUMPI SWAP1 POP JUMPDEST POP SWAP1 POP PUSH1 0x1 JUMPDEST DUP5 DUP2 GT PUSH2 0xEE9 JUMPI DUP7 PUSH1 0x1 PUSH1 0x1 PUSH1 0xA0 SHL SUB AND PUSH2 0x22CB DUP3 PUSH2 0x1344 JUMP JUMPDEST PUSH1 0x1 PUSH1 0x1 PUSH1 0xA0 SHL SUB AND EQ DUP1 ISZERO PUSH2 0x22F0 JUMPI POP PUSH1 0x19 SLOAD PUSH1 0x0 DUP3 DUP2 MSTORE PUSH1 0xF PUSH1 0x20 MSTORE PUSH1 0x40 SWAP1 KECCAK256 SLOAD EQ JUMPDEST ISZERO PUSH2 0x232F JUMPI PUSH1 0x0 PUSH2 0x2300 DUP3 PUSH2 0x237D JUMP JUMPDEST SWAP1 POP DUP1 DUP4 DUP6 DUP2 MLOAD DUP2 LT PUSH2 0x2315 JUMPI PUSH2 0x2315 PUSH2 0x3D76 JUMP JUMPDEST PUSH1 0x20 SWAP1 DUP2 MUL SWAP2 SWAP1 SWAP2 ADD ADD MSTORE PUSH2 0x232B PUSH1 0x1 DUP6 PUSH2 0x3D43 JUMP JUMPDEST SWAP4 POP POP JUMPDEST DUP1 PUSH2 0x2339 DUP2 PUSH2 0x3D5B JUMP JUMPDEST SWAP2 POP POP PUSH2 0x22B1 JUMP JUMPDEST PUSH1 0xB SLOAD PUSH1 0x1 PUSH1 0x1 PUSH1 0xA0 SHL SUB AND CALLER EQ PUSH2 0x236B JUMPI PUSH1 0x40 MLOAD PUSH3 0x461BCD PUSH1 0xE5 SHL DUP2 MSTORE PUSH1 0x4 ADD PUSH2 0xA19 SWAP1 PUSH2 0x3CA7 JUMP JUMPDEST PUSH1 0x0 SWAP2 DUP3 MSTORE PUSH1 0xF PUSH1 0x20 MSTORE PUSH1 0x40 SWAP1 SWAP2 KECCAK256 SSTORE JUMP JUMPDEST PUSH1 0x60 PUSH2 0x919 DUP3 PUSH2 0x2EAA JUMP JUMPDEST CALLER PUSH1 0x0 SWAP1 DUP2 MSTORE PUSH1 0x15 PUSH1 0x20 MSTORE PUSH1 0x40 SWAP1 KECCAK256 SLOAD PUSH1 0xFF AND PUSH2 0x23F5 JUMPI PUSH1 0x40 MLOAD PUSH3 0x461BCD PUSH1 0xE5 SHL DUP2 MSTORE PUSH1 0x20 PUSH1 0x4 DUP3 ADD MSTORE PUSH1 0x25 PUSH1 0x24 DUP3 ADD MSTORE PUSH32 0x4F6E6C7920636F6E74726163742061646D696E732063616E20616464206D656D PUSH1 0x44 DUP3 ADD MSTORE PUSH5 0x3132B93997 PUSH1 0xD9 SHL PUSH1 0x64 DUP3 ADD MSTORE PUSH1 0x84 ADD PUSH2 0xA19 JUMP JUMPDEST PUSH1 0x1 PUSH1 0x1 PUSH1 0xA0 SHL SUB AND PUSH1 0x0 SWAP1 DUP2 MSTORE PUSH1 0x12 PUSH1 0x20 MSTORE PUSH1 0x40 SWAP1 KECCAK256 DUP1 SLOAD PUSH1 0xFF NOT AND PUSH1 0x1 OR SWAP1 SSTORE JUMP JUMPDEST PUSH1 0x60 PUSH1 0x1B DUP1 SLOAD DUP1 PUSH1 0x20 MUL PUSH1 0x20 ADD PUSH1 0x40 MLOAD SWAP1 DUP2 ADD PUSH1 0x40 MSTORE DUP1 SWAP3 SWAP2 SWAP1 DUP2 DUP2 MSTORE PUSH1 0x20 ADD DUP3 DUP1 SLOAD DUP1 ISZERO PUSH2 0x9A7 JUMPI PUSH1 0x20 MUL DUP3 ADD SWAP2 SWAP1 PUSH1 0x0 MSTORE PUSH1 0x20 PUSH1 0x0 KECCAK256 SWAP1 JUMPDEST DUP2 SLOAD DUP2 MSTORE PUSH1 0x20 ADD SWAP1 PUSH1 0x1 ADD SWAP1 DUP1 DUP4 GT PUSH2 0x2453 JUMPI POP POP POP POP POP SWAP1 POP SWAP1 JUMP JUMPDEST PUSH1 0x60 PUSH1 0x1A DUP1 SLOAD DUP1 PUSH1 0x20 MUL PUSH1 0x20 ADD PUSH1 0x40 MLOAD SWAP1 DUP2 ADD PUSH1 0x40 MSTORE DUP1 SWAP3 SWAP2 SWAP1 DUP2 DUP2 MSTORE PUSH1 0x20 ADD DUP3 DUP1 SLOAD DUP1 ISZERO PUSH2 0x9A7 JUMPI PUSH1 0x20 MUL DUP3 ADD SWAP2 SWAP1 PUSH1 0x0 MSTORE PUSH1 0x20 PUSH1 0x0 KECCAK256 SWAP1 DUP2 SLOAD DUP2 MSTORE PUSH1 0x20 ADD SWAP1 PUSH1 0x1 ADD SWAP1 DUP1 DUP4 GT PUSH2 0x2453 JUMPI POP POP POP POP POP SWAP1 POP SWAP1 JUMP JUMPDEST PUSH1 0xB SLOAD PUSH1 0x1 PUSH1 0x1 PUSH1 0xA0 SHL SUB AND CALLER EQ PUSH2 0x24F0 JUMPI PUSH1 0x40 MLOAD PUSH3 0x461BCD PUSH1 0xE5 SHL DUP2 MSTORE PUSH1 0x4 ADD PUSH2 0xA19 SWAP1 PUSH2 0x3CA7 JUMP JUMPDEST PUSH1 0x1D DUP2 SWAP1 SSTORE PUSH1 0x40 MLOAD DUP2 SWAP1 PUSH32 0x1361F6A741CB766EA2F0BE44A0E1686DF0E08320BE065F6C8DF9E4F639AB297A SWAP1 PUSH1 0x0 SWAP1 LOG2 POP JUMP JUMPDEST PUSH1 0xB SLOAD PUSH1 0x1 PUSH1 0x1 PUSH1 0xA0 SHL SUB AND CALLER EQ PUSH2 0x254D JUMPI PUSH1 0x40 MLOAD PUSH3 0x461BCD PUSH1 0xE5 SHL DUP2 MSTORE PUSH1 0x4 ADD PUSH2 0xA19 SWAP1 PUSH2 0x3CA7 JUMP JUMPDEST PUSH2 0x21E0 DUP2 PUSH2 0x2D6B JUMP JUMPDEST PUSH1 0xB SLOAD PUSH1 0x1 PUSH1 0x1 PUSH1 0xA0 SHL SUB AND CALLER EQ PUSH2 0x2580 JUMPI PUSH1 0x40 MLOAD PUSH3 0x461BCD PUSH1 0xE5 SHL DUP2 MSTORE PUSH1 0x4 ADD PUSH2 0xA19 SWAP1 PUSH2 0x3CA7 JUMP JUMPDEST PUSH1 0x1 PUSH1 0x1 PUSH1 0xA0 SHL SUB DUP2 AND PUSH2 0x25E5 JUMPI PUSH1 0x40 MLOAD PUSH3 0x461BCD PUSH1 0xE5 SHL DUP2 MSTORE PUSH1 0x20 PUSH1 0x4 DUP3 ADD MSTORE PUSH1 0x26 PUSH1 0x24 DUP3 ADD MSTORE PUSH32 0x4F776E61626C653A206E6577206F776E657220697320746865207A65726F2061 PUSH1 0x44 DUP3 ADD MSTORE PUSH6 0x646472657373 PUSH1 0xD0 SHL PUSH1 0x64 DUP3 ADD MSTORE PUSH1 0x84 ADD PUSH2 0xA19 JUMP JUMPDEST PUSH2 0x21E0 DUP2 PUSH2 0x2C17 JUMP JUMPDEST CALLER PUSH1 0x0 SWAP1 DUP2 MSTORE PUSH1 0x15 PUSH1 0x20 MSTORE PUSH1 0x40 SWAP1 KECCAK256 SLOAD PUSH1 0xFF AND PUSH2 0x2669 JUMPI PUSH1 0x40 MLOAD PUSH3 0x461BCD PUSH1 0xE5 SHL DUP2 MSTORE PUSH1 0x20 PUSH1 0x4 DUP3 ADD MSTORE PUSH1 0x33 PUSH1 0x24 DUP3 ADD MSTORE PUSH32 0x4F6E6C7920636F6E74726163742061646D696E732063616E207365742061206D PUSH1 0x44 DUP3 ADD MSTORE PUSH19 0x32B6B132B939B434B8103234B9B1B7BAB73A17 PUSH1 0x69 SHL PUSH1 0x64 DUP3 ADD MSTORE PUSH1 0x84 ADD PUSH2 0xA19 JUMP JUMPDEST PUSH1 0x1 PUSH1 0x1 PUSH1 0xA0 SHL SUB DUP3 AND PUSH1 0x0 DUP2 DUP2 MSTORE PUSH1 0x16 PUSH1 0x20 MSTORE PUSH1 0x40 DUP1 DUP3 KECCAK256 DUP5 SWAP1 SSTORE MLOAD DUP4 SWAP3 SWAP2 PUSH32 0x874556B552951A64A8A3F7627516F395097B3DE40CF93B85E87B03118CC02CF0 SWAP2 LOG3 POP POP JUMP JUMPDEST PUSH1 0xB SLOAD PUSH1 0x1 PUSH1 0x1 PUSH1 0xA0 SHL SUB AND CALLER EQ PUSH2 0x26DA JUMPI PUSH1 0x40 MLOAD PUSH3 0x461BCD PUSH1 0xE5 SHL DUP2 MSTORE PUSH1 0x4 ADD PUSH2 0xA19 SWAP1 PUSH2 0x3CA7 JUMP JUMPDEST PUSH1 0x18 DUP2 SWAP1 SSTORE PUSH1 0x40 MLOAD PUSH16 0x1B595B58995C9CDA1A5C151E5C195259 PUSH1 0x82 SHL DUP2 MSTORE DUP2 SWAP1 PUSH1 0x10 ADD PUSH2 0x140F JUMP JUMPDEST PUSH1 0x0 PUSH1 0x1 PUSH1 0x1 PUSH1 0xE0 SHL SUB NOT DUP3 AND PUSH4 0x780E9D63 PUSH1 0xE0 SHL EQ DUP1 PUSH2 0x919 JUMPI POP PUSH2 0x919 DUP3 PUSH2 0x3019 JUMP JUMPDEST PUSH1 0x0 SWAP1 DUP2 MSTORE PUSH1 0x2 PUSH1 0x20 MSTORE PUSH1 0x40 SWAP1 KECCAK256 SLOAD PUSH1 0x1 PUSH1 0x1 PUSH1 0xA0 SHL SUB AND ISZERO ISZERO SWAP1 JUMP JUMPDEST PUSH1 0x0 DUP2 DUP2 MSTORE PUSH1 0x4 PUSH1 0x20 MSTORE PUSH1 0x40 SWAP1 KECCAK256 DUP1 SLOAD PUSH1 0x1 PUSH1 0x1 PUSH1 0xA0 SHL SUB NOT AND PUSH1 0x1 PUSH1 0x1 PUSH1 0xA0 SHL SUB DUP5 AND SWAP1 DUP2 OR SWAP1 SWAP2 SSTORE DUP2 SWAP1 PUSH2 0x2779 DUP3 PUSH2 0x1344 JUMP JUMPDEST PUSH1 0x1 PUSH1 0x1 PUSH1 0xA0 SHL SUB AND PUSH32 0x8C5BE1E5EBEC7D5BD14F71427D1E84F3DD0314C0F7B2291E5B200AC8C7C3B925 PUSH1 0x40 MLOAD PUSH1 0x40 MLOAD DUP1 SWAP2 SUB SWAP1 LOG4 POP POP JUMP JUMPDEST PUSH2 0x27BB DUP3 PUSH2 0x2727 JUMP JUMPDEST PUSH2 0x281E JUMPI PUSH1 0x40 MLOAD PUSH3 0x461BCD PUSH1 0xE5 SHL DUP2 MSTORE PUSH1 0x20 PUSH1 0x4 DUP3 ADD MSTORE PUSH1 0x2E PUSH1 0x24 DUP3 ADD MSTORE PUSH32 0x45524337323155524953746F726167653A2055524920736574206F66206E6F6E PUSH1 0x44 DUP3 ADD MSTORE PUSH14 0x32BC34B9BA32B73A103A37B5B2B7 PUSH1 0x91 SHL PUSH1 0x64 DUP3 ADD MSTORE PUSH1 0x84 ADD PUSH2 0xA19 JUMP JUMPDEST PUSH1 0x0 DUP3 DUP2 MSTORE PUSH1 0x6 PUSH1 0x20 SWAP1 DUP2 MSTORE PUSH1 0x40 SWAP1 SWAP2 KECCAK256 DUP3 MLOAD PUSH2 0xB4F SWAP3 DUP5 ADD SWAP1 PUSH2 0x3714 JUMP JUMPDEST PUSH1 0x0 PUSH2 0x2848 DUP3 PUSH2 0x2727 JUMP JUMPDEST PUSH2 0x28A9 JUMPI PUSH1 0x40 MLOAD PUSH3 0x461BCD PUSH1 0xE5 SHL DUP2 MSTORE PUSH1 0x20 PUSH1 0x4 DUP3 ADD MSTORE PUSH1 0x2C PUSH1 0x24 DUP3 ADD MSTORE PUSH32 0x4552433732313A206F70657261746F7220717565727920666F72206E6F6E6578 PUSH1 0x44 DUP3 ADD MSTORE PUSH12 0x34B9BA32B73A103A37B5B2B7 PUSH1 0xA1 SHL PUSH1 0x64 DUP3 ADD MSTORE PUSH1 0x84 ADD PUSH2 0xA19 JUMP JUMPDEST PUSH1 0x0 PUSH2 0x28B4 DUP4 PUSH2 0x1344 JUMP JUMPDEST SWAP1 POP DUP1 PUSH1 0x1 PUSH1 0x1 PUSH1 0xA0 SHL SUB AND DUP5 PUSH1 0x1 PUSH1 0x1 PUSH1 0xA0 SHL SUB AND EQ DUP1 PUSH2 0x28EF JUMPI POP DUP4 PUSH1 0x1 PUSH1 0x1 PUSH1 0xA0 SHL SUB AND PUSH2 0x28E4 DUP5 PUSH2 0x9B1 JUMP JUMPDEST PUSH1 0x1 PUSH1 0x1 PUSH1 0xA0 SHL SUB AND EQ JUMPDEST DUP1 PUSH2 0x105D JUMPI POP PUSH1 0x1 PUSH1 0x1 PUSH1 0xA0 SHL SUB DUP1 DUP3 AND PUSH1 0x0 SWAP1 DUP2 MSTORE PUSH1 0x5 PUSH1 0x20 SWAP1 DUP2 MSTORE PUSH1 0x40 DUP1 DUP4 KECCAK256 SWAP4 DUP9 AND DUP4 MSTORE SWAP3 SWAP1 MSTORE KECCAK256 SLOAD PUSH1 0xFF AND PUSH2 0x105D JUMP JUMPDEST DUP3 PUSH1 0x1 PUSH1 0x1 PUSH1 0xA0 SHL SUB AND PUSH2 0x2936 DUP3 PUSH2 0x1344 JUMP JUMPDEST PUSH1 0x1 PUSH1 0x1 PUSH1 0xA0 SHL SUB AND EQ PUSH2 0x299A JUMPI PUSH1 0x40 MLOAD PUSH3 0x461BCD PUSH1 0xE5 SHL DUP2 MSTORE PUSH1 0x20 PUSH1 0x4 DUP3 ADD MSTORE PUSH1 0x25 PUSH1 0x24 DUP3 ADD MSTORE PUSH32 0x4552433732313A207472616E736665722066726F6D20696E636F727265637420 PUSH1 0x44 DUP3 ADD MSTORE PUSH5 0x37BBB732B9 PUSH1 0xD9 SHL PUSH1 0x64 DUP3 ADD MSTORE PUSH1 0x84 ADD PUSH2 0xA19 JUMP JUMPDEST PUSH1 0x1 PUSH1 0x1 PUSH1 0xA0 SHL SUB DUP3 AND PUSH2 0x29FC JUMPI PUSH1 0x40 MLOAD PUSH3 0x461BCD PUSH1 0xE5 SHL DUP2 MSTORE PUSH1 0x20 PUSH1 0x4 DUP3 ADD MSTORE PUSH1 0x24 DUP1 DUP3 ADD MSTORE PUSH32 0x4552433732313A207472616E7366657220746F20746865207A65726F20616464 PUSH1 0x44 DUP3 ADD MSTORE PUSH4 0x72657373 PUSH1 0xE0 SHL PUSH1 0x64 DUP3 ADD MSTORE PUSH1 0x84 ADD PUSH2 0xA19 JUMP JUMPDEST PUSH2 0x2A07 DUP4 DUP4 DUP4 PUSH2 0x3069 JUMP JUMPDEST PUSH2 0x2A12 PUSH1 0x0 DUP3 PUSH2 0x2744 JUMP JUMPDEST PUSH1 0x1 PUSH1 0x1 PUSH1 0xA0 SHL SUB DUP4 AND PUSH1 0x0 SWAP1 DUP2 MSTORE PUSH1 0x3 PUSH1 0x20 MSTORE PUSH1 0x40 DUP2 KECCAK256 DUP1 SLOAD PUSH1 0x1 SWAP3 SWAP1 PUSH2 0x2A3B SWAP1 DUP5 SWAP1 PUSH2 0x3E0B JUMP JUMPDEST SWAP1 SWAP2 SSTORE POP POP PUSH1 0x1 PUSH1 0x1 PUSH1 0xA0 SHL SUB DUP3 AND PUSH1 0x0 SWAP1 DUP2 MSTORE PUSH1 0x3 PUSH1 0x20 MSTORE PUSH1 0x40 DUP2 KECCAK256 DUP1 SLOAD PUSH1 0x1 SWAP3 SWAP1 PUSH2 0x2A69 SWAP1 DUP5 SWAP1 PUSH2 0x3D43 JUMP JUMPDEST SWAP1 SWAP2 SSTORE POP POP PUSH1 0x0 DUP2 DUP2 MSTORE PUSH1 0x2 PUSH1 0x20 MSTORE PUSH1 0x40 DUP1 DUP3 KECCAK256 DUP1 SLOAD PUSH1 0x1 PUSH1 0x1 PUSH1 0xA0 SHL SUB NOT AND PUSH1 0x1 PUSH1 0x1 PUSH1 0xA0 SHL SUB DUP7 DUP2 AND SWAP2 DUP3 OR SWAP1 SWAP3 SSTORE SWAP2 MLOAD DUP5 SWAP4 SWAP2 DUP8 AND SWAP2 PUSH32 0xDDF252AD1BE2C89B69C2B068FC378DAA952BA7F163C4A11628F55A4DF523B3EF SWAP2 LOG4 PUSH2 0xB4F DUP4 DUP4 DUP4 PUSH2 0x3074 JUMP JUMPDEST PUSH1 0x1 PUSH1 0x1 PUSH1 0xA0 SHL SUB DUP3 AND PUSH2 0x2B26 JUMPI PUSH1 0x40 MLOAD PUSH3 0x461BCD PUSH1 0xE5 SHL DUP2 MSTORE PUSH1 0x20 PUSH1 0x4 DUP3 ADD DUP2 SWAP1 MSTORE PUSH1 0x24 DUP3 ADD MSTORE PUSH32 0x4552433732313A206D696E7420746F20746865207A65726F2061646472657373 PUSH1 0x44 DUP3 ADD MSTORE PUSH1 0x64 ADD PUSH2 0xA19 JUMP JUMPDEST PUSH2 0x2B2F DUP2 PUSH2 0x2727 JUMP JUMPDEST ISZERO PUSH2 0x2B7C JUMPI PUSH1 0x40 MLOAD PUSH3 0x461BCD PUSH1 0xE5 SHL DUP2 MSTORE PUSH1 0x20 PUSH1 0x4 DUP3 ADD MSTORE PUSH1 0x1C PUSH1 0x24 DUP3 ADD MSTORE PUSH32 0x4552433732313A20746F6B656E20616C7265616479206D696E74656400000000 PUSH1 0x44 DUP3 ADD MSTORE PUSH1 0x64 ADD PUSH2 0xA19 JUMP JUMPDEST PUSH2 0x2B88 PUSH1 0x0 DUP4 DUP4 PUSH2 0x3069 JUMP JUMPDEST PUSH1 0x1 PUSH1 0x1 PUSH1 0xA0 SHL SUB DUP3 AND PUSH1 0x0 SWAP1 DUP2 MSTORE PUSH1 0x3 PUSH1 0x20 MSTORE PUSH1 0x40 DUP2 KECCAK256 DUP1 SLOAD PUSH1 0x1 SWAP3 SWAP1 PUSH2 0x2BB1 SWAP1 DUP5 SWAP1 PUSH2 0x3D43 JUMP JUMPDEST SWAP1 SWAP2 SSTORE POP POP PUSH1 0x0 DUP2 DUP2 MSTORE PUSH1 0x2 PUSH1 0x20 MSTORE PUSH1 0x40 DUP1 DUP3 KECCAK256 DUP1 SLOAD PUSH1 0x1 PUSH1 0x1 PUSH1 0xA0 SHL SUB NOT AND PUSH1 0x1 PUSH1 0x1 PUSH1 0xA0 SHL SUB DUP7 AND SWAP1 DUP2 OR SWAP1 SWAP2 SSTORE SWAP1 MLOAD DUP4 SWAP3 SWAP1 PUSH32 0xDDF252AD1BE2C89B69C2B068FC378DAA952BA7F163C4A11628F55A4DF523B3EF SWAP1 DUP3 SWAP1 LOG4 PUSH2 0x1BD2 PUSH1 0x0 DUP4 DUP4 PUSH2 0x3074 JUMP JUMPDEST PUSH1 0xB DUP1 SLOAD PUSH1 0x1 PUSH1 0x1 PUSH1 0xA0 SHL SUB DUP4 DUP2 AND PUSH1 0x1 PUSH1 0x1 PUSH1 0xA0 SHL SUB NOT DUP4 AND DUP2 OR SWAP1 SWAP4 SSTORE PUSH1 0x40 MLOAD SWAP2 AND SWAP2 SWAP1 DUP3 SWAP1 PUSH32 0x8BE0079C531659141344CD1FD0A4F28419497F9722A3DAAFE3B4186F6B6457E0 SWAP1 PUSH1 0x0 SWAP1 LOG3 POP POP JUMP JUMPDEST DUP2 PUSH1 0x1 PUSH1 0x1 PUSH1 0xA0 SHL SUB AND DUP4 PUSH1 0x1 PUSH1 0x1 PUSH1 0xA0 SHL SUB AND EQ ISZERO PUSH2 0x2CCB JUMPI PUSH1 0x40 MLOAD PUSH3 0x461BCD PUSH1 0xE5 SHL DUP2 MSTORE PUSH1 0x20 PUSH1 0x4 DUP3 ADD MSTORE PUSH1 0x19 PUSH1 0x24 DUP3 ADD MSTORE PUSH32 0x4552433732313A20617070726F766520746F2063616C6C657200000000000000 PUSH1 0x44 DUP3 ADD MSTORE PUSH1 0x64 ADD PUSH2 0xA19 JUMP JUMPDEST PUSH1 0x1 PUSH1 0x1 PUSH1 0xA0 SHL SUB DUP4 DUP2 AND PUSH1 0x0 DUP2 DUP2 MSTORE PUSH1 0x5 PUSH1 0x20 SWAP1 DUP2 MSTORE PUSH1 0x40 DUP1 DUP4 KECCAK256 SWAP5 DUP8 AND DUP1 DUP5 MSTORE SWAP5 DUP3 MSTORE SWAP2 DUP3 SWAP1 KECCAK256 DUP1 SLOAD PUSH1 0xFF NOT AND DUP7 ISZERO ISZERO SWAP1 DUP2 OR SWAP1 SWAP2 SSTORE SWAP2 MLOAD SWAP2 DUP3 MSTORE PUSH32 0x17307EAB39AB6107E8899845AD3D59BD9653F200F220920489CA2B5937696C31 SWAP2 ADD PUSH1 0x40 MLOAD DUP1 SWAP2 SUB SWAP1 LOG3 POP POP POP JUMP JUMPDEST PUSH2 0x2D43 DUP5 DUP5 DUP5 PUSH2 0x2923 JUMP JUMPDEST PUSH2 0x2D4F DUP5 DUP5 DUP5 DUP5 PUSH2 0x31ED JUMP JUMPDEST PUSH2 0x1C99 JUMPI PUSH1 0x40 MLOAD PUSH3 0x461BCD PUSH1 0xE5 SHL DUP2 MSTORE PUSH1 0x4 ADD PUSH2 0xA19 SWAP1 PUSH2 0x3E22 JUMP JUMPDEST PUSH1 0x0 JUMPDEST PUSH1 0x1B SLOAD DUP2 LT ISZERO PUSH2 0x1BD2 JUMPI DUP2 PUSH1 0x1B DUP3 DUP2 SLOAD DUP2 LT PUSH2 0x2D8C JUMPI PUSH2 0x2D8C PUSH2 0x3D76 JUMP JUMPDEST SWAP1 PUSH1 0x0 MSTORE PUSH1 0x20 PUSH1 0x0 KECCAK256 ADD SLOAD EQ ISZERO PUSH2 0x2E98 JUMPI PUSH1 0x0 PUSH2 0x2DC5 PUSH1 0x1B DUP4 DUP2 SLOAD DUP2 LT PUSH2 0x2DB5 JUMPI PUSH2 0x2DB5 PUSH2 0x3D76 JUMP JUMPDEST SWAP1 PUSH1 0x0 MSTORE PUSH1 0x20 PUSH1 0x0 KECCAK256 ADD SLOAD PUSH2 0x1344 JUMP JUMPDEST SWAP1 POP PUSH2 0x2DEF DUP2 ADDRESS PUSH1 0x1B DUP6 DUP2 SLOAD DUP2 LT PUSH2 0x2DDF JUMPI PUSH2 0x2DDF PUSH2 0x3D76 JUMP JUMPDEST SWAP1 PUSH1 0x0 MSTORE PUSH1 0x20 PUSH1 0x0 KECCAK256 ADD SLOAD PUSH2 0x2923 JUMP JUMPDEST PUSH1 0x40 MLOAD DUP4 SWAP1 PUSH1 0x1 PUSH1 0x1 PUSH1 0xA0 SHL SUB DUP4 AND SWAP1 PUSH32 0x5AB068FE2788C545757BCB78E3B2D842E34EC21C90F26C60E5CE7686E90B8749 SWAP1 PUSH1 0x0 SWAP1 LOG3 PUSH1 0x1B DUP1 SLOAD PUSH2 0x2E35 SWAP1 PUSH1 0x1 SWAP1 PUSH2 0x3E0B JUMP JUMPDEST DUP2 SLOAD DUP2 LT PUSH2 0x2E45 JUMPI PUSH2 0x2E45 PUSH2 0x3D76 JUMP JUMPDEST SWAP1 PUSH1 0x0 MSTORE PUSH1 0x20 PUSH1 0x0 KECCAK256 ADD SLOAD PUSH1 0x1B DUP4 DUP2 SLOAD DUP2 LT PUSH2 0x2E63 JUMPI PUSH2 0x2E63 PUSH2 0x3D76 JUMP JUMPDEST PUSH1 0x0 SWAP2 DUP3 MSTORE PUSH1 0x20 SWAP1 SWAP2 KECCAK256 ADD SSTORE PUSH1 0x1B DUP1 SLOAD DUP1 PUSH2 0x2E80 JUMPI PUSH2 0x2E80 PUSH2 0x3E74 JUMP JUMPDEST PUSH1 0x1 SWAP1 SUB DUP2 DUP2 SWAP1 PUSH1 0x0 MSTORE PUSH1 0x20 PUSH1 0x0 KECCAK256 ADD PUSH1 0x0 SWAP1 SSTORE SWAP1 SSTORE POP JUMPDEST DUP1 PUSH2 0x2EA2 DUP2 PUSH2 0x3D5B JUMP JUMPDEST SWAP2 POP POP PUSH2 0x2D6E JUMP JUMPDEST PUSH1 0x60 PUSH2 0x2EB5 DUP3 PUSH2 0x2727 JUMP JUMPDEST PUSH2 0x2F1B JUMPI PUSH1 0x40 MLOAD PUSH3 0x461BCD PUSH1 0xE5 SHL DUP2 MSTORE PUSH1 0x20 PUSH1 0x4 DUP3 ADD MSTORE PUSH1 0x31 PUSH1 0x24 DUP3 ADD MSTORE PUSH32 0x45524337323155524953746F726167653A2055524920717565727920666F7220 PUSH1 0x44 DUP3 ADD MSTORE PUSH17 0x3737B732BC34B9BA32B73A103A37B5B2B7 PUSH1 0x79 SHL PUSH1 0x64 DUP3 ADD MSTORE PUSH1 0x84 ADD PUSH2 0xA19 JUMP JUMPDEST PUSH1 0x0 DUP3 DUP2 MSTORE PUSH1 0x6 PUSH1 0x20 MSTORE PUSH1 0x40 DUP2 KECCAK256 DUP1 SLOAD PUSH2 0x2F34 SWAP1 PUSH2 0x3C6C JUMP JUMPDEST DUP1 PUSH1 0x1F ADD PUSH1 0x20 DUP1 SWAP2 DIV MUL PUSH1 0x20 ADD PUSH1 0x40 MLOAD SWAP1 DUP2 ADD PUSH1 0x40 MSTORE DUP1 SWAP3 SWAP2 SWAP1 DUP2 DUP2 MSTORE PUSH1 0x20 ADD DUP3 DUP1 SLOAD PUSH2 0x2F60 SWAP1 PUSH2 0x3C6C JUMP JUMPDEST DUP1 ISZERO PUSH2 0x2FAD JUMPI DUP1 PUSH1 0x1F LT PUSH2 0x2F82 JUMPI PUSH2 0x100 DUP1 DUP4 SLOAD DIV MUL DUP4 MSTORE SWAP2 PUSH1 0x20 ADD SWAP2 PUSH2 0x2FAD JUMP JUMPDEST DUP3 ADD SWAP2 SWAP1 PUSH1 0x0 MSTORE PUSH1 0x20 PUSH1 0x0 KECCAK256 SWAP1 JUMPDEST DUP2 SLOAD DUP2 MSTORE SWAP1 PUSH1 0x1 ADD SWAP1 PUSH1 0x20 ADD DUP1 DUP4 GT PUSH2 0x2F90 JUMPI DUP3 SWAP1 SUB PUSH1 0x1F AND DUP3 ADD SWAP2 JUMPDEST POP POP POP POP POP SWAP1 POP PUSH1 0x0 PUSH2 0x2FCB PUSH1 0x40 DUP1 MLOAD PUSH1 0x20 DUP2 ADD SWAP1 SWAP2 MSTORE PUSH1 0x0 DUP2 MSTORE SWAP1 JUMP JUMPDEST SWAP1 POP DUP1 MLOAD PUSH1 0x0 EQ ISZERO PUSH2 0x2FDE JUMPI POP SWAP3 SWAP2 POP POP JUMP JUMPDEST DUP2 MLOAD ISZERO PUSH2 0x3010 JUMPI DUP1 DUP3 PUSH1 0x40 MLOAD PUSH1 0x20 ADD PUSH2 0x2FF8 SWAP3 SWAP2 SWAP1 PUSH2 0x3E8A JUMP JUMPDEST PUSH1 0x40 MLOAD PUSH1 0x20 DUP2 DUP4 SUB SUB DUP2 MSTORE SWAP1 PUSH1 0x40 MSTORE SWAP3 POP POP POP SWAP2 SWAP1 POP JUMP JUMPDEST PUSH2 0x105D DUP5 PUSH2 0x32F7 JUMP JUMPDEST PUSH1 0x0 PUSH1 0x1 PUSH1 0x1 PUSH1 0xE0 SHL SUB NOT DUP3 AND PUSH4 0x80AC58CD PUSH1 0xE0 SHL EQ DUP1 PUSH2 0x304A JUMPI POP PUSH1 0x1 PUSH1 0x1 PUSH1 0xE0 SHL SUB NOT DUP3 AND PUSH4 0x5B5E139F PUSH1 0xE0 SHL EQ JUMPDEST DUP1 PUSH2 0x919 JUMPI POP PUSH4 0x1FFC9A7 PUSH1 0xE0 SHL PUSH1 0x1 PUSH1 0x1 PUSH1 0xE0 SHL SUB NOT DUP4 AND EQ PUSH2 0x919 JUMP JUMPDEST PUSH2 0xB4F DUP4 DUP4 DUP4 PUSH2 0x33CE JUMP JUMPDEST PUSH1 0x18 SLOAD PUSH1 0x0 DUP3 DUP2 MSTORE PUSH1 0xF PUSH1 0x20 MSTORE PUSH1 0x40 SWAP1 KECCAK256 SLOAD EQ DUP1 PUSH2 0x30A1 JUMPI POP PUSH1 0x17 SLOAD PUSH1 0x0 DUP3 DUP2 MSTORE PUSH1 0xF PUSH1 0x20 MSTORE PUSH1 0x40 SWAP1 KECCAK256 SLOAD EQ JUMPDEST ISZERO PUSH2 0xB4F JUMPI PUSH1 0xB SLOAD PUSH1 0x1 PUSH1 0x1 PUSH1 0xA0 SHL SUB DUP5 DUP2 AND SWAP2 AND EQ DUP1 ISZERO SWAP1 PUSH2 0x30D2 JUMPI POP PUSH1 0xD SLOAD PUSH1 0x1 PUSH1 0x1 PUSH1 0xA0 SHL SUB DUP5 DUP2 AND SWAP2 AND EQ ISZERO JUMPDEST DUP1 ISZERO PUSH2 0x30E6 JUMPI POP PUSH1 0x1 PUSH1 0x1 PUSH1 0xA0 SHL SUB DUP4 AND ISZERO ISZERO JUMPDEST ISZERO PUSH2 0x3194 JUMPI PUSH1 0x1 PUSH1 0x1 PUSH1 0xA0 SHL SUB DUP4 AND PUSH1 0x0 SWAP1 DUP2 MSTORE PUSH1 0x13 PUSH1 0x20 MSTORE PUSH1 0x40 SWAP1 KECCAK256 SLOAD ISZERO PUSH2 0x3173 JUMPI PUSH1 0x1 PUSH1 0x1 PUSH1 0xA0 SHL SUB DUP4 AND PUSH1 0x0 SWAP1 DUP2 MSTORE PUSH1 0x13 PUSH1 0x20 MSTORE PUSH1 0x40 SWAP1 KECCAK256 SLOAD PUSH2 0x312E SWAP1 PUSH1 0x1 SWAP1 PUSH2 0x3E0B JUMP JUMPDEST PUSH1 0x1 PUSH1 0x1 PUSH1 0xA0 SHL SUB DUP5 AND PUSH1 0x0 SWAP1 DUP2 MSTORE PUSH1 0x13 PUSH1 0x20 MSTORE PUSH1 0x40 SWAP1 KECCAK256 DUP2 SWAP1 SSTORE PUSH2 0x316E JUMPI PUSH1 0x1 PUSH1 0x1 PUSH1 0xA0 SHL SUB DUP4 AND PUSH1 0x0 SWAP1 DUP2 MSTORE PUSH1 0x12 PUSH1 0x20 MSTORE PUSH1 0x40 SWAP1 KECCAK256 DUP1 SLOAD PUSH1 0xFF NOT AND SWAP1 SSTORE JUMPDEST PUSH2 0x3194 JUMP JUMPDEST PUSH1 0x1 PUSH1 0x1 PUSH1 0xA0 SHL SUB DUP4 AND PUSH1 0x0 SWAP1 DUP2 MSTORE PUSH1 0x12 PUSH1 0x20 MSTORE PUSH1 0x40 SWAP1 KECCAK256 DUP1 SLOAD PUSH1 0xFF NOT AND SWAP1 SSTORE JUMPDEST PUSH1 0x1 PUSH1 0x1 PUSH1 0xA0 SHL SUB DUP3 AND PUSH1 0x0 SWAP1 DUP2 MSTORE PUSH1 0x12 PUSH1 0x20 SWAP1 DUP2 MSTORE PUSH1 0x40 DUP1 DUP4 KECCAK256 DUP1 SLOAD PUSH1 0xFF NOT AND PUSH1 0x1 SWAP1 DUP2 OR SWAP1 SWAP2 SSTORE PUSH1 0x13 SWAP1 SWAP3 MSTORE SWAP1 SWAP2 KECCAK256 SLOAD PUSH2 0x31CF SWAP2 PUSH2 0x3D43 JUMP JUMPDEST PUSH1 0x1 PUSH1 0x1 PUSH1 0xA0 SHL SUB DUP4 AND PUSH1 0x0 SWAP1 DUP2 MSTORE PUSH1 0x13 PUSH1 0x20 MSTORE PUSH1 0x40 SWAP1 KECCAK256 SSTORE POP POP POP JUMP JUMPDEST PUSH1 0x0 PUSH1 0x1 PUSH1 0x1 PUSH1 0xA0 SHL SUB DUP5 AND EXTCODESIZE ISZERO PUSH2 0x32EF JUMPI PUSH1 0x40 MLOAD PUSH4 0xA85BD01 PUSH1 0xE1 SHL DUP2 MSTORE PUSH1 0x1 PUSH1 0x1 PUSH1 0xA0 SHL SUB DUP6 AND SWAP1 PUSH4 0x150B7A02 SWAP1 PUSH2 0x3231 SWAP1 CALLER SWAP1 DUP10 SWAP1 DUP9 SWAP1 DUP9 SWAP1 PUSH1 0x4 ADD PUSH2 0x3EB9 JUMP JUMPDEST PUSH1 0x20 PUSH1 0x40 MLOAD DUP1 DUP4 SUB DUP2 PUSH1 0x0 DUP8 DUP1 EXTCODESIZE ISZERO DUP1 ISZERO PUSH2 0x324B JUMPI PUSH1 0x0 DUP1 REVERT JUMPDEST POP GAS CALL SWAP3 POP POP POP DUP1 ISZERO PUSH2 0x327B JUMPI POP PUSH1 0x40 DUP1 MLOAD PUSH1 0x1F RETURNDATASIZE SWAP1 DUP2 ADD PUSH1 0x1F NOT AND DUP3 ADD SWAP1 SWAP3 MSTORE PUSH2 0x3278 SWAP2 DUP2 ADD SWAP1 PUSH2 0x3EF6 JUMP JUMPDEST PUSH1 0x1 JUMPDEST PUSH2 0x32D5 JUMPI RETURNDATASIZE DUP1 DUP1 ISZERO PUSH2 0x32A9 JUMPI PUSH1 0x40 MLOAD SWAP2 POP PUSH1 0x1F NOT PUSH1 0x3F RETURNDATASIZE ADD AND DUP3 ADD PUSH1 0x40 MSTORE RETURNDATASIZE DUP3 MSTORE RETURNDATASIZE PUSH1 0x0 PUSH1 0x20 DUP5 ADD RETURNDATACOPY PUSH2 0x32AE JUMP JUMPDEST PUSH1 0x60 SWAP2 POP JUMPDEST POP DUP1 MLOAD PUSH2 0x32CD JUMPI PUSH1 0x40 MLOAD PUSH3 0x461BCD PUSH1 0xE5 SHL DUP2 MSTORE PUSH1 0x4 ADD PUSH2 0xA19 SWAP1 PUSH2 0x3E22 JUMP JUMPDEST DUP1 MLOAD DUP2 PUSH1 0x20 ADD REVERT JUMPDEST PUSH1 0x1 PUSH1 0x1 PUSH1 0xE0 SHL SUB NOT AND PUSH4 0xA85BD01 PUSH1 0xE1 SHL EQ SWAP1 POP PUSH2 0x105D JUMP JUMPDEST POP PUSH1 0x1 PUSH2 0x105D JUMP JUMPDEST PUSH1 0x60 PUSH2 0x3302 DUP3 PUSH2 0x2727 JUMP JUMPDEST PUSH2 0x3366 JUMPI PUSH1 0x40 MLOAD PUSH3 0x461BCD PUSH1 0xE5 SHL DUP2 MSTORE PUSH1 0x20 PUSH1 0x4 DUP3 ADD MSTORE PUSH1 0x2F PUSH1 0x24 DUP3 ADD MSTORE PUSH32 0x4552433732314D657461646174613A2055524920717565727920666F72206E6F PUSH1 0x44 DUP3 ADD MSTORE PUSH15 0x3732BC34B9BA32B73A103A37B5B2B7 PUSH1 0x89 SHL PUSH1 0x64 DUP3 ADD MSTORE PUSH1 0x84 ADD PUSH2 0xA19 JUMP JUMPDEST PUSH1 0x0 PUSH2 0x337D PUSH1 0x40 DUP1 MLOAD PUSH1 0x20 DUP2 ADD SWAP1 SWAP2 MSTORE PUSH1 0x0 DUP2 MSTORE SWAP1 JUMP JUMPDEST SWAP1 POP PUSH1 0x0 DUP2 MLOAD GT PUSH2 0x339D JUMPI PUSH1 0x40 MLOAD DUP1 PUSH1 0x20 ADD PUSH1 0x40 MSTORE DUP1 PUSH1 0x0 DUP2 MSTORE POP PUSH2 0x2093 JUMP JUMPDEST DUP1 PUSH2 0x33A7 DUP5 PUSH2 0x3486 JUMP JUMPDEST PUSH1 0x40 MLOAD PUSH1 0x20 ADD PUSH2 0x33B8 SWAP3 SWAP2 SWAP1 PUSH2 0x3E8A JUMP JUMPDEST PUSH1 0x40 MLOAD PUSH1 0x20 DUP2 DUP4 SUB SUB DUP2 MSTORE SWAP1 PUSH1 0x40 MSTORE SWAP4 SWAP3 POP POP POP JUMP JUMPDEST PUSH1 0x1 PUSH1 0x1 PUSH1 0xA0 SHL SUB DUP4 AND PUSH2 0x3429 JUMPI PUSH2 0x3424 DUP2 PUSH1 0x9 DUP1 SLOAD PUSH1 0x0 DUP4 DUP2 MSTORE PUSH1 0xA PUSH1 0x20 MSTORE PUSH1 0x40 DUP2 KECCAK256 DUP3 SWAP1 SSTORE PUSH1 0x1 DUP3 ADD DUP4 SSTORE SWAP2 SWAP1 SWAP2 MSTORE PUSH32 0x6E1540171B6C0C960B71A7020D9F60077F6AF931A8BBF590DA0223DACF75C7AF ADD SSTORE JUMP JUMPDEST PUSH2 0x344C JUMP JUMPDEST DUP2 PUSH1 0x1 PUSH1 0x1 PUSH1 0xA0 SHL SUB AND DUP4 PUSH1 0x1 PUSH1 0x1 PUSH1 0xA0 SHL SUB AND EQ PUSH2 0x344C JUMPI PUSH2 0x344C DUP4 DUP3 PUSH2 0x3584 JUMP JUMPDEST PUSH1 0x1 PUSH1 0x1 PUSH1 0xA0 SHL SUB DUP3 AND PUSH2 0x3463 JUMPI PUSH2 0xB4F DUP2 PUSH2 0x3621 JUMP JUMPDEST DUP3 PUSH1 0x1 PUSH1 0x1 PUSH1 0xA0 SHL SUB AND DUP3 PUSH1 0x1 PUSH1 0x1 PUSH1 0xA0 SHL SUB AND EQ PUSH2 0xB4F JUMPI PUSH2 0xB4F DUP3 DUP3 PUSH2 0x36D0 JUMP JUMPDEST PUSH1 0x60 DUP2 PUSH2 0x34AA JUMPI POP POP PUSH1 0x40 DUP1 MLOAD DUP1 DUP3 ADD SWAP1 SWAP2 MSTORE PUSH1 0x1 DUP2 MSTORE PUSH1 0x3 PUSH1 0xFC SHL PUSH1 0x20 DUP3 ADD MSTORE SWAP1 JUMP JUMPDEST DUP2 PUSH1 0x0 JUMPDEST DUP2 ISZERO PUSH2 0x34D4 JUMPI DUP1 PUSH2 0x34BE DUP2 PUSH2 0x3D5B JUMP JUMPDEST SWAP2 POP PUSH2 0x34CD SWAP1 POP PUSH1 0xA DUP4 PUSH2 0x3DC1 JUMP JUMPDEST SWAP2 POP PUSH2 0x34AE JUMP JUMPDEST PUSH1 0x0 DUP2 PUSH8 0xFFFFFFFFFFFFFFFF DUP2 GT ISZERO PUSH2 0x34EF JUMPI PUSH2 0x34EF PUSH2 0x38C5 JUMP JUMPDEST PUSH1 0x40 MLOAD SWAP1 DUP1 DUP3 MSTORE DUP1 PUSH1 0x1F ADD PUSH1 0x1F NOT AND PUSH1 0x20 ADD DUP3 ADD PUSH1 0x40 MSTORE DUP1 ISZERO PUSH2 0x3519 JUMPI PUSH1 0x20 DUP3 ADD DUP2 DUP1 CALLDATASIZE DUP4 CALLDATACOPY ADD SWAP1 POP JUMPDEST POP SWAP1 POP JUMPDEST DUP5 ISZERO PUSH2 0x105D JUMPI PUSH2 0x352E PUSH1 0x1 DUP4 PUSH2 0x3E0B JUMP JUMPDEST SWAP2 POP PUSH2 0x353B PUSH1 0xA DUP7 PUSH2 0x3F13 JUMP JUMPDEST PUSH2 0x3546 SWAP1 PUSH1 0x30 PUSH2 0x3D43 JUMP JUMPDEST PUSH1 0xF8 SHL DUP2 DUP4 DUP2 MLOAD DUP2 LT PUSH2 0x355B JUMPI PUSH2 0x355B PUSH2 0x3D76 JUMP JUMPDEST PUSH1 0x20 ADD ADD SWAP1 PUSH1 0x1 PUSH1 0x1 PUSH1 0xF8 SHL SUB NOT AND SWAP1 DUP2 PUSH1 0x0 BYTE SWAP1 MSTORE8 POP PUSH2 0x357D PUSH1 0xA DUP7 PUSH2 0x3DC1 JUMP JUMPDEST SWAP5 POP PUSH2 0x351D JUMP JUMPDEST PUSH1 0x0 PUSH1 0x1 PUSH2 0x3591 DUP5 PUSH2 0x1442 JUMP JUMPDEST PUSH2 0x359B SWAP2 SWAP1 PUSH2 0x3E0B JUMP JUMPDEST PUSH1 0x0 DUP4 DUP2 MSTORE PUSH1 0x8 PUSH1 0x20 MSTORE PUSH1 0x40 SWAP1 KECCAK256 SLOAD SWAP1 SWAP2 POP DUP1 DUP3 EQ PUSH2 0x35EE JUMPI PUSH1 0x1 PUSH1 0x1 PUSH1 0xA0 SHL SUB DUP5 AND PUSH1 0x0 SWAP1 DUP2 MSTORE PUSH1 0x7 PUSH1 0x20 SWAP1 DUP2 MSTORE PUSH1 0x40 DUP1 DUP4 KECCAK256 DUP6 DUP5 MSTORE DUP3 MSTORE DUP1 DUP4 KECCAK256 SLOAD DUP5 DUP5 MSTORE DUP2 DUP5 KECCAK256 DUP2 SWAP1 SSTORE DUP4 MSTORE PUSH1 0x8 SWAP1 SWAP2 MSTORE SWAP1 KECCAK256 DUP2 SWAP1 SSTORE JUMPDEST POP PUSH1 0x0 SWAP2 DUP3 MSTORE PUSH1 0x8 PUSH1 0x20 SWAP1 DUP2 MSTORE PUSH1 0x40 DUP1 DUP5 KECCAK256 DUP5 SWAP1 SSTORE PUSH1 0x1 PUSH1 0x1 PUSH1 0xA0 SHL SUB SWAP1 SWAP5 AND DUP4 MSTORE PUSH1 0x7 DUP2 MSTORE DUP4 DUP4 KECCAK256 SWAP2 DUP4 MSTORE MSTORE SWAP1 DUP2 KECCAK256 SSTORE JUMP JUMPDEST PUSH1 0x9 SLOAD PUSH1 0x0 SWAP1 PUSH2 0x3633 SWAP1 PUSH1 0x1 SWAP1 PUSH2 0x3E0B JUMP JUMPDEST PUSH1 0x0 DUP4 DUP2 MSTORE PUSH1 0xA PUSH1 0x20 MSTORE PUSH1 0x40 DUP2 KECCAK256 SLOAD PUSH1 0x9 DUP1 SLOAD SWAP4 SWAP5 POP SWAP1 SWAP3 DUP5 SWAP1 DUP2 LT PUSH2 0x365B JUMPI PUSH2 0x365B PUSH2 0x3D76 JUMP JUMPDEST SWAP1 PUSH1 0x0 MSTORE PUSH1 0x20 PUSH1 0x0 KECCAK256 ADD SLOAD SWAP1 POP DUP1 PUSH1 0x9 DUP4 DUP2 SLOAD DUP2 LT PUSH2 0x367C JUMPI PUSH2 0x367C PUSH2 0x3D76 JUMP JUMPDEST PUSH1 0x0 SWAP2 DUP3 MSTORE PUSH1 0x20 DUP1 DUP4 KECCAK256 SWAP1 SWAP2 ADD SWAP3 SWAP1 SWAP3 SSTORE DUP3 DUP2 MSTORE PUSH1 0xA SWAP1 SWAP2 MSTORE PUSH1 0x40 DUP1 DUP3 KECCAK256 DUP5 SWAP1 SSTORE DUP6 DUP3 MSTORE DUP2 KECCAK256 SSTORE PUSH1 0x9 DUP1 SLOAD DUP1 PUSH2 0x36B4 JUMPI PUSH2 0x36B4 PUSH2 0x3E74 JUMP JUMPDEST PUSH1 0x1 SWAP1 SUB DUP2 DUP2 SWAP1 PUSH1 0x0 MSTORE PUSH1 0x20 PUSH1 0x0 KECCAK256 ADD PUSH1 0x0 SWAP1 SSTORE SWAP1 SSTORE POP POP POP POP JUMP JUMPDEST PUSH1 0x0 PUSH2 0x36DB DUP4 PUSH2 0x1442 JUMP JUMPDEST PUSH1 0x1 PUSH1 0x1 PUSH1 0xA0 SHL SUB SWAP1 SWAP4 AND PUSH1 0x0 SWAP1 DUP2 MSTORE PUSH1 0x7 PUSH1 0x20 SWAP1 DUP2 MSTORE PUSH1 0x40 DUP1 DUP4 KECCAK256 DUP7 DUP5 MSTORE DUP3 MSTORE DUP1 DUP4 KECCAK256 DUP6 SWAP1 SSTORE SWAP4 DUP3 MSTORE PUSH1 0x8 SWAP1 MSTORE SWAP2 SWAP1 SWAP2 KECCAK256 SWAP2 SWAP1 SWAP2 SSTORE POP JUMP JUMPDEST DUP3 DUP1 SLOAD PUSH2 0x3720 SWAP1 PUSH2 0x3C6C JUMP JUMPDEST SWAP1 PUSH1 0x0 MSTORE PUSH1 0x20 PUSH1 0x0 KECCAK256 SWAP1 PUSH1 0x1F ADD PUSH1 0x20 SWAP1 DIV DUP2 ADD SWAP3 DUP3 PUSH2 0x3742 JUMPI PUSH1 0x0 DUP6 SSTORE PUSH2 0x3788 JUMP JUMPDEST DUP3 PUSH1 0x1F LT PUSH2 0x375B JUMPI DUP1 MLOAD PUSH1 0xFF NOT AND DUP4 DUP1 ADD OR DUP6 SSTORE PUSH2 0x3788 JUMP JUMPDEST DUP3 DUP1 ADD PUSH1 0x1 ADD DUP6 SSTORE DUP3 ISZERO PUSH2 0x3788 JUMPI SWAP2 DUP3 ADD JUMPDEST DUP3 DUP2 GT ISZERO PUSH2 0x3788 JUMPI DUP3 MLOAD DUP3 SSTORE SWAP2 PUSH1 0x20 ADD SWAP2 SWAP1 PUSH1 0x1 ADD SWAP1 PUSH2 0x376D JUMP JUMPDEST POP PUSH2 0x3794 SWAP3 SWAP2 POP PUSH2 0x3798 JUMP JUMPDEST POP SWAP1 JUMP JUMPDEST JUMPDEST DUP1 DUP3 GT ISZERO PUSH2 0x3794 JUMPI PUSH1 0x0 DUP2 SSTORE PUSH1 0x1 ADD PUSH2 0x3799 JUMP JUMPDEST PUSH1 0x1 PUSH1 0x1 PUSH1 0xE0 SHL SUB NOT DUP2 AND DUP2 EQ PUSH2 0x21E0 JUMPI PUSH1 0x0 DUP1 REVERT JUMPDEST PUSH1 0x0 PUSH1 0x20 DUP3 DUP5 SUB SLT ISZERO PUSH2 0x37D5 JUMPI PUSH1 0x0 DUP1 REVERT JUMPDEST DUP2 CALLDATALOAD PUSH2 0x2093 DUP2 PUSH2 0x37AD JUMP JUMPDEST PUSH1 0x0 JUMPDEST DUP4 DUP2 LT ISZERO PUSH2 0x37FB JUMPI DUP2 DUP2 ADD MLOAD DUP4 DUP3 ADD MSTORE PUSH1 0x20 ADD PUSH2 0x37E3 JUMP JUMPDEST DUP4 DUP2 GT ISZERO PUSH2 0x1C99 JUMPI POP POP PUSH1 0x0 SWAP2 ADD MSTORE JUMP JUMPDEST PUSH1 0x0 DUP2 MLOAD DUP1 DUP5 MSTORE PUSH2 0x3824 DUP2 PUSH1 0x20 DUP7 ADD PUSH1 0x20 DUP7 ADD PUSH2 0x37E0 JUMP JUMPDEST PUSH1 0x1F ADD PUSH1 0x1F NOT AND SWAP3 SWAP1 SWAP3 ADD PUSH1 0x20 ADD SWAP3 SWAP2 POP POP JUMP JUMPDEST PUSH1 0x20 DUP2 MSTORE PUSH1 0x0 PUSH2 0x2093 PUSH1 0x20 DUP4 ADD DUP5 PUSH2 0x380C JUMP JUMPDEST PUSH1 0x0 PUSH1 0x20 DUP3 DUP5 SUB SLT ISZERO PUSH2 0x385D JUMPI PUSH1 0x0 DUP1 REVERT JUMPDEST POP CALLDATALOAD SWAP2 SWAP1 POP JUMP JUMPDEST DUP1 CALLDATALOAD PUSH1 0x1 PUSH1 0x1 PUSH1 0xA0 SHL SUB DUP2 AND DUP2 EQ PUSH2 0x387B JUMPI PUSH1 0x0 DUP1 REVERT JUMPDEST SWAP2 SWAP1 POP JUMP JUMPDEST PUSH1 0x0 DUP1 PUSH1 0x40 DUP4 DUP6 SUB SLT ISZERO PUSH2 0x3893 JUMPI PUSH1 0x0 DUP1 REVERT JUMPDEST PUSH2 0x389C DUP4 PUSH2 0x3864 JUMP JUMPDEST SWAP5 PUSH1 0x20 SWAP4 SWAP1 SWAP4 ADD CALLDATALOAD SWAP4 POP POP POP JUMP JUMPDEST PUSH1 0x0 PUSH1 0x20 DUP3 DUP5 SUB SLT ISZERO PUSH2 0x38BC JUMPI PUSH1 0x0 DUP1 REVERT JUMPDEST PUSH2 0x2093 DUP3 PUSH2 0x3864 JUMP JUMPDEST PUSH4 0x4E487B71 PUSH1 0xE0 SHL PUSH1 0x0 MSTORE PUSH1 0x41 PUSH1 0x4 MSTORE PUSH1 0x24 PUSH1 0x0 REVERT JUMPDEST PUSH1 0x0 PUSH8 0xFFFFFFFFFFFFFFFF DUP1 DUP5 GT ISZERO PUSH2 0x38F6 JUMPI PUSH2 0x38F6 PUSH2 0x38C5 JUMP JUMPDEST PUSH1 0x40 MLOAD PUSH1 0x1F DUP6 ADD PUSH1 0x1F NOT SWAP1 DUP2 AND PUSH1 0x3F ADD AND DUP2 ADD SWAP1 DUP3 DUP3 GT DUP2 DUP4 LT OR ISZERO PUSH2 0x391E JUMPI PUSH2 0x391E PUSH2 0x38C5 JUMP JUMPDEST DUP2 PUSH1 0x40 MSTORE DUP1 SWAP4 POP DUP6 DUP2 MSTORE DUP7 DUP7 DUP7 ADD GT ISZERO PUSH2 0x3937 JUMPI PUSH1 0x0 DUP1 REVERT JUMPDEST DUP6 DUP6 PUSH1 0x20 DUP4 ADD CALLDATACOPY PUSH1 0x0 PUSH1 0x20 DUP8 DUP4 ADD ADD MSTORE POP POP POP SWAP4 SWAP3 POP POP POP JUMP JUMPDEST PUSH1 0x0 DUP3 PUSH1 0x1F DUP4 ADD SLT PUSH2 0x3962 JUMPI PUSH1 0x0 DUP1 REVERT JUMPDEST PUSH2 0x2093 DUP4 DUP4 CALLDATALOAD PUSH1 0x20 DUP6 ADD PUSH2 0x38DB JUMP JUMPDEST PUSH1 0x0 DUP1 PUSH1 0x40 DUP4 DUP6 SUB SLT ISZERO PUSH2 0x3984 JUMPI PUSH1 0x0 DUP1 REVERT JUMPDEST DUP3 CALLDATALOAD SWAP2 POP PUSH1 0x20 DUP4 ADD CALLDATALOAD PUSH8 0xFFFFFFFFFFFFFFFF DUP2 GT ISZERO PUSH2 0x39A2 JUMPI PUSH1 0x0 DUP1 REVERT JUMPDEST PUSH2 0x39AE DUP6 DUP3 DUP7 ADD PUSH2 0x3951 JUMP JUMPDEST SWAP2 POP POP SWAP3 POP SWAP3 SWAP1 POP JUMP JUMPDEST PUSH1 0x0 DUP1 PUSH1 0x40 DUP4 DUP6 SUB SLT ISZERO PUSH2 0x39CB JUMPI PUSH1 0x0 DUP1 REVERT JUMPDEST POP POP DUP1 CALLDATALOAD SWAP3 PUSH1 0x20 SWAP1 SWAP2 ADD CALLDATALOAD SWAP2 POP JUMP JUMPDEST PUSH1 0x0 DUP1 PUSH1 0x0 PUSH1 0x60 DUP5 DUP7 SUB SLT ISZERO PUSH2 0x39EF JUMPI PUSH1 0x0 DUP1 REVERT JUMPDEST PUSH2 0x39F8 DUP5 PUSH2 0x3864 JUMP JUMPDEST SWAP3 POP PUSH2 0x3A06 PUSH1 0x20 DUP6 ADD PUSH2 0x3864 JUMP JUMPDEST SWAP2 POP PUSH1 0x40 DUP5 ADD CALLDATALOAD SWAP1 POP SWAP3 POP SWAP3 POP SWAP3 JUMP JUMPDEST PUSH1 0x0 PUSH1 0x20 DUP1 DUP4 ADD DUP2 DUP5 MSTORE DUP1 DUP6 MLOAD DUP1 DUP4 MSTORE PUSH1 0x40 DUP7 ADD SWAP2 POP PUSH1 0x40 DUP2 PUSH1 0x5 SHL DUP8 ADD ADD SWAP3 POP DUP4 DUP8 ADD PUSH1 0x0 JUMPDEST DUP3 DUP2 LT ISZERO PUSH2 0x3A6B JUMPI PUSH1 0x3F NOT DUP9 DUP7 SUB ADD DUP5 MSTORE PUSH2 0x3A59 DUP6 DUP4 MLOAD PUSH2 0x380C JUMP JUMPDEST SWAP5 POP SWAP3 DUP6 ADD SWAP3 SWAP1 DUP6 ADD SWAP1 PUSH1 0x1 ADD PUSH2 0x3A3D JUMP JUMPDEST POP SWAP3 SWAP8 SWAP7 POP POP POP POP POP POP POP JUMP JUMPDEST PUSH1 0x0 DUP1 PUSH1 0x0 DUP1 PUSH1 0x80 DUP6 DUP8 SUB SLT ISZERO PUSH2 0x3A8E JUMPI PUSH1 0x0 DUP1 REVERT JUMPDEST DUP5 CALLDATALOAD PUSH8 0xFFFFFFFFFFFFFFFF DUP2 GT ISZERO PUSH2 0x3AA5 JUMPI PUSH1 0x0 DUP1 REVERT JUMPDEST PUSH2 0x3AB1 DUP8 DUP3 DUP9 ADD PUSH2 0x3951 JUMP JUMPDEST SWAP8 PUSH1 0x20 DUP8 ADD CALLDATALOAD SWAP8 POP PUSH1 0x40 DUP8 ADD CALLDATALOAD SWAP7 PUSH1 0x60 ADD CALLDATALOAD SWAP6 POP SWAP4 POP POP POP POP JUMP JUMPDEST PUSH1 0x20 DUP1 DUP3 MSTORE DUP3 MLOAD DUP3 DUP3 ADD DUP2 SWAP1 MSTORE PUSH1 0x0 SWAP2 SWAP1 DUP5 DUP3 ADD SWAP1 PUSH1 0x40 DUP6 ADD SWAP1 DUP5 JUMPDEST DUP2 DUP2 LT ISZERO PUSH2 0x3B04 JUMPI DUP4 MLOAD DUP4 MSTORE SWAP3 DUP5 ADD SWAP3 SWAP2 DUP5 ADD SWAP2 PUSH1 0x1 ADD PUSH2 0x3AE8 JUMP JUMPDEST POP SWAP1 SWAP7 SWAP6 POP POP POP POP POP POP JUMP JUMPDEST PUSH1 0x0 PUSH1 0x20 DUP3 DUP5 SUB SLT ISZERO PUSH2 0x3B22 JUMPI PUSH1 0x0 DUP1 REVERT JUMPDEST DUP2 CALLDATALOAD PUSH8 0xFFFFFFFFFFFFFFFF DUP2 GT ISZERO PUSH2 0x3B39 JUMPI PUSH1 0x0 DUP1 REVERT JUMPDEST PUSH2 0x105D DUP5 DUP3 DUP6 ADD PUSH2 0x3951 JUMP JUMPDEST DUP1 ISZERO ISZERO DUP2 EQ PUSH2 0x21E0 JUMPI PUSH1 0x0 DUP1 REVERT JUMPDEST PUSH1 0x0 DUP1 PUSH1 0x40 DUP4 DUP6 SUB SLT ISZERO PUSH2 0x3B66 JUMPI PUSH1 0x0 DUP1 REVERT JUMPDEST PUSH2 0x3B6F DUP4 PUSH2 0x3864 JUMP JUMPDEST SWAP2 POP PUSH1 0x20 DUP4 ADD CALLDATALOAD PUSH2 0x3B7F DUP2 PUSH2 0x3B45 JUMP JUMPDEST DUP1 SWAP2 POP POP SWAP3 POP SWAP3 SWAP1 POP JUMP JUMPDEST PUSH1 0x0 DUP1 PUSH1 0x0 DUP1 PUSH1 0x80 DUP6 DUP8 SUB SLT ISZERO PUSH2 0x3BA0 JUMPI PUSH1 0x0 DUP1 REVERT JUMPDEST PUSH2 0x3BA9 DUP6 PUSH2 0x3864 JUMP JUMPDEST SWAP4 POP PUSH2 0x3BB7 PUSH1 0x20 DUP7 ADD PUSH2 0x3864 JUMP JUMPDEST SWAP3 POP PUSH1 0x40 DUP6 ADD CALLDATALOAD SWAP2 POP PUSH1 0x60 DUP6 ADD CALLDATALOAD PUSH8 0xFFFFFFFFFFFFFFFF DUP2 GT ISZERO PUSH2 0x3BDA JUMPI PUSH1 0x0 DUP1 REVERT JUMPDEST DUP6 ADD PUSH1 0x1F DUP2 ADD DUP8 SGT PUSH2 0x3BEB JUMPI PUSH1 0x0 DUP1 REVERT JUMPDEST PUSH2 0x3BFA DUP8 DUP3 CALLDATALOAD PUSH1 0x20 DUP5 ADD PUSH2 0x38DB JUMP JUMPDEST SWAP2 POP POP SWAP3 SWAP6 SWAP2 SWAP5 POP SWAP3 POP JUMP JUMPDEST PUSH1 0x0 DUP1 PUSH1 0x0 PUSH1 0x60 DUP5 DUP7 SUB SLT ISZERO PUSH2 0x3C1B JUMPI PUSH1 0x0 DUP1 REVERT JUMPDEST PUSH2 0x3C24 DUP5 PUSH2 0x3864 JUMP JUMPDEST SWAP6 PUSH1 0x20 DUP6 ADD CALLDATALOAD SWAP6 POP PUSH1 0x40 SWAP1 SWAP5 ADD CALLDATALOAD SWAP4 SWAP3 POP POP POP JUMP JUMPDEST PUSH1 0x0 DUP1 PUSH1 0x40 DUP4 DUP6 SUB SLT ISZERO PUSH2 0x3C4C JUMPI PUSH1 0x0 DUP1 REVERT JUMPDEST PUSH2 0x3C55 DUP4 PUSH2 0x3864 JUMP JUMPDEST SWAP2 POP PUSH2 0x3C63 PUSH1 0x20 DUP5 ADD PUSH2 0x3864 JUMP JUMPDEST SWAP1 POP SWAP3 POP SWAP3 SWAP1 POP JUMP JUMPDEST PUSH1 0x1 DUP2 DUP2 SHR SWAP1 DUP3 AND DUP1 PUSH2 0x3C80 JUMPI PUSH1 0x7F DUP3 AND SWAP2 POP JUMPDEST PUSH1 0x20 DUP3 LT DUP2 EQ ISZERO PUSH2 0x3CA1 JUMPI PUSH4 0x4E487B71 PUSH1 0xE0 SHL PUSH1 0x0 MSTORE PUSH1 0x22 PUSH1 0x4 MSTORE PUSH1 0x24 PUSH1 0x0 REVERT JUMPDEST POP SWAP2 SWAP1 POP JUMP JUMPDEST PUSH1 0x20 DUP1 DUP3 MSTORE DUP2 DUP2 ADD MSTORE PUSH32 0x4F776E61626C653A2063616C6C6572206973206E6F7420746865206F776E6572 PUSH1 0x40 DUP3 ADD MSTORE PUSH1 0x60 ADD SWAP1 JUMP JUMPDEST PUSH1 0x20 DUP1 DUP3 MSTORE PUSH1 0x31 SWAP1 DUP3 ADD MSTORE PUSH32 0x4552433732313A207472616E736665722063616C6C6572206973206E6F74206F PUSH1 0x40 DUP3 ADD MSTORE PUSH17 0x1DDB995C881B9BDC88185C1C1C9BDD9959 PUSH1 0x7A SHL PUSH1 0x60 DUP3 ADD MSTORE PUSH1 0x80 ADD SWAP1 JUMP JUMPDEST PUSH4 0x4E487B71 PUSH1 0xE0 SHL PUSH1 0x0 MSTORE PUSH1 0x11 PUSH1 0x4 MSTORE PUSH1 0x24 PUSH1 0x0 REVERT JUMPDEST PUSH1 0x0 DUP3 NOT DUP3 GT ISZERO PUSH2 0x3D56 JUMPI PUSH2 0x3D56 PUSH2 0x3D2D JUMP JUMPDEST POP ADD SWAP1 JUMP JUMPDEST PUSH1 0x0 PUSH1 0x0 NOT DUP3 EQ ISZERO PUSH2 0x3D6F JUMPI PUSH2 0x3D6F PUSH2 0x3D2D JUMP JUMPDEST POP PUSH1 0x1 ADD SWAP1 JUMP JUMPDEST PUSH4 0x4E487B71 PUSH1 0xE0 SHL PUSH1 0x0 MSTORE PUSH1 0x32 PUSH1 0x4 MSTORE PUSH1 0x24 PUSH1 0x0 REVERT JUMPDEST PUSH1 0x0 DUP2 PUSH1 0x0 NOT DIV DUP4 GT DUP3 ISZERO ISZERO AND ISZERO PUSH2 0x3DA6 JUMPI PUSH2 0x3DA6 PUSH2 0x3D2D JUMP JUMPDEST POP MUL SWAP1 JUMP JUMPDEST PUSH4 0x4E487B71 PUSH1 0xE0 SHL PUSH1 0x0 MSTORE PUSH1 0x12 PUSH1 0x4 MSTORE PUSH1 0x24 PUSH1 0x0 REVERT JUMPDEST PUSH1 0x0 DUP3 PUSH2 0x3DD0 JUMPI PUSH2 0x3DD0 PUSH2 0x3DAB JUMP JUMPDEST POP DIV SWAP1 JUMP JUMPDEST PUSH1 0x0 PUSH1 0x20 DUP3 DUP5 SUB SLT ISZERO PUSH2 0x3DE7 JUMPI PUSH1 0x0 DUP1 REVERT JUMPDEST POP MLOAD SWAP2 SWAP1 POP JUMP JUMPDEST PUSH1 0x0 PUSH1 0x20 DUP3 DUP5 SUB SLT ISZERO PUSH2 0x3E00 JUMPI PUSH1 0x0 DUP1 REVERT JUMPDEST DUP2 MLOAD PUSH2 0x2093 DUP2 PUSH2 0x3B45 JUMP JUMPDEST PUSH1 0x0 DUP3 DUP3 LT ISZERO PUSH2 0x3E1D JUMPI PUSH2 0x3E1D PUSH2 0x3D2D JUMP JUMPDEST POP SUB SWAP1 JUMP JUMPDEST PUSH1 0x20 DUP1 DUP3 MSTORE PUSH1 0x32 SWAP1 DUP3 ADD MSTORE PUSH32 0x4552433732313A207472616E7366657220746F206E6F6E204552433732315265 PUSH1 0x40 DUP3 ADD MSTORE PUSH18 0x31B2B4BB32B91034B6B83632B6B2B73A32B9 PUSH1 0x71 SHL PUSH1 0x60 DUP3 ADD MSTORE PUSH1 0x80 ADD SWAP1 JUMP JUMPDEST PUSH4 0x4E487B71 PUSH1 0xE0 SHL PUSH1 0x0 MSTORE PUSH1 0x31 PUSH1 0x4 MSTORE PUSH1 0x24 PUSH1 0x0 REVERT JUMPDEST PUSH1 0x0 DUP4 MLOAD PUSH2 0x3E9C DUP2 DUP5 PUSH1 0x20 DUP9 ADD PUSH2 0x37E0 JUMP JUMPDEST DUP4 MLOAD SWAP1 DUP4 ADD SWAP1 PUSH2 0x3EB0 DUP2 DUP4 PUSH1 0x20 DUP9 ADD PUSH2 0x37E0 JUMP JUMPDEST ADD SWAP5 SWAP4 POP POP POP POP JUMP JUMPDEST PUSH1 0x1 PUSH1 0x1 PUSH1 0xA0 SHL SUB DUP6 DUP2 AND DUP3 MSTORE DUP5 AND PUSH1 0x20 DUP3 ADD MSTORE PUSH1 0x40 DUP2 ADD DUP4 SWAP1 MSTORE PUSH1 0x80 PUSH1 0x60 DUP3 ADD DUP2 SWAP1 MSTORE PUSH1 0x0 SWAP1 PUSH2 0x3EEC SWAP1 DUP4 ADD DUP5 PUSH2 0x380C JUMP JUMPDEST SWAP7 SWAP6 POP POP POP POP POP POP JUMP JUMPDEST PUSH1 0x0 PUSH1 0x20 DUP3 DUP5 SUB SLT ISZERO PUSH2 0x3F08 JUMPI PUSH1 0x0 DUP1 REVERT JUMPDEST DUP2 MLOAD PUSH2 0x2093 DUP2 PUSH2 0x37AD JUMP JUMPDEST PUSH1 0x0 DUP3 PUSH2 0x3F22 JUMPI PUSH2 0x3F22 PUSH2 0x3DAB JUMP JUMPDEST POP MOD SWAP1 JUMP INVALID LOG2 PUSH5 0x6970667358 0x22 SLT KECCAK256 0xF6 DIFFICULTY 0x21 SAR EXTCODESIZE SLT 0xE5 LOG0 0x5E 0xDC 0xB2 SELFBALANCE 0x5C BASEFEE CREATE DUP9 0xC7 CREATE2 GASPRICE DUP5 0xF SGT 0xB9 CHAINID PUSH7 0x80BE3FE6EB3C9A PUSH5 0x736F6C6343 STOP ADDMOD ADDMOD STOP CALLER ",
  "sha1": "c90554898f201205f9fa7e903f72a6adf367b20a",
  "source": "// SPDX-License-Identifier: MIT\npragma solidity 0.8.8;\n\nimport \"@openzeppelin/contracts/utils/Counters.sol\";\nimport \"@openzeppelin/contracts/token/ERC721/extensions/ERC721URIStorage.sol\";\nimport \"@openzeppelin/contracts/token/ERC721/extensions/ERC721Enumerable.sol\";\nimport \"@openzeppelin/contracts/token/ERC721/ERC721.sol\";\nimport \"@openzeppelin/contracts/access/Ownable.sol\";\nimport \"@openzeppelin/contracts/token/ERC20/IERC20.sol\";\n\n/**\n * @title Cardinal House NFT Contract\n * @dev NFT contract that will be used with the marketplace contract\n */\ncontract CardinalNFT is ERC721URIStorage, ERC721Enumerable, Ownable {\n    using Counters for Counters.Counter;\n\n    // Counter to give each NFT a unique ID.\n    Counters.Counter public _tokenIds;\n\n    // Address of the Cardinal NFT marketplace.\n    address public marketplaceAddress;\n\n    // Contract for USDC - for membership payments\n    IERC20 public USDC;\n\n    // Each NFT will be associated with an ID that determines the type of NFT it is\n    // This makes it easy to identify sets of NFTs like Original Cardinal NFTs, membership NFTs, and service NFTs\n    mapping(uint256 => uint256) public tokenIdToTypeId;\n\n    // Each NFT will have a unique listing fee that is kept track of in this mapping.\n    mapping(uint256 => uint256) public tokenIdToListingFee;\n    \n    // Mapping of token ID to address for whitelist spots.\n    mapping(uint256 => address) public tokenIdToWhitelistAddress;\n\n    // Mapping to determine if an address has a membership (either Original Cardinal NFT or membership NFT)\n    mapping(address => bool) public addressIsMember;\n\n    // Mapping to determine the number of membership NFTs an address has (especially if they have Original Cardinal NFT and membership NFT)\n    mapping(address => uint256) public addressToMemberNFTCount;\n\n    // Maps each membership NFT ID to the last block timestamp that the membership was paid for.\n    mapping(uint256 => uint256) public membershipNFTToLastPaid;\n\n    // Mapping to determine which addresses can add and remove other addresses from the member mapping.\n    mapping (address => bool) public addressIsAdmin;\n\n    // Mapping to determine membership discount for addresses.\n    mapping (address => uint256) public addressToMembershipDiscount;\n\n    // The type ID for the Original Cardinal NFTs.\n    uint256 public originalCardinalTypeId = 1;\n\n    // The type ID for the membership NFTs.\n    uint256 public membershipTypeId = 2;\n\n    // The type ID for the service NFTs.\n    uint256 public serviceTypeId = 3;\n\n    // Array of the Original Cardinal token IDs.\n    uint256[] public originalCardinalTokenIds;\n\n    // Array of the membership token IDs.\n    uint256[] public membershipTokenIds;\n\n    // The token URI for all membership NFTs\n    string public membershipTokenURI;\n\n    // The current price of the membership NFT in USDC\n    uint256 public membershipPriceInUSDC;\n\n    event membershipNFTMinted(address indexed owner, uint256 indexed tokenId);\n    event memberChargedForMembership(address indexed member, uint256 indexed tokenId, uint256 membershipPrice, uint256 currTimeStamp);\n    event membershipNFTBurnt(address indexed owner, uint256 indexed tokenId);\n    event tokenURIUpdated(uint256 indexed tokenId, string newTokenURI);\n    event membershipPriceUpdated(uint256 indexed newMembershipPrice);\n    event typeIdUpdated(string indexed typeIdThatWasUpdated, uint256 indexed newTypeId);\n    event memberDiscountSet(address indexed member, uint256 indexed discountAmount);\n\n    constructor(address _marketplaceAddress, address _USDC) ERC721(\"CardinalHouseNFT\", \"CRNLNFT\") {\n        marketplaceAddress = _marketplaceAddress;\n        USDC = IERC20(_USDC);\n    }\n\n    /**\n    * @dev Only owner function to burn a membership NFT\n    * @param tokenId the tokenId of the membership NFT to burn\n     */\n    function burnMembershipNFT(uint256 tokenId) private {\n        for (uint i = 0; i < membershipTokenIds.length; i++) {\n            if (membershipTokenIds[i] == tokenId) {\n                address NFTOwner = ownerOf(membershipTokenIds[i]);\n                _transfer(NFTOwner, address(this), membershipTokenIds[i]);\n\n                emit membershipNFTBurnt(NFTOwner, tokenId);\n\n                membershipTokenIds[i] = membershipTokenIds[membershipTokenIds.length-1];\n                membershipTokenIds.pop();\n            }\n        }\n    }\n\n    /**\n    * @dev Only owner function to burn a membership NFT\n    * @param tokenId the tokenId of the membership NFT to burn\n     */\n    function burnMembershiptNFTManually(uint256 tokenId) external onlyOwner {\n        burnMembershipNFT(tokenId);\n    }\n\n    /**\n     * @dev After a token transfer, update the addressToMember mapping if the NFT is an Original Cardinal or membership NFT\n     * @param from the sender's address\n     * @param to the recipient's address\n     * @param tokenId the tokenId that was transferred\n     */\n    function _afterTokenTransfer(address from, address to, uint256 tokenId) internal virtual override {\n        if (tokenIdToTypeId[tokenId] == membershipTypeId || tokenIdToTypeId[tokenId] == originalCardinalTypeId) {\n            if (from != owner() && from != marketplaceAddress && from != address(0)) {\n                if (addressToMemberNFTCount[from] > 0) {\n                    addressToMemberNFTCount[from] = addressToMemberNFTCount[from] - 1;\n                    if (addressToMemberNFTCount[from] == 0) {\n                        addressIsMember[from] = false;\n                    }\n                }\n                else {\n                    addressIsMember[from] = false;\n                }\n            }\n            addressIsMember[to] = true;\n            addressToMemberNFTCount[to] = addressToMemberNFTCount[to] + 1;\n        }\n\n        super._afterTokenTransfer(from, to, tokenId);\n    }\n\n    /**\n    * @dev Allows someone to mint a membership NFT by paying USDC\n    * @return the ID of the newly minted membership NFT\n     */\n    function mintMembershipNFT() external returns (uint) {\n        uint256 currMembershipPriceInUSDC = membershipPriceInUSDC;\n\n        if (addressToMembershipDiscount[msg.sender] > 0) {\n            currMembershipPriceInUSDC = membershipPriceInUSDC * addressToMembershipDiscount[msg.sender] / 100;\n        }\n\n        require(USDC.balanceOf(msg.sender) >= currMembershipPriceInUSDC, \"You don't have enough USDC to pay for the membership NFT.\");\n        require(USDC.allowance(msg.sender, address(this)) >= currMembershipPriceInUSDC, \"You haven't approved this contract to spend enough of your USDC to pay for the membership NFT.\");\n        \n        USDC.transferFrom(msg.sender, address(this), currMembershipPriceInUSDC);\n\n        _tokenIds.increment();\n        uint256 newItemId = _tokenIds.current();\n\n        tokenIdToTypeId[newItemId] = membershipTypeId;\n        tokenIdToListingFee[newItemId] = 0;\n        _mint(msg.sender, newItemId);\n        membershipNFTToLastPaid[newItemId] = block.timestamp;\n        addressToMembershipDiscount[msg.sender] = 0;\n        _setTokenURI(newItemId, membershipTokenURI);\n        approve(address(this), newItemId);\n        setApprovalForAll(marketplaceAddress, true);\n\n        membershipTokenIds.push(newItemId);\n\n        emit membershipNFTMinted(msg.sender, newItemId);\n\n        return newItemId;\n    }\n\n    /**\n    * @dev Only owner function to update the timestamp for a membership NFT after it has been paid for for a month.\n    * @param tokenId the ID of the membership NFT to have the timestamp updated for\n    * @param lastPaidTimestamp the timestamp to update the membership NFT to for when it was last paid for\n     */\n    function updateMembershipNFTLastPaid(uint256 tokenId, uint256 lastPaidTimestamp) external onlyOwner {\n        membershipNFTToLastPaid[tokenId] = lastPaidTimestamp;\n    }\n\n    /**\n    * @dev Only owner function to take funds from an address to pay for the next month of a membership\n    * @param member the address of the member that is being charged for the next month of a membership\n    * @param tokenId the token ID that the member is being charged\n    * @param currTimeStamp the current timestamp for the transaction to avoid relying on block.timestamp\n    * @return 0 for success, 1 for failure and NFT burn\n     */\n    function chargeMemberForMembership(address member, uint256 tokenId, uint256 currTimeStamp) external onlyOwner returns (uint) {\n        require(ownerOf(tokenId) == member, \"This address doesn't own the NFT specified.\");\n        require(ownerOf(tokenId) != owner() && ownerOf(tokenId) != marketplaceAddress, \"Can't charge the owner or marketplace for the membership.\");\n\n        uint256 currMembershipPriceInUSDC = membershipPriceInUSDC;\n\n        if (addressToMembershipDiscount[member] > 0) {\n            currMembershipPriceInUSDC = membershipPriceInUSDC * addressToMembershipDiscount[member] / 100;\n        }\n\n        if (USDC.balanceOf(member) < currMembershipPriceInUSDC || USDC.allowance(member, address(this)) < currMembershipPriceInUSDC) {\n            burnMembershipNFT(tokenId);\n            return 1;\n        }\n\n        USDC.transferFrom(member, address(this), currMembershipPriceInUSDC);\n\n        if (currTimeStamp > 0) {\n            membershipNFTToLastPaid[tokenId] = currTimeStamp;\n        }\n        else {\n            membershipNFTToLastPaid[tokenId] = block.timestamp;\n        }\n\n        addressToMembershipDiscount[member] = 0;\n\n        emit memberChargedForMembership(member, tokenId, currMembershipPriceInUSDC, currTimeStamp);\n\n        return 0;\n    }\n\n    /**\n    * @dev Only owner function to withdraw the USDC that are paid to this contract for the Membership NFTs.\n     */\n    function withdrawMembershipNFTFunds() external onlyOwner {\n        USDC.transfer(owner(), USDC.balanceOf(address(this)));\n    }\n\n    /**\n    * @dev Only owner function to mint a new NFT.\n    * @param newTokenURI the token URI on IPFS for the NFT metadata\n    * @param typeId the type ID of the NFT to distinguish what type of NFT it is (Original Cardinal, membership, service)\n    * @param listingFee the fee the user pays when putting the NFT for sale on the marketplace\n    * @param currTimeStamp the current timestamp for the transaction to avoid relying on block.timestamp\n    * @return the ID of the newly minted NFT\n     */\n    function createToken(string memory newTokenURI, uint256 typeId, uint256 listingFee, uint256 currTimeStamp) external onlyOwner returns (uint) {\n        _tokenIds.increment();\n        uint256 newItemId = _tokenIds.current();\n\n        tokenIdToTypeId[newItemId] = typeId;\n        tokenIdToListingFee[newItemId] = listingFee;\n        _mint(msg.sender, newItemId);\n        _setTokenURI(newItemId, newTokenURI);\n        approve(address(this), newItemId);\n        setApprovalForAll(marketplaceAddress, true);\n\n        if (typeId == originalCardinalTypeId) {\n            originalCardinalTokenIds.push(newItemId);\n        }\n        else if (typeId == membershipTypeId) {\n            membershipTokenIds.push(newItemId);\n\n            if (currTimeStamp > 0) {\n                membershipNFTToLastPaid[newItemId] = currTimeStamp;\n            }\n            else {\n                membershipNFTToLastPaid[newItemId] = block.timestamp;\n            }\n        }\n\n        return newItemId;\n    }\n\n    /**\n    * @dev Setter function for the token URI of an NFT.\n    * @param tokenId the ID of the NFT to update the token URI of\n    * @param newTokenURI the token URI to update the NFT with\n     */\n    function setTokenURI(uint256 tokenId, string memory newTokenURI) external onlyOwner {\n        _setTokenURI(tokenId, newTokenURI);\n        emit tokenURIUpdated(tokenId, newTokenURI);\n    }\n\n    /**\n    * @dev Function to get all token URIs for tokens that a given user owns.\n    * @param userAddress the user's address to get token URIs of\n    * @return list of token URIs for a user's NFTs\n     */\n    function getUserTokenURIs(address userAddress) external view returns (string[] memory) {\n        uint256 userTokenCount = balanceOf(userAddress);\n        uint256 currTokenId = 0;\n        string[] memory userNFTTokenURIs = new string[](userTokenCount);\n\n        for (uint256 i; i < userTokenCount; i++) {\n            currTokenId = tokenOfOwnerByIndex(userAddress, i);\n            userNFTTokenURIs[i] = tokenURI(currTokenId);\n        }\n\n        return userNFTTokenURIs;\n    }\n\n    /**\n    * @dev Function to get all token IDs for tokens that a given user owns.\n    * @param userAddress the user's address to get token IDs of\n    * @return list of token IDs for a user's NFTs\n     */\n    function getUserTokenIDs(address userAddress) external view returns (uint256[] memory) {\n        uint256 userTokenCount = balanceOf(userAddress);\n        uint256[] memory userNFTTokenIDs = new uint256[](userTokenCount);\n\n        for (uint256 i; i < userTokenCount; i++) {\n            userNFTTokenIDs[i] = tokenOfOwnerByIndex(userAddress, i);\n        }\n\n        return userNFTTokenIDs;\n    }    \n\n    /**\n    * @dev Function to get all token URIs for Original Cardinal NFTs that a given user owns.\n    * @param userAddress the user's address to get token URIs of\n    * @return list of token URIs for a user's Original Cardinal NFTs\n     */\n    function getUserOriginalCardinalTokenURIs(address userAddress) external view returns (string[] memory) {\n        uint NFTCount = _tokenIds.current();\n        uint userNFTCount = 0;\n        uint currentIndex = 0;\n\n        for (uint id = 1; id <= NFTCount; id++) {\n            if (ownerOf(id) == userAddress && tokenIdToTypeId[id] == originalCardinalTypeId) {\n                userNFTCount += 1;\n            }\n        }\n\n        string[] memory userNFTTokenURIs = new string[](userNFTCount);\n\n        for (uint id = 1; id <= NFTCount; id++) {\n            if (ownerOf(id) == userAddress && tokenIdToTypeId[id] == originalCardinalTypeId) {\n                string memory currentNFT = tokenURI(id);\n                userNFTTokenURIs[currentIndex] = currentNFT;\n                currentIndex += 1;\n            }\n        }\n        \n        return userNFTTokenURIs;\n    }\n\n    /**\n    * @dev Function to get all token URIs for membership NFTs that a given user owns.\n    * @param userAddress the user's address to get token URIs of\n    * @return list of token URIs for a user's membership NFTs\n     */\n    function getUserMembershipTokenURIs(address userAddress) external view returns (string[] memory) {\n        uint NFTCount = _tokenIds.current();\n        uint userNFTCount = 0;\n        uint currentIndex = 0;\n\n        for (uint id = 1; id <= NFTCount; id++) {\n            if (ownerOf(id) == userAddress && (tokenIdToTypeId[id] == originalCardinalTypeId || tokenIdToTypeId[id] == membershipTypeId)) {\n                userNFTCount += 1;\n            }\n        }\n\n        string[] memory userNFTTokenURIs = new string[](userNFTCount);\n\n        for (uint id = 1; id <= NFTCount; id++) {\n            if (ownerOf(id) == userAddress && (tokenIdToTypeId[id] == originalCardinalTypeId || tokenIdToTypeId[id] == membershipTypeId)) {\n                string memory currentNFT = tokenURI(id);\n                userNFTTokenURIs[currentIndex] = currentNFT;\n                currentIndex += 1;\n            }\n        }\n        \n        return userNFTTokenURIs;\n    }\n\n    /**\n    * @dev Function to get all token URIs for service NFTs that a given user owns.\n    * @param userAddress the user's address to get token URIs of\n    * @return list of token URIs for a user's service NFTs\n     */\n    function getUserServiceTokenURIs(address userAddress) external view returns (string[] memory) {\n        uint NFTCount = _tokenIds.current();\n        uint userNFTCount = 0;\n        uint currentIndex = 0;\n\n        for (uint id = 1; id <= NFTCount; id++) {\n            if (ownerOf(id) == userAddress && tokenIdToTypeId[id] == serviceTypeId) {\n                userNFTCount += 1;\n            }\n        }\n\n        string[] memory userNFTTokenURIs = new string[](userNFTCount);\n\n        for (uint id = 1; id <= NFTCount; id++) {\n            if (ownerOf(id) == userAddress && tokenIdToTypeId[id] == serviceTypeId) {\n                string memory currentNFT = tokenURI(id);\n                userNFTTokenURIs[currentIndex] = currentNFT;\n                currentIndex += 1;\n            }\n        }\n        \n        return userNFTTokenURIs;\n    }\n\n    /**\n    * @dev Function to get a list of all the Original Cardinal NFT IDs.\n    * @return list of the Original Cardinal NFT IDs\n     */\n    function getOriginalCardinalTokenIds() external view returns (uint256[] memory) {\n        return originalCardinalTokenIds;\n    }\n\n    /**\n    * @dev Function to get a list of all the membership NFT IDs.\n    * @return list of the membership NFT IDs\n     */\n    function getMembershipTokenIds() external view returns (uint256[] memory) {\n        return membershipTokenIds;\n    }\n\n    /**\n    * @dev Only owner function to update the timestamp for when a user last paid for their membership.\n    * @param tokenId the token ID to update the membership last paid timestamp for\n    * @param newLastPaid the new timestamp that represents when the user last paid for their membership NFT\n    */\n    function updateMembershipNFTToLastPaid(uint256 tokenId, uint256 newLastPaid) external onlyOwner {\n        membershipNFTToLastPaid[tokenId] = newLastPaid;\n    }\n\n    /**\n    * @dev Function to assign an NFT to a whitelist spot so only one address can purchase the NFT.\n    * @param whiteListAddress the address of the user who will be able to purchase the NFT\n    * @param tokenId the ID of the NFT that the whitelist spot is for\n     */\n    function addWhiteListToToken(address whiteListAddress, uint256 tokenId) external onlyOwner {\n        tokenIdToWhitelistAddress[tokenId] = whiteListAddress;\n    }\n\n    /**\n    * @dev updates the listing fee of an NFT.\n    * @param tokenId the ID of the NFT to update the listing fee of\n    * @param newListingFee the listing fee value for the NFT\n     */\n    function updateTokenListingFee(uint256 tokenId, uint256 newListingFee) external onlyOwner {\n        tokenIdToListingFee[tokenId] = newListingFee;\n    }\n\n    /**\n    * @dev updates the type ID of an NFT.\n    * @param tokenId the ID of the NFT to update the type ID of\n    * @param newTypeId the type ID value for the NFT\n     */\n    function updateTokenTypeId(uint256 tokenId, uint256 newTypeId) external onlyOwner {\n        tokenIdToTypeId[tokenId] = newTypeId;\n    }\n\n    /**\n    * @dev updates the type ID that represents the Original Cardinal NFTs\n    * @param newOriginalCardinalTypeId the new type ID of the Original Cardinal NFTs\n     */\n    function updateOriginalCardinalTypeId(uint256 newOriginalCardinalTypeId) external onlyOwner {\n        originalCardinalTypeId = newOriginalCardinalTypeId;\n        emit typeIdUpdated(\"originalCardinalTypeId\", newOriginalCardinalTypeId);\n    }\n\n    /**\n    * @dev updates the type ID that represents the membership NFTs\n    * @param newMembershipTypeId the new type ID of the membership NFTs\n     */\n    function updateMembershipTypeId(uint256 newMembershipTypeId) external onlyOwner {\n        membershipTypeId = newMembershipTypeId;\n        emit typeIdUpdated(\"membershipTypeId\", newMembershipTypeId);\n    }\n\n    /**\n    * @dev updates the type ID that represents the service NFTs\n    * @param newServiceTypeId the new type ID of the service NFTs\n     */\n    function updateServiceTypeId(uint256 newServiceTypeId) external onlyOwner {\n        serviceTypeId = newServiceTypeId;\n        emit typeIdUpdated(\"serviceTypeId\", newServiceTypeId);\n    }\n\n    /**\n    * @dev updates the membership NFT token URI\n    * @param newMembershipTokenURI the new type ID of the service NFTs\n     */\n    function updateMembershipTokenURI(string memory newMembershipTokenURI) external onlyOwner {\n        membershipTokenURI = newMembershipTokenURI;\n    }\n\n    /**\n    * @dev sets the price of the membership NFTs in USDC\n    * @param newMembershipPrice the new price of the membership NFTs in USDC\n     */\n    function updateMembershipPrice(uint256 newMembershipPrice) external onlyOwner {\n        membershipPriceInUSDC = newMembershipPrice;\n        emit membershipPriceUpdated(newMembershipPrice);\n    }\n\n    /**\n    * @dev Only owner function to set the reference to the USDC contract\n    * @param _USDC the address for the USDC contract\n    */\n    function setUSDCContract(address _USDC) external onlyOwner {\n        USDC = IERC20(_USDC);\n    }\n\n    /**\n    * @dev Only owner function to update the admin mapping.\n    * @param adminAddress the address to admin rights for\n    * @param isAdmin boolean to determine if the address is an admin or not\n    */\n    function setAdminUser(address adminAddress, bool isAdmin) external onlyOwner {\n        addressIsAdmin[adminAddress] = isAdmin;\n    }\n\n    /**\n    * @dev Allows contract admins to manually add an address as a member. Necessary for memberships purchased through Patreon.\n    * @param memberAddress the address of the member being added\n    */\n    function addMember(address memberAddress) external {\n        require(addressIsAdmin[msg.sender], \"Only contract admins can add members.\");\n\n        addressIsMember[memberAddress] = true;\n    }\n\n    /**\n    * @dev Allows contract admins to manually remove an address as a member. Necessary for when a membership bought through Patreon expires.\n    * @param memberAddress the address to remove from the membership list\n    */\n    function removeMember(address memberAddress) external {\n        require(addressIsAdmin[msg.sender], \"Only contract admins can remove a member.\");\n\n        addressIsMember[memberAddress] = false;\n    }\n\n    /**\n    * @dev Allows contract admins to set a membership discount for an address.\n    * @param memberAddress the address to give the discount to\n    * @param discountAmount the discount amount, 90 for 90% of membership price, 75 for 75% of membership price, etc.\n    */\n    function setMemberDiscount(address memberAddress, uint256 discountAmount) external {\n        require(addressIsAdmin[msg.sender], \"Only contract admins can set a membership discount.\");\n        addressToMembershipDiscount[memberAddress] = discountAmount;\n        emit memberDiscountSet(memberAddress, discountAmount);\n    }\n\n    // Override function since both ERC721URIStorage and ERC721Enumerable inherit from ERC721 and so both have a definition for _burn.\n    function _burn(uint256 tokenId) internal override(ERC721, ERC721URIStorage) {\n        super._burn(tokenId);\n    }\n\n    // Override function since both ERC721URIStorage and ERC721Enumerable inherit from ERC721 and so both have a definition for _beforeTokenTransfer.\n    function _beforeTokenTransfer(address from, address to, uint256 tokenId) internal override(ERC721, ERC721Enumerable) {\n        super._beforeTokenTransfer(from, to, tokenId);\n    }\n\n    // Override function since both ERC721URIStorage and ERC721Enumerable inherit from ERC721 and so both have a definition for supportsInterface.\n    function supportsInterface(bytes4 interfaceId) public view override(ERC721, ERC721Enumerable) returns (bool) {\n        return super.supportsInterface(interfaceId);\n    }\n\n    // Override function since both ERC721URIStorage and ERC721Enumerable inherit from ERC721 and so both have a definition for tokenURI.\n    function tokenURI(uint256 tokenId) public view override(ERC721, ERC721URIStorage) returns (string memory) {\n        return super.tokenURI(tokenId);\n    }    \n}",
  "sourcePath": "contracts/CardinalNFT.sol",
  "type": "contract"
}