{
  "abi": [
    {
      "anonymous": false,
      "inputs": [
        {
          "indexed": true,
          "internalType": "address",
          "name": "previousOwner",
          "type": "address"
        },
        {
          "indexed": true,
          "internalType": "address",
          "name": "newOwner",
          "type": "address"
        }
      ],
      "name": "OwnershipTransferred",
      "type": "event"
    },
    {
      "anonymous": false,
      "inputs": [
        {
          "indexed": true,
          "internalType": "address",
          "name": "buyer",
          "type": "address"
        },
        {
          "indexed": false,
          "internalType": "uint256",
          "name": "maticAmount",
          "type": "uint256"
        },
        {
          "indexed": false,
          "internalType": "uint256",
          "name": "cardinalTokenAmount",
          "type": "uint256"
        }
      ],
      "name": "cardinalTokensPurchased",
      "type": "event"
    },
    {
      "anonymous": false,
      "inputs": [
        {
          "indexed": true,
          "internalType": "uint256",
          "name": "newMaticToCRNLRate",
          "type": "uint256"
        }
      ],
      "name": "maticToCRNLRateUpdated",
      "type": "event"
    },
    {
      "anonymous": false,
      "inputs": [
        {
          "indexed": true,
          "internalType": "uint256",
          "name": "newMemberDiscountAmount",
          "type": "uint256"
        }
      ],
      "name": "memberDiscountUpdated",
      "type": "event"
    },
    {
      "anonymous": false,
      "inputs": [
        {
          "indexed": true,
          "internalType": "uint256",
          "name": "newPurchaseCap",
          "type": "uint256"
        }
      ],
      "name": "purchaseCapUpdated",
      "type": "event"
    },
    {
      "inputs": [],
      "name": "MaticToCRNLRate",
      "outputs": [
        {
          "internalType": "uint256",
          "name": "",
          "type": "uint256"
        }
      ],
      "stateMutability": "view",
      "type": "function"
    },
    {
      "inputs": [
        {
          "internalType": "address",
          "name": "",
          "type": "address"
        }
      ],
      "name": "addressToAmountPurchased",
      "outputs": [
        {
          "internalType": "uint256",
          "name": "",
          "type": "uint256"
        }
      ],
      "stateMutability": "view",
      "type": "function"
    },
    {
      "inputs": [],
      "name": "cardinalNFT",
      "outputs": [
        {
          "internalType": "contract CardinalNFT",
          "name": "",
          "type": "address"
        }
      ],
      "stateMutability": "view",
      "type": "function"
    },
    {
      "inputs": [],
      "name": "cardinalToken",
      "outputs": [
        {
          "internalType": "contract CardinalToken",
          "name": "",
          "type": "address"
        }
      ],
      "stateMutability": "view",
      "type": "function"
    },
    {
      "inputs": [
        {
          "internalType": "uint256",
          "name": "newPurchaseCap",
          "type": "uint256"
        }
      ],
      "name": "changeCardinalTokenPurchaseCap",
      "outputs": [],
      "stateMutability": "nonpayable",
      "type": "function"
    },
    {
      "inputs": [
        {
          "internalType": "uint256",
          "name": "newConversionRate",
          "type": "uint256"
        }
      ],
      "name": "changeMaticToCardinalTokenRate",
      "outputs": [],
      "stateMutability": "nonpayable",
      "type": "function"
    },
    {
      "inputs": [
        {
          "internalType": "uint256",
          "name": "newMemberDiscountAmount",
          "type": "uint256"
        }
      ],
      "name": "changeMemberDiscountAmount",
      "outputs": [],
      "stateMutability": "nonpayable",
      "type": "function"
    },
    {
      "inputs": [
        {
          "internalType": "bool",
          "name": "newOnlyMembers",
          "type": "bool"
        }
      ],
      "name": "changeOnlyMembers",
      "outputs": [],
      "stateMutability": "nonpayable",
      "type": "function"
    },
    {
      "inputs": [],
      "name": "getContractAddress",
      "outputs": [
        {
          "internalType": "address",
          "name": "",
          "type": "address"
        }
      ],
      "stateMutability": "view",
      "type": "function"
    },
    {
      "inputs": [],
      "name": "getContractMatic",
      "outputs": [
        {
          "internalType": "uint256",
          "name": "",
          "type": "uint256"
        }
      ],
      "stateMutability": "view",
      "type": "function"
    },
    {
      "inputs": [],
      "name": "getContractTokens",
      "outputs": [
        {
          "internalType": "uint256",
          "name": "",
          "type": "uint256"
        }
      ],
      "stateMutability": "view",
      "type": "function"
    },
    {
      "inputs": [],
      "name": "getTokenAddress",
      "outputs": [
        {
          "internalType": "address",
          "name": "",
          "type": "address"
        }
      ],
      "stateMutability": "view",
      "type": "function"
    },
    {
      "inputs": [],
      "name": "getUserBalance",
      "outputs": [
        {
          "internalType": "uint256",
          "name": "",
          "type": "uint256"
        }
      ],
      "stateMutability": "view",
      "type": "function"
    },
    {
      "inputs": [],
      "name": "memberDiscountAmount",
      "outputs": [
        {
          "internalType": "uint256",
          "name": "",
          "type": "uint256"
        }
      ],
      "stateMutability": "view",
      "type": "function"
    },
    {
      "inputs": [],
      "name": "onlyMembers",
      "outputs": [
        {
          "internalType": "bool",
          "name": "",
          "type": "bool"
        }
      ],
      "stateMutability": "view",
      "type": "function"
    },
    {
      "inputs": [],
      "name": "owner",
      "outputs": [
        {
          "internalType": "address",
          "name": "",
          "type": "address"
        }
      ],
      "stateMutability": "view",
      "type": "function"
    },
    {
      "inputs": [],
      "name": "purchaseCap",
      "outputs": [
        {
          "internalType": "uint256",
          "name": "",
          "type": "uint256"
        }
      ],
      "stateMutability": "view",
      "type": "function"
    },
    {
      "inputs": [],
      "name": "purchaseCardinalTokens",
      "outputs": [],
      "stateMutability": "payable",
      "type": "function"
    },
    {
      "inputs": [],
      "name": "renounceOwnership",
      "outputs": [],
      "stateMutability": "nonpayable",
      "type": "function"
    },
    {
      "inputs": [
        {
          "internalType": "address payable",
          "name": "CardinalNFTAddress",
          "type": "address"
        }
      ],
      "name": "setCardinalNFT",
      "outputs": [],
      "stateMutability": "nonpayable",
      "type": "function"
    },
    {
      "inputs": [
        {
          "internalType": "address payable",
          "name": "CardinalTokenAddress",
          "type": "address"
        }
      ],
      "name": "setToken",
      "outputs": [],
      "stateMutability": "nonpayable",
      "type": "function"
    },
    {
      "inputs": [
        {
          "internalType": "address",
          "name": "newOwner",
          "type": "address"
        }
      ],
      "name": "transferOwnership",
      "outputs": [],
      "stateMutability": "nonpayable",
      "type": "function"
    },
    {
      "inputs": [
        {
          "internalType": "uint256",
          "name": "amount",
          "type": "uint256"
        }
      ],
      "name": "withdrawMatic",
      "outputs": [],
      "stateMutability": "nonpayable",
      "type": "function"
    }
  ],
  "bytecode": "608060405269152d02c7e14af68000006004556169fd600555606e6006556007805460ff1916905534801561003357600080fd5b5061003d33610042565b610092565b600080546001600160a01b038381166001600160a01b0319831681178455604051919092169283917f8be0079c531659141344cd1fd0a4f28419497f9722a3daafe3b4186f6b6457e09190a35050565b610e3d806100a16000396000f3fe6080604052600436106101405760003560e01c80638da5cb5b116100b6578063bf7aa8171161006f578063bf7aa81714610332578063c026424f14610352578063c3ffb88414610372578063c98f56e014610387578063e8a379b2146103a7578063f2fde38b146103c757600080fd5b80638da5cb5b1461027f5780638ed5ca3e1461029d5780639902ce58146102bd578063a19d89cc146102e7578063ab0fe87414610307578063b7013dc11461031d57600080fd5b806332a2c5d01161010857806332a2c5d0146101de5780633a3d0293146101f157806342ce41ca1461020757806357e6640914610227578063715018a6146102545780637d5d0dc61461026957600080fd5b80630e1bac891461014557806310fe9ae814610182578063128a897314610197578063144fa6d7146101b45780631b2c73ee146101d6575b600080fd5b34801561015157600080fd5b50600154610165906001600160a01b031681565b6040516001600160a01b0390911681526020015b60405180910390f35b34801561018e57600080fd5b506101656103e7565b3480156101a357600080fd5b50475b604051908152602001610179565b3480156101c057600080fd5b506101d46101cf366004610ca8565b610469565b005b6101d46104be565b3480156101ea57600080fd5b5030610165565b3480156101fd57600080fd5b506101a660055481565b34801561021357600080fd5b506101d4610222366004610ccc565b610867565b34801561023357600080fd5b506101a6610242366004610ca8565b60036020526000908152604090205481565b34801561026057600080fd5b506101d46108c4565b34801561027557600080fd5b506101a660065481565b34801561028b57600080fd5b506000546001600160a01b0316610165565b3480156102a957600080fd5b506101d46102b8366004610cf3565b6108fa565b3480156102c957600080fd5b506007546102d79060ff1681565b6040519015158152602001610179565b3480156102f357600080fd5b506101d4610302366004610ccc565b610937565b34801561031357600080fd5b506101a660045481565b34801561032957600080fd5b506101a6610994565b34801561033e57600080fd5b506101d461034d366004610ca8565b610a11565b34801561035e57600080fd5b506101d461036d366004610ccc565b610a5d565b34801561037e57600080fd5b506101a6610aba565b34801561039357600080fd5b50600254610165906001600160a01b031681565b3480156103b357600080fd5b506101d46103c2366004610ccc565b610aeb565b3480156103d357600080fd5b506101d46103e2366004610ca8565b610ba8565b6001546040805163032a2c5d60e41b815290516000926001600160a01b0316916332a2c5d0916004808301926020929190829003018186803b15801561042c57600080fd5b505afa158015610440573d6000803e3d6000fd5b505050506040513d601f19601f820116820180604052508101906104649190610d10565b905090565b6000546001600160a01b0316331461049c5760405162461bcd60e51b815260040161049390610d2d565b60405180910390fd5b600180546001600160a01b0319166001600160a01b0392909216919091179055565b6103e83410156105095760405162461bcd60e51b81526020600482015260166024820152752737ba1032b737bab3b41026b0ba34b19039b2b73a1760511b6044820152606401610493565b60075460ff161561060d576002546040516328da575b60e01b81523360048201526001600160a01b03909116906328da575b9060240160206040518083038186803b15801561055757600080fd5b505afa15801561056b573d6000803e3d6000fd5b505050506040513d601f19601f8201168201806040525081019061058f9190610d62565b61060d5760405162461bcd60e51b815260206004820152604360248201527f4f6e6c79206d656d626572732063616e20706172746963697061746520696e2060448201527f7468652070726573616c6520666f722074686520666972737420323420686f7560648201526239399760e91b608482015260a401610493565b60006103e8600554346106209190610d95565b61062a9190610db4565b6002546040516328da575b60e01b81523360048201529192506001600160a01b0316906328da575b9060240160206040518083038186803b15801561066e57600080fd5b505afa158015610682573d6000803e3d6000fd5b505050506040513d601f19601f820116820180604052508101906106a69190610d62565b156106c8576064600654826106bb9190610d95565b6106c59190610db4565b90505b600454336000908152600360205260409020546106e6908390610dd6565b11156107805760405162461bcd60e51b815260206004820152605860248201527f596f752063616e6e6f742070757263686173652074686973206d616e7920436160448201527f7264696e616c20546f6b656e732c207468617420776f756c642070757420796f60648201527f75207061737420796f75722070726573616c65206361702e0000000000000000608482015260a401610493565b336000908152600360205260408120805483929061079f908490610dd6565b909155505060015460405163a9059cbb60e01b8152336004820152602481018390526001600160a01b039091169063a9059cbb90604401602060405180830381600087803b1580156107f057600080fd5b505af1158015610804573d6000803e3d6000fd5b505050506040513d601f19601f820116820180604052508101906108289190610d62565b50604080513481526020810183905233917f5a4e0a85f78ac0eab0f16d020c23851c9530b0fa7ca3e20cbe13298c812dfa41910160405180910390a250565b6000546001600160a01b031633146108915760405162461bcd60e51b815260040161049390610d2d565b600481905560405181907f75948ae2003ce2c50eddd1defb6c302649aafe8129675f90ab26b8d640d0652f90600090a250565b6000546001600160a01b031633146108ee5760405162461bcd60e51b815260040161049390610d2d565b6108f86000610c43565b565b6000546001600160a01b031633146109245760405162461bcd60e51b815260040161049390610d2d565b6007805460ff1916911515919091179055565b6000546001600160a01b031633146109615760405162461bcd60e51b815260040161049390610d2d565b600681905560405181907f114664edd982e7761f0a9074f4311b4c27a9895ac6e2f44eac3a249193c08afd90600090a250565b6001546040516370a0823160e01b81523360048201526000916001600160a01b0316906370a08231906024015b60206040518083038186803b1580156109d957600080fd5b505afa1580156109ed573d6000803e3d6000fd5b505050506040513d601f19601f820116820180604052508101906104649190610dee565b6000546001600160a01b03163314610a3b5760405162461bcd60e51b815260040161049390610d2d565b600280546001600160a01b0319166001600160a01b0392909216919091179055565b6000546001600160a01b03163314610a875760405162461bcd60e51b815260040161049390610d2d565b600581905560405181907fcd06b67634b8787dafadd5a57f391f26dcd29d6ebb8c345340e12987826f7ec790600090a250565b6001546040516370a0823160e01b81523060048201526000916001600160a01b0316906370a08231906024016109c1565b6000546001600160a01b03163314610b155760405162461bcd60e51b815260040161049390610d2d565b604051600090339083908381818185875af1925050503d8060008114610b57576040519150601f19603f3d011682016040523d82523d6000602084013e610b5c565b606091505b5050905080610ba45760405162461bcd60e51b81526020600482015260146024820152734661696c656420746f2073656e64204d6174696360601b6044820152606401610493565b5050565b6000546001600160a01b03163314610bd25760405162461bcd60e51b815260040161049390610d2d565b6001600160a01b038116610c375760405162461bcd60e51b815260206004820152602660248201527f4f776e61626c653a206e6577206f776e657220697320746865207a65726f206160448201526564647265737360d01b6064820152608401610493565b610c4081610c43565b50565b600080546001600160a01b038381166001600160a01b0319831681178455604051919092169283917f8be0079c531659141344cd1fd0a4f28419497f9722a3daafe3b4186f6b6457e09190a35050565b6001600160a01b0381168114610c4057600080fd5b600060208284031215610cba57600080fd5b8135610cc581610c93565b9392505050565b600060208284031215610cde57600080fd5b5035919050565b8015158114610c4057600080fd5b600060208284031215610d0557600080fd5b8135610cc581610ce5565b600060208284031215610d2257600080fd5b8151610cc581610c93565b6020808252818101527f4f776e61626c653a2063616c6c6572206973206e6f7420746865206f776e6572604082015260600190565b600060208284031215610d7457600080fd5b8151610cc581610ce5565b634e487b7160e01b600052601160045260246000fd5b6000816000190483118215151615610daf57610daf610d7f565b500290565b600082610dd157634e487b7160e01b600052601260045260246000fd5b500490565b60008219821115610de957610de9610d7f565b500190565b600060208284031215610e0057600080fd5b505191905056fea26469706673582212200b42516c3dacbd7b2c389a837397aede1af38cada14d6ed7f1273db230b6cca864736f6c63430008080033",
  "bytecodeSha1": "dc756e90739b79434fd0025b77872f7872e809c1",
  "compiler": {
    "evm_version": "istanbul",
    "optimizer": {
      "enabled": true,
      "runs": 200
    },
    "version": "0.8.8+commit.dddeac2f"
  },
  "contractName": "CardinalHousePreSale",
  "language": "Solidity",
  "natspec": {
    "details": "Contract responsible for the Cardinal House presale mechanisms",
    "kind": "dev",
    "methods": {
      "changeCardinalTokenPurchaseCap(uint256)": {
        "details": "Only owner function to change the presale Cardinal Token purchase cap per user.",
        "params": {
          "newPurchaseCap": "the new Cardinal Token purchase cap in CRNL (NOT Matic). Use the conversion rate to figure out how many Cardinal Tokens to set here."
        }
      },
      "changeMaticToCardinalTokenRate(uint256)": {
        "details": "Only owner function to change the conversion rate for Matic to Cardinal Token.",
        "params": {
          "newConversionRate": "the new Matic to Cardinal Token conversion rate."
        }
      },
      "changeMemberDiscountAmount(uint256)": {
        "details": "Only owner function to change the member discount for the presale.",
        "params": {
          "newMemberDiscountAmount": "the new member discount - 10% off would be 110, 25% off would be 125, etc."
        }
      },
      "changeOnlyMembers(bool)": {
        "details": "Only owner function to change if only members can participate in the presale or if everyone can.",
        "params": {
          "newOnlyMembers": "true or false - determines if only members can participate in the presale."
        }
      },
      "getContractAddress()": {
        "details": "Returns the contract address",
        "returns": {
          "_0": "contract address"
        }
      },
      "getContractMatic()": {
        "details": "Gets the amount of Matic that the contract has.",
        "returns": {
          "_0": "the amount of Matic the contract has."
        }
      },
      "getContractTokens()": {
        "details": "Gets the Cardinal Token balance of the contract.",
        "returns": {
          "_0": "the amount of Cardinal Tokens the contract has."
        }
      },
      "getTokenAddress()": {
        "details": "Returns the Cardinal Token address",
        "returns": {
          "_0": "Cardinal Token contract address"
        }
      },
      "getUserBalance()": {
        "details": "Gets the amount of Cardinal Tokens the sender owns.",
        "returns": {
          "_0": "the Cardinal Token balance of the sender"
        }
      },
      "owner()": {
        "details": "Returns the address of the current owner."
      },
      "purchaseCardinalTokens()": {
        "details": "Allows a user to pay Matic for Cardinal Tokens. Conversion rate is 1 Matic to MaticToCRNLRate Cardinal Tokens (CRNL) where MaticToCRNLRate is the variable defined in the contract."
      },
      "renounceOwnership()": {
        "details": "Leaves the contract without owner. It will not be possible to call `onlyOwner` functions anymore. Can only be called by the current owner. NOTE: Renouncing ownership will leave the contract without an owner, thereby removing any functionality that is only available to the owner."
      },
      "setCardinalNFT(address)": {
        "details": "Once the Cardinal NFT contract is deployed, this function is used to set a reference to that NFT contract for member discounts in the presale.",
        "params": {
          "CardinalNFTAddress": "address of the deployed Cardinal NFT contract."
        }
      },
      "setToken(address)": {
        "details": "Once the Cardinal Token contract is deployed, this function is used to set a reference to that token in this contract.",
        "params": {
          "CardinalTokenAddress": "address of the Cardinal Token."
        }
      },
      "transferOwnership(address)": {
        "details": "Transfers ownership of the contract to a new account (`newOwner`). Can only be called by the current owner."
      },
      "withdrawMatic(uint256)": {
        "details": "Only owner function to withdraw the Matic from this contract.",
        "params": {
          "amount": "the amount of Matic to withdraw from the pre-sale contract."
        }
      }
    },
    "title": "Cardinal House Presale contract",
    "version": 1
  },
  "opcodes": "PUSH1 0x80 PUSH1 0x40 MSTORE PUSH1 0x4 CALLDATASIZE LT PUSH2 0x140 JUMPI PUSH1 0x0 CALLDATALOAD PUSH1 0xE0 SHR DUP1 PUSH4 0x8DA5CB5B GT PUSH2 0xB6 JUMPI DUP1 PUSH4 0xBF7AA817 GT PUSH2 0x6F JUMPI DUP1 PUSH4 0xBF7AA817 EQ PUSH2 0x332 JUMPI DUP1 PUSH4 0xC026424F EQ PUSH2 0x352 JUMPI DUP1 PUSH4 0xC3FFB884 EQ PUSH2 0x372 JUMPI DUP1 PUSH4 0xC98F56E0 EQ PUSH2 0x387 JUMPI DUP1 PUSH4 0xE8A379B2 EQ PUSH2 0x3A7 JUMPI DUP1 PUSH4 0xF2FDE38B EQ PUSH2 0x3C7 JUMPI PUSH1 0x0 DUP1 REVERT JUMPDEST DUP1 PUSH4 0x8DA5CB5B EQ PUSH2 0x27F JUMPI DUP1 PUSH4 0x8ED5CA3E EQ PUSH2 0x29D JUMPI DUP1 PUSH4 0x9902CE58 EQ PUSH2 0x2BD JUMPI DUP1 PUSH4 0xA19D89CC EQ PUSH2 0x2E7 JUMPI DUP1 PUSH4 0xAB0FE874 EQ PUSH2 0x307 JUMPI DUP1 PUSH4 0xB7013DC1 EQ PUSH2 0x31D JUMPI PUSH1 0x0 DUP1 REVERT JUMPDEST DUP1 PUSH4 0x32A2C5D0 GT PUSH2 0x108 JUMPI DUP1 PUSH4 0x32A2C5D0 EQ PUSH2 0x1DE JUMPI DUP1 PUSH4 0x3A3D0293 EQ PUSH2 0x1F1 JUMPI DUP1 PUSH4 0x42CE41CA EQ PUSH2 0x207 JUMPI DUP1 PUSH4 0x57E66409 EQ PUSH2 0x227 JUMPI DUP1 PUSH4 0x715018A6 EQ PUSH2 0x254 JUMPI DUP1 PUSH4 0x7D5D0DC6 EQ PUSH2 0x269 JUMPI PUSH1 0x0 DUP1 REVERT JUMPDEST DUP1 PUSH4 0xE1BAC89 EQ PUSH2 0x145 JUMPI DUP1 PUSH4 0x10FE9AE8 EQ PUSH2 0x182 JUMPI DUP1 PUSH4 0x128A8973 EQ PUSH2 0x197 JUMPI DUP1 PUSH4 0x144FA6D7 EQ PUSH2 0x1B4 JUMPI DUP1 PUSH4 0x1B2C73EE EQ PUSH2 0x1D6 JUMPI JUMPDEST PUSH1 0x0 DUP1 REVERT JUMPDEST CALLVALUE DUP1 ISZERO PUSH2 0x151 JUMPI PUSH1 0x0 DUP1 REVERT JUMPDEST POP PUSH1 0x1 SLOAD PUSH2 0x165 SWAP1 PUSH1 0x1 PUSH1 0x1 PUSH1 0xA0 SHL SUB AND DUP2 JUMP JUMPDEST PUSH1 0x40 MLOAD PUSH1 0x1 PUSH1 0x1 PUSH1 0xA0 SHL SUB SWAP1 SWAP2 AND DUP2 MSTORE PUSH1 0x20 ADD JUMPDEST PUSH1 0x40 MLOAD DUP1 SWAP2 SUB SWAP1 RETURN JUMPDEST CALLVALUE DUP1 ISZERO PUSH2 0x18E JUMPI PUSH1 0x0 DUP1 REVERT JUMPDEST POP PUSH2 0x165 PUSH2 0x3E7 JUMP JUMPDEST CALLVALUE DUP1 ISZERO PUSH2 0x1A3 JUMPI PUSH1 0x0 DUP1 REVERT JUMPDEST POP SELFBALANCE JUMPDEST PUSH1 0x40 MLOAD SWAP1 DUP2 MSTORE PUSH1 0x20 ADD PUSH2 0x179 JUMP JUMPDEST CALLVALUE DUP1 ISZERO PUSH2 0x1C0 JUMPI PUSH1 0x0 DUP1 REVERT JUMPDEST POP PUSH2 0x1D4 PUSH2 0x1CF CALLDATASIZE PUSH1 0x4 PUSH2 0xCA8 JUMP JUMPDEST PUSH2 0x469 JUMP JUMPDEST STOP JUMPDEST PUSH2 0x1D4 PUSH2 0x4BE JUMP JUMPDEST CALLVALUE DUP1 ISZERO PUSH2 0x1EA JUMPI PUSH1 0x0 DUP1 REVERT JUMPDEST POP ADDRESS PUSH2 0x165 JUMP JUMPDEST CALLVALUE DUP1 ISZERO PUSH2 0x1FD JUMPI PUSH1 0x0 DUP1 REVERT JUMPDEST POP PUSH2 0x1A6 PUSH1 0x5 SLOAD DUP2 JUMP JUMPDEST CALLVALUE DUP1 ISZERO PUSH2 0x213 JUMPI PUSH1 0x0 DUP1 REVERT JUMPDEST POP PUSH2 0x1D4 PUSH2 0x222 CALLDATASIZE PUSH1 0x4 PUSH2 0xCCC JUMP JUMPDEST PUSH2 0x867 JUMP JUMPDEST CALLVALUE DUP1 ISZERO PUSH2 0x233 JUMPI PUSH1 0x0 DUP1 REVERT JUMPDEST POP PUSH2 0x1A6 PUSH2 0x242 CALLDATASIZE PUSH1 0x4 PUSH2 0xCA8 JUMP JUMPDEST PUSH1 0x3 PUSH1 0x20 MSTORE PUSH1 0x0 SWAP1 DUP2 MSTORE PUSH1 0x40 SWAP1 KECCAK256 SLOAD DUP2 JUMP JUMPDEST CALLVALUE DUP1 ISZERO PUSH2 0x260 JUMPI PUSH1 0x0 DUP1 REVERT JUMPDEST POP PUSH2 0x1D4 PUSH2 0x8C4 JUMP JUMPDEST CALLVALUE DUP1 ISZERO PUSH2 0x275 JUMPI PUSH1 0x0 DUP1 REVERT JUMPDEST POP PUSH2 0x1A6 PUSH1 0x6 SLOAD DUP2 JUMP JUMPDEST CALLVALUE DUP1 ISZERO PUSH2 0x28B JUMPI PUSH1 0x0 DUP1 REVERT JUMPDEST POP PUSH1 0x0 SLOAD PUSH1 0x1 PUSH1 0x1 PUSH1 0xA0 SHL SUB AND PUSH2 0x165 JUMP JUMPDEST CALLVALUE DUP1 ISZERO PUSH2 0x2A9 JUMPI PUSH1 0x0 DUP1 REVERT JUMPDEST POP PUSH2 0x1D4 PUSH2 0x2B8 CALLDATASIZE PUSH1 0x4 PUSH2 0xCF3 JUMP JUMPDEST PUSH2 0x8FA JUMP JUMPDEST CALLVALUE DUP1 ISZERO PUSH2 0x2C9 JUMPI PUSH1 0x0 DUP1 REVERT JUMPDEST POP PUSH1 0x7 SLOAD PUSH2 0x2D7 SWAP1 PUSH1 0xFF AND DUP2 JUMP JUMPDEST PUSH1 0x40 MLOAD SWAP1 ISZERO ISZERO DUP2 MSTORE PUSH1 0x20 ADD PUSH2 0x179 JUMP JUMPDEST CALLVALUE DUP1 ISZERO PUSH2 0x2F3 JUMPI PUSH1 0x0 DUP1 REVERT JUMPDEST POP PUSH2 0x1D4 PUSH2 0x302 CALLDATASIZE PUSH1 0x4 PUSH2 0xCCC JUMP JUMPDEST PUSH2 0x937 JUMP JUMPDEST CALLVALUE DUP1 ISZERO PUSH2 0x313 JUMPI PUSH1 0x0 DUP1 REVERT JUMPDEST POP PUSH2 0x1A6 PUSH1 0x4 SLOAD DUP2 JUMP JUMPDEST CALLVALUE DUP1 ISZERO PUSH2 0x329 JUMPI PUSH1 0x0 DUP1 REVERT JUMPDEST POP PUSH2 0x1A6 PUSH2 0x994 JUMP JUMPDEST CALLVALUE DUP1 ISZERO PUSH2 0x33E JUMPI PUSH1 0x0 DUP1 REVERT JUMPDEST POP PUSH2 0x1D4 PUSH2 0x34D CALLDATASIZE PUSH1 0x4 PUSH2 0xCA8 JUMP JUMPDEST PUSH2 0xA11 JUMP JUMPDEST CALLVALUE DUP1 ISZERO PUSH2 0x35E JUMPI PUSH1 0x0 DUP1 REVERT JUMPDEST POP PUSH2 0x1D4 PUSH2 0x36D CALLDATASIZE PUSH1 0x4 PUSH2 0xCCC JUMP JUMPDEST PUSH2 0xA5D JUMP JUMPDEST CALLVALUE DUP1 ISZERO PUSH2 0x37E JUMPI PUSH1 0x0 DUP1 REVERT JUMPDEST POP PUSH2 0x1A6 PUSH2 0xABA JUMP JUMPDEST CALLVALUE DUP1 ISZERO PUSH2 0x393 JUMPI PUSH1 0x0 DUP1 REVERT JUMPDEST POP PUSH1 0x2 SLOAD PUSH2 0x165 SWAP1 PUSH1 0x1 PUSH1 0x1 PUSH1 0xA0 SHL SUB AND DUP2 JUMP JUMPDEST CALLVALUE DUP1 ISZERO PUSH2 0x3B3 JUMPI PUSH1 0x0 DUP1 REVERT JUMPDEST POP PUSH2 0x1D4 PUSH2 0x3C2 CALLDATASIZE PUSH1 0x4 PUSH2 0xCCC JUMP JUMPDEST PUSH2 0xAEB JUMP JUMPDEST CALLVALUE DUP1 ISZERO PUSH2 0x3D3 JUMPI PUSH1 0x0 DUP1 REVERT JUMPDEST POP PUSH2 0x1D4 PUSH2 0x3E2 CALLDATASIZE PUSH1 0x4 PUSH2 0xCA8 JUMP JUMPDEST PUSH2 0xBA8 JUMP JUMPDEST PUSH1 0x1 SLOAD PUSH1 0x40 DUP1 MLOAD PUSH4 0x32A2C5D PUSH1 0xE4 SHL DUP2 MSTORE SWAP1 MLOAD PUSH1 0x0 SWAP3 PUSH1 0x1 PUSH1 0x1 PUSH1 0xA0 SHL SUB AND SWAP2 PUSH4 0x32A2C5D0 SWAP2 PUSH1 0x4 DUP1 DUP4 ADD SWAP3 PUSH1 0x20 SWAP3 SWAP2 SWAP1 DUP3 SWAP1 SUB ADD DUP2 DUP7 DUP1 EXTCODESIZE ISZERO DUP1 ISZERO PUSH2 0x42C JUMPI PUSH1 0x0 DUP1 REVERT JUMPDEST POP GAS STATICCALL ISZERO DUP1 ISZERO PUSH2 0x440 JUMPI RETURNDATASIZE PUSH1 0x0 DUP1 RETURNDATACOPY RETURNDATASIZE PUSH1 0x0 REVERT JUMPDEST POP POP POP POP PUSH1 0x40 MLOAD RETURNDATASIZE PUSH1 0x1F NOT PUSH1 0x1F DUP3 ADD AND DUP3 ADD DUP1 PUSH1 0x40 MSTORE POP DUP2 ADD SWAP1 PUSH2 0x464 SWAP2 SWAP1 PUSH2 0xD10 JUMP JUMPDEST SWAP1 POP SWAP1 JUMP JUMPDEST PUSH1 0x0 SLOAD PUSH1 0x1 PUSH1 0x1 PUSH1 0xA0 SHL SUB AND CALLER EQ PUSH2 0x49C JUMPI PUSH1 0x40 MLOAD PUSH3 0x461BCD PUSH1 0xE5 SHL DUP2 MSTORE PUSH1 0x4 ADD PUSH2 0x493 SWAP1 PUSH2 0xD2D JUMP JUMPDEST PUSH1 0x40 MLOAD DUP1 SWAP2 SUB SWAP1 REVERT JUMPDEST PUSH1 0x1 DUP1 SLOAD PUSH1 0x1 PUSH1 0x1 PUSH1 0xA0 SHL SUB NOT AND PUSH1 0x1 PUSH1 0x1 PUSH1 0xA0 SHL SUB SWAP3 SWAP1 SWAP3 AND SWAP2 SWAP1 SWAP2 OR SWAP1 SSTORE JUMP JUMPDEST PUSH2 0x3E8 CALLVALUE LT ISZERO PUSH2 0x509 JUMPI PUSH1 0x40 MLOAD PUSH3 0x461BCD PUSH1 0xE5 SHL DUP2 MSTORE PUSH1 0x20 PUSH1 0x4 DUP3 ADD MSTORE PUSH1 0x16 PUSH1 0x24 DUP3 ADD MSTORE PUSH22 0x2737BA1032B737BAB3B41026B0BA34B19039B2B73A17 PUSH1 0x51 SHL PUSH1 0x44 DUP3 ADD MSTORE PUSH1 0x64 ADD PUSH2 0x493 JUMP JUMPDEST PUSH1 0x7 SLOAD PUSH1 0xFF AND ISZERO PUSH2 0x60D JUMPI PUSH1 0x2 SLOAD PUSH1 0x40 MLOAD PUSH4 0x28DA575B PUSH1 0xE0 SHL DUP2 MSTORE CALLER PUSH1 0x4 DUP3 ADD MSTORE PUSH1 0x1 PUSH1 0x1 PUSH1 0xA0 SHL SUB SWAP1 SWAP2 AND SWAP1 PUSH4 0x28DA575B SWAP1 PUSH1 0x24 ADD PUSH1 0x20 PUSH1 0x40 MLOAD DUP1 DUP4 SUB DUP2 DUP7 DUP1 EXTCODESIZE ISZERO DUP1 ISZERO PUSH2 0x557 JUMPI PUSH1 0x0 DUP1 REVERT JUMPDEST POP GAS STATICCALL ISZERO DUP1 ISZERO PUSH2 0x56B JUMPI RETURNDATASIZE PUSH1 0x0 DUP1 RETURNDATACOPY RETURNDATASIZE PUSH1 0x0 REVERT JUMPDEST POP POP POP POP PUSH1 0x40 MLOAD RETURNDATASIZE PUSH1 0x1F NOT PUSH1 0x1F DUP3 ADD AND DUP3 ADD DUP1 PUSH1 0x40 MSTORE POP DUP2 ADD SWAP1 PUSH2 0x58F SWAP2 SWAP1 PUSH2 0xD62 JUMP JUMPDEST PUSH2 0x60D JUMPI PUSH1 0x40 MLOAD PUSH3 0x461BCD PUSH1 0xE5 SHL DUP2 MSTORE PUSH1 0x20 PUSH1 0x4 DUP3 ADD MSTORE PUSH1 0x43 PUSH1 0x24 DUP3 ADD MSTORE PUSH32 0x4F6E6C79206D656D626572732063616E20706172746963697061746520696E20 PUSH1 0x44 DUP3 ADD MSTORE PUSH32 0x7468652070726573616C6520666F722074686520666972737420323420686F75 PUSH1 0x64 DUP3 ADD MSTORE PUSH3 0x393997 PUSH1 0xE9 SHL PUSH1 0x84 DUP3 ADD MSTORE PUSH1 0xA4 ADD PUSH2 0x493 JUMP JUMPDEST PUSH1 0x0 PUSH2 0x3E8 PUSH1 0x5 SLOAD CALLVALUE PUSH2 0x620 SWAP2 SWAP1 PUSH2 0xD95 JUMP JUMPDEST PUSH2 0x62A SWAP2 SWAP1 PUSH2 0xDB4 JUMP JUMPDEST PUSH1 0x2 SLOAD PUSH1 0x40 MLOAD PUSH4 0x28DA575B PUSH1 0xE0 SHL DUP2 MSTORE CALLER PUSH1 0x4 DUP3 ADD MSTORE SWAP2 SWAP3 POP PUSH1 0x1 PUSH1 0x1 PUSH1 0xA0 SHL SUB AND SWAP1 PUSH4 0x28DA575B SWAP1 PUSH1 0x24 ADD PUSH1 0x20 PUSH1 0x40 MLOAD DUP1 DUP4 SUB DUP2 DUP7 DUP1 EXTCODESIZE ISZERO DUP1 ISZERO PUSH2 0x66E JUMPI PUSH1 0x0 DUP1 REVERT JUMPDEST POP GAS STATICCALL ISZERO DUP1 ISZERO PUSH2 0x682 JUMPI RETURNDATASIZE PUSH1 0x0 DUP1 RETURNDATACOPY RETURNDATASIZE PUSH1 0x0 REVERT JUMPDEST POP POP POP POP PUSH1 0x40 MLOAD RETURNDATASIZE PUSH1 0x1F NOT PUSH1 0x1F DUP3 ADD AND DUP3 ADD DUP1 PUSH1 0x40 MSTORE POP DUP2 ADD SWAP1 PUSH2 0x6A6 SWAP2 SWAP1 PUSH2 0xD62 JUMP JUMPDEST ISZERO PUSH2 0x6C8 JUMPI PUSH1 0x64 PUSH1 0x6 SLOAD DUP3 PUSH2 0x6BB SWAP2 SWAP1 PUSH2 0xD95 JUMP JUMPDEST PUSH2 0x6C5 SWAP2 SWAP1 PUSH2 0xDB4 JUMP JUMPDEST SWAP1 POP JUMPDEST PUSH1 0x4 SLOAD CALLER PUSH1 0x0 SWAP1 DUP2 MSTORE PUSH1 0x3 PUSH1 0x20 MSTORE PUSH1 0x40 SWAP1 KECCAK256 SLOAD PUSH2 0x6E6 SWAP1 DUP4 SWAP1 PUSH2 0xDD6 JUMP JUMPDEST GT ISZERO PUSH2 0x780 JUMPI PUSH1 0x40 MLOAD PUSH3 0x461BCD PUSH1 0xE5 SHL DUP2 MSTORE PUSH1 0x20 PUSH1 0x4 DUP3 ADD MSTORE PUSH1 0x58 PUSH1 0x24 DUP3 ADD MSTORE PUSH32 0x596F752063616E6E6F742070757263686173652074686973206D616E79204361 PUSH1 0x44 DUP3 ADD MSTORE PUSH32 0x7264696E616C20546F6B656E732C207468617420776F756C642070757420796F PUSH1 0x64 DUP3 ADD MSTORE PUSH32 0x75207061737420796F75722070726573616C65206361702E0000000000000000 PUSH1 0x84 DUP3 ADD MSTORE PUSH1 0xA4 ADD PUSH2 0x493 JUMP JUMPDEST CALLER PUSH1 0x0 SWAP1 DUP2 MSTORE PUSH1 0x3 PUSH1 0x20 MSTORE PUSH1 0x40 DUP2 KECCAK256 DUP1 SLOAD DUP4 SWAP3 SWAP1 PUSH2 0x79F SWAP1 DUP5 SWAP1 PUSH2 0xDD6 JUMP JUMPDEST SWAP1 SWAP2 SSTORE POP POP PUSH1 0x1 SLOAD PUSH1 0x40 MLOAD PUSH4 0xA9059CBB PUSH1 0xE0 SHL DUP2 MSTORE CALLER PUSH1 0x4 DUP3 ADD MSTORE PUSH1 0x24 DUP2 ADD DUP4 SWAP1 MSTORE PUSH1 0x1 PUSH1 0x1 PUSH1 0xA0 SHL SUB SWAP1 SWAP2 AND SWAP1 PUSH4 0xA9059CBB SWAP1 PUSH1 0x44 ADD PUSH1 0x20 PUSH1 0x40 MLOAD DUP1 DUP4 SUB DUP2 PUSH1 0x0 DUP8 DUP1 EXTCODESIZE ISZERO DUP1 ISZERO PUSH2 0x7F0 JUMPI PUSH1 0x0 DUP1 REVERT JUMPDEST POP GAS CALL ISZERO DUP1 ISZERO PUSH2 0x804 JUMPI RETURNDATASIZE PUSH1 0x0 DUP1 RETURNDATACOPY RETURNDATASIZE PUSH1 0x0 REVERT JUMPDEST POP POP POP POP PUSH1 0x40 MLOAD RETURNDATASIZE PUSH1 0x1F NOT PUSH1 0x1F DUP3 ADD AND DUP3 ADD DUP1 PUSH1 0x40 MSTORE POP DUP2 ADD SWAP1 PUSH2 0x828 SWAP2 SWAP1 PUSH2 0xD62 JUMP JUMPDEST POP PUSH1 0x40 DUP1 MLOAD CALLVALUE DUP2 MSTORE PUSH1 0x20 DUP2 ADD DUP4 SWAP1 MSTORE CALLER SWAP2 PUSH32 0x5A4E0A85F78AC0EAB0F16D020C23851C9530B0FA7CA3E20CBE13298C812DFA41 SWAP2 ADD PUSH1 0x40 MLOAD DUP1 SWAP2 SUB SWAP1 LOG2 POP JUMP JUMPDEST PUSH1 0x0 SLOAD PUSH1 0x1 PUSH1 0x1 PUSH1 0xA0 SHL SUB AND CALLER EQ PUSH2 0x891 JUMPI PUSH1 0x40 MLOAD PUSH3 0x461BCD PUSH1 0xE5 SHL DUP2 MSTORE PUSH1 0x4 ADD PUSH2 0x493 SWAP1 PUSH2 0xD2D JUMP JUMPDEST PUSH1 0x4 DUP2 SWAP1 SSTORE PUSH1 0x40 MLOAD DUP2 SWAP1 PUSH32 0x75948AE2003CE2C50EDDD1DEFB6C302649AAFE8129675F90AB26B8D640D0652F SWAP1 PUSH1 0x0 SWAP1 LOG2 POP JUMP JUMPDEST PUSH1 0x0 SLOAD PUSH1 0x1 PUSH1 0x1 PUSH1 0xA0 SHL SUB AND CALLER EQ PUSH2 0x8EE JUMPI PUSH1 0x40 MLOAD PUSH3 0x461BCD PUSH1 0xE5 SHL DUP2 MSTORE PUSH1 0x4 ADD PUSH2 0x493 SWAP1 PUSH2 0xD2D JUMP JUMPDEST PUSH2 0x8F8 PUSH1 0x0 PUSH2 0xC43 JUMP JUMPDEST JUMP JUMPDEST PUSH1 0x0 SLOAD PUSH1 0x1 PUSH1 0x1 PUSH1 0xA0 SHL SUB AND CALLER EQ PUSH2 0x924 JUMPI PUSH1 0x40 MLOAD PUSH3 0x461BCD PUSH1 0xE5 SHL DUP2 MSTORE PUSH1 0x4 ADD PUSH2 0x493 SWAP1 PUSH2 0xD2D JUMP JUMPDEST PUSH1 0x7 DUP1 SLOAD PUSH1 0xFF NOT AND SWAP2 ISZERO ISZERO SWAP2 SWAP1 SWAP2 OR SWAP1 SSTORE JUMP JUMPDEST PUSH1 0x0 SLOAD PUSH1 0x1 PUSH1 0x1 PUSH1 0xA0 SHL SUB AND CALLER EQ PUSH2 0x961 JUMPI PUSH1 0x40 MLOAD PUSH3 0x461BCD PUSH1 0xE5 SHL DUP2 MSTORE PUSH1 0x4 ADD PUSH2 0x493 SWAP1 PUSH2 0xD2D JUMP JUMPDEST PUSH1 0x6 DUP2 SWAP1 SSTORE PUSH1 0x40 MLOAD DUP2 SWAP1 PUSH32 0x114664EDD982E7761F0A9074F4311B4C27A9895AC6E2F44EAC3A249193C08AFD SWAP1 PUSH1 0x0 SWAP1 LOG2 POP JUMP JUMPDEST PUSH1 0x1 SLOAD PUSH1 0x40 MLOAD PUSH4 0x70A08231 PUSH1 0xE0 SHL DUP2 MSTORE CALLER PUSH1 0x4 DUP3 ADD MSTORE PUSH1 0x0 SWAP2 PUSH1 0x1 PUSH1 0x1 PUSH1 0xA0 SHL SUB AND SWAP1 PUSH4 0x70A08231 SWAP1 PUSH1 0x24 ADD JUMPDEST PUSH1 0x20 PUSH1 0x40 MLOAD DUP1 DUP4 SUB DUP2 DUP7 DUP1 EXTCODESIZE ISZERO DUP1 ISZERO PUSH2 0x9D9 JUMPI PUSH1 0x0 DUP1 REVERT JUMPDEST POP GAS STATICCALL ISZERO DUP1 ISZERO PUSH2 0x9ED JUMPI RETURNDATASIZE PUSH1 0x0 DUP1 RETURNDATACOPY RETURNDATASIZE PUSH1 0x0 REVERT JUMPDEST POP POP POP POP PUSH1 0x40 MLOAD RETURNDATASIZE PUSH1 0x1F NOT PUSH1 0x1F DUP3 ADD AND DUP3 ADD DUP1 PUSH1 0x40 MSTORE POP DUP2 ADD SWAP1 PUSH2 0x464 SWAP2 SWAP1 PUSH2 0xDEE JUMP JUMPDEST PUSH1 0x0 SLOAD PUSH1 0x1 PUSH1 0x1 PUSH1 0xA0 SHL SUB AND CALLER EQ PUSH2 0xA3B JUMPI PUSH1 0x40 MLOAD PUSH3 0x461BCD PUSH1 0xE5 SHL DUP2 MSTORE PUSH1 0x4 ADD PUSH2 0x493 SWAP1 PUSH2 0xD2D JUMP JUMPDEST PUSH1 0x2 DUP1 SLOAD PUSH1 0x1 PUSH1 0x1 PUSH1 0xA0 SHL SUB NOT AND PUSH1 0x1 PUSH1 0x1 PUSH1 0xA0 SHL SUB SWAP3 SWAP1 SWAP3 AND SWAP2 SWAP1 SWAP2 OR SWAP1 SSTORE JUMP JUMPDEST PUSH1 0x0 SLOAD PUSH1 0x1 PUSH1 0x1 PUSH1 0xA0 SHL SUB AND CALLER EQ PUSH2 0xA87 JUMPI PUSH1 0x40 MLOAD PUSH3 0x461BCD PUSH1 0xE5 SHL DUP2 MSTORE PUSH1 0x4 ADD PUSH2 0x493 SWAP1 PUSH2 0xD2D JUMP JUMPDEST PUSH1 0x5 DUP2 SWAP1 SSTORE PUSH1 0x40 MLOAD DUP2 SWAP1 PUSH32 0xCD06B67634B8787DAFADD5A57F391F26DCD29D6EBB8C345340E12987826F7EC7 SWAP1 PUSH1 0x0 SWAP1 LOG2 POP JUMP JUMPDEST PUSH1 0x1 SLOAD PUSH1 0x40 MLOAD PUSH4 0x70A08231 PUSH1 0xE0 SHL DUP2 MSTORE ADDRESS PUSH1 0x4 DUP3 ADD MSTORE PUSH1 0x0 SWAP2 PUSH1 0x1 PUSH1 0x1 PUSH1 0xA0 SHL SUB AND SWAP1 PUSH4 0x70A08231 SWAP1 PUSH1 0x24 ADD PUSH2 0x9C1 JUMP JUMPDEST PUSH1 0x0 SLOAD PUSH1 0x1 PUSH1 0x1 PUSH1 0xA0 SHL SUB AND CALLER EQ PUSH2 0xB15 JUMPI PUSH1 0x40 MLOAD PUSH3 0x461BCD PUSH1 0xE5 SHL DUP2 MSTORE PUSH1 0x4 ADD PUSH2 0x493 SWAP1 PUSH2 0xD2D JUMP JUMPDEST PUSH1 0x40 MLOAD PUSH1 0x0 SWAP1 CALLER SWAP1 DUP4 SWAP1 DUP4 DUP2 DUP2 DUP2 DUP6 DUP8 GAS CALL SWAP3 POP POP POP RETURNDATASIZE DUP1 PUSH1 0x0 DUP2 EQ PUSH2 0xB57 JUMPI PUSH1 0x40 MLOAD SWAP2 POP PUSH1 0x1F NOT PUSH1 0x3F RETURNDATASIZE ADD AND DUP3 ADD PUSH1 0x40 MSTORE RETURNDATASIZE DUP3 MSTORE RETURNDATASIZE PUSH1 0x0 PUSH1 0x20 DUP5 ADD RETURNDATACOPY PUSH2 0xB5C JUMP JUMPDEST PUSH1 0x60 SWAP2 POP JUMPDEST POP POP SWAP1 POP DUP1 PUSH2 0xBA4 JUMPI PUSH1 0x40 MLOAD PUSH3 0x461BCD PUSH1 0xE5 SHL DUP2 MSTORE PUSH1 0x20 PUSH1 0x4 DUP3 ADD MSTORE PUSH1 0x14 PUSH1 0x24 DUP3 ADD MSTORE PUSH20 0x4661696C656420746F2073656E64204D61746963 PUSH1 0x60 SHL PUSH1 0x44 DUP3 ADD MSTORE PUSH1 0x64 ADD PUSH2 0x493 JUMP JUMPDEST POP POP JUMP JUMPDEST PUSH1 0x0 SLOAD PUSH1 0x1 PUSH1 0x1 PUSH1 0xA0 SHL SUB AND CALLER EQ PUSH2 0xBD2 JUMPI PUSH1 0x40 MLOAD PUSH3 0x461BCD PUSH1 0xE5 SHL DUP2 MSTORE PUSH1 0x4 ADD PUSH2 0x493 SWAP1 PUSH2 0xD2D JUMP JUMPDEST PUSH1 0x1 PUSH1 0x1 PUSH1 0xA0 SHL SUB DUP2 AND PUSH2 0xC37 JUMPI PUSH1 0x40 MLOAD PUSH3 0x461BCD PUSH1 0xE5 SHL DUP2 MSTORE PUSH1 0x20 PUSH1 0x4 DUP3 ADD MSTORE PUSH1 0x26 PUSH1 0x24 DUP3 ADD MSTORE PUSH32 0x4F776E61626C653A206E6577206F776E657220697320746865207A65726F2061 PUSH1 0x44 DUP3 ADD MSTORE PUSH6 0x646472657373 PUSH1 0xD0 SHL PUSH1 0x64 DUP3 ADD MSTORE PUSH1 0x84 ADD PUSH2 0x493 JUMP JUMPDEST PUSH2 0xC40 DUP2 PUSH2 0xC43 JUMP JUMPDEST POP JUMP JUMPDEST PUSH1 0x0 DUP1 SLOAD PUSH1 0x1 PUSH1 0x1 PUSH1 0xA0 SHL SUB DUP4 DUP2 AND PUSH1 0x1 PUSH1 0x1 PUSH1 0xA0 SHL SUB NOT DUP4 AND DUP2 OR DUP5 SSTORE PUSH1 0x40 MLOAD SWAP2 SWAP1 SWAP3 AND SWAP3 DUP4 SWAP2 PUSH32 0x8BE0079C531659141344CD1FD0A4F28419497F9722A3DAAFE3B4186F6B6457E0 SWAP2 SWAP1 LOG3 POP POP JUMP JUMPDEST PUSH1 0x1 PUSH1 0x1 PUSH1 0xA0 SHL SUB DUP2 AND DUP2 EQ PUSH2 0xC40 JUMPI PUSH1 0x0 DUP1 REVERT JUMPDEST PUSH1 0x0 PUSH1 0x20 DUP3 DUP5 SUB SLT ISZERO PUSH2 0xCBA JUMPI PUSH1 0x0 DUP1 REVERT JUMPDEST DUP2 CALLDATALOAD PUSH2 0xCC5 DUP2 PUSH2 0xC93 JUMP JUMPDEST SWAP4 SWAP3 POP POP POP JUMP JUMPDEST PUSH1 0x0 PUSH1 0x20 DUP3 DUP5 SUB SLT ISZERO PUSH2 0xCDE JUMPI PUSH1 0x0 DUP1 REVERT JUMPDEST POP CALLDATALOAD SWAP2 SWAP1 POP JUMP JUMPDEST DUP1 ISZERO ISZERO DUP2 EQ PUSH2 0xC40 JUMPI PUSH1 0x0 DUP1 REVERT JUMPDEST PUSH1 0x0 PUSH1 0x20 DUP3 DUP5 SUB SLT ISZERO PUSH2 0xD05 JUMPI PUSH1 0x0 DUP1 REVERT JUMPDEST DUP2 CALLDATALOAD PUSH2 0xCC5 DUP2 PUSH2 0xCE5 JUMP JUMPDEST PUSH1 0x0 PUSH1 0x20 DUP3 DUP5 SUB SLT ISZERO PUSH2 0xD22 JUMPI PUSH1 0x0 DUP1 REVERT JUMPDEST DUP2 MLOAD PUSH2 0xCC5 DUP2 PUSH2 0xC93 JUMP JUMPDEST PUSH1 0x20 DUP1 DUP3 MSTORE DUP2 DUP2 ADD MSTORE PUSH32 0x4F776E61626C653A2063616C6C6572206973206E6F7420746865206F776E6572 PUSH1 0x40 DUP3 ADD MSTORE PUSH1 0x60 ADD SWAP1 JUMP JUMPDEST PUSH1 0x0 PUSH1 0x20 DUP3 DUP5 SUB SLT ISZERO PUSH2 0xD74 JUMPI PUSH1 0x0 DUP1 REVERT JUMPDEST DUP2 MLOAD PUSH2 0xCC5 DUP2 PUSH2 0xCE5 JUMP JUMPDEST PUSH4 0x4E487B71 PUSH1 0xE0 SHL PUSH1 0x0 MSTORE PUSH1 0x11 PUSH1 0x4 MSTORE PUSH1 0x24 PUSH1 0x0 REVERT JUMPDEST PUSH1 0x0 DUP2 PUSH1 0x0 NOT DIV DUP4 GT DUP3 ISZERO ISZERO AND ISZERO PUSH2 0xDAF JUMPI PUSH2 0xDAF PUSH2 0xD7F JUMP JUMPDEST POP MUL SWAP1 JUMP JUMPDEST PUSH1 0x0 DUP3 PUSH2 0xDD1 JUMPI PUSH4 0x4E487B71 PUSH1 0xE0 SHL PUSH1 0x0 MSTORE PUSH1 0x12 PUSH1 0x4 MSTORE PUSH1 0x24 PUSH1 0x0 REVERT JUMPDEST POP DIV SWAP1 JUMP JUMPDEST PUSH1 0x0 DUP3 NOT DUP3 GT ISZERO PUSH2 0xDE9 JUMPI PUSH2 0xDE9 PUSH2 0xD7F JUMP JUMPDEST POP ADD SWAP1 JUMP JUMPDEST PUSH1 0x0 PUSH1 0x20 DUP3 DUP5 SUB SLT ISZERO PUSH2 0xE00 JUMPI PUSH1 0x0 DUP1 REVERT JUMPDEST POP MLOAD SWAP2 SWAP1 POP JUMP INVALID LOG2 PUSH5 0x6970667358 0x22 SLT KECCAK256 SIGNEXTEND TIMESTAMP MLOAD PUSH13 0x3DACBD7B2C389A837397AEDE1A RETURN DUP13 0xAD LOG1 0x4D PUSH15 0xD7F1273DB230B6CCA864736F6C6343 STOP ADDMOD ADDMOD STOP CALLER ",
  "sha1": "41130f1a5813a457c0d272c7e0c50ff51b2babbc",
  "source": "// SPDX-License-Identifier: MIT\n \npragma solidity 0.8.8;\n \nimport \"@openzeppelin/contracts/access/Ownable.sol\";\nimport \"@openzeppelin/contracts/utils/Strings.sol\";\nimport './CardinalToken.sol';\nimport './CardinalNFT.sol';\n\n/**\n * @title Cardinal House Presale contract\n * @dev Contract responsible for the Cardinal House presale mechanisms\n */\ncontract CardinalHousePreSale is Ownable {\n\n    // References the deployed Cardinal Token.\n    CardinalToken public cardinalToken;\n\n    // References the deployed Cardinal NFT contract.\n    CardinalNFT public cardinalNFT;\n\n    // Mapping to determine how many Cardinal Tokens each address has purchased in the presale.\n    mapping(address => uint256) public addressToAmountPurchased;\n\n    // The limit for how many Cardinal Tokens each user can purchase during the presale.\n    uint256 public purchaseCap = 100000 * 10 ** 18;\n\n    // 1 Matic can be used to buy this many Cardinal Tokens.\n    uint256 public MaticToCRNLRate = 27133;\n\n    // Determines the discount Cardinal House members get in the presale.\n    uint256 public memberDiscountAmount = 110;\n\n    // Determines if only members can participate in the presale - will be set to true for the first 24 hours of the presale.\n    bool public onlyMembers = false;\n\n    event cardinalTokensPurchased(address indexed buyer, uint256 maticAmount, uint256 cardinalTokenAmount);\n    event purchaseCapUpdated(uint256 indexed newPurchaseCap);\n    event maticToCRNLRateUpdated(uint256 indexed newMaticToCRNLRate);\n    event memberDiscountUpdated(uint256 indexed newMemberDiscountAmount);\n \n    /**\n    * @dev Once the Cardinal Token contract is deployed, this function is used to set a reference to that token in this contract.\n    * @param CardinalTokenAddress address of the Cardinal Token.\n     */\n    function setToken(address payable CardinalTokenAddress) external onlyOwner {\n        cardinalToken = CardinalToken(CardinalTokenAddress);\n    }\n\n    /**\n    * @dev Once the Cardinal NFT contract is deployed, this function is used to set a reference to that NFT contract for member discounts in the presale.\n    * @param CardinalNFTAddress address of the deployed Cardinal NFT contract.\n    */\n    function setCardinalNFT(address payable CardinalNFTAddress) external onlyOwner {\n        cardinalNFT = CardinalNFT(CardinalNFTAddress);\n    }\n\n    /**\n    * @dev Gets the amount of Cardinal Tokens the sender owns.\n    * @return the Cardinal Token balance of the sender\n    */\n    function getUserBalance() external view returns (uint256) {\n        return cardinalToken.balanceOf(msg.sender);\n    }\n \n     /**\n     * @dev Returns the contract address\n     * @return contract address\n     */\n    function getContractAddress() external view returns (address) {\n        return address(this);\n    }\n \n     /**\n     * @dev Returns the Cardinal Token address\n     * @return Cardinal Token contract address\n     */\n    function getTokenAddress() external view returns (address) {\n        return cardinalToken.getContractAddress();\n    }\n \n    /**\n    * @dev Allows a user to pay Matic for Cardinal Tokens. Conversion rate is 1 Matic to MaticToCRNLRate Cardinal Tokens (CRNL) where MaticToCRNLRate is the variable defined in the contract.\n     */\n    function purchaseCardinalTokens() external payable {\n        require(msg.value >= 1000, \"Not enough Matic sent.\");\n\n        if (onlyMembers) {\n            require(cardinalNFT.addressIsMember(msg.sender), \"Only members can participate in the presale for the first 24 hours.\");\n        }\n\n        // 1 Matic = [MaticToCRNLRate] / 1000 Cardinal Tokens to transfer to msg sender\n        uint256 CardinalTokenAmount = (msg.value * MaticToCRNLRate) / 1000;\n\n        if (cardinalNFT.addressIsMember(msg.sender)) {\n            CardinalTokenAmount = (CardinalTokenAmount * memberDiscountAmount) / 100;\n        }\n\n        require(addressToAmountPurchased[msg.sender] + CardinalTokenAmount <= purchaseCap,  \"You cannot purchase this many Cardinal Tokens, that would put you past your presale cap.\");\n \n        addressToAmountPurchased[msg.sender] += CardinalTokenAmount;\n        cardinalToken.transfer(msg.sender, CardinalTokenAmount);\n\n        emit cardinalTokensPurchased(msg.sender, msg.value, CardinalTokenAmount);\n    }\n\n    /**\n    * @dev Only owner function to change the presale Cardinal Token purchase cap per user.\n    * @param newPurchaseCap the new Cardinal Token purchase cap in CRNL (NOT Matic). Use the conversion rate to figure out how many Cardinal Tokens to set here.\n     */\n    function changeCardinalTokenPurchaseCap(uint256 newPurchaseCap) external onlyOwner {\n        purchaseCap = newPurchaseCap;\n        emit purchaseCapUpdated(newPurchaseCap);\n    }\n\n    /**\n    * @dev Only owner function to change the conversion rate for Matic to Cardinal Token.\n    * @param newConversionRate the new Matic to Cardinal Token conversion rate.\n     */\n    function changeMaticToCardinalTokenRate(uint256 newConversionRate) external onlyOwner {\n        MaticToCRNLRate = newConversionRate;\n        emit maticToCRNLRateUpdated(newConversionRate);\n    }\n\n    /**\n    * @dev Only owner function to change the member discount for the presale.\n    * @param newMemberDiscountAmount the new member discount - 10% off would be 110, 25% off would be 125, etc.\n    */\n    function changeMemberDiscountAmount(uint256 newMemberDiscountAmount) external onlyOwner {\n        memberDiscountAmount = newMemberDiscountAmount;\n        emit memberDiscountUpdated(newMemberDiscountAmount);\n    }\n\n    /**\n    * @dev Only owner function to change if only members can participate in the presale or if everyone can.\n    * @param newOnlyMembers true or false - determines if only members can participate in the presale.\n    */\n    function changeOnlyMembers(bool newOnlyMembers) external onlyOwner {\n        onlyMembers = newOnlyMembers;\n    }\n \n    /**\n    * @dev Only owner function to withdraw the Matic from this contract.\n    * @param amount the amount of Matic to withdraw from the pre-sale contract.\n     */\n    function withdrawMatic(uint256 amount) external onlyOwner {\n        (bool success, ) = msg.sender.call{value: amount}(\"\");\n        require(success, \"Failed to send Matic\");\n    }\n \n    /**\n    * @dev Gets the amount of Matic that the contract has.\n    * @return the amount of Matic the contract has.\n     */\n    function getContractMatic() external view returns(uint256) {\n        return address(this).balance;\n    }\n \n    /**\n    * @dev Gets the Cardinal Token balance of the contract.\n    * @return the amount of Cardinal Tokens the contract has.\n     */\n    function getContractTokens() external view returns(uint256) {\n        return cardinalToken.balanceOf(address(this));\n    }\n}",
  "sourcePath": "contracts/CardinalHousePreSale.sol",
  "type": "contract"
}