{
  "abi": [
    {
      "inputs": [
        {
          "internalType": "uint256",
          "name": "initialSupply",
          "type": "uint256"
        },
        {
          "internalType": "address",
          "name": "_preSaleAddress",
          "type": "address"
        },
        {
          "internalType": "address",
          "name": "_burnWalletAddress",
          "type": "address"
        },
        {
          "internalType": "address",
          "name": "_liquidityWalletAddress",
          "type": "address"
        },
        {
          "internalType": "address payable",
          "name": "_memberGiveawayWalletAddress",
          "type": "address"
        },
        {
          "internalType": "address payable",
          "name": "_marketingWalletAddress",
          "type": "address"
        },
        {
          "internalType": "address payable",
          "name": "_developerWalletAddress",
          "type": "address"
        },
        {
          "internalType": "address",
          "name": "_uniswapRouterAddress",
          "type": "address"
        }
      ],
      "stateMutability": "nonpayable",
      "type": "constructor"
    },
    {
      "anonymous": false,
      "inputs": [
        {
          "indexed": true,
          "internalType": "address",
          "name": "owner",
          "type": "address"
        },
        {
          "indexed": true,
          "internalType": "address",
          "name": "spender",
          "type": "address"
        },
        {
          "indexed": false,
          "internalType": "uint256",
          "name": "value",
          "type": "uint256"
        }
      ],
      "name": "Approval",
      "type": "event"
    },
    {
      "anonymous": false,
      "inputs": [
        {
          "indexed": true,
          "internalType": "address",
          "name": "previousOwner",
          "type": "address"
        },
        {
          "indexed": true,
          "internalType": "address",
          "name": "newOwner",
          "type": "address"
        }
      ],
      "name": "OwnershipTransferred",
      "type": "event"
    },
    {
      "anonymous": false,
      "inputs": [
        {
          "indexed": true,
          "internalType": "address",
          "name": "from",
          "type": "address"
        },
        {
          "indexed": true,
          "internalType": "address",
          "name": "to",
          "type": "address"
        },
        {
          "indexed": false,
          "internalType": "uint256",
          "name": "value",
          "type": "uint256"
        }
      ],
      "name": "Transfer",
      "type": "event"
    },
    {
      "anonymous": false,
      "inputs": [
        {
          "indexed": true,
          "internalType": "uint256",
          "name": "transactionFeeAmount",
          "type": "uint256"
        }
      ],
      "name": "developerTransactionFeeUpdated",
      "type": "event"
    },
    {
      "anonymous": false,
      "inputs": [
        {
          "indexed": true,
          "internalType": "uint256",
          "name": "transactionFeeAmount",
          "type": "uint256"
        }
      ],
      "name": "marketingTransactionFeeUpdated",
      "type": "event"
    },
    {
      "anonymous": false,
      "inputs": [
        {
          "indexed": true,
          "internalType": "uint256",
          "name": "transactionFeeAmount",
          "type": "uint256"
        }
      ],
      "name": "memberGiveawayTransactionFeeUpdated",
      "type": "event"
    },
    {
      "inputs": [
        {
          "internalType": "address",
          "name": "owner",
          "type": "address"
        },
        {
          "internalType": "address",
          "name": "spender",
          "type": "address"
        }
      ],
      "name": "allowance",
      "outputs": [
        {
          "internalType": "uint256",
          "name": "",
          "type": "uint256"
        }
      ],
      "stateMutability": "view",
      "type": "function"
    },
    {
      "inputs": [
        {
          "internalType": "address",
          "name": "spender",
          "type": "address"
        },
        {
          "internalType": "uint256",
          "name": "amount",
          "type": "uint256"
        }
      ],
      "name": "approve",
      "outputs": [
        {
          "internalType": "bool",
          "name": "",
          "type": "bool"
        }
      ],
      "stateMutability": "nonpayable",
      "type": "function"
    },
    {
      "inputs": [
        {
          "internalType": "address",
          "name": "account",
          "type": "address"
        }
      ],
      "name": "balanceOf",
      "outputs": [
        {
          "internalType": "uint256",
          "name": "",
          "type": "uint256"
        }
      ],
      "stateMutability": "view",
      "type": "function"
    },
    {
      "inputs": [
        {
          "internalType": "address",
          "name": "",
          "type": "address"
        }
      ],
      "name": "blacklist",
      "outputs": [
        {
          "internalType": "bool",
          "name": "",
          "type": "bool"
        }
      ],
      "stateMutability": "view",
      "type": "function"
    },
    {
      "inputs": [
        {
          "internalType": "address",
          "name": "user",
          "type": "address"
        },
        {
          "internalType": "uint256",
          "name": "amount",
          "type": "uint256"
        }
      ],
      "name": "burn",
      "outputs": [],
      "stateMutability": "nonpayable",
      "type": "function"
    },
    {
      "inputs": [],
      "name": "burnWalletAddress",
      "outputs": [
        {
          "internalType": "address",
          "name": "",
          "type": "address"
        }
      ],
      "stateMutability": "view",
      "type": "function"
    },
    {
      "inputs": [],
      "name": "contractTokenDivisor",
      "outputs": [
        {
          "internalType": "uint256",
          "name": "",
          "type": "uint256"
        }
      ],
      "stateMutability": "view",
      "type": "function"
    },
    {
      "inputs": [],
      "name": "decimals",
      "outputs": [
        {
          "internalType": "uint8",
          "name": "",
          "type": "uint8"
        }
      ],
      "stateMutability": "view",
      "type": "function"
    },
    {
      "inputs": [
        {
          "internalType": "address",
          "name": "spender",
          "type": "address"
        },
        {
          "internalType": "uint256",
          "name": "subtractedValue",
          "type": "uint256"
        }
      ],
      "name": "decreaseAllowance",
      "outputs": [
        {
          "internalType": "bool",
          "name": "",
          "type": "bool"
        }
      ],
      "stateMutability": "nonpayable",
      "type": "function"
    },
    {
      "inputs": [],
      "name": "developerFeePercent",
      "outputs": [
        {
          "internalType": "uint256",
          "name": "",
          "type": "uint256"
        }
      ],
      "stateMutability": "view",
      "type": "function"
    },
    {
      "inputs": [],
      "name": "developerWalletAddress",
      "outputs": [
        {
          "internalType": "address payable",
          "name": "",
          "type": "address"
        }
      ],
      "stateMutability": "view",
      "type": "function"
    },
    {
      "inputs": [],
      "name": "disperseFeesManually",
      "outputs": [],
      "stateMutability": "nonpayable",
      "type": "function"
    },
    {
      "inputs": [
        {
          "internalType": "address",
          "name": "user",
          "type": "address"
        }
      ],
      "name": "excludeUserFromFees",
      "outputs": [],
      "stateMutability": "nonpayable",
      "type": "function"
    },
    {
      "inputs": [
        {
          "internalType": "address",
          "name": "",
          "type": "address"
        }
      ],
      "name": "excludedFromFees",
      "outputs": [
        {
          "internalType": "bool",
          "name": "",
          "type": "bool"
        }
      ],
      "stateMutability": "view",
      "type": "function"
    },
    {
      "inputs": [],
      "name": "getContractAddress",
      "outputs": [
        {
          "internalType": "address",
          "name": "",
          "type": "address"
        }
      ],
      "stateMutability": "view",
      "type": "function"
    },
    {
      "inputs": [],
      "name": "getCurrentTimestamp",
      "outputs": [
        {
          "internalType": "uint256",
          "name": "",
          "type": "uint256"
        }
      ],
      "stateMutability": "view",
      "type": "function"
    },
    {
      "inputs": [
        {
          "internalType": "address",
          "name": "user",
          "type": "address"
        }
      ],
      "name": "includeUsersInFees",
      "outputs": [],
      "stateMutability": "nonpayable",
      "type": "function"
    },
    {
      "inputs": [
        {
          "internalType": "address",
          "name": "spender",
          "type": "address"
        },
        {
          "internalType": "uint256",
          "name": "addedValue",
          "type": "uint256"
        }
      ],
      "name": "increaseAllowance",
      "outputs": [
        {
          "internalType": "bool",
          "name": "",
          "type": "bool"
        }
      ],
      "stateMutability": "nonpayable",
      "type": "function"
    },
    {
      "inputs": [],
      "name": "liquidityWalletAddress",
      "outputs": [
        {
          "internalType": "address",
          "name": "",
          "type": "address"
        }
      ],
      "stateMutability": "view",
      "type": "function"
    },
    {
      "inputs": [],
      "name": "marketingFeePercent",
      "outputs": [
        {
          "internalType": "uint256",
          "name": "",
          "type": "uint256"
        }
      ],
      "stateMutability": "view",
      "type": "function"
    },
    {
      "inputs": [],
      "name": "marketingWalletAddress",
      "outputs": [
        {
          "internalType": "address payable",
          "name": "",
          "type": "address"
        }
      ],
      "stateMutability": "view",
      "type": "function"
    },
    {
      "inputs": [],
      "name": "memberGiveawayFeePercent",
      "outputs": [
        {
          "internalType": "uint256",
          "name": "",
          "type": "uint256"
        }
      ],
      "stateMutability": "view",
      "type": "function"
    },
    {
      "inputs": [],
      "name": "memberGiveawayWalletAddress",
      "outputs": [
        {
          "internalType": "address payable",
          "name": "",
          "type": "address"
        }
      ],
      "stateMutability": "view",
      "type": "function"
    },
    {
      "inputs": [
        {
          "internalType": "address",
          "name": "user",
          "type": "address"
        },
        {
          "internalType": "uint256",
          "name": "amount",
          "type": "uint256"
        }
      ],
      "name": "mint",
      "outputs": [],
      "stateMutability": "nonpayable",
      "type": "function"
    },
    {
      "inputs": [
        {
          "internalType": "address",
          "name": "",
          "type": "address"
        }
      ],
      "name": "minters",
      "outputs": [
        {
          "internalType": "bool",
          "name": "",
          "type": "bool"
        }
      ],
      "stateMutability": "view",
      "type": "function"
    },
    {
      "inputs": [],
      "name": "name",
      "outputs": [
        {
          "internalType": "string",
          "name": "",
          "type": "string"
        }
      ],
      "stateMutability": "view",
      "type": "function"
    },
    {
      "inputs": [],
      "name": "owner",
      "outputs": [
        {
          "internalType": "address",
          "name": "",
          "type": "address"
        }
      ],
      "stateMutability": "view",
      "type": "function"
    },
    {
      "inputs": [],
      "name": "preSaleAddress",
      "outputs": [
        {
          "internalType": "address",
          "name": "",
          "type": "address"
        }
      ],
      "stateMutability": "view",
      "type": "function"
    },
    {
      "inputs": [],
      "name": "renounceOwnership",
      "outputs": [],
      "stateMutability": "nonpayable",
      "type": "function"
    },
    {
      "inputs": [
        {
          "internalType": "uint256",
          "name": "newDivisor",
          "type": "uint256"
        }
      ],
      "name": "setContractTokenDivisor",
      "outputs": [],
      "stateMutability": "nonpayable",
      "type": "function"
    },
    {
      "inputs": [
        {
          "internalType": "uint256",
          "name": "amount",
          "type": "uint256"
        },
        {
          "internalType": "bool",
          "name": "useAmount",
          "type": "bool"
        }
      ],
      "name": "swapCardinalTokensForMaticManually",
      "outputs": [],
      "stateMutability": "nonpayable",
      "type": "function"
    },
    {
      "inputs": [],
      "name": "symbol",
      "outputs": [
        {
          "internalType": "string",
          "name": "",
          "type": "string"
        }
      ],
      "stateMutability": "view",
      "type": "function"
    },
    {
      "inputs": [],
      "name": "totalSupply",
      "outputs": [
        {
          "internalType": "uint256",
          "name": "",
          "type": "uint256"
        }
      ],
      "stateMutability": "view",
      "type": "function"
    },
    {
      "inputs": [
        {
          "internalType": "address",
          "name": "recipient",
          "type": "address"
        },
        {
          "internalType": "uint256",
          "name": "amount",
          "type": "uint256"
        }
      ],
      "name": "transfer",
      "outputs": [
        {
          "internalType": "bool",
          "name": "",
          "type": "bool"
        }
      ],
      "stateMutability": "nonpayable",
      "type": "function"
    },
    {
      "inputs": [
        {
          "internalType": "address",
          "name": "from",
          "type": "address"
        },
        {
          "internalType": "address",
          "name": "to",
          "type": "address"
        },
        {
          "internalType": "uint256",
          "name": "amount",
          "type": "uint256"
        }
      ],
      "name": "transferFrom",
      "outputs": [
        {
          "internalType": "bool",
          "name": "",
          "type": "bool"
        }
      ],
      "stateMutability": "nonpayable",
      "type": "function"
    },
    {
      "inputs": [
        {
          "internalType": "address",
          "name": "newOwner",
          "type": "address"
        }
      ],
      "name": "transferOwnership",
      "outputs": [],
      "stateMutability": "nonpayable",
      "type": "function"
    },
    {
      "inputs": [],
      "name": "uniswapPair",
      "outputs": [
        {
          "internalType": "address",
          "name": "",
          "type": "address"
        }
      ],
      "stateMutability": "view",
      "type": "function"
    },
    {
      "inputs": [],
      "name": "uniswapRouterAddress",
      "outputs": [
        {
          "internalType": "address",
          "name": "",
          "type": "address"
        }
      ],
      "stateMutability": "view",
      "type": "function"
    },
    {
      "inputs": [
        {
          "internalType": "address",
          "name": "user",
          "type": "address"
        },
        {
          "internalType": "bool",
          "name": "blacklisted",
          "type": "bool"
        }
      ],
      "name": "updateBlackList",
      "outputs": [],
      "stateMutability": "nonpayable",
      "type": "function"
    },
    {
      "inputs": [
        {
          "internalType": "uint256",
          "name": "newDeveloperTransactionFee",
          "type": "uint256"
        }
      ],
      "name": "updateDeveloperTransactionFee",
      "outputs": [],
      "stateMutability": "nonpayable",
      "type": "function"
    },
    {
      "inputs": [
        {
          "internalType": "uint256",
          "name": "newMarketingTransactionFee",
          "type": "uint256"
        }
      ],
      "name": "updateMarketingTransactionFee",
      "outputs": [],
      "stateMutability": "nonpayable",
      "type": "function"
    },
    {
      "inputs": [
        {
          "internalType": "uint256",
          "name": "newMemberGiveawayTransactionFee",
          "type": "uint256"
        }
      ],
      "name": "updateMemberGiveawayTransactionFee",
      "outputs": [],
      "stateMutability": "nonpayable",
      "type": "function"
    },
    {
      "inputs": [
        {
          "internalType": "address",
          "name": "user",
          "type": "address"
        },
        {
          "internalType": "bool",
          "name": "isMinter",
          "type": "bool"
        }
      ],
      "name": "updateMinter",
      "outputs": [],
      "stateMutability": "nonpayable",
      "type": "function"
    },
    {
      "stateMutability": "payable",
      "type": "receive"
    }
  ],
  "bytecode": "60806040526002601055600260115560016012556103e86015553480156200002657600080fd5b5060405162002cd938038062002cd98339810160408190526200004991620007a2565b604080518082018252600d81526c21b0b93234b730b62a37b5b2b760991b60208083019182528351808501909452600484526310d4939360e21b9084015281519192916200009a91600391620006e3565b508051620000b0906004906020840190620006e3565b505050620000cd620000c76200047c60201b60201c565b62000480565b600b80546001600160a01b03199081166001600160a01b038a8116919091178355600c805483168883169081179091556009805484168b8416179055600a805484168a8416178155600d80548516898516178155600e80548616898616178155600f805490961688861617909555600092835260066020526040808420805460ff19908116600190811790925596548616855281852080548816821790559154851684528084208054871683179055915484168352818320805486168217905585548416835291208054909316179091559054620001c791166064620001b58b60236200086d565b620001c191906200088f565b620004d2565b600a54620001e7906001600160a01b03166064620001b58b60236200086d565b600d5462000205906001600160a01b0316620001c1600a8b6200088f565b600e5462000223906001600160a01b0316620001c160058b6200088f565b600f54601380546001600160a01b0319166001600160a01b0390921691821790556200025130828b620005bb565b806001600160a01b031663c45a01556040518163ffffffff1660e01b815260040160206040518083038186803b1580156200028b57600080fd5b505afa158015620002a0573d6000803e3d6000fd5b505050506040513d601f19601f82011682018060405250810190620002c69190620008b2565b6001600160a01b031663c9c6539630836001600160a01b031663ad5c46486040518163ffffffff1660e01b815260040160206040518083038186803b1580156200030f57600080fd5b505afa15801562000324573d6000803e3d6000fd5b505050506040513d601f19601f820116820180604052508101906200034a9190620008b2565b6040516001600160e01b031960e085901b1681526001600160a01b03928316600482015291166024820152604401602060405180830381600087803b1580156200039357600080fd5b505af1158015620003a8573d6000803e3d6000fd5b505050506040513d601f19601f82011682018060405250810190620003ce9190620008b2565b601480546001600160a01b0319166001600160a01b0392831690811790915560135460405163095ea7b360e01b81529216600483015260001960248301529063095ea7b390604401602060405180830381600087803b1580156200043157600080fd5b505af115801562000446573d6000803e3d6000fd5b505050506040513d601f19601f820116820180604052508101906200046c9190620008d9565b5050505050505050505062000955565b3390565b600580546001600160a01b038381166001600160a01b0319831681179093556040519116919082907f8be0079c531659141344cd1fd0a4f28419497f9722a3daafe3b4186f6b6457e090600090a35050565b6001600160a01b0382166200052e5760405162461bcd60e51b815260206004820152601f60248201527f45524332303a206d696e7420746f20746865207a65726f20616464726573730060448201526064015b60405180910390fd5b8060026000828254620005429190620008fd565b90915550506001600160a01b0382166000908152602081905260408120805483929062000571908490620008fd565b90915550506040518181526001600160a01b038316906000907fddf252ad1be2c89b69c2b068fc378daa952ba7f163c4a11628f55a4df523b3ef9060200160405180910390a35050565b6001600160a01b0383166200061f5760405162461bcd60e51b8152602060048201526024808201527f45524332303a20617070726f76652066726f6d20746865207a65726f206164646044820152637265737360e01b606482015260840162000525565b6001600160a01b038216620006825760405162461bcd60e51b815260206004820152602260248201527f45524332303a20617070726f766520746f20746865207a65726f206164647265604482015261737360f01b606482015260840162000525565b6001600160a01b0383811660008181526001602090815260408083209487168084529482529182902085905590518481527f8c5be1e5ebec7d5bd14f71427d1e84f3dd0314c0f7b2291e5b200ac8c7c3b925910160405180910390a3505050565b828054620006f19062000918565b90600052602060002090601f01602090048101928262000715576000855562000760565b82601f106200073057805160ff191683800117855562000760565b8280016001018555821562000760579182015b828111156200076057825182559160200191906001019062000743565b506200076e92915062000772565b5090565b5b808211156200076e576000815560010162000773565b6001600160a01b03811681146200079f57600080fd5b50565b600080600080600080600080610100898b031215620007c057600080fd5b885197506020890151620007d48162000789565b60408a0151909750620007e78162000789565b60608a0151909650620007fa8162000789565b60808a01519095506200080d8162000789565b60a08a0151909450620008208162000789565b60c08a0151909350620008338162000789565b60e08a0151909250620008468162000789565b809150509295985092959890939650565b634e487b7160e01b600052601160045260246000fd5b60008160001904831182151516156200088a576200088a62000857565b500290565b600082620008ad57634e487b7160e01b600052601260045260246000fd5b500490565b600060208284031215620008c557600080fd5b8151620008d28162000789565b9392505050565b600060208284031215620008ec57600080fd5b81518015158114620008d257600080fd5b6000821982111562000913576200091362000857565b500190565b600181811c908216806200092d57607f821691505b602082108114156200094f57634e487b7160e01b600052602260045260246000fd5b50919050565b61237480620009656000396000f3fe6080604052600436106102605760003560e01c80637c13efd411610144578063da6fa55c116100b6578063ecc633901161007a578063ecc633901461070d578063f2fde38b1461072d578063f46eccc41461074d578063f9f92be41461077d578063fc2eb889146107ad578063fd092bc5146107cd57600080fd5b8063da6fa55c14610641578063dbe66ca014610657578063dd62ed3e14610687578063de77bfd9146106cd578063eb08aa3b146106ed57600080fd5b8063a457c2d711610108578063a457c2d714610581578063a9059cbb146105a1578063bbeaa1f8146105c1578063c3d0cb20146105e1578063c816841b14610601578063d158272d1461062157600080fd5b80637c13efd4146104f95780638da5cb5b1461050e5780638eb83f251461052c57806395d89b411461054c5780639dc29fac1461056157600080fd5b806343620e71116101dd5780635b81c1a4116101a15780635b81c1a41461045157806361eb048a146104715780636c9230db1461049157806370a08231146104a4578063715018a6146104c457806378c1d245146104d957600080fd5b806343620e71146103c55780634f481683146103e55780634fcd1285146103fb578063560493b3146104115780635b3c1da11461043157600080fd5b8063313ce56711610224578063313ce5671461033e57806332a2c5d01461035a578063395093511461036d578063404e8a821461038d57806340c10f19146103a357600080fd5b806306fdde031461026c578063095ea7b31461029757806318160ddd146102c757806320ca3c7f146102e657806323b872dd1461031e57600080fd5b3661026757005b600080fd5b34801561027857600080fd5b506102816107ed565b60405161028e9190611e53565b60405180910390f35b3480156102a357600080fd5b506102b76102b2366004611ebd565b61087f565b604051901515815260200161028e565b3480156102d357600080fd5b506002545b60405190815260200161028e565b3480156102f257600080fd5b50600f54610306906001600160a01b031681565b6040516001600160a01b03909116815260200161028e565b34801561032a57600080fd5b506102b7610339366004611ee9565b610899565b34801561034a57600080fd5b506040516012815260200161028e565b34801561036657600080fd5b5030610306565b34801561037957600080fd5b506102b7610388366004611ebd565b610be8565b34801561039957600080fd5b506102d860155481565b3480156103af57600080fd5b506103c36103be366004611ebd565b610c27565b005b3480156103d157600080fd5b506103c36103e0366004611f3f565b610cac565b3480156103f157600080fd5b506102d860105481565b34801561040757600080fd5b506102d860125481565b34801561041d57600080fd5b506103c361042c366004611f74565b610d01565b34801561043d57600080fd5b50600954610306906001600160a01b031681565b34801561045d57600080fd5b506103c361046c366004611f74565b610d30565b34801561047d57600080fd5b50600e54610306906001600160a01b031681565b34801561049d57600080fd5b50426102d8565b3480156104b057600080fd5b506102d86104bf366004611f8d565b610dfa565b3480156104d057600080fd5b506103c3610e15565b3480156104e557600080fd5b506103c36104f4366004611f8d565b610e4b565b34801561050557600080fd5b506103c3610e99565b34801561051a57600080fd5b506005546001600160a01b0316610306565b34801561053857600080fd5b50600a54610306906001600160a01b031681565b34801561055857600080fd5b50610281610ed0565b34801561056d57600080fd5b506103c361057c366004611ebd565b610edf565b34801561058d57600080fd5b506102b761059c366004611ebd565b610f60565b3480156105ad57600080fd5b506102b76105bc366004611ebd565b610ffd565b3480156105cd57600080fd5b506103c36105dc366004611f8d565b6112ef565b3480156105ed57600080fd5b506103c36105fc366004611faa565b61133a565b34801561060d57600080fd5b50601454610306906001600160a01b031681565b34801561062d57600080fd5b50600d54610306906001600160a01b031681565b34801561064d57600080fd5b506102d860115481565b34801561066357600080fd5b506102b7610672366004611f8d565b60066020526000908152604090205460ff1681565b34801561069357600080fd5b506102d86106a2366004611fcd565b6001600160a01b03918216600090815260016020908152604080832093909416825291909152205490565b3480156106d957600080fd5b506103c36106e8366004611f74565b61139f565b3480156106f957600080fd5b50600b54610306906001600160a01b031681565b34801561071957600080fd5b506103c3610728366004611f74565b611473565b34801561073957600080fd5b506103c3610748366004611f8d565b61153e565b34801561075957600080fd5b506102b7610768366004611f8d565b60086020526000908152604090205460ff1681565b34801561078957600080fd5b506102b7610798366004611f8d565b60076020526000908152604090205460ff1681565b3480156107b957600080fd5b506103c36107c8366004611f3f565b6115d6565b3480156107d957600080fd5b50600c54610306906001600160a01b031681565b6060600380546107fc90612006565b80601f016020809104026020016040519081016040528092919081815260200182805461082890612006565b80156108755780601f1061084a57610100808354040283529160200191610875565b820191906000526020600020905b81548152906001019060200180831161085857829003601f168201915b5050505050905090565b60003361088d81858561162b565b60019150505b92915050565b3360009081526007602052604081205460ff16156108d25760405162461bcd60e51b81526004016108c990612041565b60405180910390fd5b6001600160a01b03841660009081526007602052604090205460ff16156109fa5760405162461bcd60e51b81526020600482015260b860248201527f546865206164647265737320796f7527726520747279696e6720746f2073706560448201527f6e64207468652043617264696e616c20546f6b656e732066726f6d206861732060648201527f6265656e20626c61636b6c69737465642066726f6d2074726164696e6720746860848201527f652043617264696e616c20546f6b656e2e20496620796f75207468696e6b207460a48201527f68697320697320616e206572726f722c20706c6561736520636f6e746163742060c48201527f7468652043617264696e616c20486f757365207465616d2e000000000000000060e4820152610104016108c9565b6001600160a01b03831660009081526007602052604090205460ff1615610a335760405162461bcd60e51b81526004016108c9906120f4565b6001600160a01b03841660009081526006602052604090205460ff1680610a7257506001600160a01b03831660009081526006602052604090205460ff165b80610a8c57503360009081526006602052604090205460ff165b15610aaf57610a9c84338461174f565b610aa78484846117e1565b506001610be1565b6000606460105484610ac191906121f5565b610acb9190612214565b90506000606460115485610adf91906121f5565b610ae99190612214565b90506000606460125486610afd91906121f5565b610b079190612214565b90506000610b158284612236565b9050610b2288338861174f565b600c54610b3a9089906001600160a01b0316866117e1565b610b458830836117e1565b6000610b5030610dfa565b6014549091506001600160a01b0316336001600160a01b031614610bb257601554601454610b86906001600160a01b0316610dfa565b610b909190612214565b811115610ba057610ba0816119af565b478015610bb057610bb047611b18565b505b600085610bbf848a61224e565b610bc9919061224e565b9050610bd68a8a836117e1565b600196505050505050505b9392505050565b3360008181526001602090815260408083206001600160a01b038716845290915281205490919061088d9082908690610c22908790612236565b61162b565b3360009081526008602052604090205460ff16610c9e5760405162461bcd60e51b815260206004820152602f60248201527f596f7520617265206e6f7420617574686f72697a656420746f206d696e74204360448201526e30b93234b730b6102a37b5b2b7399760891b60648201526084016108c9565b610ca88282611bd4565b5050565b6005546001600160a01b03163314610cd65760405162461bcd60e51b81526004016108c990612265565b6001600160a01b03919091166000908152600860205260409020805460ff1916911515919091179055565b6005546001600160a01b03163314610d2b5760405162461bcd60e51b81526004016108c990612265565b601555565b6005546001600160a01b03163314610d5a5760405162461bcd60e51b81526004016108c990612265565b6005811115610dc85760405162461bcd60e51b815260206004820152603460248201527f546865206d61726b6574696e67207472616e73616374696f6e206665652063616044820152733713ba1031329036b7b932903a3430b7101a929760611b60648201526084016108c9565b601181905560405181907eec95f51190fc49500bf726b0c72cb5c1b132f7bfe7685a33bda07defe3a8a890600090a250565b6001600160a01b031660009081526020819052604090205490565b6005546001600160a01b03163314610e3f5760405162461bcd60e51b81526004016108c990612265565b610e496000611cb3565b565b6005546001600160a01b03163314610e755760405162461bcd60e51b81526004016108c990612265565b6001600160a01b03166000908152600660205260409020805460ff19166001179055565b6005546001600160a01b03163314610ec35760405162461bcd60e51b81526004016108c990612265565b47610ecd81611b18565b50565b6060600480546107fc90612006565b3360009081526008602052604090205460ff16610f565760405162461bcd60e51b815260206004820152602f60248201527f596f7520617265206e6f7420617574686f72697a656420746f206275726e204360448201526e30b93234b730b6102a37b5b2b7399760891b60648201526084016108c9565b610ca88282611d05565b3360008181526001602090815260408083206001600160a01b038716845290915281205490919083811015610fe55760405162461bcd60e51b815260206004820152602560248201527f45524332303a2064656372656173656420616c6c6f77616e63652062656c6f77604482015264207a65726f60d81b60648201526084016108c9565b610ff2828686840361162b565b506001949350505050565b3360009081526007602052604081205460ff161561102d5760405162461bcd60e51b81526004016108c990612041565b6001600160a01b03831660009081526007602052604090205460ff16156110665760405162461bcd60e51b81526004016108c9906120f4565b6014546001600160a01b0316336001600160a01b031614801561109957503360009081526006602052604090205460ff16155b80156110be57506001600160a01b03831660009081526006602052604090205460ff16155b156111785760a66110ce60025490565b6110d89190612214565b826110e285610dfa565b6110ec9190612236565b106111785760405162461bcd60e51b815260206004820152605060248201527f596f752063616e27742068617665206d6f7265207468616e203225206f66207460448201527f686520746f74616c2043617264696e616c20546f6b656e20737570706c79206160648201526f333a32b91030902222ac1039bbb0b81760811b608482015260a4016108c9565b3360009081526006602052604090205460ff16806111ae57506001600160a01b03831660009081526006602052604090205460ff165b156111c6576111be3384846117e1565b506001610893565b60006064601054846111d891906121f5565b6111e29190612214565b905060006064601154856111f691906121f5565b6112009190612214565b9050600060646012548661121491906121f5565b61121e9190612214565b9050600061122c8284612236565b905061124433600c546001600160a01b0316866117e1565b61124f3330836117e1565b600061125a30610dfa565b6014549091506001600160a01b0316336001600160a01b0316146112bc57601554601454611290906001600160a01b0316610dfa565b61129a9190612214565b8111156112aa576112aa816119af565b4780156112ba576112ba47611b18565b505b6000856112c9848a61224e565b6112d3919061224e565b90506112e0338a836117e1565b50600198975050505050505050565b6005546001600160a01b031633146113195760405162461bcd60e51b81526004016108c990612265565b6001600160a01b03166000908152600660205260409020805460ff19169055565b6005546001600160a01b031633146113645760405162461bcd60e51b81526004016108c990612265565b801561137857611373826119af565b611390565b600061138330610dfa565b905061138e816119af565b505b4761139a81611b18565b505050565b6005546001600160a01b031633146113c95760405162461bcd60e51b81526004016108c990612265565b60058111156114405760405162461bcd60e51b815260206004820152603a60248201527f546865206d656d626572206769766561776179207472616e73616374696f6e2060448201527f6665652063616e2774206265206d6f7265207468616e2035252e00000000000060648201526084016108c9565b601081905560405181907f39e1f3e4cc8feb7dbc01c16e37aa1546c352489807c660593c62538f536ac05190600090a250565b6005546001600160a01b0316331461149d5760405162461bcd60e51b81526004016108c990612265565b600581111561150b5760405162461bcd60e51b815260206004820152603460248201527f54686520646576656c6f706572207472616e73616374696f6e206665652063616044820152733713ba1031329036b7b932903a3430b7101a929760611b60648201526084016108c9565b601281905560405181907f4bee3c216a701857abd67fed754efdd065a8599be5476e2c4b118fb1896b9ffa90600090a250565b6005546001600160a01b031633146115685760405162461bcd60e51b81526004016108c990612265565b6001600160a01b0381166115cd5760405162461bcd60e51b815260206004820152602660248201527f4f776e61626c653a206e6577206f776e657220697320746865207a65726f206160448201526564647265737360d01b60648201526084016108c9565b610ecd81611cb3565b6005546001600160a01b031633146116005760405162461bcd60e51b81526004016108c990612265565b6001600160a01b03919091166000908152600760205260409020805460ff1916911515919091179055565b6001600160a01b03831661168d5760405162461bcd60e51b8152602060048201526024808201527f45524332303a20617070726f76652066726f6d20746865207a65726f206164646044820152637265737360e01b60648201526084016108c9565b6001600160a01b0382166116ee5760405162461bcd60e51b815260206004820152602260248201527f45524332303a20617070726f766520746f20746865207a65726f206164647265604482015261737360f01b60648201526084016108c9565b6001600160a01b0383811660008181526001602090815260408083209487168084529482529182902085905590518481527f8c5be1e5ebec7d5bd14f71427d1e84f3dd0314c0f7b2291e5b200ac8c7c3b925910160405180910390a3505050565b6001600160a01b0383811660009081526001602090815260408083209386168352929052205460001981146117db57818110156117ce5760405162461bcd60e51b815260206004820152601d60248201527f45524332303a20696e73756666696369656e7420616c6c6f77616e636500000060448201526064016108c9565b6117db848484840361162b565b50505050565b6001600160a01b0383166118455760405162461bcd60e51b815260206004820152602560248201527f45524332303a207472616e736665722066726f6d20746865207a65726f206164604482015264647265737360d81b60648201526084016108c9565b6001600160a01b0382166118a75760405162461bcd60e51b815260206004820152602360248201527f45524332303a207472616e7366657220746f20746865207a65726f206164647260448201526265737360e81b60648201526084016108c9565b6001600160a01b0383166000908152602081905260409020548181101561191f5760405162461bcd60e51b815260206004820152602660248201527f45524332303a207472616e7366657220616d6f756e7420657863656564732062604482015265616c616e636560d01b60648201526084016108c9565b6001600160a01b03808516600090815260208190526040808220858503905591851681529081208054849290611956908490612236565b92505081905550826001600160a01b0316846001600160a01b03167fddf252ad1be2c89b69c2b068fc378daa952ba7f163c4a11628f55a4df523b3ef846040516119a291815260200190565b60405180910390a36117db565b60408051600280825260608201835260009260208301908036833701905050905030816000815181106119e4576119e461229a565b6001600160a01b03928316602091820292909201810191909152601354604080516315ab88c960e31b81529051919093169263ad5c4648926004808301939192829003018186803b158015611a3857600080fd5b505afa158015611a4c573d6000803e3d6000fd5b505050506040513d601f19601f82011682018060405250810190611a7091906122b0565b81600181518110611a8357611a8361229a565b6001600160a01b039283166020918202929092010152601354611aa9913091168461162b565b60135460405163791ac94760e01b81526001600160a01b039091169063791ac94790611ae29085906000908690309042906004016122cd565b600060405180830381600087803b158015611afc57600080fd5b505af1158015611b10573d6000803e3d6000fd5b505050505050565b6000601254601154611b2a9190612236565b600d546011549192506001600160a01b0316906108fc908390611b4d90866121f5565b611b579190612214565b6040518115909202916000818181858888f19350505050158015611b7f573d6000803e3d6000fd5b50600e546012546001600160a01b03909116906108fc908390611ba290866121f5565b611bac9190612214565b6040518115909202916000818181858888f1935050505015801561139a573d6000803e3d6000fd5b6001600160a01b038216611c2a5760405162461bcd60e51b815260206004820152601f60248201527f45524332303a206d696e7420746f20746865207a65726f20616464726573730060448201526064016108c9565b8060026000828254611c3c9190612236565b90915550506001600160a01b03821660009081526020819052604081208054839290611c69908490612236565b90915550506040518181526001600160a01b038316906000907fddf252ad1be2c89b69c2b068fc378daa952ba7f163c4a11628f55a4df523b3ef9060200160405180910390a35050565b600580546001600160a01b038381166001600160a01b0319831681179093556040519116919082907f8be0079c531659141344cd1fd0a4f28419497f9722a3daafe3b4186f6b6457e090600090a35050565b6001600160a01b038216611d655760405162461bcd60e51b815260206004820152602160248201527f45524332303a206275726e2066726f6d20746865207a65726f206164647265736044820152607360f81b60648201526084016108c9565b6001600160a01b03821660009081526020819052604090205481811015611dd95760405162461bcd60e51b815260206004820152602260248201527f45524332303a206275726e20616d6f756e7420657863656564732062616c616e604482015261636560f01b60648201526084016108c9565b6001600160a01b0383166000908152602081905260408120838303905560028054849290611e0890849061224e565b90915550506040518281526000906001600160a01b038516907fddf252ad1be2c89b69c2b068fc378daa952ba7f163c4a11628f55a4df523b3ef9060200160405180910390a3505050565b600060208083528351808285015260005b81811015611e8057858101830151858201604001528201611e64565b81811115611e92576000604083870101525b50601f01601f1916929092016040019392505050565b6001600160a01b0381168114610ecd57600080fd5b60008060408385031215611ed057600080fd5b8235611edb81611ea8565b946020939093013593505050565b600080600060608486031215611efe57600080fd5b8335611f0981611ea8565b92506020840135611f1981611ea8565b929592945050506040919091013590565b80358015158114611f3a57600080fd5b919050565b60008060408385031215611f5257600080fd5b8235611f5d81611ea8565b9150611f6b60208401611f2a565b90509250929050565b600060208284031215611f8657600080fd5b5035919050565b600060208284031215611f9f57600080fd5b8135610be181611ea8565b60008060408385031215611fbd57600080fd5b82359150611f6b60208401611f2a565b60008060408385031215611fe057600080fd5b8235611feb81611ea8565b91506020830135611ffb81611ea8565b809150509250929050565b600181811c9082168061201a57607f821691505b6020821081141561203b57634e487b7160e01b600052602260045260246000fd5b50919050565b60208082526081908201527f596f752068617665206265656e20626c61636b6c69737465642066726f6d207460408201527f726164696e67207468652043617264696e616c20546f6b656e2e20496620796f60608201527f75207468696e6b207468697320697320616e206572726f722c20706c6561736560808201527f20636f6e74616374207468652043617264696e616c20486f757365207465616d60a0820152601760f91b60c082015260e00190565b602080825260b2908201527f546865206164647265737320796f752061726520747279696e6720746f20736560408201527f6e642043617264696e616c20546f6b656e7320746f20686173206265656e206260608201527f6c61636b6c69737465642066726f6d2074726164696e6720746865204361726460808201527f696e616c20546f6b656e2e20496620796f75207468696e6b207468697320697360a08201527f20616e206572726f722c20706c6561736520636f6e746163742074686520436160c082015271393234b730b6102437bab9b2903a32b0b69760711b60e08201526101000190565b634e487b7160e01b600052601160045260246000fd5b600081600019048311821515161561220f5761220f6121df565b500290565b60008261223157634e487b7160e01b600052601260045260246000fd5b500490565b60008219821115612249576122496121df565b500190565b600082821015612260576122606121df565b500390565b6020808252818101527f4f776e61626c653a2063616c6c6572206973206e6f7420746865206f776e6572604082015260600190565b634e487b7160e01b600052603260045260246000fd5b6000602082840312156122c257600080fd5b8151610be181611ea8565b600060a082018783526020878185015260a0604085015281875180845260c086019150828901935060005b8181101561231d5784516001600160a01b0316835293830193918301916001016122f8565b50506001600160a01b0396909616606085015250505060800152939250505056fea2646970667358221220c7a10c8997915f87649072c1352c610c45cc921a9a62e70a56526ef0a03f07d564736f6c63430008080033",
  "bytecodeSha1": "f69c74c9e94d13eea76b5b68effabedb211241ab",
  "compiler": {
    "evm_version": "istanbul",
    "optimizer": {
      "enabled": true,
      "runs": 200
    },
    "version": "0.8.8+commit.dddeac2f"
  },
  "contractName": "CardinalToken",
  "language": "Solidity",
  "natspec": {
    "details": "Token contract for the Cardinal House ecosystem currency",
    "kind": "dev",
    "methods": {
      "allowance(address,address)": {
        "details": "See {IERC20-allowance}."
      },
      "approve(address,uint256)": {
        "details": "See {IERC20-approve}. NOTE: If `amount` is the maximum `uint256`, the allowance is not updated on `transferFrom`. This is semantically equivalent to an infinite approval. Requirements: - `spender` cannot be the zero address."
      },
      "balanceOf(address)": {
        "details": "See {IERC20-balanceOf}."
      },
      "burn(address,uint256)": {
        "details": "Minter only function to burn Cardinal Tokens for bridging and deflation upon service purchases with the Cardinal Token",
        "params": {
          "amount": "the amount of tokens to be burned",
          "user": "the address to burn the tokens from"
        }
      },
      "decimals()": {
        "details": "Returns the number of decimals used to get its user representation. For example, if `decimals` equals `2`, a balance of `505` tokens should be displayed to a user as `5.05` (`505 / 10 ** 2`). Tokens usually opt for a value of 18, imitating the relationship between Ether and Wei. This is the value {ERC20} uses, unless this function is overridden; NOTE: This information is only used for _display_ purposes: it in no way affects any of the arithmetic of the contract, including {IERC20-balanceOf} and {IERC20-transfer}."
      },
      "decreaseAllowance(address,uint256)": {
        "details": "Atomically decreases the allowance granted to `spender` by the caller. This is an alternative to {approve} that can be used as a mitigation for problems described in {IERC20-approve}. Emits an {Approval} event indicating the updated allowance. Requirements: - `spender` cannot be the zero address. - `spender` must have allowance for the caller of at least `subtractedValue`."
      },
      "disperseFeesManually()": {
        "details": "Sends Matic to transaction fee wallets manually as opposed to happening automatically after a certain level of volume"
      },
      "excludeUserFromFees(address)": {
        "details": "Adds a user to be excluded from fees.",
        "params": {
          "user": "address of the user to be excluded from fees."
        }
      },
      "getContractAddress()": {
        "details": "Returns the contract address",
        "returns": {
          "_0": "contract address"
        }
      },
      "getCurrentTimestamp()": {
        "details": "Gets the current timestamp, used for testing + verification",
        "returns": {
          "_0": "the the timestamp of the current block"
        }
      },
      "includeUsersInFees(address)": {
        "details": "Removes a user from the fee exclusion.",
        "params": {
          "user": "address of the user than will now have to pay transaction fees."
        }
      },
      "increaseAllowance(address,uint256)": {
        "details": "Atomically increases the allowance granted to `spender` by the caller. This is an alternative to {approve} that can be used as a mitigation for problems described in {IERC20-approve}. Emits an {Approval} event indicating the updated allowance. Requirements: - `spender` cannot be the zero address."
      },
      "mint(address,uint256)": {
        "details": "Minter only function to mint new Cardinal Tokens for bridging",
        "params": {
          "amount": "the amount of tokens to be minted to the user",
          "user": "the address that the tokens will be minted to"
        }
      },
      "name()": {
        "details": "Returns the name of the token."
      },
      "owner()": {
        "details": "Returns the address of the current owner."
      },
      "renounceOwnership()": {
        "details": "Leaves the contract without owner. It will not be possible to call `onlyOwner` functions anymore. Can only be called by the current owner. NOTE: Renouncing ownership will leave the contract without an owner, thereby removing any functionality that is only available to the owner."
      },
      "setContractTokenDivisor(uint256)": {
        "details": "Sets the value that determines how many Cardinal Tokens need to be in the contract before it's swapped for Matic.",
        "params": {
          "newDivisor": "the new divisor value to determine the swap threshold"
        }
      },
      "swapCardinalTokensForMaticManually(uint256,bool)": {
        "details": "Swaps all Cardinal Tokens in the contract for Matic and then disperses those funds to the transaction fee wallets.",
        "params": {
          "amount": "the amount of Cardinal Tokens in the contract to swap for Matic",
          "useAmount": "boolean to determine if the amount sent in is swapped for Matic or if the entire contract balance is swapped."
        }
      },
      "symbol()": {
        "details": "Returns the symbol of the token, usually a shorter version of the name."
      },
      "totalSupply()": {
        "details": "See {IERC20-totalSupply}."
      },
      "transfer(address,uint256)": {
        "details": "Overrides the BEP20 transfer function to include transaction fees.",
        "params": {
          "amount": "the amount to be transfered",
          "recipient": "the recipient of the transfer"
        },
        "returns": {
          "_0": "bool representing if the transfer was successful"
        }
      },
      "transferFrom(address,address,uint256)": {
        "details": "Overrides the BEP20 transferFrom function to include transaction fees.",
        "params": {
          "amount": "the amount to be transfered",
          "from": "the address from where the tokens are coming from",
          "to": "the recipient of the transfer"
        },
        "returns": {
          "_0": "bool representing if the transfer was successful"
        }
      },
      "transferOwnership(address)": {
        "details": "Transfers ownership of the contract to a new account (`newOwner`). Can only be called by the current owner."
      },
      "updateBlackList(address,bool)": {
        "details": "Updates the blacklist mapping for a given address",
        "params": {
          "blacklisted": "a boolean that determines if the given address is being added or removed from the blacklist",
          "user": "the address that is being added or removed from the blacklist"
        }
      },
      "updateDeveloperTransactionFee(uint256)": {
        "details": "Function to update the developer transaction fee - can't be more than 5 percent",
        "params": {
          "newDeveloperTransactionFee": "the new developer transaction fee"
        }
      },
      "updateMarketingTransactionFee(uint256)": {
        "details": "Function to update the marketing transaction fee - can't be more than 5 percent",
        "params": {
          "newMarketingTransactionFee": "the new marketing transaction fee"
        }
      },
      "updateMemberGiveawayTransactionFee(uint256)": {
        "details": "Function to update the member giveaway transaction fee - can't be more than 5 percent",
        "params": {
          "newMemberGiveawayTransactionFee": "the new member giveaway transaction fee"
        }
      },
      "updateMinter(address,bool)": {
        "details": "Function to add or remove a Cardinal Token minter",
        "params": {
          "isMinter": "boolean representing if the address provided will be added or removed as a minter",
          "user": "the address that will be added or removed as a minter"
        }
      }
    },
    "title": "Cardinal House Token",
    "version": 1
  },
  "opcodes": "PUSH1 0x80 PUSH1 0x40 MSTORE PUSH1 0x4 CALLDATASIZE LT PUSH2 0x260 JUMPI PUSH1 0x0 CALLDATALOAD PUSH1 0xE0 SHR DUP1 PUSH4 0x7C13EFD4 GT PUSH2 0x144 JUMPI DUP1 PUSH4 0xDA6FA55C GT PUSH2 0xB6 JUMPI DUP1 PUSH4 0xECC63390 GT PUSH2 0x7A JUMPI DUP1 PUSH4 0xECC63390 EQ PUSH2 0x70D JUMPI DUP1 PUSH4 0xF2FDE38B EQ PUSH2 0x72D JUMPI DUP1 PUSH4 0xF46ECCC4 EQ PUSH2 0x74D JUMPI DUP1 PUSH4 0xF9F92BE4 EQ PUSH2 0x77D JUMPI DUP1 PUSH4 0xFC2EB889 EQ PUSH2 0x7AD JUMPI DUP1 PUSH4 0xFD092BC5 EQ PUSH2 0x7CD JUMPI PUSH1 0x0 DUP1 REVERT JUMPDEST DUP1 PUSH4 0xDA6FA55C EQ PUSH2 0x641 JUMPI DUP1 PUSH4 0xDBE66CA0 EQ PUSH2 0x657 JUMPI DUP1 PUSH4 0xDD62ED3E EQ PUSH2 0x687 JUMPI DUP1 PUSH4 0xDE77BFD9 EQ PUSH2 0x6CD JUMPI DUP1 PUSH4 0xEB08AA3B EQ PUSH2 0x6ED JUMPI PUSH1 0x0 DUP1 REVERT JUMPDEST DUP1 PUSH4 0xA457C2D7 GT PUSH2 0x108 JUMPI DUP1 PUSH4 0xA457C2D7 EQ PUSH2 0x581 JUMPI DUP1 PUSH4 0xA9059CBB EQ PUSH2 0x5A1 JUMPI DUP1 PUSH4 0xBBEAA1F8 EQ PUSH2 0x5C1 JUMPI DUP1 PUSH4 0xC3D0CB20 EQ PUSH2 0x5E1 JUMPI DUP1 PUSH4 0xC816841B EQ PUSH2 0x601 JUMPI DUP1 PUSH4 0xD158272D EQ PUSH2 0x621 JUMPI PUSH1 0x0 DUP1 REVERT JUMPDEST DUP1 PUSH4 0x7C13EFD4 EQ PUSH2 0x4F9 JUMPI DUP1 PUSH4 0x8DA5CB5B EQ PUSH2 0x50E JUMPI DUP1 PUSH4 0x8EB83F25 EQ PUSH2 0x52C JUMPI DUP1 PUSH4 0x95D89B41 EQ PUSH2 0x54C JUMPI DUP1 PUSH4 0x9DC29FAC EQ PUSH2 0x561 JUMPI PUSH1 0x0 DUP1 REVERT JUMPDEST DUP1 PUSH4 0x43620E71 GT PUSH2 0x1DD JUMPI DUP1 PUSH4 0x5B81C1A4 GT PUSH2 0x1A1 JUMPI DUP1 PUSH4 0x5B81C1A4 EQ PUSH2 0x451 JUMPI DUP1 PUSH4 0x61EB048A EQ PUSH2 0x471 JUMPI DUP1 PUSH4 0x6C9230DB EQ PUSH2 0x491 JUMPI DUP1 PUSH4 0x70A08231 EQ PUSH2 0x4A4 JUMPI DUP1 PUSH4 0x715018A6 EQ PUSH2 0x4C4 JUMPI DUP1 PUSH4 0x78C1D245 EQ PUSH2 0x4D9 JUMPI PUSH1 0x0 DUP1 REVERT JUMPDEST DUP1 PUSH4 0x43620E71 EQ PUSH2 0x3C5 JUMPI DUP1 PUSH4 0x4F481683 EQ PUSH2 0x3E5 JUMPI DUP1 PUSH4 0x4FCD1285 EQ PUSH2 0x3FB JUMPI DUP1 PUSH4 0x560493B3 EQ PUSH2 0x411 JUMPI DUP1 PUSH4 0x5B3C1DA1 EQ PUSH2 0x431 JUMPI PUSH1 0x0 DUP1 REVERT JUMPDEST DUP1 PUSH4 0x313CE567 GT PUSH2 0x224 JUMPI DUP1 PUSH4 0x313CE567 EQ PUSH2 0x33E JUMPI DUP1 PUSH4 0x32A2C5D0 EQ PUSH2 0x35A JUMPI DUP1 PUSH4 0x39509351 EQ PUSH2 0x36D JUMPI DUP1 PUSH4 0x404E8A82 EQ PUSH2 0x38D JUMPI DUP1 PUSH4 0x40C10F19 EQ PUSH2 0x3A3 JUMPI PUSH1 0x0 DUP1 REVERT JUMPDEST DUP1 PUSH4 0x6FDDE03 EQ PUSH2 0x26C JUMPI DUP1 PUSH4 0x95EA7B3 EQ PUSH2 0x297 JUMPI DUP1 PUSH4 0x18160DDD EQ PUSH2 0x2C7 JUMPI DUP1 PUSH4 0x20CA3C7F EQ PUSH2 0x2E6 JUMPI DUP1 PUSH4 0x23B872DD EQ PUSH2 0x31E JUMPI PUSH1 0x0 DUP1 REVERT JUMPDEST CALLDATASIZE PUSH2 0x267 JUMPI STOP JUMPDEST PUSH1 0x0 DUP1 REVERT JUMPDEST CALLVALUE DUP1 ISZERO PUSH2 0x278 JUMPI PUSH1 0x0 DUP1 REVERT JUMPDEST POP PUSH2 0x281 PUSH2 0x7ED JUMP JUMPDEST PUSH1 0x40 MLOAD PUSH2 0x28E SWAP2 SWAP1 PUSH2 0x1E53 JUMP JUMPDEST PUSH1 0x40 MLOAD DUP1 SWAP2 SUB SWAP1 RETURN JUMPDEST CALLVALUE DUP1 ISZERO PUSH2 0x2A3 JUMPI PUSH1 0x0 DUP1 REVERT JUMPDEST POP PUSH2 0x2B7 PUSH2 0x2B2 CALLDATASIZE PUSH1 0x4 PUSH2 0x1EBD JUMP JUMPDEST PUSH2 0x87F JUMP JUMPDEST PUSH1 0x40 MLOAD SWAP1 ISZERO ISZERO DUP2 MSTORE PUSH1 0x20 ADD PUSH2 0x28E JUMP JUMPDEST CALLVALUE DUP1 ISZERO PUSH2 0x2D3 JUMPI PUSH1 0x0 DUP1 REVERT JUMPDEST POP PUSH1 0x2 SLOAD JUMPDEST PUSH1 0x40 MLOAD SWAP1 DUP2 MSTORE PUSH1 0x20 ADD PUSH2 0x28E JUMP JUMPDEST CALLVALUE DUP1 ISZERO PUSH2 0x2F2 JUMPI PUSH1 0x0 DUP1 REVERT JUMPDEST POP PUSH1 0xF SLOAD PUSH2 0x306 SWAP1 PUSH1 0x1 PUSH1 0x1 PUSH1 0xA0 SHL SUB AND DUP2 JUMP JUMPDEST PUSH1 0x40 MLOAD PUSH1 0x1 PUSH1 0x1 PUSH1 0xA0 SHL SUB SWAP1 SWAP2 AND DUP2 MSTORE PUSH1 0x20 ADD PUSH2 0x28E JUMP JUMPDEST CALLVALUE DUP1 ISZERO PUSH2 0x32A JUMPI PUSH1 0x0 DUP1 REVERT JUMPDEST POP PUSH2 0x2B7 PUSH2 0x339 CALLDATASIZE PUSH1 0x4 PUSH2 0x1EE9 JUMP JUMPDEST PUSH2 0x899 JUMP JUMPDEST CALLVALUE DUP1 ISZERO PUSH2 0x34A JUMPI PUSH1 0x0 DUP1 REVERT JUMPDEST POP PUSH1 0x40 MLOAD PUSH1 0x12 DUP2 MSTORE PUSH1 0x20 ADD PUSH2 0x28E JUMP JUMPDEST CALLVALUE DUP1 ISZERO PUSH2 0x366 JUMPI PUSH1 0x0 DUP1 REVERT JUMPDEST POP ADDRESS PUSH2 0x306 JUMP JUMPDEST CALLVALUE DUP1 ISZERO PUSH2 0x379 JUMPI PUSH1 0x0 DUP1 REVERT JUMPDEST POP PUSH2 0x2B7 PUSH2 0x388 CALLDATASIZE PUSH1 0x4 PUSH2 0x1EBD JUMP JUMPDEST PUSH2 0xBE8 JUMP JUMPDEST CALLVALUE DUP1 ISZERO PUSH2 0x399 JUMPI PUSH1 0x0 DUP1 REVERT JUMPDEST POP PUSH2 0x2D8 PUSH1 0x15 SLOAD DUP2 JUMP JUMPDEST CALLVALUE DUP1 ISZERO PUSH2 0x3AF JUMPI PUSH1 0x0 DUP1 REVERT JUMPDEST POP PUSH2 0x3C3 PUSH2 0x3BE CALLDATASIZE PUSH1 0x4 PUSH2 0x1EBD JUMP JUMPDEST PUSH2 0xC27 JUMP JUMPDEST STOP JUMPDEST CALLVALUE DUP1 ISZERO PUSH2 0x3D1 JUMPI PUSH1 0x0 DUP1 REVERT JUMPDEST POP PUSH2 0x3C3 PUSH2 0x3E0 CALLDATASIZE PUSH1 0x4 PUSH2 0x1F3F JUMP JUMPDEST PUSH2 0xCAC JUMP JUMPDEST CALLVALUE DUP1 ISZERO PUSH2 0x3F1 JUMPI PUSH1 0x0 DUP1 REVERT JUMPDEST POP PUSH2 0x2D8 PUSH1 0x10 SLOAD DUP2 JUMP JUMPDEST CALLVALUE DUP1 ISZERO PUSH2 0x407 JUMPI PUSH1 0x0 DUP1 REVERT JUMPDEST POP PUSH2 0x2D8 PUSH1 0x12 SLOAD DUP2 JUMP JUMPDEST CALLVALUE DUP1 ISZERO PUSH2 0x41D JUMPI PUSH1 0x0 DUP1 REVERT JUMPDEST POP PUSH2 0x3C3 PUSH2 0x42C CALLDATASIZE PUSH1 0x4 PUSH2 0x1F74 JUMP JUMPDEST PUSH2 0xD01 JUMP JUMPDEST CALLVALUE DUP1 ISZERO PUSH2 0x43D JUMPI PUSH1 0x0 DUP1 REVERT JUMPDEST POP PUSH1 0x9 SLOAD PUSH2 0x306 SWAP1 PUSH1 0x1 PUSH1 0x1 PUSH1 0xA0 SHL SUB AND DUP2 JUMP JUMPDEST CALLVALUE DUP1 ISZERO PUSH2 0x45D JUMPI PUSH1 0x0 DUP1 REVERT JUMPDEST POP PUSH2 0x3C3 PUSH2 0x46C CALLDATASIZE PUSH1 0x4 PUSH2 0x1F74 JUMP JUMPDEST PUSH2 0xD30 JUMP JUMPDEST CALLVALUE DUP1 ISZERO PUSH2 0x47D JUMPI PUSH1 0x0 DUP1 REVERT JUMPDEST POP PUSH1 0xE SLOAD PUSH2 0x306 SWAP1 PUSH1 0x1 PUSH1 0x1 PUSH1 0xA0 SHL SUB AND DUP2 JUMP JUMPDEST CALLVALUE DUP1 ISZERO PUSH2 0x49D JUMPI PUSH1 0x0 DUP1 REVERT JUMPDEST POP TIMESTAMP PUSH2 0x2D8 JUMP JUMPDEST CALLVALUE DUP1 ISZERO PUSH2 0x4B0 JUMPI PUSH1 0x0 DUP1 REVERT JUMPDEST POP PUSH2 0x2D8 PUSH2 0x4BF CALLDATASIZE PUSH1 0x4 PUSH2 0x1F8D JUMP JUMPDEST PUSH2 0xDFA JUMP JUMPDEST CALLVALUE DUP1 ISZERO PUSH2 0x4D0 JUMPI PUSH1 0x0 DUP1 REVERT JUMPDEST POP PUSH2 0x3C3 PUSH2 0xE15 JUMP JUMPDEST CALLVALUE DUP1 ISZERO PUSH2 0x4E5 JUMPI PUSH1 0x0 DUP1 REVERT JUMPDEST POP PUSH2 0x3C3 PUSH2 0x4F4 CALLDATASIZE PUSH1 0x4 PUSH2 0x1F8D JUMP JUMPDEST PUSH2 0xE4B JUMP JUMPDEST CALLVALUE DUP1 ISZERO PUSH2 0x505 JUMPI PUSH1 0x0 DUP1 REVERT JUMPDEST POP PUSH2 0x3C3 PUSH2 0xE99 JUMP JUMPDEST CALLVALUE DUP1 ISZERO PUSH2 0x51A JUMPI PUSH1 0x0 DUP1 REVERT JUMPDEST POP PUSH1 0x5 SLOAD PUSH1 0x1 PUSH1 0x1 PUSH1 0xA0 SHL SUB AND PUSH2 0x306 JUMP JUMPDEST CALLVALUE DUP1 ISZERO PUSH2 0x538 JUMPI PUSH1 0x0 DUP1 REVERT JUMPDEST POP PUSH1 0xA SLOAD PUSH2 0x306 SWAP1 PUSH1 0x1 PUSH1 0x1 PUSH1 0xA0 SHL SUB AND DUP2 JUMP JUMPDEST CALLVALUE DUP1 ISZERO PUSH2 0x558 JUMPI PUSH1 0x0 DUP1 REVERT JUMPDEST POP PUSH2 0x281 PUSH2 0xED0 JUMP JUMPDEST CALLVALUE DUP1 ISZERO PUSH2 0x56D JUMPI PUSH1 0x0 DUP1 REVERT JUMPDEST POP PUSH2 0x3C3 PUSH2 0x57C CALLDATASIZE PUSH1 0x4 PUSH2 0x1EBD JUMP JUMPDEST PUSH2 0xEDF JUMP JUMPDEST CALLVALUE DUP1 ISZERO PUSH2 0x58D JUMPI PUSH1 0x0 DUP1 REVERT JUMPDEST POP PUSH2 0x2B7 PUSH2 0x59C CALLDATASIZE PUSH1 0x4 PUSH2 0x1EBD JUMP JUMPDEST PUSH2 0xF60 JUMP JUMPDEST CALLVALUE DUP1 ISZERO PUSH2 0x5AD JUMPI PUSH1 0x0 DUP1 REVERT JUMPDEST POP PUSH2 0x2B7 PUSH2 0x5BC CALLDATASIZE PUSH1 0x4 PUSH2 0x1EBD JUMP JUMPDEST PUSH2 0xFFD JUMP JUMPDEST CALLVALUE DUP1 ISZERO PUSH2 0x5CD JUMPI PUSH1 0x0 DUP1 REVERT JUMPDEST POP PUSH2 0x3C3 PUSH2 0x5DC CALLDATASIZE PUSH1 0x4 PUSH2 0x1F8D JUMP JUMPDEST PUSH2 0x12EF JUMP JUMPDEST CALLVALUE DUP1 ISZERO PUSH2 0x5ED JUMPI PUSH1 0x0 DUP1 REVERT JUMPDEST POP PUSH2 0x3C3 PUSH2 0x5FC CALLDATASIZE PUSH1 0x4 PUSH2 0x1FAA JUMP JUMPDEST PUSH2 0x133A JUMP JUMPDEST CALLVALUE DUP1 ISZERO PUSH2 0x60D JUMPI PUSH1 0x0 DUP1 REVERT JUMPDEST POP PUSH1 0x14 SLOAD PUSH2 0x306 SWAP1 PUSH1 0x1 PUSH1 0x1 PUSH1 0xA0 SHL SUB AND DUP2 JUMP JUMPDEST CALLVALUE DUP1 ISZERO PUSH2 0x62D JUMPI PUSH1 0x0 DUP1 REVERT JUMPDEST POP PUSH1 0xD SLOAD PUSH2 0x306 SWAP1 PUSH1 0x1 PUSH1 0x1 PUSH1 0xA0 SHL SUB AND DUP2 JUMP JUMPDEST CALLVALUE DUP1 ISZERO PUSH2 0x64D JUMPI PUSH1 0x0 DUP1 REVERT JUMPDEST POP PUSH2 0x2D8 PUSH1 0x11 SLOAD DUP2 JUMP JUMPDEST CALLVALUE DUP1 ISZERO PUSH2 0x663 JUMPI PUSH1 0x0 DUP1 REVERT JUMPDEST POP PUSH2 0x2B7 PUSH2 0x672 CALLDATASIZE PUSH1 0x4 PUSH2 0x1F8D JUMP JUMPDEST PUSH1 0x6 PUSH1 0x20 MSTORE PUSH1 0x0 SWAP1 DUP2 MSTORE PUSH1 0x40 SWAP1 KECCAK256 SLOAD PUSH1 0xFF AND DUP2 JUMP JUMPDEST CALLVALUE DUP1 ISZERO PUSH2 0x693 JUMPI PUSH1 0x0 DUP1 REVERT JUMPDEST POP PUSH2 0x2D8 PUSH2 0x6A2 CALLDATASIZE PUSH1 0x4 PUSH2 0x1FCD JUMP JUMPDEST PUSH1 0x1 PUSH1 0x1 PUSH1 0xA0 SHL SUB SWAP2 DUP3 AND PUSH1 0x0 SWAP1 DUP2 MSTORE PUSH1 0x1 PUSH1 0x20 SWAP1 DUP2 MSTORE PUSH1 0x40 DUP1 DUP4 KECCAK256 SWAP4 SWAP1 SWAP5 AND DUP3 MSTORE SWAP2 SWAP1 SWAP2 MSTORE KECCAK256 SLOAD SWAP1 JUMP JUMPDEST CALLVALUE DUP1 ISZERO PUSH2 0x6D9 JUMPI PUSH1 0x0 DUP1 REVERT JUMPDEST POP PUSH2 0x3C3 PUSH2 0x6E8 CALLDATASIZE PUSH1 0x4 PUSH2 0x1F74 JUMP JUMPDEST PUSH2 0x139F JUMP JUMPDEST CALLVALUE DUP1 ISZERO PUSH2 0x6F9 JUMPI PUSH1 0x0 DUP1 REVERT JUMPDEST POP PUSH1 0xB SLOAD PUSH2 0x306 SWAP1 PUSH1 0x1 PUSH1 0x1 PUSH1 0xA0 SHL SUB AND DUP2 JUMP JUMPDEST CALLVALUE DUP1 ISZERO PUSH2 0x719 JUMPI PUSH1 0x0 DUP1 REVERT JUMPDEST POP PUSH2 0x3C3 PUSH2 0x728 CALLDATASIZE PUSH1 0x4 PUSH2 0x1F74 JUMP JUMPDEST PUSH2 0x1473 JUMP JUMPDEST CALLVALUE DUP1 ISZERO PUSH2 0x739 JUMPI PUSH1 0x0 DUP1 REVERT JUMPDEST POP PUSH2 0x3C3 PUSH2 0x748 CALLDATASIZE PUSH1 0x4 PUSH2 0x1F8D JUMP JUMPDEST PUSH2 0x153E JUMP JUMPDEST CALLVALUE DUP1 ISZERO PUSH2 0x759 JUMPI PUSH1 0x0 DUP1 REVERT JUMPDEST POP PUSH2 0x2B7 PUSH2 0x768 CALLDATASIZE PUSH1 0x4 PUSH2 0x1F8D JUMP JUMPDEST PUSH1 0x8 PUSH1 0x20 MSTORE PUSH1 0x0 SWAP1 DUP2 MSTORE PUSH1 0x40 SWAP1 KECCAK256 SLOAD PUSH1 0xFF AND DUP2 JUMP JUMPDEST CALLVALUE DUP1 ISZERO PUSH2 0x789 JUMPI PUSH1 0x0 DUP1 REVERT JUMPDEST POP PUSH2 0x2B7 PUSH2 0x798 CALLDATASIZE PUSH1 0x4 PUSH2 0x1F8D JUMP JUMPDEST PUSH1 0x7 PUSH1 0x20 MSTORE PUSH1 0x0 SWAP1 DUP2 MSTORE PUSH1 0x40 SWAP1 KECCAK256 SLOAD PUSH1 0xFF AND DUP2 JUMP JUMPDEST CALLVALUE DUP1 ISZERO PUSH2 0x7B9 JUMPI PUSH1 0x0 DUP1 REVERT JUMPDEST POP PUSH2 0x3C3 PUSH2 0x7C8 CALLDATASIZE PUSH1 0x4 PUSH2 0x1F3F JUMP JUMPDEST PUSH2 0x15D6 JUMP JUMPDEST CALLVALUE DUP1 ISZERO PUSH2 0x7D9 JUMPI PUSH1 0x0 DUP1 REVERT JUMPDEST POP PUSH1 0xC SLOAD PUSH2 0x306 SWAP1 PUSH1 0x1 PUSH1 0x1 PUSH1 0xA0 SHL SUB AND DUP2 JUMP JUMPDEST PUSH1 0x60 PUSH1 0x3 DUP1 SLOAD PUSH2 0x7FC SWAP1 PUSH2 0x2006 JUMP JUMPDEST DUP1 PUSH1 0x1F ADD PUSH1 0x20 DUP1 SWAP2 DIV MUL PUSH1 0x20 ADD PUSH1 0x40 MLOAD SWAP1 DUP2 ADD PUSH1 0x40 MSTORE DUP1 SWAP3 SWAP2 SWAP1 DUP2 DUP2 MSTORE PUSH1 0x20 ADD DUP3 DUP1 SLOAD PUSH2 0x828 SWAP1 PUSH2 0x2006 JUMP JUMPDEST DUP1 ISZERO PUSH2 0x875 JUMPI DUP1 PUSH1 0x1F LT PUSH2 0x84A JUMPI PUSH2 0x100 DUP1 DUP4 SLOAD DIV MUL DUP4 MSTORE SWAP2 PUSH1 0x20 ADD SWAP2 PUSH2 0x875 JUMP JUMPDEST DUP3 ADD SWAP2 SWAP1 PUSH1 0x0 MSTORE PUSH1 0x20 PUSH1 0x0 KECCAK256 SWAP1 JUMPDEST DUP2 SLOAD DUP2 MSTORE SWAP1 PUSH1 0x1 ADD SWAP1 PUSH1 0x20 ADD DUP1 DUP4 GT PUSH2 0x858 JUMPI DUP3 SWAP1 SUB PUSH1 0x1F AND DUP3 ADD SWAP2 JUMPDEST POP POP POP POP POP SWAP1 POP SWAP1 JUMP JUMPDEST PUSH1 0x0 CALLER PUSH2 0x88D DUP2 DUP6 DUP6 PUSH2 0x162B JUMP JUMPDEST PUSH1 0x1 SWAP2 POP POP JUMPDEST SWAP3 SWAP2 POP POP JUMP JUMPDEST CALLER PUSH1 0x0 SWAP1 DUP2 MSTORE PUSH1 0x7 PUSH1 0x20 MSTORE PUSH1 0x40 DUP2 KECCAK256 SLOAD PUSH1 0xFF AND ISZERO PUSH2 0x8D2 JUMPI PUSH1 0x40 MLOAD PUSH3 0x461BCD PUSH1 0xE5 SHL DUP2 MSTORE PUSH1 0x4 ADD PUSH2 0x8C9 SWAP1 PUSH2 0x2041 JUMP JUMPDEST PUSH1 0x40 MLOAD DUP1 SWAP2 SUB SWAP1 REVERT JUMPDEST PUSH1 0x1 PUSH1 0x1 PUSH1 0xA0 SHL SUB DUP5 AND PUSH1 0x0 SWAP1 DUP2 MSTORE PUSH1 0x7 PUSH1 0x20 MSTORE PUSH1 0x40 SWAP1 KECCAK256 SLOAD PUSH1 0xFF AND ISZERO PUSH2 0x9FA JUMPI PUSH1 0x40 MLOAD PUSH3 0x461BCD PUSH1 0xE5 SHL DUP2 MSTORE PUSH1 0x20 PUSH1 0x4 DUP3 ADD MSTORE PUSH1 0xB8 PUSH1 0x24 DUP3 ADD MSTORE PUSH32 0x546865206164647265737320796F7527726520747279696E6720746F20737065 PUSH1 0x44 DUP3 ADD MSTORE PUSH32 0x6E64207468652043617264696E616C20546F6B656E732066726F6D2068617320 PUSH1 0x64 DUP3 ADD MSTORE PUSH32 0x6265656E20626C61636B6C69737465642066726F6D2074726164696E67207468 PUSH1 0x84 DUP3 ADD MSTORE PUSH32 0x652043617264696E616C20546F6B656E2E20496620796F75207468696E6B2074 PUSH1 0xA4 DUP3 ADD MSTORE PUSH32 0x68697320697320616E206572726F722C20706C6561736520636F6E7461637420 PUSH1 0xC4 DUP3 ADD MSTORE PUSH32 0x7468652043617264696E616C20486F757365207465616D2E0000000000000000 PUSH1 0xE4 DUP3 ADD MSTORE PUSH2 0x104 ADD PUSH2 0x8C9 JUMP JUMPDEST PUSH1 0x1 PUSH1 0x1 PUSH1 0xA0 SHL SUB DUP4 AND PUSH1 0x0 SWAP1 DUP2 MSTORE PUSH1 0x7 PUSH1 0x20 MSTORE PUSH1 0x40 SWAP1 KECCAK256 SLOAD PUSH1 0xFF AND ISZERO PUSH2 0xA33 JUMPI PUSH1 0x40 MLOAD PUSH3 0x461BCD PUSH1 0xE5 SHL DUP2 MSTORE PUSH1 0x4 ADD PUSH2 0x8C9 SWAP1 PUSH2 0x20F4 JUMP JUMPDEST PUSH1 0x1 PUSH1 0x1 PUSH1 0xA0 SHL SUB DUP5 AND PUSH1 0x0 SWAP1 DUP2 MSTORE PUSH1 0x6 PUSH1 0x20 MSTORE PUSH1 0x40 SWAP1 KECCAK256 SLOAD PUSH1 0xFF AND DUP1 PUSH2 0xA72 JUMPI POP PUSH1 0x1 PUSH1 0x1 PUSH1 0xA0 SHL SUB DUP4 AND PUSH1 0x0 SWAP1 DUP2 MSTORE PUSH1 0x6 PUSH1 0x20 MSTORE PUSH1 0x40 SWAP1 KECCAK256 SLOAD PUSH1 0xFF AND JUMPDEST DUP1 PUSH2 0xA8C JUMPI POP CALLER PUSH1 0x0 SWAP1 DUP2 MSTORE PUSH1 0x6 PUSH1 0x20 MSTORE PUSH1 0x40 SWAP1 KECCAK256 SLOAD PUSH1 0xFF AND JUMPDEST ISZERO PUSH2 0xAAF JUMPI PUSH2 0xA9C DUP5 CALLER DUP5 PUSH2 0x174F JUMP JUMPDEST PUSH2 0xAA7 DUP5 DUP5 DUP5 PUSH2 0x17E1 JUMP JUMPDEST POP PUSH1 0x1 PUSH2 0xBE1 JUMP JUMPDEST PUSH1 0x0 PUSH1 0x64 PUSH1 0x10 SLOAD DUP5 PUSH2 0xAC1 SWAP2 SWAP1 PUSH2 0x21F5 JUMP JUMPDEST PUSH2 0xACB SWAP2 SWAP1 PUSH2 0x2214 JUMP JUMPDEST SWAP1 POP PUSH1 0x0 PUSH1 0x64 PUSH1 0x11 SLOAD DUP6 PUSH2 0xADF SWAP2 SWAP1 PUSH2 0x21F5 JUMP JUMPDEST PUSH2 0xAE9 SWAP2 SWAP1 PUSH2 0x2214 JUMP JUMPDEST SWAP1 POP PUSH1 0x0 PUSH1 0x64 PUSH1 0x12 SLOAD DUP7 PUSH2 0xAFD SWAP2 SWAP1 PUSH2 0x21F5 JUMP JUMPDEST PUSH2 0xB07 SWAP2 SWAP1 PUSH2 0x2214 JUMP JUMPDEST SWAP1 POP PUSH1 0x0 PUSH2 0xB15 DUP3 DUP5 PUSH2 0x2236 JUMP JUMPDEST SWAP1 POP PUSH2 0xB22 DUP9 CALLER DUP9 PUSH2 0x174F JUMP JUMPDEST PUSH1 0xC SLOAD PUSH2 0xB3A SWAP1 DUP10 SWAP1 PUSH1 0x1 PUSH1 0x1 PUSH1 0xA0 SHL SUB AND DUP7 PUSH2 0x17E1 JUMP JUMPDEST PUSH2 0xB45 DUP9 ADDRESS DUP4 PUSH2 0x17E1 JUMP JUMPDEST PUSH1 0x0 PUSH2 0xB50 ADDRESS PUSH2 0xDFA JUMP JUMPDEST PUSH1 0x14 SLOAD SWAP1 SWAP2 POP PUSH1 0x1 PUSH1 0x1 PUSH1 0xA0 SHL SUB AND CALLER PUSH1 0x1 PUSH1 0x1 PUSH1 0xA0 SHL SUB AND EQ PUSH2 0xBB2 JUMPI PUSH1 0x15 SLOAD PUSH1 0x14 SLOAD PUSH2 0xB86 SWAP1 PUSH1 0x1 PUSH1 0x1 PUSH1 0xA0 SHL SUB AND PUSH2 0xDFA JUMP JUMPDEST PUSH2 0xB90 SWAP2 SWAP1 PUSH2 0x2214 JUMP JUMPDEST DUP2 GT ISZERO PUSH2 0xBA0 JUMPI PUSH2 0xBA0 DUP2 PUSH2 0x19AF JUMP JUMPDEST SELFBALANCE DUP1 ISZERO PUSH2 0xBB0 JUMPI PUSH2 0xBB0 SELFBALANCE PUSH2 0x1B18 JUMP JUMPDEST POP JUMPDEST PUSH1 0x0 DUP6 PUSH2 0xBBF DUP5 DUP11 PUSH2 0x224E JUMP JUMPDEST PUSH2 0xBC9 SWAP2 SWAP1 PUSH2 0x224E JUMP JUMPDEST SWAP1 POP PUSH2 0xBD6 DUP11 DUP11 DUP4 PUSH2 0x17E1 JUMP JUMPDEST PUSH1 0x1 SWAP7 POP POP POP POP POP POP POP JUMPDEST SWAP4 SWAP3 POP POP POP JUMP JUMPDEST CALLER PUSH1 0x0 DUP2 DUP2 MSTORE PUSH1 0x1 PUSH1 0x20 SWAP1 DUP2 MSTORE PUSH1 0x40 DUP1 DUP4 KECCAK256 PUSH1 0x1 PUSH1 0x1 PUSH1 0xA0 SHL SUB DUP8 AND DUP5 MSTORE SWAP1 SWAP2 MSTORE DUP2 KECCAK256 SLOAD SWAP1 SWAP2 SWAP1 PUSH2 0x88D SWAP1 DUP3 SWAP1 DUP7 SWAP1 PUSH2 0xC22 SWAP1 DUP8 SWAP1 PUSH2 0x2236 JUMP JUMPDEST PUSH2 0x162B JUMP JUMPDEST CALLER PUSH1 0x0 SWAP1 DUP2 MSTORE PUSH1 0x8 PUSH1 0x20 MSTORE PUSH1 0x40 SWAP1 KECCAK256 SLOAD PUSH1 0xFF AND PUSH2 0xC9E JUMPI PUSH1 0x40 MLOAD PUSH3 0x461BCD PUSH1 0xE5 SHL DUP2 MSTORE PUSH1 0x20 PUSH1 0x4 DUP3 ADD MSTORE PUSH1 0x2F PUSH1 0x24 DUP3 ADD MSTORE PUSH32 0x596F7520617265206E6F7420617574686F72697A656420746F206D696E742043 PUSH1 0x44 DUP3 ADD MSTORE PUSH15 0x30B93234B730B6102A37B5B2B73997 PUSH1 0x89 SHL PUSH1 0x64 DUP3 ADD MSTORE PUSH1 0x84 ADD PUSH2 0x8C9 JUMP JUMPDEST PUSH2 0xCA8 DUP3 DUP3 PUSH2 0x1BD4 JUMP JUMPDEST POP POP JUMP JUMPDEST PUSH1 0x5 SLOAD PUSH1 0x1 PUSH1 0x1 PUSH1 0xA0 SHL SUB AND CALLER EQ PUSH2 0xCD6 JUMPI PUSH1 0x40 MLOAD PUSH3 0x461BCD PUSH1 0xE5 SHL DUP2 MSTORE PUSH1 0x4 ADD PUSH2 0x8C9 SWAP1 PUSH2 0x2265 JUMP JUMPDEST PUSH1 0x1 PUSH1 0x1 PUSH1 0xA0 SHL SUB SWAP2 SWAP1 SWAP2 AND PUSH1 0x0 SWAP1 DUP2 MSTORE PUSH1 0x8 PUSH1 0x20 MSTORE PUSH1 0x40 SWAP1 KECCAK256 DUP1 SLOAD PUSH1 0xFF NOT AND SWAP2 ISZERO ISZERO SWAP2 SWAP1 SWAP2 OR SWAP1 SSTORE JUMP JUMPDEST PUSH1 0x5 SLOAD PUSH1 0x1 PUSH1 0x1 PUSH1 0xA0 SHL SUB AND CALLER EQ PUSH2 0xD2B JUMPI PUSH1 0x40 MLOAD PUSH3 0x461BCD PUSH1 0xE5 SHL DUP2 MSTORE PUSH1 0x4 ADD PUSH2 0x8C9 SWAP1 PUSH2 0x2265 JUMP JUMPDEST PUSH1 0x15 SSTORE JUMP JUMPDEST PUSH1 0x5 SLOAD PUSH1 0x1 PUSH1 0x1 PUSH1 0xA0 SHL SUB AND CALLER EQ PUSH2 0xD5A JUMPI PUSH1 0x40 MLOAD PUSH3 0x461BCD PUSH1 0xE5 SHL DUP2 MSTORE PUSH1 0x4 ADD PUSH2 0x8C9 SWAP1 PUSH2 0x2265 JUMP JUMPDEST PUSH1 0x5 DUP2 GT ISZERO PUSH2 0xDC8 JUMPI PUSH1 0x40 MLOAD PUSH3 0x461BCD PUSH1 0xE5 SHL DUP2 MSTORE PUSH1 0x20 PUSH1 0x4 DUP3 ADD MSTORE PUSH1 0x34 PUSH1 0x24 DUP3 ADD MSTORE PUSH32 0x546865206D61726B6574696E67207472616E73616374696F6E20666565206361 PUSH1 0x44 DUP3 ADD MSTORE PUSH20 0x3713BA1031329036B7B932903A3430B7101A9297 PUSH1 0x61 SHL PUSH1 0x64 DUP3 ADD MSTORE PUSH1 0x84 ADD PUSH2 0x8C9 JUMP JUMPDEST PUSH1 0x11 DUP2 SWAP1 SSTORE PUSH1 0x40 MLOAD DUP2 SWAP1 PUSH31 0xEC95F51190FC49500BF726B0C72CB5C1B132F7BFE7685A33BDA07DEFE3A8A8 SWAP1 PUSH1 0x0 SWAP1 LOG2 POP JUMP JUMPDEST PUSH1 0x1 PUSH1 0x1 PUSH1 0xA0 SHL SUB AND PUSH1 0x0 SWAP1 DUP2 MSTORE PUSH1 0x20 DUP2 SWAP1 MSTORE PUSH1 0x40 SWAP1 KECCAK256 SLOAD SWAP1 JUMP JUMPDEST PUSH1 0x5 SLOAD PUSH1 0x1 PUSH1 0x1 PUSH1 0xA0 SHL SUB AND CALLER EQ PUSH2 0xE3F JUMPI PUSH1 0x40 MLOAD PUSH3 0x461BCD PUSH1 0xE5 SHL DUP2 MSTORE PUSH1 0x4 ADD PUSH2 0x8C9 SWAP1 PUSH2 0x2265 JUMP JUMPDEST PUSH2 0xE49 PUSH1 0x0 PUSH2 0x1CB3 JUMP JUMPDEST JUMP JUMPDEST PUSH1 0x5 SLOAD PUSH1 0x1 PUSH1 0x1 PUSH1 0xA0 SHL SUB AND CALLER EQ PUSH2 0xE75 JUMPI PUSH1 0x40 MLOAD PUSH3 0x461BCD PUSH1 0xE5 SHL DUP2 MSTORE PUSH1 0x4 ADD PUSH2 0x8C9 SWAP1 PUSH2 0x2265 JUMP JUMPDEST PUSH1 0x1 PUSH1 0x1 PUSH1 0xA0 SHL SUB AND PUSH1 0x0 SWAP1 DUP2 MSTORE PUSH1 0x6 PUSH1 0x20 MSTORE PUSH1 0x40 SWAP1 KECCAK256 DUP1 SLOAD PUSH1 0xFF NOT AND PUSH1 0x1 OR SWAP1 SSTORE JUMP JUMPDEST PUSH1 0x5 SLOAD PUSH1 0x1 PUSH1 0x1 PUSH1 0xA0 SHL SUB AND CALLER EQ PUSH2 0xEC3 JUMPI PUSH1 0x40 MLOAD PUSH3 0x461BCD PUSH1 0xE5 SHL DUP2 MSTORE PUSH1 0x4 ADD PUSH2 0x8C9 SWAP1 PUSH2 0x2265 JUMP JUMPDEST SELFBALANCE PUSH2 0xECD DUP2 PUSH2 0x1B18 JUMP JUMPDEST POP JUMP JUMPDEST PUSH1 0x60 PUSH1 0x4 DUP1 SLOAD PUSH2 0x7FC SWAP1 PUSH2 0x2006 JUMP JUMPDEST CALLER PUSH1 0x0 SWAP1 DUP2 MSTORE PUSH1 0x8 PUSH1 0x20 MSTORE PUSH1 0x40 SWAP1 KECCAK256 SLOAD PUSH1 0xFF AND PUSH2 0xF56 JUMPI PUSH1 0x40 MLOAD PUSH3 0x461BCD PUSH1 0xE5 SHL DUP2 MSTORE PUSH1 0x20 PUSH1 0x4 DUP3 ADD MSTORE PUSH1 0x2F PUSH1 0x24 DUP3 ADD MSTORE PUSH32 0x596F7520617265206E6F7420617574686F72697A656420746F206275726E2043 PUSH1 0x44 DUP3 ADD MSTORE PUSH15 0x30B93234B730B6102A37B5B2B73997 PUSH1 0x89 SHL PUSH1 0x64 DUP3 ADD MSTORE PUSH1 0x84 ADD PUSH2 0x8C9 JUMP JUMPDEST PUSH2 0xCA8 DUP3 DUP3 PUSH2 0x1D05 JUMP JUMPDEST CALLER PUSH1 0x0 DUP2 DUP2 MSTORE PUSH1 0x1 PUSH1 0x20 SWAP1 DUP2 MSTORE PUSH1 0x40 DUP1 DUP4 KECCAK256 PUSH1 0x1 PUSH1 0x1 PUSH1 0xA0 SHL SUB DUP8 AND DUP5 MSTORE SWAP1 SWAP2 MSTORE DUP2 KECCAK256 SLOAD SWAP1 SWAP2 SWAP1 DUP4 DUP2 LT ISZERO PUSH2 0xFE5 JUMPI PUSH1 0x40 MLOAD PUSH3 0x461BCD PUSH1 0xE5 SHL DUP2 MSTORE PUSH1 0x20 PUSH1 0x4 DUP3 ADD MSTORE PUSH1 0x25 PUSH1 0x24 DUP3 ADD MSTORE PUSH32 0x45524332303A2064656372656173656420616C6C6F77616E63652062656C6F77 PUSH1 0x44 DUP3 ADD MSTORE PUSH5 0x207A65726F PUSH1 0xD8 SHL PUSH1 0x64 DUP3 ADD MSTORE PUSH1 0x84 ADD PUSH2 0x8C9 JUMP JUMPDEST PUSH2 0xFF2 DUP3 DUP7 DUP7 DUP5 SUB PUSH2 0x162B JUMP JUMPDEST POP PUSH1 0x1 SWAP5 SWAP4 POP POP POP POP JUMP JUMPDEST CALLER PUSH1 0x0 SWAP1 DUP2 MSTORE PUSH1 0x7 PUSH1 0x20 MSTORE PUSH1 0x40 DUP2 KECCAK256 SLOAD PUSH1 0xFF AND ISZERO PUSH2 0x102D JUMPI PUSH1 0x40 MLOAD PUSH3 0x461BCD PUSH1 0xE5 SHL DUP2 MSTORE PUSH1 0x4 ADD PUSH2 0x8C9 SWAP1 PUSH2 0x2041 JUMP JUMPDEST PUSH1 0x1 PUSH1 0x1 PUSH1 0xA0 SHL SUB DUP4 AND PUSH1 0x0 SWAP1 DUP2 MSTORE PUSH1 0x7 PUSH1 0x20 MSTORE PUSH1 0x40 SWAP1 KECCAK256 SLOAD PUSH1 0xFF AND ISZERO PUSH2 0x1066 JUMPI PUSH1 0x40 MLOAD PUSH3 0x461BCD PUSH1 0xE5 SHL DUP2 MSTORE PUSH1 0x4 ADD PUSH2 0x8C9 SWAP1 PUSH2 0x20F4 JUMP JUMPDEST PUSH1 0x14 SLOAD PUSH1 0x1 PUSH1 0x1 PUSH1 0xA0 SHL SUB AND CALLER PUSH1 0x1 PUSH1 0x1 PUSH1 0xA0 SHL SUB AND EQ DUP1 ISZERO PUSH2 0x1099 JUMPI POP CALLER PUSH1 0x0 SWAP1 DUP2 MSTORE PUSH1 0x6 PUSH1 0x20 MSTORE PUSH1 0x40 SWAP1 KECCAK256 SLOAD PUSH1 0xFF AND ISZERO JUMPDEST DUP1 ISZERO PUSH2 0x10BE JUMPI POP PUSH1 0x1 PUSH1 0x1 PUSH1 0xA0 SHL SUB DUP4 AND PUSH1 0x0 SWAP1 DUP2 MSTORE PUSH1 0x6 PUSH1 0x20 MSTORE PUSH1 0x40 SWAP1 KECCAK256 SLOAD PUSH1 0xFF AND ISZERO JUMPDEST ISZERO PUSH2 0x1178 JUMPI PUSH1 0xA6 PUSH2 0x10CE PUSH1 0x2 SLOAD SWAP1 JUMP JUMPDEST PUSH2 0x10D8 SWAP2 SWAP1 PUSH2 0x2214 JUMP JUMPDEST DUP3 PUSH2 0x10E2 DUP6 PUSH2 0xDFA JUMP JUMPDEST PUSH2 0x10EC SWAP2 SWAP1 PUSH2 0x2236 JUMP JUMPDEST LT PUSH2 0x1178 JUMPI PUSH1 0x40 MLOAD PUSH3 0x461BCD PUSH1 0xE5 SHL DUP2 MSTORE PUSH1 0x20 PUSH1 0x4 DUP3 ADD MSTORE PUSH1 0x50 PUSH1 0x24 DUP3 ADD MSTORE PUSH32 0x596F752063616E27742068617665206D6F7265207468616E203225206F662074 PUSH1 0x44 DUP3 ADD MSTORE PUSH32 0x686520746F74616C2043617264696E616C20546F6B656E20737570706C792061 PUSH1 0x64 DUP3 ADD MSTORE PUSH16 0x333A32B91030902222AC1039BBB0B817 PUSH1 0x81 SHL PUSH1 0x84 DUP3 ADD MSTORE PUSH1 0xA4 ADD PUSH2 0x8C9 JUMP JUMPDEST CALLER PUSH1 0x0 SWAP1 DUP2 MSTORE PUSH1 0x6 PUSH1 0x20 MSTORE PUSH1 0x40 SWAP1 KECCAK256 SLOAD PUSH1 0xFF AND DUP1 PUSH2 0x11AE JUMPI POP PUSH1 0x1 PUSH1 0x1 PUSH1 0xA0 SHL SUB DUP4 AND PUSH1 0x0 SWAP1 DUP2 MSTORE PUSH1 0x6 PUSH1 0x20 MSTORE PUSH1 0x40 SWAP1 KECCAK256 SLOAD PUSH1 0xFF AND JUMPDEST ISZERO PUSH2 0x11C6 JUMPI PUSH2 0x11BE CALLER DUP5 DUP5 PUSH2 0x17E1 JUMP JUMPDEST POP PUSH1 0x1 PUSH2 0x893 JUMP JUMPDEST PUSH1 0x0 PUSH1 0x64 PUSH1 0x10 SLOAD DUP5 PUSH2 0x11D8 SWAP2 SWAP1 PUSH2 0x21F5 JUMP JUMPDEST PUSH2 0x11E2 SWAP2 SWAP1 PUSH2 0x2214 JUMP JUMPDEST SWAP1 POP PUSH1 0x0 PUSH1 0x64 PUSH1 0x11 SLOAD DUP6 PUSH2 0x11F6 SWAP2 SWAP1 PUSH2 0x21F5 JUMP JUMPDEST PUSH2 0x1200 SWAP2 SWAP1 PUSH2 0x2214 JUMP JUMPDEST SWAP1 POP PUSH1 0x0 PUSH1 0x64 PUSH1 0x12 SLOAD DUP7 PUSH2 0x1214 SWAP2 SWAP1 PUSH2 0x21F5 JUMP JUMPDEST PUSH2 0x121E SWAP2 SWAP1 PUSH2 0x2214 JUMP JUMPDEST SWAP1 POP PUSH1 0x0 PUSH2 0x122C DUP3 DUP5 PUSH2 0x2236 JUMP JUMPDEST SWAP1 POP PUSH2 0x1244 CALLER PUSH1 0xC SLOAD PUSH1 0x1 PUSH1 0x1 PUSH1 0xA0 SHL SUB AND DUP7 PUSH2 0x17E1 JUMP JUMPDEST PUSH2 0x124F CALLER ADDRESS DUP4 PUSH2 0x17E1 JUMP JUMPDEST PUSH1 0x0 PUSH2 0x125A ADDRESS PUSH2 0xDFA JUMP JUMPDEST PUSH1 0x14 SLOAD SWAP1 SWAP2 POP PUSH1 0x1 PUSH1 0x1 PUSH1 0xA0 SHL SUB AND CALLER PUSH1 0x1 PUSH1 0x1 PUSH1 0xA0 SHL SUB AND EQ PUSH2 0x12BC JUMPI PUSH1 0x15 SLOAD PUSH1 0x14 SLOAD PUSH2 0x1290 SWAP1 PUSH1 0x1 PUSH1 0x1 PUSH1 0xA0 SHL SUB AND PUSH2 0xDFA JUMP JUMPDEST PUSH2 0x129A SWAP2 SWAP1 PUSH2 0x2214 JUMP JUMPDEST DUP2 GT ISZERO PUSH2 0x12AA JUMPI PUSH2 0x12AA DUP2 PUSH2 0x19AF JUMP JUMPDEST SELFBALANCE DUP1 ISZERO PUSH2 0x12BA JUMPI PUSH2 0x12BA SELFBALANCE PUSH2 0x1B18 JUMP JUMPDEST POP JUMPDEST PUSH1 0x0 DUP6 PUSH2 0x12C9 DUP5 DUP11 PUSH2 0x224E JUMP JUMPDEST PUSH2 0x12D3 SWAP2 SWAP1 PUSH2 0x224E JUMP JUMPDEST SWAP1 POP PUSH2 0x12E0 CALLER DUP11 DUP4 PUSH2 0x17E1 JUMP JUMPDEST POP PUSH1 0x1 SWAP9 SWAP8 POP POP POP POP POP POP POP POP JUMP JUMPDEST PUSH1 0x5 SLOAD PUSH1 0x1 PUSH1 0x1 PUSH1 0xA0 SHL SUB AND CALLER EQ PUSH2 0x1319 JUMPI PUSH1 0x40 MLOAD PUSH3 0x461BCD PUSH1 0xE5 SHL DUP2 MSTORE PUSH1 0x4 ADD PUSH2 0x8C9 SWAP1 PUSH2 0x2265 JUMP JUMPDEST PUSH1 0x1 PUSH1 0x1 PUSH1 0xA0 SHL SUB AND PUSH1 0x0 SWAP1 DUP2 MSTORE PUSH1 0x6 PUSH1 0x20 MSTORE PUSH1 0x40 SWAP1 KECCAK256 DUP1 SLOAD PUSH1 0xFF NOT AND SWAP1 SSTORE JUMP JUMPDEST PUSH1 0x5 SLOAD PUSH1 0x1 PUSH1 0x1 PUSH1 0xA0 SHL SUB AND CALLER EQ PUSH2 0x1364 JUMPI PUSH1 0x40 MLOAD PUSH3 0x461BCD PUSH1 0xE5 SHL DUP2 MSTORE PUSH1 0x4 ADD PUSH2 0x8C9 SWAP1 PUSH2 0x2265 JUMP JUMPDEST DUP1 ISZERO PUSH2 0x1378 JUMPI PUSH2 0x1373 DUP3 PUSH2 0x19AF JUMP JUMPDEST PUSH2 0x1390 JUMP JUMPDEST PUSH1 0x0 PUSH2 0x1383 ADDRESS PUSH2 0xDFA JUMP JUMPDEST SWAP1 POP PUSH2 0x138E DUP2 PUSH2 0x19AF JUMP JUMPDEST POP JUMPDEST SELFBALANCE PUSH2 0x139A DUP2 PUSH2 0x1B18 JUMP JUMPDEST POP POP POP JUMP JUMPDEST PUSH1 0x5 SLOAD PUSH1 0x1 PUSH1 0x1 PUSH1 0xA0 SHL SUB AND CALLER EQ PUSH2 0x13C9 JUMPI PUSH1 0x40 MLOAD PUSH3 0x461BCD PUSH1 0xE5 SHL DUP2 MSTORE PUSH1 0x4 ADD PUSH2 0x8C9 SWAP1 PUSH2 0x2265 JUMP JUMPDEST PUSH1 0x5 DUP2 GT ISZERO PUSH2 0x1440 JUMPI PUSH1 0x40 MLOAD PUSH3 0x461BCD PUSH1 0xE5 SHL DUP2 MSTORE PUSH1 0x20 PUSH1 0x4 DUP3 ADD MSTORE PUSH1 0x3A PUSH1 0x24 DUP3 ADD MSTORE PUSH32 0x546865206D656D626572206769766561776179207472616E73616374696F6E20 PUSH1 0x44 DUP3 ADD MSTORE PUSH32 0x6665652063616E2774206265206D6F7265207468616E2035252E000000000000 PUSH1 0x64 DUP3 ADD MSTORE PUSH1 0x84 ADD PUSH2 0x8C9 JUMP JUMPDEST PUSH1 0x10 DUP2 SWAP1 SSTORE PUSH1 0x40 MLOAD DUP2 SWAP1 PUSH32 0x39E1F3E4CC8FEB7DBC01C16E37AA1546C352489807C660593C62538F536AC051 SWAP1 PUSH1 0x0 SWAP1 LOG2 POP JUMP JUMPDEST PUSH1 0x5 SLOAD PUSH1 0x1 PUSH1 0x1 PUSH1 0xA0 SHL SUB AND CALLER EQ PUSH2 0x149D JUMPI PUSH1 0x40 MLOAD PUSH3 0x461BCD PUSH1 0xE5 SHL DUP2 MSTORE PUSH1 0x4 ADD PUSH2 0x8C9 SWAP1 PUSH2 0x2265 JUMP JUMPDEST PUSH1 0x5 DUP2 GT ISZERO PUSH2 0x150B JUMPI PUSH1 0x40 MLOAD PUSH3 0x461BCD PUSH1 0xE5 SHL DUP2 MSTORE PUSH1 0x20 PUSH1 0x4 DUP3 ADD MSTORE PUSH1 0x34 PUSH1 0x24 DUP3 ADD MSTORE PUSH32 0x54686520646576656C6F706572207472616E73616374696F6E20666565206361 PUSH1 0x44 DUP3 ADD MSTORE PUSH20 0x3713BA1031329036B7B932903A3430B7101A9297 PUSH1 0x61 SHL PUSH1 0x64 DUP3 ADD MSTORE PUSH1 0x84 ADD PUSH2 0x8C9 JUMP JUMPDEST PUSH1 0x12 DUP2 SWAP1 SSTORE PUSH1 0x40 MLOAD DUP2 SWAP1 PUSH32 0x4BEE3C216A701857ABD67FED754EFDD065A8599BE5476E2C4B118FB1896B9FFA SWAP1 PUSH1 0x0 SWAP1 LOG2 POP JUMP JUMPDEST PUSH1 0x5 SLOAD PUSH1 0x1 PUSH1 0x1 PUSH1 0xA0 SHL SUB AND CALLER EQ PUSH2 0x1568 JUMPI PUSH1 0x40 MLOAD PUSH3 0x461BCD PUSH1 0xE5 SHL DUP2 MSTORE PUSH1 0x4 ADD PUSH2 0x8C9 SWAP1 PUSH2 0x2265 JUMP JUMPDEST PUSH1 0x1 PUSH1 0x1 PUSH1 0xA0 SHL SUB DUP2 AND PUSH2 0x15CD JUMPI PUSH1 0x40 MLOAD PUSH3 0x461BCD PUSH1 0xE5 SHL DUP2 MSTORE PUSH1 0x20 PUSH1 0x4 DUP3 ADD MSTORE PUSH1 0x26 PUSH1 0x24 DUP3 ADD MSTORE PUSH32 0x4F776E61626C653A206E6577206F776E657220697320746865207A65726F2061 PUSH1 0x44 DUP3 ADD MSTORE PUSH6 0x646472657373 PUSH1 0xD0 SHL PUSH1 0x64 DUP3 ADD MSTORE PUSH1 0x84 ADD PUSH2 0x8C9 JUMP JUMPDEST PUSH2 0xECD DUP2 PUSH2 0x1CB3 JUMP JUMPDEST PUSH1 0x5 SLOAD PUSH1 0x1 PUSH1 0x1 PUSH1 0xA0 SHL SUB AND CALLER EQ PUSH2 0x1600 JUMPI PUSH1 0x40 MLOAD PUSH3 0x461BCD PUSH1 0xE5 SHL DUP2 MSTORE PUSH1 0x4 ADD PUSH2 0x8C9 SWAP1 PUSH2 0x2265 JUMP JUMPDEST PUSH1 0x1 PUSH1 0x1 PUSH1 0xA0 SHL SUB SWAP2 SWAP1 SWAP2 AND PUSH1 0x0 SWAP1 DUP2 MSTORE PUSH1 0x7 PUSH1 0x20 MSTORE PUSH1 0x40 SWAP1 KECCAK256 DUP1 SLOAD PUSH1 0xFF NOT AND SWAP2 ISZERO ISZERO SWAP2 SWAP1 SWAP2 OR SWAP1 SSTORE JUMP JUMPDEST PUSH1 0x1 PUSH1 0x1 PUSH1 0xA0 SHL SUB DUP4 AND PUSH2 0x168D JUMPI PUSH1 0x40 MLOAD PUSH3 0x461BCD PUSH1 0xE5 SHL DUP2 MSTORE PUSH1 0x20 PUSH1 0x4 DUP3 ADD MSTORE PUSH1 0x24 DUP1 DUP3 ADD MSTORE PUSH32 0x45524332303A20617070726F76652066726F6D20746865207A65726F20616464 PUSH1 0x44 DUP3 ADD MSTORE PUSH4 0x72657373 PUSH1 0xE0 SHL PUSH1 0x64 DUP3 ADD MSTORE PUSH1 0x84 ADD PUSH2 0x8C9 JUMP JUMPDEST PUSH1 0x1 PUSH1 0x1 PUSH1 0xA0 SHL SUB DUP3 AND PUSH2 0x16EE JUMPI PUSH1 0x40 MLOAD PUSH3 0x461BCD PUSH1 0xE5 SHL DUP2 MSTORE PUSH1 0x20 PUSH1 0x4 DUP3 ADD MSTORE PUSH1 0x22 PUSH1 0x24 DUP3 ADD MSTORE PUSH32 0x45524332303A20617070726F766520746F20746865207A65726F206164647265 PUSH1 0x44 DUP3 ADD MSTORE PUSH2 0x7373 PUSH1 0xF0 SHL PUSH1 0x64 DUP3 ADD MSTORE PUSH1 0x84 ADD PUSH2 0x8C9 JUMP JUMPDEST PUSH1 0x1 PUSH1 0x1 PUSH1 0xA0 SHL SUB DUP4 DUP2 AND PUSH1 0x0 DUP2 DUP2 MSTORE PUSH1 0x1 PUSH1 0x20 SWAP1 DUP2 MSTORE PUSH1 0x40 DUP1 DUP4 KECCAK256 SWAP5 DUP8 AND DUP1 DUP5 MSTORE SWAP5 DUP3 MSTORE SWAP2 DUP3 SWAP1 KECCAK256 DUP6 SWAP1 SSTORE SWAP1 MLOAD DUP5 DUP2 MSTORE PUSH32 0x8C5BE1E5EBEC7D5BD14F71427D1E84F3DD0314C0F7B2291E5B200AC8C7C3B925 SWAP2 ADD PUSH1 0x40 MLOAD DUP1 SWAP2 SUB SWAP1 LOG3 POP POP POP JUMP JUMPDEST PUSH1 0x1 PUSH1 0x1 PUSH1 0xA0 SHL SUB DUP4 DUP2 AND PUSH1 0x0 SWAP1 DUP2 MSTORE PUSH1 0x1 PUSH1 0x20 SWAP1 DUP2 MSTORE PUSH1 0x40 DUP1 DUP4 KECCAK256 SWAP4 DUP7 AND DUP4 MSTORE SWAP3 SWAP1 MSTORE KECCAK256 SLOAD PUSH1 0x0 NOT DUP2 EQ PUSH2 0x17DB JUMPI DUP2 DUP2 LT ISZERO PUSH2 0x17CE JUMPI PUSH1 0x40 MLOAD PUSH3 0x461BCD PUSH1 0xE5 SHL DUP2 MSTORE PUSH1 0x20 PUSH1 0x4 DUP3 ADD MSTORE PUSH1 0x1D PUSH1 0x24 DUP3 ADD MSTORE PUSH32 0x45524332303A20696E73756666696369656E7420616C6C6F77616E6365000000 PUSH1 0x44 DUP3 ADD MSTORE PUSH1 0x64 ADD PUSH2 0x8C9 JUMP JUMPDEST PUSH2 0x17DB DUP5 DUP5 DUP5 DUP5 SUB PUSH2 0x162B JUMP JUMPDEST POP POP POP POP JUMP JUMPDEST PUSH1 0x1 PUSH1 0x1 PUSH1 0xA0 SHL SUB DUP4 AND PUSH2 0x1845 JUMPI PUSH1 0x40 MLOAD PUSH3 0x461BCD PUSH1 0xE5 SHL DUP2 MSTORE PUSH1 0x20 PUSH1 0x4 DUP3 ADD MSTORE PUSH1 0x25 PUSH1 0x24 DUP3 ADD MSTORE PUSH32 0x45524332303A207472616E736665722066726F6D20746865207A65726F206164 PUSH1 0x44 DUP3 ADD MSTORE PUSH5 0x6472657373 PUSH1 0xD8 SHL PUSH1 0x64 DUP3 ADD MSTORE PUSH1 0x84 ADD PUSH2 0x8C9 JUMP JUMPDEST PUSH1 0x1 PUSH1 0x1 PUSH1 0xA0 SHL SUB DUP3 AND PUSH2 0x18A7 JUMPI PUSH1 0x40 MLOAD PUSH3 0x461BCD PUSH1 0xE5 SHL DUP2 MSTORE PUSH1 0x20 PUSH1 0x4 DUP3 ADD MSTORE PUSH1 0x23 PUSH1 0x24 DUP3 ADD MSTORE PUSH32 0x45524332303A207472616E7366657220746F20746865207A65726F2061646472 PUSH1 0x44 DUP3 ADD MSTORE PUSH3 0x657373 PUSH1 0xE8 SHL PUSH1 0x64 DUP3 ADD MSTORE PUSH1 0x84 ADD PUSH2 0x8C9 JUMP JUMPDEST PUSH1 0x1 PUSH1 0x1 PUSH1 0xA0 SHL SUB DUP4 AND PUSH1 0x0 SWAP1 DUP2 MSTORE PUSH1 0x20 DUP2 SWAP1 MSTORE PUSH1 0x40 SWAP1 KECCAK256 SLOAD DUP2 DUP2 LT ISZERO PUSH2 0x191F JUMPI PUSH1 0x40 MLOAD PUSH3 0x461BCD PUSH1 0xE5 SHL DUP2 MSTORE PUSH1 0x20 PUSH1 0x4 DUP3 ADD MSTORE PUSH1 0x26 PUSH1 0x24 DUP3 ADD MSTORE PUSH32 0x45524332303A207472616E7366657220616D6F756E7420657863656564732062 PUSH1 0x44 DUP3 ADD MSTORE PUSH6 0x616C616E6365 PUSH1 0xD0 SHL PUSH1 0x64 DUP3 ADD MSTORE PUSH1 0x84 ADD PUSH2 0x8C9 JUMP JUMPDEST PUSH1 0x1 PUSH1 0x1 PUSH1 0xA0 SHL SUB DUP1 DUP6 AND PUSH1 0x0 SWAP1 DUP2 MSTORE PUSH1 0x20 DUP2 SWAP1 MSTORE PUSH1 0x40 DUP1 DUP3 KECCAK256 DUP6 DUP6 SUB SWAP1 SSTORE SWAP2 DUP6 AND DUP2 MSTORE SWAP1 DUP2 KECCAK256 DUP1 SLOAD DUP5 SWAP3 SWAP1 PUSH2 0x1956 SWAP1 DUP5 SWAP1 PUSH2 0x2236 JUMP JUMPDEST SWAP3 POP POP DUP2 SWAP1 SSTORE POP DUP3 PUSH1 0x1 PUSH1 0x1 PUSH1 0xA0 SHL SUB AND DUP5 PUSH1 0x1 PUSH1 0x1 PUSH1 0xA0 SHL SUB AND PUSH32 0xDDF252AD1BE2C89B69C2B068FC378DAA952BA7F163C4A11628F55A4DF523B3EF DUP5 PUSH1 0x40 MLOAD PUSH2 0x19A2 SWAP2 DUP2 MSTORE PUSH1 0x20 ADD SWAP1 JUMP JUMPDEST PUSH1 0x40 MLOAD DUP1 SWAP2 SUB SWAP1 LOG3 PUSH2 0x17DB JUMP JUMPDEST PUSH1 0x40 DUP1 MLOAD PUSH1 0x2 DUP1 DUP3 MSTORE PUSH1 0x60 DUP3 ADD DUP4 MSTORE PUSH1 0x0 SWAP3 PUSH1 0x20 DUP4 ADD SWAP1 DUP1 CALLDATASIZE DUP4 CALLDATACOPY ADD SWAP1 POP POP SWAP1 POP ADDRESS DUP2 PUSH1 0x0 DUP2 MLOAD DUP2 LT PUSH2 0x19E4 JUMPI PUSH2 0x19E4 PUSH2 0x229A JUMP JUMPDEST PUSH1 0x1 PUSH1 0x1 PUSH1 0xA0 SHL SUB SWAP3 DUP4 AND PUSH1 0x20 SWAP2 DUP3 MUL SWAP3 SWAP1 SWAP3 ADD DUP2 ADD SWAP2 SWAP1 SWAP2 MSTORE PUSH1 0x13 SLOAD PUSH1 0x40 DUP1 MLOAD PUSH4 0x15AB88C9 PUSH1 0xE3 SHL DUP2 MSTORE SWAP1 MLOAD SWAP2 SWAP1 SWAP4 AND SWAP3 PUSH4 0xAD5C4648 SWAP3 PUSH1 0x4 DUP1 DUP4 ADD SWAP4 SWAP2 SWAP3 DUP3 SWAP1 SUB ADD DUP2 DUP7 DUP1 EXTCODESIZE ISZERO DUP1 ISZERO PUSH2 0x1A38 JUMPI PUSH1 0x0 DUP1 REVERT JUMPDEST POP GAS STATICCALL ISZERO DUP1 ISZERO PUSH2 0x1A4C JUMPI RETURNDATASIZE PUSH1 0x0 DUP1 RETURNDATACOPY RETURNDATASIZE PUSH1 0x0 REVERT JUMPDEST POP POP POP POP PUSH1 0x40 MLOAD RETURNDATASIZE PUSH1 0x1F NOT PUSH1 0x1F DUP3 ADD AND DUP3 ADD DUP1 PUSH1 0x40 MSTORE POP DUP2 ADD SWAP1 PUSH2 0x1A70 SWAP2 SWAP1 PUSH2 0x22B0 JUMP JUMPDEST DUP2 PUSH1 0x1 DUP2 MLOAD DUP2 LT PUSH2 0x1A83 JUMPI PUSH2 0x1A83 PUSH2 0x229A JUMP JUMPDEST PUSH1 0x1 PUSH1 0x1 PUSH1 0xA0 SHL SUB SWAP3 DUP4 AND PUSH1 0x20 SWAP2 DUP3 MUL SWAP3 SWAP1 SWAP3 ADD ADD MSTORE PUSH1 0x13 SLOAD PUSH2 0x1AA9 SWAP2 ADDRESS SWAP2 AND DUP5 PUSH2 0x162B JUMP JUMPDEST PUSH1 0x13 SLOAD PUSH1 0x40 MLOAD PUSH4 0x791AC947 PUSH1 0xE0 SHL DUP2 MSTORE PUSH1 0x1 PUSH1 0x1 PUSH1 0xA0 SHL SUB SWAP1 SWAP2 AND SWAP1 PUSH4 0x791AC947 SWAP1 PUSH2 0x1AE2 SWAP1 DUP6 SWAP1 PUSH1 0x0 SWAP1 DUP7 SWAP1 ADDRESS SWAP1 TIMESTAMP SWAP1 PUSH1 0x4 ADD PUSH2 0x22CD JUMP JUMPDEST PUSH1 0x0 PUSH1 0x40 MLOAD DUP1 DUP4 SUB DUP2 PUSH1 0x0 DUP8 DUP1 EXTCODESIZE ISZERO DUP1 ISZERO PUSH2 0x1AFC JUMPI PUSH1 0x0 DUP1 REVERT JUMPDEST POP GAS CALL ISZERO DUP1 ISZERO PUSH2 0x1B10 JUMPI RETURNDATASIZE PUSH1 0x0 DUP1 RETURNDATACOPY RETURNDATASIZE PUSH1 0x0 REVERT JUMPDEST POP POP POP POP POP POP JUMP JUMPDEST PUSH1 0x0 PUSH1 0x12 SLOAD PUSH1 0x11 SLOAD PUSH2 0x1B2A SWAP2 SWAP1 PUSH2 0x2236 JUMP JUMPDEST PUSH1 0xD SLOAD PUSH1 0x11 SLOAD SWAP2 SWAP3 POP PUSH1 0x1 PUSH1 0x1 PUSH1 0xA0 SHL SUB AND SWAP1 PUSH2 0x8FC SWAP1 DUP4 SWAP1 PUSH2 0x1B4D SWAP1 DUP7 PUSH2 0x21F5 JUMP JUMPDEST PUSH2 0x1B57 SWAP2 SWAP1 PUSH2 0x2214 JUMP JUMPDEST PUSH1 0x40 MLOAD DUP2 ISZERO SWAP1 SWAP3 MUL SWAP2 PUSH1 0x0 DUP2 DUP2 DUP2 DUP6 DUP9 DUP9 CALL SWAP4 POP POP POP POP ISZERO DUP1 ISZERO PUSH2 0x1B7F JUMPI RETURNDATASIZE PUSH1 0x0 DUP1 RETURNDATACOPY RETURNDATASIZE PUSH1 0x0 REVERT JUMPDEST POP PUSH1 0xE SLOAD PUSH1 0x12 SLOAD PUSH1 0x1 PUSH1 0x1 PUSH1 0xA0 SHL SUB SWAP1 SWAP2 AND SWAP1 PUSH2 0x8FC SWAP1 DUP4 SWAP1 PUSH2 0x1BA2 SWAP1 DUP7 PUSH2 0x21F5 JUMP JUMPDEST PUSH2 0x1BAC SWAP2 SWAP1 PUSH2 0x2214 JUMP JUMPDEST PUSH1 0x40 MLOAD DUP2 ISZERO SWAP1 SWAP3 MUL SWAP2 PUSH1 0x0 DUP2 DUP2 DUP2 DUP6 DUP9 DUP9 CALL SWAP4 POP POP POP POP ISZERO DUP1 ISZERO PUSH2 0x139A JUMPI RETURNDATASIZE PUSH1 0x0 DUP1 RETURNDATACOPY RETURNDATASIZE PUSH1 0x0 REVERT JUMPDEST PUSH1 0x1 PUSH1 0x1 PUSH1 0xA0 SHL SUB DUP3 AND PUSH2 0x1C2A JUMPI PUSH1 0x40 MLOAD PUSH3 0x461BCD PUSH1 0xE5 SHL DUP2 MSTORE PUSH1 0x20 PUSH1 0x4 DUP3 ADD MSTORE PUSH1 0x1F PUSH1 0x24 DUP3 ADD MSTORE PUSH32 0x45524332303A206D696E7420746F20746865207A65726F206164647265737300 PUSH1 0x44 DUP3 ADD MSTORE PUSH1 0x64 ADD PUSH2 0x8C9 JUMP JUMPDEST DUP1 PUSH1 0x2 PUSH1 0x0 DUP3 DUP3 SLOAD PUSH2 0x1C3C SWAP2 SWAP1 PUSH2 0x2236 JUMP JUMPDEST SWAP1 SWAP2 SSTORE POP POP PUSH1 0x1 PUSH1 0x1 PUSH1 0xA0 SHL SUB DUP3 AND PUSH1 0x0 SWAP1 DUP2 MSTORE PUSH1 0x20 DUP2 SWAP1 MSTORE PUSH1 0x40 DUP2 KECCAK256 DUP1 SLOAD DUP4 SWAP3 SWAP1 PUSH2 0x1C69 SWAP1 DUP5 SWAP1 PUSH2 0x2236 JUMP JUMPDEST SWAP1 SWAP2 SSTORE POP POP PUSH1 0x40 MLOAD DUP2 DUP2 MSTORE PUSH1 0x1 PUSH1 0x1 PUSH1 0xA0 SHL SUB DUP4 AND SWAP1 PUSH1 0x0 SWAP1 PUSH32 0xDDF252AD1BE2C89B69C2B068FC378DAA952BA7F163C4A11628F55A4DF523B3EF SWAP1 PUSH1 0x20 ADD PUSH1 0x40 MLOAD DUP1 SWAP2 SUB SWAP1 LOG3 POP POP JUMP JUMPDEST PUSH1 0x5 DUP1 SLOAD PUSH1 0x1 PUSH1 0x1 PUSH1 0xA0 SHL SUB DUP4 DUP2 AND PUSH1 0x1 PUSH1 0x1 PUSH1 0xA0 SHL SUB NOT DUP4 AND DUP2 OR SWAP1 SWAP4 SSTORE PUSH1 0x40 MLOAD SWAP2 AND SWAP2 SWAP1 DUP3 SWAP1 PUSH32 0x8BE0079C531659141344CD1FD0A4F28419497F9722A3DAAFE3B4186F6B6457E0 SWAP1 PUSH1 0x0 SWAP1 LOG3 POP POP JUMP JUMPDEST PUSH1 0x1 PUSH1 0x1 PUSH1 0xA0 SHL SUB DUP3 AND PUSH2 0x1D65 JUMPI PUSH1 0x40 MLOAD PUSH3 0x461BCD PUSH1 0xE5 SHL DUP2 MSTORE PUSH1 0x20 PUSH1 0x4 DUP3 ADD MSTORE PUSH1 0x21 PUSH1 0x24 DUP3 ADD MSTORE PUSH32 0x45524332303A206275726E2066726F6D20746865207A65726F20616464726573 PUSH1 0x44 DUP3 ADD MSTORE PUSH1 0x73 PUSH1 0xF8 SHL PUSH1 0x64 DUP3 ADD MSTORE PUSH1 0x84 ADD PUSH2 0x8C9 JUMP JUMPDEST PUSH1 0x1 PUSH1 0x1 PUSH1 0xA0 SHL SUB DUP3 AND PUSH1 0x0 SWAP1 DUP2 MSTORE PUSH1 0x20 DUP2 SWAP1 MSTORE PUSH1 0x40 SWAP1 KECCAK256 SLOAD DUP2 DUP2 LT ISZERO PUSH2 0x1DD9 JUMPI PUSH1 0x40 MLOAD PUSH3 0x461BCD PUSH1 0xE5 SHL DUP2 MSTORE PUSH1 0x20 PUSH1 0x4 DUP3 ADD MSTORE PUSH1 0x22 PUSH1 0x24 DUP3 ADD MSTORE PUSH32 0x45524332303A206275726E20616D6F756E7420657863656564732062616C616E PUSH1 0x44 DUP3 ADD MSTORE PUSH2 0x6365 PUSH1 0xF0 SHL PUSH1 0x64 DUP3 ADD MSTORE PUSH1 0x84 ADD PUSH2 0x8C9 JUMP JUMPDEST PUSH1 0x1 PUSH1 0x1 PUSH1 0xA0 SHL SUB DUP4 AND PUSH1 0x0 SWAP1 DUP2 MSTORE PUSH1 0x20 DUP2 SWAP1 MSTORE PUSH1 0x40 DUP2 KECCAK256 DUP4 DUP4 SUB SWAP1 SSTORE PUSH1 0x2 DUP1 SLOAD DUP5 SWAP3 SWAP1 PUSH2 0x1E08 SWAP1 DUP5 SWAP1 PUSH2 0x224E JUMP JUMPDEST SWAP1 SWAP2 SSTORE POP POP PUSH1 0x40 MLOAD DUP3 DUP2 MSTORE PUSH1 0x0 SWAP1 PUSH1 0x1 PUSH1 0x1 PUSH1 0xA0 SHL SUB DUP6 AND SWAP1 PUSH32 0xDDF252AD1BE2C89B69C2B068FC378DAA952BA7F163C4A11628F55A4DF523B3EF SWAP1 PUSH1 0x20 ADD PUSH1 0x40 MLOAD DUP1 SWAP2 SUB SWAP1 LOG3 POP POP POP JUMP JUMPDEST PUSH1 0x0 PUSH1 0x20 DUP1 DUP4 MSTORE DUP4 MLOAD DUP1 DUP3 DUP6 ADD MSTORE PUSH1 0x0 JUMPDEST DUP2 DUP2 LT ISZERO PUSH2 0x1E80 JUMPI DUP6 DUP2 ADD DUP4 ADD MLOAD DUP6 DUP3 ADD PUSH1 0x40 ADD MSTORE DUP3 ADD PUSH2 0x1E64 JUMP JUMPDEST DUP2 DUP2 GT ISZERO PUSH2 0x1E92 JUMPI PUSH1 0x0 PUSH1 0x40 DUP4 DUP8 ADD ADD MSTORE JUMPDEST POP PUSH1 0x1F ADD PUSH1 0x1F NOT AND SWAP3 SWAP1 SWAP3 ADD PUSH1 0x40 ADD SWAP4 SWAP3 POP POP POP JUMP JUMPDEST PUSH1 0x1 PUSH1 0x1 PUSH1 0xA0 SHL SUB DUP2 AND DUP2 EQ PUSH2 0xECD JUMPI PUSH1 0x0 DUP1 REVERT JUMPDEST PUSH1 0x0 DUP1 PUSH1 0x40 DUP4 DUP6 SUB SLT ISZERO PUSH2 0x1ED0 JUMPI PUSH1 0x0 DUP1 REVERT JUMPDEST DUP3 CALLDATALOAD PUSH2 0x1EDB DUP2 PUSH2 0x1EA8 JUMP JUMPDEST SWAP5 PUSH1 0x20 SWAP4 SWAP1 SWAP4 ADD CALLDATALOAD SWAP4 POP POP POP JUMP JUMPDEST PUSH1 0x0 DUP1 PUSH1 0x0 PUSH1 0x60 DUP5 DUP7 SUB SLT ISZERO PUSH2 0x1EFE JUMPI PUSH1 0x0 DUP1 REVERT JUMPDEST DUP4 CALLDATALOAD PUSH2 0x1F09 DUP2 PUSH2 0x1EA8 JUMP JUMPDEST SWAP3 POP PUSH1 0x20 DUP5 ADD CALLDATALOAD PUSH2 0x1F19 DUP2 PUSH2 0x1EA8 JUMP JUMPDEST SWAP3 SWAP6 SWAP3 SWAP5 POP POP POP PUSH1 0x40 SWAP2 SWAP1 SWAP2 ADD CALLDATALOAD SWAP1 JUMP JUMPDEST DUP1 CALLDATALOAD DUP1 ISZERO ISZERO DUP2 EQ PUSH2 0x1F3A JUMPI PUSH1 0x0 DUP1 REVERT JUMPDEST SWAP2 SWAP1 POP JUMP JUMPDEST PUSH1 0x0 DUP1 PUSH1 0x40 DUP4 DUP6 SUB SLT ISZERO PUSH2 0x1F52 JUMPI PUSH1 0x0 DUP1 REVERT JUMPDEST DUP3 CALLDATALOAD PUSH2 0x1F5D DUP2 PUSH2 0x1EA8 JUMP JUMPDEST SWAP2 POP PUSH2 0x1F6B PUSH1 0x20 DUP5 ADD PUSH2 0x1F2A JUMP JUMPDEST SWAP1 POP SWAP3 POP SWAP3 SWAP1 POP JUMP JUMPDEST PUSH1 0x0 PUSH1 0x20 DUP3 DUP5 SUB SLT ISZERO PUSH2 0x1F86 JUMPI PUSH1 0x0 DUP1 REVERT JUMPDEST POP CALLDATALOAD SWAP2 SWAP1 POP JUMP JUMPDEST PUSH1 0x0 PUSH1 0x20 DUP3 DUP5 SUB SLT ISZERO PUSH2 0x1F9F JUMPI PUSH1 0x0 DUP1 REVERT JUMPDEST DUP2 CALLDATALOAD PUSH2 0xBE1 DUP2 PUSH2 0x1EA8 JUMP JUMPDEST PUSH1 0x0 DUP1 PUSH1 0x40 DUP4 DUP6 SUB SLT ISZERO PUSH2 0x1FBD JUMPI PUSH1 0x0 DUP1 REVERT JUMPDEST DUP3 CALLDATALOAD SWAP2 POP PUSH2 0x1F6B PUSH1 0x20 DUP5 ADD PUSH2 0x1F2A JUMP JUMPDEST PUSH1 0x0 DUP1 PUSH1 0x40 DUP4 DUP6 SUB SLT ISZERO PUSH2 0x1FE0 JUMPI PUSH1 0x0 DUP1 REVERT JUMPDEST DUP3 CALLDATALOAD PUSH2 0x1FEB DUP2 PUSH2 0x1EA8 JUMP JUMPDEST SWAP2 POP PUSH1 0x20 DUP4 ADD CALLDATALOAD PUSH2 0x1FFB DUP2 PUSH2 0x1EA8 JUMP JUMPDEST DUP1 SWAP2 POP POP SWAP3 POP SWAP3 SWAP1 POP JUMP JUMPDEST PUSH1 0x1 DUP2 DUP2 SHR SWAP1 DUP3 AND DUP1 PUSH2 0x201A JUMPI PUSH1 0x7F DUP3 AND SWAP2 POP JUMPDEST PUSH1 0x20 DUP3 LT DUP2 EQ ISZERO PUSH2 0x203B JUMPI PUSH4 0x4E487B71 PUSH1 0xE0 SHL PUSH1 0x0 MSTORE PUSH1 0x22 PUSH1 0x4 MSTORE PUSH1 0x24 PUSH1 0x0 REVERT JUMPDEST POP SWAP2 SWAP1 POP JUMP JUMPDEST PUSH1 0x20 DUP1 DUP3 MSTORE PUSH1 0x81 SWAP1 DUP3 ADD MSTORE PUSH32 0x596F752068617665206265656E20626C61636B6C69737465642066726F6D2074 PUSH1 0x40 DUP3 ADD MSTORE PUSH32 0x726164696E67207468652043617264696E616C20546F6B656E2E20496620796F PUSH1 0x60 DUP3 ADD MSTORE PUSH32 0x75207468696E6B207468697320697320616E206572726F722C20706C65617365 PUSH1 0x80 DUP3 ADD MSTORE PUSH32 0x20636F6E74616374207468652043617264696E616C20486F757365207465616D PUSH1 0xA0 DUP3 ADD MSTORE PUSH1 0x17 PUSH1 0xF9 SHL PUSH1 0xC0 DUP3 ADD MSTORE PUSH1 0xE0 ADD SWAP1 JUMP JUMPDEST PUSH1 0x20 DUP1 DUP3 MSTORE PUSH1 0xB2 SWAP1 DUP3 ADD MSTORE PUSH32 0x546865206164647265737320796F752061726520747279696E6720746F207365 PUSH1 0x40 DUP3 ADD MSTORE PUSH32 0x6E642043617264696E616C20546F6B656E7320746F20686173206265656E2062 PUSH1 0x60 DUP3 ADD MSTORE PUSH32 0x6C61636B6C69737465642066726F6D2074726164696E67207468652043617264 PUSH1 0x80 DUP3 ADD MSTORE PUSH32 0x696E616C20546F6B656E2E20496620796F75207468696E6B2074686973206973 PUSH1 0xA0 DUP3 ADD MSTORE PUSH32 0x20616E206572726F722C20706C6561736520636F6E7461637420746865204361 PUSH1 0xC0 DUP3 ADD MSTORE PUSH18 0x393234B730B6102437BAB9B2903A32B0B697 PUSH1 0x71 SHL PUSH1 0xE0 DUP3 ADD MSTORE PUSH2 0x100 ADD SWAP1 JUMP JUMPDEST PUSH4 0x4E487B71 PUSH1 0xE0 SHL PUSH1 0x0 MSTORE PUSH1 0x11 PUSH1 0x4 MSTORE PUSH1 0x24 PUSH1 0x0 REVERT JUMPDEST PUSH1 0x0 DUP2 PUSH1 0x0 NOT DIV DUP4 GT DUP3 ISZERO ISZERO AND ISZERO PUSH2 0x220F JUMPI PUSH2 0x220F PUSH2 0x21DF JUMP JUMPDEST POP MUL SWAP1 JUMP JUMPDEST PUSH1 0x0 DUP3 PUSH2 0x2231 JUMPI PUSH4 0x4E487B71 PUSH1 0xE0 SHL PUSH1 0x0 MSTORE PUSH1 0x12 PUSH1 0x4 MSTORE PUSH1 0x24 PUSH1 0x0 REVERT JUMPDEST POP DIV SWAP1 JUMP JUMPDEST PUSH1 0x0 DUP3 NOT DUP3 GT ISZERO PUSH2 0x2249 JUMPI PUSH2 0x2249 PUSH2 0x21DF JUMP JUMPDEST POP ADD SWAP1 JUMP JUMPDEST PUSH1 0x0 DUP3 DUP3 LT ISZERO PUSH2 0x2260 JUMPI PUSH2 0x2260 PUSH2 0x21DF JUMP JUMPDEST POP SUB SWAP1 JUMP JUMPDEST PUSH1 0x20 DUP1 DUP3 MSTORE DUP2 DUP2 ADD MSTORE PUSH32 0x4F776E61626C653A2063616C6C6572206973206E6F7420746865206F776E6572 PUSH1 0x40 DUP3 ADD MSTORE PUSH1 0x60 ADD SWAP1 JUMP JUMPDEST PUSH4 0x4E487B71 PUSH1 0xE0 SHL PUSH1 0x0 MSTORE PUSH1 0x32 PUSH1 0x4 MSTORE PUSH1 0x24 PUSH1 0x0 REVERT JUMPDEST PUSH1 0x0 PUSH1 0x20 DUP3 DUP5 SUB SLT ISZERO PUSH2 0x22C2 JUMPI PUSH1 0x0 DUP1 REVERT JUMPDEST DUP2 MLOAD PUSH2 0xBE1 DUP2 PUSH2 0x1EA8 JUMP JUMPDEST PUSH1 0x0 PUSH1 0xA0 DUP3 ADD DUP8 DUP4 MSTORE PUSH1 0x20 DUP8 DUP2 DUP6 ADD MSTORE PUSH1 0xA0 PUSH1 0x40 DUP6 ADD MSTORE DUP2 DUP8 MLOAD DUP1 DUP5 MSTORE PUSH1 0xC0 DUP7 ADD SWAP2 POP DUP3 DUP10 ADD SWAP4 POP PUSH1 0x0 JUMPDEST DUP2 DUP2 LT ISZERO PUSH2 0x231D JUMPI DUP5 MLOAD PUSH1 0x1 PUSH1 0x1 PUSH1 0xA0 SHL SUB AND DUP4 MSTORE SWAP4 DUP4 ADD SWAP4 SWAP2 DUP4 ADD SWAP2 PUSH1 0x1 ADD PUSH2 0x22F8 JUMP JUMPDEST POP POP PUSH1 0x1 PUSH1 0x1 PUSH1 0xA0 SHL SUB SWAP7 SWAP1 SWAP7 AND PUSH1 0x60 DUP6 ADD MSTORE POP POP POP PUSH1 0x80 ADD MSTORE SWAP4 SWAP3 POP POP POP JUMP INVALID LOG2 PUSH5 0x6970667358 0x22 SLT KECCAK256 0xC7 LOG1 0xC DUP10 SWAP8 SWAP2 0x5F DUP8 PUSH5 0x9072C1352C PUSH2 0xC45 0xCC SWAP3 BYTE SWAP11 PUSH3 0xE70A56 MSTORE PUSH15 0xF0A03F07D564736F6C634300080800 CALLER ",
  "sha1": "33fa908d37e20ea7f32ae5c1c31beac7b85037e9",
  "source": "// SPDX-License-Identifier: MIT\n \npragma solidity >=0.8.0 <0.9.0;\n \nimport \"@openzeppelin/contracts/token/ERC20/ERC20.sol\";\nimport \"@openzeppelin/contracts/access/Ownable.sol\";\nimport \"../interfaces/Uniswap.sol\";\n\n/**\n * @title Cardinal House Token\n * @dev Token contract for the Cardinal House ecosystem currency\n */\ncontract CardinalToken is ERC20, Ownable {\n\n    // Mapping to exclude some contracts from fees. Transfers are excluded from fees if address in this mapping is recipient or sender.\n    mapping (address => bool) public excludedFromFees;\n\n    // Blacklist mapping to prevent addresses from trading if necessary (i.e. flagged for malicious activity).\n    mapping (address => bool) public blacklist;\n\n    // Mapping to determine which addresses can mint Cardinal Tokens for bridging.\n    mapping (address => bool) public minters;\n\n    // Address of the contract for burning Cardinal Tokens.\n    address public burnWalletAddress;\n\n    // Liquidity wallet address used to hold 30% of the Cardinal Tokens for the liquidity pool.\n    // After these tokens are moved to the DEX, this address will no longer be used.\n    address public liquidityWalletAddress;\n\n    // Address of the Cardinal Token presale contract.\n    address public preSaleAddress;\n\n    // Wallet address used for the Cardinal Token member giveaways.\n    address payable public memberGiveawayWalletAddress;\n\n    // Marketing wallet address used for funding marketing.\n    address payable public marketingWalletAddress;\n\n    // Developer wallet address used for funding the team.\n    address payable public developerWalletAddress;\n\n    // The DEX router address for swapping Cardinal Tokens for Matic.\n    address public uniswapRouterAddress;\n\n    // Member giveaway transaction fee - deployed at 2%.\n    uint256 public memberGiveawayFeePercent = 2;\n\n    // Marketing transaction fee - deployed at 2%.\n    uint256 public marketingFeePercent = 2;\n\n    // Developer team transaction fee - deployed at 1%.\n    uint256 public developerFeePercent = 1;\n\n    // DEX router interface.\n    IUniswapV2Router02 private uniswapRouter;\n\n    // Address of the Matic to Cardinal Token pair on the DEX.\n    address public uniswapPair;\n\n    // Determines how many Cardinal Tokens this contract needs before it swaps for Matic to pay fee wallets.\n    uint256 public contractTokenDivisor = 1000;\n\n    // Events to emit when the transaction fees are updated\n    event memberGiveawayTransactionFeeUpdated(uint256 indexed transactionFeeAmount);\n    event marketingTransactionFeeUpdated(uint256 indexed transactionFeeAmount);\n    event developerTransactionFeeUpdated(uint256 indexed transactionFeeAmount);\n\n    // Initial token distribution:\n    // 35% - Pre-sale\n    // 35% - Liquidity pool (6 month lockup period)\n    // 10% - Marketing\n    // 20% - Developer coins (6 month lockup period)\n    constructor(\n        uint256 initialSupply,\n        address _preSaleAddress, \n        address _burnWalletAddress,\n        address _liquidityWalletAddress,\n        address payable _memberGiveawayWalletAddress,\n        address payable _marketingWalletAddress,\n        address payable _developerWalletAddress,\n        address _uniswapRouterAddress) ERC20(\"CardinalToken\", \"CRNL\") {\n            preSaleAddress = _preSaleAddress;\n            memberGiveawayWalletAddress = _memberGiveawayWalletAddress;\n            burnWalletAddress = _burnWalletAddress;\n            liquidityWalletAddress = _liquidityWalletAddress;\n            marketingWalletAddress = _marketingWalletAddress;\n            developerWalletAddress = _developerWalletAddress;\n            uniswapRouterAddress = _uniswapRouterAddress;\n\n            excludedFromFees[memberGiveawayWalletAddress] = true;\n            excludedFromFees[developerWalletAddress] = true;\n            excludedFromFees[marketingWalletAddress] = true;\n            excludedFromFees[liquidityWalletAddress] = true;\n            excludedFromFees[preSaleAddress] = true;\n\n            _mint(preSaleAddress, ((initialSupply) * 35 / 100));\n            _mint(liquidityWalletAddress, ((initialSupply) * 35 / 100));\n            _mint(marketingWalletAddress, initialSupply / 10);\n            _mint(developerWalletAddress, initialSupply / 5);\n\n            IUniswapV2Router02 _uniswapV2Router = IUniswapV2Router02(uniswapRouterAddress);\n            uniswapRouter = _uniswapV2Router;\n            _approve(address(this), address(uniswapRouter), initialSupply);\n            uniswapPair = IUniswapV2Factory(_uniswapV2Router.factory()).createPair(address(this), _uniswapV2Router.WETH());\n            IERC20(uniswapPair).approve(address(uniswapRouter), type(uint256).max);\n    }\n\n    /**\n     * @dev Returns the contract address\n     * @return contract address\n     */\n    function getContractAddress() public view returns (address){\n        return address(this);\n    }\n\n    /**\n    * @dev Adds a user to be excluded from fees.\n    * @param user address of the user to be excluded from fees.\n     */\n    function excludeUserFromFees(address user) public onlyOwner {\n        excludedFromFees[user] = true;\n    }\n\n    /**\n    * @dev Gets the current timestamp, used for testing + verification\n    * @return the the timestamp of the current block\n     */\n    function getCurrentTimestamp() public view returns (uint256) {\n        return block.timestamp;\n    }\n\n    /**\n    * @dev Removes a user from the fee exclusion.\n    * @param user address of the user than will now have to pay transaction fees.\n     */\n    function includeUsersInFees(address user) public onlyOwner {\n        excludedFromFees[user] = false;\n    }\n\n    /**\n     * @dev Overrides the BEP20 transfer function to include transaction fees.\n     * @param recipient the recipient of the transfer\n     * @param amount the amount to be transfered\n     * @return bool representing if the transfer was successful\n     */\n    function transfer(address recipient, uint256 amount) public override returns (bool) {\n        // Ensure the sender isn't blacklisted.\n        require(!blacklist[_msgSender()], \"You have been blacklisted from trading the Cardinal Token. If you think this is an error, please contact the Cardinal House team.\");\n        // Ensure the recipient isn't blacklisted.\n        require(!blacklist[recipient], \"The address you are trying to send Cardinal Tokens to has been blacklisted from trading the Cardinal Token. If you think this is an error, please contact the Cardinal House team.\");\n\n        // Stops investors from owning more than 2% of the total supply from purchasing Cardinal Tokens from the DEX.\n        if (_msgSender() == uniswapPair && !excludedFromFees[_msgSender()] && !excludedFromFees[recipient]) {\n            require((balanceOf(recipient) + amount) < (totalSupply() / 166), \"You can't have more than 2% of the total Cardinal Token supply after a DEX swap.\");\n        }\n\n        // If the sender or recipient is excluded from fees, perform the default transfer.\n        if (excludedFromFees[_msgSender()] || excludedFromFees[recipient]) {\n            _transfer(_msgSender(), recipient, amount);\n            return true;\n        }\n\n        // Member giveaway transaction fee.\n        uint256 memberGiveawayFee = (amount * memberGiveawayFeePercent) / 100;\n        // Marketing team transaction fee.\n        uint256 marketingFee = (amount * marketingFeePercent) / 100;\n        // Developer team transaction fee.\n        uint256 developerFee = (amount * developerFeePercent) / 100;\n\n        // The total fee to send to the contract address (marketing + development).\n        uint256 contractFee = marketingFee + developerFee;\n \n        // Sends the transaction fees to the giveaway wallet and contract address\n        _transfer(_msgSender(), memberGiveawayWalletAddress, memberGiveawayFee);\n        _transfer(_msgSender(), address(this), contractFee);\n\n        uint256 contractCardinalTokenBalance = balanceOf(address(this));\n\n        if (_msgSender() != uniswapPair) {\n            if (contractCardinalTokenBalance > balanceOf(uniswapPair) / contractTokenDivisor) {\n                swapCardinalTokensForMatic(contractCardinalTokenBalance);\n            }\n                \n            uint256 contractMaticBalance = address(this).balance;\n            if (contractMaticBalance > 0) {\n                sendFeesToWallets(address(this).balance);\n            }\n        }\n \n        // Sends [initial amount] - [fees] to the recipient\n        uint256 valueAfterFees = amount - contractFee - memberGiveawayFee;\n        _transfer(_msgSender(), recipient, valueAfterFees);\n        return true;\n    }\n\n    /**\n     * @dev Overrides the BEP20 transferFrom function to include transaction fees.\n     * @param from the address from where the tokens are coming from\n     * @param to the recipient of the transfer\n     * @param amount the amount to be transfered\n     * @return bool representing if the transfer was successful\n     */\n    function transferFrom(address from, address to, uint256 amount) public override returns (bool) {\n        // Ensure the sender isn't blacklisted.\n        require(!blacklist[_msgSender()], \"You have been blacklisted from trading the Cardinal Token. If you think this is an error, please contact the Cardinal House team.\");\n        // Ensure the address where the tokens are coming from isn't blacklisted.\n        require(!blacklist[from], \"The address you're trying to spend the Cardinal Tokens from has been blacklisted from trading the Cardinal Token. If you think this is an error, please contact the Cardinal House team.\");\n        // Ensure the recipient isn't blacklisted.\n        require(!blacklist[to], \"The address you are trying to send Cardinal Tokens to has been blacklisted from trading the Cardinal Token. If you think this is an error, please contact the Cardinal House team.\");\n\n        // If the from address or to address is excluded from fees, perform the default transferFrom.\n        if (excludedFromFees[from] || excludedFromFees[to] || excludedFromFees[_msgSender()]) {\n            _spendAllowance(from, _msgSender(), amount);\n            _transfer(from, to, amount);\n            return true;\n        }\n\n        // Member giveaway transaction fee.\n        uint256 memberGiveawayFee = (amount * memberGiveawayFeePercent) / 100;\n        // Marketing team transaction fee.\n        uint256 marketingFee = (amount * marketingFeePercent) / 100;\n        // Developer team transaction fee.\n        uint256 developerFee = (amount * developerFeePercent) / 100;\n\n        // The total fee to send to the contract address (marketing + development).\n        uint256 contractFee = marketingFee + developerFee;\n \n        // Sends the transaction fees to the giveaway wallet and contract address\n        _spendAllowance(from, _msgSender(), amount);\n        _transfer(from, memberGiveawayWalletAddress, memberGiveawayFee);\n        _transfer(from, address(this), contractFee);\n\n        uint256 contractCardinalTokenBalance = balanceOf(address(this));\n\n        if (_msgSender() != uniswapPair) {\n            if (contractCardinalTokenBalance > balanceOf(uniswapPair) / contractTokenDivisor) {\n                swapCardinalTokensForMatic(contractCardinalTokenBalance);\n            }\n                \n            uint256 contractMaticBalance = address(this).balance;\n            if (contractMaticBalance > 0) {\n                sendFeesToWallets(address(this).balance);\n            }\n        }\n \n        // Sends [initial amount] - [fees] to the recipient\n        uint256 valueAfterFees = amount - contractFee - memberGiveawayFee;\n        _transfer(from, to, valueAfterFees);\n        return true;\n    }\n\n    /**\n     * @dev Swaps Cardinal Tokens from transaction fees to Matic.\n     * @param amount the amount of Cardinal Tokens to swap\n     */\n    function swapCardinalTokensForMatic(uint256 amount) private {\n        address[] memory path = new address[](2);\n        path[0] = address(this);\n        path[1] = uniswapRouter.WETH();\n        _approve(address(this), address(uniswapRouter), amount);\n        uniswapRouter.swapExactTokensForETHSupportingFeeOnTransferTokens(\n            amount,\n            0,\n            path,\n            address(this),\n            block.timestamp\n        );\n    }\n\n    /**\n     * @dev Sends Matic to transaction fee wallets after Cardinal Token swaps.\n     * @param amount the amount to be transfered\n     */\n    function sendFeesToWallets(uint256 amount) private {\n        uint256 totalFee = marketingFeePercent + developerFeePercent;\n        marketingWalletAddress.transfer((amount * marketingFeePercent) / totalFee);\n        developerWalletAddress.transfer((amount * developerFeePercent) / totalFee);\n    }\n\n    /**\n     * @dev Sends Matic to transaction fee wallets manually as opposed to happening automatically after a certain level of volume\n     */\n    function disperseFeesManually() public onlyOwner {\n        uint256 contractMaticBalance = address(this).balance;\n        sendFeesToWallets(contractMaticBalance);\n    }\n\n    /**\n     * @dev Swaps all Cardinal Tokens in the contract for Matic and then disperses those funds to the transaction fee wallets.\n     * @param amount the amount of Cardinal Tokens in the contract to swap for Matic\n     * @param useAmount boolean to determine if the amount sent in is swapped for Matic or if the entire contract balance is swapped.\n     */\n    function swapCardinalTokensForMaticManually(uint256 amount, bool useAmount) public onlyOwner {\n        if (useAmount) {\n            swapCardinalTokensForMatic(amount);\n        }\n        else {\n            uint256 contractCardinalTokenBalance = balanceOf(address(this));\n            swapCardinalTokensForMatic(contractCardinalTokenBalance);\n        }\n\n        uint256 contractMaticBalance = address(this).balance;\n        sendFeesToWallets(contractMaticBalance);\n    }\n\n    receive() external payable {}\n\n    /**\n     * @dev Sets the value that determines how many Cardinal Tokens need to be in the contract before it's swapped for Matic.\n     * @param newDivisor the new divisor value to determine the swap threshold\n     */\n    function setContractTokenDivisor(uint256 newDivisor) public onlyOwner {\n        contractTokenDivisor = newDivisor;\n    }\n\n    /**\n    * @dev Updates the blacklist mapping for a given address\n    * @param user the address that is being added or removed from the blacklist\n    * @param blacklisted a boolean that determines if the given address is being added or removed from the blacklist\n    */\n    function updateBlackList(address user, bool blacklisted) public onlyOwner {\n        blacklist[user] = blacklisted;\n    }\n\n    /**\n    * @dev Function to update the member giveaway transaction fee - can't be more than 5 percent\n    * @param newMemberGiveawayTransactionFee the new member giveaway transaction fee\n    */\n    function updateMemberGiveawayTransactionFee(uint256 newMemberGiveawayTransactionFee) public onlyOwner {\n        require(newMemberGiveawayTransactionFee <= 5, \"The member giveaway transaction fee can't be more than 5%.\");\n        memberGiveawayFeePercent = newMemberGiveawayTransactionFee;\n        emit memberGiveawayTransactionFeeUpdated(newMemberGiveawayTransactionFee);\n    }\n\n    /**\n    * @dev Function to update the marketing transaction fee - can't be more than 5 percent\n    * @param newMarketingTransactionFee the new marketing transaction fee\n    */\n    function updateMarketingTransactionFee(uint256 newMarketingTransactionFee) public onlyOwner {\n        require(newMarketingTransactionFee <= 5, \"The marketing transaction fee can't be more than 5%.\");\n        marketingFeePercent = newMarketingTransactionFee;\n        emit marketingTransactionFeeUpdated(newMarketingTransactionFee);\n    }\n\n    /**\n    * @dev Function to update the developer transaction fee - can't be more than 5 percent\n    * @param newDeveloperTransactionFee the new developer transaction fee\n    */\n    function updateDeveloperTransactionFee(uint256 newDeveloperTransactionFee) public onlyOwner {\n        require(newDeveloperTransactionFee <= 5, \"The developer transaction fee can't be more than 5%.\");\n        developerFeePercent = newDeveloperTransactionFee;\n        emit developerTransactionFeeUpdated(newDeveloperTransactionFee);\n    }\n\n    /**\n    * @dev Function to add or remove a Cardinal Token minter\n    * @param user the address that will be added or removed as a minter\n    * @param isMinter boolean representing if the address provided will be added or removed as a minter\n    */\n    function updateMinter(address user, bool isMinter) public onlyOwner {\n        minters[user] = isMinter;\n    }\n\n    /**\n    * @dev Minter only function to mint new Cardinal Tokens for bridging\n    * @param user the address that the tokens will be minted to\n    * @param amount the amount of tokens to be minted to the user\n    */\n    function mint(address user, uint256 amount) public {\n        require(minters[_msgSender()], \"You are not authorized to mint Cardinal Tokens.\");\n        _mint(user, amount);\n    }\n\n    /**\n    * @dev Minter only function to burn Cardinal Tokens for bridging and deflation upon service purchases with the Cardinal Token\n    * @param user the address to burn the tokens from\n    * @param amount the amount of tokens to be burned\n    */\n    function burn(address user, uint256 amount) public {\n        require(minters[_msgSender()], \"You are not authorized to burn Cardinal Tokens.\");\n        _burn(user, amount);\n    }\n}",
  "sourcePath": "contracts/CardinalToken.sol",
  "type": "contract"
}