{
  "abi": [
    {
      "anonymous": false,
      "inputs": [
        {
          "indexed": true,
          "internalType": "address",
          "name": "previousOwner",
          "type": "address"
        },
        {
          "indexed": true,
          "internalType": "address",
          "name": "newOwner",
          "type": "address"
        }
      ],
      "name": "OwnershipTransferred",
      "type": "event"
    },
    {
      "inputs": [],
      "name": "MaticToCRNLRate",
      "outputs": [
        {
          "internalType": "uint256",
          "name": "",
          "type": "uint256"
        }
      ],
      "stateMutability": "view",
      "type": "function"
    },
    {
      "inputs": [
        {
          "internalType": "address",
          "name": "",
          "type": "address"
        }
      ],
      "name": "addressToAmountPurchased",
      "outputs": [
        {
          "internalType": "uint256",
          "name": "",
          "type": "uint256"
        }
      ],
      "stateMutability": "view",
      "type": "function"
    },
    {
      "inputs": [],
      "name": "cardinalToken",
      "outputs": [
        {
          "internalType": "contract CardinalToken",
          "name": "",
          "type": "address"
        }
      ],
      "stateMutability": "view",
      "type": "function"
    },
    {
      "inputs": [
        {
          "internalType": "uint256",
          "name": "newPurchaseCap",
          "type": "uint256"
        }
      ],
      "name": "changeCardinalTokenPurchaseCap",
      "outputs": [],
      "stateMutability": "nonpayable",
      "type": "function"
    },
    {
      "inputs": [
        {
          "internalType": "uint256",
          "name": "newConversionRate",
          "type": "uint256"
        }
      ],
      "name": "changeMaticToCardinalTokenRate",
      "outputs": [],
      "stateMutability": "nonpayable",
      "type": "function"
    },
    {
      "inputs": [],
      "name": "getContractAddress",
      "outputs": [
        {
          "internalType": "address",
          "name": "",
          "type": "address"
        }
      ],
      "stateMutability": "view",
      "type": "function"
    },
    {
      "inputs": [],
      "name": "getContractMatic",
      "outputs": [
        {
          "internalType": "uint256",
          "name": "",
          "type": "uint256"
        }
      ],
      "stateMutability": "view",
      "type": "function"
    },
    {
      "inputs": [],
      "name": "getContractTokens",
      "outputs": [
        {
          "internalType": "uint256",
          "name": "",
          "type": "uint256"
        }
      ],
      "stateMutability": "view",
      "type": "function"
    },
    {
      "inputs": [],
      "name": "getTokenAddress",
      "outputs": [
        {
          "internalType": "address",
          "name": "",
          "type": "address"
        }
      ],
      "stateMutability": "view",
      "type": "function"
    },
    {
      "inputs": [],
      "name": "getUserBalance",
      "outputs": [
        {
          "internalType": "uint256",
          "name": "",
          "type": "uint256"
        }
      ],
      "stateMutability": "view",
      "type": "function"
    },
    {
      "inputs": [],
      "name": "owner",
      "outputs": [
        {
          "internalType": "address",
          "name": "",
          "type": "address"
        }
      ],
      "stateMutability": "view",
      "type": "function"
    },
    {
      "inputs": [],
      "name": "purchaseCap",
      "outputs": [
        {
          "internalType": "uint256",
          "name": "",
          "type": "uint256"
        }
      ],
      "stateMutability": "view",
      "type": "function"
    },
    {
      "inputs": [],
      "name": "purchaseCardinalTokens",
      "outputs": [],
      "stateMutability": "payable",
      "type": "function"
    },
    {
      "inputs": [],
      "name": "renounceOwnership",
      "outputs": [],
      "stateMutability": "nonpayable",
      "type": "function"
    },
    {
      "inputs": [
        {
          "internalType": "address payable",
          "name": "CardinalTokenAddress",
          "type": "address"
        }
      ],
      "name": "setToken",
      "outputs": [],
      "stateMutability": "nonpayable",
      "type": "function"
    },
    {
      "inputs": [
        {
          "internalType": "address",
          "name": "newOwner",
          "type": "address"
        }
      ],
      "name": "transferOwnership",
      "outputs": [],
      "stateMutability": "nonpayable",
      "type": "function"
    },
    {
      "inputs": [
        {
          "internalType": "uint256",
          "name": "amount",
          "type": "uint256"
        }
      ],
      "name": "withdrawMatic",
      "outputs": [],
      "stateMutability": "nonpayable",
      "type": "function"
    }
  ],
  "bytecode": "6080604052691fc3842bd1f071c0000060035561cd1460045534801561002457600080fd5b5061002e33610033565b610083565b600080546001600160a01b038381166001600160a01b0319831681178455604051919092169283917f8be0079c531659141344cd1fd0a4f28419497f9722a3daafe3b4186f6b6457e09190a35050565b610980806100926000396000f3fe6080604052600436106100fe5760003560e01c806357e6640911610095578063b7013dc111610064578063b7013dc11461025b578063c026424f14610270578063c3ffb88414610290578063e8a379b2146102a5578063f2fde38b146102c557600080fd5b806357e66409146101e5578063715018a6146102125780638da5cb5b14610227578063ab0fe8741461024557600080fd5b80631b2c73ee116100d15780631b2c73ee1461019457806332a2c5d01461019c5780633a3d0293146101af57806342ce41ca146101c557600080fd5b80630e1bac891461010357806310fe9ae814610140578063128a897314610155578063144fa6d714610172575b600080fd5b34801561010f57600080fd5b50600154610123906001600160a01b031681565b6040516001600160a01b0390911681526020015b60405180910390f35b34801561014c57600080fd5b506101236102e5565b34801561016157600080fd5b50475b604051908152602001610137565b34801561017e57600080fd5b5061019261018d366004610833565b610367565b005b6101926103bc565b3480156101a857600080fd5b5030610123565b3480156101bb57600080fd5b5061016460045481565b3480156101d157600080fd5b506101926101e0366004610857565b610534565b3480156101f157600080fd5b50610164610200366004610833565b60026020526000908152604090205481565b34801561021e57600080fd5b50610192610563565b34801561023357600080fd5b506000546001600160a01b0316610123565b34801561025157600080fd5b5061016460035481565b34801561026757600080fd5b50610164610599565b34801561027c57600080fd5b5061019261028b366004610857565b610616565b34801561029c57600080fd5b50610164610645565b3480156102b157600080fd5b506101926102c0366004610857565b610676565b3480156102d157600080fd5b506101926102e0366004610833565b610733565b6001546040805163032a2c5d60e41b815290516000926001600160a01b0316916332a2c5d0916004808301926020929190829003018186803b15801561032a57600080fd5b505afa15801561033e573d6000803e3d6000fd5b505050506040513d601f19601f820116820180604052508101906103629190610870565b905090565b6000546001600160a01b0316331461039a5760405162461bcd60e51b81526004016103919061088d565b60405180910390fd5b600180546001600160a01b0319166001600160a01b0392909216919091179055565b6000600454346103cc91906108d8565b60035433600090815260026020526040902054919250906103ee9083906108f7565b11156104885760405162461bcd60e51b815260206004820152605860248201527f596f752063616e6e6f742070757263686173652074686973206d616e7920436160448201527f7264696e616c20546f6b656e732c207468617420776f756c642070757420796f60648201527f75207061737420796f75722070726573616c65206361702e0000000000000000608482015260a401610391565b60015460405163a9059cbb60e01b8152336004820152602481018390526001600160a01b039091169063a9059cbb90604401602060405180830381600087803b1580156104d457600080fd5b505af11580156104e8573d6000803e3d6000fd5b505050506040513d601f19601f8201168201806040525081019061050c919061090f565b50336000908152600260205260408120805483929061052c9084906108f7565b909155505050565b6000546001600160a01b0316331461055e5760405162461bcd60e51b81526004016103919061088d565b600355565b6000546001600160a01b0316331461058d5760405162461bcd60e51b81526004016103919061088d565b61059760006107ce565b565b6001546040516370a0823160e01b81523360048201526000916001600160a01b0316906370a08231906024015b60206040518083038186803b1580156105de57600080fd5b505afa1580156105f2573d6000803e3d6000fd5b505050506040513d601f19601f820116820180604052508101906103629190610931565b6000546001600160a01b031633146106405760405162461bcd60e51b81526004016103919061088d565b600455565b6001546040516370a0823160e01b81523060048201526000916001600160a01b0316906370a08231906024016105c6565b6000546001600160a01b031633146106a05760405162461bcd60e51b81526004016103919061088d565b604051600090339083908381818185875af1925050503d80600081146106e2576040519150601f19603f3d011682016040523d82523d6000602084013e6106e7565b606091505b505090508061072f5760405162461bcd60e51b81526020600482015260146024820152734661696c656420746f2073656e64204d6174696360601b6044820152606401610391565b5050565b6000546001600160a01b0316331461075d5760405162461bcd60e51b81526004016103919061088d565b6001600160a01b0381166107c25760405162461bcd60e51b815260206004820152602660248201527f4f776e61626c653a206e6577206f776e657220697320746865207a65726f206160448201526564647265737360d01b6064820152608401610391565b6107cb816107ce565b50565b600080546001600160a01b038381166001600160a01b0319831681178455604051919092169283917f8be0079c531659141344cd1fd0a4f28419497f9722a3daafe3b4186f6b6457e09190a35050565b6001600160a01b03811681146107cb57600080fd5b60006020828403121561084557600080fd5b81356108508161081e565b9392505050565b60006020828403121561086957600080fd5b5035919050565b60006020828403121561088257600080fd5b81516108508161081e565b6020808252818101527f4f776e61626c653a2063616c6c6572206973206e6f7420746865206f776e6572604082015260600190565b634e487b7160e01b600052601160045260246000fd5b60008160001904831182151516156108f2576108f26108c2565b500290565b6000821982111561090a5761090a6108c2565b500190565b60006020828403121561092157600080fd5b8151801515811461085057600080fd5b60006020828403121561094357600080fd5b505191905056fea2646970667358221220a402894fa9ed5fc9382fe650cfb8f74baee98fd74ac540bbca56711cc079d06d64736f6c63430008080033",
  "bytecodeSha1": "ab6960844a08281dea069361aea321c5140fbc03",
  "compiler": {
    "evm_version": "istanbul",
    "optimizer": {
      "enabled": true,
      "runs": 200
    },
    "version": "0.8.8+commit.dddeac2f"
  },
  "contractName": "CardinalHousePreSale",
  "language": "Solidity",
  "natspec": {
    "details": "Contract responsible for the Cardinal House presale mechanisms",
    "kind": "dev",
    "methods": {
      "changeCardinalTokenPurchaseCap(uint256)": {
        "details": "Only owner function to change the presale Cardinal Token purchase cap per user.",
        "params": {
          "newPurchaseCap": "the new Cardinal Token purchase cap in CRNL (NOT Matic). Use the conversion rate to figure out how many Cardinal Tokens to set here."
        }
      },
      "changeMaticToCardinalTokenRate(uint256)": {
        "details": "Only owner function to change the conversion rate for Matic to Cardinal Token.",
        "params": {
          "newConversionRate": "the new Matic to Cardinal Token conversion rate."
        }
      },
      "getContractAddress()": {
        "details": "Returns the contract address",
        "returns": {
          "_0": "contract address"
        }
      },
      "getContractMatic()": {
        "details": "Gets the amount of Matic that the contract has.",
        "returns": {
          "_0": "the amount of Matic the contract has."
        }
      },
      "getContractTokens()": {
        "details": "Gets the Cardinal Token balance of the contract.",
        "returns": {
          "_0": "the amount of Cardinal Tokens the contract has."
        }
      },
      "getTokenAddress()": {
        "details": "Returns the Cardinal Token address",
        "returns": {
          "_0": "Cardinal Token contract address"
        }
      },
      "getUserBalance()": {
        "details": "Gets the amount of Cardinal Tokens the sender owns.",
        "returns": {
          "_0": "the Cardinal Token balance of the sender"
        }
      },
      "owner()": {
        "details": "Returns the address of the current owner."
      },
      "purchaseCardinalTokens()": {
        "details": "Allows a user to pay Matic for Cardinal Tokens. Conversion rate is 1 Matic to MaticToCRNLRate Cardinal Tokens (CRNL) where MaticToCRNLRate is the variable defined in the contract."
      },
      "renounceOwnership()": {
        "details": "Leaves the contract without owner. It will not be possible to call `onlyOwner` functions anymore. Can only be called by the current owner. NOTE: Renouncing ownership will leave the contract without an owner, thereby removing any functionality that is only available to the owner."
      },
      "setToken(address)": {
        "details": "Once the Cardinal Token contract is deployed, this function is used to set a reference to that token in this contract.",
        "params": {
          "CardinalTokenAddress": "address of the Cardinal Token."
        }
      },
      "transferOwnership(address)": {
        "details": "Transfers ownership of the contract to a new account (`newOwner`). Can only be called by the current owner."
      },
      "withdrawMatic(uint256)": {
        "details": "Only owner function to withdraw the Matic from this contract.",
        "params": {
          "amount": "the amount of Matic to withdraw from the pre-sale contract."
        }
      }
    },
    "title": "Cardinal House Presale contract",
    "version": 1
  },
  "opcodes": "PUSH1 0x80 PUSH1 0x40 MSTORE PUSH1 0x4 CALLDATASIZE LT PUSH2 0xFE JUMPI PUSH1 0x0 CALLDATALOAD PUSH1 0xE0 SHR DUP1 PUSH4 0x57E66409 GT PUSH2 0x95 JUMPI DUP1 PUSH4 0xB7013DC1 GT PUSH2 0x64 JUMPI DUP1 PUSH4 0xB7013DC1 EQ PUSH2 0x25B JUMPI DUP1 PUSH4 0xC026424F EQ PUSH2 0x270 JUMPI DUP1 PUSH4 0xC3FFB884 EQ PUSH2 0x290 JUMPI DUP1 PUSH4 0xE8A379B2 EQ PUSH2 0x2A5 JUMPI DUP1 PUSH4 0xF2FDE38B EQ PUSH2 0x2C5 JUMPI PUSH1 0x0 DUP1 REVERT JUMPDEST DUP1 PUSH4 0x57E66409 EQ PUSH2 0x1E5 JUMPI DUP1 PUSH4 0x715018A6 EQ PUSH2 0x212 JUMPI DUP1 PUSH4 0x8DA5CB5B EQ PUSH2 0x227 JUMPI DUP1 PUSH4 0xAB0FE874 EQ PUSH2 0x245 JUMPI PUSH1 0x0 DUP1 REVERT JUMPDEST DUP1 PUSH4 0x1B2C73EE GT PUSH2 0xD1 JUMPI DUP1 PUSH4 0x1B2C73EE EQ PUSH2 0x194 JUMPI DUP1 PUSH4 0x32A2C5D0 EQ PUSH2 0x19C JUMPI DUP1 PUSH4 0x3A3D0293 EQ PUSH2 0x1AF JUMPI DUP1 PUSH4 0x42CE41CA EQ PUSH2 0x1C5 JUMPI PUSH1 0x0 DUP1 REVERT JUMPDEST DUP1 PUSH4 0xE1BAC89 EQ PUSH2 0x103 JUMPI DUP1 PUSH4 0x10FE9AE8 EQ PUSH2 0x140 JUMPI DUP1 PUSH4 0x128A8973 EQ PUSH2 0x155 JUMPI DUP1 PUSH4 0x144FA6D7 EQ PUSH2 0x172 JUMPI JUMPDEST PUSH1 0x0 DUP1 REVERT JUMPDEST CALLVALUE DUP1 ISZERO PUSH2 0x10F JUMPI PUSH1 0x0 DUP1 REVERT JUMPDEST POP PUSH1 0x1 SLOAD PUSH2 0x123 SWAP1 PUSH1 0x1 PUSH1 0x1 PUSH1 0xA0 SHL SUB AND DUP2 JUMP JUMPDEST PUSH1 0x40 MLOAD PUSH1 0x1 PUSH1 0x1 PUSH1 0xA0 SHL SUB SWAP1 SWAP2 AND DUP2 MSTORE PUSH1 0x20 ADD JUMPDEST PUSH1 0x40 MLOAD DUP1 SWAP2 SUB SWAP1 RETURN JUMPDEST CALLVALUE DUP1 ISZERO PUSH2 0x14C JUMPI PUSH1 0x0 DUP1 REVERT JUMPDEST POP PUSH2 0x123 PUSH2 0x2E5 JUMP JUMPDEST CALLVALUE DUP1 ISZERO PUSH2 0x161 JUMPI PUSH1 0x0 DUP1 REVERT JUMPDEST POP SELFBALANCE JUMPDEST PUSH1 0x40 MLOAD SWAP1 DUP2 MSTORE PUSH1 0x20 ADD PUSH2 0x137 JUMP JUMPDEST CALLVALUE DUP1 ISZERO PUSH2 0x17E JUMPI PUSH1 0x0 DUP1 REVERT JUMPDEST POP PUSH2 0x192 PUSH2 0x18D CALLDATASIZE PUSH1 0x4 PUSH2 0x833 JUMP JUMPDEST PUSH2 0x367 JUMP JUMPDEST STOP JUMPDEST PUSH2 0x192 PUSH2 0x3BC JUMP JUMPDEST CALLVALUE DUP1 ISZERO PUSH2 0x1A8 JUMPI PUSH1 0x0 DUP1 REVERT JUMPDEST POP ADDRESS PUSH2 0x123 JUMP JUMPDEST CALLVALUE DUP1 ISZERO PUSH2 0x1BB JUMPI PUSH1 0x0 DUP1 REVERT JUMPDEST POP PUSH2 0x164 PUSH1 0x4 SLOAD DUP2 JUMP JUMPDEST CALLVALUE DUP1 ISZERO PUSH2 0x1D1 JUMPI PUSH1 0x0 DUP1 REVERT JUMPDEST POP PUSH2 0x192 PUSH2 0x1E0 CALLDATASIZE PUSH1 0x4 PUSH2 0x857 JUMP JUMPDEST PUSH2 0x534 JUMP JUMPDEST CALLVALUE DUP1 ISZERO PUSH2 0x1F1 JUMPI PUSH1 0x0 DUP1 REVERT JUMPDEST POP PUSH2 0x164 PUSH2 0x200 CALLDATASIZE PUSH1 0x4 PUSH2 0x833 JUMP JUMPDEST PUSH1 0x2 PUSH1 0x20 MSTORE PUSH1 0x0 SWAP1 DUP2 MSTORE PUSH1 0x40 SWAP1 KECCAK256 SLOAD DUP2 JUMP JUMPDEST CALLVALUE DUP1 ISZERO PUSH2 0x21E JUMPI PUSH1 0x0 DUP1 REVERT JUMPDEST POP PUSH2 0x192 PUSH2 0x563 JUMP JUMPDEST CALLVALUE DUP1 ISZERO PUSH2 0x233 JUMPI PUSH1 0x0 DUP1 REVERT JUMPDEST POP PUSH1 0x0 SLOAD PUSH1 0x1 PUSH1 0x1 PUSH1 0xA0 SHL SUB AND PUSH2 0x123 JUMP JUMPDEST CALLVALUE DUP1 ISZERO PUSH2 0x251 JUMPI PUSH1 0x0 DUP1 REVERT JUMPDEST POP PUSH2 0x164 PUSH1 0x3 SLOAD DUP2 JUMP JUMPDEST CALLVALUE DUP1 ISZERO PUSH2 0x267 JUMPI PUSH1 0x0 DUP1 REVERT JUMPDEST POP PUSH2 0x164 PUSH2 0x599 JUMP JUMPDEST CALLVALUE DUP1 ISZERO PUSH2 0x27C JUMPI PUSH1 0x0 DUP1 REVERT JUMPDEST POP PUSH2 0x192 PUSH2 0x28B CALLDATASIZE PUSH1 0x4 PUSH2 0x857 JUMP JUMPDEST PUSH2 0x616 JUMP JUMPDEST CALLVALUE DUP1 ISZERO PUSH2 0x29C JUMPI PUSH1 0x0 DUP1 REVERT JUMPDEST POP PUSH2 0x164 PUSH2 0x645 JUMP JUMPDEST CALLVALUE DUP1 ISZERO PUSH2 0x2B1 JUMPI PUSH1 0x0 DUP1 REVERT JUMPDEST POP PUSH2 0x192 PUSH2 0x2C0 CALLDATASIZE PUSH1 0x4 PUSH2 0x857 JUMP JUMPDEST PUSH2 0x676 JUMP JUMPDEST CALLVALUE DUP1 ISZERO PUSH2 0x2D1 JUMPI PUSH1 0x0 DUP1 REVERT JUMPDEST POP PUSH2 0x192 PUSH2 0x2E0 CALLDATASIZE PUSH1 0x4 PUSH2 0x833 JUMP JUMPDEST PUSH2 0x733 JUMP JUMPDEST PUSH1 0x1 SLOAD PUSH1 0x40 DUP1 MLOAD PUSH4 0x32A2C5D PUSH1 0xE4 SHL DUP2 MSTORE SWAP1 MLOAD PUSH1 0x0 SWAP3 PUSH1 0x1 PUSH1 0x1 PUSH1 0xA0 SHL SUB AND SWAP2 PUSH4 0x32A2C5D0 SWAP2 PUSH1 0x4 DUP1 DUP4 ADD SWAP3 PUSH1 0x20 SWAP3 SWAP2 SWAP1 DUP3 SWAP1 SUB ADD DUP2 DUP7 DUP1 EXTCODESIZE ISZERO DUP1 ISZERO PUSH2 0x32A JUMPI PUSH1 0x0 DUP1 REVERT JUMPDEST POP GAS STATICCALL ISZERO DUP1 ISZERO PUSH2 0x33E JUMPI RETURNDATASIZE PUSH1 0x0 DUP1 RETURNDATACOPY RETURNDATASIZE PUSH1 0x0 REVERT JUMPDEST POP POP POP POP PUSH1 0x40 MLOAD RETURNDATASIZE PUSH1 0x1F NOT PUSH1 0x1F DUP3 ADD AND DUP3 ADD DUP1 PUSH1 0x40 MSTORE POP DUP2 ADD SWAP1 PUSH2 0x362 SWAP2 SWAP1 PUSH2 0x870 JUMP JUMPDEST SWAP1 POP SWAP1 JUMP JUMPDEST PUSH1 0x0 SLOAD PUSH1 0x1 PUSH1 0x1 PUSH1 0xA0 SHL SUB AND CALLER EQ PUSH2 0x39A JUMPI PUSH1 0x40 MLOAD PUSH3 0x461BCD PUSH1 0xE5 SHL DUP2 MSTORE PUSH1 0x4 ADD PUSH2 0x391 SWAP1 PUSH2 0x88D JUMP JUMPDEST PUSH1 0x40 MLOAD DUP1 SWAP2 SUB SWAP1 REVERT JUMPDEST PUSH1 0x1 DUP1 SLOAD PUSH1 0x1 PUSH1 0x1 PUSH1 0xA0 SHL SUB NOT AND PUSH1 0x1 PUSH1 0x1 PUSH1 0xA0 SHL SUB SWAP3 SWAP1 SWAP3 AND SWAP2 SWAP1 SWAP2 OR SWAP1 SSTORE JUMP JUMPDEST PUSH1 0x0 PUSH1 0x4 SLOAD CALLVALUE PUSH2 0x3CC SWAP2 SWAP1 PUSH2 0x8D8 JUMP JUMPDEST PUSH1 0x3 SLOAD CALLER PUSH1 0x0 SWAP1 DUP2 MSTORE PUSH1 0x2 PUSH1 0x20 MSTORE PUSH1 0x40 SWAP1 KECCAK256 SLOAD SWAP2 SWAP3 POP SWAP1 PUSH2 0x3EE SWAP1 DUP4 SWAP1 PUSH2 0x8F7 JUMP JUMPDEST GT ISZERO PUSH2 0x488 JUMPI PUSH1 0x40 MLOAD PUSH3 0x461BCD PUSH1 0xE5 SHL DUP2 MSTORE PUSH1 0x20 PUSH1 0x4 DUP3 ADD MSTORE PUSH1 0x58 PUSH1 0x24 DUP3 ADD MSTORE PUSH32 0x596F752063616E6E6F742070757263686173652074686973206D616E79204361 PUSH1 0x44 DUP3 ADD MSTORE PUSH32 0x7264696E616C20546F6B656E732C207468617420776F756C642070757420796F PUSH1 0x64 DUP3 ADD MSTORE PUSH32 0x75207061737420796F75722070726573616C65206361702E0000000000000000 PUSH1 0x84 DUP3 ADD MSTORE PUSH1 0xA4 ADD PUSH2 0x391 JUMP JUMPDEST PUSH1 0x1 SLOAD PUSH1 0x40 MLOAD PUSH4 0xA9059CBB PUSH1 0xE0 SHL DUP2 MSTORE CALLER PUSH1 0x4 DUP3 ADD MSTORE PUSH1 0x24 DUP2 ADD DUP4 SWAP1 MSTORE PUSH1 0x1 PUSH1 0x1 PUSH1 0xA0 SHL SUB SWAP1 SWAP2 AND SWAP1 PUSH4 0xA9059CBB SWAP1 PUSH1 0x44 ADD PUSH1 0x20 PUSH1 0x40 MLOAD DUP1 DUP4 SUB DUP2 PUSH1 0x0 DUP8 DUP1 EXTCODESIZE ISZERO DUP1 ISZERO PUSH2 0x4D4 JUMPI PUSH1 0x0 DUP1 REVERT JUMPDEST POP GAS CALL ISZERO DUP1 ISZERO PUSH2 0x4E8 JUMPI RETURNDATASIZE PUSH1 0x0 DUP1 RETURNDATACOPY RETURNDATASIZE PUSH1 0x0 REVERT JUMPDEST POP POP POP POP PUSH1 0x40 MLOAD RETURNDATASIZE PUSH1 0x1F NOT PUSH1 0x1F DUP3 ADD AND DUP3 ADD DUP1 PUSH1 0x40 MSTORE POP DUP2 ADD SWAP1 PUSH2 0x50C SWAP2 SWAP1 PUSH2 0x90F JUMP JUMPDEST POP CALLER PUSH1 0x0 SWAP1 DUP2 MSTORE PUSH1 0x2 PUSH1 0x20 MSTORE PUSH1 0x40 DUP2 KECCAK256 DUP1 SLOAD DUP4 SWAP3 SWAP1 PUSH2 0x52C SWAP1 DUP5 SWAP1 PUSH2 0x8F7 JUMP JUMPDEST SWAP1 SWAP2 SSTORE POP POP POP JUMP JUMPDEST PUSH1 0x0 SLOAD PUSH1 0x1 PUSH1 0x1 PUSH1 0xA0 SHL SUB AND CALLER EQ PUSH2 0x55E JUMPI PUSH1 0x40 MLOAD PUSH3 0x461BCD PUSH1 0xE5 SHL DUP2 MSTORE PUSH1 0x4 ADD PUSH2 0x391 SWAP1 PUSH2 0x88D JUMP JUMPDEST PUSH1 0x3 SSTORE JUMP JUMPDEST PUSH1 0x0 SLOAD PUSH1 0x1 PUSH1 0x1 PUSH1 0xA0 SHL SUB AND CALLER EQ PUSH2 0x58D JUMPI PUSH1 0x40 MLOAD PUSH3 0x461BCD PUSH1 0xE5 SHL DUP2 MSTORE PUSH1 0x4 ADD PUSH2 0x391 SWAP1 PUSH2 0x88D JUMP JUMPDEST PUSH2 0x597 PUSH1 0x0 PUSH2 0x7CE JUMP JUMPDEST JUMP JUMPDEST PUSH1 0x1 SLOAD PUSH1 0x40 MLOAD PUSH4 0x70A08231 PUSH1 0xE0 SHL DUP2 MSTORE CALLER PUSH1 0x4 DUP3 ADD MSTORE PUSH1 0x0 SWAP2 PUSH1 0x1 PUSH1 0x1 PUSH1 0xA0 SHL SUB AND SWAP1 PUSH4 0x70A08231 SWAP1 PUSH1 0x24 ADD JUMPDEST PUSH1 0x20 PUSH1 0x40 MLOAD DUP1 DUP4 SUB DUP2 DUP7 DUP1 EXTCODESIZE ISZERO DUP1 ISZERO PUSH2 0x5DE JUMPI PUSH1 0x0 DUP1 REVERT JUMPDEST POP GAS STATICCALL ISZERO DUP1 ISZERO PUSH2 0x5F2 JUMPI RETURNDATASIZE PUSH1 0x0 DUP1 RETURNDATACOPY RETURNDATASIZE PUSH1 0x0 REVERT JUMPDEST POP POP POP POP PUSH1 0x40 MLOAD RETURNDATASIZE PUSH1 0x1F NOT PUSH1 0x1F DUP3 ADD AND DUP3 ADD DUP1 PUSH1 0x40 MSTORE POP DUP2 ADD SWAP1 PUSH2 0x362 SWAP2 SWAP1 PUSH2 0x931 JUMP JUMPDEST PUSH1 0x0 SLOAD PUSH1 0x1 PUSH1 0x1 PUSH1 0xA0 SHL SUB AND CALLER EQ PUSH2 0x640 JUMPI PUSH1 0x40 MLOAD PUSH3 0x461BCD PUSH1 0xE5 SHL DUP2 MSTORE PUSH1 0x4 ADD PUSH2 0x391 SWAP1 PUSH2 0x88D JUMP JUMPDEST PUSH1 0x4 SSTORE JUMP JUMPDEST PUSH1 0x1 SLOAD PUSH1 0x40 MLOAD PUSH4 0x70A08231 PUSH1 0xE0 SHL DUP2 MSTORE ADDRESS PUSH1 0x4 DUP3 ADD MSTORE PUSH1 0x0 SWAP2 PUSH1 0x1 PUSH1 0x1 PUSH1 0xA0 SHL SUB AND SWAP1 PUSH4 0x70A08231 SWAP1 PUSH1 0x24 ADD PUSH2 0x5C6 JUMP JUMPDEST PUSH1 0x0 SLOAD PUSH1 0x1 PUSH1 0x1 PUSH1 0xA0 SHL SUB AND CALLER EQ PUSH2 0x6A0 JUMPI PUSH1 0x40 MLOAD PUSH3 0x461BCD PUSH1 0xE5 SHL DUP2 MSTORE PUSH1 0x4 ADD PUSH2 0x391 SWAP1 PUSH2 0x88D JUMP JUMPDEST PUSH1 0x40 MLOAD PUSH1 0x0 SWAP1 CALLER SWAP1 DUP4 SWAP1 DUP4 DUP2 DUP2 DUP2 DUP6 DUP8 GAS CALL SWAP3 POP POP POP RETURNDATASIZE DUP1 PUSH1 0x0 DUP2 EQ PUSH2 0x6E2 JUMPI PUSH1 0x40 MLOAD SWAP2 POP PUSH1 0x1F NOT PUSH1 0x3F RETURNDATASIZE ADD AND DUP3 ADD PUSH1 0x40 MSTORE RETURNDATASIZE DUP3 MSTORE RETURNDATASIZE PUSH1 0x0 PUSH1 0x20 DUP5 ADD RETURNDATACOPY PUSH2 0x6E7 JUMP JUMPDEST PUSH1 0x60 SWAP2 POP JUMPDEST POP POP SWAP1 POP DUP1 PUSH2 0x72F JUMPI PUSH1 0x40 MLOAD PUSH3 0x461BCD PUSH1 0xE5 SHL DUP2 MSTORE PUSH1 0x20 PUSH1 0x4 DUP3 ADD MSTORE PUSH1 0x14 PUSH1 0x24 DUP3 ADD MSTORE PUSH20 0x4661696C656420746F2073656E64204D61746963 PUSH1 0x60 SHL PUSH1 0x44 DUP3 ADD MSTORE PUSH1 0x64 ADD PUSH2 0x391 JUMP JUMPDEST POP POP JUMP JUMPDEST PUSH1 0x0 SLOAD PUSH1 0x1 PUSH1 0x1 PUSH1 0xA0 SHL SUB AND CALLER EQ PUSH2 0x75D JUMPI PUSH1 0x40 MLOAD PUSH3 0x461BCD PUSH1 0xE5 SHL DUP2 MSTORE PUSH1 0x4 ADD PUSH2 0x391 SWAP1 PUSH2 0x88D JUMP JUMPDEST PUSH1 0x1 PUSH1 0x1 PUSH1 0xA0 SHL SUB DUP2 AND PUSH2 0x7C2 JUMPI PUSH1 0x40 MLOAD PUSH3 0x461BCD PUSH1 0xE5 SHL DUP2 MSTORE PUSH1 0x20 PUSH1 0x4 DUP3 ADD MSTORE PUSH1 0x26 PUSH1 0x24 DUP3 ADD MSTORE PUSH32 0x4F776E61626C653A206E6577206F776E657220697320746865207A65726F2061 PUSH1 0x44 DUP3 ADD MSTORE PUSH6 0x646472657373 PUSH1 0xD0 SHL PUSH1 0x64 DUP3 ADD MSTORE PUSH1 0x84 ADD PUSH2 0x391 JUMP JUMPDEST PUSH2 0x7CB DUP2 PUSH2 0x7CE JUMP JUMPDEST POP JUMP JUMPDEST PUSH1 0x0 DUP1 SLOAD PUSH1 0x1 PUSH1 0x1 PUSH1 0xA0 SHL SUB DUP4 DUP2 AND PUSH1 0x1 PUSH1 0x1 PUSH1 0xA0 SHL SUB NOT DUP4 AND DUP2 OR DUP5 SSTORE PUSH1 0x40 MLOAD SWAP2 SWAP1 SWAP3 AND SWAP3 DUP4 SWAP2 PUSH32 0x8BE0079C531659141344CD1FD0A4F28419497F9722A3DAAFE3B4186F6B6457E0 SWAP2 SWAP1 LOG3 POP POP JUMP JUMPDEST PUSH1 0x1 PUSH1 0x1 PUSH1 0xA0 SHL SUB DUP2 AND DUP2 EQ PUSH2 0x7CB JUMPI PUSH1 0x0 DUP1 REVERT JUMPDEST PUSH1 0x0 PUSH1 0x20 DUP3 DUP5 SUB SLT ISZERO PUSH2 0x845 JUMPI PUSH1 0x0 DUP1 REVERT JUMPDEST DUP2 CALLDATALOAD PUSH2 0x850 DUP2 PUSH2 0x81E JUMP JUMPDEST SWAP4 SWAP3 POP POP POP JUMP JUMPDEST PUSH1 0x0 PUSH1 0x20 DUP3 DUP5 SUB SLT ISZERO PUSH2 0x869 JUMPI PUSH1 0x0 DUP1 REVERT JUMPDEST POP CALLDATALOAD SWAP2 SWAP1 POP JUMP JUMPDEST PUSH1 0x0 PUSH1 0x20 DUP3 DUP5 SUB SLT ISZERO PUSH2 0x882 JUMPI PUSH1 0x0 DUP1 REVERT JUMPDEST DUP2 MLOAD PUSH2 0x850 DUP2 PUSH2 0x81E JUMP JUMPDEST PUSH1 0x20 DUP1 DUP3 MSTORE DUP2 DUP2 ADD MSTORE PUSH32 0x4F776E61626C653A2063616C6C6572206973206E6F7420746865206F776E6572 PUSH1 0x40 DUP3 ADD MSTORE PUSH1 0x60 ADD SWAP1 JUMP JUMPDEST PUSH4 0x4E487B71 PUSH1 0xE0 SHL PUSH1 0x0 MSTORE PUSH1 0x11 PUSH1 0x4 MSTORE PUSH1 0x24 PUSH1 0x0 REVERT JUMPDEST PUSH1 0x0 DUP2 PUSH1 0x0 NOT DIV DUP4 GT DUP3 ISZERO ISZERO AND ISZERO PUSH2 0x8F2 JUMPI PUSH2 0x8F2 PUSH2 0x8C2 JUMP JUMPDEST POP MUL SWAP1 JUMP JUMPDEST PUSH1 0x0 DUP3 NOT DUP3 GT ISZERO PUSH2 0x90A JUMPI PUSH2 0x90A PUSH2 0x8C2 JUMP JUMPDEST POP ADD SWAP1 JUMP JUMPDEST PUSH1 0x0 PUSH1 0x20 DUP3 DUP5 SUB SLT ISZERO PUSH2 0x921 JUMPI PUSH1 0x0 DUP1 REVERT JUMPDEST DUP2 MLOAD DUP1 ISZERO ISZERO DUP2 EQ PUSH2 0x850 JUMPI PUSH1 0x0 DUP1 REVERT JUMPDEST PUSH1 0x0 PUSH1 0x20 DUP3 DUP5 SUB SLT ISZERO PUSH2 0x943 JUMPI PUSH1 0x0 DUP1 REVERT JUMPDEST POP MLOAD SWAP2 SWAP1 POP JUMP INVALID LOG2 PUSH5 0x6970667358 0x22 SLT KECCAK256 LOG4 MUL DUP10 0x4F 0xA9 0xED 0x5F 0xC9 CODESIZE 0x2F 0xE6 POP 0xCF 0xB8 0xF7 0x4B 0xAE 0xE9 DUP16 0xD7 0x4A 0xC5 BLOCKHASH 0xBB 0xCA JUMP PUSH18 0x1CC079D06D64736F6C634300080800330000 ",
  "sha1": "da28d19e19b207b48ddf5c73bc7af252dd643e3e",
  "source": "// SPDX-License-Identifier: MIT\n \npragma solidity >=0.8.0 <0.9.0;\n \nimport \"@openzeppelin/contracts/access/Ownable.sol\";\nimport \"@openzeppelin/contracts/utils/Strings.sol\";\nimport './CardinalToken.sol';\n\n/**\n * @title Cardinal House Presale contract\n * @dev Contract responsible for the Cardinal House presale mechanisms\n */\ncontract CardinalHousePreSale is Ownable {\n\n    // References the deployed Cardinal Token.\n    CardinalToken public cardinalToken;\n\n    // Mapping to determine how many Cardinal Tokens each address has purchased in the presale.\n    mapping(address => uint256) public addressToAmountPurchased;\n\n    // The limit for how many Cardinal Tokens each user can purchase during the presale.\n    uint256 public purchaseCap = 150000 * 10 ** 18;\n\n    // 1 Matic can be used to buy this many Cardinal Tokens.\n    uint256 public MaticToCRNLRate = 52500;\n \n    /**\n    * @dev Once the Cardinal Token contract is deployed, this function is used to set a reference to that token in this contract.\n    * @param CardinalTokenAddress address of the Cardinal Token.\n     */\n    function setToken(address payable CardinalTokenAddress) public onlyOwner {\n        cardinalToken = CardinalToken(CardinalTokenAddress);\n    }\n\n    /**\n    * @dev Gets the amount of Cardinal Tokens the sender owns.\n    * @return the Cardinal Token balance of the sender\n    */\n    function getUserBalance() public view returns (uint256) {\n        return cardinalToken.balanceOf(msg.sender);\n    }\n \n     /**\n     * @dev Returns the contract address\n     * @return contract address\n     */\n    function getContractAddress() public view returns (address) {\n        return address(this);\n    }\n \n     /**\n     * @dev Returns the Cardinal Token address\n     * @return Cardinal Token contract address\n     */\n    function getTokenAddress() public view returns (address) {\n        return cardinalToken.getContractAddress();\n    }\n \n    /**\n    * @dev Allows a user to pay Matic for Cardinal Tokens. Conversion rate is 1 Matic to MaticToCRNLRate Cardinal Tokens (CRNL) where MaticToCRNLRate is the variable defined in the contract.\n     */\n    function purchaseCardinalTokens() public payable {\n        // 1 Matic = [MaticToCRNLRate] Cardinal Tokens to transfer to msg sender\n        uint256 CardinalTokenAmount = msg.value * MaticToCRNLRate;\n        require(addressToAmountPurchased[msg.sender] + CardinalTokenAmount <= purchaseCap,  \"You cannot purchase this many Cardinal Tokens, that would put you past your presale cap.\");\n \n        cardinalToken.transfer(msg.sender, CardinalTokenAmount);\n        addressToAmountPurchased[msg.sender] += CardinalTokenAmount;\n    }\n\n    /**\n    * @dev Only owner function to change the presale Cardinal Token purchase cap per user.\n    * @param newPurchaseCap the new Cardinal Token purchase cap in CRNL (NOT Matic). Use the conversion rate to figure out how many Cardinal Tokens to set here.\n     */\n    function changeCardinalTokenPurchaseCap(uint256 newPurchaseCap) public onlyOwner {\n        purchaseCap = newPurchaseCap;\n    }\n\n    /**\n    * @dev Only owner function to change the conversion rate for Matic to Cardinal Token.\n    * @param newConversionRate the new Matic to Cardinal Token conversion rate.\n     */\n    function changeMaticToCardinalTokenRate(uint256 newConversionRate) public onlyOwner {\n        MaticToCRNLRate = newConversionRate;\n    }\n \n    /**\n    * @dev Only owner function to withdraw the Matic from this contract.\n    * @param amount the amount of Matic to withdraw from the pre-sale contract.\n     */\n    function withdrawMatic(uint256 amount) public onlyOwner {\n        (bool success, ) = msg.sender.call{value: amount}(\"\");\n        require(success, \"Failed to send Matic\");\n    }\n \n    /**\n    * @dev Gets the amount of Matic that the contract has.\n    * @return the amount of Matic the contract has.\n     */\n    function getContractMatic() public view returns(uint256) {\n        return address(this).balance;\n    }\n \n    /**\n    * @dev Gets the Cardinal Token balance of the contract.\n    * @return the amount of Cardinal Tokens the contract has.\n     */\n    function getContractTokens() public view returns(uint256) {\n        return cardinalToken.balanceOf(address(this));\n    }\n}",
  "sourcePath": "contracts/CardinalHousePreSale.sol",
  "type": "contract"
}