{
  "abi": [
    {
      "inputs": [
        {
          "internalType": "uint256",
          "name": "initialSupply",
          "type": "uint256"
        },
        {
          "internalType": "address",
          "name": "_preSaleAddress",
          "type": "address"
        },
        {
          "internalType": "address",
          "name": "_burnWalletAddress",
          "type": "address"
        },
        {
          "internalType": "address",
          "name": "_liquidityWalletAddress",
          "type": "address"
        },
        {
          "internalType": "address payable",
          "name": "_memberGiveawayWalletAddress",
          "type": "address"
        },
        {
          "internalType": "address payable",
          "name": "_marketingWalletAddress",
          "type": "address"
        },
        {
          "internalType": "address payable",
          "name": "_developerWalletAddress",
          "type": "address"
        },
        {
          "internalType": "address",
          "name": "_uniswapRouterAddress",
          "type": "address"
        }
      ],
      "stateMutability": "nonpayable",
      "type": "constructor"
    },
    {
      "anonymous": false,
      "inputs": [
        {
          "indexed": true,
          "internalType": "address",
          "name": "owner",
          "type": "address"
        },
        {
          "indexed": true,
          "internalType": "address",
          "name": "spender",
          "type": "address"
        },
        {
          "indexed": false,
          "internalType": "uint256",
          "name": "value",
          "type": "uint256"
        }
      ],
      "name": "Approval",
      "type": "event"
    },
    {
      "anonymous": false,
      "inputs": [
        {
          "indexed": true,
          "internalType": "address",
          "name": "previousOwner",
          "type": "address"
        },
        {
          "indexed": true,
          "internalType": "address",
          "name": "newOwner",
          "type": "address"
        }
      ],
      "name": "OwnershipTransferred",
      "type": "event"
    },
    {
      "anonymous": false,
      "inputs": [
        {
          "indexed": true,
          "internalType": "address",
          "name": "from",
          "type": "address"
        },
        {
          "indexed": true,
          "internalType": "address",
          "name": "to",
          "type": "address"
        },
        {
          "indexed": false,
          "internalType": "uint256",
          "name": "value",
          "type": "uint256"
        }
      ],
      "name": "Transfer",
      "type": "event"
    },
    {
      "anonymous": false,
      "inputs": [
        {
          "indexed": true,
          "internalType": "uint256",
          "name": "transactionFeeAmount",
          "type": "uint256"
        }
      ],
      "name": "developerTransactionFeeUpdated",
      "type": "event"
    },
    {
      "anonymous": false,
      "inputs": [
        {
          "indexed": true,
          "internalType": "uint256",
          "name": "transactionFeeAmount",
          "type": "uint256"
        }
      ],
      "name": "marketingTransactionFeeUpdated",
      "type": "event"
    },
    {
      "anonymous": false,
      "inputs": [
        {
          "indexed": true,
          "internalType": "uint256",
          "name": "transactionFeeAmount",
          "type": "uint256"
        }
      ],
      "name": "memberGiveawayTransactionFeeUpdated",
      "type": "event"
    },
    {
      "anonymous": false,
      "inputs": [
        {
          "indexed": true,
          "internalType": "uint256",
          "name": "marketingFee",
          "type": "uint256"
        },
        {
          "indexed": true,
          "internalType": "uint256",
          "name": "developerFee",
          "type": "uint256"
        }
      ],
      "name": "transactionFeeMaticDispersed",
      "type": "event"
    },
    {
      "anonymous": false,
      "inputs": [
        {
          "indexed": true,
          "internalType": "uint256",
          "name": "cardinalTokenAmount",
          "type": "uint256"
        },
        {
          "indexed": true,
          "internalType": "uint256",
          "name": "maticAmount",
          "type": "uint256"
        }
      ],
      "name": "transactionFeesSwappedForMatic",
      "type": "event"
    },
    {
      "inputs": [
        {
          "internalType": "address",
          "name": "pairAddr",
          "type": "address"
        },
        {
          "internalType": "bool",
          "name": "isPairAddress",
          "type": "bool"
        }
      ],
      "name": "addOrRemovePairAddress",
      "outputs": [],
      "stateMutability": "nonpayable",
      "type": "function"
    },
    {
      "inputs": [
        {
          "internalType": "address",
          "name": "owner",
          "type": "address"
        },
        {
          "internalType": "address",
          "name": "spender",
          "type": "address"
        }
      ],
      "name": "allowance",
      "outputs": [
        {
          "internalType": "uint256",
          "name": "",
          "type": "uint256"
        }
      ],
      "stateMutability": "view",
      "type": "function"
    },
    {
      "inputs": [
        {
          "internalType": "address",
          "name": "spender",
          "type": "address"
        },
        {
          "internalType": "uint256",
          "name": "amount",
          "type": "uint256"
        }
      ],
      "name": "approve",
      "outputs": [
        {
          "internalType": "bool",
          "name": "",
          "type": "bool"
        }
      ],
      "stateMutability": "nonpayable",
      "type": "function"
    },
    {
      "inputs": [
        {
          "internalType": "address",
          "name": "account",
          "type": "address"
        }
      ],
      "name": "balanceOf",
      "outputs": [
        {
          "internalType": "uint256",
          "name": "",
          "type": "uint256"
        }
      ],
      "stateMutability": "view",
      "type": "function"
    },
    {
      "inputs": [
        {
          "internalType": "address",
          "name": "",
          "type": "address"
        }
      ],
      "name": "blacklist",
      "outputs": [
        {
          "internalType": "bool",
          "name": "",
          "type": "bool"
        }
      ],
      "stateMutability": "view",
      "type": "function"
    },
    {
      "inputs": [
        {
          "internalType": "address",
          "name": "user",
          "type": "address"
        },
        {
          "internalType": "uint256",
          "name": "amount",
          "type": "uint256"
        }
      ],
      "name": "burn",
      "outputs": [],
      "stateMutability": "nonpayable",
      "type": "function"
    },
    {
      "inputs": [],
      "name": "burnWalletAddress",
      "outputs": [
        {
          "internalType": "address",
          "name": "",
          "type": "address"
        }
      ],
      "stateMutability": "view",
      "type": "function"
    },
    {
      "inputs": [],
      "name": "contractTokenDivisor",
      "outputs": [
        {
          "internalType": "uint256",
          "name": "",
          "type": "uint256"
        }
      ],
      "stateMutability": "view",
      "type": "function"
    },
    {
      "inputs": [],
      "name": "decimals",
      "outputs": [
        {
          "internalType": "uint8",
          "name": "",
          "type": "uint8"
        }
      ],
      "stateMutability": "view",
      "type": "function"
    },
    {
      "inputs": [
        {
          "internalType": "address",
          "name": "spender",
          "type": "address"
        },
        {
          "internalType": "uint256",
          "name": "subtractedValue",
          "type": "uint256"
        }
      ],
      "name": "decreaseAllowance",
      "outputs": [
        {
          "internalType": "bool",
          "name": "",
          "type": "bool"
        }
      ],
      "stateMutability": "nonpayable",
      "type": "function"
    },
    {
      "inputs": [],
      "name": "developerFeePercent",
      "outputs": [
        {
          "internalType": "uint256",
          "name": "",
          "type": "uint256"
        }
      ],
      "stateMutability": "view",
      "type": "function"
    },
    {
      "inputs": [],
      "name": "developerWalletAddress",
      "outputs": [
        {
          "internalType": "address payable",
          "name": "",
          "type": "address"
        }
      ],
      "stateMutability": "view",
      "type": "function"
    },
    {
      "inputs": [],
      "name": "disperseFeesManually",
      "outputs": [],
      "stateMutability": "nonpayable",
      "type": "function"
    },
    {
      "inputs": [
        {
          "internalType": "address",
          "name": "user",
          "type": "address"
        }
      ],
      "name": "excludeUserFromFees",
      "outputs": [],
      "stateMutability": "nonpayable",
      "type": "function"
    },
    {
      "inputs": [
        {
          "internalType": "address",
          "name": "",
          "type": "address"
        }
      ],
      "name": "excludedFromFees",
      "outputs": [
        {
          "internalType": "bool",
          "name": "",
          "type": "bool"
        }
      ],
      "stateMutability": "view",
      "type": "function"
    },
    {
      "inputs": [],
      "name": "getContractAddress",
      "outputs": [
        {
          "internalType": "address",
          "name": "",
          "type": "address"
        }
      ],
      "stateMutability": "view",
      "type": "function"
    },
    {
      "inputs": [],
      "name": "getCurrentTimestamp",
      "outputs": [
        {
          "internalType": "uint256",
          "name": "",
          "type": "uint256"
        }
      ],
      "stateMutability": "view",
      "type": "function"
    },
    {
      "inputs": [
        {
          "internalType": "address",
          "name": "user",
          "type": "address"
        }
      ],
      "name": "includeUsersInFees",
      "outputs": [],
      "stateMutability": "nonpayable",
      "type": "function"
    },
    {
      "inputs": [
        {
          "internalType": "address",
          "name": "spender",
          "type": "address"
        },
        {
          "internalType": "uint256",
          "name": "addedValue",
          "type": "uint256"
        }
      ],
      "name": "increaseAllowance",
      "outputs": [
        {
          "internalType": "bool",
          "name": "",
          "type": "bool"
        }
      ],
      "stateMutability": "nonpayable",
      "type": "function"
    },
    {
      "inputs": [],
      "name": "liquidityWalletAddress",
      "outputs": [
        {
          "internalType": "address",
          "name": "",
          "type": "address"
        }
      ],
      "stateMutability": "view",
      "type": "function"
    },
    {
      "inputs": [],
      "name": "marketingFeePercent",
      "outputs": [
        {
          "internalType": "uint256",
          "name": "",
          "type": "uint256"
        }
      ],
      "stateMutability": "view",
      "type": "function"
    },
    {
      "inputs": [],
      "name": "marketingWalletAddress",
      "outputs": [
        {
          "internalType": "address payable",
          "name": "",
          "type": "address"
        }
      ],
      "stateMutability": "view",
      "type": "function"
    },
    {
      "inputs": [],
      "name": "memberGiveawayFeePercent",
      "outputs": [
        {
          "internalType": "uint256",
          "name": "",
          "type": "uint256"
        }
      ],
      "stateMutability": "view",
      "type": "function"
    },
    {
      "inputs": [],
      "name": "memberGiveawayWalletAddress",
      "outputs": [
        {
          "internalType": "address payable",
          "name": "",
          "type": "address"
        }
      ],
      "stateMutability": "view",
      "type": "function"
    },
    {
      "inputs": [
        {
          "internalType": "address",
          "name": "user",
          "type": "address"
        },
        {
          "internalType": "uint256",
          "name": "amount",
          "type": "uint256"
        }
      ],
      "name": "mint",
      "outputs": [],
      "stateMutability": "nonpayable",
      "type": "function"
    },
    {
      "inputs": [
        {
          "internalType": "address",
          "name": "",
          "type": "address"
        }
      ],
      "name": "minters",
      "outputs": [
        {
          "internalType": "bool",
          "name": "",
          "type": "bool"
        }
      ],
      "stateMutability": "view",
      "type": "function"
    },
    {
      "inputs": [],
      "name": "name",
      "outputs": [
        {
          "internalType": "string",
          "name": "",
          "type": "string"
        }
      ],
      "stateMutability": "view",
      "type": "function"
    },
    {
      "inputs": [],
      "name": "owner",
      "outputs": [
        {
          "internalType": "address",
          "name": "",
          "type": "address"
        }
      ],
      "stateMutability": "view",
      "type": "function"
    },
    {
      "inputs": [
        {
          "internalType": "address",
          "name": "",
          "type": "address"
        }
      ],
      "name": "pairAddresses",
      "outputs": [
        {
          "internalType": "bool",
          "name": "",
          "type": "bool"
        }
      ],
      "stateMutability": "view",
      "type": "function"
    },
    {
      "inputs": [],
      "name": "preSaleAddress",
      "outputs": [
        {
          "internalType": "address",
          "name": "",
          "type": "address"
        }
      ],
      "stateMutability": "view",
      "type": "function"
    },
    {
      "inputs": [],
      "name": "renounceOwnership",
      "outputs": [],
      "stateMutability": "nonpayable",
      "type": "function"
    },
    {
      "inputs": [
        {
          "internalType": "uint256",
          "name": "newDivisor",
          "type": "uint256"
        }
      ],
      "name": "setContractTokenDivisor",
      "outputs": [],
      "stateMutability": "nonpayable",
      "type": "function"
    },
    {
      "inputs": [
        {
          "internalType": "uint256",
          "name": "amount",
          "type": "uint256"
        },
        {
          "internalType": "bool",
          "name": "useAmount",
          "type": "bool"
        },
        {
          "internalType": "uint256",
          "name": "minimumAmountOut",
          "type": "uint256"
        }
      ],
      "name": "swapCardinalTokensForMaticManually",
      "outputs": [],
      "stateMutability": "nonpayable",
      "type": "function"
    },
    {
      "inputs": [],
      "name": "symbol",
      "outputs": [
        {
          "internalType": "string",
          "name": "",
          "type": "string"
        }
      ],
      "stateMutability": "view",
      "type": "function"
    },
    {
      "inputs": [],
      "name": "totalSupply",
      "outputs": [
        {
          "internalType": "uint256",
          "name": "",
          "type": "uint256"
        }
      ],
      "stateMutability": "view",
      "type": "function"
    },
    {
      "inputs": [
        {
          "internalType": "address",
          "name": "recipient",
          "type": "address"
        },
        {
          "internalType": "uint256",
          "name": "amount",
          "type": "uint256"
        }
      ],
      "name": "transfer",
      "outputs": [
        {
          "internalType": "bool",
          "name": "",
          "type": "bool"
        }
      ],
      "stateMutability": "nonpayable",
      "type": "function"
    },
    {
      "inputs": [
        {
          "internalType": "address",
          "name": "from",
          "type": "address"
        },
        {
          "internalType": "address",
          "name": "to",
          "type": "address"
        },
        {
          "internalType": "uint256",
          "name": "amount",
          "type": "uint256"
        }
      ],
      "name": "transferFrom",
      "outputs": [
        {
          "internalType": "bool",
          "name": "",
          "type": "bool"
        }
      ],
      "stateMutability": "nonpayable",
      "type": "function"
    },
    {
      "inputs": [
        {
          "internalType": "address",
          "name": "newOwner",
          "type": "address"
        }
      ],
      "name": "transferOwnership",
      "outputs": [],
      "stateMutability": "nonpayable",
      "type": "function"
    },
    {
      "inputs": [],
      "name": "uniswapPair",
      "outputs": [
        {
          "internalType": "address",
          "name": "",
          "type": "address"
        }
      ],
      "stateMutability": "view",
      "type": "function"
    },
    {
      "inputs": [],
      "name": "uniswapRouterAddress",
      "outputs": [
        {
          "internalType": "address",
          "name": "",
          "type": "address"
        }
      ],
      "stateMutability": "view",
      "type": "function"
    },
    {
      "inputs": [
        {
          "internalType": "address",
          "name": "user",
          "type": "address"
        },
        {
          "internalType": "bool",
          "name": "blacklisted",
          "type": "bool"
        }
      ],
      "name": "updateBlackList",
      "outputs": [],
      "stateMutability": "nonpayable",
      "type": "function"
    },
    {
      "inputs": [
        {
          "internalType": "uint256",
          "name": "newDeveloperTransactionFee",
          "type": "uint256"
        }
      ],
      "name": "updateDeveloperTransactionFee",
      "outputs": [],
      "stateMutability": "nonpayable",
      "type": "function"
    },
    {
      "inputs": [
        {
          "internalType": "uint256",
          "name": "newMarketingTransactionFee",
          "type": "uint256"
        }
      ],
      "name": "updateMarketingTransactionFee",
      "outputs": [],
      "stateMutability": "nonpayable",
      "type": "function"
    },
    {
      "inputs": [
        {
          "internalType": "uint256",
          "name": "newMemberGiveawayTransactionFee",
          "type": "uint256"
        }
      ],
      "name": "updateMemberGiveawayTransactionFee",
      "outputs": [],
      "stateMutability": "nonpayable",
      "type": "function"
    },
    {
      "inputs": [
        {
          "internalType": "address",
          "name": "user",
          "type": "address"
        },
        {
          "internalType": "bool",
          "name": "isMinter",
          "type": "bool"
        }
      ],
      "name": "updateMinter",
      "outputs": [],
      "stateMutability": "nonpayable",
      "type": "function"
    },
    {
      "stateMutability": "payable",
      "type": "receive"
    }
  ],
  "bytecode": "60806040526002601155600260125560016013556103e86016553480156200002657600080fd5b5060405162002f1b38038062002f1b8339810160408190526200004991620007c8565b604080518082018252600d81526c21b0b93234b730b62a37b5b2b760991b60208083019182528351808501909452600484526310d4939360e21b9084015281519192916200009a9160039162000709565b508051620000b090600490602084019062000709565b505050620000cd620000c7620004a260201b60201c565b620004a6565b600c80546001600160a01b03199081166001600160a01b038a8116919091178355600d80548316888316908117909155600a805484168b8416179055600b805484168a8416178155600e80548516898516178155600f805486168986161781556010805490961688861617909555600092835260066020526040808420805460ff19908116600190811790925596548616855281852080548816821790559154851684528084208054871683179055915484168352818320805486168217905585548416835291208054909316179091559054620001c791166064620001b58b602362000893565b620001c19190620008b5565b620004f8565b600b54620001e7906001600160a01b03166064620001b58b602362000893565b600e5462000205906001600160a01b0316620001c1600a8b620008b5565b600f5462000223906001600160a01b0316620001c160058b620008b5565b601054601480546001600160a01b0319166001600160a01b0390921691821790556200025130828b620005e1565b806001600160a01b031663c45a01556040518163ffffffff1660e01b815260040160206040518083038186803b1580156200028b57600080fd5b505afa158015620002a0573d6000803e3d6000fd5b505050506040513d601f19601f82011682018060405250810190620002c69190620008d8565b6001600160a01b031663c9c6539630836001600160a01b031663ad5c46486040518163ffffffff1660e01b815260040160206040518083038186803b1580156200030f57600080fd5b505afa15801562000324573d6000803e3d6000fd5b505050506040513d601f19601f820116820180604052508101906200034a9190620008d8565b6040516001600160e01b031960e085901b1681526001600160a01b03928316600482015291166024820152604401602060405180830381600087803b1580156200039357600080fd5b505af1158015620003a8573d6000803e3d6000fd5b505050506040513d601f19601f82011682018060405250810190620003ce9190620008d8565b601580546001600160a01b0319166001600160a01b0392831690811790915560145460405163095ea7b360e01b81529216600483015260001960248301529063095ea7b390604401602060405180830381600087803b1580156200043157600080fd5b505af115801562000446573d6000803e3d6000fd5b505050506040513d601f19601f820116820180604052508101906200046c9190620008ff565b50506015546001600160a01b03166000908152600960205260409020805460ff19166001179055506200097b9650505050505050565b3390565b600580546001600160a01b038381166001600160a01b0319831681179093556040519116919082907f8be0079c531659141344cd1fd0a4f28419497f9722a3daafe3b4186f6b6457e090600090a35050565b6001600160a01b038216620005545760405162461bcd60e51b815260206004820152601f60248201527f45524332303a206d696e7420746f20746865207a65726f20616464726573730060448201526064015b60405180910390fd5b806002600082825462000568919062000923565b90915550506001600160a01b038216600090815260208190526040812080548392906200059790849062000923565b90915550506040518181526001600160a01b038316906000907fddf252ad1be2c89b69c2b068fc378daa952ba7f163c4a11628f55a4df523b3ef9060200160405180910390a35050565b6001600160a01b038316620006455760405162461bcd60e51b8152602060048201526024808201527f45524332303a20617070726f76652066726f6d20746865207a65726f206164646044820152637265737360e01b60648201526084016200054b565b6001600160a01b038216620006a85760405162461bcd60e51b815260206004820152602260248201527f45524332303a20617070726f766520746f20746865207a65726f206164647265604482015261737360f01b60648201526084016200054b565b6001600160a01b0383811660008181526001602090815260408083209487168084529482529182902085905590518481527f8c5be1e5ebec7d5bd14f71427d1e84f3dd0314c0f7b2291e5b200ac8c7c3b925910160405180910390a3505050565b82805462000717906200093e565b90600052602060002090601f0160209004810192826200073b576000855562000786565b82601f106200075657805160ff191683800117855562000786565b8280016001018555821562000786579182015b828111156200078657825182559160200191906001019062000769565b506200079492915062000798565b5090565b5b8082111562000794576000815560010162000799565b6001600160a01b0381168114620007c557600080fd5b50565b600080600080600080600080610100898b031215620007e657600080fd5b885197506020890151620007fa81620007af565b60408a01519097506200080d81620007af565b60608a01519096506200082081620007af565b60808a01519095506200083381620007af565b60a08a01519094506200084681620007af565b60c08a01519093506200085981620007af565b60e08a01519092506200086c81620007af565b809150509295985092959890939650565b634e487b7160e01b600052601160045260246000fd5b6000816000190483118215151615620008b057620008b06200087d565b500290565b600082620008d357634e487b7160e01b600052601260045260246000fd5b500490565b600060208284031215620008eb57600080fd5b8151620008f881620007af565b9392505050565b6000602082840312156200091257600080fd5b81518015158114620008f857600080fd5b600082198211156200093957620009396200087d565b500190565b600181811c908216806200095357607f821691505b602082108114156200097557634e487b7160e01b600052602260045260246000fd5b50919050565b612590806200098b6000396000f3fe6080604052600436106102765760003560e01c80637c13efd41161014f578063da6fa55c116100c1578063f2fde38b1161007a578063f2fde38b14610773578063f46eccc414610793578063f9f92be4146107c3578063fa399d94146107f3578063fc2eb88914610813578063fd092bc51461083357600080fd5b8063da6fa55c14610687578063dbe66ca01461069d578063dd62ed3e146106cd578063de77bfd914610713578063eb08aa3b14610733578063ecc633901461075357600080fd5b80639dc29fac116101135780639dc29fac146105c7578063a457c2d7146105e7578063a9059cbb14610607578063bbeaa1f814610627578063c816841b14610647578063d158272d1461066757600080fd5b80637c13efd41461052f5780638b16cf98146105445780638da5cb5b146105745780638eb83f251461059257806395d89b41146105b257600080fd5b80634f481683116101e857806361eb048a116101ac57806361eb048a146104875780636c9230db146104a757806370a08231146104ba578063715018a6146104da578063744da8b7146104ef57806378c1d2451461050f57600080fd5b80634f481683146103fb5780634fcd128514610411578063560493b3146104275780635b3c1da1146104475780635b81c1a41461046757600080fd5b8063313ce5671161023a578063313ce5671461035457806332a2c5d0146103705780633950935114610383578063404e8a82146103a357806340c10f19146103b957806343620e71146103db57600080fd5b806306fdde0314610282578063095ea7b3146102ad57806318160ddd146102dd57806320ca3c7f146102fc57806323b872dd1461033457600080fd5b3661027d57005b600080fd5b34801561028e57600080fd5b50610297610853565b6040516102a4919061205d565b60405180910390f35b3480156102b957600080fd5b506102cd6102c83660046120c7565b6108e5565b60405190151581526020016102a4565b3480156102e957600080fd5b506002545b6040519081526020016102a4565b34801561030857600080fd5b5060105461031c906001600160a01b031681565b6040516001600160a01b0390911681526020016102a4565b34801561034057600080fd5b506102cd61034f3660046120f3565b6108ff565b34801561036057600080fd5b50604051601281526020016102a4565b34801561037c57600080fd5b503061031c565b34801561038f57600080fd5b506102cd61039e3660046120c7565b610c4c565b3480156103af57600080fd5b506102ee60165481565b3480156103c557600080fd5b506103d96103d43660046120c7565b610c8b565b005b3480156103e757600080fd5b506103d96103f6366004612149565b610d10565b34801561040757600080fd5b506102ee60115481565b34801561041d57600080fd5b506102ee60135481565b34801561043357600080fd5b506103d961044236600461217e565b610d65565b34801561045357600080fd5b50600a5461031c906001600160a01b031681565b34801561047357600080fd5b506103d961048236600461217e565b610d94565b34801561049357600080fd5b50600f5461031c906001600160a01b031681565b3480156104b357600080fd5b50426102ee565b3480156104c657600080fd5b506102ee6104d5366004612197565b610e5e565b3480156104e657600080fd5b506103d9610e79565b3480156104fb57600080fd5b506103d961050a3660046121b4565b610eaf565b34801561051b57600080fd5b506103d961052a366004612197565b610f17565b34801561053b57600080fd5b506103d9610f65565b34801561055057600080fd5b506102cd61055f366004612197565b60096020526000908152604090205460ff1681565b34801561058057600080fd5b506005546001600160a01b031661031c565b34801561059e57600080fd5b50600b5461031c906001600160a01b031681565b3480156105be57600080fd5b50610297610f9c565b3480156105d357600080fd5b506103d96105e23660046120c7565b610fab565b3480156105f357600080fd5b506102cd6106023660046120c7565b61102c565b34801561061357600080fd5b506102cd6106223660046120c7565b6110c9565b34801561063357600080fd5b506103d9610642366004612197565b6113b5565b34801561065357600080fd5b5060155461031c906001600160a01b031681565b34801561067357600080fd5b50600e5461031c906001600160a01b031681565b34801561069357600080fd5b506102ee60125481565b3480156106a957600080fd5b506102cd6106b8366004612197565b60066020526000908152604090205460ff1681565b3480156106d957600080fd5b506102ee6106e83660046121e9565b6001600160a01b03918216600090815260016020908152604080832093909416825291909152205490565b34801561071f57600080fd5b506103d961072e36600461217e565b611400565b34801561073f57600080fd5b50600c5461031c906001600160a01b031681565b34801561075f57600080fd5b506103d961076e36600461217e565b6114d4565b34801561077f57600080fd5b506103d961078e366004612197565b61159f565b34801561079f57600080fd5b506102cd6107ae366004612197565b60086020526000908152604090205460ff1681565b3480156107cf57600080fd5b506102cd6107de366004612197565b60076020526000908152604090205460ff1681565b3480156107ff57600080fd5b506103d961080e366004612149565b611637565b34801561081f57600080fd5b506103d961082e366004612149565b61168c565b34801561083f57600080fd5b50600d5461031c906001600160a01b031681565b60606003805461086290612222565b80601f016020809104026020016040519081016040528092919081815260200182805461088e90612222565b80156108db5780601f106108b0576101008083540402835291602001916108db565b820191906000526020600020905b8154815290600101906020018083116108be57829003601f168201915b5050505050905090565b6000336108f38185856116e1565b60019150505b92915050565b3360009081526007602052604081205460ff16156109385760405162461bcd60e51b815260040161092f9061225d565b60405180910390fd5b6001600160a01b03841660009081526007602052604090205460ff1615610a605760405162461bcd60e51b81526020600482015260b860248201527f546865206164647265737320796f7527726520747279696e6720746f2073706560448201527f6e64207468652043617264696e616c20546f6b656e732066726f6d206861732060648201527f6265656e20626c61636b6c69737465642066726f6d2074726164696e6720746860848201527f652043617264696e616c20546f6b656e2e20496620796f75207468696e6b207460a48201527f68697320697320616e206572726f722c20706c6561736520636f6e746163742060c48201527f7468652043617264696e616c20486f757365207465616d2e000000000000000060e48201526101040161092f565b6001600160a01b03831660009081526007602052604090205460ff1615610a995760405162461bcd60e51b815260040161092f90612310565b6001600160a01b03841660009081526006602052604090205460ff1680610ad857506001600160a01b03831660009081526006602052604090205460ff165b80610af257503360009081526006602052604090205460ff165b15610b1557610b02843384611806565b610b0d848484611892565b506001610c45565b6000606460115484610b279190612411565b610b319190612430565b90506000606460125485610b459190612411565b610b4f9190612430565b90506000606460135486610b639190612411565b610b6d9190612430565b90506000610b7b8284612452565b9050610b88883388611806565b600d54610ba09089906001600160a01b031686611892565b610bab883083611892565b600084610bb8838961246a565b610bc2919061246a565b9050610bcf898983611892565b6000610bda30610e5e565b3360009081526009602052604090205490915060ff16610c3a57601654601554610c0c906001600160a01b0316610e5e565b610c169190612430565b811115610c2857610c28816000611a60565b478015610c3857610c3847611bf6565b505b600196505050505050505b9392505050565b3360008181526001602090815260408083206001600160a01b03871684529091528120549091906108f39082908690610c86908790612452565b6116e1565b3360009081526008602052604090205460ff16610d025760405162461bcd60e51b815260206004820152602f60248201527f596f7520617265206e6f7420617574686f72697a656420746f206d696e74204360448201526e30b93234b730b6102a37b5b2b7399760891b606482015260840161092f565b610d0c8282611de6565b5050565b6005546001600160a01b03163314610d3a5760405162461bcd60e51b815260040161092f90612481565b6001600160a01b03919091166000908152600860205260409020805460ff1916911515919091179055565b6005546001600160a01b03163314610d8f5760405162461bcd60e51b815260040161092f90612481565b601655565b6005546001600160a01b03163314610dbe5760405162461bcd60e51b815260040161092f90612481565b6005811115610e2c5760405162461bcd60e51b815260206004820152603460248201527f546865206d61726b6574696e67207472616e73616374696f6e206665652063616044820152733713ba1031329036b7b932903a3430b7101a929760611b606482015260840161092f565b601281905560405181907eec95f51190fc49500bf726b0c72cb5c1b132f7bfe7685a33bda07defe3a8a890600090a250565b6001600160a01b031660009081526020819052604090205490565b6005546001600160a01b03163314610ea35760405162461bcd60e51b815260040161092f90612481565b610ead6000611ec5565b565b6005546001600160a01b03163314610ed95760405162461bcd60e51b815260040161092f90612481565b8115610eee57610ee98382611a60565b610f07565b6000610ef930610e5e565b9050610f058183611a60565b505b47610f1181611bf6565b50505050565b6005546001600160a01b03163314610f415760405162461bcd60e51b815260040161092f90612481565b6001600160a01b03166000908152600660205260409020805460ff19166001179055565b6005546001600160a01b03163314610f8f5760405162461bcd60e51b815260040161092f90612481565b47610f9981611bf6565b50565b60606004805461086290612222565b3360009081526008602052604090205460ff166110225760405162461bcd60e51b815260206004820152602f60248201527f596f7520617265206e6f7420617574686f72697a656420746f206275726e204360448201526e30b93234b730b6102a37b5b2b7399760891b606482015260840161092f565b610d0c8282611f17565b3360008181526001602090815260408083206001600160a01b0387168452909152812054909190838110156110b15760405162461bcd60e51b815260206004820152602560248201527f45524332303a2064656372656173656420616c6c6f77616e63652062656c6f77604482015264207a65726f60d81b606482015260840161092f565b6110be82868684036116e1565b506001949350505050565b3360009081526007602052604081205460ff16156110f95760405162461bcd60e51b815260040161092f9061225d565b6001600160a01b03831660009081526007602052604090205460ff16156111325760405162461bcd60e51b815260040161092f90612310565b3360009081526009602052604090205460ff16801561116157503360009081526006602052604090205460ff16155b801561118657506001600160a01b03831660009081526006602052604090205460ff16155b1561124057601461119660025490565b6111a09190612430565b826111aa85610e5e565b6111b49190612452565b106112405760405162461bcd60e51b815260206004820152605060248201527f596f752063616e27742068617665206d6f7265207468616e203525206f66207460448201527f686520746f74616c2043617264696e616c20546f6b656e20737570706c79206160648201526f333a32b91030902222ac1039bbb0b81760811b608482015260a40161092f565b3360009081526006602052604090205460ff168061127657506001600160a01b03831660009081526006602052604090205460ff165b1561128e57611286338484611892565b5060016108f9565b60006064601154846112a09190612411565b6112aa9190612430565b905060006064601254856112be9190612411565b6112c89190612430565b905060006064601354866112dc9190612411565b6112e69190612430565b905060006112f48284612452565b905061130c33600d546001600160a01b031686611892565b611317333083611892565b600084611324838961246a565b61132e919061246a565b905061133b338983611892565b600061134630610e5e565b3360009081526009602052604090205490915060ff166113a657601654601554611378906001600160a01b0316610e5e565b6113829190612430565b81111561139457611394816000611a60565b4780156113a4576113a447611bf6565b505b50600198975050505050505050565b6005546001600160a01b031633146113df5760405162461bcd60e51b815260040161092f90612481565b6001600160a01b03166000908152600660205260409020805460ff19169055565b6005546001600160a01b0316331461142a5760405162461bcd60e51b815260040161092f90612481565b60058111156114a15760405162461bcd60e51b815260206004820152603a60248201527f546865206d656d626572206769766561776179207472616e73616374696f6e2060448201527f6665652063616e2774206265206d6f7265207468616e2035252e000000000000606482015260840161092f565b601181905560405181907f39e1f3e4cc8feb7dbc01c16e37aa1546c352489807c660593c62538f536ac05190600090a250565b6005546001600160a01b031633146114fe5760405162461bcd60e51b815260040161092f90612481565b600581111561156c5760405162461bcd60e51b815260206004820152603460248201527f54686520646576656c6f706572207472616e73616374696f6e206665652063616044820152733713ba1031329036b7b932903a3430b7101a929760611b606482015260840161092f565b601381905560405181907f4bee3c216a701857abd67fed754efdd065a8599be5476e2c4b118fb1896b9ffa90600090a250565b6005546001600160a01b031633146115c95760405162461bcd60e51b815260040161092f90612481565b6001600160a01b03811661162e5760405162461bcd60e51b815260206004820152602660248201527f4f776e61626c653a206e6577206f776e657220697320746865207a65726f206160448201526564647265737360d01b606482015260840161092f565b610f9981611ec5565b6005546001600160a01b031633146116615760405162461bcd60e51b815260040161092f90612481565b6001600160a01b03919091166000908152600960205260409020805460ff1916911515919091179055565b6005546001600160a01b031633146116b65760405162461bcd60e51b815260040161092f90612481565b6001600160a01b03919091166000908152600760205260409020805460ff1916911515919091179055565b6001600160a01b0383166117435760405162461bcd60e51b8152602060048201526024808201527f45524332303a20617070726f76652066726f6d20746865207a65726f206164646044820152637265737360e01b606482015260840161092f565b6001600160a01b0382166117a45760405162461bcd60e51b815260206004820152602260248201527f45524332303a20617070726f766520746f20746865207a65726f206164647265604482015261737360f01b606482015260840161092f565b6001600160a01b0383811660008181526001602090815260408083209487168084529482529182902085905590518481527f8c5be1e5ebec7d5bd14f71427d1e84f3dd0314c0f7b2291e5b200ac8c7c3b92591015b60405180910390a3505050565b6001600160a01b038381166000908152600160209081526040808320938616835292905220546000198114610f1157818110156118855760405162461bcd60e51b815260206004820152601d60248201527f45524332303a20696e73756666696369656e7420616c6c6f77616e6365000000604482015260640161092f565b610f1184848484036116e1565b6001600160a01b0383166118f65760405162461bcd60e51b815260206004820152602560248201527f45524332303a207472616e736665722066726f6d20746865207a65726f206164604482015264647265737360d81b606482015260840161092f565b6001600160a01b0382166119585760405162461bcd60e51b815260206004820152602360248201527f45524332303a207472616e7366657220746f20746865207a65726f206164647260448201526265737360e81b606482015260840161092f565b6001600160a01b038316600090815260208190526040902054818110156119d05760405162461bcd60e51b815260206004820152602660248201527f45524332303a207472616e7366657220616d6f756e7420657863656564732062604482015265616c616e636560d01b606482015260840161092f565b6001600160a01b03808516600090815260208190526040808220858503905591851681529081208054849290611a07908490612452565b92505081905550826001600160a01b0316846001600160a01b03167fddf252ad1be2c89b69c2b068fc378daa952ba7f163c4a11628f55a4df523b3ef84604051611a5391815260200190565b60405180910390a3610f11565b6040805160028082526060820183526000926020830190803683370190505090503081600081518110611a9557611a956124b6565b6001600160a01b03928316602091820292909201810191909152601454604080516315ab88c960e31b81529051919093169263ad5c4648926004808301939192829003018186803b158015611ae957600080fd5b505afa158015611afd573d6000803e3d6000fd5b505050506040513d601f19601f82011682018060405250810190611b2191906124cc565b81600181518110611b3457611b346124b6565b6001600160a01b039283166020918202929092010152601454611b5a91309116856116e1565b60145460405163791ac94760e01b81526001600160a01b039091169063791ac94790611b9290869086908690309042906004016124e9565b600060405180830381600087803b158015611bac57600080fd5b505af1158015611bc0573d6000803e3d6000fd5b50506040514792508591507f55cde9df0aa5720272c955ecd1ef12a4c4d3326a4b8c1c4d0557a25be8c25e1090600090a3505050565b6000601354601254611c089190612452565b905060008160125484611c1b9190612411565b611c259190612430565b905060008260135485611c389190612411565b611c429190612430565b600e546040519192506000916001600160a01b039091169084908381818185875af1925050503d8060008114611c94576040519150601f19603f3d011682016040523d82523d6000602084013e611c99565b606091505b5050905080611cfc5760405162461bcd60e51b815260206004820152602960248201527f4661696c656420746f2073656e64204d6174696320746f206d61726b6574696e60448201526867206164647265737360b81b606482015260840161092f565b600f546040516000916001600160a01b03169084908381818185875af1925050503d8060008114611d49576040519150601f19603f3d011682016040523d82523d6000602084013e611d4e565b606091505b5050905080611db15760405162461bcd60e51b815260206004820152602960248201527f4661696c656420746f2073656e64204d6174696320746f20646576656c6f706560448201526872206164647265737360b81b606482015260840161092f565b604051839085907f2574a60c18822fdca3d6638b38d78b1edb836b2f6322df3d8d4eeb9e1439360390600090a3505050505050565b6001600160a01b038216611e3c5760405162461bcd60e51b815260206004820152601f60248201527f45524332303a206d696e7420746f20746865207a65726f206164647265737300604482015260640161092f565b8060026000828254611e4e9190612452565b90915550506001600160a01b03821660009081526020819052604081208054839290611e7b908490612452565b90915550506040518181526001600160a01b038316906000907fddf252ad1be2c89b69c2b068fc378daa952ba7f163c4a11628f55a4df523b3ef9060200160405180910390a35050565b600580546001600160a01b038381166001600160a01b0319831681179093556040519116919082907f8be0079c531659141344cd1fd0a4f28419497f9722a3daafe3b4186f6b6457e090600090a35050565b6001600160a01b038216611f775760405162461bcd60e51b815260206004820152602160248201527f45524332303a206275726e2066726f6d20746865207a65726f206164647265736044820152607360f81b606482015260840161092f565b6001600160a01b03821660009081526020819052604090205481811015611feb5760405162461bcd60e51b815260206004820152602260248201527f45524332303a206275726e20616d6f756e7420657863656564732062616c616e604482015261636560f01b606482015260840161092f565b6001600160a01b038316600090815260208190526040812083830390556002805484929061201a90849061246a565b90915550506040518281526000906001600160a01b038516907fddf252ad1be2c89b69c2b068fc378daa952ba7f163c4a11628f55a4df523b3ef906020016117f9565b600060208083528351808285015260005b8181101561208a5785810183015185820160400152820161206e565b8181111561209c576000604083870101525b50601f01601f1916929092016040019392505050565b6001600160a01b0381168114610f9957600080fd5b600080604083850312156120da57600080fd5b82356120e5816120b2565b946020939093013593505050565b60008060006060848603121561210857600080fd5b8335612113816120b2565b92506020840135612123816120b2565b929592945050506040919091013590565b8035801515811461214457600080fd5b919050565b6000806040838503121561215c57600080fd5b8235612167816120b2565b915061217560208401612134565b90509250929050565b60006020828403121561219057600080fd5b5035919050565b6000602082840312156121a957600080fd5b8135610c45816120b2565b6000806000606084860312156121c957600080fd5b833592506121d960208501612134565b9150604084013590509250925092565b600080604083850312156121fc57600080fd5b8235612207816120b2565b91506020830135612217816120b2565b809150509250929050565b600181811c9082168061223657607f821691505b6020821081141561225757634e487b7160e01b600052602260045260246000fd5b50919050565b60208082526081908201527f596f752068617665206265656e20626c61636b6c69737465642066726f6d207460408201527f726164696e67207468652043617264696e616c20546f6b656e2e20496620796f60608201527f75207468696e6b207468697320697320616e206572726f722c20706c6561736560808201527f20636f6e74616374207468652043617264696e616c20486f757365207465616d60a0820152601760f91b60c082015260e00190565b602080825260b2908201527f546865206164647265737320796f752061726520747279696e6720746f20736560408201527f6e642043617264696e616c20546f6b656e7320746f20686173206265656e206260608201527f6c61636b6c69737465642066726f6d2074726164696e6720746865204361726460808201527f696e616c20546f6b656e2e20496620796f75207468696e6b207468697320697360a08201527f20616e206572726f722c20706c6561736520636f6e746163742074686520436160c082015271393234b730b6102437bab9b2903a32b0b69760711b60e08201526101000190565b634e487b7160e01b600052601160045260246000fd5b600081600019048311821515161561242b5761242b6123fb565b500290565b60008261244d57634e487b7160e01b600052601260045260246000fd5b500490565b60008219821115612465576124656123fb565b500190565b60008282101561247c5761247c6123fb565b500390565b6020808252818101527f4f776e61626c653a2063616c6c6572206973206e6f7420746865206f776e6572604082015260600190565b634e487b7160e01b600052603260045260246000fd5b6000602082840312156124de57600080fd5b8151610c45816120b2565b600060a082018783526020878185015260a0604085015281875180845260c086019150828901935060005b818110156125395784516001600160a01b031683529383019391830191600101612514565b50506001600160a01b0396909616606085015250505060800152939250505056fea2646970667358221220745c018ba15f17d13e512d133d9caf6e70ecb4ac85e42ee44e87176a2e88d4ef64736f6c63430008080033",
  "bytecodeSha1": "14abbec950b75a6ffb6d6fc9bfcf4f3e6d239484",
  "compiler": {
    "evm_version": "istanbul",
    "optimizer": {
      "enabled": true,
      "runs": 200
    },
    "version": "0.8.8+commit.dddeac2f"
  },
  "contractName": "CardinalToken",
  "language": "Solidity",
  "natspec": {
    "details": "Token contract for the Cardinal House ecosystem currency",
    "kind": "dev",
    "methods": {
      "addOrRemovePairAddress(address,bool)": {
        "details": "Only owner function to add/remove an address as a pair address.",
        "params": {
          "isPairAddress": "boolean to determine if the address is now a pair or no longer a pair",
          "pairAddr": "the pair address to either add or remove as a pair"
        }
      },
      "allowance(address,address)": {
        "details": "See {IERC20-allowance}."
      },
      "approve(address,uint256)": {
        "details": "See {IERC20-approve}. NOTE: If `amount` is the maximum `uint256`, the allowance is not updated on `transferFrom`. This is semantically equivalent to an infinite approval. Requirements: - `spender` cannot be the zero address."
      },
      "balanceOf(address)": {
        "details": "See {IERC20-balanceOf}."
      },
      "burn(address,uint256)": {
        "details": "Minter only function to burn Cardinal Tokens for bridging and deflation upon service purchases with the Cardinal Token ONLY",
        "params": {
          "amount": "the amount of tokens to be burned",
          "user": "the address to burn the tokens from"
        }
      },
      "decimals()": {
        "details": "Returns the number of decimals used to get its user representation. For example, if `decimals` equals `2`, a balance of `505` tokens should be displayed to a user as `5.05` (`505 / 10 ** 2`). Tokens usually opt for a value of 18, imitating the relationship between Ether and Wei. This is the value {ERC20} uses, unless this function is overridden; NOTE: This information is only used for _display_ purposes: it in no way affects any of the arithmetic of the contract, including {IERC20-balanceOf} and {IERC20-transfer}."
      },
      "decreaseAllowance(address,uint256)": {
        "details": "Atomically decreases the allowance granted to `spender` by the caller. This is an alternative to {approve} that can be used as a mitigation for problems described in {IERC20-approve}. Emits an {Approval} event indicating the updated allowance. Requirements: - `spender` cannot be the zero address. - `spender` must have allowance for the caller of at least `subtractedValue`."
      },
      "disperseFeesManually()": {
        "details": "Sends Matic to transaction fee wallets manually as opposed to happening automatically after a certain level of volume"
      },
      "excludeUserFromFees(address)": {
        "details": "Adds a user to be excluded from fees.",
        "params": {
          "user": "address of the user to be excluded from fees."
        }
      },
      "getContractAddress()": {
        "details": "Returns the contract address",
        "returns": {
          "_0": "contract address"
        }
      },
      "getCurrentTimestamp()": {
        "details": "Gets the current timestamp, used for testing + verification",
        "returns": {
          "_0": "the the timestamp of the current block"
        }
      },
      "includeUsersInFees(address)": {
        "details": "Removes a user from the fee exclusion.",
        "params": {
          "user": "address of the user than will now have to pay transaction fees."
        }
      },
      "increaseAllowance(address,uint256)": {
        "details": "Atomically increases the allowance granted to `spender` by the caller. This is an alternative to {approve} that can be used as a mitigation for problems described in {IERC20-approve}. Emits an {Approval} event indicating the updated allowance. Requirements: - `spender` cannot be the zero address."
      },
      "mint(address,uint256)": {
        "details": "Minter only function to mint new Cardinal Tokens for bridging ONLY",
        "params": {
          "amount": "the amount of tokens to be minted to the user",
          "user": "the address that the tokens will be minted to"
        }
      },
      "name()": {
        "details": "Returns the name of the token."
      },
      "owner()": {
        "details": "Returns the address of the current owner."
      },
      "renounceOwnership()": {
        "details": "Leaves the contract without owner. It will not be possible to call `onlyOwner` functions anymore. Can only be called by the current owner. NOTE: Renouncing ownership will leave the contract without an owner, thereby removing any functionality that is only available to the owner."
      },
      "setContractTokenDivisor(uint256)": {
        "details": "Sets the value that determines how many Cardinal Tokens need to be in the contract before it's swapped for Matic.",
        "params": {
          "newDivisor": "the new divisor value to determine the swap threshold"
        }
      },
      "swapCardinalTokensForMaticManually(uint256,bool,uint256)": {
        "details": "Swaps all Cardinal Tokens in the contract for Matic and then disperses those funds to the transaction fee wallets.",
        "params": {
          "amount": "the amount of Cardinal Tokens in the contract to swap for Matic",
          "minimumAmountOut": "the minimum Matic output for the Cardinal Token swap",
          "useAmount": "boolean to determine if the amount sent in is swapped for Matic or if the entire contract balance is swapped"
        }
      },
      "symbol()": {
        "details": "Returns the symbol of the token, usually a shorter version of the name."
      },
      "totalSupply()": {
        "details": "See {IERC20-totalSupply}."
      },
      "transfer(address,uint256)": {
        "details": "Overrides the BEP20 transfer function to include transaction fees.",
        "params": {
          "amount": "the amount to be transfered",
          "recipient": "the recipient of the transfer"
        },
        "returns": {
          "_0": "bool representing if the transfer was successful"
        }
      },
      "transferFrom(address,address,uint256)": {
        "details": "Overrides the BEP20 transferFrom function to include transaction fees.",
        "params": {
          "amount": "the amount to be transfered",
          "from": "the address from where the tokens are coming from",
          "to": "the recipient of the transfer"
        },
        "returns": {
          "_0": "bool representing if the transfer was successful"
        }
      },
      "transferOwnership(address)": {
        "details": "Transfers ownership of the contract to a new account (`newOwner`). Can only be called by the current owner."
      },
      "updateBlackList(address,bool)": {
        "details": "Updates the blacklist mapping for a given address",
        "params": {
          "blacklisted": "a boolean that determines if the given address is being added or removed from the blacklist",
          "user": "the address that is being added or removed from the blacklist"
        }
      },
      "updateDeveloperTransactionFee(uint256)": {
        "details": "Function to update the developer transaction fee - can't be more than 5 percent",
        "params": {
          "newDeveloperTransactionFee": "the new developer transaction fee"
        }
      },
      "updateMarketingTransactionFee(uint256)": {
        "details": "Function to update the marketing transaction fee - can't be more than 5 percent",
        "params": {
          "newMarketingTransactionFee": "the new marketing transaction fee"
        }
      },
      "updateMemberGiveawayTransactionFee(uint256)": {
        "details": "Function to update the member giveaway transaction fee - can't be more than 5 percent",
        "params": {
          "newMemberGiveawayTransactionFee": "the new member giveaway transaction fee"
        }
      },
      "updateMinter(address,bool)": {
        "details": "Function to add or remove a Cardinal Token minter",
        "params": {
          "isMinter": "boolean representing if the address provided will be added or removed as a minter",
          "user": "the address that will be added or removed as a minter"
        }
      }
    },
    "title": "Cardinal House Token",
    "version": 1
  },
  "opcodes": "PUSH1 0x80 PUSH1 0x40 MSTORE PUSH1 0x4 CALLDATASIZE LT PUSH2 0x276 JUMPI PUSH1 0x0 CALLDATALOAD PUSH1 0xE0 SHR DUP1 PUSH4 0x7C13EFD4 GT PUSH2 0x14F JUMPI DUP1 PUSH4 0xDA6FA55C GT PUSH2 0xC1 JUMPI DUP1 PUSH4 0xF2FDE38B GT PUSH2 0x7A JUMPI DUP1 PUSH4 0xF2FDE38B EQ PUSH2 0x773 JUMPI DUP1 PUSH4 0xF46ECCC4 EQ PUSH2 0x793 JUMPI DUP1 PUSH4 0xF9F92BE4 EQ PUSH2 0x7C3 JUMPI DUP1 PUSH4 0xFA399D94 EQ PUSH2 0x7F3 JUMPI DUP1 PUSH4 0xFC2EB889 EQ PUSH2 0x813 JUMPI DUP1 PUSH4 0xFD092BC5 EQ PUSH2 0x833 JUMPI PUSH1 0x0 DUP1 REVERT JUMPDEST DUP1 PUSH4 0xDA6FA55C EQ PUSH2 0x687 JUMPI DUP1 PUSH4 0xDBE66CA0 EQ PUSH2 0x69D JUMPI DUP1 PUSH4 0xDD62ED3E EQ PUSH2 0x6CD JUMPI DUP1 PUSH4 0xDE77BFD9 EQ PUSH2 0x713 JUMPI DUP1 PUSH4 0xEB08AA3B EQ PUSH2 0x733 JUMPI DUP1 PUSH4 0xECC63390 EQ PUSH2 0x753 JUMPI PUSH1 0x0 DUP1 REVERT JUMPDEST DUP1 PUSH4 0x9DC29FAC GT PUSH2 0x113 JUMPI DUP1 PUSH4 0x9DC29FAC EQ PUSH2 0x5C7 JUMPI DUP1 PUSH4 0xA457C2D7 EQ PUSH2 0x5E7 JUMPI DUP1 PUSH4 0xA9059CBB EQ PUSH2 0x607 JUMPI DUP1 PUSH4 0xBBEAA1F8 EQ PUSH2 0x627 JUMPI DUP1 PUSH4 0xC816841B EQ PUSH2 0x647 JUMPI DUP1 PUSH4 0xD158272D EQ PUSH2 0x667 JUMPI PUSH1 0x0 DUP1 REVERT JUMPDEST DUP1 PUSH4 0x7C13EFD4 EQ PUSH2 0x52F JUMPI DUP1 PUSH4 0x8B16CF98 EQ PUSH2 0x544 JUMPI DUP1 PUSH4 0x8DA5CB5B EQ PUSH2 0x574 JUMPI DUP1 PUSH4 0x8EB83F25 EQ PUSH2 0x592 JUMPI DUP1 PUSH4 0x95D89B41 EQ PUSH2 0x5B2 JUMPI PUSH1 0x0 DUP1 REVERT JUMPDEST DUP1 PUSH4 0x4F481683 GT PUSH2 0x1E8 JUMPI DUP1 PUSH4 0x61EB048A GT PUSH2 0x1AC JUMPI DUP1 PUSH4 0x61EB048A EQ PUSH2 0x487 JUMPI DUP1 PUSH4 0x6C9230DB EQ PUSH2 0x4A7 JUMPI DUP1 PUSH4 0x70A08231 EQ PUSH2 0x4BA JUMPI DUP1 PUSH4 0x715018A6 EQ PUSH2 0x4DA JUMPI DUP1 PUSH4 0x744DA8B7 EQ PUSH2 0x4EF JUMPI DUP1 PUSH4 0x78C1D245 EQ PUSH2 0x50F JUMPI PUSH1 0x0 DUP1 REVERT JUMPDEST DUP1 PUSH4 0x4F481683 EQ PUSH2 0x3FB JUMPI DUP1 PUSH4 0x4FCD1285 EQ PUSH2 0x411 JUMPI DUP1 PUSH4 0x560493B3 EQ PUSH2 0x427 JUMPI DUP1 PUSH4 0x5B3C1DA1 EQ PUSH2 0x447 JUMPI DUP1 PUSH4 0x5B81C1A4 EQ PUSH2 0x467 JUMPI PUSH1 0x0 DUP1 REVERT JUMPDEST DUP1 PUSH4 0x313CE567 GT PUSH2 0x23A JUMPI DUP1 PUSH4 0x313CE567 EQ PUSH2 0x354 JUMPI DUP1 PUSH4 0x32A2C5D0 EQ PUSH2 0x370 JUMPI DUP1 PUSH4 0x39509351 EQ PUSH2 0x383 JUMPI DUP1 PUSH4 0x404E8A82 EQ PUSH2 0x3A3 JUMPI DUP1 PUSH4 0x40C10F19 EQ PUSH2 0x3B9 JUMPI DUP1 PUSH4 0x43620E71 EQ PUSH2 0x3DB JUMPI PUSH1 0x0 DUP1 REVERT JUMPDEST DUP1 PUSH4 0x6FDDE03 EQ PUSH2 0x282 JUMPI DUP1 PUSH4 0x95EA7B3 EQ PUSH2 0x2AD JUMPI DUP1 PUSH4 0x18160DDD EQ PUSH2 0x2DD JUMPI DUP1 PUSH4 0x20CA3C7F EQ PUSH2 0x2FC JUMPI DUP1 PUSH4 0x23B872DD EQ PUSH2 0x334 JUMPI PUSH1 0x0 DUP1 REVERT JUMPDEST CALLDATASIZE PUSH2 0x27D JUMPI STOP JUMPDEST PUSH1 0x0 DUP1 REVERT JUMPDEST CALLVALUE DUP1 ISZERO PUSH2 0x28E JUMPI PUSH1 0x0 DUP1 REVERT JUMPDEST POP PUSH2 0x297 PUSH2 0x853 JUMP JUMPDEST PUSH1 0x40 MLOAD PUSH2 0x2A4 SWAP2 SWAP1 PUSH2 0x205D JUMP JUMPDEST PUSH1 0x40 MLOAD DUP1 SWAP2 SUB SWAP1 RETURN JUMPDEST CALLVALUE DUP1 ISZERO PUSH2 0x2B9 JUMPI PUSH1 0x0 DUP1 REVERT JUMPDEST POP PUSH2 0x2CD PUSH2 0x2C8 CALLDATASIZE PUSH1 0x4 PUSH2 0x20C7 JUMP JUMPDEST PUSH2 0x8E5 JUMP JUMPDEST PUSH1 0x40 MLOAD SWAP1 ISZERO ISZERO DUP2 MSTORE PUSH1 0x20 ADD PUSH2 0x2A4 JUMP JUMPDEST CALLVALUE DUP1 ISZERO PUSH2 0x2E9 JUMPI PUSH1 0x0 DUP1 REVERT JUMPDEST POP PUSH1 0x2 SLOAD JUMPDEST PUSH1 0x40 MLOAD SWAP1 DUP2 MSTORE PUSH1 0x20 ADD PUSH2 0x2A4 JUMP JUMPDEST CALLVALUE DUP1 ISZERO PUSH2 0x308 JUMPI PUSH1 0x0 DUP1 REVERT JUMPDEST POP PUSH1 0x10 SLOAD PUSH2 0x31C SWAP1 PUSH1 0x1 PUSH1 0x1 PUSH1 0xA0 SHL SUB AND DUP2 JUMP JUMPDEST PUSH1 0x40 MLOAD PUSH1 0x1 PUSH1 0x1 PUSH1 0xA0 SHL SUB SWAP1 SWAP2 AND DUP2 MSTORE PUSH1 0x20 ADD PUSH2 0x2A4 JUMP JUMPDEST CALLVALUE DUP1 ISZERO PUSH2 0x340 JUMPI PUSH1 0x0 DUP1 REVERT JUMPDEST POP PUSH2 0x2CD PUSH2 0x34F CALLDATASIZE PUSH1 0x4 PUSH2 0x20F3 JUMP JUMPDEST PUSH2 0x8FF JUMP JUMPDEST CALLVALUE DUP1 ISZERO PUSH2 0x360 JUMPI PUSH1 0x0 DUP1 REVERT JUMPDEST POP PUSH1 0x40 MLOAD PUSH1 0x12 DUP2 MSTORE PUSH1 0x20 ADD PUSH2 0x2A4 JUMP JUMPDEST CALLVALUE DUP1 ISZERO PUSH2 0x37C JUMPI PUSH1 0x0 DUP1 REVERT JUMPDEST POP ADDRESS PUSH2 0x31C JUMP JUMPDEST CALLVALUE DUP1 ISZERO PUSH2 0x38F JUMPI PUSH1 0x0 DUP1 REVERT JUMPDEST POP PUSH2 0x2CD PUSH2 0x39E CALLDATASIZE PUSH1 0x4 PUSH2 0x20C7 JUMP JUMPDEST PUSH2 0xC4C JUMP JUMPDEST CALLVALUE DUP1 ISZERO PUSH2 0x3AF JUMPI PUSH1 0x0 DUP1 REVERT JUMPDEST POP PUSH2 0x2EE PUSH1 0x16 SLOAD DUP2 JUMP JUMPDEST CALLVALUE DUP1 ISZERO PUSH2 0x3C5 JUMPI PUSH1 0x0 DUP1 REVERT JUMPDEST POP PUSH2 0x3D9 PUSH2 0x3D4 CALLDATASIZE PUSH1 0x4 PUSH2 0x20C7 JUMP JUMPDEST PUSH2 0xC8B JUMP JUMPDEST STOP JUMPDEST CALLVALUE DUP1 ISZERO PUSH2 0x3E7 JUMPI PUSH1 0x0 DUP1 REVERT JUMPDEST POP PUSH2 0x3D9 PUSH2 0x3F6 CALLDATASIZE PUSH1 0x4 PUSH2 0x2149 JUMP JUMPDEST PUSH2 0xD10 JUMP JUMPDEST CALLVALUE DUP1 ISZERO PUSH2 0x407 JUMPI PUSH1 0x0 DUP1 REVERT JUMPDEST POP PUSH2 0x2EE PUSH1 0x11 SLOAD DUP2 JUMP JUMPDEST CALLVALUE DUP1 ISZERO PUSH2 0x41D JUMPI PUSH1 0x0 DUP1 REVERT JUMPDEST POP PUSH2 0x2EE PUSH1 0x13 SLOAD DUP2 JUMP JUMPDEST CALLVALUE DUP1 ISZERO PUSH2 0x433 JUMPI PUSH1 0x0 DUP1 REVERT JUMPDEST POP PUSH2 0x3D9 PUSH2 0x442 CALLDATASIZE PUSH1 0x4 PUSH2 0x217E JUMP JUMPDEST PUSH2 0xD65 JUMP JUMPDEST CALLVALUE DUP1 ISZERO PUSH2 0x453 JUMPI PUSH1 0x0 DUP1 REVERT JUMPDEST POP PUSH1 0xA SLOAD PUSH2 0x31C SWAP1 PUSH1 0x1 PUSH1 0x1 PUSH1 0xA0 SHL SUB AND DUP2 JUMP JUMPDEST CALLVALUE DUP1 ISZERO PUSH2 0x473 JUMPI PUSH1 0x0 DUP1 REVERT JUMPDEST POP PUSH2 0x3D9 PUSH2 0x482 CALLDATASIZE PUSH1 0x4 PUSH2 0x217E JUMP JUMPDEST PUSH2 0xD94 JUMP JUMPDEST CALLVALUE DUP1 ISZERO PUSH2 0x493 JUMPI PUSH1 0x0 DUP1 REVERT JUMPDEST POP PUSH1 0xF SLOAD PUSH2 0x31C SWAP1 PUSH1 0x1 PUSH1 0x1 PUSH1 0xA0 SHL SUB AND DUP2 JUMP JUMPDEST CALLVALUE DUP1 ISZERO PUSH2 0x4B3 JUMPI PUSH1 0x0 DUP1 REVERT JUMPDEST POP TIMESTAMP PUSH2 0x2EE JUMP JUMPDEST CALLVALUE DUP1 ISZERO PUSH2 0x4C6 JUMPI PUSH1 0x0 DUP1 REVERT JUMPDEST POP PUSH2 0x2EE PUSH2 0x4D5 CALLDATASIZE PUSH1 0x4 PUSH2 0x2197 JUMP JUMPDEST PUSH2 0xE5E JUMP JUMPDEST CALLVALUE DUP1 ISZERO PUSH2 0x4E6 JUMPI PUSH1 0x0 DUP1 REVERT JUMPDEST POP PUSH2 0x3D9 PUSH2 0xE79 JUMP JUMPDEST CALLVALUE DUP1 ISZERO PUSH2 0x4FB JUMPI PUSH1 0x0 DUP1 REVERT JUMPDEST POP PUSH2 0x3D9 PUSH2 0x50A CALLDATASIZE PUSH1 0x4 PUSH2 0x21B4 JUMP JUMPDEST PUSH2 0xEAF JUMP JUMPDEST CALLVALUE DUP1 ISZERO PUSH2 0x51B JUMPI PUSH1 0x0 DUP1 REVERT JUMPDEST POP PUSH2 0x3D9 PUSH2 0x52A CALLDATASIZE PUSH1 0x4 PUSH2 0x2197 JUMP JUMPDEST PUSH2 0xF17 JUMP JUMPDEST CALLVALUE DUP1 ISZERO PUSH2 0x53B JUMPI PUSH1 0x0 DUP1 REVERT JUMPDEST POP PUSH2 0x3D9 PUSH2 0xF65 JUMP JUMPDEST CALLVALUE DUP1 ISZERO PUSH2 0x550 JUMPI PUSH1 0x0 DUP1 REVERT JUMPDEST POP PUSH2 0x2CD PUSH2 0x55F CALLDATASIZE PUSH1 0x4 PUSH2 0x2197 JUMP JUMPDEST PUSH1 0x9 PUSH1 0x20 MSTORE PUSH1 0x0 SWAP1 DUP2 MSTORE PUSH1 0x40 SWAP1 KECCAK256 SLOAD PUSH1 0xFF AND DUP2 JUMP JUMPDEST CALLVALUE DUP1 ISZERO PUSH2 0x580 JUMPI PUSH1 0x0 DUP1 REVERT JUMPDEST POP PUSH1 0x5 SLOAD PUSH1 0x1 PUSH1 0x1 PUSH1 0xA0 SHL SUB AND PUSH2 0x31C JUMP JUMPDEST CALLVALUE DUP1 ISZERO PUSH2 0x59E JUMPI PUSH1 0x0 DUP1 REVERT JUMPDEST POP PUSH1 0xB SLOAD PUSH2 0x31C SWAP1 PUSH1 0x1 PUSH1 0x1 PUSH1 0xA0 SHL SUB AND DUP2 JUMP JUMPDEST CALLVALUE DUP1 ISZERO PUSH2 0x5BE JUMPI PUSH1 0x0 DUP1 REVERT JUMPDEST POP PUSH2 0x297 PUSH2 0xF9C JUMP JUMPDEST CALLVALUE DUP1 ISZERO PUSH2 0x5D3 JUMPI PUSH1 0x0 DUP1 REVERT JUMPDEST POP PUSH2 0x3D9 PUSH2 0x5E2 CALLDATASIZE PUSH1 0x4 PUSH2 0x20C7 JUMP JUMPDEST PUSH2 0xFAB JUMP JUMPDEST CALLVALUE DUP1 ISZERO PUSH2 0x5F3 JUMPI PUSH1 0x0 DUP1 REVERT JUMPDEST POP PUSH2 0x2CD PUSH2 0x602 CALLDATASIZE PUSH1 0x4 PUSH2 0x20C7 JUMP JUMPDEST PUSH2 0x102C JUMP JUMPDEST CALLVALUE DUP1 ISZERO PUSH2 0x613 JUMPI PUSH1 0x0 DUP1 REVERT JUMPDEST POP PUSH2 0x2CD PUSH2 0x622 CALLDATASIZE PUSH1 0x4 PUSH2 0x20C7 JUMP JUMPDEST PUSH2 0x10C9 JUMP JUMPDEST CALLVALUE DUP1 ISZERO PUSH2 0x633 JUMPI PUSH1 0x0 DUP1 REVERT JUMPDEST POP PUSH2 0x3D9 PUSH2 0x642 CALLDATASIZE PUSH1 0x4 PUSH2 0x2197 JUMP JUMPDEST PUSH2 0x13B5 JUMP JUMPDEST CALLVALUE DUP1 ISZERO PUSH2 0x653 JUMPI PUSH1 0x0 DUP1 REVERT JUMPDEST POP PUSH1 0x15 SLOAD PUSH2 0x31C SWAP1 PUSH1 0x1 PUSH1 0x1 PUSH1 0xA0 SHL SUB AND DUP2 JUMP JUMPDEST CALLVALUE DUP1 ISZERO PUSH2 0x673 JUMPI PUSH1 0x0 DUP1 REVERT JUMPDEST POP PUSH1 0xE SLOAD PUSH2 0x31C SWAP1 PUSH1 0x1 PUSH1 0x1 PUSH1 0xA0 SHL SUB AND DUP2 JUMP JUMPDEST CALLVALUE DUP1 ISZERO PUSH2 0x693 JUMPI PUSH1 0x0 DUP1 REVERT JUMPDEST POP PUSH2 0x2EE PUSH1 0x12 SLOAD DUP2 JUMP JUMPDEST CALLVALUE DUP1 ISZERO PUSH2 0x6A9 JUMPI PUSH1 0x0 DUP1 REVERT JUMPDEST POP PUSH2 0x2CD PUSH2 0x6B8 CALLDATASIZE PUSH1 0x4 PUSH2 0x2197 JUMP JUMPDEST PUSH1 0x6 PUSH1 0x20 MSTORE PUSH1 0x0 SWAP1 DUP2 MSTORE PUSH1 0x40 SWAP1 KECCAK256 SLOAD PUSH1 0xFF AND DUP2 JUMP JUMPDEST CALLVALUE DUP1 ISZERO PUSH2 0x6D9 JUMPI PUSH1 0x0 DUP1 REVERT JUMPDEST POP PUSH2 0x2EE PUSH2 0x6E8 CALLDATASIZE PUSH1 0x4 PUSH2 0x21E9 JUMP JUMPDEST PUSH1 0x1 PUSH1 0x1 PUSH1 0xA0 SHL SUB SWAP2 DUP3 AND PUSH1 0x0 SWAP1 DUP2 MSTORE PUSH1 0x1 PUSH1 0x20 SWAP1 DUP2 MSTORE PUSH1 0x40 DUP1 DUP4 KECCAK256 SWAP4 SWAP1 SWAP5 AND DUP3 MSTORE SWAP2 SWAP1 SWAP2 MSTORE KECCAK256 SLOAD SWAP1 JUMP JUMPDEST CALLVALUE DUP1 ISZERO PUSH2 0x71F JUMPI PUSH1 0x0 DUP1 REVERT JUMPDEST POP PUSH2 0x3D9 PUSH2 0x72E CALLDATASIZE PUSH1 0x4 PUSH2 0x217E JUMP JUMPDEST PUSH2 0x1400 JUMP JUMPDEST CALLVALUE DUP1 ISZERO PUSH2 0x73F JUMPI PUSH1 0x0 DUP1 REVERT JUMPDEST POP PUSH1 0xC SLOAD PUSH2 0x31C SWAP1 PUSH1 0x1 PUSH1 0x1 PUSH1 0xA0 SHL SUB AND DUP2 JUMP JUMPDEST CALLVALUE DUP1 ISZERO PUSH2 0x75F JUMPI PUSH1 0x0 DUP1 REVERT JUMPDEST POP PUSH2 0x3D9 PUSH2 0x76E CALLDATASIZE PUSH1 0x4 PUSH2 0x217E JUMP JUMPDEST PUSH2 0x14D4 JUMP JUMPDEST CALLVALUE DUP1 ISZERO PUSH2 0x77F JUMPI PUSH1 0x0 DUP1 REVERT JUMPDEST POP PUSH2 0x3D9 PUSH2 0x78E CALLDATASIZE PUSH1 0x4 PUSH2 0x2197 JUMP JUMPDEST PUSH2 0x159F JUMP JUMPDEST CALLVALUE DUP1 ISZERO PUSH2 0x79F JUMPI PUSH1 0x0 DUP1 REVERT JUMPDEST POP PUSH2 0x2CD PUSH2 0x7AE CALLDATASIZE PUSH1 0x4 PUSH2 0x2197 JUMP JUMPDEST PUSH1 0x8 PUSH1 0x20 MSTORE PUSH1 0x0 SWAP1 DUP2 MSTORE PUSH1 0x40 SWAP1 KECCAK256 SLOAD PUSH1 0xFF AND DUP2 JUMP JUMPDEST CALLVALUE DUP1 ISZERO PUSH2 0x7CF JUMPI PUSH1 0x0 DUP1 REVERT JUMPDEST POP PUSH2 0x2CD PUSH2 0x7DE CALLDATASIZE PUSH1 0x4 PUSH2 0x2197 JUMP JUMPDEST PUSH1 0x7 PUSH1 0x20 MSTORE PUSH1 0x0 SWAP1 DUP2 MSTORE PUSH1 0x40 SWAP1 KECCAK256 SLOAD PUSH1 0xFF AND DUP2 JUMP JUMPDEST CALLVALUE DUP1 ISZERO PUSH2 0x7FF JUMPI PUSH1 0x0 DUP1 REVERT JUMPDEST POP PUSH2 0x3D9 PUSH2 0x80E CALLDATASIZE PUSH1 0x4 PUSH2 0x2149 JUMP JUMPDEST PUSH2 0x1637 JUMP JUMPDEST CALLVALUE DUP1 ISZERO PUSH2 0x81F JUMPI PUSH1 0x0 DUP1 REVERT JUMPDEST POP PUSH2 0x3D9 PUSH2 0x82E CALLDATASIZE PUSH1 0x4 PUSH2 0x2149 JUMP JUMPDEST PUSH2 0x168C JUMP JUMPDEST CALLVALUE DUP1 ISZERO PUSH2 0x83F JUMPI PUSH1 0x0 DUP1 REVERT JUMPDEST POP PUSH1 0xD SLOAD PUSH2 0x31C SWAP1 PUSH1 0x1 PUSH1 0x1 PUSH1 0xA0 SHL SUB AND DUP2 JUMP JUMPDEST PUSH1 0x60 PUSH1 0x3 DUP1 SLOAD PUSH2 0x862 SWAP1 PUSH2 0x2222 JUMP JUMPDEST DUP1 PUSH1 0x1F ADD PUSH1 0x20 DUP1 SWAP2 DIV MUL PUSH1 0x20 ADD PUSH1 0x40 MLOAD SWAP1 DUP2 ADD PUSH1 0x40 MSTORE DUP1 SWAP3 SWAP2 SWAP1 DUP2 DUP2 MSTORE PUSH1 0x20 ADD DUP3 DUP1 SLOAD PUSH2 0x88E SWAP1 PUSH2 0x2222 JUMP JUMPDEST DUP1 ISZERO PUSH2 0x8DB JUMPI DUP1 PUSH1 0x1F LT PUSH2 0x8B0 JUMPI PUSH2 0x100 DUP1 DUP4 SLOAD DIV MUL DUP4 MSTORE SWAP2 PUSH1 0x20 ADD SWAP2 PUSH2 0x8DB JUMP JUMPDEST DUP3 ADD SWAP2 SWAP1 PUSH1 0x0 MSTORE PUSH1 0x20 PUSH1 0x0 KECCAK256 SWAP1 JUMPDEST DUP2 SLOAD DUP2 MSTORE SWAP1 PUSH1 0x1 ADD SWAP1 PUSH1 0x20 ADD DUP1 DUP4 GT PUSH2 0x8BE JUMPI DUP3 SWAP1 SUB PUSH1 0x1F AND DUP3 ADD SWAP2 JUMPDEST POP POP POP POP POP SWAP1 POP SWAP1 JUMP JUMPDEST PUSH1 0x0 CALLER PUSH2 0x8F3 DUP2 DUP6 DUP6 PUSH2 0x16E1 JUMP JUMPDEST PUSH1 0x1 SWAP2 POP POP JUMPDEST SWAP3 SWAP2 POP POP JUMP JUMPDEST CALLER PUSH1 0x0 SWAP1 DUP2 MSTORE PUSH1 0x7 PUSH1 0x20 MSTORE PUSH1 0x40 DUP2 KECCAK256 SLOAD PUSH1 0xFF AND ISZERO PUSH2 0x938 JUMPI PUSH1 0x40 MLOAD PUSH3 0x461BCD PUSH1 0xE5 SHL DUP2 MSTORE PUSH1 0x4 ADD PUSH2 0x92F SWAP1 PUSH2 0x225D JUMP JUMPDEST PUSH1 0x40 MLOAD DUP1 SWAP2 SUB SWAP1 REVERT JUMPDEST PUSH1 0x1 PUSH1 0x1 PUSH1 0xA0 SHL SUB DUP5 AND PUSH1 0x0 SWAP1 DUP2 MSTORE PUSH1 0x7 PUSH1 0x20 MSTORE PUSH1 0x40 SWAP1 KECCAK256 SLOAD PUSH1 0xFF AND ISZERO PUSH2 0xA60 JUMPI PUSH1 0x40 MLOAD PUSH3 0x461BCD PUSH1 0xE5 SHL DUP2 MSTORE PUSH1 0x20 PUSH1 0x4 DUP3 ADD MSTORE PUSH1 0xB8 PUSH1 0x24 DUP3 ADD MSTORE PUSH32 0x546865206164647265737320796F7527726520747279696E6720746F20737065 PUSH1 0x44 DUP3 ADD MSTORE PUSH32 0x6E64207468652043617264696E616C20546F6B656E732066726F6D2068617320 PUSH1 0x64 DUP3 ADD MSTORE PUSH32 0x6265656E20626C61636B6C69737465642066726F6D2074726164696E67207468 PUSH1 0x84 DUP3 ADD MSTORE PUSH32 0x652043617264696E616C20546F6B656E2E20496620796F75207468696E6B2074 PUSH1 0xA4 DUP3 ADD MSTORE PUSH32 0x68697320697320616E206572726F722C20706C6561736520636F6E7461637420 PUSH1 0xC4 DUP3 ADD MSTORE PUSH32 0x7468652043617264696E616C20486F757365207465616D2E0000000000000000 PUSH1 0xE4 DUP3 ADD MSTORE PUSH2 0x104 ADD PUSH2 0x92F JUMP JUMPDEST PUSH1 0x1 PUSH1 0x1 PUSH1 0xA0 SHL SUB DUP4 AND PUSH1 0x0 SWAP1 DUP2 MSTORE PUSH1 0x7 PUSH1 0x20 MSTORE PUSH1 0x40 SWAP1 KECCAK256 SLOAD PUSH1 0xFF AND ISZERO PUSH2 0xA99 JUMPI PUSH1 0x40 MLOAD PUSH3 0x461BCD PUSH1 0xE5 SHL DUP2 MSTORE PUSH1 0x4 ADD PUSH2 0x92F SWAP1 PUSH2 0x2310 JUMP JUMPDEST PUSH1 0x1 PUSH1 0x1 PUSH1 0xA0 SHL SUB DUP5 AND PUSH1 0x0 SWAP1 DUP2 MSTORE PUSH1 0x6 PUSH1 0x20 MSTORE PUSH1 0x40 SWAP1 KECCAK256 SLOAD PUSH1 0xFF AND DUP1 PUSH2 0xAD8 JUMPI POP PUSH1 0x1 PUSH1 0x1 PUSH1 0xA0 SHL SUB DUP4 AND PUSH1 0x0 SWAP1 DUP2 MSTORE PUSH1 0x6 PUSH1 0x20 MSTORE PUSH1 0x40 SWAP1 KECCAK256 SLOAD PUSH1 0xFF AND JUMPDEST DUP1 PUSH2 0xAF2 JUMPI POP CALLER PUSH1 0x0 SWAP1 DUP2 MSTORE PUSH1 0x6 PUSH1 0x20 MSTORE PUSH1 0x40 SWAP1 KECCAK256 SLOAD PUSH1 0xFF AND JUMPDEST ISZERO PUSH2 0xB15 JUMPI PUSH2 0xB02 DUP5 CALLER DUP5 PUSH2 0x1806 JUMP JUMPDEST PUSH2 0xB0D DUP5 DUP5 DUP5 PUSH2 0x1892 JUMP JUMPDEST POP PUSH1 0x1 PUSH2 0xC45 JUMP JUMPDEST PUSH1 0x0 PUSH1 0x64 PUSH1 0x11 SLOAD DUP5 PUSH2 0xB27 SWAP2 SWAP1 PUSH2 0x2411 JUMP JUMPDEST PUSH2 0xB31 SWAP2 SWAP1 PUSH2 0x2430 JUMP JUMPDEST SWAP1 POP PUSH1 0x0 PUSH1 0x64 PUSH1 0x12 SLOAD DUP6 PUSH2 0xB45 SWAP2 SWAP1 PUSH2 0x2411 JUMP JUMPDEST PUSH2 0xB4F SWAP2 SWAP1 PUSH2 0x2430 JUMP JUMPDEST SWAP1 POP PUSH1 0x0 PUSH1 0x64 PUSH1 0x13 SLOAD DUP7 PUSH2 0xB63 SWAP2 SWAP1 PUSH2 0x2411 JUMP JUMPDEST PUSH2 0xB6D SWAP2 SWAP1 PUSH2 0x2430 JUMP JUMPDEST SWAP1 POP PUSH1 0x0 PUSH2 0xB7B DUP3 DUP5 PUSH2 0x2452 JUMP JUMPDEST SWAP1 POP PUSH2 0xB88 DUP9 CALLER DUP9 PUSH2 0x1806 JUMP JUMPDEST PUSH1 0xD SLOAD PUSH2 0xBA0 SWAP1 DUP10 SWAP1 PUSH1 0x1 PUSH1 0x1 PUSH1 0xA0 SHL SUB AND DUP7 PUSH2 0x1892 JUMP JUMPDEST PUSH2 0xBAB DUP9 ADDRESS DUP4 PUSH2 0x1892 JUMP JUMPDEST PUSH1 0x0 DUP5 PUSH2 0xBB8 DUP4 DUP10 PUSH2 0x246A JUMP JUMPDEST PUSH2 0xBC2 SWAP2 SWAP1 PUSH2 0x246A JUMP JUMPDEST SWAP1 POP PUSH2 0xBCF DUP10 DUP10 DUP4 PUSH2 0x1892 JUMP JUMPDEST PUSH1 0x0 PUSH2 0xBDA ADDRESS PUSH2 0xE5E JUMP JUMPDEST CALLER PUSH1 0x0 SWAP1 DUP2 MSTORE PUSH1 0x9 PUSH1 0x20 MSTORE PUSH1 0x40 SWAP1 KECCAK256 SLOAD SWAP1 SWAP2 POP PUSH1 0xFF AND PUSH2 0xC3A JUMPI PUSH1 0x16 SLOAD PUSH1 0x15 SLOAD PUSH2 0xC0C SWAP1 PUSH1 0x1 PUSH1 0x1 PUSH1 0xA0 SHL SUB AND PUSH2 0xE5E JUMP JUMPDEST PUSH2 0xC16 SWAP2 SWAP1 PUSH2 0x2430 JUMP JUMPDEST DUP2 GT ISZERO PUSH2 0xC28 JUMPI PUSH2 0xC28 DUP2 PUSH1 0x0 PUSH2 0x1A60 JUMP JUMPDEST SELFBALANCE DUP1 ISZERO PUSH2 0xC38 JUMPI PUSH2 0xC38 SELFBALANCE PUSH2 0x1BF6 JUMP JUMPDEST POP JUMPDEST PUSH1 0x1 SWAP7 POP POP POP POP POP POP POP JUMPDEST SWAP4 SWAP3 POP POP POP JUMP JUMPDEST CALLER PUSH1 0x0 DUP2 DUP2 MSTORE PUSH1 0x1 PUSH1 0x20 SWAP1 DUP2 MSTORE PUSH1 0x40 DUP1 DUP4 KECCAK256 PUSH1 0x1 PUSH1 0x1 PUSH1 0xA0 SHL SUB DUP8 AND DUP5 MSTORE SWAP1 SWAP2 MSTORE DUP2 KECCAK256 SLOAD SWAP1 SWAP2 SWAP1 PUSH2 0x8F3 SWAP1 DUP3 SWAP1 DUP7 SWAP1 PUSH2 0xC86 SWAP1 DUP8 SWAP1 PUSH2 0x2452 JUMP JUMPDEST PUSH2 0x16E1 JUMP JUMPDEST CALLER PUSH1 0x0 SWAP1 DUP2 MSTORE PUSH1 0x8 PUSH1 0x20 MSTORE PUSH1 0x40 SWAP1 KECCAK256 SLOAD PUSH1 0xFF AND PUSH2 0xD02 JUMPI PUSH1 0x40 MLOAD PUSH3 0x461BCD PUSH1 0xE5 SHL DUP2 MSTORE PUSH1 0x20 PUSH1 0x4 DUP3 ADD MSTORE PUSH1 0x2F PUSH1 0x24 DUP3 ADD MSTORE PUSH32 0x596F7520617265206E6F7420617574686F72697A656420746F206D696E742043 PUSH1 0x44 DUP3 ADD MSTORE PUSH15 0x30B93234B730B6102A37B5B2B73997 PUSH1 0x89 SHL PUSH1 0x64 DUP3 ADD MSTORE PUSH1 0x84 ADD PUSH2 0x92F JUMP JUMPDEST PUSH2 0xD0C DUP3 DUP3 PUSH2 0x1DE6 JUMP JUMPDEST POP POP JUMP JUMPDEST PUSH1 0x5 SLOAD PUSH1 0x1 PUSH1 0x1 PUSH1 0xA0 SHL SUB AND CALLER EQ PUSH2 0xD3A JUMPI PUSH1 0x40 MLOAD PUSH3 0x461BCD PUSH1 0xE5 SHL DUP2 MSTORE PUSH1 0x4 ADD PUSH2 0x92F SWAP1 PUSH2 0x2481 JUMP JUMPDEST PUSH1 0x1 PUSH1 0x1 PUSH1 0xA0 SHL SUB SWAP2 SWAP1 SWAP2 AND PUSH1 0x0 SWAP1 DUP2 MSTORE PUSH1 0x8 PUSH1 0x20 MSTORE PUSH1 0x40 SWAP1 KECCAK256 DUP1 SLOAD PUSH1 0xFF NOT AND SWAP2 ISZERO ISZERO SWAP2 SWAP1 SWAP2 OR SWAP1 SSTORE JUMP JUMPDEST PUSH1 0x5 SLOAD PUSH1 0x1 PUSH1 0x1 PUSH1 0xA0 SHL SUB AND CALLER EQ PUSH2 0xD8F JUMPI PUSH1 0x40 MLOAD PUSH3 0x461BCD PUSH1 0xE5 SHL DUP2 MSTORE PUSH1 0x4 ADD PUSH2 0x92F SWAP1 PUSH2 0x2481 JUMP JUMPDEST PUSH1 0x16 SSTORE JUMP JUMPDEST PUSH1 0x5 SLOAD PUSH1 0x1 PUSH1 0x1 PUSH1 0xA0 SHL SUB AND CALLER EQ PUSH2 0xDBE JUMPI PUSH1 0x40 MLOAD PUSH3 0x461BCD PUSH1 0xE5 SHL DUP2 MSTORE PUSH1 0x4 ADD PUSH2 0x92F SWAP1 PUSH2 0x2481 JUMP JUMPDEST PUSH1 0x5 DUP2 GT ISZERO PUSH2 0xE2C JUMPI PUSH1 0x40 MLOAD PUSH3 0x461BCD PUSH1 0xE5 SHL DUP2 MSTORE PUSH1 0x20 PUSH1 0x4 DUP3 ADD MSTORE PUSH1 0x34 PUSH1 0x24 DUP3 ADD MSTORE PUSH32 0x546865206D61726B6574696E67207472616E73616374696F6E20666565206361 PUSH1 0x44 DUP3 ADD MSTORE PUSH20 0x3713BA1031329036B7B932903A3430B7101A9297 PUSH1 0x61 SHL PUSH1 0x64 DUP3 ADD MSTORE PUSH1 0x84 ADD PUSH2 0x92F JUMP JUMPDEST PUSH1 0x12 DUP2 SWAP1 SSTORE PUSH1 0x40 MLOAD DUP2 SWAP1 PUSH31 0xEC95F51190FC49500BF726B0C72CB5C1B132F7BFE7685A33BDA07DEFE3A8A8 SWAP1 PUSH1 0x0 SWAP1 LOG2 POP JUMP JUMPDEST PUSH1 0x1 PUSH1 0x1 PUSH1 0xA0 SHL SUB AND PUSH1 0x0 SWAP1 DUP2 MSTORE PUSH1 0x20 DUP2 SWAP1 MSTORE PUSH1 0x40 SWAP1 KECCAK256 SLOAD SWAP1 JUMP JUMPDEST PUSH1 0x5 SLOAD PUSH1 0x1 PUSH1 0x1 PUSH1 0xA0 SHL SUB AND CALLER EQ PUSH2 0xEA3 JUMPI PUSH1 0x40 MLOAD PUSH3 0x461BCD PUSH1 0xE5 SHL DUP2 MSTORE PUSH1 0x4 ADD PUSH2 0x92F SWAP1 PUSH2 0x2481 JUMP JUMPDEST PUSH2 0xEAD PUSH1 0x0 PUSH2 0x1EC5 JUMP JUMPDEST JUMP JUMPDEST PUSH1 0x5 SLOAD PUSH1 0x1 PUSH1 0x1 PUSH1 0xA0 SHL SUB AND CALLER EQ PUSH2 0xED9 JUMPI PUSH1 0x40 MLOAD PUSH3 0x461BCD PUSH1 0xE5 SHL DUP2 MSTORE PUSH1 0x4 ADD PUSH2 0x92F SWAP1 PUSH2 0x2481 JUMP JUMPDEST DUP2 ISZERO PUSH2 0xEEE JUMPI PUSH2 0xEE9 DUP4 DUP3 PUSH2 0x1A60 JUMP JUMPDEST PUSH2 0xF07 JUMP JUMPDEST PUSH1 0x0 PUSH2 0xEF9 ADDRESS PUSH2 0xE5E JUMP JUMPDEST SWAP1 POP PUSH2 0xF05 DUP2 DUP4 PUSH2 0x1A60 JUMP JUMPDEST POP JUMPDEST SELFBALANCE PUSH2 0xF11 DUP2 PUSH2 0x1BF6 JUMP JUMPDEST POP POP POP POP JUMP JUMPDEST PUSH1 0x5 SLOAD PUSH1 0x1 PUSH1 0x1 PUSH1 0xA0 SHL SUB AND CALLER EQ PUSH2 0xF41 JUMPI PUSH1 0x40 MLOAD PUSH3 0x461BCD PUSH1 0xE5 SHL DUP2 MSTORE PUSH1 0x4 ADD PUSH2 0x92F SWAP1 PUSH2 0x2481 JUMP JUMPDEST PUSH1 0x1 PUSH1 0x1 PUSH1 0xA0 SHL SUB AND PUSH1 0x0 SWAP1 DUP2 MSTORE PUSH1 0x6 PUSH1 0x20 MSTORE PUSH1 0x40 SWAP1 KECCAK256 DUP1 SLOAD PUSH1 0xFF NOT AND PUSH1 0x1 OR SWAP1 SSTORE JUMP JUMPDEST PUSH1 0x5 SLOAD PUSH1 0x1 PUSH1 0x1 PUSH1 0xA0 SHL SUB AND CALLER EQ PUSH2 0xF8F JUMPI PUSH1 0x40 MLOAD PUSH3 0x461BCD PUSH1 0xE5 SHL DUP2 MSTORE PUSH1 0x4 ADD PUSH2 0x92F SWAP1 PUSH2 0x2481 JUMP JUMPDEST SELFBALANCE PUSH2 0xF99 DUP2 PUSH2 0x1BF6 JUMP JUMPDEST POP JUMP JUMPDEST PUSH1 0x60 PUSH1 0x4 DUP1 SLOAD PUSH2 0x862 SWAP1 PUSH2 0x2222 JUMP JUMPDEST CALLER PUSH1 0x0 SWAP1 DUP2 MSTORE PUSH1 0x8 PUSH1 0x20 MSTORE PUSH1 0x40 SWAP1 KECCAK256 SLOAD PUSH1 0xFF AND PUSH2 0x1022 JUMPI PUSH1 0x40 MLOAD PUSH3 0x461BCD PUSH1 0xE5 SHL DUP2 MSTORE PUSH1 0x20 PUSH1 0x4 DUP3 ADD MSTORE PUSH1 0x2F PUSH1 0x24 DUP3 ADD MSTORE PUSH32 0x596F7520617265206E6F7420617574686F72697A656420746F206275726E2043 PUSH1 0x44 DUP3 ADD MSTORE PUSH15 0x30B93234B730B6102A37B5B2B73997 PUSH1 0x89 SHL PUSH1 0x64 DUP3 ADD MSTORE PUSH1 0x84 ADD PUSH2 0x92F JUMP JUMPDEST PUSH2 0xD0C DUP3 DUP3 PUSH2 0x1F17 JUMP JUMPDEST CALLER PUSH1 0x0 DUP2 DUP2 MSTORE PUSH1 0x1 PUSH1 0x20 SWAP1 DUP2 MSTORE PUSH1 0x40 DUP1 DUP4 KECCAK256 PUSH1 0x1 PUSH1 0x1 PUSH1 0xA0 SHL SUB DUP8 AND DUP5 MSTORE SWAP1 SWAP2 MSTORE DUP2 KECCAK256 SLOAD SWAP1 SWAP2 SWAP1 DUP4 DUP2 LT ISZERO PUSH2 0x10B1 JUMPI PUSH1 0x40 MLOAD PUSH3 0x461BCD PUSH1 0xE5 SHL DUP2 MSTORE PUSH1 0x20 PUSH1 0x4 DUP3 ADD MSTORE PUSH1 0x25 PUSH1 0x24 DUP3 ADD MSTORE PUSH32 0x45524332303A2064656372656173656420616C6C6F77616E63652062656C6F77 PUSH1 0x44 DUP3 ADD MSTORE PUSH5 0x207A65726F PUSH1 0xD8 SHL PUSH1 0x64 DUP3 ADD MSTORE PUSH1 0x84 ADD PUSH2 0x92F JUMP JUMPDEST PUSH2 0x10BE DUP3 DUP7 DUP7 DUP5 SUB PUSH2 0x16E1 JUMP JUMPDEST POP PUSH1 0x1 SWAP5 SWAP4 POP POP POP POP JUMP JUMPDEST CALLER PUSH1 0x0 SWAP1 DUP2 MSTORE PUSH1 0x7 PUSH1 0x20 MSTORE PUSH1 0x40 DUP2 KECCAK256 SLOAD PUSH1 0xFF AND ISZERO PUSH2 0x10F9 JUMPI PUSH1 0x40 MLOAD PUSH3 0x461BCD PUSH1 0xE5 SHL DUP2 MSTORE PUSH1 0x4 ADD PUSH2 0x92F SWAP1 PUSH2 0x225D JUMP JUMPDEST PUSH1 0x1 PUSH1 0x1 PUSH1 0xA0 SHL SUB DUP4 AND PUSH1 0x0 SWAP1 DUP2 MSTORE PUSH1 0x7 PUSH1 0x20 MSTORE PUSH1 0x40 SWAP1 KECCAK256 SLOAD PUSH1 0xFF AND ISZERO PUSH2 0x1132 JUMPI PUSH1 0x40 MLOAD PUSH3 0x461BCD PUSH1 0xE5 SHL DUP2 MSTORE PUSH1 0x4 ADD PUSH2 0x92F SWAP1 PUSH2 0x2310 JUMP JUMPDEST CALLER PUSH1 0x0 SWAP1 DUP2 MSTORE PUSH1 0x9 PUSH1 0x20 MSTORE PUSH1 0x40 SWAP1 KECCAK256 SLOAD PUSH1 0xFF AND DUP1 ISZERO PUSH2 0x1161 JUMPI POP CALLER PUSH1 0x0 SWAP1 DUP2 MSTORE PUSH1 0x6 PUSH1 0x20 MSTORE PUSH1 0x40 SWAP1 KECCAK256 SLOAD PUSH1 0xFF AND ISZERO JUMPDEST DUP1 ISZERO PUSH2 0x1186 JUMPI POP PUSH1 0x1 PUSH1 0x1 PUSH1 0xA0 SHL SUB DUP4 AND PUSH1 0x0 SWAP1 DUP2 MSTORE PUSH1 0x6 PUSH1 0x20 MSTORE PUSH1 0x40 SWAP1 KECCAK256 SLOAD PUSH1 0xFF AND ISZERO JUMPDEST ISZERO PUSH2 0x1240 JUMPI PUSH1 0x14 PUSH2 0x1196 PUSH1 0x2 SLOAD SWAP1 JUMP JUMPDEST PUSH2 0x11A0 SWAP2 SWAP1 PUSH2 0x2430 JUMP JUMPDEST DUP3 PUSH2 0x11AA DUP6 PUSH2 0xE5E JUMP JUMPDEST PUSH2 0x11B4 SWAP2 SWAP1 PUSH2 0x2452 JUMP JUMPDEST LT PUSH2 0x1240 JUMPI PUSH1 0x40 MLOAD PUSH3 0x461BCD PUSH1 0xE5 SHL DUP2 MSTORE PUSH1 0x20 PUSH1 0x4 DUP3 ADD MSTORE PUSH1 0x50 PUSH1 0x24 DUP3 ADD MSTORE PUSH32 0x596F752063616E27742068617665206D6F7265207468616E203525206F662074 PUSH1 0x44 DUP3 ADD MSTORE PUSH32 0x686520746F74616C2043617264696E616C20546F6B656E20737570706C792061 PUSH1 0x64 DUP3 ADD MSTORE PUSH16 0x333A32B91030902222AC1039BBB0B817 PUSH1 0x81 SHL PUSH1 0x84 DUP3 ADD MSTORE PUSH1 0xA4 ADD PUSH2 0x92F JUMP JUMPDEST CALLER PUSH1 0x0 SWAP1 DUP2 MSTORE PUSH1 0x6 PUSH1 0x20 MSTORE PUSH1 0x40 SWAP1 KECCAK256 SLOAD PUSH1 0xFF AND DUP1 PUSH2 0x1276 JUMPI POP PUSH1 0x1 PUSH1 0x1 PUSH1 0xA0 SHL SUB DUP4 AND PUSH1 0x0 SWAP1 DUP2 MSTORE PUSH1 0x6 PUSH1 0x20 MSTORE PUSH1 0x40 SWAP1 KECCAK256 SLOAD PUSH1 0xFF AND JUMPDEST ISZERO PUSH2 0x128E JUMPI PUSH2 0x1286 CALLER DUP5 DUP5 PUSH2 0x1892 JUMP JUMPDEST POP PUSH1 0x1 PUSH2 0x8F9 JUMP JUMPDEST PUSH1 0x0 PUSH1 0x64 PUSH1 0x11 SLOAD DUP5 PUSH2 0x12A0 SWAP2 SWAP1 PUSH2 0x2411 JUMP JUMPDEST PUSH2 0x12AA SWAP2 SWAP1 PUSH2 0x2430 JUMP JUMPDEST SWAP1 POP PUSH1 0x0 PUSH1 0x64 PUSH1 0x12 SLOAD DUP6 PUSH2 0x12BE SWAP2 SWAP1 PUSH2 0x2411 JUMP JUMPDEST PUSH2 0x12C8 SWAP2 SWAP1 PUSH2 0x2430 JUMP JUMPDEST SWAP1 POP PUSH1 0x0 PUSH1 0x64 PUSH1 0x13 SLOAD DUP7 PUSH2 0x12DC SWAP2 SWAP1 PUSH2 0x2411 JUMP JUMPDEST PUSH2 0x12E6 SWAP2 SWAP1 PUSH2 0x2430 JUMP JUMPDEST SWAP1 POP PUSH1 0x0 PUSH2 0x12F4 DUP3 DUP5 PUSH2 0x2452 JUMP JUMPDEST SWAP1 POP PUSH2 0x130C CALLER PUSH1 0xD SLOAD PUSH1 0x1 PUSH1 0x1 PUSH1 0xA0 SHL SUB AND DUP7 PUSH2 0x1892 JUMP JUMPDEST PUSH2 0x1317 CALLER ADDRESS DUP4 PUSH2 0x1892 JUMP JUMPDEST PUSH1 0x0 DUP5 PUSH2 0x1324 DUP4 DUP10 PUSH2 0x246A JUMP JUMPDEST PUSH2 0x132E SWAP2 SWAP1 PUSH2 0x246A JUMP JUMPDEST SWAP1 POP PUSH2 0x133B CALLER DUP10 DUP4 PUSH2 0x1892 JUMP JUMPDEST PUSH1 0x0 PUSH2 0x1346 ADDRESS PUSH2 0xE5E JUMP JUMPDEST CALLER PUSH1 0x0 SWAP1 DUP2 MSTORE PUSH1 0x9 PUSH1 0x20 MSTORE PUSH1 0x40 SWAP1 KECCAK256 SLOAD SWAP1 SWAP2 POP PUSH1 0xFF AND PUSH2 0x13A6 JUMPI PUSH1 0x16 SLOAD PUSH1 0x15 SLOAD PUSH2 0x1378 SWAP1 PUSH1 0x1 PUSH1 0x1 PUSH1 0xA0 SHL SUB AND PUSH2 0xE5E JUMP JUMPDEST PUSH2 0x1382 SWAP2 SWAP1 PUSH2 0x2430 JUMP JUMPDEST DUP2 GT ISZERO PUSH2 0x1394 JUMPI PUSH2 0x1394 DUP2 PUSH1 0x0 PUSH2 0x1A60 JUMP JUMPDEST SELFBALANCE DUP1 ISZERO PUSH2 0x13A4 JUMPI PUSH2 0x13A4 SELFBALANCE PUSH2 0x1BF6 JUMP JUMPDEST POP JUMPDEST POP PUSH1 0x1 SWAP9 SWAP8 POP POP POP POP POP POP POP POP JUMP JUMPDEST PUSH1 0x5 SLOAD PUSH1 0x1 PUSH1 0x1 PUSH1 0xA0 SHL SUB AND CALLER EQ PUSH2 0x13DF JUMPI PUSH1 0x40 MLOAD PUSH3 0x461BCD PUSH1 0xE5 SHL DUP2 MSTORE PUSH1 0x4 ADD PUSH2 0x92F SWAP1 PUSH2 0x2481 JUMP JUMPDEST PUSH1 0x1 PUSH1 0x1 PUSH1 0xA0 SHL SUB AND PUSH1 0x0 SWAP1 DUP2 MSTORE PUSH1 0x6 PUSH1 0x20 MSTORE PUSH1 0x40 SWAP1 KECCAK256 DUP1 SLOAD PUSH1 0xFF NOT AND SWAP1 SSTORE JUMP JUMPDEST PUSH1 0x5 SLOAD PUSH1 0x1 PUSH1 0x1 PUSH1 0xA0 SHL SUB AND CALLER EQ PUSH2 0x142A JUMPI PUSH1 0x40 MLOAD PUSH3 0x461BCD PUSH1 0xE5 SHL DUP2 MSTORE PUSH1 0x4 ADD PUSH2 0x92F SWAP1 PUSH2 0x2481 JUMP JUMPDEST PUSH1 0x5 DUP2 GT ISZERO PUSH2 0x14A1 JUMPI PUSH1 0x40 MLOAD PUSH3 0x461BCD PUSH1 0xE5 SHL DUP2 MSTORE PUSH1 0x20 PUSH1 0x4 DUP3 ADD MSTORE PUSH1 0x3A PUSH1 0x24 DUP3 ADD MSTORE PUSH32 0x546865206D656D626572206769766561776179207472616E73616374696F6E20 PUSH1 0x44 DUP3 ADD MSTORE PUSH32 0x6665652063616E2774206265206D6F7265207468616E2035252E000000000000 PUSH1 0x64 DUP3 ADD MSTORE PUSH1 0x84 ADD PUSH2 0x92F JUMP JUMPDEST PUSH1 0x11 DUP2 SWAP1 SSTORE PUSH1 0x40 MLOAD DUP2 SWAP1 PUSH32 0x39E1F3E4CC8FEB7DBC01C16E37AA1546C352489807C660593C62538F536AC051 SWAP1 PUSH1 0x0 SWAP1 LOG2 POP JUMP JUMPDEST PUSH1 0x5 SLOAD PUSH1 0x1 PUSH1 0x1 PUSH1 0xA0 SHL SUB AND CALLER EQ PUSH2 0x14FE JUMPI PUSH1 0x40 MLOAD PUSH3 0x461BCD PUSH1 0xE5 SHL DUP2 MSTORE PUSH1 0x4 ADD PUSH2 0x92F SWAP1 PUSH2 0x2481 JUMP JUMPDEST PUSH1 0x5 DUP2 GT ISZERO PUSH2 0x156C JUMPI PUSH1 0x40 MLOAD PUSH3 0x461BCD PUSH1 0xE5 SHL DUP2 MSTORE PUSH1 0x20 PUSH1 0x4 DUP3 ADD MSTORE PUSH1 0x34 PUSH1 0x24 DUP3 ADD MSTORE PUSH32 0x54686520646576656C6F706572207472616E73616374696F6E20666565206361 PUSH1 0x44 DUP3 ADD MSTORE PUSH20 0x3713BA1031329036B7B932903A3430B7101A9297 PUSH1 0x61 SHL PUSH1 0x64 DUP3 ADD MSTORE PUSH1 0x84 ADD PUSH2 0x92F JUMP JUMPDEST PUSH1 0x13 DUP2 SWAP1 SSTORE PUSH1 0x40 MLOAD DUP2 SWAP1 PUSH32 0x4BEE3C216A701857ABD67FED754EFDD065A8599BE5476E2C4B118FB1896B9FFA SWAP1 PUSH1 0x0 SWAP1 LOG2 POP JUMP JUMPDEST PUSH1 0x5 SLOAD PUSH1 0x1 PUSH1 0x1 PUSH1 0xA0 SHL SUB AND CALLER EQ PUSH2 0x15C9 JUMPI PUSH1 0x40 MLOAD PUSH3 0x461BCD PUSH1 0xE5 SHL DUP2 MSTORE PUSH1 0x4 ADD PUSH2 0x92F SWAP1 PUSH2 0x2481 JUMP JUMPDEST PUSH1 0x1 PUSH1 0x1 PUSH1 0xA0 SHL SUB DUP2 AND PUSH2 0x162E JUMPI PUSH1 0x40 MLOAD PUSH3 0x461BCD PUSH1 0xE5 SHL DUP2 MSTORE PUSH1 0x20 PUSH1 0x4 DUP3 ADD MSTORE PUSH1 0x26 PUSH1 0x24 DUP3 ADD MSTORE PUSH32 0x4F776E61626C653A206E6577206F776E657220697320746865207A65726F2061 PUSH1 0x44 DUP3 ADD MSTORE PUSH6 0x646472657373 PUSH1 0xD0 SHL PUSH1 0x64 DUP3 ADD MSTORE PUSH1 0x84 ADD PUSH2 0x92F JUMP JUMPDEST PUSH2 0xF99 DUP2 PUSH2 0x1EC5 JUMP JUMPDEST PUSH1 0x5 SLOAD PUSH1 0x1 PUSH1 0x1 PUSH1 0xA0 SHL SUB AND CALLER EQ PUSH2 0x1661 JUMPI PUSH1 0x40 MLOAD PUSH3 0x461BCD PUSH1 0xE5 SHL DUP2 MSTORE PUSH1 0x4 ADD PUSH2 0x92F SWAP1 PUSH2 0x2481 JUMP JUMPDEST PUSH1 0x1 PUSH1 0x1 PUSH1 0xA0 SHL SUB SWAP2 SWAP1 SWAP2 AND PUSH1 0x0 SWAP1 DUP2 MSTORE PUSH1 0x9 PUSH1 0x20 MSTORE PUSH1 0x40 SWAP1 KECCAK256 DUP1 SLOAD PUSH1 0xFF NOT AND SWAP2 ISZERO ISZERO SWAP2 SWAP1 SWAP2 OR SWAP1 SSTORE JUMP JUMPDEST PUSH1 0x5 SLOAD PUSH1 0x1 PUSH1 0x1 PUSH1 0xA0 SHL SUB AND CALLER EQ PUSH2 0x16B6 JUMPI PUSH1 0x40 MLOAD PUSH3 0x461BCD PUSH1 0xE5 SHL DUP2 MSTORE PUSH1 0x4 ADD PUSH2 0x92F SWAP1 PUSH2 0x2481 JUMP JUMPDEST PUSH1 0x1 PUSH1 0x1 PUSH1 0xA0 SHL SUB SWAP2 SWAP1 SWAP2 AND PUSH1 0x0 SWAP1 DUP2 MSTORE PUSH1 0x7 PUSH1 0x20 MSTORE PUSH1 0x40 SWAP1 KECCAK256 DUP1 SLOAD PUSH1 0xFF NOT AND SWAP2 ISZERO ISZERO SWAP2 SWAP1 SWAP2 OR SWAP1 SSTORE JUMP JUMPDEST PUSH1 0x1 PUSH1 0x1 PUSH1 0xA0 SHL SUB DUP4 AND PUSH2 0x1743 JUMPI PUSH1 0x40 MLOAD PUSH3 0x461BCD PUSH1 0xE5 SHL DUP2 MSTORE PUSH1 0x20 PUSH1 0x4 DUP3 ADD MSTORE PUSH1 0x24 DUP1 DUP3 ADD MSTORE PUSH32 0x45524332303A20617070726F76652066726F6D20746865207A65726F20616464 PUSH1 0x44 DUP3 ADD MSTORE PUSH4 0x72657373 PUSH1 0xE0 SHL PUSH1 0x64 DUP3 ADD MSTORE PUSH1 0x84 ADD PUSH2 0x92F JUMP JUMPDEST PUSH1 0x1 PUSH1 0x1 PUSH1 0xA0 SHL SUB DUP3 AND PUSH2 0x17A4 JUMPI PUSH1 0x40 MLOAD PUSH3 0x461BCD PUSH1 0xE5 SHL DUP2 MSTORE PUSH1 0x20 PUSH1 0x4 DUP3 ADD MSTORE PUSH1 0x22 PUSH1 0x24 DUP3 ADD MSTORE PUSH32 0x45524332303A20617070726F766520746F20746865207A65726F206164647265 PUSH1 0x44 DUP3 ADD MSTORE PUSH2 0x7373 PUSH1 0xF0 SHL PUSH1 0x64 DUP3 ADD MSTORE PUSH1 0x84 ADD PUSH2 0x92F JUMP JUMPDEST PUSH1 0x1 PUSH1 0x1 PUSH1 0xA0 SHL SUB DUP4 DUP2 AND PUSH1 0x0 DUP2 DUP2 MSTORE PUSH1 0x1 PUSH1 0x20 SWAP1 DUP2 MSTORE PUSH1 0x40 DUP1 DUP4 KECCAK256 SWAP5 DUP8 AND DUP1 DUP5 MSTORE SWAP5 DUP3 MSTORE SWAP2 DUP3 SWAP1 KECCAK256 DUP6 SWAP1 SSTORE SWAP1 MLOAD DUP5 DUP2 MSTORE PUSH32 0x8C5BE1E5EBEC7D5BD14F71427D1E84F3DD0314C0F7B2291E5B200AC8C7C3B925 SWAP2 ADD JUMPDEST PUSH1 0x40 MLOAD DUP1 SWAP2 SUB SWAP1 LOG3 POP POP POP JUMP JUMPDEST PUSH1 0x1 PUSH1 0x1 PUSH1 0xA0 SHL SUB DUP4 DUP2 AND PUSH1 0x0 SWAP1 DUP2 MSTORE PUSH1 0x1 PUSH1 0x20 SWAP1 DUP2 MSTORE PUSH1 0x40 DUP1 DUP4 KECCAK256 SWAP4 DUP7 AND DUP4 MSTORE SWAP3 SWAP1 MSTORE KECCAK256 SLOAD PUSH1 0x0 NOT DUP2 EQ PUSH2 0xF11 JUMPI DUP2 DUP2 LT ISZERO PUSH2 0x1885 JUMPI PUSH1 0x40 MLOAD PUSH3 0x461BCD PUSH1 0xE5 SHL DUP2 MSTORE PUSH1 0x20 PUSH1 0x4 DUP3 ADD MSTORE PUSH1 0x1D PUSH1 0x24 DUP3 ADD MSTORE PUSH32 0x45524332303A20696E73756666696369656E7420616C6C6F77616E6365000000 PUSH1 0x44 DUP3 ADD MSTORE PUSH1 0x64 ADD PUSH2 0x92F JUMP JUMPDEST PUSH2 0xF11 DUP5 DUP5 DUP5 DUP5 SUB PUSH2 0x16E1 JUMP JUMPDEST PUSH1 0x1 PUSH1 0x1 PUSH1 0xA0 SHL SUB DUP4 AND PUSH2 0x18F6 JUMPI PUSH1 0x40 MLOAD PUSH3 0x461BCD PUSH1 0xE5 SHL DUP2 MSTORE PUSH1 0x20 PUSH1 0x4 DUP3 ADD MSTORE PUSH1 0x25 PUSH1 0x24 DUP3 ADD MSTORE PUSH32 0x45524332303A207472616E736665722066726F6D20746865207A65726F206164 PUSH1 0x44 DUP3 ADD MSTORE PUSH5 0x6472657373 PUSH1 0xD8 SHL PUSH1 0x64 DUP3 ADD MSTORE PUSH1 0x84 ADD PUSH2 0x92F JUMP JUMPDEST PUSH1 0x1 PUSH1 0x1 PUSH1 0xA0 SHL SUB DUP3 AND PUSH2 0x1958 JUMPI PUSH1 0x40 MLOAD PUSH3 0x461BCD PUSH1 0xE5 SHL DUP2 MSTORE PUSH1 0x20 PUSH1 0x4 DUP3 ADD MSTORE PUSH1 0x23 PUSH1 0x24 DUP3 ADD MSTORE PUSH32 0x45524332303A207472616E7366657220746F20746865207A65726F2061646472 PUSH1 0x44 DUP3 ADD MSTORE PUSH3 0x657373 PUSH1 0xE8 SHL PUSH1 0x64 DUP3 ADD MSTORE PUSH1 0x84 ADD PUSH2 0x92F JUMP JUMPDEST PUSH1 0x1 PUSH1 0x1 PUSH1 0xA0 SHL SUB DUP4 AND PUSH1 0x0 SWAP1 DUP2 MSTORE PUSH1 0x20 DUP2 SWAP1 MSTORE PUSH1 0x40 SWAP1 KECCAK256 SLOAD DUP2 DUP2 LT ISZERO PUSH2 0x19D0 JUMPI PUSH1 0x40 MLOAD PUSH3 0x461BCD PUSH1 0xE5 SHL DUP2 MSTORE PUSH1 0x20 PUSH1 0x4 DUP3 ADD MSTORE PUSH1 0x26 PUSH1 0x24 DUP3 ADD MSTORE PUSH32 0x45524332303A207472616E7366657220616D6F756E7420657863656564732062 PUSH1 0x44 DUP3 ADD MSTORE PUSH6 0x616C616E6365 PUSH1 0xD0 SHL PUSH1 0x64 DUP3 ADD MSTORE PUSH1 0x84 ADD PUSH2 0x92F JUMP JUMPDEST PUSH1 0x1 PUSH1 0x1 PUSH1 0xA0 SHL SUB DUP1 DUP6 AND PUSH1 0x0 SWAP1 DUP2 MSTORE PUSH1 0x20 DUP2 SWAP1 MSTORE PUSH1 0x40 DUP1 DUP3 KECCAK256 DUP6 DUP6 SUB SWAP1 SSTORE SWAP2 DUP6 AND DUP2 MSTORE SWAP1 DUP2 KECCAK256 DUP1 SLOAD DUP5 SWAP3 SWAP1 PUSH2 0x1A07 SWAP1 DUP5 SWAP1 PUSH2 0x2452 JUMP JUMPDEST SWAP3 POP POP DUP2 SWAP1 SSTORE POP DUP3 PUSH1 0x1 PUSH1 0x1 PUSH1 0xA0 SHL SUB AND DUP5 PUSH1 0x1 PUSH1 0x1 PUSH1 0xA0 SHL SUB AND PUSH32 0xDDF252AD1BE2C89B69C2B068FC378DAA952BA7F163C4A11628F55A4DF523B3EF DUP5 PUSH1 0x40 MLOAD PUSH2 0x1A53 SWAP2 DUP2 MSTORE PUSH1 0x20 ADD SWAP1 JUMP JUMPDEST PUSH1 0x40 MLOAD DUP1 SWAP2 SUB SWAP1 LOG3 PUSH2 0xF11 JUMP JUMPDEST PUSH1 0x40 DUP1 MLOAD PUSH1 0x2 DUP1 DUP3 MSTORE PUSH1 0x60 DUP3 ADD DUP4 MSTORE PUSH1 0x0 SWAP3 PUSH1 0x20 DUP4 ADD SWAP1 DUP1 CALLDATASIZE DUP4 CALLDATACOPY ADD SWAP1 POP POP SWAP1 POP ADDRESS DUP2 PUSH1 0x0 DUP2 MLOAD DUP2 LT PUSH2 0x1A95 JUMPI PUSH2 0x1A95 PUSH2 0x24B6 JUMP JUMPDEST PUSH1 0x1 PUSH1 0x1 PUSH1 0xA0 SHL SUB SWAP3 DUP4 AND PUSH1 0x20 SWAP2 DUP3 MUL SWAP3 SWAP1 SWAP3 ADD DUP2 ADD SWAP2 SWAP1 SWAP2 MSTORE PUSH1 0x14 SLOAD PUSH1 0x40 DUP1 MLOAD PUSH4 0x15AB88C9 PUSH1 0xE3 SHL DUP2 MSTORE SWAP1 MLOAD SWAP2 SWAP1 SWAP4 AND SWAP3 PUSH4 0xAD5C4648 SWAP3 PUSH1 0x4 DUP1 DUP4 ADD SWAP4 SWAP2 SWAP3 DUP3 SWAP1 SUB ADD DUP2 DUP7 DUP1 EXTCODESIZE ISZERO DUP1 ISZERO PUSH2 0x1AE9 JUMPI PUSH1 0x0 DUP1 REVERT JUMPDEST POP GAS STATICCALL ISZERO DUP1 ISZERO PUSH2 0x1AFD JUMPI RETURNDATASIZE PUSH1 0x0 DUP1 RETURNDATACOPY RETURNDATASIZE PUSH1 0x0 REVERT JUMPDEST POP POP POP POP PUSH1 0x40 MLOAD RETURNDATASIZE PUSH1 0x1F NOT PUSH1 0x1F DUP3 ADD AND DUP3 ADD DUP1 PUSH1 0x40 MSTORE POP DUP2 ADD SWAP1 PUSH2 0x1B21 SWAP2 SWAP1 PUSH2 0x24CC JUMP JUMPDEST DUP2 PUSH1 0x1 DUP2 MLOAD DUP2 LT PUSH2 0x1B34 JUMPI PUSH2 0x1B34 PUSH2 0x24B6 JUMP JUMPDEST PUSH1 0x1 PUSH1 0x1 PUSH1 0xA0 SHL SUB SWAP3 DUP4 AND PUSH1 0x20 SWAP2 DUP3 MUL SWAP3 SWAP1 SWAP3 ADD ADD MSTORE PUSH1 0x14 SLOAD PUSH2 0x1B5A SWAP2 ADDRESS SWAP2 AND DUP6 PUSH2 0x16E1 JUMP JUMPDEST PUSH1 0x14 SLOAD PUSH1 0x40 MLOAD PUSH4 0x791AC947 PUSH1 0xE0 SHL DUP2 MSTORE PUSH1 0x1 PUSH1 0x1 PUSH1 0xA0 SHL SUB SWAP1 SWAP2 AND SWAP1 PUSH4 0x791AC947 SWAP1 PUSH2 0x1B92 SWAP1 DUP7 SWAP1 DUP7 SWAP1 DUP7 SWAP1 ADDRESS SWAP1 TIMESTAMP SWAP1 PUSH1 0x4 ADD PUSH2 0x24E9 JUMP JUMPDEST PUSH1 0x0 PUSH1 0x40 MLOAD DUP1 DUP4 SUB DUP2 PUSH1 0x0 DUP8 DUP1 EXTCODESIZE ISZERO DUP1 ISZERO PUSH2 0x1BAC JUMPI PUSH1 0x0 DUP1 REVERT JUMPDEST POP GAS CALL ISZERO DUP1 ISZERO PUSH2 0x1BC0 JUMPI RETURNDATASIZE PUSH1 0x0 DUP1 RETURNDATACOPY RETURNDATASIZE PUSH1 0x0 REVERT JUMPDEST POP POP PUSH1 0x40 MLOAD SELFBALANCE SWAP3 POP DUP6 SWAP2 POP PUSH32 0x55CDE9DF0AA5720272C955ECD1EF12A4C4D3326A4B8C1C4D0557A25BE8C25E10 SWAP1 PUSH1 0x0 SWAP1 LOG3 POP POP POP JUMP JUMPDEST PUSH1 0x0 PUSH1 0x13 SLOAD PUSH1 0x12 SLOAD PUSH2 0x1C08 SWAP2 SWAP1 PUSH2 0x2452 JUMP JUMPDEST SWAP1 POP PUSH1 0x0 DUP2 PUSH1 0x12 SLOAD DUP5 PUSH2 0x1C1B SWAP2 SWAP1 PUSH2 0x2411 JUMP JUMPDEST PUSH2 0x1C25 SWAP2 SWAP1 PUSH2 0x2430 JUMP JUMPDEST SWAP1 POP PUSH1 0x0 DUP3 PUSH1 0x13 SLOAD DUP6 PUSH2 0x1C38 SWAP2 SWAP1 PUSH2 0x2411 JUMP JUMPDEST PUSH2 0x1C42 SWAP2 SWAP1 PUSH2 0x2430 JUMP JUMPDEST PUSH1 0xE SLOAD PUSH1 0x40 MLOAD SWAP2 SWAP3 POP PUSH1 0x0 SWAP2 PUSH1 0x1 PUSH1 0x1 PUSH1 0xA0 SHL SUB SWAP1 SWAP2 AND SWAP1 DUP5 SWAP1 DUP4 DUP2 DUP2 DUP2 DUP6 DUP8 GAS CALL SWAP3 POP POP POP RETURNDATASIZE DUP1 PUSH1 0x0 DUP2 EQ PUSH2 0x1C94 JUMPI PUSH1 0x40 MLOAD SWAP2 POP PUSH1 0x1F NOT PUSH1 0x3F RETURNDATASIZE ADD AND DUP3 ADD PUSH1 0x40 MSTORE RETURNDATASIZE DUP3 MSTORE RETURNDATASIZE PUSH1 0x0 PUSH1 0x20 DUP5 ADD RETURNDATACOPY PUSH2 0x1C99 JUMP JUMPDEST PUSH1 0x60 SWAP2 POP JUMPDEST POP POP SWAP1 POP DUP1 PUSH2 0x1CFC JUMPI PUSH1 0x40 MLOAD PUSH3 0x461BCD PUSH1 0xE5 SHL DUP2 MSTORE PUSH1 0x20 PUSH1 0x4 DUP3 ADD MSTORE PUSH1 0x29 PUSH1 0x24 DUP3 ADD MSTORE PUSH32 0x4661696C656420746F2073656E64204D6174696320746F206D61726B6574696E PUSH1 0x44 DUP3 ADD MSTORE PUSH9 0x672061646472657373 PUSH1 0xB8 SHL PUSH1 0x64 DUP3 ADD MSTORE PUSH1 0x84 ADD PUSH2 0x92F JUMP JUMPDEST PUSH1 0xF SLOAD PUSH1 0x40 MLOAD PUSH1 0x0 SWAP2 PUSH1 0x1 PUSH1 0x1 PUSH1 0xA0 SHL SUB AND SWAP1 DUP5 SWAP1 DUP4 DUP2 DUP2 DUP2 DUP6 DUP8 GAS CALL SWAP3 POP POP POP RETURNDATASIZE DUP1 PUSH1 0x0 DUP2 EQ PUSH2 0x1D49 JUMPI PUSH1 0x40 MLOAD SWAP2 POP PUSH1 0x1F NOT PUSH1 0x3F RETURNDATASIZE ADD AND DUP3 ADD PUSH1 0x40 MSTORE RETURNDATASIZE DUP3 MSTORE RETURNDATASIZE PUSH1 0x0 PUSH1 0x20 DUP5 ADD RETURNDATACOPY PUSH2 0x1D4E JUMP JUMPDEST PUSH1 0x60 SWAP2 POP JUMPDEST POP POP SWAP1 POP DUP1 PUSH2 0x1DB1 JUMPI PUSH1 0x40 MLOAD PUSH3 0x461BCD PUSH1 0xE5 SHL DUP2 MSTORE PUSH1 0x20 PUSH1 0x4 DUP3 ADD MSTORE PUSH1 0x29 PUSH1 0x24 DUP3 ADD MSTORE PUSH32 0x4661696C656420746F2073656E64204D6174696320746F20646576656C6F7065 PUSH1 0x44 DUP3 ADD MSTORE PUSH9 0x722061646472657373 PUSH1 0xB8 SHL PUSH1 0x64 DUP3 ADD MSTORE PUSH1 0x84 ADD PUSH2 0x92F JUMP JUMPDEST PUSH1 0x40 MLOAD DUP4 SWAP1 DUP6 SWAP1 PUSH32 0x2574A60C18822FDCA3D6638B38D78B1EDB836B2F6322DF3D8D4EEB9E14393603 SWAP1 PUSH1 0x0 SWAP1 LOG3 POP POP POP POP POP POP JUMP JUMPDEST PUSH1 0x1 PUSH1 0x1 PUSH1 0xA0 SHL SUB DUP3 AND PUSH2 0x1E3C JUMPI PUSH1 0x40 MLOAD PUSH3 0x461BCD PUSH1 0xE5 SHL DUP2 MSTORE PUSH1 0x20 PUSH1 0x4 DUP3 ADD MSTORE PUSH1 0x1F PUSH1 0x24 DUP3 ADD MSTORE PUSH32 0x45524332303A206D696E7420746F20746865207A65726F206164647265737300 PUSH1 0x44 DUP3 ADD MSTORE PUSH1 0x64 ADD PUSH2 0x92F JUMP JUMPDEST DUP1 PUSH1 0x2 PUSH1 0x0 DUP3 DUP3 SLOAD PUSH2 0x1E4E SWAP2 SWAP1 PUSH2 0x2452 JUMP JUMPDEST SWAP1 SWAP2 SSTORE POP POP PUSH1 0x1 PUSH1 0x1 PUSH1 0xA0 SHL SUB DUP3 AND PUSH1 0x0 SWAP1 DUP2 MSTORE PUSH1 0x20 DUP2 SWAP1 MSTORE PUSH1 0x40 DUP2 KECCAK256 DUP1 SLOAD DUP4 SWAP3 SWAP1 PUSH2 0x1E7B SWAP1 DUP5 SWAP1 PUSH2 0x2452 JUMP JUMPDEST SWAP1 SWAP2 SSTORE POP POP PUSH1 0x40 MLOAD DUP2 DUP2 MSTORE PUSH1 0x1 PUSH1 0x1 PUSH1 0xA0 SHL SUB DUP4 AND SWAP1 PUSH1 0x0 SWAP1 PUSH32 0xDDF252AD1BE2C89B69C2B068FC378DAA952BA7F163C4A11628F55A4DF523B3EF SWAP1 PUSH1 0x20 ADD PUSH1 0x40 MLOAD DUP1 SWAP2 SUB SWAP1 LOG3 POP POP JUMP JUMPDEST PUSH1 0x5 DUP1 SLOAD PUSH1 0x1 PUSH1 0x1 PUSH1 0xA0 SHL SUB DUP4 DUP2 AND PUSH1 0x1 PUSH1 0x1 PUSH1 0xA0 SHL SUB NOT DUP4 AND DUP2 OR SWAP1 SWAP4 SSTORE PUSH1 0x40 MLOAD SWAP2 AND SWAP2 SWAP1 DUP3 SWAP1 PUSH32 0x8BE0079C531659141344CD1FD0A4F28419497F9722A3DAAFE3B4186F6B6457E0 SWAP1 PUSH1 0x0 SWAP1 LOG3 POP POP JUMP JUMPDEST PUSH1 0x1 PUSH1 0x1 PUSH1 0xA0 SHL SUB DUP3 AND PUSH2 0x1F77 JUMPI PUSH1 0x40 MLOAD PUSH3 0x461BCD PUSH1 0xE5 SHL DUP2 MSTORE PUSH1 0x20 PUSH1 0x4 DUP3 ADD MSTORE PUSH1 0x21 PUSH1 0x24 DUP3 ADD MSTORE PUSH32 0x45524332303A206275726E2066726F6D20746865207A65726F20616464726573 PUSH1 0x44 DUP3 ADD MSTORE PUSH1 0x73 PUSH1 0xF8 SHL PUSH1 0x64 DUP3 ADD MSTORE PUSH1 0x84 ADD PUSH2 0x92F JUMP JUMPDEST PUSH1 0x1 PUSH1 0x1 PUSH1 0xA0 SHL SUB DUP3 AND PUSH1 0x0 SWAP1 DUP2 MSTORE PUSH1 0x20 DUP2 SWAP1 MSTORE PUSH1 0x40 SWAP1 KECCAK256 SLOAD DUP2 DUP2 LT ISZERO PUSH2 0x1FEB JUMPI PUSH1 0x40 MLOAD PUSH3 0x461BCD PUSH1 0xE5 SHL DUP2 MSTORE PUSH1 0x20 PUSH1 0x4 DUP3 ADD MSTORE PUSH1 0x22 PUSH1 0x24 DUP3 ADD MSTORE PUSH32 0x45524332303A206275726E20616D6F756E7420657863656564732062616C616E PUSH1 0x44 DUP3 ADD MSTORE PUSH2 0x6365 PUSH1 0xF0 SHL PUSH1 0x64 DUP3 ADD MSTORE PUSH1 0x84 ADD PUSH2 0x92F JUMP JUMPDEST PUSH1 0x1 PUSH1 0x1 PUSH1 0xA0 SHL SUB DUP4 AND PUSH1 0x0 SWAP1 DUP2 MSTORE PUSH1 0x20 DUP2 SWAP1 MSTORE PUSH1 0x40 DUP2 KECCAK256 DUP4 DUP4 SUB SWAP1 SSTORE PUSH1 0x2 DUP1 SLOAD DUP5 SWAP3 SWAP1 PUSH2 0x201A SWAP1 DUP5 SWAP1 PUSH2 0x246A JUMP JUMPDEST SWAP1 SWAP2 SSTORE POP POP PUSH1 0x40 MLOAD DUP3 DUP2 MSTORE PUSH1 0x0 SWAP1 PUSH1 0x1 PUSH1 0x1 PUSH1 0xA0 SHL SUB DUP6 AND SWAP1 PUSH32 0xDDF252AD1BE2C89B69C2B068FC378DAA952BA7F163C4A11628F55A4DF523B3EF SWAP1 PUSH1 0x20 ADD PUSH2 0x17F9 JUMP JUMPDEST PUSH1 0x0 PUSH1 0x20 DUP1 DUP4 MSTORE DUP4 MLOAD DUP1 DUP3 DUP6 ADD MSTORE PUSH1 0x0 JUMPDEST DUP2 DUP2 LT ISZERO PUSH2 0x208A JUMPI DUP6 DUP2 ADD DUP4 ADD MLOAD DUP6 DUP3 ADD PUSH1 0x40 ADD MSTORE DUP3 ADD PUSH2 0x206E JUMP JUMPDEST DUP2 DUP2 GT ISZERO PUSH2 0x209C JUMPI PUSH1 0x0 PUSH1 0x40 DUP4 DUP8 ADD ADD MSTORE JUMPDEST POP PUSH1 0x1F ADD PUSH1 0x1F NOT AND SWAP3 SWAP1 SWAP3 ADD PUSH1 0x40 ADD SWAP4 SWAP3 POP POP POP JUMP JUMPDEST PUSH1 0x1 PUSH1 0x1 PUSH1 0xA0 SHL SUB DUP2 AND DUP2 EQ PUSH2 0xF99 JUMPI PUSH1 0x0 DUP1 REVERT JUMPDEST PUSH1 0x0 DUP1 PUSH1 0x40 DUP4 DUP6 SUB SLT ISZERO PUSH2 0x20DA JUMPI PUSH1 0x0 DUP1 REVERT JUMPDEST DUP3 CALLDATALOAD PUSH2 0x20E5 DUP2 PUSH2 0x20B2 JUMP JUMPDEST SWAP5 PUSH1 0x20 SWAP4 SWAP1 SWAP4 ADD CALLDATALOAD SWAP4 POP POP POP JUMP JUMPDEST PUSH1 0x0 DUP1 PUSH1 0x0 PUSH1 0x60 DUP5 DUP7 SUB SLT ISZERO PUSH2 0x2108 JUMPI PUSH1 0x0 DUP1 REVERT JUMPDEST DUP4 CALLDATALOAD PUSH2 0x2113 DUP2 PUSH2 0x20B2 JUMP JUMPDEST SWAP3 POP PUSH1 0x20 DUP5 ADD CALLDATALOAD PUSH2 0x2123 DUP2 PUSH2 0x20B2 JUMP JUMPDEST SWAP3 SWAP6 SWAP3 SWAP5 POP POP POP PUSH1 0x40 SWAP2 SWAP1 SWAP2 ADD CALLDATALOAD SWAP1 JUMP JUMPDEST DUP1 CALLDATALOAD DUP1 ISZERO ISZERO DUP2 EQ PUSH2 0x2144 JUMPI PUSH1 0x0 DUP1 REVERT JUMPDEST SWAP2 SWAP1 POP JUMP JUMPDEST PUSH1 0x0 DUP1 PUSH1 0x40 DUP4 DUP6 SUB SLT ISZERO PUSH2 0x215C JUMPI PUSH1 0x0 DUP1 REVERT JUMPDEST DUP3 CALLDATALOAD PUSH2 0x2167 DUP2 PUSH2 0x20B2 JUMP JUMPDEST SWAP2 POP PUSH2 0x2175 PUSH1 0x20 DUP5 ADD PUSH2 0x2134 JUMP JUMPDEST SWAP1 POP SWAP3 POP SWAP3 SWAP1 POP JUMP JUMPDEST PUSH1 0x0 PUSH1 0x20 DUP3 DUP5 SUB SLT ISZERO PUSH2 0x2190 JUMPI PUSH1 0x0 DUP1 REVERT JUMPDEST POP CALLDATALOAD SWAP2 SWAP1 POP JUMP JUMPDEST PUSH1 0x0 PUSH1 0x20 DUP3 DUP5 SUB SLT ISZERO PUSH2 0x21A9 JUMPI PUSH1 0x0 DUP1 REVERT JUMPDEST DUP2 CALLDATALOAD PUSH2 0xC45 DUP2 PUSH2 0x20B2 JUMP JUMPDEST PUSH1 0x0 DUP1 PUSH1 0x0 PUSH1 0x60 DUP5 DUP7 SUB SLT ISZERO PUSH2 0x21C9 JUMPI PUSH1 0x0 DUP1 REVERT JUMPDEST DUP4 CALLDATALOAD SWAP3 POP PUSH2 0x21D9 PUSH1 0x20 DUP6 ADD PUSH2 0x2134 JUMP JUMPDEST SWAP2 POP PUSH1 0x40 DUP5 ADD CALLDATALOAD SWAP1 POP SWAP3 POP SWAP3 POP SWAP3 JUMP JUMPDEST PUSH1 0x0 DUP1 PUSH1 0x40 DUP4 DUP6 SUB SLT ISZERO PUSH2 0x21FC JUMPI PUSH1 0x0 DUP1 REVERT JUMPDEST DUP3 CALLDATALOAD PUSH2 0x2207 DUP2 PUSH2 0x20B2 JUMP JUMPDEST SWAP2 POP PUSH1 0x20 DUP4 ADD CALLDATALOAD PUSH2 0x2217 DUP2 PUSH2 0x20B2 JUMP JUMPDEST DUP1 SWAP2 POP POP SWAP3 POP SWAP3 SWAP1 POP JUMP JUMPDEST PUSH1 0x1 DUP2 DUP2 SHR SWAP1 DUP3 AND DUP1 PUSH2 0x2236 JUMPI PUSH1 0x7F DUP3 AND SWAP2 POP JUMPDEST PUSH1 0x20 DUP3 LT DUP2 EQ ISZERO PUSH2 0x2257 JUMPI PUSH4 0x4E487B71 PUSH1 0xE0 SHL PUSH1 0x0 MSTORE PUSH1 0x22 PUSH1 0x4 MSTORE PUSH1 0x24 PUSH1 0x0 REVERT JUMPDEST POP SWAP2 SWAP1 POP JUMP JUMPDEST PUSH1 0x20 DUP1 DUP3 MSTORE PUSH1 0x81 SWAP1 DUP3 ADD MSTORE PUSH32 0x596F752068617665206265656E20626C61636B6C69737465642066726F6D2074 PUSH1 0x40 DUP3 ADD MSTORE PUSH32 0x726164696E67207468652043617264696E616C20546F6B656E2E20496620796F PUSH1 0x60 DUP3 ADD MSTORE PUSH32 0x75207468696E6B207468697320697320616E206572726F722C20706C65617365 PUSH1 0x80 DUP3 ADD MSTORE PUSH32 0x20636F6E74616374207468652043617264696E616C20486F757365207465616D PUSH1 0xA0 DUP3 ADD MSTORE PUSH1 0x17 PUSH1 0xF9 SHL PUSH1 0xC0 DUP3 ADD MSTORE PUSH1 0xE0 ADD SWAP1 JUMP JUMPDEST PUSH1 0x20 DUP1 DUP3 MSTORE PUSH1 0xB2 SWAP1 DUP3 ADD MSTORE PUSH32 0x546865206164647265737320796F752061726520747279696E6720746F207365 PUSH1 0x40 DUP3 ADD MSTORE PUSH32 0x6E642043617264696E616C20546F6B656E7320746F20686173206265656E2062 PUSH1 0x60 DUP3 ADD MSTORE PUSH32 0x6C61636B6C69737465642066726F6D2074726164696E67207468652043617264 PUSH1 0x80 DUP3 ADD MSTORE PUSH32 0x696E616C20546F6B656E2E20496620796F75207468696E6B2074686973206973 PUSH1 0xA0 DUP3 ADD MSTORE PUSH32 0x20616E206572726F722C20706C6561736520636F6E7461637420746865204361 PUSH1 0xC0 DUP3 ADD MSTORE PUSH18 0x393234B730B6102437BAB9B2903A32B0B697 PUSH1 0x71 SHL PUSH1 0xE0 DUP3 ADD MSTORE PUSH2 0x100 ADD SWAP1 JUMP JUMPDEST PUSH4 0x4E487B71 PUSH1 0xE0 SHL PUSH1 0x0 MSTORE PUSH1 0x11 PUSH1 0x4 MSTORE PUSH1 0x24 PUSH1 0x0 REVERT JUMPDEST PUSH1 0x0 DUP2 PUSH1 0x0 NOT DIV DUP4 GT DUP3 ISZERO ISZERO AND ISZERO PUSH2 0x242B JUMPI PUSH2 0x242B PUSH2 0x23FB JUMP JUMPDEST POP MUL SWAP1 JUMP JUMPDEST PUSH1 0x0 DUP3 PUSH2 0x244D JUMPI PUSH4 0x4E487B71 PUSH1 0xE0 SHL PUSH1 0x0 MSTORE PUSH1 0x12 PUSH1 0x4 MSTORE PUSH1 0x24 PUSH1 0x0 REVERT JUMPDEST POP DIV SWAP1 JUMP JUMPDEST PUSH1 0x0 DUP3 NOT DUP3 GT ISZERO PUSH2 0x2465 JUMPI PUSH2 0x2465 PUSH2 0x23FB JUMP JUMPDEST POP ADD SWAP1 JUMP JUMPDEST PUSH1 0x0 DUP3 DUP3 LT ISZERO PUSH2 0x247C JUMPI PUSH2 0x247C PUSH2 0x23FB JUMP JUMPDEST POP SUB SWAP1 JUMP JUMPDEST PUSH1 0x20 DUP1 DUP3 MSTORE DUP2 DUP2 ADD MSTORE PUSH32 0x4F776E61626C653A2063616C6C6572206973206E6F7420746865206F776E6572 PUSH1 0x40 DUP3 ADD MSTORE PUSH1 0x60 ADD SWAP1 JUMP JUMPDEST PUSH4 0x4E487B71 PUSH1 0xE0 SHL PUSH1 0x0 MSTORE PUSH1 0x32 PUSH1 0x4 MSTORE PUSH1 0x24 PUSH1 0x0 REVERT JUMPDEST PUSH1 0x0 PUSH1 0x20 DUP3 DUP5 SUB SLT ISZERO PUSH2 0x24DE JUMPI PUSH1 0x0 DUP1 REVERT JUMPDEST DUP2 MLOAD PUSH2 0xC45 DUP2 PUSH2 0x20B2 JUMP JUMPDEST PUSH1 0x0 PUSH1 0xA0 DUP3 ADD DUP8 DUP4 MSTORE PUSH1 0x20 DUP8 DUP2 DUP6 ADD MSTORE PUSH1 0xA0 PUSH1 0x40 DUP6 ADD MSTORE DUP2 DUP8 MLOAD DUP1 DUP5 MSTORE PUSH1 0xC0 DUP7 ADD SWAP2 POP DUP3 DUP10 ADD SWAP4 POP PUSH1 0x0 JUMPDEST DUP2 DUP2 LT ISZERO PUSH2 0x2539 JUMPI DUP5 MLOAD PUSH1 0x1 PUSH1 0x1 PUSH1 0xA0 SHL SUB AND DUP4 MSTORE SWAP4 DUP4 ADD SWAP4 SWAP2 DUP4 ADD SWAP2 PUSH1 0x1 ADD PUSH2 0x2514 JUMP JUMPDEST POP POP PUSH1 0x1 PUSH1 0x1 PUSH1 0xA0 SHL SUB SWAP7 SWAP1 SWAP7 AND PUSH1 0x60 DUP6 ADD MSTORE POP POP POP PUSH1 0x80 ADD MSTORE SWAP4 SWAP3 POP POP POP JUMP INVALID LOG2 PUSH5 0x6970667358 0x22 SLT KECCAK256 PUSH21 0x5C018BA15F17D13E512D133D9CAF6E70ECB4AC85E4 0x2E 0xE4 0x4E DUP8 OR PUSH11 0x2E88D4EF64736F6C634300 ADDMOD ADDMOD STOP CALLER ",
  "sha1": "c769c77a60df87096c7e8e86495a0e47f217dcf3",
  "source": "// SPDX-License-Identifier: MIT\n \npragma solidity 0.8.8;\n \nimport \"@openzeppelin/contracts/token/ERC20/ERC20.sol\";\nimport \"@openzeppelin/contracts/access/Ownable.sol\";\nimport \"../interfaces/Uniswap.sol\";\n\n/**\n * @title Cardinal House Token\n * @dev Token contract for the Cardinal House ecosystem currency\n */\ncontract CardinalToken is ERC20, Ownable {\n\n    // Mapping to exclude some contracts from fees. Transfers are excluded from fees if address in this mapping is recipient or sender.\n    mapping (address => bool) public excludedFromFees;\n\n    // Blacklist mapping to prevent addresses from trading if necessary (i.e. flagged for malicious activity).\n    mapping (address => bool) public blacklist;\n\n    // Mapping to determine which addresses can mint Cardinal Tokens for bridging.\n    mapping (address => bool) public minters;\n\n    // Mapping to determine which addresses are pair addresses.\n    mapping (address => bool) public pairAddresses;\n\n    // Address of the contract for burning Cardinal Tokens.\n    address public burnWalletAddress;\n\n    // Liquidity wallet address used to hold 30% of the Cardinal Tokens for the liquidity pool.\n    // After these tokens are moved to the DEX, this address will no longer be used.\n    address public liquidityWalletAddress;\n\n    // Address of the Cardinal Token presale contract.\n    address public preSaleAddress;\n\n    // Wallet address used for the Cardinal Token member giveaways.\n    address payable public memberGiveawayWalletAddress;\n\n    // Marketing wallet address used for funding marketing.\n    address payable public marketingWalletAddress;\n\n    // Developer wallet address used for funding the team.\n    address payable public developerWalletAddress;\n\n    // The DEX router address for swapping Cardinal Tokens for Matic.\n    address public uniswapRouterAddress;\n\n    // Member giveaway transaction fee - deployed at 2%.\n    uint256 public memberGiveawayFeePercent = 2;\n\n    // Marketing transaction fee - deployed at 2%.\n    uint256 public marketingFeePercent = 2;\n\n    // Developer team transaction fee - deployed at 1%.\n    uint256 public developerFeePercent = 1;\n\n    // DEX router interface.\n    IUniswapV2Router02 private uniswapRouter;\n\n    // Address of the Matic to Cardinal Token pair on the DEX.\n    address public uniswapPair;\n\n    // Determines how many Cardinal Tokens this contract needs before it swaps for Matic to pay fee wallets.\n    uint256 public contractTokenDivisor = 1000;\n\n    // Events to emit when the transaction fees are updated or transaction fee tokens are sold and dispersed\n    event memberGiveawayTransactionFeeUpdated(uint256 indexed transactionFeeAmount);\n    event marketingTransactionFeeUpdated(uint256 indexed transactionFeeAmount);\n    event developerTransactionFeeUpdated(uint256 indexed transactionFeeAmount);\n    event transactionFeesSwappedForMatic(uint256 indexed cardinalTokenAmount, uint256 indexed maticAmount);\n    event transactionFeeMaticDispersed(uint256 indexed marketingFee, uint256 indexed developerFee);\n\n    // Initial token distribution:\n    // 35% - Pre-sale\n    // 35% - Liquidity pool (6 month lockup period)\n    // 10% - Marketing\n    // 20% - Developer coins (6 month lockup period)\n    constructor(\n        uint256 initialSupply,\n        address _preSaleAddress, \n        address _burnWalletAddress,\n        address _liquidityWalletAddress,\n        address payable _memberGiveawayWalletAddress,\n        address payable _marketingWalletAddress,\n        address payable _developerWalletAddress,\n        address _uniswapRouterAddress) ERC20(\"CardinalToken\", \"CRNL\") {\n            preSaleAddress = _preSaleAddress;\n            memberGiveawayWalletAddress = _memberGiveawayWalletAddress;\n            burnWalletAddress = _burnWalletAddress;\n            liquidityWalletAddress = _liquidityWalletAddress;\n            marketingWalletAddress = _marketingWalletAddress;\n            developerWalletAddress = _developerWalletAddress;\n            uniswapRouterAddress = _uniswapRouterAddress;\n\n            excludedFromFees[memberGiveawayWalletAddress] = true;\n            excludedFromFees[developerWalletAddress] = true;\n            excludedFromFees[marketingWalletAddress] = true;\n            excludedFromFees[liquidityWalletAddress] = true;\n            excludedFromFees[preSaleAddress] = true;\n\n            _mint(preSaleAddress, ((initialSupply) * 35 / 100));\n            _mint(liquidityWalletAddress, ((initialSupply) * 35 / 100));\n            _mint(marketingWalletAddress, initialSupply / 10);\n            _mint(developerWalletAddress, initialSupply / 5);\n\n            IUniswapV2Router02 _uniswapV2Router = IUniswapV2Router02(uniswapRouterAddress);\n            uniswapRouter = _uniswapV2Router;\n            _approve(address(this), address(uniswapRouter), initialSupply);\n            uniswapPair = IUniswapV2Factory(_uniswapV2Router.factory()).createPair(address(this), _uniswapV2Router.WETH());\n            IERC20(uniswapPair).approve(address(uniswapRouter), type(uint256).max);\n\n            pairAddresses[uniswapPair] = true;\n    }\n\n    /**\n     * @dev Returns the contract address\n     * @return contract address\n     */\n    function getContractAddress() external view returns (address){\n        return address(this);\n    }\n\n    /**\n    * @dev Adds a user to be excluded from fees.\n    * @param user address of the user to be excluded from fees.\n     */\n    function excludeUserFromFees(address user) external onlyOwner {\n        excludedFromFees[user] = true;\n    }\n\n    /**\n    * @dev Gets the current timestamp, used for testing + verification\n    * @return the the timestamp of the current block\n     */\n    function getCurrentTimestamp() external view returns (uint256) {\n        return block.timestamp;\n    }\n\n    /**\n    * @dev Removes a user from the fee exclusion.\n    * @param user address of the user than will now have to pay transaction fees.\n     */\n    function includeUsersInFees(address user) external onlyOwner {\n        excludedFromFees[user] = false;\n    }\n\n    /**\n     * @dev Overrides the BEP20 transfer function to include transaction fees.\n     * @param recipient the recipient of the transfer\n     * @param amount the amount to be transfered\n     * @return bool representing if the transfer was successful\n     */\n    function transfer(address recipient, uint256 amount) public override returns (bool) {\n        // Ensure the sender isn't blacklisted.\n        require(!blacklist[_msgSender()], \"You have been blacklisted from trading the Cardinal Token. If you think this is an error, please contact the Cardinal House team.\");\n        // Ensure the recipient isn't blacklisted.\n        require(!blacklist[recipient], \"The address you are trying to send Cardinal Tokens to has been blacklisted from trading the Cardinal Token. If you think this is an error, please contact the Cardinal House team.\");\n\n        // Stops investors from owning more than 5% of the total supply from purchasing Cardinal Tokens from the DEX.\n        if (pairAddresses[_msgSender()] && !excludedFromFees[_msgSender()] && !excludedFromFees[recipient]) {\n            require((balanceOf(recipient) + amount) < (totalSupply() / 20), \"You can't have more than 5% of the total Cardinal Token supply after a DEX swap.\");\n        }\n\n        // If the sender or recipient is excluded from fees, perform the default transfer.\n        if (excludedFromFees[_msgSender()] || excludedFromFees[recipient]) {\n            _transfer(_msgSender(), recipient, amount);\n            return true;\n        }\n\n        // Member giveaway transaction fee.\n        uint256 memberGiveawayFee = (amount * memberGiveawayFeePercent) / 100;\n        // Marketing team transaction fee.\n        uint256 marketingFee = (amount * marketingFeePercent) / 100;\n        // Developer team transaction fee.\n        uint256 developerFee = (amount * developerFeePercent) / 100;\n\n        // The total fee to send to the contract address (marketing + development).\n        uint256 contractFee = marketingFee + developerFee;\n \n        // Sends the transaction fees to the giveaway wallet and contract address\n        _transfer(_msgSender(), memberGiveawayWalletAddress, memberGiveawayFee);\n        _transfer(_msgSender(), address(this), contractFee);\n \n        // Sends [initial amount] - [fees] to the recipient\n        uint256 valueAfterFees = amount - contractFee - memberGiveawayFee;\n        _transfer(_msgSender(), recipient, valueAfterFees);\n\n        uint256 contractCardinalTokenBalance = balanceOf(address(this));\n\n        if (!pairAddresses[_msgSender()]) {\n            if (contractCardinalTokenBalance > balanceOf(uniswapPair) / contractTokenDivisor) {\n                swapCardinalTokensForMatic(contractCardinalTokenBalance, 0);\n            }\n                \n            uint256 contractMaticBalance = address(this).balance;\n            if (contractMaticBalance > 0) {\n                sendFeesToWallets(address(this).balance);\n            }\n        }\n\n        return true;\n    }\n\n    /**\n     * @dev Overrides the BEP20 transferFrom function to include transaction fees.\n     * @param from the address from where the tokens are coming from\n     * @param to the recipient of the transfer\n     * @param amount the amount to be transfered\n     * @return bool representing if the transfer was successful\n     */\n    function transferFrom(address from, address to, uint256 amount) public override returns (bool) {\n        // Ensure the sender isn't blacklisted.\n        require(!blacklist[_msgSender()], \"You have been blacklisted from trading the Cardinal Token. If you think this is an error, please contact the Cardinal House team.\");\n        // Ensure the address where the tokens are coming from isn't blacklisted.\n        require(!blacklist[from], \"The address you're trying to spend the Cardinal Tokens from has been blacklisted from trading the Cardinal Token. If you think this is an error, please contact the Cardinal House team.\");\n        // Ensure the recipient isn't blacklisted.\n        require(!blacklist[to], \"The address you are trying to send Cardinal Tokens to has been blacklisted from trading the Cardinal Token. If you think this is an error, please contact the Cardinal House team.\");\n\n        // If the from address or to address is excluded from fees, perform the default transferFrom.\n        if (excludedFromFees[from] || excludedFromFees[to] || excludedFromFees[_msgSender()]) {\n            _spendAllowance(from, _msgSender(), amount);\n            _transfer(from, to, amount);\n            return true;\n        }\n\n        // Member giveaway transaction fee.\n        uint256 memberGiveawayFee = (amount * memberGiveawayFeePercent) / 100;\n        // Marketing team transaction fee.\n        uint256 marketingFee = (amount * marketingFeePercent) / 100;\n        // Developer team transaction fee.\n        uint256 developerFee = (amount * developerFeePercent) / 100;\n\n        // The total fee to send to the contract address (marketing + development).\n        uint256 contractFee = marketingFee + developerFee;\n \n        // Sends the transaction fees to the giveaway wallet and contract address\n        _spendAllowance(from, _msgSender(), amount);\n        _transfer(from, memberGiveawayWalletAddress, memberGiveawayFee);\n        _transfer(from, address(this), contractFee);\n \n        // Sends [initial amount] - [fees] to the recipient\n        uint256 valueAfterFees = amount - contractFee - memberGiveawayFee;\n        _transfer(from, to, valueAfterFees);\n\n        uint256 contractCardinalTokenBalance = balanceOf(address(this));\n\n        if (!pairAddresses[_msgSender()]) {\n            if (contractCardinalTokenBalance > balanceOf(uniswapPair) / contractTokenDivisor) {\n                swapCardinalTokensForMatic(contractCardinalTokenBalance, 0);\n            }\n                \n            uint256 contractMaticBalance = address(this).balance;\n            if (contractMaticBalance > 0) {\n                sendFeesToWallets(address(this).balance);\n            }\n        }\n\n        return true;\n    }\n\n    /**\n     * @dev Swaps Cardinal Tokens from transaction fees to Matic.\n     * @param amount the amount of Cardinal Tokens to swap\n     * @param minimumAmountOut the minimum amount of Matic to receive from the swap \n     */\n    function swapCardinalTokensForMatic(uint256 amount, uint256 minimumAmountOut) private {\n        address[] memory path = new address[](2);\n        path[0] = address(this);\n        path[1] = uniswapRouter.WETH();\n        _approve(address(this), address(uniswapRouter), amount);\n        uniswapRouter.swapExactTokensForETHSupportingFeeOnTransferTokens(\n            amount,\n            minimumAmountOut,\n            path,\n            address(this),\n            block.timestamp\n        );\n\n        emit transactionFeesSwappedForMatic(amount, address(this).balance);\n    }\n\n    /**\n     * @dev Sends Matic to transaction fee wallets after Cardinal Token swaps.\n     * @param amount the amount to be transfered\n     */\n    function sendFeesToWallets(uint256 amount) private {\n        uint256 totalFee = marketingFeePercent + developerFeePercent;\n        uint256 marketingFee = (amount * marketingFeePercent) / totalFee;\n        uint256 developerFee = (amount * developerFeePercent) / totalFee;\n\n        (bool marketingSuccess, ) = marketingWalletAddress.call{value: marketingFee}(\"\");\n        require(marketingSuccess, \"Failed to send Matic to marketing address\");\n        (bool developerSuccess, ) = developerWalletAddress.call{value: developerFee}(\"\");\n        require(developerSuccess, \"Failed to send Matic to developer address\");\n\n        emit transactionFeeMaticDispersed(marketingFee, developerFee);\n    }\n\n    /**\n     * @dev Sends Matic to transaction fee wallets manually as opposed to happening automatically after a certain level of volume\n     */\n    function disperseFeesManually() external onlyOwner {\n        uint256 contractMaticBalance = address(this).balance;\n        sendFeesToWallets(contractMaticBalance);\n    }\n\n    /**\n     * @dev Swaps all Cardinal Tokens in the contract for Matic and then disperses those funds to the transaction fee wallets.\n     * @param amount the amount of Cardinal Tokens in the contract to swap for Matic\n     * @param useAmount boolean to determine if the amount sent in is swapped for Matic or if the entire contract balance is swapped\n     * @param minimumAmountOut the minimum Matic output for the Cardinal Token swap\n     */\n    function swapCardinalTokensForMaticManually(uint256 amount, bool useAmount, uint256 minimumAmountOut) external onlyOwner {\n        if (useAmount) {\n            swapCardinalTokensForMatic(amount, minimumAmountOut);\n        }\n        else {\n            uint256 contractCardinalTokenBalance = balanceOf(address(this));\n            swapCardinalTokensForMatic(contractCardinalTokenBalance, minimumAmountOut);\n        }\n\n        uint256 contractMaticBalance = address(this).balance;\n        sendFeesToWallets(contractMaticBalance);\n    }\n\n    receive() external payable {}\n\n    /**\n     * @dev Sets the value that determines how many Cardinal Tokens need to be in the contract before it's swapped for Matic.\n     * @param newDivisor the new divisor value to determine the swap threshold\n     */\n    function setContractTokenDivisor(uint256 newDivisor) external onlyOwner {\n        contractTokenDivisor = newDivisor;\n    }\n\n    /**\n    * @dev Updates the blacklist mapping for a given address\n    * @param user the address that is being added or removed from the blacklist\n    * @param blacklisted a boolean that determines if the given address is being added or removed from the blacklist\n    */\n    function updateBlackList(address user, bool blacklisted) external onlyOwner {\n        blacklist[user] = blacklisted;\n    }\n\n    /**\n    * @dev Function to update the member giveaway transaction fee - can't be more than 5 percent\n    * @param newMemberGiveawayTransactionFee the new member giveaway transaction fee\n    */\n    function updateMemberGiveawayTransactionFee(uint256 newMemberGiveawayTransactionFee) external onlyOwner {\n        require(newMemberGiveawayTransactionFee <= 5, \"The member giveaway transaction fee can't be more than 5%.\");\n        memberGiveawayFeePercent = newMemberGiveawayTransactionFee;\n        emit memberGiveawayTransactionFeeUpdated(newMemberGiveawayTransactionFee);\n    }\n\n    /**\n    * @dev Function to update the marketing transaction fee - can't be more than 5 percent\n    * @param newMarketingTransactionFee the new marketing transaction fee\n    */\n    function updateMarketingTransactionFee(uint256 newMarketingTransactionFee) external onlyOwner {\n        require(newMarketingTransactionFee <= 5, \"The marketing transaction fee can't be more than 5%.\");\n        marketingFeePercent = newMarketingTransactionFee;\n        emit marketingTransactionFeeUpdated(newMarketingTransactionFee);\n    }\n\n    /**\n    * @dev Function to update the developer transaction fee - can't be more than 5 percent\n    * @param newDeveloperTransactionFee the new developer transaction fee\n    */\n    function updateDeveloperTransactionFee(uint256 newDeveloperTransactionFee) external onlyOwner {\n        require(newDeveloperTransactionFee <= 5, \"The developer transaction fee can't be more than 5%.\");\n        developerFeePercent = newDeveloperTransactionFee;\n        emit developerTransactionFeeUpdated(newDeveloperTransactionFee);\n    }\n\n    /**\n    * @dev Only owner function to add/remove an address as a pair address.\n    * @param pairAddr the pair address to either add or remove as a pair\n    * @param isPairAddress boolean to determine if the address is now a pair or no longer a pair\n    */\n    function addOrRemovePairAddress(address pairAddr, bool isPairAddress) external onlyOwner {\n        pairAddresses[pairAddr] = isPairAddress;\n    }\n\n    /**\n    * @dev Function to add or remove a Cardinal Token minter\n    * @param user the address that will be added or removed as a minter\n    * @param isMinter boolean representing if the address provided will be added or removed as a minter\n    */\n    function updateMinter(address user, bool isMinter) external onlyOwner {\n        minters[user] = isMinter;\n    }\n\n    /**\n    * @dev Minter only function to mint new Cardinal Tokens for bridging ONLY\n    * @param user the address that the tokens will be minted to\n    * @param amount the amount of tokens to be minted to the user\n    */\n    function mint(address user, uint256 amount) external {\n        require(minters[_msgSender()], \"You are not authorized to mint Cardinal Tokens.\");\n        _mint(user, amount);\n    }\n\n    /**\n    * @dev Minter only function to burn Cardinal Tokens for bridging and deflation upon service purchases with the Cardinal Token ONLY\n    * @param user the address to burn the tokens from\n    * @param amount the amount of tokens to be burned\n    */\n    function burn(address user, uint256 amount) external {\n        require(minters[_msgSender()], \"You are not authorized to burn Cardinal Tokens.\");\n        _burn(user, amount);\n    }\n}",
  "sourcePath": "contracts/CardinalToken.sol",
  "type": "contract"
}