{
  "abi": [
    {
      "inputs": [
        {
          "internalType": "address payable",
          "name": "CardinalTokenAddress",
          "type": "address"
        }
      ],
      "stateMutability": "nonpayable",
      "type": "constructor"
    },
    {
      "anonymous": false,
      "inputs": [
        {
          "indexed": true,
          "internalType": "uint256",
          "name": "itemId",
          "type": "uint256"
        },
        {
          "indexed": true,
          "internalType": "address",
          "name": "nftContract",
          "type": "address"
        },
        {
          "indexed": true,
          "internalType": "uint256",
          "name": "tokenId",
          "type": "uint256"
        },
        {
          "indexed": false,
          "internalType": "address",
          "name": "seller",
          "type": "address"
        },
        {
          "indexed": false,
          "internalType": "address",
          "name": "owner",
          "type": "address"
        },
        {
          "indexed": false,
          "internalType": "uint256",
          "name": "price",
          "type": "uint256"
        },
        {
          "indexed": false,
          "internalType": "bool",
          "name": "sold",
          "type": "bool"
        },
        {
          "indexed": false,
          "internalType": "string",
          "name": "tokenURI",
          "type": "string"
        },
        {
          "indexed": false,
          "internalType": "uint256",
          "name": "listingPrice",
          "type": "uint256"
        }
      ],
      "name": "MarketItemCreated",
      "type": "event"
    },
    {
      "anonymous": false,
      "inputs": [
        {
          "indexed": true,
          "internalType": "uint256",
          "name": "itemId",
          "type": "uint256"
        },
        {
          "indexed": true,
          "internalType": "address",
          "name": "nftContract",
          "type": "address"
        },
        {
          "indexed": true,
          "internalType": "uint256",
          "name": "tokenId",
          "type": "uint256"
        },
        {
          "indexed": false,
          "internalType": "address",
          "name": "seller",
          "type": "address"
        },
        {
          "indexed": false,
          "internalType": "address",
          "name": "owner",
          "type": "address"
        },
        {
          "indexed": false,
          "internalType": "uint256",
          "name": "price",
          "type": "uint256"
        },
        {
          "indexed": false,
          "internalType": "bool",
          "name": "sold",
          "type": "bool"
        },
        {
          "indexed": false,
          "internalType": "string",
          "name": "tokenURI",
          "type": "string"
        },
        {
          "indexed": false,
          "internalType": "uint256",
          "name": "listingPrice",
          "type": "uint256"
        }
      ],
      "name": "MarketItemSaleCanceled",
      "type": "event"
    },
    {
      "anonymous": false,
      "inputs": [
        {
          "indexed": true,
          "internalType": "uint256",
          "name": "itemId",
          "type": "uint256"
        },
        {
          "indexed": true,
          "internalType": "address",
          "name": "nftContract",
          "type": "address"
        },
        {
          "indexed": true,
          "internalType": "uint256",
          "name": "tokenId",
          "type": "uint256"
        },
        {
          "indexed": false,
          "internalType": "address",
          "name": "seller",
          "type": "address"
        },
        {
          "indexed": false,
          "internalType": "address",
          "name": "owner",
          "type": "address"
        },
        {
          "indexed": false,
          "internalType": "uint256",
          "name": "price",
          "type": "uint256"
        },
        {
          "indexed": false,
          "internalType": "bool",
          "name": "sold",
          "type": "bool"
        },
        {
          "indexed": false,
          "internalType": "string",
          "name": "tokenURI",
          "type": "string"
        },
        {
          "indexed": false,
          "internalType": "uint256",
          "name": "listingPrice",
          "type": "uint256"
        }
      ],
      "name": "MarketItemSold",
      "type": "event"
    },
    {
      "anonymous": false,
      "inputs": [
        {
          "indexed": true,
          "internalType": "address",
          "name": "previousOwner",
          "type": "address"
        },
        {
          "indexed": true,
          "internalType": "address",
          "name": "newOwner",
          "type": "address"
        }
      ],
      "name": "OwnershipTransferred",
      "type": "event"
    },
    {
      "anonymous": false,
      "inputs": [
        {
          "indexed": true,
          "internalType": "uint256",
          "name": "newDefaultListingPrice",
          "type": "uint256"
        }
      ],
      "name": "defaultListingpriceUpdated",
      "type": "event"
    },
    {
      "inputs": [],
      "name": "_itemIds",
      "outputs": [
        {
          "internalType": "uint256",
          "name": "_value",
          "type": "uint256"
        }
      ],
      "stateMutability": "view",
      "type": "function"
    },
    {
      "inputs": [],
      "name": "_itemsSold",
      "outputs": [
        {
          "internalType": "uint256",
          "name": "_value",
          "type": "uint256"
        }
      ],
      "stateMutability": "view",
      "type": "function"
    },
    {
      "inputs": [
        {
          "internalType": "address",
          "name": "",
          "type": "address"
        }
      ],
      "name": "addressToPreviousNFTAddress",
      "outputs": [
        {
          "internalType": "bool",
          "name": "",
          "type": "bool"
        }
      ],
      "stateMutability": "view",
      "type": "function"
    },
    {
      "inputs": [
        {
          "internalType": "address",
          "name": "",
          "type": "address"
        }
      ],
      "name": "blacklist",
      "outputs": [
        {
          "internalType": "bool",
          "name": "",
          "type": "bool"
        }
      ],
      "stateMutability": "view",
      "type": "function"
    },
    {
      "inputs": [
        {
          "internalType": "address",
          "name": "nftContract",
          "type": "address"
        },
        {
          "internalType": "uint256",
          "name": "itemId",
          "type": "uint256"
        }
      ],
      "name": "cancelMarketSale",
      "outputs": [],
      "stateMutability": "nonpayable",
      "type": "function"
    },
    {
      "inputs": [],
      "name": "cardinalNFT",
      "outputs": [
        {
          "internalType": "contract CardinalNFT",
          "name": "",
          "type": "address"
        }
      ],
      "stateMutability": "view",
      "type": "function"
    },
    {
      "inputs": [],
      "name": "cardinalToken",
      "outputs": [
        {
          "internalType": "contract CardinalToken",
          "name": "",
          "type": "address"
        }
      ],
      "stateMutability": "view",
      "type": "function"
    },
    {
      "inputs": [
        {
          "internalType": "address",
          "name": "nftContract",
          "type": "address"
        },
        {
          "internalType": "uint256",
          "name": "tokenId",
          "type": "uint256"
        },
        {
          "internalType": "uint256",
          "name": "price",
          "type": "uint256"
        }
      ],
      "name": "createMarketItem",
      "outputs": [],
      "stateMutability": "payable",
      "type": "function"
    },
    {
      "inputs": [
        {
          "internalType": "address",
          "name": "nftContract",
          "type": "address"
        },
        {
          "internalType": "uint256",
          "name": "itemId",
          "type": "uint256"
        },
        {
          "internalType": "uint256",
          "name": "amountIn",
          "type": "uint256"
        }
      ],
      "name": "createMarketSale",
      "outputs": [],
      "stateMutability": "nonpayable",
      "type": "function"
    },
    {
      "inputs": [
        {
          "internalType": "address",
          "name": "user",
          "type": "address"
        }
      ],
      "name": "fetchItemsCreated",
      "outputs": [
        {
          "components": [
            {
              "internalType": "uint256",
              "name": "itemId",
              "type": "uint256"
            },
            {
              "internalType": "address",
              "name": "nftContract",
              "type": "address"
            },
            {
              "internalType": "uint256",
              "name": "tokenId",
              "type": "uint256"
            },
            {
              "internalType": "address payable",
              "name": "seller",
              "type": "address"
            },
            {
              "internalType": "address payable",
              "name": "owner",
              "type": "address"
            },
            {
              "internalType": "uint256",
              "name": "price",
              "type": "uint256"
            },
            {
              "internalType": "bool",
              "name": "sold",
              "type": "bool"
            },
            {
              "internalType": "string",
              "name": "tokenURI",
              "type": "string"
            },
            {
              "internalType": "uint256",
              "name": "listingPrice",
              "type": "uint256"
            }
          ],
          "internalType": "struct CardinalHouseMarketplace.MarketItem[]",
          "name": "",
          "type": "tuple[]"
        }
      ],
      "stateMutability": "view",
      "type": "function"
    },
    {
      "inputs": [],
      "name": "fetchMarketItems",
      "outputs": [
        {
          "components": [
            {
              "internalType": "uint256",
              "name": "itemId",
              "type": "uint256"
            },
            {
              "internalType": "address",
              "name": "nftContract",
              "type": "address"
            },
            {
              "internalType": "uint256",
              "name": "tokenId",
              "type": "uint256"
            },
            {
              "internalType": "address payable",
              "name": "seller",
              "type": "address"
            },
            {
              "internalType": "address payable",
              "name": "owner",
              "type": "address"
            },
            {
              "internalType": "uint256",
              "name": "price",
              "type": "uint256"
            },
            {
              "internalType": "bool",
              "name": "sold",
              "type": "bool"
            },
            {
              "internalType": "string",
              "name": "tokenURI",
              "type": "string"
            },
            {
              "internalType": "uint256",
              "name": "listingPrice",
              "type": "uint256"
            }
          ],
          "internalType": "struct CardinalHouseMarketplace.MarketItem[]",
          "name": "",
          "type": "tuple[]"
        }
      ],
      "stateMutability": "view",
      "type": "function"
    },
    {
      "inputs": [
        {
          "internalType": "address",
          "name": "user",
          "type": "address"
        }
      ],
      "name": "fetchMyNFTs",
      "outputs": [
        {
          "components": [
            {
              "internalType": "uint256",
              "name": "itemId",
              "type": "uint256"
            },
            {
              "internalType": "address",
              "name": "nftContract",
              "type": "address"
            },
            {
              "internalType": "uint256",
              "name": "tokenId",
              "type": "uint256"
            },
            {
              "internalType": "address payable",
              "name": "seller",
              "type": "address"
            },
            {
              "internalType": "address payable",
              "name": "owner",
              "type": "address"
            },
            {
              "internalType": "uint256",
              "name": "price",
              "type": "uint256"
            },
            {
              "internalType": "bool",
              "name": "sold",
              "type": "bool"
            },
            {
              "internalType": "string",
              "name": "tokenURI",
              "type": "string"
            },
            {
              "internalType": "uint256",
              "name": "listingPrice",
              "type": "uint256"
            }
          ],
          "internalType": "struct CardinalHouseMarketplace.MarketItem[]",
          "name": "",
          "type": "tuple[]"
        }
      ],
      "stateMutability": "view",
      "type": "function"
    },
    {
      "inputs": [
        {
          "internalType": "address",
          "name": "user",
          "type": "address"
        }
      ],
      "name": "fetchUnsoldItemsCreated",
      "outputs": [
        {
          "components": [
            {
              "internalType": "uint256",
              "name": "itemId",
              "type": "uint256"
            },
            {
              "internalType": "address",
              "name": "nftContract",
              "type": "address"
            },
            {
              "internalType": "uint256",
              "name": "tokenId",
              "type": "uint256"
            },
            {
              "internalType": "address payable",
              "name": "seller",
              "type": "address"
            },
            {
              "internalType": "address payable",
              "name": "owner",
              "type": "address"
            },
            {
              "internalType": "uint256",
              "name": "price",
              "type": "uint256"
            },
            {
              "internalType": "bool",
              "name": "sold",
              "type": "bool"
            },
            {
              "internalType": "string",
              "name": "tokenURI",
              "type": "string"
            },
            {
              "internalType": "uint256",
              "name": "listingPrice",
              "type": "uint256"
            }
          ],
          "internalType": "struct CardinalHouseMarketplace.MarketItem[]",
          "name": "",
          "type": "tuple[]"
        }
      ],
      "stateMutability": "view",
      "type": "function"
    },
    {
      "inputs": [],
      "name": "getDefaultListingPrice",
      "outputs": [
        {
          "internalType": "uint256",
          "name": "",
          "type": "uint256"
        }
      ],
      "stateMutability": "view",
      "type": "function"
    },
    {
      "inputs": [
        {
          "internalType": "uint256",
          "name": "",
          "type": "uint256"
        }
      ],
      "name": "idToMarketItem",
      "outputs": [
        {
          "internalType": "uint256",
          "name": "itemId",
          "type": "uint256"
        },
        {
          "internalType": "address",
          "name": "nftContract",
          "type": "address"
        },
        {
          "internalType": "uint256",
          "name": "tokenId",
          "type": "uint256"
        },
        {
          "internalType": "address payable",
          "name": "seller",
          "type": "address"
        },
        {
          "internalType": "address payable",
          "name": "owner",
          "type": "address"
        },
        {
          "internalType": "uint256",
          "name": "price",
          "type": "uint256"
        },
        {
          "internalType": "bool",
          "name": "sold",
          "type": "bool"
        },
        {
          "internalType": "string",
          "name": "tokenURI",
          "type": "string"
        },
        {
          "internalType": "uint256",
          "name": "listingPrice",
          "type": "uint256"
        }
      ],
      "stateMutability": "view",
      "type": "function"
    },
    {
      "inputs": [],
      "name": "owner",
      "outputs": [
        {
          "internalType": "address",
          "name": "",
          "type": "address"
        }
      ],
      "stateMutability": "view",
      "type": "function"
    },
    {
      "inputs": [],
      "name": "renounceOwnership",
      "outputs": [],
      "stateMutability": "nonpayable",
      "type": "function"
    },
    {
      "inputs": [
        {
          "internalType": "address payable",
          "name": "CardinalNFTAddress",
          "type": "address"
        }
      ],
      "name": "setCardinalNFT",
      "outputs": [],
      "stateMutability": "nonpayable",
      "type": "function"
    },
    {
      "inputs": [
        {
          "internalType": "address payable",
          "name": "CardinalTokenAddress",
          "type": "address"
        }
      ],
      "name": "setCardinalToken",
      "outputs": [],
      "stateMutability": "nonpayable",
      "type": "function"
    },
    {
      "inputs": [
        {
          "internalType": "uint256",
          "name": "newDefaultListingPrice",
          "type": "uint256"
        }
      ],
      "name": "setDefaultListingPrice",
      "outputs": [],
      "stateMutability": "nonpayable",
      "type": "function"
    },
    {
      "inputs": [
        {
          "internalType": "address",
          "name": "newOwner",
          "type": "address"
        }
      ],
      "name": "transferOwnership",
      "outputs": [],
      "stateMutability": "nonpayable",
      "type": "function"
    },
    {
      "inputs": [
        {
          "internalType": "address",
          "name": "user",
          "type": "address"
        },
        {
          "internalType": "bool",
          "name": "blacklisted",
          "type": "bool"
        }
      ],
      "name": "updateBlackList",
      "outputs": [],
      "stateMutability": "nonpayable",
      "type": "function"
    }
  ],
  "bytecode": "608060405260006004553480156200001657600080fd5b50604051620028dc380380620028dc8339810160408190526200003991620000c1565b600160005562000049336200006f565b600880546001600160a01b0319166001600160a01b0392909216919091179055620000f3565b600180546001600160a01b038381166001600160a01b0319831681179093556040519116919082907f8be0079c531659141344cd1fd0a4f28419497f9722a3daafe3b4186f6b6457e090600090a35050565b600060208284031215620000d457600080fd5b81516001600160a01b0381168114620000ec57600080fd5b9392505050565b6127d980620001036000396000f3fe6080604052600436106101355760003560e01c8063a19dbca9116100ab578063c98f56e01161006f578063c98f56e014610352578063d2793d4a14610372578063e61a70c014610392578063f2fde38b146103c7578063f9f92be4146103e7578063fc2eb8891461041757600080fd5b8063a19dbca91461029d578063bbf63a82146102bd578063bef03f40146102fd578063bf7aa81714610312578063c83384561461033257600080fd5b806326219784116100fd57806326219784146101fb57806334a7f1931461021b57806358eb2df514610240578063715018a61461025357806387506a0d146102685780638da5cb5b1461027f57600080fd5b80630e1bac891461013a5780630f08efe01461017757806310afee1e146101995780631dd9cf86146101b957806321cf91ac146101db575b600080fd5b34801561014657600080fd5b5060085461015a906001600160a01b031681565b6040516001600160a01b0390911681526020015b60405180910390f35b34801561018357600080fd5b5061018c610437565b60405161016e91906121c1565b3480156101a557600080fd5b5061018c6101b43660046122ac565b610665565b3480156101c557600080fd5b506101d96101d43660046122d0565b6108ed565b005b3480156101e757600080fd5b506101d96101f63660046122fc565b610cba565b34801561020757600080fd5b506101d9610216366004612331565b611284565b34801561022757600080fd5b506002546102329081565b60405190815260200161016e565b6101d961024e3660046122fc565b6112e1565b34801561025f57600080fd5b506101d96117fa565b34801561027457600080fd5b506003546102329081565b34801561028b57600080fd5b506001546001600160a01b031661015a565b3480156102a957600080fd5b5061018c6102b83660046122ac565b611830565b3480156102c957600080fd5b506102ed6102d83660046122ac565b60066020526000908152604090205460ff1681565b604051901515815260200161016e565b34801561030957600080fd5b50600454610232565b34801561031e57600080fd5b506101d961032d3660046122ac565b611b0c565b34801561033e57600080fd5b5061018c61034d3660046122ac565b611b70565b34801561035e57600080fd5b5060095461015a906001600160a01b031681565b34801561037e57600080fd5b506101d961038d3660046122ac565b611dee565b34801561039e57600080fd5b506103b26103ad366004612331565b611e3a565b60405161016e9998979695949392919061234a565b3480156103d357600080fd5b506101d96103e23660046122ac565b611f21565b3480156103f357600080fd5b506102ed6104023660046122ac565b60076020526000908152604090205460ff1681565b34801561042357600080fd5b506101d96104323660046123c1565b611fbc565b6060600061044460025490565b9050600061045160035490565b60025461045e9190612410565b90506000808267ffffffffffffffff81111561047c5761047c612427565b6040519080825280602002602001820160405280156104b557816020015b6104a2612063565b81526020019060019003908161049a5790505b50905060005b8481101561065c5760006005816104d384600161243d565b81526020810191909152604001600020600401546001600160a01b0316141561064a57600061050382600161243d565b6000818152600560208181526040928390208351610120810185528154815260018201546001600160a01b0390811693820193909352600282015494810194909452600381015482166060850152600481015490911660808401529081015460a0830152600681015460ff16151560c08301526007810180549394509092839160e084019161059190612455565b80601f01602080910402602001604051908101604052809291908181526020018280546105bd90612455565b801561060a5780601f106105df5761010080835404028352916020019161060a565b820191906000526020600020905b8154815290600101906020018083116105ed57829003601f168201915b5050505050815260200160088201548152505084868151811061062f5761062f612490565b602090810291909101015261064560018661243d565b945050505b80610654816124a6565b9150506104bb565b50949350505050565b6060600061067260025490565b905060008060005b838110156106de576001600160a01b0386166005600061069b84600161243d565b81526020810191909152604001600020600401546001600160a01b031614156106cc576106c960018461243d565b92505b806106d6816124a6565b91505061067a565b5060008267ffffffffffffffff8111156106fa576106fa612427565b60405190808252806020026020018201604052801561073357816020015b610720612063565b8152602001906001900390816107185790505b50905060005b848110156108e3576001600160a01b0387166005600061075a84600161243d565b81526020810191909152604001600020600401546001600160a01b031614156108d157600061078a82600161243d565b6000818152600560208181526040928390208351610120810185528154815260018201546001600160a01b0390811693820193909352600282015494810194909452600381015482166060850152600481015490911660808401529081015460a0830152600681015460ff16151560c08301526007810180549394509092839160e084019161081890612455565b80601f016020809104026020016040519081016040528092919081815260200182805461084490612455565b80156108915780601f1061086657610100808354040283529160200191610891565b820191906000526020600020905b81548152906001019060200180831161087457829003601f168201915b505050505081526020016008820154815250508486815181106108b6576108b6612490565b60209081029190910101526108cc60018661243d565b945050505b806108db816124a6565b915050610739565b5095945050505050565b600260005414156109195760405162461bcd60e51b8152600401610910906124c1565b60405180910390fd5b600260009081556001600160a01b03831681526006602052604090205460ff166109555760405162461bcd60e51b8152600401610910906124f8565b3360009081526007602052604090205460ff16156109855760405162461bcd60e51b815260040161091090612541565b60008181526005602052604090206002810154600382015460069092015490916001600160a01b03169060ff16338214806109ca57506001546001600160a01b031633145b610a295760405162461bcd60e51b815260206004820152602a60248201527f596f752063616e206f6e6c792063616e63656c20796f7572206f776e204e4654604482015269103634b9ba34b733b99760b11b6064820152608401610910565b8015610a775760405162461bcd60e51b815260206004820152601f60248201527f54686973204e46542068617320616c7265616479206265656e20736f6c642e006044820152606401610910565b600084815260056020526040908190206003810154600480830180546001600160a01b0319166001600160a01b039384169081179091556006909301805460ff1916600117905592516323b872dd60e01b8152908816926323b872dd92610ae29230928991016125fc565b600060405180830381600087803b158015610afc57600080fd5b505af1158015610b10573d6000803e3d6000fd5b50505050610b22600380546001019055565b6001546000858152600560205260409020600301546001600160a01b03908116911614801590610b62575060008481526005602052604090206008015415155b15610bb757600084815260056020526040808220600381015460089091015491516001600160a01b039091169282156108fc02929190818181858888f19350505050158015610bb5573d6000803e3d6000fd5b505b82856001600160a01b0316857f7c64fc67c3f33c94bbf66820a3d6d66b8e634e35d459088f821722e9fffd141c8586600560008b81526020019081526020016000206005015460018c6001600160a01b031663c87b56dd8c6040518263ffffffff1660e01b8152600401610c2d91815260200190565b60006040518083038186803b158015610c4557600080fd5b505afa158015610c59573d6000803e3d6000fd5b505050506040513d6000823e601f3d908101601f19168201604052610c819190810190612620565b60008d81526005602052604090819020600801549051610ca6969594939291906126cd565b60405180910390a450506001600055505050565b60026000541415610cdd5760405162461bcd60e51b8152600401610910906124c1565b600260009081556001600160a01b03841681526006602052604090205460ff16610d195760405162461bcd60e51b8152600401610910906124f8565b3360009081526007602052604090205460ff1615610d495760405162461bcd60e51b815260040161091090612541565b60008281526005602052604090206006015460ff1615610dc05760405162461bcd60e51b815260206004820152602c60248201527f54686973206d61726b6574706c616365206974656d2068617320616c7265616460448201526b3c903132b2b71039b7b6321760a11b6064820152608401610910565b600082815260056020526040808220600201546009549151632e11d33d60e11b8152600481018290529092916001600160a01b031690635c23a67a9060240160206040518083038186803b158015610e1757600080fd5b505afa158015610e2b573d6000803e3d6000fd5b505050506040513d601f19601f82011682018060405250810190610e4f919061271b565b6001600160a01b031614158015610e8557506001546000848152600560205260409020600301546001600160a01b039081169116145b15610fb257600954604051632e11d33d60e11b8152600481018390526001600160a01b0390911690635c23a67a9060240160206040518083038186803b158015610ece57600080fd5b505afa158015610ee2573d6000803e3d6000fd5b505050506040513d601f19601f82011682018060405250810190610f06919061271b565b6001600160a01b0316336001600160a01b031614610fb25760405162461bcd60e51b815260206004820152606060248201527f54686973204e465420686173206265656e2061737369676e656420746f20736f60448201527f6d656f6e65207468726f75676820612057686974656c6973742073706f742e2060648201527f4f6e6c7920746865792063616e2070757263686173652074686973204e46542e608482015260a401610910565b600083815260056020819052604090912001548281146110445760405162461bcd60e51b815260206004820152604160248201527f506c65617365207375626d6974207468652061736b696e67207072696365206960448201527f6e206f7264657220746f20636f6d706c657465207468652070757263686173656064820152601760f91b608482015260a401610910565b600854600085815260056020526040908190206003015490516323b872dd60e01b81526001600160a01b03928316926323b872dd9261108d9233929091169088906004016125fc565b602060405180830381600087803b1580156110a757600080fd5b505af11580156110bb573d6000803e3d6000fd5b505050506040513d601f19601f820116820180604052508101906110df9190612738565b5060008481526005602052604090819020600480820180546001600160a01b031916339081179091556006909201805460ff1916600117905591516323b872dd60e01b81526001600160a01b038816926323b872dd926111439230928891016125fc565b600060405180830381600087803b15801561115d57600080fd5b505af1158015611171573d6000803e3d6000fd5b50505050611183600380546001019055565b6001546000858152600560205260409020600301546001600160a01b039081169116148015906111c3575060008481526005602052604090206008015415155b15611212576001546000858152600560205260408082206008015490516001600160a01b03909316926108fc82150292818181858888f19350505050158015611210573d6000803e3d6000fd5b505b6000848152600560205260409081902060030154905163c87b56dd60e01b81526004810184905283916001600160a01b038881169288927fdd1c25ac5de7f977206f7b452d3c80f1d5fad10fc101f39eb38e0281fd6a90d292169033908790600190879063c87b56dd90602401610c2d565b6001546001600160a01b031633146112ae5760405162461bcd60e51b815260040161091090612755565b600481905560405181907f12fc75ec7fe6b490edaaeb8de0a54b52fa263b3582e125faedf92c863054bb7490600090a250565b600260005414156113045760405162461bcd60e51b8152600401610910906124c1565b600260009081556001600160a01b03841681526006602052604090205460ff166113405760405162461bcd60e51b8152600401610910906124f8565b3360009081526007602052604090205460ff16156113705760405162461bcd60e51b815260040161091090612541565b600081116113ce5760405162461bcd60e51b815260206004820152602560248201527f546865204e4654207072696365206d757374206265206174206c656173742031604482015264103bb2b49760d91b6064820152608401610910565b600954604051632c18f25560e21b8152600481018490526000916001600160a01b03169063b063c9549060240160206040518083038186803b15801561141357600080fd5b505afa158015611427573d6000803e3d6000fd5b505050506040513d601f19601f8201168201806040525081019061144b919061278a565b90508061145757506004545b6001546001600160a01b031633148015906114725750600081115b156114fb578034146114f65760405162461bcd60e51b815260206004820152604160248201527f4e6f7420656e6f756768206f7220746f6f206d756368204d617469632077617360448201527f2073656e7420746f2070617920746865204e4654206c697374696e67206665656064820152601760f91b608482015260a401610910565b61153c565b801561153c576001546040516001600160a01b03909116903480156108fc02916000818181858888f1935050505015801561153a573d6000803e3d6000fd5b505b61154a600280546001019055565b600061155560025490565b60408051610120810182528281526001600160a01b0388166020820181905281830188905233606083015260006080830181905260a0830188905260c0830152915163c87b56dd60e01b8152600481018890529293509160e08301919063c87b56dd9060240160006040518083038186803b1580156115d357600080fd5b505afa1580156115e7573d6000803e3d6000fd5b505050506040513d6000823e601f3d908101601f1916820160405261160f9190810190612620565b815260209081018490526000838152600580835260409182902084518155848401516001820180546001600160a01b03199081166001600160a01b039384161790915593860151600283015560608601516003830180548616918316919091179055608086015160048301805490951691161790925560a08401519082015560c083015160068201805460ff191691151591909117905560e0830151805191926116c1926007850192909101906120cc565b5061010091909101516008909101556040516323b872dd60e01b81526001600160a01b038616906323b872dd90611700903390309089906004016125fc565b600060405180830381600087803b15801561171a57600080fd5b505af115801561172e573d6000803e3d6000fd5b5050505083856001600160a01b0316827f6c15a92ebb9812d705e0cd41f7adc24557a1927802269ba3e56095be799bd6b03360008860008c6001600160a01b031663c87b56dd8d6040518263ffffffff1660e01b815260040161179391815260200190565b60006040518083038186803b1580156117ab57600080fd5b505afa1580156117bf573d6000803e3d6000fd5b505050506040513d6000823e601f3d908101601f191682016040526117e79190810190612620565b8a604051610ca6969594939291906126cd565b6001546001600160a01b031633146118245760405162461bcd60e51b815260040161091090612755565b61182e6000612011565b565b6060600061183d60025490565b905060008060005b838110156118d8576001600160a01b0386166005600061186684600161243d565b81526020810191909152604001600020600301546001600160a01b03161480156118b357506005600061189a83600161243d565b815260208101919091526040016000206006015460ff16155b156118c6576118c360018461243d565b92505b806118d0816124a6565b915050611845565b5060008267ffffffffffffffff8111156118f4576118f4612427565b60405190808252806020026020018201604052801561192d57816020015b61191a612063565b8152602001906001900390816119125790505b50905060005b848110156108e3576001600160a01b0387166005600061195484600161243d565b81526020810191909152604001600020600301546001600160a01b03161480156119a157506005600061198883600161243d565b815260208101919091526040016000206006015460ff16155b15611afa5760006119b382600161243d565b6000818152600560208181526040928390208351610120810185528154815260018201546001600160a01b0390811693820193909352600282015494810194909452600381015482166060850152600481015490911660808401529081015460a0830152600681015460ff16151560c08301526007810180549394509092839160e0840191611a4190612455565b80601f0160208091040260200160405190810160405280929190818152602001828054611a6d90612455565b8015611aba5780601f10611a8f57610100808354040283529160200191611aba565b820191906000526020600020905b815481529060010190602001808311611a9d57829003601f168201915b50505050508152602001600882015481525050848681518110611adf57611adf612490565b6020908102919091010152611af560018661243d565b945050505b80611b04816124a6565b915050611933565b6001546001600160a01b03163314611b365760405162461bcd60e51b815260040161091090612755565b600980546001600160a01b039092166001600160a01b0319909216821790556000908152600660205260409020805460ff19166001179055565b60606000611b7d60025490565b905060008060005b83811015611be9576001600160a01b03861660056000611ba684600161243d565b81526020810191909152604001600020600301546001600160a01b03161415611bd757611bd460018461243d565b92505b80611be1816124a6565b915050611b85565b5060008267ffffffffffffffff811115611c0557611c05612427565b604051908082528060200260200182016040528015611c3e57816020015b611c2b612063565b815260200190600190039081611c235790505b50905060005b848110156108e3576001600160a01b03871660056000611c6584600161243d565b81526020810191909152604001600020600301546001600160a01b03161415611ddc576000611c9582600161243d565b6000818152600560208181526040928390208351610120810185528154815260018201546001600160a01b0390811693820193909352600282015494810194909452600381015482166060850152600481015490911660808401529081015460a0830152600681015460ff16151560c08301526007810180549394509092839160e0840191611d2390612455565b80601f0160208091040260200160405190810160405280929190818152602001828054611d4f90612455565b8015611d9c5780601f10611d7157610100808354040283529160200191611d9c565b820191906000526020600020905b815481529060010190602001808311611d7f57829003601f168201915b50505050508152602001600882015481525050848681518110611dc157611dc1612490565b6020908102919091010152611dd760018661243d565b945050505b80611de6816124a6565b915050611c44565b6001546001600160a01b03163314611e185760405162461bcd60e51b815260040161091090612755565b600880546001600160a01b0319166001600160a01b0392909216919091179055565b60056020819052600091825260409091208054600182015460028301546003840154600485015495850154600686015460078701805496986001600160a01b03968716989597948716961694929360ff9092169291611e9890612455565b80601f0160208091040260200160405190810160405280929190818152602001828054611ec490612455565b8015611f115780601f10611ee657610100808354040283529160200191611f11565b820191906000526020600020905b815481529060010190602001808311611ef457829003601f168201915b5050505050908060080154905089565b6001546001600160a01b03163314611f4b5760405162461bcd60e51b815260040161091090612755565b6001600160a01b038116611fb05760405162461bcd60e51b815260206004820152602660248201527f4f776e61626c653a206e6577206f776e657220697320746865207a65726f206160448201526564647265737360d01b6064820152608401610910565b611fb981612011565b50565b6001546001600160a01b03163314611fe65760405162461bcd60e51b815260040161091090612755565b6001600160a01b03919091166000908152600760205260409020805460ff1916911515919091179055565b600180546001600160a01b038381166001600160a01b0319831681179093556040519116919082907f8be0079c531659141344cd1fd0a4f28419497f9722a3daafe3b4186f6b6457e090600090a35050565b6040518061012001604052806000815260200160006001600160a01b031681526020016000815260200160006001600160a01b0316815260200160006001600160a01b031681526020016000815260200160001515815260200160608152602001600081525090565b8280546120d890612455565b90600052602060002090601f0160209004810192826120fa5760008555612140565b82601f1061211357805160ff1916838001178555612140565b82800160010185558215612140579182015b82811115612140578251825591602001919060010190612125565b5061214c929150612150565b5090565b5b8082111561214c5760008155600101612151565b60005b83811015612180578181015183820152602001612168565b8381111561218f576000848401525b50505050565b600081518084526121ad816020860160208601612165565b601f01601f19169290920160200192915050565b60006020808301818452808551808352604092508286019150828160051b87010184880160005b8381101561228957603f19898403018552815180518452878101516001600160a01b039081168986015287820151888601526060808301518216908601526080808301519091169085015260a0808201519085015260c08082015115159085015260e080820151610120828701819052919061226683880182612195565b6101009485015197909401969096525050948701949250908601906001016121e8565b509098975050505050505050565b6001600160a01b0381168114611fb957600080fd5b6000602082840312156122be57600080fd5b81356122c981612297565b9392505050565b600080604083850312156122e357600080fd5b82356122ee81612297565b946020939093013593505050565b60008060006060848603121561231157600080fd5b833561231c81612297565b95602085013595506040909401359392505050565b60006020828403121561234357600080fd5b5035919050565b8981526001600160a01b0389811660208301526040820189905287811660608301528616608082015260a0810185905283151560c082015261012060e0820181905260009061239b83820186612195565b915050826101008301529a9950505050505050505050565b8015158114611fb957600080fd5b600080604083850312156123d457600080fd5b82356123df81612297565b915060208301356123ef816123b3565b809150509250929050565b634e487b7160e01b600052601160045260246000fd5b600082821015612422576124226123fa565b500390565b634e487b7160e01b600052604160045260246000fd5b60008219821115612450576124506123fa565b500190565b600181811c9082168061246957607f821691505b6020821081141561248a57634e487b7160e01b600052602260045260246000fd5b50919050565b634e487b7160e01b600052603260045260246000fd5b60006000198214156124ba576124ba6123fa565b5060010190565b6020808252601f908201527f5265656e7472616e637947756172643a207265656e7472616e742063616c6c00604082015260600190565b60208082526029908201527f546869732069736e277420612076616c69642043617264696e616c204e46542060408201526831b7b73a3930b1ba1760b91b606082015260800190565b60208082526089908201527f596f752068617665206265656e20626c61636b6c69737465642066726f6d207460408201527f68652043617264696e616c20486f757365204e4654206d61726b6574706c616360608201527f652e20496620796f75207468696e6b207468697320697320616e206572726f7260808201527f2c20706c6561736520636f6e74616374207468652043617264696e616c20486f60a0820152683ab9b2903a32b0b69760b91b60c082015260e00190565b6001600160a01b039384168152919092166020820152604081019190915260600190565b60006020828403121561263257600080fd5b815167ffffffffffffffff8082111561264a57600080fd5b818401915084601f83011261265e57600080fd5b81518181111561267057612670612427565b604051601f8201601f19908116603f0116810190838211818310171561269857612698612427565b816040528281528760208487010111156126b157600080fd5b6126c2836020830160208801612165565b979650505050505050565b6001600160a01b0387811682528616602082015260408101859052831515606082015260c06080820181905260009061270890830185612195565b90508260a0830152979650505050505050565b60006020828403121561272d57600080fd5b81516122c981612297565b60006020828403121561274a57600080fd5b81516122c9816123b3565b6020808252818101527f4f776e61626c653a2063616c6c6572206973206e6f7420746865206f776e6572604082015260600190565b60006020828403121561279c57600080fd5b505191905056fea26469706673582212202d16c1853b1ad30f3a84b9c4ef6dd6bb1a68dd06084822a2f076a52779d772cc64736f6c63430008080033",
  "bytecodeSha1": "7541b0a86ea4780ee38387e0e232f9f3148aa134",
  "compiler": {
    "evm_version": "istanbul",
    "optimizer": {
      "enabled": true,
      "runs": 200
    },
    "version": "0.8.8+commit.dddeac2f"
  },
  "contractName": "CardinalHouseMarketplace",
  "language": "Solidity",
  "natspec": {
    "details": "NFT marketplace contract that users will interact with on the Cardinal House website",
    "kind": "dev",
    "methods": {
      "cancelMarketSale(address,uint256)": {
        "details": "Cancels an NFT listing on the marketplace and returns the listing fee to the seller",
        "params": {
          "itemId": "the item ID of the NFT on the marketplace",
          "nftContract": "contract that the NFT was minted on. Only accepts Cardinal NFT contract addresses"
        }
      },
      "createMarketItem(address,uint256,uint256)": {
        "details": "Function to list a Cardinal NFT on the marketplace",
        "params": {
          "nftContract": "contract that the NFT was minted on. Only accepts Cardinal NFT contract addresses",
          "price": "the price of the token in Cardinal Tokens (CRNL)",
          "tokenId": "the token ID of the NFT on the NFT contract"
        }
      },
      "createMarketSale(address,uint256,uint256)": {
        "details": "Creates the sale of a marketplace item. Transfers ownership of the NFT and sends funds to the seller",
        "params": {
          "amountIn": "the amount of Cardinal Token the user is supplying to purchase the NFT",
          "itemId": "the item ID of the NFT on the marketplace",
          "nftContract": "contract that the NFT was minted on. Only accepts Cardinal NFT contract addresses"
        }
      },
      "fetchItemsCreated(address)": {
        "details": "Returns only items a user has created",
        "params": {
          "user": "the user to fetch the items created for"
        },
        "returns": {
          "_0": "the list of market items the user has put on the market"
        }
      },
      "fetchMarketItems()": {
        "details": "Returns all unsold market items",
        "returns": {
          "_0": "the list of market items that haven't been sold"
        }
      },
      "fetchMyNFTs(address)": {
        "details": "Returns only items that a user has purchased",
        "params": {
          "user": "the user to fetch the NFTs for"
        },
        "returns": {
          "_0": "the list of market items the user owners"
        }
      },
      "fetchUnsoldItemsCreated(address)": {
        "details": "Returns only items a user has created that are currently for sale",
        "params": {
          "user": "the user to fetch the unsold market items for"
        },
        "returns": {
          "_0": "the list of market items the user has put on the market that are currently for sale"
        }
      },
      "getDefaultListingPrice()": {
        "details": "Gets the listing price for listing an NFT on the marketplace",
        "returns": {
          "_0": "the current listing price"
        }
      },
      "owner()": {
        "details": "Returns the address of the current owner."
      },
      "renounceOwnership()": {
        "details": "Leaves the contract without owner. It will not be possible to call `onlyOwner` functions anymore. Can only be called by the current owner. NOTE: Renouncing ownership will leave the contract without an owner, thereby removing any functionality that is only available to the owner."
      },
      "setCardinalNFT(address)": {
        "details": "Only owner function to set the reference to the Cardinal NFT contract",
        "params": {
          "CardinalNFTAddress": "the address for the Cardinal NFT contract"
        }
      },
      "setCardinalToken(address)": {
        "details": "Only owner function to set the reference to the Cardinal Token (CRNL)",
        "params": {
          "CardinalTokenAddress": "the contract address for the Cardinal Token"
        }
      },
      "setDefaultListingPrice(uint256)": {
        "details": "Only owner function to set the listing price",
        "params": {
          "newDefaultListingPrice": "the new default listing price"
        }
      },
      "transferOwnership(address)": {
        "details": "Transfers ownership of the contract to a new account (`newOwner`). Can only be called by the current owner."
      },
      "updateBlackList(address,bool)": {
        "details": "Updates the blacklist mapping for a given address",
        "params": {
          "blacklisted": "a boolean that determines if the given address is being added or removed from the blacklist",
          "user": "the address that is being added or removed from the blacklist"
        }
      }
    },
    "title": "Cardinal House NFT Marketplace Contract",
    "version": 1
  },
  "opcodes": "PUSH1 0x80 PUSH1 0x40 MSTORE PUSH1 0x4 CALLDATASIZE LT PUSH2 0x135 JUMPI PUSH1 0x0 CALLDATALOAD PUSH1 0xE0 SHR DUP1 PUSH4 0xA19DBCA9 GT PUSH2 0xAB JUMPI DUP1 PUSH4 0xC98F56E0 GT PUSH2 0x6F JUMPI DUP1 PUSH4 0xC98F56E0 EQ PUSH2 0x352 JUMPI DUP1 PUSH4 0xD2793D4A EQ PUSH2 0x372 JUMPI DUP1 PUSH4 0xE61A70C0 EQ PUSH2 0x392 JUMPI DUP1 PUSH4 0xF2FDE38B EQ PUSH2 0x3C7 JUMPI DUP1 PUSH4 0xF9F92BE4 EQ PUSH2 0x3E7 JUMPI DUP1 PUSH4 0xFC2EB889 EQ PUSH2 0x417 JUMPI PUSH1 0x0 DUP1 REVERT JUMPDEST DUP1 PUSH4 0xA19DBCA9 EQ PUSH2 0x29D JUMPI DUP1 PUSH4 0xBBF63A82 EQ PUSH2 0x2BD JUMPI DUP1 PUSH4 0xBEF03F40 EQ PUSH2 0x2FD JUMPI DUP1 PUSH4 0xBF7AA817 EQ PUSH2 0x312 JUMPI DUP1 PUSH4 0xC8338456 EQ PUSH2 0x332 JUMPI PUSH1 0x0 DUP1 REVERT JUMPDEST DUP1 PUSH4 0x26219784 GT PUSH2 0xFD JUMPI DUP1 PUSH4 0x26219784 EQ PUSH2 0x1FB JUMPI DUP1 PUSH4 0x34A7F193 EQ PUSH2 0x21B JUMPI DUP1 PUSH4 0x58EB2DF5 EQ PUSH2 0x240 JUMPI DUP1 PUSH4 0x715018A6 EQ PUSH2 0x253 JUMPI DUP1 PUSH4 0x87506A0D EQ PUSH2 0x268 JUMPI DUP1 PUSH4 0x8DA5CB5B EQ PUSH2 0x27F JUMPI PUSH1 0x0 DUP1 REVERT JUMPDEST DUP1 PUSH4 0xE1BAC89 EQ PUSH2 0x13A JUMPI DUP1 PUSH4 0xF08EFE0 EQ PUSH2 0x177 JUMPI DUP1 PUSH4 0x10AFEE1E EQ PUSH2 0x199 JUMPI DUP1 PUSH4 0x1DD9CF86 EQ PUSH2 0x1B9 JUMPI DUP1 PUSH4 0x21CF91AC EQ PUSH2 0x1DB JUMPI JUMPDEST PUSH1 0x0 DUP1 REVERT JUMPDEST CALLVALUE DUP1 ISZERO PUSH2 0x146 JUMPI PUSH1 0x0 DUP1 REVERT JUMPDEST POP PUSH1 0x8 SLOAD PUSH2 0x15A SWAP1 PUSH1 0x1 PUSH1 0x1 PUSH1 0xA0 SHL SUB AND DUP2 JUMP JUMPDEST PUSH1 0x40 MLOAD PUSH1 0x1 PUSH1 0x1 PUSH1 0xA0 SHL SUB SWAP1 SWAP2 AND DUP2 MSTORE PUSH1 0x20 ADD JUMPDEST PUSH1 0x40 MLOAD DUP1 SWAP2 SUB SWAP1 RETURN JUMPDEST CALLVALUE DUP1 ISZERO PUSH2 0x183 JUMPI PUSH1 0x0 DUP1 REVERT JUMPDEST POP PUSH2 0x18C PUSH2 0x437 JUMP JUMPDEST PUSH1 0x40 MLOAD PUSH2 0x16E SWAP2 SWAP1 PUSH2 0x21C1 JUMP JUMPDEST CALLVALUE DUP1 ISZERO PUSH2 0x1A5 JUMPI PUSH1 0x0 DUP1 REVERT JUMPDEST POP PUSH2 0x18C PUSH2 0x1B4 CALLDATASIZE PUSH1 0x4 PUSH2 0x22AC JUMP JUMPDEST PUSH2 0x665 JUMP JUMPDEST CALLVALUE DUP1 ISZERO PUSH2 0x1C5 JUMPI PUSH1 0x0 DUP1 REVERT JUMPDEST POP PUSH2 0x1D9 PUSH2 0x1D4 CALLDATASIZE PUSH1 0x4 PUSH2 0x22D0 JUMP JUMPDEST PUSH2 0x8ED JUMP JUMPDEST STOP JUMPDEST CALLVALUE DUP1 ISZERO PUSH2 0x1E7 JUMPI PUSH1 0x0 DUP1 REVERT JUMPDEST POP PUSH2 0x1D9 PUSH2 0x1F6 CALLDATASIZE PUSH1 0x4 PUSH2 0x22FC JUMP JUMPDEST PUSH2 0xCBA JUMP JUMPDEST CALLVALUE DUP1 ISZERO PUSH2 0x207 JUMPI PUSH1 0x0 DUP1 REVERT JUMPDEST POP PUSH2 0x1D9 PUSH2 0x216 CALLDATASIZE PUSH1 0x4 PUSH2 0x2331 JUMP JUMPDEST PUSH2 0x1284 JUMP JUMPDEST CALLVALUE DUP1 ISZERO PUSH2 0x227 JUMPI PUSH1 0x0 DUP1 REVERT JUMPDEST POP PUSH1 0x2 SLOAD PUSH2 0x232 SWAP1 DUP2 JUMP JUMPDEST PUSH1 0x40 MLOAD SWAP1 DUP2 MSTORE PUSH1 0x20 ADD PUSH2 0x16E JUMP JUMPDEST PUSH2 0x1D9 PUSH2 0x24E CALLDATASIZE PUSH1 0x4 PUSH2 0x22FC JUMP JUMPDEST PUSH2 0x12E1 JUMP JUMPDEST CALLVALUE DUP1 ISZERO PUSH2 0x25F JUMPI PUSH1 0x0 DUP1 REVERT JUMPDEST POP PUSH2 0x1D9 PUSH2 0x17FA JUMP JUMPDEST CALLVALUE DUP1 ISZERO PUSH2 0x274 JUMPI PUSH1 0x0 DUP1 REVERT JUMPDEST POP PUSH1 0x3 SLOAD PUSH2 0x232 SWAP1 DUP2 JUMP JUMPDEST CALLVALUE DUP1 ISZERO PUSH2 0x28B JUMPI PUSH1 0x0 DUP1 REVERT JUMPDEST POP PUSH1 0x1 SLOAD PUSH1 0x1 PUSH1 0x1 PUSH1 0xA0 SHL SUB AND PUSH2 0x15A JUMP JUMPDEST CALLVALUE DUP1 ISZERO PUSH2 0x2A9 JUMPI PUSH1 0x0 DUP1 REVERT JUMPDEST POP PUSH2 0x18C PUSH2 0x2B8 CALLDATASIZE PUSH1 0x4 PUSH2 0x22AC JUMP JUMPDEST PUSH2 0x1830 JUMP JUMPDEST CALLVALUE DUP1 ISZERO PUSH2 0x2C9 JUMPI PUSH1 0x0 DUP1 REVERT JUMPDEST POP PUSH2 0x2ED PUSH2 0x2D8 CALLDATASIZE PUSH1 0x4 PUSH2 0x22AC JUMP JUMPDEST PUSH1 0x6 PUSH1 0x20 MSTORE PUSH1 0x0 SWAP1 DUP2 MSTORE PUSH1 0x40 SWAP1 KECCAK256 SLOAD PUSH1 0xFF AND DUP2 JUMP JUMPDEST PUSH1 0x40 MLOAD SWAP1 ISZERO ISZERO DUP2 MSTORE PUSH1 0x20 ADD PUSH2 0x16E JUMP JUMPDEST CALLVALUE DUP1 ISZERO PUSH2 0x309 JUMPI PUSH1 0x0 DUP1 REVERT JUMPDEST POP PUSH1 0x4 SLOAD PUSH2 0x232 JUMP JUMPDEST CALLVALUE DUP1 ISZERO PUSH2 0x31E JUMPI PUSH1 0x0 DUP1 REVERT JUMPDEST POP PUSH2 0x1D9 PUSH2 0x32D CALLDATASIZE PUSH1 0x4 PUSH2 0x22AC JUMP JUMPDEST PUSH2 0x1B0C JUMP JUMPDEST CALLVALUE DUP1 ISZERO PUSH2 0x33E JUMPI PUSH1 0x0 DUP1 REVERT JUMPDEST POP PUSH2 0x18C PUSH2 0x34D CALLDATASIZE PUSH1 0x4 PUSH2 0x22AC JUMP JUMPDEST PUSH2 0x1B70 JUMP JUMPDEST CALLVALUE DUP1 ISZERO PUSH2 0x35E JUMPI PUSH1 0x0 DUP1 REVERT JUMPDEST POP PUSH1 0x9 SLOAD PUSH2 0x15A SWAP1 PUSH1 0x1 PUSH1 0x1 PUSH1 0xA0 SHL SUB AND DUP2 JUMP JUMPDEST CALLVALUE DUP1 ISZERO PUSH2 0x37E JUMPI PUSH1 0x0 DUP1 REVERT JUMPDEST POP PUSH2 0x1D9 PUSH2 0x38D CALLDATASIZE PUSH1 0x4 PUSH2 0x22AC JUMP JUMPDEST PUSH2 0x1DEE JUMP JUMPDEST CALLVALUE DUP1 ISZERO PUSH2 0x39E JUMPI PUSH1 0x0 DUP1 REVERT JUMPDEST POP PUSH2 0x3B2 PUSH2 0x3AD CALLDATASIZE PUSH1 0x4 PUSH2 0x2331 JUMP JUMPDEST PUSH2 0x1E3A JUMP JUMPDEST PUSH1 0x40 MLOAD PUSH2 0x16E SWAP10 SWAP9 SWAP8 SWAP7 SWAP6 SWAP5 SWAP4 SWAP3 SWAP2 SWAP1 PUSH2 0x234A JUMP JUMPDEST CALLVALUE DUP1 ISZERO PUSH2 0x3D3 JUMPI PUSH1 0x0 DUP1 REVERT JUMPDEST POP PUSH2 0x1D9 PUSH2 0x3E2 CALLDATASIZE PUSH1 0x4 PUSH2 0x22AC JUMP JUMPDEST PUSH2 0x1F21 JUMP JUMPDEST CALLVALUE DUP1 ISZERO PUSH2 0x3F3 JUMPI PUSH1 0x0 DUP1 REVERT JUMPDEST POP PUSH2 0x2ED PUSH2 0x402 CALLDATASIZE PUSH1 0x4 PUSH2 0x22AC JUMP JUMPDEST PUSH1 0x7 PUSH1 0x20 MSTORE PUSH1 0x0 SWAP1 DUP2 MSTORE PUSH1 0x40 SWAP1 KECCAK256 SLOAD PUSH1 0xFF AND DUP2 JUMP JUMPDEST CALLVALUE DUP1 ISZERO PUSH2 0x423 JUMPI PUSH1 0x0 DUP1 REVERT JUMPDEST POP PUSH2 0x1D9 PUSH2 0x432 CALLDATASIZE PUSH1 0x4 PUSH2 0x23C1 JUMP JUMPDEST PUSH2 0x1FBC JUMP JUMPDEST PUSH1 0x60 PUSH1 0x0 PUSH2 0x444 PUSH1 0x2 SLOAD SWAP1 JUMP JUMPDEST SWAP1 POP PUSH1 0x0 PUSH2 0x451 PUSH1 0x3 SLOAD SWAP1 JUMP JUMPDEST PUSH1 0x2 SLOAD PUSH2 0x45E SWAP2 SWAP1 PUSH2 0x2410 JUMP JUMPDEST SWAP1 POP PUSH1 0x0 DUP1 DUP3 PUSH8 0xFFFFFFFFFFFFFFFF DUP2 GT ISZERO PUSH2 0x47C JUMPI PUSH2 0x47C PUSH2 0x2427 JUMP JUMPDEST PUSH1 0x40 MLOAD SWAP1 DUP1 DUP3 MSTORE DUP1 PUSH1 0x20 MUL PUSH1 0x20 ADD DUP3 ADD PUSH1 0x40 MSTORE DUP1 ISZERO PUSH2 0x4B5 JUMPI DUP2 PUSH1 0x20 ADD JUMPDEST PUSH2 0x4A2 PUSH2 0x2063 JUMP JUMPDEST DUP2 MSTORE PUSH1 0x20 ADD SWAP1 PUSH1 0x1 SWAP1 SUB SWAP1 DUP2 PUSH2 0x49A JUMPI SWAP1 POP JUMPDEST POP SWAP1 POP PUSH1 0x0 JUMPDEST DUP5 DUP2 LT ISZERO PUSH2 0x65C JUMPI PUSH1 0x0 PUSH1 0x5 DUP2 PUSH2 0x4D3 DUP5 PUSH1 0x1 PUSH2 0x243D JUMP JUMPDEST DUP2 MSTORE PUSH1 0x20 DUP2 ADD SWAP2 SWAP1 SWAP2 MSTORE PUSH1 0x40 ADD PUSH1 0x0 KECCAK256 PUSH1 0x4 ADD SLOAD PUSH1 0x1 PUSH1 0x1 PUSH1 0xA0 SHL SUB AND EQ ISZERO PUSH2 0x64A JUMPI PUSH1 0x0 PUSH2 0x503 DUP3 PUSH1 0x1 PUSH2 0x243D JUMP JUMPDEST PUSH1 0x0 DUP2 DUP2 MSTORE PUSH1 0x5 PUSH1 0x20 DUP2 DUP2 MSTORE PUSH1 0x40 SWAP3 DUP4 SWAP1 KECCAK256 DUP4 MLOAD PUSH2 0x120 DUP2 ADD DUP6 MSTORE DUP2 SLOAD DUP2 MSTORE PUSH1 0x1 DUP3 ADD SLOAD PUSH1 0x1 PUSH1 0x1 PUSH1 0xA0 SHL SUB SWAP1 DUP2 AND SWAP4 DUP3 ADD SWAP4 SWAP1 SWAP4 MSTORE PUSH1 0x2 DUP3 ADD SLOAD SWAP5 DUP2 ADD SWAP5 SWAP1 SWAP5 MSTORE PUSH1 0x3 DUP2 ADD SLOAD DUP3 AND PUSH1 0x60 DUP6 ADD MSTORE PUSH1 0x4 DUP2 ADD SLOAD SWAP1 SWAP2 AND PUSH1 0x80 DUP5 ADD MSTORE SWAP1 DUP2 ADD SLOAD PUSH1 0xA0 DUP4 ADD MSTORE PUSH1 0x6 DUP2 ADD SLOAD PUSH1 0xFF AND ISZERO ISZERO PUSH1 0xC0 DUP4 ADD MSTORE PUSH1 0x7 DUP2 ADD DUP1 SLOAD SWAP4 SWAP5 POP SWAP1 SWAP3 DUP4 SWAP2 PUSH1 0xE0 DUP5 ADD SWAP2 PUSH2 0x591 SWAP1 PUSH2 0x2455 JUMP JUMPDEST DUP1 PUSH1 0x1F ADD PUSH1 0x20 DUP1 SWAP2 DIV MUL PUSH1 0x20 ADD PUSH1 0x40 MLOAD SWAP1 DUP2 ADD PUSH1 0x40 MSTORE DUP1 SWAP3 SWAP2 SWAP1 DUP2 DUP2 MSTORE PUSH1 0x20 ADD DUP3 DUP1 SLOAD PUSH2 0x5BD SWAP1 PUSH2 0x2455 JUMP JUMPDEST DUP1 ISZERO PUSH2 0x60A JUMPI DUP1 PUSH1 0x1F LT PUSH2 0x5DF JUMPI PUSH2 0x100 DUP1 DUP4 SLOAD DIV MUL DUP4 MSTORE SWAP2 PUSH1 0x20 ADD SWAP2 PUSH2 0x60A JUMP JUMPDEST DUP3 ADD SWAP2 SWAP1 PUSH1 0x0 MSTORE PUSH1 0x20 PUSH1 0x0 KECCAK256 SWAP1 JUMPDEST DUP2 SLOAD DUP2 MSTORE SWAP1 PUSH1 0x1 ADD SWAP1 PUSH1 0x20 ADD DUP1 DUP4 GT PUSH2 0x5ED JUMPI DUP3 SWAP1 SUB PUSH1 0x1F AND DUP3 ADD SWAP2 JUMPDEST POP POP POP POP POP DUP2 MSTORE PUSH1 0x20 ADD PUSH1 0x8 DUP3 ADD SLOAD DUP2 MSTORE POP POP DUP5 DUP7 DUP2 MLOAD DUP2 LT PUSH2 0x62F JUMPI PUSH2 0x62F PUSH2 0x2490 JUMP JUMPDEST PUSH1 0x20 SWAP1 DUP2 MUL SWAP2 SWAP1 SWAP2 ADD ADD MSTORE PUSH2 0x645 PUSH1 0x1 DUP7 PUSH2 0x243D JUMP JUMPDEST SWAP5 POP POP POP JUMPDEST DUP1 PUSH2 0x654 DUP2 PUSH2 0x24A6 JUMP JUMPDEST SWAP2 POP POP PUSH2 0x4BB JUMP JUMPDEST POP SWAP5 SWAP4 POP POP POP POP JUMP JUMPDEST PUSH1 0x60 PUSH1 0x0 PUSH2 0x672 PUSH1 0x2 SLOAD SWAP1 JUMP JUMPDEST SWAP1 POP PUSH1 0x0 DUP1 PUSH1 0x0 JUMPDEST DUP4 DUP2 LT ISZERO PUSH2 0x6DE JUMPI PUSH1 0x1 PUSH1 0x1 PUSH1 0xA0 SHL SUB DUP7 AND PUSH1 0x5 PUSH1 0x0 PUSH2 0x69B DUP5 PUSH1 0x1 PUSH2 0x243D JUMP JUMPDEST DUP2 MSTORE PUSH1 0x20 DUP2 ADD SWAP2 SWAP1 SWAP2 MSTORE PUSH1 0x40 ADD PUSH1 0x0 KECCAK256 PUSH1 0x4 ADD SLOAD PUSH1 0x1 PUSH1 0x1 PUSH1 0xA0 SHL SUB AND EQ ISZERO PUSH2 0x6CC JUMPI PUSH2 0x6C9 PUSH1 0x1 DUP5 PUSH2 0x243D JUMP JUMPDEST SWAP3 POP JUMPDEST DUP1 PUSH2 0x6D6 DUP2 PUSH2 0x24A6 JUMP JUMPDEST SWAP2 POP POP PUSH2 0x67A JUMP JUMPDEST POP PUSH1 0x0 DUP3 PUSH8 0xFFFFFFFFFFFFFFFF DUP2 GT ISZERO PUSH2 0x6FA JUMPI PUSH2 0x6FA PUSH2 0x2427 JUMP JUMPDEST PUSH1 0x40 MLOAD SWAP1 DUP1 DUP3 MSTORE DUP1 PUSH1 0x20 MUL PUSH1 0x20 ADD DUP3 ADD PUSH1 0x40 MSTORE DUP1 ISZERO PUSH2 0x733 JUMPI DUP2 PUSH1 0x20 ADD JUMPDEST PUSH2 0x720 PUSH2 0x2063 JUMP JUMPDEST DUP2 MSTORE PUSH1 0x20 ADD SWAP1 PUSH1 0x1 SWAP1 SUB SWAP1 DUP2 PUSH2 0x718 JUMPI SWAP1 POP JUMPDEST POP SWAP1 POP PUSH1 0x0 JUMPDEST DUP5 DUP2 LT ISZERO PUSH2 0x8E3 JUMPI PUSH1 0x1 PUSH1 0x1 PUSH1 0xA0 SHL SUB DUP8 AND PUSH1 0x5 PUSH1 0x0 PUSH2 0x75A DUP5 PUSH1 0x1 PUSH2 0x243D JUMP JUMPDEST DUP2 MSTORE PUSH1 0x20 DUP2 ADD SWAP2 SWAP1 SWAP2 MSTORE PUSH1 0x40 ADD PUSH1 0x0 KECCAK256 PUSH1 0x4 ADD SLOAD PUSH1 0x1 PUSH1 0x1 PUSH1 0xA0 SHL SUB AND EQ ISZERO PUSH2 0x8D1 JUMPI PUSH1 0x0 PUSH2 0x78A DUP3 PUSH1 0x1 PUSH2 0x243D JUMP JUMPDEST PUSH1 0x0 DUP2 DUP2 MSTORE PUSH1 0x5 PUSH1 0x20 DUP2 DUP2 MSTORE PUSH1 0x40 SWAP3 DUP4 SWAP1 KECCAK256 DUP4 MLOAD PUSH2 0x120 DUP2 ADD DUP6 MSTORE DUP2 SLOAD DUP2 MSTORE PUSH1 0x1 DUP3 ADD SLOAD PUSH1 0x1 PUSH1 0x1 PUSH1 0xA0 SHL SUB SWAP1 DUP2 AND SWAP4 DUP3 ADD SWAP4 SWAP1 SWAP4 MSTORE PUSH1 0x2 DUP3 ADD SLOAD SWAP5 DUP2 ADD SWAP5 SWAP1 SWAP5 MSTORE PUSH1 0x3 DUP2 ADD SLOAD DUP3 AND PUSH1 0x60 DUP6 ADD MSTORE PUSH1 0x4 DUP2 ADD SLOAD SWAP1 SWAP2 AND PUSH1 0x80 DUP5 ADD MSTORE SWAP1 DUP2 ADD SLOAD PUSH1 0xA0 DUP4 ADD MSTORE PUSH1 0x6 DUP2 ADD SLOAD PUSH1 0xFF AND ISZERO ISZERO PUSH1 0xC0 DUP4 ADD MSTORE PUSH1 0x7 DUP2 ADD DUP1 SLOAD SWAP4 SWAP5 POP SWAP1 SWAP3 DUP4 SWAP2 PUSH1 0xE0 DUP5 ADD SWAP2 PUSH2 0x818 SWAP1 PUSH2 0x2455 JUMP JUMPDEST DUP1 PUSH1 0x1F ADD PUSH1 0x20 DUP1 SWAP2 DIV MUL PUSH1 0x20 ADD PUSH1 0x40 MLOAD SWAP1 DUP2 ADD PUSH1 0x40 MSTORE DUP1 SWAP3 SWAP2 SWAP1 DUP2 DUP2 MSTORE PUSH1 0x20 ADD DUP3 DUP1 SLOAD PUSH2 0x844 SWAP1 PUSH2 0x2455 JUMP JUMPDEST DUP1 ISZERO PUSH2 0x891 JUMPI DUP1 PUSH1 0x1F LT PUSH2 0x866 JUMPI PUSH2 0x100 DUP1 DUP4 SLOAD DIV MUL DUP4 MSTORE SWAP2 PUSH1 0x20 ADD SWAP2 PUSH2 0x891 JUMP JUMPDEST DUP3 ADD SWAP2 SWAP1 PUSH1 0x0 MSTORE PUSH1 0x20 PUSH1 0x0 KECCAK256 SWAP1 JUMPDEST DUP2 SLOAD DUP2 MSTORE SWAP1 PUSH1 0x1 ADD SWAP1 PUSH1 0x20 ADD DUP1 DUP4 GT PUSH2 0x874 JUMPI DUP3 SWAP1 SUB PUSH1 0x1F AND DUP3 ADD SWAP2 JUMPDEST POP POP POP POP POP DUP2 MSTORE PUSH1 0x20 ADD PUSH1 0x8 DUP3 ADD SLOAD DUP2 MSTORE POP POP DUP5 DUP7 DUP2 MLOAD DUP2 LT PUSH2 0x8B6 JUMPI PUSH2 0x8B6 PUSH2 0x2490 JUMP JUMPDEST PUSH1 0x20 SWAP1 DUP2 MUL SWAP2 SWAP1 SWAP2 ADD ADD MSTORE PUSH2 0x8CC PUSH1 0x1 DUP7 PUSH2 0x243D JUMP JUMPDEST SWAP5 POP POP POP JUMPDEST DUP1 PUSH2 0x8DB DUP2 PUSH2 0x24A6 JUMP JUMPDEST SWAP2 POP POP PUSH2 0x739 JUMP JUMPDEST POP SWAP6 SWAP5 POP POP POP POP POP JUMP JUMPDEST PUSH1 0x2 PUSH1 0x0 SLOAD EQ ISZERO PUSH2 0x919 JUMPI PUSH1 0x40 MLOAD PUSH3 0x461BCD PUSH1 0xE5 SHL DUP2 MSTORE PUSH1 0x4 ADD PUSH2 0x910 SWAP1 PUSH2 0x24C1 JUMP JUMPDEST PUSH1 0x40 MLOAD DUP1 SWAP2 SUB SWAP1 REVERT JUMPDEST PUSH1 0x2 PUSH1 0x0 SWAP1 DUP2 SSTORE PUSH1 0x1 PUSH1 0x1 PUSH1 0xA0 SHL SUB DUP4 AND DUP2 MSTORE PUSH1 0x6 PUSH1 0x20 MSTORE PUSH1 0x40 SWAP1 KECCAK256 SLOAD PUSH1 0xFF AND PUSH2 0x955 JUMPI PUSH1 0x40 MLOAD PUSH3 0x461BCD PUSH1 0xE5 SHL DUP2 MSTORE PUSH1 0x4 ADD PUSH2 0x910 SWAP1 PUSH2 0x24F8 JUMP JUMPDEST CALLER PUSH1 0x0 SWAP1 DUP2 MSTORE PUSH1 0x7 PUSH1 0x20 MSTORE PUSH1 0x40 SWAP1 KECCAK256 SLOAD PUSH1 0xFF AND ISZERO PUSH2 0x985 JUMPI PUSH1 0x40 MLOAD PUSH3 0x461BCD PUSH1 0xE5 SHL DUP2 MSTORE PUSH1 0x4 ADD PUSH2 0x910 SWAP1 PUSH2 0x2541 JUMP JUMPDEST PUSH1 0x0 DUP2 DUP2 MSTORE PUSH1 0x5 PUSH1 0x20 MSTORE PUSH1 0x40 SWAP1 KECCAK256 PUSH1 0x2 DUP2 ADD SLOAD PUSH1 0x3 DUP3 ADD SLOAD PUSH1 0x6 SWAP1 SWAP3 ADD SLOAD SWAP1 SWAP2 PUSH1 0x1 PUSH1 0x1 PUSH1 0xA0 SHL SUB AND SWAP1 PUSH1 0xFF AND CALLER DUP3 EQ DUP1 PUSH2 0x9CA JUMPI POP PUSH1 0x1 SLOAD PUSH1 0x1 PUSH1 0x1 PUSH1 0xA0 SHL SUB AND CALLER EQ JUMPDEST PUSH2 0xA29 JUMPI PUSH1 0x40 MLOAD PUSH3 0x461BCD PUSH1 0xE5 SHL DUP2 MSTORE PUSH1 0x20 PUSH1 0x4 DUP3 ADD MSTORE PUSH1 0x2A PUSH1 0x24 DUP3 ADD MSTORE PUSH32 0x596F752063616E206F6E6C792063616E63656C20796F7572206F776E204E4654 PUSH1 0x44 DUP3 ADD MSTORE PUSH10 0x103634B9BA34B733B997 PUSH1 0xB1 SHL PUSH1 0x64 DUP3 ADD MSTORE PUSH1 0x84 ADD PUSH2 0x910 JUMP JUMPDEST DUP1 ISZERO PUSH2 0xA77 JUMPI PUSH1 0x40 MLOAD PUSH3 0x461BCD PUSH1 0xE5 SHL DUP2 MSTORE PUSH1 0x20 PUSH1 0x4 DUP3 ADD MSTORE PUSH1 0x1F PUSH1 0x24 DUP3 ADD MSTORE PUSH32 0x54686973204E46542068617320616C7265616479206265656E20736F6C642E00 PUSH1 0x44 DUP3 ADD MSTORE PUSH1 0x64 ADD PUSH2 0x910 JUMP JUMPDEST PUSH1 0x0 DUP5 DUP2 MSTORE PUSH1 0x5 PUSH1 0x20 MSTORE PUSH1 0x40 SWAP1 DUP2 SWAP1 KECCAK256 PUSH1 0x3 DUP2 ADD SLOAD PUSH1 0x4 DUP1 DUP4 ADD DUP1 SLOAD PUSH1 0x1 PUSH1 0x1 PUSH1 0xA0 SHL SUB NOT AND PUSH1 0x1 PUSH1 0x1 PUSH1 0xA0 SHL SUB SWAP4 DUP5 AND SWAP1 DUP2 OR SWAP1 SWAP2 SSTORE PUSH1 0x6 SWAP1 SWAP4 ADD DUP1 SLOAD PUSH1 0xFF NOT AND PUSH1 0x1 OR SWAP1 SSTORE SWAP3 MLOAD PUSH4 0x23B872DD PUSH1 0xE0 SHL DUP2 MSTORE SWAP1 DUP9 AND SWAP3 PUSH4 0x23B872DD SWAP3 PUSH2 0xAE2 SWAP3 ADDRESS SWAP3 DUP10 SWAP2 ADD PUSH2 0x25FC JUMP JUMPDEST PUSH1 0x0 PUSH1 0x40 MLOAD DUP1 DUP4 SUB DUP2 PUSH1 0x0 DUP8 DUP1 EXTCODESIZE ISZERO DUP1 ISZERO PUSH2 0xAFC JUMPI PUSH1 0x0 DUP1 REVERT JUMPDEST POP GAS CALL ISZERO DUP1 ISZERO PUSH2 0xB10 JUMPI RETURNDATASIZE PUSH1 0x0 DUP1 RETURNDATACOPY RETURNDATASIZE PUSH1 0x0 REVERT JUMPDEST POP POP POP POP PUSH2 0xB22 PUSH1 0x3 DUP1 SLOAD PUSH1 0x1 ADD SWAP1 SSTORE JUMP JUMPDEST PUSH1 0x1 SLOAD PUSH1 0x0 DUP6 DUP2 MSTORE PUSH1 0x5 PUSH1 0x20 MSTORE PUSH1 0x40 SWAP1 KECCAK256 PUSH1 0x3 ADD SLOAD PUSH1 0x1 PUSH1 0x1 PUSH1 0xA0 SHL SUB SWAP1 DUP2 AND SWAP2 AND EQ DUP1 ISZERO SWAP1 PUSH2 0xB62 JUMPI POP PUSH1 0x0 DUP5 DUP2 MSTORE PUSH1 0x5 PUSH1 0x20 MSTORE PUSH1 0x40 SWAP1 KECCAK256 PUSH1 0x8 ADD SLOAD ISZERO ISZERO JUMPDEST ISZERO PUSH2 0xBB7 JUMPI PUSH1 0x0 DUP5 DUP2 MSTORE PUSH1 0x5 PUSH1 0x20 MSTORE PUSH1 0x40 DUP1 DUP3 KECCAK256 PUSH1 0x3 DUP2 ADD SLOAD PUSH1 0x8 SWAP1 SWAP2 ADD SLOAD SWAP2 MLOAD PUSH1 0x1 PUSH1 0x1 PUSH1 0xA0 SHL SUB SWAP1 SWAP2 AND SWAP3 DUP3 ISZERO PUSH2 0x8FC MUL SWAP3 SWAP2 SWAP1 DUP2 DUP2 DUP2 DUP6 DUP9 DUP9 CALL SWAP4 POP POP POP POP ISZERO DUP1 ISZERO PUSH2 0xBB5 JUMPI RETURNDATASIZE PUSH1 0x0 DUP1 RETURNDATACOPY RETURNDATASIZE PUSH1 0x0 REVERT JUMPDEST POP JUMPDEST DUP3 DUP6 PUSH1 0x1 PUSH1 0x1 PUSH1 0xA0 SHL SUB AND DUP6 PUSH32 0x7C64FC67C3F33C94BBF66820A3D6D66B8E634E35D459088F821722E9FFFD141C DUP6 DUP7 PUSH1 0x5 PUSH1 0x0 DUP12 DUP2 MSTORE PUSH1 0x20 ADD SWAP1 DUP2 MSTORE PUSH1 0x20 ADD PUSH1 0x0 KECCAK256 PUSH1 0x5 ADD SLOAD PUSH1 0x1 DUP13 PUSH1 0x1 PUSH1 0x1 PUSH1 0xA0 SHL SUB AND PUSH4 0xC87B56DD DUP13 PUSH1 0x40 MLOAD DUP3 PUSH4 0xFFFFFFFF AND PUSH1 0xE0 SHL DUP2 MSTORE PUSH1 0x4 ADD PUSH2 0xC2D SWAP2 DUP2 MSTORE PUSH1 0x20 ADD SWAP1 JUMP JUMPDEST PUSH1 0x0 PUSH1 0x40 MLOAD DUP1 DUP4 SUB DUP2 DUP7 DUP1 EXTCODESIZE ISZERO DUP1 ISZERO PUSH2 0xC45 JUMPI PUSH1 0x0 DUP1 REVERT JUMPDEST POP GAS STATICCALL ISZERO DUP1 ISZERO PUSH2 0xC59 JUMPI RETURNDATASIZE PUSH1 0x0 DUP1 RETURNDATACOPY RETURNDATASIZE PUSH1 0x0 REVERT JUMPDEST POP POP POP POP PUSH1 0x40 MLOAD RETURNDATASIZE PUSH1 0x0 DUP3 RETURNDATACOPY PUSH1 0x1F RETURNDATASIZE SWAP1 DUP2 ADD PUSH1 0x1F NOT AND DUP3 ADD PUSH1 0x40 MSTORE PUSH2 0xC81 SWAP2 SWAP1 DUP2 ADD SWAP1 PUSH2 0x2620 JUMP JUMPDEST PUSH1 0x0 DUP14 DUP2 MSTORE PUSH1 0x5 PUSH1 0x20 MSTORE PUSH1 0x40 SWAP1 DUP2 SWAP1 KECCAK256 PUSH1 0x8 ADD SLOAD SWAP1 MLOAD PUSH2 0xCA6 SWAP7 SWAP6 SWAP5 SWAP4 SWAP3 SWAP2 SWAP1 PUSH2 0x26CD JUMP JUMPDEST PUSH1 0x40 MLOAD DUP1 SWAP2 SUB SWAP1 LOG4 POP POP PUSH1 0x1 PUSH1 0x0 SSTORE POP POP POP JUMP JUMPDEST PUSH1 0x2 PUSH1 0x0 SLOAD EQ ISZERO PUSH2 0xCDD JUMPI PUSH1 0x40 MLOAD PUSH3 0x461BCD PUSH1 0xE5 SHL DUP2 MSTORE PUSH1 0x4 ADD PUSH2 0x910 SWAP1 PUSH2 0x24C1 JUMP JUMPDEST PUSH1 0x2 PUSH1 0x0 SWAP1 DUP2 SSTORE PUSH1 0x1 PUSH1 0x1 PUSH1 0xA0 SHL SUB DUP5 AND DUP2 MSTORE PUSH1 0x6 PUSH1 0x20 MSTORE PUSH1 0x40 SWAP1 KECCAK256 SLOAD PUSH1 0xFF AND PUSH2 0xD19 JUMPI PUSH1 0x40 MLOAD PUSH3 0x461BCD PUSH1 0xE5 SHL DUP2 MSTORE PUSH1 0x4 ADD PUSH2 0x910 SWAP1 PUSH2 0x24F8 JUMP JUMPDEST CALLER PUSH1 0x0 SWAP1 DUP2 MSTORE PUSH1 0x7 PUSH1 0x20 MSTORE PUSH1 0x40 SWAP1 KECCAK256 SLOAD PUSH1 0xFF AND ISZERO PUSH2 0xD49 JUMPI PUSH1 0x40 MLOAD PUSH3 0x461BCD PUSH1 0xE5 SHL DUP2 MSTORE PUSH1 0x4 ADD PUSH2 0x910 SWAP1 PUSH2 0x2541 JUMP JUMPDEST PUSH1 0x0 DUP3 DUP2 MSTORE PUSH1 0x5 PUSH1 0x20 MSTORE PUSH1 0x40 SWAP1 KECCAK256 PUSH1 0x6 ADD SLOAD PUSH1 0xFF AND ISZERO PUSH2 0xDC0 JUMPI PUSH1 0x40 MLOAD PUSH3 0x461BCD PUSH1 0xE5 SHL DUP2 MSTORE PUSH1 0x20 PUSH1 0x4 DUP3 ADD MSTORE PUSH1 0x2C PUSH1 0x24 DUP3 ADD MSTORE PUSH32 0x54686973206D61726B6574706C616365206974656D2068617320616C72656164 PUSH1 0x44 DUP3 ADD MSTORE PUSH12 0x3C903132B2B71039B7B63217 PUSH1 0xA1 SHL PUSH1 0x64 DUP3 ADD MSTORE PUSH1 0x84 ADD PUSH2 0x910 JUMP JUMPDEST PUSH1 0x0 DUP3 DUP2 MSTORE PUSH1 0x5 PUSH1 0x20 MSTORE PUSH1 0x40 DUP1 DUP3 KECCAK256 PUSH1 0x2 ADD SLOAD PUSH1 0x9 SLOAD SWAP2 MLOAD PUSH4 0x2E11D33D PUSH1 0xE1 SHL DUP2 MSTORE PUSH1 0x4 DUP2 ADD DUP3 SWAP1 MSTORE SWAP1 SWAP3 SWAP2 PUSH1 0x1 PUSH1 0x1 PUSH1 0xA0 SHL SUB AND SWAP1 PUSH4 0x5C23A67A SWAP1 PUSH1 0x24 ADD PUSH1 0x20 PUSH1 0x40 MLOAD DUP1 DUP4 SUB DUP2 DUP7 DUP1 EXTCODESIZE ISZERO DUP1 ISZERO PUSH2 0xE17 JUMPI PUSH1 0x0 DUP1 REVERT JUMPDEST POP GAS STATICCALL ISZERO DUP1 ISZERO PUSH2 0xE2B JUMPI RETURNDATASIZE PUSH1 0x0 DUP1 RETURNDATACOPY RETURNDATASIZE PUSH1 0x0 REVERT JUMPDEST POP POP POP POP PUSH1 0x40 MLOAD RETURNDATASIZE PUSH1 0x1F NOT PUSH1 0x1F DUP3 ADD AND DUP3 ADD DUP1 PUSH1 0x40 MSTORE POP DUP2 ADD SWAP1 PUSH2 0xE4F SWAP2 SWAP1 PUSH2 0x271B JUMP JUMPDEST PUSH1 0x1 PUSH1 0x1 PUSH1 0xA0 SHL SUB AND EQ ISZERO DUP1 ISZERO PUSH2 0xE85 JUMPI POP PUSH1 0x1 SLOAD PUSH1 0x0 DUP5 DUP2 MSTORE PUSH1 0x5 PUSH1 0x20 MSTORE PUSH1 0x40 SWAP1 KECCAK256 PUSH1 0x3 ADD SLOAD PUSH1 0x1 PUSH1 0x1 PUSH1 0xA0 SHL SUB SWAP1 DUP2 AND SWAP2 AND EQ JUMPDEST ISZERO PUSH2 0xFB2 JUMPI PUSH1 0x9 SLOAD PUSH1 0x40 MLOAD PUSH4 0x2E11D33D PUSH1 0xE1 SHL DUP2 MSTORE PUSH1 0x4 DUP2 ADD DUP4 SWAP1 MSTORE PUSH1 0x1 PUSH1 0x1 PUSH1 0xA0 SHL SUB SWAP1 SWAP2 AND SWAP1 PUSH4 0x5C23A67A SWAP1 PUSH1 0x24 ADD PUSH1 0x20 PUSH1 0x40 MLOAD DUP1 DUP4 SUB DUP2 DUP7 DUP1 EXTCODESIZE ISZERO DUP1 ISZERO PUSH2 0xECE JUMPI PUSH1 0x0 DUP1 REVERT JUMPDEST POP GAS STATICCALL ISZERO DUP1 ISZERO PUSH2 0xEE2 JUMPI RETURNDATASIZE PUSH1 0x0 DUP1 RETURNDATACOPY RETURNDATASIZE PUSH1 0x0 REVERT JUMPDEST POP POP POP POP PUSH1 0x40 MLOAD RETURNDATASIZE PUSH1 0x1F NOT PUSH1 0x1F DUP3 ADD AND DUP3 ADD DUP1 PUSH1 0x40 MSTORE POP DUP2 ADD SWAP1 PUSH2 0xF06 SWAP2 SWAP1 PUSH2 0x271B JUMP JUMPDEST PUSH1 0x1 PUSH1 0x1 PUSH1 0xA0 SHL SUB AND CALLER PUSH1 0x1 PUSH1 0x1 PUSH1 0xA0 SHL SUB AND EQ PUSH2 0xFB2 JUMPI PUSH1 0x40 MLOAD PUSH3 0x461BCD PUSH1 0xE5 SHL DUP2 MSTORE PUSH1 0x20 PUSH1 0x4 DUP3 ADD MSTORE PUSH1 0x60 PUSH1 0x24 DUP3 ADD MSTORE PUSH32 0x54686973204E465420686173206265656E2061737369676E656420746F20736F PUSH1 0x44 DUP3 ADD MSTORE PUSH32 0x6D656F6E65207468726F75676820612057686974656C6973742073706F742E20 PUSH1 0x64 DUP3 ADD MSTORE PUSH32 0x4F6E6C7920746865792063616E2070757263686173652074686973204E46542E PUSH1 0x84 DUP3 ADD MSTORE PUSH1 0xA4 ADD PUSH2 0x910 JUMP JUMPDEST PUSH1 0x0 DUP4 DUP2 MSTORE PUSH1 0x5 PUSH1 0x20 DUP2 SWAP1 MSTORE PUSH1 0x40 SWAP1 SWAP2 KECCAK256 ADD SLOAD DUP3 DUP2 EQ PUSH2 0x1044 JUMPI PUSH1 0x40 MLOAD PUSH3 0x461BCD PUSH1 0xE5 SHL DUP2 MSTORE PUSH1 0x20 PUSH1 0x4 DUP3 ADD MSTORE PUSH1 0x41 PUSH1 0x24 DUP3 ADD MSTORE PUSH32 0x506C65617365207375626D6974207468652061736B696E672070726963652069 PUSH1 0x44 DUP3 ADD MSTORE PUSH32 0x6E206F7264657220746F20636F6D706C65746520746865207075726368617365 PUSH1 0x64 DUP3 ADD MSTORE PUSH1 0x17 PUSH1 0xF9 SHL PUSH1 0x84 DUP3 ADD MSTORE PUSH1 0xA4 ADD PUSH2 0x910 JUMP JUMPDEST PUSH1 0x8 SLOAD PUSH1 0x0 DUP6 DUP2 MSTORE PUSH1 0x5 PUSH1 0x20 MSTORE PUSH1 0x40 SWAP1 DUP2 SWAP1 KECCAK256 PUSH1 0x3 ADD SLOAD SWAP1 MLOAD PUSH4 0x23B872DD PUSH1 0xE0 SHL DUP2 MSTORE PUSH1 0x1 PUSH1 0x1 PUSH1 0xA0 SHL SUB SWAP3 DUP4 AND SWAP3 PUSH4 0x23B872DD SWAP3 PUSH2 0x108D SWAP3 CALLER SWAP3 SWAP1 SWAP2 AND SWAP1 DUP9 SWAP1 PUSH1 0x4 ADD PUSH2 0x25FC JUMP JUMPDEST PUSH1 0x20 PUSH1 0x40 MLOAD DUP1 DUP4 SUB DUP2 PUSH1 0x0 DUP8 DUP1 EXTCODESIZE ISZERO DUP1 ISZERO PUSH2 0x10A7 JUMPI PUSH1 0x0 DUP1 REVERT JUMPDEST POP GAS CALL ISZERO DUP1 ISZERO PUSH2 0x10BB JUMPI RETURNDATASIZE PUSH1 0x0 DUP1 RETURNDATACOPY RETURNDATASIZE PUSH1 0x0 REVERT JUMPDEST POP POP POP POP PUSH1 0x40 MLOAD RETURNDATASIZE PUSH1 0x1F NOT PUSH1 0x1F DUP3 ADD AND DUP3 ADD DUP1 PUSH1 0x40 MSTORE POP DUP2 ADD SWAP1 PUSH2 0x10DF SWAP2 SWAP1 PUSH2 0x2738 JUMP JUMPDEST POP PUSH1 0x0 DUP5 DUP2 MSTORE PUSH1 0x5 PUSH1 0x20 MSTORE PUSH1 0x40 SWAP1 DUP2 SWAP1 KECCAK256 PUSH1 0x4 DUP1 DUP3 ADD DUP1 SLOAD PUSH1 0x1 PUSH1 0x1 PUSH1 0xA0 SHL SUB NOT AND CALLER SWAP1 DUP2 OR SWAP1 SWAP2 SSTORE PUSH1 0x6 SWAP1 SWAP3 ADD DUP1 SLOAD PUSH1 0xFF NOT AND PUSH1 0x1 OR SWAP1 SSTORE SWAP2 MLOAD PUSH4 0x23B872DD PUSH1 0xE0 SHL DUP2 MSTORE PUSH1 0x1 PUSH1 0x1 PUSH1 0xA0 SHL SUB DUP9 AND SWAP3 PUSH4 0x23B872DD SWAP3 PUSH2 0x1143 SWAP3 ADDRESS SWAP3 DUP9 SWAP2 ADD PUSH2 0x25FC JUMP JUMPDEST PUSH1 0x0 PUSH1 0x40 MLOAD DUP1 DUP4 SUB DUP2 PUSH1 0x0 DUP8 DUP1 EXTCODESIZE ISZERO DUP1 ISZERO PUSH2 0x115D JUMPI PUSH1 0x0 DUP1 REVERT JUMPDEST POP GAS CALL ISZERO DUP1 ISZERO PUSH2 0x1171 JUMPI RETURNDATASIZE PUSH1 0x0 DUP1 RETURNDATACOPY RETURNDATASIZE PUSH1 0x0 REVERT JUMPDEST POP POP POP POP PUSH2 0x1183 PUSH1 0x3 DUP1 SLOAD PUSH1 0x1 ADD SWAP1 SSTORE JUMP JUMPDEST PUSH1 0x1 SLOAD PUSH1 0x0 DUP6 DUP2 MSTORE PUSH1 0x5 PUSH1 0x20 MSTORE PUSH1 0x40 SWAP1 KECCAK256 PUSH1 0x3 ADD SLOAD PUSH1 0x1 PUSH1 0x1 PUSH1 0xA0 SHL SUB SWAP1 DUP2 AND SWAP2 AND EQ DUP1 ISZERO SWAP1 PUSH2 0x11C3 JUMPI POP PUSH1 0x0 DUP5 DUP2 MSTORE PUSH1 0x5 PUSH1 0x20 MSTORE PUSH1 0x40 SWAP1 KECCAK256 PUSH1 0x8 ADD SLOAD ISZERO ISZERO JUMPDEST ISZERO PUSH2 0x1212 JUMPI PUSH1 0x1 SLOAD PUSH1 0x0 DUP6 DUP2 MSTORE PUSH1 0x5 PUSH1 0x20 MSTORE PUSH1 0x40 DUP1 DUP3 KECCAK256 PUSH1 0x8 ADD SLOAD SWAP1 MLOAD PUSH1 0x1 PUSH1 0x1 PUSH1 0xA0 SHL SUB SWAP1 SWAP4 AND SWAP3 PUSH2 0x8FC DUP3 ISZERO MUL SWAP3 DUP2 DUP2 DUP2 DUP6 DUP9 DUP9 CALL SWAP4 POP POP POP POP ISZERO DUP1 ISZERO PUSH2 0x1210 JUMPI RETURNDATASIZE PUSH1 0x0 DUP1 RETURNDATACOPY RETURNDATASIZE PUSH1 0x0 REVERT JUMPDEST POP JUMPDEST PUSH1 0x0 DUP5 DUP2 MSTORE PUSH1 0x5 PUSH1 0x20 MSTORE PUSH1 0x40 SWAP1 DUP2 SWAP1 KECCAK256 PUSH1 0x3 ADD SLOAD SWAP1 MLOAD PUSH4 0xC87B56DD PUSH1 0xE0 SHL DUP2 MSTORE PUSH1 0x4 DUP2 ADD DUP5 SWAP1 MSTORE DUP4 SWAP2 PUSH1 0x1 PUSH1 0x1 PUSH1 0xA0 SHL SUB DUP9 DUP2 AND SWAP3 DUP9 SWAP3 PUSH32 0xDD1C25AC5DE7F977206F7B452D3C80F1D5FAD10FC101F39EB38E0281FD6A90D2 SWAP3 AND SWAP1 CALLER SWAP1 DUP8 SWAP1 PUSH1 0x1 SWAP1 DUP8 SWAP1 PUSH4 0xC87B56DD SWAP1 PUSH1 0x24 ADD PUSH2 0xC2D JUMP JUMPDEST PUSH1 0x1 SLOAD PUSH1 0x1 PUSH1 0x1 PUSH1 0xA0 SHL SUB AND CALLER EQ PUSH2 0x12AE JUMPI PUSH1 0x40 MLOAD PUSH3 0x461BCD PUSH1 0xE5 SHL DUP2 MSTORE PUSH1 0x4 ADD PUSH2 0x910 SWAP1 PUSH2 0x2755 JUMP JUMPDEST PUSH1 0x4 DUP2 SWAP1 SSTORE PUSH1 0x40 MLOAD DUP2 SWAP1 PUSH32 0x12FC75EC7FE6B490EDAAEB8DE0A54B52FA263B3582E125FAEDF92C863054BB74 SWAP1 PUSH1 0x0 SWAP1 LOG2 POP JUMP JUMPDEST PUSH1 0x2 PUSH1 0x0 SLOAD EQ ISZERO PUSH2 0x1304 JUMPI PUSH1 0x40 MLOAD PUSH3 0x461BCD PUSH1 0xE5 SHL DUP2 MSTORE PUSH1 0x4 ADD PUSH2 0x910 SWAP1 PUSH2 0x24C1 JUMP JUMPDEST PUSH1 0x2 PUSH1 0x0 SWAP1 DUP2 SSTORE PUSH1 0x1 PUSH1 0x1 PUSH1 0xA0 SHL SUB DUP5 AND DUP2 MSTORE PUSH1 0x6 PUSH1 0x20 MSTORE PUSH1 0x40 SWAP1 KECCAK256 SLOAD PUSH1 0xFF AND PUSH2 0x1340 JUMPI PUSH1 0x40 MLOAD PUSH3 0x461BCD PUSH1 0xE5 SHL DUP2 MSTORE PUSH1 0x4 ADD PUSH2 0x910 SWAP1 PUSH2 0x24F8 JUMP JUMPDEST CALLER PUSH1 0x0 SWAP1 DUP2 MSTORE PUSH1 0x7 PUSH1 0x20 MSTORE PUSH1 0x40 SWAP1 KECCAK256 SLOAD PUSH1 0xFF AND ISZERO PUSH2 0x1370 JUMPI PUSH1 0x40 MLOAD PUSH3 0x461BCD PUSH1 0xE5 SHL DUP2 MSTORE PUSH1 0x4 ADD PUSH2 0x910 SWAP1 PUSH2 0x2541 JUMP JUMPDEST PUSH1 0x0 DUP2 GT PUSH2 0x13CE JUMPI PUSH1 0x40 MLOAD PUSH3 0x461BCD PUSH1 0xE5 SHL DUP2 MSTORE PUSH1 0x20 PUSH1 0x4 DUP3 ADD MSTORE PUSH1 0x25 PUSH1 0x24 DUP3 ADD MSTORE PUSH32 0x546865204E4654207072696365206D757374206265206174206C656173742031 PUSH1 0x44 DUP3 ADD MSTORE PUSH5 0x103BB2B497 PUSH1 0xD9 SHL PUSH1 0x64 DUP3 ADD MSTORE PUSH1 0x84 ADD PUSH2 0x910 JUMP JUMPDEST PUSH1 0x9 SLOAD PUSH1 0x40 MLOAD PUSH4 0x2C18F255 PUSH1 0xE2 SHL DUP2 MSTORE PUSH1 0x4 DUP2 ADD DUP5 SWAP1 MSTORE PUSH1 0x0 SWAP2 PUSH1 0x1 PUSH1 0x1 PUSH1 0xA0 SHL SUB AND SWAP1 PUSH4 0xB063C954 SWAP1 PUSH1 0x24 ADD PUSH1 0x20 PUSH1 0x40 MLOAD DUP1 DUP4 SUB DUP2 DUP7 DUP1 EXTCODESIZE ISZERO DUP1 ISZERO PUSH2 0x1413 JUMPI PUSH1 0x0 DUP1 REVERT JUMPDEST POP GAS STATICCALL ISZERO DUP1 ISZERO PUSH2 0x1427 JUMPI RETURNDATASIZE PUSH1 0x0 DUP1 RETURNDATACOPY RETURNDATASIZE PUSH1 0x0 REVERT JUMPDEST POP POP POP POP PUSH1 0x40 MLOAD RETURNDATASIZE PUSH1 0x1F NOT PUSH1 0x1F DUP3 ADD AND DUP3 ADD DUP1 PUSH1 0x40 MSTORE POP DUP2 ADD SWAP1 PUSH2 0x144B SWAP2 SWAP1 PUSH2 0x278A JUMP JUMPDEST SWAP1 POP DUP1 PUSH2 0x1457 JUMPI POP PUSH1 0x4 SLOAD JUMPDEST PUSH1 0x1 SLOAD PUSH1 0x1 PUSH1 0x1 PUSH1 0xA0 SHL SUB AND CALLER EQ DUP1 ISZERO SWAP1 PUSH2 0x1472 JUMPI POP PUSH1 0x0 DUP2 GT JUMPDEST ISZERO PUSH2 0x14FB JUMPI DUP1 CALLVALUE EQ PUSH2 0x14F6 JUMPI PUSH1 0x40 MLOAD PUSH3 0x461BCD PUSH1 0xE5 SHL DUP2 MSTORE PUSH1 0x20 PUSH1 0x4 DUP3 ADD MSTORE PUSH1 0x41 PUSH1 0x24 DUP3 ADD MSTORE PUSH32 0x4E6F7420656E6F756768206F7220746F6F206D756368204D6174696320776173 PUSH1 0x44 DUP3 ADD MSTORE PUSH32 0x2073656E7420746F2070617920746865204E4654206C697374696E6720666565 PUSH1 0x64 DUP3 ADD MSTORE PUSH1 0x17 PUSH1 0xF9 SHL PUSH1 0x84 DUP3 ADD MSTORE PUSH1 0xA4 ADD PUSH2 0x910 JUMP JUMPDEST PUSH2 0x153C JUMP JUMPDEST DUP1 ISZERO PUSH2 0x153C JUMPI PUSH1 0x1 SLOAD PUSH1 0x40 MLOAD PUSH1 0x1 PUSH1 0x1 PUSH1 0xA0 SHL SUB SWAP1 SWAP2 AND SWAP1 CALLVALUE DUP1 ISZERO PUSH2 0x8FC MUL SWAP2 PUSH1 0x0 DUP2 DUP2 DUP2 DUP6 DUP9 DUP9 CALL SWAP4 POP POP POP POP ISZERO DUP1 ISZERO PUSH2 0x153A JUMPI RETURNDATASIZE PUSH1 0x0 DUP1 RETURNDATACOPY RETURNDATASIZE PUSH1 0x0 REVERT JUMPDEST POP JUMPDEST PUSH2 0x154A PUSH1 0x2 DUP1 SLOAD PUSH1 0x1 ADD SWAP1 SSTORE JUMP JUMPDEST PUSH1 0x0 PUSH2 0x1555 PUSH1 0x2 SLOAD SWAP1 JUMP JUMPDEST PUSH1 0x40 DUP1 MLOAD PUSH2 0x120 DUP2 ADD DUP3 MSTORE DUP3 DUP2 MSTORE PUSH1 0x1 PUSH1 0x1 PUSH1 0xA0 SHL SUB DUP9 AND PUSH1 0x20 DUP3 ADD DUP2 SWAP1 MSTORE DUP2 DUP4 ADD DUP9 SWAP1 MSTORE CALLER PUSH1 0x60 DUP4 ADD MSTORE PUSH1 0x0 PUSH1 0x80 DUP4 ADD DUP2 SWAP1 MSTORE PUSH1 0xA0 DUP4 ADD DUP9 SWAP1 MSTORE PUSH1 0xC0 DUP4 ADD MSTORE SWAP2 MLOAD PUSH4 0xC87B56DD PUSH1 0xE0 SHL DUP2 MSTORE PUSH1 0x4 DUP2 ADD DUP9 SWAP1 MSTORE SWAP3 SWAP4 POP SWAP2 PUSH1 0xE0 DUP4 ADD SWAP2 SWAP1 PUSH4 0xC87B56DD SWAP1 PUSH1 0x24 ADD PUSH1 0x0 PUSH1 0x40 MLOAD DUP1 DUP4 SUB DUP2 DUP7 DUP1 EXTCODESIZE ISZERO DUP1 ISZERO PUSH2 0x15D3 JUMPI PUSH1 0x0 DUP1 REVERT JUMPDEST POP GAS STATICCALL ISZERO DUP1 ISZERO PUSH2 0x15E7 JUMPI RETURNDATASIZE PUSH1 0x0 DUP1 RETURNDATACOPY RETURNDATASIZE PUSH1 0x0 REVERT JUMPDEST POP POP POP POP PUSH1 0x40 MLOAD RETURNDATASIZE PUSH1 0x0 DUP3 RETURNDATACOPY PUSH1 0x1F RETURNDATASIZE SWAP1 DUP2 ADD PUSH1 0x1F NOT AND DUP3 ADD PUSH1 0x40 MSTORE PUSH2 0x160F SWAP2 SWAP1 DUP2 ADD SWAP1 PUSH2 0x2620 JUMP JUMPDEST DUP2 MSTORE PUSH1 0x20 SWAP1 DUP2 ADD DUP5 SWAP1 MSTORE PUSH1 0x0 DUP4 DUP2 MSTORE PUSH1 0x5 DUP1 DUP4 MSTORE PUSH1 0x40 SWAP2 DUP3 SWAP1 KECCAK256 DUP5 MLOAD DUP2 SSTORE DUP5 DUP5 ADD MLOAD PUSH1 0x1 DUP3 ADD DUP1 SLOAD PUSH1 0x1 PUSH1 0x1 PUSH1 0xA0 SHL SUB NOT SWAP1 DUP2 AND PUSH1 0x1 PUSH1 0x1 PUSH1 0xA0 SHL SUB SWAP4 DUP5 AND OR SWAP1 SWAP2 SSTORE SWAP4 DUP7 ADD MLOAD PUSH1 0x2 DUP4 ADD SSTORE PUSH1 0x60 DUP7 ADD MLOAD PUSH1 0x3 DUP4 ADD DUP1 SLOAD DUP7 AND SWAP2 DUP4 AND SWAP2 SWAP1 SWAP2 OR SWAP1 SSTORE PUSH1 0x80 DUP7 ADD MLOAD PUSH1 0x4 DUP4 ADD DUP1 SLOAD SWAP1 SWAP6 AND SWAP2 AND OR SWAP1 SWAP3 SSTORE PUSH1 0xA0 DUP5 ADD MLOAD SWAP1 DUP3 ADD SSTORE PUSH1 0xC0 DUP4 ADD MLOAD PUSH1 0x6 DUP3 ADD DUP1 SLOAD PUSH1 0xFF NOT AND SWAP2 ISZERO ISZERO SWAP2 SWAP1 SWAP2 OR SWAP1 SSTORE PUSH1 0xE0 DUP4 ADD MLOAD DUP1 MLOAD SWAP2 SWAP3 PUSH2 0x16C1 SWAP3 PUSH1 0x7 DUP6 ADD SWAP3 SWAP1 SWAP2 ADD SWAP1 PUSH2 0x20CC JUMP JUMPDEST POP PUSH2 0x100 SWAP2 SWAP1 SWAP2 ADD MLOAD PUSH1 0x8 SWAP1 SWAP2 ADD SSTORE PUSH1 0x40 MLOAD PUSH4 0x23B872DD PUSH1 0xE0 SHL DUP2 MSTORE PUSH1 0x1 PUSH1 0x1 PUSH1 0xA0 SHL SUB DUP7 AND SWAP1 PUSH4 0x23B872DD SWAP1 PUSH2 0x1700 SWAP1 CALLER SWAP1 ADDRESS SWAP1 DUP10 SWAP1 PUSH1 0x4 ADD PUSH2 0x25FC JUMP JUMPDEST PUSH1 0x0 PUSH1 0x40 MLOAD DUP1 DUP4 SUB DUP2 PUSH1 0x0 DUP8 DUP1 EXTCODESIZE ISZERO DUP1 ISZERO PUSH2 0x171A JUMPI PUSH1 0x0 DUP1 REVERT JUMPDEST POP GAS CALL ISZERO DUP1 ISZERO PUSH2 0x172E JUMPI RETURNDATASIZE PUSH1 0x0 DUP1 RETURNDATACOPY RETURNDATASIZE PUSH1 0x0 REVERT JUMPDEST POP POP POP POP DUP4 DUP6 PUSH1 0x1 PUSH1 0x1 PUSH1 0xA0 SHL SUB AND DUP3 PUSH32 0x6C15A92EBB9812D705E0CD41F7ADC24557A1927802269BA3E56095BE799BD6B0 CALLER PUSH1 0x0 DUP9 PUSH1 0x0 DUP13 PUSH1 0x1 PUSH1 0x1 PUSH1 0xA0 SHL SUB AND PUSH4 0xC87B56DD DUP14 PUSH1 0x40 MLOAD DUP3 PUSH4 0xFFFFFFFF AND PUSH1 0xE0 SHL DUP2 MSTORE PUSH1 0x4 ADD PUSH2 0x1793 SWAP2 DUP2 MSTORE PUSH1 0x20 ADD SWAP1 JUMP JUMPDEST PUSH1 0x0 PUSH1 0x40 MLOAD DUP1 DUP4 SUB DUP2 DUP7 DUP1 EXTCODESIZE ISZERO DUP1 ISZERO PUSH2 0x17AB JUMPI PUSH1 0x0 DUP1 REVERT JUMPDEST POP GAS STATICCALL ISZERO DUP1 ISZERO PUSH2 0x17BF JUMPI RETURNDATASIZE PUSH1 0x0 DUP1 RETURNDATACOPY RETURNDATASIZE PUSH1 0x0 REVERT JUMPDEST POP POP POP POP PUSH1 0x40 MLOAD RETURNDATASIZE PUSH1 0x0 DUP3 RETURNDATACOPY PUSH1 0x1F RETURNDATASIZE SWAP1 DUP2 ADD PUSH1 0x1F NOT AND DUP3 ADD PUSH1 0x40 MSTORE PUSH2 0x17E7 SWAP2 SWAP1 DUP2 ADD SWAP1 PUSH2 0x2620 JUMP JUMPDEST DUP11 PUSH1 0x40 MLOAD PUSH2 0xCA6 SWAP7 SWAP6 SWAP5 SWAP4 SWAP3 SWAP2 SWAP1 PUSH2 0x26CD JUMP JUMPDEST PUSH1 0x1 SLOAD PUSH1 0x1 PUSH1 0x1 PUSH1 0xA0 SHL SUB AND CALLER EQ PUSH2 0x1824 JUMPI PUSH1 0x40 MLOAD PUSH3 0x461BCD PUSH1 0xE5 SHL DUP2 MSTORE PUSH1 0x4 ADD PUSH2 0x910 SWAP1 PUSH2 0x2755 JUMP JUMPDEST PUSH2 0x182E PUSH1 0x0 PUSH2 0x2011 JUMP JUMPDEST JUMP JUMPDEST PUSH1 0x60 PUSH1 0x0 PUSH2 0x183D PUSH1 0x2 SLOAD SWAP1 JUMP JUMPDEST SWAP1 POP PUSH1 0x0 DUP1 PUSH1 0x0 JUMPDEST DUP4 DUP2 LT ISZERO PUSH2 0x18D8 JUMPI PUSH1 0x1 PUSH1 0x1 PUSH1 0xA0 SHL SUB DUP7 AND PUSH1 0x5 PUSH1 0x0 PUSH2 0x1866 DUP5 PUSH1 0x1 PUSH2 0x243D JUMP JUMPDEST DUP2 MSTORE PUSH1 0x20 DUP2 ADD SWAP2 SWAP1 SWAP2 MSTORE PUSH1 0x40 ADD PUSH1 0x0 KECCAK256 PUSH1 0x3 ADD SLOAD PUSH1 0x1 PUSH1 0x1 PUSH1 0xA0 SHL SUB AND EQ DUP1 ISZERO PUSH2 0x18B3 JUMPI POP PUSH1 0x5 PUSH1 0x0 PUSH2 0x189A DUP4 PUSH1 0x1 PUSH2 0x243D JUMP JUMPDEST DUP2 MSTORE PUSH1 0x20 DUP2 ADD SWAP2 SWAP1 SWAP2 MSTORE PUSH1 0x40 ADD PUSH1 0x0 KECCAK256 PUSH1 0x6 ADD SLOAD PUSH1 0xFF AND ISZERO JUMPDEST ISZERO PUSH2 0x18C6 JUMPI PUSH2 0x18C3 PUSH1 0x1 DUP5 PUSH2 0x243D JUMP JUMPDEST SWAP3 POP JUMPDEST DUP1 PUSH2 0x18D0 DUP2 PUSH2 0x24A6 JUMP JUMPDEST SWAP2 POP POP PUSH2 0x1845 JUMP JUMPDEST POP PUSH1 0x0 DUP3 PUSH8 0xFFFFFFFFFFFFFFFF DUP2 GT ISZERO PUSH2 0x18F4 JUMPI PUSH2 0x18F4 PUSH2 0x2427 JUMP JUMPDEST PUSH1 0x40 MLOAD SWAP1 DUP1 DUP3 MSTORE DUP1 PUSH1 0x20 MUL PUSH1 0x20 ADD DUP3 ADD PUSH1 0x40 MSTORE DUP1 ISZERO PUSH2 0x192D JUMPI DUP2 PUSH1 0x20 ADD JUMPDEST PUSH2 0x191A PUSH2 0x2063 JUMP JUMPDEST DUP2 MSTORE PUSH1 0x20 ADD SWAP1 PUSH1 0x1 SWAP1 SUB SWAP1 DUP2 PUSH2 0x1912 JUMPI SWAP1 POP JUMPDEST POP SWAP1 POP PUSH1 0x0 JUMPDEST DUP5 DUP2 LT ISZERO PUSH2 0x8E3 JUMPI PUSH1 0x1 PUSH1 0x1 PUSH1 0xA0 SHL SUB DUP8 AND PUSH1 0x5 PUSH1 0x0 PUSH2 0x1954 DUP5 PUSH1 0x1 PUSH2 0x243D JUMP JUMPDEST DUP2 MSTORE PUSH1 0x20 DUP2 ADD SWAP2 SWAP1 SWAP2 MSTORE PUSH1 0x40 ADD PUSH1 0x0 KECCAK256 PUSH1 0x3 ADD SLOAD PUSH1 0x1 PUSH1 0x1 PUSH1 0xA0 SHL SUB AND EQ DUP1 ISZERO PUSH2 0x19A1 JUMPI POP PUSH1 0x5 PUSH1 0x0 PUSH2 0x1988 DUP4 PUSH1 0x1 PUSH2 0x243D JUMP JUMPDEST DUP2 MSTORE PUSH1 0x20 DUP2 ADD SWAP2 SWAP1 SWAP2 MSTORE PUSH1 0x40 ADD PUSH1 0x0 KECCAK256 PUSH1 0x6 ADD SLOAD PUSH1 0xFF AND ISZERO JUMPDEST ISZERO PUSH2 0x1AFA JUMPI PUSH1 0x0 PUSH2 0x19B3 DUP3 PUSH1 0x1 PUSH2 0x243D JUMP JUMPDEST PUSH1 0x0 DUP2 DUP2 MSTORE PUSH1 0x5 PUSH1 0x20 DUP2 DUP2 MSTORE PUSH1 0x40 SWAP3 DUP4 SWAP1 KECCAK256 DUP4 MLOAD PUSH2 0x120 DUP2 ADD DUP6 MSTORE DUP2 SLOAD DUP2 MSTORE PUSH1 0x1 DUP3 ADD SLOAD PUSH1 0x1 PUSH1 0x1 PUSH1 0xA0 SHL SUB SWAP1 DUP2 AND SWAP4 DUP3 ADD SWAP4 SWAP1 SWAP4 MSTORE PUSH1 0x2 DUP3 ADD SLOAD SWAP5 DUP2 ADD SWAP5 SWAP1 SWAP5 MSTORE PUSH1 0x3 DUP2 ADD SLOAD DUP3 AND PUSH1 0x60 DUP6 ADD MSTORE PUSH1 0x4 DUP2 ADD SLOAD SWAP1 SWAP2 AND PUSH1 0x80 DUP5 ADD MSTORE SWAP1 DUP2 ADD SLOAD PUSH1 0xA0 DUP4 ADD MSTORE PUSH1 0x6 DUP2 ADD SLOAD PUSH1 0xFF AND ISZERO ISZERO PUSH1 0xC0 DUP4 ADD MSTORE PUSH1 0x7 DUP2 ADD DUP1 SLOAD SWAP4 SWAP5 POP SWAP1 SWAP3 DUP4 SWAP2 PUSH1 0xE0 DUP5 ADD SWAP2 PUSH2 0x1A41 SWAP1 PUSH2 0x2455 JUMP JUMPDEST DUP1 PUSH1 0x1F ADD PUSH1 0x20 DUP1 SWAP2 DIV MUL PUSH1 0x20 ADD PUSH1 0x40 MLOAD SWAP1 DUP2 ADD PUSH1 0x40 MSTORE DUP1 SWAP3 SWAP2 SWAP1 DUP2 DUP2 MSTORE PUSH1 0x20 ADD DUP3 DUP1 SLOAD PUSH2 0x1A6D SWAP1 PUSH2 0x2455 JUMP JUMPDEST DUP1 ISZERO PUSH2 0x1ABA JUMPI DUP1 PUSH1 0x1F LT PUSH2 0x1A8F JUMPI PUSH2 0x100 DUP1 DUP4 SLOAD DIV MUL DUP4 MSTORE SWAP2 PUSH1 0x20 ADD SWAP2 PUSH2 0x1ABA JUMP JUMPDEST DUP3 ADD SWAP2 SWAP1 PUSH1 0x0 MSTORE PUSH1 0x20 PUSH1 0x0 KECCAK256 SWAP1 JUMPDEST DUP2 SLOAD DUP2 MSTORE SWAP1 PUSH1 0x1 ADD SWAP1 PUSH1 0x20 ADD DUP1 DUP4 GT PUSH2 0x1A9D JUMPI DUP3 SWAP1 SUB PUSH1 0x1F AND DUP3 ADD SWAP2 JUMPDEST POP POP POP POP POP DUP2 MSTORE PUSH1 0x20 ADD PUSH1 0x8 DUP3 ADD SLOAD DUP2 MSTORE POP POP DUP5 DUP7 DUP2 MLOAD DUP2 LT PUSH2 0x1ADF JUMPI PUSH2 0x1ADF PUSH2 0x2490 JUMP JUMPDEST PUSH1 0x20 SWAP1 DUP2 MUL SWAP2 SWAP1 SWAP2 ADD ADD MSTORE PUSH2 0x1AF5 PUSH1 0x1 DUP7 PUSH2 0x243D JUMP JUMPDEST SWAP5 POP POP POP JUMPDEST DUP1 PUSH2 0x1B04 DUP2 PUSH2 0x24A6 JUMP JUMPDEST SWAP2 POP POP PUSH2 0x1933 JUMP JUMPDEST PUSH1 0x1 SLOAD PUSH1 0x1 PUSH1 0x1 PUSH1 0xA0 SHL SUB AND CALLER EQ PUSH2 0x1B36 JUMPI PUSH1 0x40 MLOAD PUSH3 0x461BCD PUSH1 0xE5 SHL DUP2 MSTORE PUSH1 0x4 ADD PUSH2 0x910 SWAP1 PUSH2 0x2755 JUMP JUMPDEST PUSH1 0x9 DUP1 SLOAD PUSH1 0x1 PUSH1 0x1 PUSH1 0xA0 SHL SUB SWAP1 SWAP3 AND PUSH1 0x1 PUSH1 0x1 PUSH1 0xA0 SHL SUB NOT SWAP1 SWAP3 AND DUP3 OR SWAP1 SSTORE PUSH1 0x0 SWAP1 DUP2 MSTORE PUSH1 0x6 PUSH1 0x20 MSTORE PUSH1 0x40 SWAP1 KECCAK256 DUP1 SLOAD PUSH1 0xFF NOT AND PUSH1 0x1 OR SWAP1 SSTORE JUMP JUMPDEST PUSH1 0x60 PUSH1 0x0 PUSH2 0x1B7D PUSH1 0x2 SLOAD SWAP1 JUMP JUMPDEST SWAP1 POP PUSH1 0x0 DUP1 PUSH1 0x0 JUMPDEST DUP4 DUP2 LT ISZERO PUSH2 0x1BE9 JUMPI PUSH1 0x1 PUSH1 0x1 PUSH1 0xA0 SHL SUB DUP7 AND PUSH1 0x5 PUSH1 0x0 PUSH2 0x1BA6 DUP5 PUSH1 0x1 PUSH2 0x243D JUMP JUMPDEST DUP2 MSTORE PUSH1 0x20 DUP2 ADD SWAP2 SWAP1 SWAP2 MSTORE PUSH1 0x40 ADD PUSH1 0x0 KECCAK256 PUSH1 0x3 ADD SLOAD PUSH1 0x1 PUSH1 0x1 PUSH1 0xA0 SHL SUB AND EQ ISZERO PUSH2 0x1BD7 JUMPI PUSH2 0x1BD4 PUSH1 0x1 DUP5 PUSH2 0x243D JUMP JUMPDEST SWAP3 POP JUMPDEST DUP1 PUSH2 0x1BE1 DUP2 PUSH2 0x24A6 JUMP JUMPDEST SWAP2 POP POP PUSH2 0x1B85 JUMP JUMPDEST POP PUSH1 0x0 DUP3 PUSH8 0xFFFFFFFFFFFFFFFF DUP2 GT ISZERO PUSH2 0x1C05 JUMPI PUSH2 0x1C05 PUSH2 0x2427 JUMP JUMPDEST PUSH1 0x40 MLOAD SWAP1 DUP1 DUP3 MSTORE DUP1 PUSH1 0x20 MUL PUSH1 0x20 ADD DUP3 ADD PUSH1 0x40 MSTORE DUP1 ISZERO PUSH2 0x1C3E JUMPI DUP2 PUSH1 0x20 ADD JUMPDEST PUSH2 0x1C2B PUSH2 0x2063 JUMP JUMPDEST DUP2 MSTORE PUSH1 0x20 ADD SWAP1 PUSH1 0x1 SWAP1 SUB SWAP1 DUP2 PUSH2 0x1C23 JUMPI SWAP1 POP JUMPDEST POP SWAP1 POP PUSH1 0x0 JUMPDEST DUP5 DUP2 LT ISZERO PUSH2 0x8E3 JUMPI PUSH1 0x1 PUSH1 0x1 PUSH1 0xA0 SHL SUB DUP8 AND PUSH1 0x5 PUSH1 0x0 PUSH2 0x1C65 DUP5 PUSH1 0x1 PUSH2 0x243D JUMP JUMPDEST DUP2 MSTORE PUSH1 0x20 DUP2 ADD SWAP2 SWAP1 SWAP2 MSTORE PUSH1 0x40 ADD PUSH1 0x0 KECCAK256 PUSH1 0x3 ADD SLOAD PUSH1 0x1 PUSH1 0x1 PUSH1 0xA0 SHL SUB AND EQ ISZERO PUSH2 0x1DDC JUMPI PUSH1 0x0 PUSH2 0x1C95 DUP3 PUSH1 0x1 PUSH2 0x243D JUMP JUMPDEST PUSH1 0x0 DUP2 DUP2 MSTORE PUSH1 0x5 PUSH1 0x20 DUP2 DUP2 MSTORE PUSH1 0x40 SWAP3 DUP4 SWAP1 KECCAK256 DUP4 MLOAD PUSH2 0x120 DUP2 ADD DUP6 MSTORE DUP2 SLOAD DUP2 MSTORE PUSH1 0x1 DUP3 ADD SLOAD PUSH1 0x1 PUSH1 0x1 PUSH1 0xA0 SHL SUB SWAP1 DUP2 AND SWAP4 DUP3 ADD SWAP4 SWAP1 SWAP4 MSTORE PUSH1 0x2 DUP3 ADD SLOAD SWAP5 DUP2 ADD SWAP5 SWAP1 SWAP5 MSTORE PUSH1 0x3 DUP2 ADD SLOAD DUP3 AND PUSH1 0x60 DUP6 ADD MSTORE PUSH1 0x4 DUP2 ADD SLOAD SWAP1 SWAP2 AND PUSH1 0x80 DUP5 ADD MSTORE SWAP1 DUP2 ADD SLOAD PUSH1 0xA0 DUP4 ADD MSTORE PUSH1 0x6 DUP2 ADD SLOAD PUSH1 0xFF AND ISZERO ISZERO PUSH1 0xC0 DUP4 ADD MSTORE PUSH1 0x7 DUP2 ADD DUP1 SLOAD SWAP4 SWAP5 POP SWAP1 SWAP3 DUP4 SWAP2 PUSH1 0xE0 DUP5 ADD SWAP2 PUSH2 0x1D23 SWAP1 PUSH2 0x2455 JUMP JUMPDEST DUP1 PUSH1 0x1F ADD PUSH1 0x20 DUP1 SWAP2 DIV MUL PUSH1 0x20 ADD PUSH1 0x40 MLOAD SWAP1 DUP2 ADD PUSH1 0x40 MSTORE DUP1 SWAP3 SWAP2 SWAP1 DUP2 DUP2 MSTORE PUSH1 0x20 ADD DUP3 DUP1 SLOAD PUSH2 0x1D4F SWAP1 PUSH2 0x2455 JUMP JUMPDEST DUP1 ISZERO PUSH2 0x1D9C JUMPI DUP1 PUSH1 0x1F LT PUSH2 0x1D71 JUMPI PUSH2 0x100 DUP1 DUP4 SLOAD DIV MUL DUP4 MSTORE SWAP2 PUSH1 0x20 ADD SWAP2 PUSH2 0x1D9C JUMP JUMPDEST DUP3 ADD SWAP2 SWAP1 PUSH1 0x0 MSTORE PUSH1 0x20 PUSH1 0x0 KECCAK256 SWAP1 JUMPDEST DUP2 SLOAD DUP2 MSTORE SWAP1 PUSH1 0x1 ADD SWAP1 PUSH1 0x20 ADD DUP1 DUP4 GT PUSH2 0x1D7F JUMPI DUP3 SWAP1 SUB PUSH1 0x1F AND DUP3 ADD SWAP2 JUMPDEST POP POP POP POP POP DUP2 MSTORE PUSH1 0x20 ADD PUSH1 0x8 DUP3 ADD SLOAD DUP2 MSTORE POP POP DUP5 DUP7 DUP2 MLOAD DUP2 LT PUSH2 0x1DC1 JUMPI PUSH2 0x1DC1 PUSH2 0x2490 JUMP JUMPDEST PUSH1 0x20 SWAP1 DUP2 MUL SWAP2 SWAP1 SWAP2 ADD ADD MSTORE PUSH2 0x1DD7 PUSH1 0x1 DUP7 PUSH2 0x243D JUMP JUMPDEST SWAP5 POP POP POP JUMPDEST DUP1 PUSH2 0x1DE6 DUP2 PUSH2 0x24A6 JUMP JUMPDEST SWAP2 POP POP PUSH2 0x1C44 JUMP JUMPDEST PUSH1 0x1 SLOAD PUSH1 0x1 PUSH1 0x1 PUSH1 0xA0 SHL SUB AND CALLER EQ PUSH2 0x1E18 JUMPI PUSH1 0x40 MLOAD PUSH3 0x461BCD PUSH1 0xE5 SHL DUP2 MSTORE PUSH1 0x4 ADD PUSH2 0x910 SWAP1 PUSH2 0x2755 JUMP JUMPDEST PUSH1 0x8 DUP1 SLOAD PUSH1 0x1 PUSH1 0x1 PUSH1 0xA0 SHL SUB NOT AND PUSH1 0x1 PUSH1 0x1 PUSH1 0xA0 SHL SUB SWAP3 SWAP1 SWAP3 AND SWAP2 SWAP1 SWAP2 OR SWAP1 SSTORE JUMP JUMPDEST PUSH1 0x5 PUSH1 0x20 DUP2 SWAP1 MSTORE PUSH1 0x0 SWAP2 DUP3 MSTORE PUSH1 0x40 SWAP1 SWAP2 KECCAK256 DUP1 SLOAD PUSH1 0x1 DUP3 ADD SLOAD PUSH1 0x2 DUP4 ADD SLOAD PUSH1 0x3 DUP5 ADD SLOAD PUSH1 0x4 DUP6 ADD SLOAD SWAP6 DUP6 ADD SLOAD PUSH1 0x6 DUP7 ADD SLOAD PUSH1 0x7 DUP8 ADD DUP1 SLOAD SWAP7 SWAP9 PUSH1 0x1 PUSH1 0x1 PUSH1 0xA0 SHL SUB SWAP7 DUP8 AND SWAP9 SWAP6 SWAP8 SWAP5 DUP8 AND SWAP7 AND SWAP5 SWAP3 SWAP4 PUSH1 0xFF SWAP1 SWAP3 AND SWAP3 SWAP2 PUSH2 0x1E98 SWAP1 PUSH2 0x2455 JUMP JUMPDEST DUP1 PUSH1 0x1F ADD PUSH1 0x20 DUP1 SWAP2 DIV MUL PUSH1 0x20 ADD PUSH1 0x40 MLOAD SWAP1 DUP2 ADD PUSH1 0x40 MSTORE DUP1 SWAP3 SWAP2 SWAP1 DUP2 DUP2 MSTORE PUSH1 0x20 ADD DUP3 DUP1 SLOAD PUSH2 0x1EC4 SWAP1 PUSH2 0x2455 JUMP JUMPDEST DUP1 ISZERO PUSH2 0x1F11 JUMPI DUP1 PUSH1 0x1F LT PUSH2 0x1EE6 JUMPI PUSH2 0x100 DUP1 DUP4 SLOAD DIV MUL DUP4 MSTORE SWAP2 PUSH1 0x20 ADD SWAP2 PUSH2 0x1F11 JUMP JUMPDEST DUP3 ADD SWAP2 SWAP1 PUSH1 0x0 MSTORE PUSH1 0x20 PUSH1 0x0 KECCAK256 SWAP1 JUMPDEST DUP2 SLOAD DUP2 MSTORE SWAP1 PUSH1 0x1 ADD SWAP1 PUSH1 0x20 ADD DUP1 DUP4 GT PUSH2 0x1EF4 JUMPI DUP3 SWAP1 SUB PUSH1 0x1F AND DUP3 ADD SWAP2 JUMPDEST POP POP POP POP POP SWAP1 DUP1 PUSH1 0x8 ADD SLOAD SWAP1 POP DUP10 JUMP JUMPDEST PUSH1 0x1 SLOAD PUSH1 0x1 PUSH1 0x1 PUSH1 0xA0 SHL SUB AND CALLER EQ PUSH2 0x1F4B JUMPI PUSH1 0x40 MLOAD PUSH3 0x461BCD PUSH1 0xE5 SHL DUP2 MSTORE PUSH1 0x4 ADD PUSH2 0x910 SWAP1 PUSH2 0x2755 JUMP JUMPDEST PUSH1 0x1 PUSH1 0x1 PUSH1 0xA0 SHL SUB DUP2 AND PUSH2 0x1FB0 JUMPI PUSH1 0x40 MLOAD PUSH3 0x461BCD PUSH1 0xE5 SHL DUP2 MSTORE PUSH1 0x20 PUSH1 0x4 DUP3 ADD MSTORE PUSH1 0x26 PUSH1 0x24 DUP3 ADD MSTORE PUSH32 0x4F776E61626C653A206E6577206F776E657220697320746865207A65726F2061 PUSH1 0x44 DUP3 ADD MSTORE PUSH6 0x646472657373 PUSH1 0xD0 SHL PUSH1 0x64 DUP3 ADD MSTORE PUSH1 0x84 ADD PUSH2 0x910 JUMP JUMPDEST PUSH2 0x1FB9 DUP2 PUSH2 0x2011 JUMP JUMPDEST POP JUMP JUMPDEST PUSH1 0x1 SLOAD PUSH1 0x1 PUSH1 0x1 PUSH1 0xA0 SHL SUB AND CALLER EQ PUSH2 0x1FE6 JUMPI PUSH1 0x40 MLOAD PUSH3 0x461BCD PUSH1 0xE5 SHL DUP2 MSTORE PUSH1 0x4 ADD PUSH2 0x910 SWAP1 PUSH2 0x2755 JUMP JUMPDEST PUSH1 0x1 PUSH1 0x1 PUSH1 0xA0 SHL SUB SWAP2 SWAP1 SWAP2 AND PUSH1 0x0 SWAP1 DUP2 MSTORE PUSH1 0x7 PUSH1 0x20 MSTORE PUSH1 0x40 SWAP1 KECCAK256 DUP1 SLOAD PUSH1 0xFF NOT AND SWAP2 ISZERO ISZERO SWAP2 SWAP1 SWAP2 OR SWAP1 SSTORE JUMP JUMPDEST PUSH1 0x1 DUP1 SLOAD PUSH1 0x1 PUSH1 0x1 PUSH1 0xA0 SHL SUB DUP4 DUP2 AND PUSH1 0x1 PUSH1 0x1 PUSH1 0xA0 SHL SUB NOT DUP4 AND DUP2 OR SWAP1 SWAP4 SSTORE PUSH1 0x40 MLOAD SWAP2 AND SWAP2 SWAP1 DUP3 SWAP1 PUSH32 0x8BE0079C531659141344CD1FD0A4F28419497F9722A3DAAFE3B4186F6B6457E0 SWAP1 PUSH1 0x0 SWAP1 LOG3 POP POP JUMP JUMPDEST PUSH1 0x40 MLOAD DUP1 PUSH2 0x120 ADD PUSH1 0x40 MSTORE DUP1 PUSH1 0x0 DUP2 MSTORE PUSH1 0x20 ADD PUSH1 0x0 PUSH1 0x1 PUSH1 0x1 PUSH1 0xA0 SHL SUB AND DUP2 MSTORE PUSH1 0x20 ADD PUSH1 0x0 DUP2 MSTORE PUSH1 0x20 ADD PUSH1 0x0 PUSH1 0x1 PUSH1 0x1 PUSH1 0xA0 SHL SUB AND DUP2 MSTORE PUSH1 0x20 ADD PUSH1 0x0 PUSH1 0x1 PUSH1 0x1 PUSH1 0xA0 SHL SUB AND DUP2 MSTORE PUSH1 0x20 ADD PUSH1 0x0 DUP2 MSTORE PUSH1 0x20 ADD PUSH1 0x0 ISZERO ISZERO DUP2 MSTORE PUSH1 0x20 ADD PUSH1 0x60 DUP2 MSTORE PUSH1 0x20 ADD PUSH1 0x0 DUP2 MSTORE POP SWAP1 JUMP JUMPDEST DUP3 DUP1 SLOAD PUSH2 0x20D8 SWAP1 PUSH2 0x2455 JUMP JUMPDEST SWAP1 PUSH1 0x0 MSTORE PUSH1 0x20 PUSH1 0x0 KECCAK256 SWAP1 PUSH1 0x1F ADD PUSH1 0x20 SWAP1 DIV DUP2 ADD SWAP3 DUP3 PUSH2 0x20FA JUMPI PUSH1 0x0 DUP6 SSTORE PUSH2 0x2140 JUMP JUMPDEST DUP3 PUSH1 0x1F LT PUSH2 0x2113 JUMPI DUP1 MLOAD PUSH1 0xFF NOT AND DUP4 DUP1 ADD OR DUP6 SSTORE PUSH2 0x2140 JUMP JUMPDEST DUP3 DUP1 ADD PUSH1 0x1 ADD DUP6 SSTORE DUP3 ISZERO PUSH2 0x2140 JUMPI SWAP2 DUP3 ADD JUMPDEST DUP3 DUP2 GT ISZERO PUSH2 0x2140 JUMPI DUP3 MLOAD DUP3 SSTORE SWAP2 PUSH1 0x20 ADD SWAP2 SWAP1 PUSH1 0x1 ADD SWAP1 PUSH2 0x2125 JUMP JUMPDEST POP PUSH2 0x214C SWAP3 SWAP2 POP PUSH2 0x2150 JUMP JUMPDEST POP SWAP1 JUMP JUMPDEST JUMPDEST DUP1 DUP3 GT ISZERO PUSH2 0x214C JUMPI PUSH1 0x0 DUP2 SSTORE PUSH1 0x1 ADD PUSH2 0x2151 JUMP JUMPDEST PUSH1 0x0 JUMPDEST DUP4 DUP2 LT ISZERO PUSH2 0x2180 JUMPI DUP2 DUP2 ADD MLOAD DUP4 DUP3 ADD MSTORE PUSH1 0x20 ADD PUSH2 0x2168 JUMP JUMPDEST DUP4 DUP2 GT ISZERO PUSH2 0x218F JUMPI PUSH1 0x0 DUP5 DUP5 ADD MSTORE JUMPDEST POP POP POP POP JUMP JUMPDEST PUSH1 0x0 DUP2 MLOAD DUP1 DUP5 MSTORE PUSH2 0x21AD DUP2 PUSH1 0x20 DUP7 ADD PUSH1 0x20 DUP7 ADD PUSH2 0x2165 JUMP JUMPDEST PUSH1 0x1F ADD PUSH1 0x1F NOT AND SWAP3 SWAP1 SWAP3 ADD PUSH1 0x20 ADD SWAP3 SWAP2 POP POP JUMP JUMPDEST PUSH1 0x0 PUSH1 0x20 DUP1 DUP4 ADD DUP2 DUP5 MSTORE DUP1 DUP6 MLOAD DUP1 DUP4 MSTORE PUSH1 0x40 SWAP3 POP DUP3 DUP7 ADD SWAP2 POP DUP3 DUP2 PUSH1 0x5 SHL DUP8 ADD ADD DUP5 DUP9 ADD PUSH1 0x0 JUMPDEST DUP4 DUP2 LT ISZERO PUSH2 0x2289 JUMPI PUSH1 0x3F NOT DUP10 DUP5 SUB ADD DUP6 MSTORE DUP2 MLOAD DUP1 MLOAD DUP5 MSTORE DUP8 DUP2 ADD MLOAD PUSH1 0x1 PUSH1 0x1 PUSH1 0xA0 SHL SUB SWAP1 DUP2 AND DUP10 DUP7 ADD MSTORE DUP8 DUP3 ADD MLOAD DUP9 DUP7 ADD MSTORE PUSH1 0x60 DUP1 DUP4 ADD MLOAD DUP3 AND SWAP1 DUP7 ADD MSTORE PUSH1 0x80 DUP1 DUP4 ADD MLOAD SWAP1 SWAP2 AND SWAP1 DUP6 ADD MSTORE PUSH1 0xA0 DUP1 DUP3 ADD MLOAD SWAP1 DUP6 ADD MSTORE PUSH1 0xC0 DUP1 DUP3 ADD MLOAD ISZERO ISZERO SWAP1 DUP6 ADD MSTORE PUSH1 0xE0 DUP1 DUP3 ADD MLOAD PUSH2 0x120 DUP3 DUP8 ADD DUP2 SWAP1 MSTORE SWAP2 SWAP1 PUSH2 0x2266 DUP4 DUP9 ADD DUP3 PUSH2 0x2195 JUMP JUMPDEST PUSH2 0x100 SWAP5 DUP6 ADD MLOAD SWAP8 SWAP1 SWAP5 ADD SWAP7 SWAP1 SWAP7 MSTORE POP POP SWAP5 DUP8 ADD SWAP5 SWAP3 POP SWAP1 DUP7 ADD SWAP1 PUSH1 0x1 ADD PUSH2 0x21E8 JUMP JUMPDEST POP SWAP1 SWAP9 SWAP8 POP POP POP POP POP POP POP POP JUMP JUMPDEST PUSH1 0x1 PUSH1 0x1 PUSH1 0xA0 SHL SUB DUP2 AND DUP2 EQ PUSH2 0x1FB9 JUMPI PUSH1 0x0 DUP1 REVERT JUMPDEST PUSH1 0x0 PUSH1 0x20 DUP3 DUP5 SUB SLT ISZERO PUSH2 0x22BE JUMPI PUSH1 0x0 DUP1 REVERT JUMPDEST DUP2 CALLDATALOAD PUSH2 0x22C9 DUP2 PUSH2 0x2297 JUMP JUMPDEST SWAP4 SWAP3 POP POP POP JUMP JUMPDEST PUSH1 0x0 DUP1 PUSH1 0x40 DUP4 DUP6 SUB SLT ISZERO PUSH2 0x22E3 JUMPI PUSH1 0x0 DUP1 REVERT JUMPDEST DUP3 CALLDATALOAD PUSH2 0x22EE DUP2 PUSH2 0x2297 JUMP JUMPDEST SWAP5 PUSH1 0x20 SWAP4 SWAP1 SWAP4 ADD CALLDATALOAD SWAP4 POP POP POP JUMP JUMPDEST PUSH1 0x0 DUP1 PUSH1 0x0 PUSH1 0x60 DUP5 DUP7 SUB SLT ISZERO PUSH2 0x2311 JUMPI PUSH1 0x0 DUP1 REVERT JUMPDEST DUP4 CALLDATALOAD PUSH2 0x231C DUP2 PUSH2 0x2297 JUMP JUMPDEST SWAP6 PUSH1 0x20 DUP6 ADD CALLDATALOAD SWAP6 POP PUSH1 0x40 SWAP1 SWAP5 ADD CALLDATALOAD SWAP4 SWAP3 POP POP POP JUMP JUMPDEST PUSH1 0x0 PUSH1 0x20 DUP3 DUP5 SUB SLT ISZERO PUSH2 0x2343 JUMPI PUSH1 0x0 DUP1 REVERT JUMPDEST POP CALLDATALOAD SWAP2 SWAP1 POP JUMP JUMPDEST DUP10 DUP2 MSTORE PUSH1 0x1 PUSH1 0x1 PUSH1 0xA0 SHL SUB DUP10 DUP2 AND PUSH1 0x20 DUP4 ADD MSTORE PUSH1 0x40 DUP3 ADD DUP10 SWAP1 MSTORE DUP8 DUP2 AND PUSH1 0x60 DUP4 ADD MSTORE DUP7 AND PUSH1 0x80 DUP3 ADD MSTORE PUSH1 0xA0 DUP2 ADD DUP6 SWAP1 MSTORE DUP4 ISZERO ISZERO PUSH1 0xC0 DUP3 ADD MSTORE PUSH2 0x120 PUSH1 0xE0 DUP3 ADD DUP2 SWAP1 MSTORE PUSH1 0x0 SWAP1 PUSH2 0x239B DUP4 DUP3 ADD DUP7 PUSH2 0x2195 JUMP JUMPDEST SWAP2 POP POP DUP3 PUSH2 0x100 DUP4 ADD MSTORE SWAP11 SWAP10 POP POP POP POP POP POP POP POP POP POP JUMP JUMPDEST DUP1 ISZERO ISZERO DUP2 EQ PUSH2 0x1FB9 JUMPI PUSH1 0x0 DUP1 REVERT JUMPDEST PUSH1 0x0 DUP1 PUSH1 0x40 DUP4 DUP6 SUB SLT ISZERO PUSH2 0x23D4 JUMPI PUSH1 0x0 DUP1 REVERT JUMPDEST DUP3 CALLDATALOAD PUSH2 0x23DF DUP2 PUSH2 0x2297 JUMP JUMPDEST SWAP2 POP PUSH1 0x20 DUP4 ADD CALLDATALOAD PUSH2 0x23EF DUP2 PUSH2 0x23B3 JUMP JUMPDEST DUP1 SWAP2 POP POP SWAP3 POP SWAP3 SWAP1 POP JUMP JUMPDEST PUSH4 0x4E487B71 PUSH1 0xE0 SHL PUSH1 0x0 MSTORE PUSH1 0x11 PUSH1 0x4 MSTORE PUSH1 0x24 PUSH1 0x0 REVERT JUMPDEST PUSH1 0x0 DUP3 DUP3 LT ISZERO PUSH2 0x2422 JUMPI PUSH2 0x2422 PUSH2 0x23FA JUMP JUMPDEST POP SUB SWAP1 JUMP JUMPDEST PUSH4 0x4E487B71 PUSH1 0xE0 SHL PUSH1 0x0 MSTORE PUSH1 0x41 PUSH1 0x4 MSTORE PUSH1 0x24 PUSH1 0x0 REVERT JUMPDEST PUSH1 0x0 DUP3 NOT DUP3 GT ISZERO PUSH2 0x2450 JUMPI PUSH2 0x2450 PUSH2 0x23FA JUMP JUMPDEST POP ADD SWAP1 JUMP JUMPDEST PUSH1 0x1 DUP2 DUP2 SHR SWAP1 DUP3 AND DUP1 PUSH2 0x2469 JUMPI PUSH1 0x7F DUP3 AND SWAP2 POP JUMPDEST PUSH1 0x20 DUP3 LT DUP2 EQ ISZERO PUSH2 0x248A JUMPI PUSH4 0x4E487B71 PUSH1 0xE0 SHL PUSH1 0x0 MSTORE PUSH1 0x22 PUSH1 0x4 MSTORE PUSH1 0x24 PUSH1 0x0 REVERT JUMPDEST POP SWAP2 SWAP1 POP JUMP JUMPDEST PUSH4 0x4E487B71 PUSH1 0xE0 SHL PUSH1 0x0 MSTORE PUSH1 0x32 PUSH1 0x4 MSTORE PUSH1 0x24 PUSH1 0x0 REVERT JUMPDEST PUSH1 0x0 PUSH1 0x0 NOT DUP3 EQ ISZERO PUSH2 0x24BA JUMPI PUSH2 0x24BA PUSH2 0x23FA JUMP JUMPDEST POP PUSH1 0x1 ADD SWAP1 JUMP JUMPDEST PUSH1 0x20 DUP1 DUP3 MSTORE PUSH1 0x1F SWAP1 DUP3 ADD MSTORE PUSH32 0x5265656E7472616E637947756172643A207265656E7472616E742063616C6C00 PUSH1 0x40 DUP3 ADD MSTORE PUSH1 0x60 ADD SWAP1 JUMP JUMPDEST PUSH1 0x20 DUP1 DUP3 MSTORE PUSH1 0x29 SWAP1 DUP3 ADD MSTORE PUSH32 0x546869732069736E277420612076616C69642043617264696E616C204E465420 PUSH1 0x40 DUP3 ADD MSTORE PUSH9 0x31B7B73A3930B1BA17 PUSH1 0xB9 SHL PUSH1 0x60 DUP3 ADD MSTORE PUSH1 0x80 ADD SWAP1 JUMP JUMPDEST PUSH1 0x20 DUP1 DUP3 MSTORE PUSH1 0x89 SWAP1 DUP3 ADD MSTORE PUSH32 0x596F752068617665206265656E20626C61636B6C69737465642066726F6D2074 PUSH1 0x40 DUP3 ADD MSTORE PUSH32 0x68652043617264696E616C20486F757365204E4654206D61726B6574706C6163 PUSH1 0x60 DUP3 ADD MSTORE PUSH32 0x652E20496620796F75207468696E6B207468697320697320616E206572726F72 PUSH1 0x80 DUP3 ADD MSTORE PUSH32 0x2C20706C6561736520636F6E74616374207468652043617264696E616C20486F PUSH1 0xA0 DUP3 ADD MSTORE PUSH9 0x3AB9B2903A32B0B697 PUSH1 0xB9 SHL PUSH1 0xC0 DUP3 ADD MSTORE PUSH1 0xE0 ADD SWAP1 JUMP JUMPDEST PUSH1 0x1 PUSH1 0x1 PUSH1 0xA0 SHL SUB SWAP4 DUP5 AND DUP2 MSTORE SWAP2 SWAP1 SWAP3 AND PUSH1 0x20 DUP3 ADD MSTORE PUSH1 0x40 DUP2 ADD SWAP2 SWAP1 SWAP2 MSTORE PUSH1 0x60 ADD SWAP1 JUMP JUMPDEST PUSH1 0x0 PUSH1 0x20 DUP3 DUP5 SUB SLT ISZERO PUSH2 0x2632 JUMPI PUSH1 0x0 DUP1 REVERT JUMPDEST DUP2 MLOAD PUSH8 0xFFFFFFFFFFFFFFFF DUP1 DUP3 GT ISZERO PUSH2 0x264A JUMPI PUSH1 0x0 DUP1 REVERT JUMPDEST DUP2 DUP5 ADD SWAP2 POP DUP5 PUSH1 0x1F DUP4 ADD SLT PUSH2 0x265E JUMPI PUSH1 0x0 DUP1 REVERT JUMPDEST DUP2 MLOAD DUP2 DUP2 GT ISZERO PUSH2 0x2670 JUMPI PUSH2 0x2670 PUSH2 0x2427 JUMP JUMPDEST PUSH1 0x40 MLOAD PUSH1 0x1F DUP3 ADD PUSH1 0x1F NOT SWAP1 DUP2 AND PUSH1 0x3F ADD AND DUP2 ADD SWAP1 DUP4 DUP3 GT DUP2 DUP4 LT OR ISZERO PUSH2 0x2698 JUMPI PUSH2 0x2698 PUSH2 0x2427 JUMP JUMPDEST DUP2 PUSH1 0x40 MSTORE DUP3 DUP2 MSTORE DUP8 PUSH1 0x20 DUP5 DUP8 ADD ADD GT ISZERO PUSH2 0x26B1 JUMPI PUSH1 0x0 DUP1 REVERT JUMPDEST PUSH2 0x26C2 DUP4 PUSH1 0x20 DUP4 ADD PUSH1 0x20 DUP9 ADD PUSH2 0x2165 JUMP JUMPDEST SWAP8 SWAP7 POP POP POP POP POP POP POP JUMP JUMPDEST PUSH1 0x1 PUSH1 0x1 PUSH1 0xA0 SHL SUB DUP8 DUP2 AND DUP3 MSTORE DUP7 AND PUSH1 0x20 DUP3 ADD MSTORE PUSH1 0x40 DUP2 ADD DUP6 SWAP1 MSTORE DUP4 ISZERO ISZERO PUSH1 0x60 DUP3 ADD MSTORE PUSH1 0xC0 PUSH1 0x80 DUP3 ADD DUP2 SWAP1 MSTORE PUSH1 0x0 SWAP1 PUSH2 0x2708 SWAP1 DUP4 ADD DUP6 PUSH2 0x2195 JUMP JUMPDEST SWAP1 POP DUP3 PUSH1 0xA0 DUP4 ADD MSTORE SWAP8 SWAP7 POP POP POP POP POP POP POP JUMP JUMPDEST PUSH1 0x0 PUSH1 0x20 DUP3 DUP5 SUB SLT ISZERO PUSH2 0x272D JUMPI PUSH1 0x0 DUP1 REVERT JUMPDEST DUP2 MLOAD PUSH2 0x22C9 DUP2 PUSH2 0x2297 JUMP JUMPDEST PUSH1 0x0 PUSH1 0x20 DUP3 DUP5 SUB SLT ISZERO PUSH2 0x274A JUMPI PUSH1 0x0 DUP1 REVERT JUMPDEST DUP2 MLOAD PUSH2 0x22C9 DUP2 PUSH2 0x23B3 JUMP JUMPDEST PUSH1 0x20 DUP1 DUP3 MSTORE DUP2 DUP2 ADD MSTORE PUSH32 0x4F776E61626C653A2063616C6C6572206973206E6F7420746865206F776E6572 PUSH1 0x40 DUP3 ADD MSTORE PUSH1 0x60 ADD SWAP1 JUMP JUMPDEST PUSH1 0x0 PUSH1 0x20 DUP3 DUP5 SUB SLT ISZERO PUSH2 0x279C JUMPI PUSH1 0x0 DUP1 REVERT JUMPDEST POP MLOAD SWAP2 SWAP1 POP JUMP INVALID LOG2 PUSH5 0x6970667358 0x22 SLT KECCAK256 0x2D AND 0xC1 DUP6 EXTCODESIZE BYTE 0xD3 0xF GASPRICE DUP5 0xB9 0xC4 0xEF PUSH14 0xD6BB1A68DD06084822A2F076A527 PUSH26 0xD772CC64736F6C63430008080033000000000000000000000000 ",
  "sha1": "9c888901f5b6d4848187b178cef918afc3b1788d",
  "source": "// SPDX-License-Identifier: MIT\npragma solidity 0.8.8;\n\nimport \"@openzeppelin/contracts/utils/Counters.sol\";\nimport \"@openzeppelin/contracts/security/ReentrancyGuard.sol\";\nimport \"@openzeppelin/contracts/token/ERC721/ERC721.sol\";\nimport \"@openzeppelin/contracts/access/Ownable.sol\";\nimport './CardinalNFT.sol';\nimport './CardinalToken.sol';\n\n/**\n * @title Cardinal House NFT Marketplace Contract\n * @dev NFT marketplace contract that users will interact with on the Cardinal House website\n */\ncontract CardinalHouseMarketplace is ReentrancyGuard, Ownable {\n  using Counters for Counters.Counter;\n\n  // Counter to give each marketplace item a unique ID.\n  Counters.Counter public _itemIds;\n\n  // Counter to keep track of how many items have been sold on the Cardinal House marketplace.\n  Counters.Counter public _itemsSold;\n\n  // The default listing fee for any users that want to resell their Cardinal NFTs.\n  uint256 defaultListingPrice = 0 ether;\n\n  // Properties of a Cardinal NFT on the marketplace.\n  struct MarketItem {\n    uint itemId;\n    address nftContract;\n    uint256 tokenId;\n    address payable seller;\n    address payable owner;\n    uint256 price;\n    bool sold;\n    string tokenURI;\n    uint256 listingPrice;\n  }\n\n  // Maps each NFT's marketplace item ID to all of the properties for the NFT on the marketplace.\n  mapping(uint256 => MarketItem) public idToMarketItem;\n\n  // If the NFT contract address ever changes, this mapping keeps track of past NFT contract addresses\n  // so that users can still sell NFTs minted with the old contract on the marketplace. If a user tries\n  // to sell an NFT from a contract that isn't true in this mapping, it will be rejected.\n  mapping (address => bool) public addressToPreviousNFTAddress;\n\n  // Blacklist mapping for listing and purchasing Cardinal NFTs.\n  // If this mapping is true for an address then they can't use the marketplace.\n  mapping (address => bool) public blacklist;\n\n  // References the deployed Cardinal Token.\n  CardinalToken public cardinalToken;\n\n  // References the deployed Cardinal NFT contract.\n  CardinalNFT public cardinalNFT;\n\n  // Event emitted whenever a Cardinal NFT is put up for sale on the Cardinal House marketplace.\n  event MarketItemCreated (\n    uint indexed itemId,\n    address indexed nftContract,\n    uint256 indexed tokenId,\n    address seller,\n    address owner,\n    uint256 price,\n    bool sold,\n    string tokenURI,\n    uint256 listingPrice\n  );\n\n  // Event emitted whenever a Cardinal NFT is sold on the Cardinal House marketplace.\n  event MarketItemSold (\n    uint indexed itemId,\n    address indexed nftContract,\n    uint256 indexed tokenId,\n    address seller,\n    address owner,\n    uint256 price,\n    bool sold,\n    string tokenURI,\n    uint256 listingPrice\n  );\n\n  // Event emitted whenever a Cardinal NFT sale is canceled on the Cardinal House marketplace.\n  event MarketItemSaleCanceled (\n    uint indexed itemId,\n    address indexed nftContract,\n    uint256 indexed tokenId,\n    address seller,\n    address owner,\n    uint256 price,\n    bool sold,\n    string tokenURI,\n    uint256 listingPrice\n  );\n\n  event defaultListingpriceUpdated(uint256 indexed newDefaultListingPrice);\n\n  constructor(address payable CardinalTokenAddress) {\n    cardinalToken = CardinalToken(CardinalTokenAddress);\n  }\n\n  /**\n  * @dev Gets the listing price for listing an NFT on the marketplace\n  * @return the current listing price\n  */\n  function getDefaultListingPrice() external view returns (uint256) {\n    return defaultListingPrice;\n  }\n\n  /**\n  * @dev Only owner function to set the listing price\n  * @param newDefaultListingPrice the new default listing price\n  */\n  function setDefaultListingPrice(uint256 newDefaultListingPrice) external onlyOwner {\n      defaultListingPrice = newDefaultListingPrice;\n      emit defaultListingpriceUpdated(newDefaultListingPrice);\n  }\n\n  /**\n  * @dev Only owner function to set the reference to the Cardinal Token (CRNL)\n  * @param CardinalTokenAddress the contract address for the Cardinal Token\n  */\n  function setCardinalToken(address payable CardinalTokenAddress) external onlyOwner {\n      cardinalToken = CardinalToken(CardinalTokenAddress);\n  }\n\n  /**\n  * @dev Only owner function to set the reference to the Cardinal NFT contract\n  * @param CardinalNFTAddress the address for the Cardinal NFT contract\n  */\n  function setCardinalNFT(address payable CardinalNFTAddress) external onlyOwner {\n      cardinalNFT = CardinalNFT(CardinalNFTAddress);\n      addressToPreviousNFTAddress[CardinalNFTAddress] = true;\n  }\n  \n  /**\n  * @dev Function to list a Cardinal NFT on the marketplace\n  * @param nftContract contract that the NFT was minted on. Only accepts Cardinal NFT contract addresses\n  * @param tokenId the token ID of the NFT on the NFT contract\n  * @param price the price of the token in Cardinal Tokens (CRNL)\n  */\n  function createMarketItem(\n    address nftContract,\n    uint256 tokenId,\n    uint256 price\n  ) external payable nonReentrant {\n    require(addressToPreviousNFTAddress[nftContract], \"This isn't a valid Cardinal NFT contract.\");\n    require(!blacklist[msg.sender], \"You have been blacklisted from the Cardinal House NFT marketplace. If you think this is an error, please contact the Cardinal House team.\");\n    require(price > 0, \"The NFT price must be at least 1 wei.\");\n\n    uint256 nftListingPrice = cardinalNFT.tokenIdToListingFee(tokenId);\n    if (nftListingPrice == 0) {\n      nftListingPrice = defaultListingPrice;\n    }\n\n    if (msg.sender != owner() && nftListingPrice > 0) {\n        require(msg.value == nftListingPrice, \"Not enough or too much Matic was sent to pay the NFT listing fee.\");\n    }\n    else if (nftListingPrice > 0) {\n      payable(owner()).transfer(msg.value);\n    }\n\n    _itemIds.increment();\n    uint256 itemId = _itemIds.current();\n  \n    idToMarketItem[itemId] =  MarketItem(\n      itemId,\n      nftContract,\n      tokenId,\n      payable(msg.sender),\n      payable(address(0)),\n      price,\n      false,\n      IERC721Metadata(nftContract).tokenURI(tokenId),\n      nftListingPrice\n    );\n\n    IERC721(nftContract).transferFrom(msg.sender, address(this), tokenId);\n\n    emit MarketItemCreated(\n      itemId,\n      nftContract,\n      tokenId,\n      msg.sender,\n      address(0),\n      price,\n      false,\n      IERC721Metadata(nftContract).tokenURI(tokenId),\n      nftListingPrice\n    );\n  }\n\n  /**\n  * @dev Creates the sale of a marketplace item. Transfers ownership of the NFT and sends funds to the seller\n  * @param nftContract contract that the NFT was minted on. Only accepts Cardinal NFT contract addresses\n  * @param itemId the item ID of the NFT on the marketplace\n  * @param amountIn the amount of Cardinal Token the user is supplying to purchase the NFT\n  */\n  function createMarketSale(\n    address nftContract,\n    uint256 itemId,\n    uint256 amountIn\n    ) external nonReentrant {\n    require(addressToPreviousNFTAddress[nftContract], \"This isn't a valid Cardinal NFT contract.\");\n    require(!blacklist[msg.sender], \"You have been blacklisted from the Cardinal House NFT marketplace. If you think this is an error, please contact the Cardinal House team.\");\n    require(!idToMarketItem[itemId].sold, \"This marketplace item has already been sold.\");\n\n    uint tokenId = idToMarketItem[itemId].tokenId;\n    if (cardinalNFT.tokenIdToWhitelistAddress(tokenId) != address(0) && idToMarketItem[itemId].seller == owner()) {\n      require(msg.sender == cardinalNFT.tokenIdToWhitelistAddress(tokenId), \"This NFT has been assigned to someone through a Whitelist spot. Only they can purchase this NFT.\");\n    }\n\n    uint price = idToMarketItem[itemId].price;\n    require(amountIn == price, \"Please submit the asking price in order to complete the purchase.\");\n\n    cardinalToken.transferFrom(msg.sender, idToMarketItem[itemId].seller, amountIn);\n\n    idToMarketItem[itemId].owner = payable(msg.sender);\n    idToMarketItem[itemId].sold = true;\n    IERC721(nftContract).transferFrom(address(this), msg.sender, tokenId);\n    _itemsSold.increment();\n\n    if (idToMarketItem[itemId].seller != owner() && idToMarketItem[itemId].listingPrice > 0) {\n      payable(owner()).transfer(idToMarketItem[itemId].listingPrice);\n    }\n\n    emit MarketItemSold(\n      itemId,\n      nftContract,\n      tokenId,\n      idToMarketItem[itemId].seller,\n      msg.sender,\n      price,\n      true,\n      IERC721Metadata(nftContract).tokenURI(tokenId),\n      idToMarketItem[itemId].listingPrice\n    );\n  }\n\n  /**\n  * @dev Cancels an NFT listing on the marketplace and returns the listing fee to the seller\n  * @param nftContract contract that the NFT was minted on. Only accepts Cardinal NFT contract addresses\n  * @param itemId the item ID of the NFT on the marketplace\n  */\n  function cancelMarketSale(\n    address nftContract,\n    uint256 itemId\n    ) external nonReentrant {\n    require(addressToPreviousNFTAddress[nftContract], \"This isn't a valid Cardinal NFT contract.\");\n    require(!blacklist[msg.sender], \"You have been blacklisted from the Cardinal House NFT marketplace. If you think this is an error, please contact the Cardinal House team.\");\n    uint tokenId = idToMarketItem[itemId].tokenId;\n    address itemSeller = idToMarketItem[itemId].seller;\n    bool itemSold = idToMarketItem[itemId].sold;\n    require(itemSeller == msg.sender || msg.sender == owner(), \"You can only cancel your own NFT listings.\");\n    require(!itemSold, \"This NFT has already been sold.\");\n\n    idToMarketItem[itemId].owner = payable(idToMarketItem[itemId].seller);\n    idToMarketItem[itemId].sold = true;\n    IERC721(nftContract).transferFrom(address(this), idToMarketItem[itemId].seller, tokenId);\n\n    _itemsSold.increment();\n    if (idToMarketItem[itemId].seller != owner() && idToMarketItem[itemId].listingPrice > 0) {\n        payable(idToMarketItem[itemId].seller).transfer(idToMarketItem[itemId].listingPrice);\n    }\n\n    emit MarketItemSaleCanceled(\n      itemId,\n      nftContract,\n      tokenId,\n      itemSeller,\n      itemSeller,\n      idToMarketItem[itemId].price,\n      true,\n      IERC721Metadata(nftContract).tokenURI(tokenId),\n      idToMarketItem[itemId].listingPrice\n    );\n  }\n\n  /**\n  * @dev Returns all unsold market items\n  * @return the list of market items that haven't been sold\n  */\n  function fetchMarketItems() external view returns (MarketItem[] memory) {\n    uint itemCount = _itemIds.current();\n    uint unsoldItemCount = _itemIds.current() - _itemsSold.current();\n    uint currentIndex = 0;\n\n    MarketItem[] memory items = new MarketItem[](unsoldItemCount);\n    for (uint i = 0; i < itemCount; i++) {\n      if (idToMarketItem[i + 1].owner == address(0)) {\n        uint currentId = i + 1;\n        MarketItem storage currentItem = idToMarketItem[currentId];\n        items[currentIndex] = currentItem;\n        currentIndex += 1;\n      }\n    }\n    return items;\n  }\n\n  /**\n  * @dev Returns only items that a user has purchased\n  * @param user the user to fetch the NFTs for\n  * @return the list of market items the user owners\n  */\n  function fetchMyNFTs(address user) external view returns (MarketItem[] memory) {\n    uint totalItemCount = _itemIds.current();\n    uint itemCount = 0;\n    uint currentIndex = 0;\n\n    for (uint i = 0; i < totalItemCount; i++) {\n      if (idToMarketItem[i + 1].owner == user) {\n        itemCount += 1;\n      }\n    }\n\n    MarketItem[] memory items = new MarketItem[](itemCount);\n    for (uint i = 0; i < totalItemCount; i++) {\n      if (idToMarketItem[i + 1].owner == user) {\n        uint currentId = i + 1;\n        MarketItem storage currentItem = idToMarketItem[currentId];\n        items[currentIndex] = currentItem;\n        currentIndex += 1;\n      }\n    }\n    return items;\n  }\n\n  /**\n  * @dev Returns only items a user has created\n  * @param user the user to fetch the items created for\n  * @return the list of market items the user has put on the market\n  */\n  function fetchItemsCreated(address user) external view returns (MarketItem[] memory) {\n    uint totalItemCount = _itemIds.current();\n    uint itemCount = 0;\n    uint currentIndex = 0;\n\n    for (uint i = 0; i < totalItemCount; i++) {\n      if (idToMarketItem[i + 1].seller == user) {\n        itemCount += 1;\n      }\n    }\n\n    MarketItem[] memory items = new MarketItem[](itemCount);\n    for (uint i = 0; i < totalItemCount; i++) {\n      if (idToMarketItem[i + 1].seller == user) {\n        uint currentId = i + 1;\n        MarketItem storage currentItem = idToMarketItem[currentId];\n        items[currentIndex] = currentItem;\n        currentIndex += 1;\n      }\n    }\n    return items;\n  }\n\n  /**\n  * @dev Returns only items a user has created that are currently for sale\n  * @param user the user to fetch the unsold market items for\n  * @return the list of market items the user has put on the market that are currently for sale\n  */\n  function fetchUnsoldItemsCreated(address user) external view returns (MarketItem[] memory) {\n    uint totalItemCount = _itemIds.current();\n    uint itemCount = 0;\n    uint currentIndex = 0;\n\n    for (uint i = 0; i < totalItemCount; i++) {\n      if (idToMarketItem[i + 1].seller == user && !idToMarketItem[i + 1].sold) {\n        itemCount += 1;\n      }\n    }\n\n    MarketItem[] memory items = new MarketItem[](itemCount);\n    for (uint i = 0; i < totalItemCount; i++) {\n      if (idToMarketItem[i + 1].seller == user && !idToMarketItem[i + 1].sold) {\n        uint currentId = i + 1;\n        MarketItem storage currentItem = idToMarketItem[currentId];\n        items[currentIndex] = currentItem;\n        currentIndex += 1;\n      }\n    }\n    return items;\n  }\n\n  /**\n  * @dev Updates the blacklist mapping for a given address\n  * @param user the address that is being added or removed from the blacklist\n  * @param blacklisted a boolean that determines if the given address is being added or removed from the blacklist\n  */\n  function updateBlackList(address user, bool blacklisted) external onlyOwner {\n    blacklist[user] = blacklisted;\n  }\n\n}",
  "sourcePath": "contracts/CardinalHouseMarketplace.sol",
  "type": "contract"
}