{
  "abi": [
    {
      "inputs": [
        {
          "internalType": "address",
          "name": "_marketplaceAddress",
          "type": "address"
        },
        {
          "internalType": "address payable",
          "name": "_cardinalTokenAddress",
          "type": "address"
        }
      ],
      "stateMutability": "nonpayable",
      "type": "constructor"
    },
    {
      "anonymous": false,
      "inputs": [
        {
          "indexed": true,
          "internalType": "address",
          "name": "owner",
          "type": "address"
        },
        {
          "indexed": true,
          "internalType": "address",
          "name": "approved",
          "type": "address"
        },
        {
          "indexed": true,
          "internalType": "uint256",
          "name": "tokenId",
          "type": "uint256"
        }
      ],
      "name": "Approval",
      "type": "event"
    },
    {
      "anonymous": false,
      "inputs": [
        {
          "indexed": true,
          "internalType": "address",
          "name": "owner",
          "type": "address"
        },
        {
          "indexed": true,
          "internalType": "address",
          "name": "operator",
          "type": "address"
        },
        {
          "indexed": false,
          "internalType": "bool",
          "name": "approved",
          "type": "bool"
        }
      ],
      "name": "ApprovalForAll",
      "type": "event"
    },
    {
      "anonymous": false,
      "inputs": [
        {
          "indexed": true,
          "internalType": "address",
          "name": "previousOwner",
          "type": "address"
        },
        {
          "indexed": true,
          "internalType": "address",
          "name": "newOwner",
          "type": "address"
        }
      ],
      "name": "OwnershipTransferred",
      "type": "event"
    },
    {
      "anonymous": false,
      "inputs": [
        {
          "indexed": true,
          "internalType": "address",
          "name": "from",
          "type": "address"
        },
        {
          "indexed": true,
          "internalType": "address",
          "name": "to",
          "type": "address"
        },
        {
          "indexed": true,
          "internalType": "uint256",
          "name": "tokenId",
          "type": "uint256"
        }
      ],
      "name": "Transfer",
      "type": "event"
    },
    {
      "anonymous": false,
      "inputs": [
        {
          "indexed": true,
          "internalType": "address",
          "name": "member",
          "type": "address"
        },
        {
          "indexed": true,
          "internalType": "uint256",
          "name": "tokenId",
          "type": "uint256"
        },
        {
          "indexed": false,
          "internalType": "uint256",
          "name": "membershipPrice",
          "type": "uint256"
        },
        {
          "indexed": false,
          "internalType": "uint256",
          "name": "currTimeStamp",
          "type": "uint256"
        }
      ],
      "name": "memberChargedForMembership",
      "type": "event"
    },
    {
      "anonymous": false,
      "inputs": [
        {
          "indexed": true,
          "internalType": "address",
          "name": "member",
          "type": "address"
        },
        {
          "indexed": true,
          "internalType": "uint256",
          "name": "discountAmount",
          "type": "uint256"
        }
      ],
      "name": "memberDiscountSet",
      "type": "event"
    },
    {
      "anonymous": false,
      "inputs": [
        {
          "indexed": true,
          "internalType": "address",
          "name": "owner",
          "type": "address"
        },
        {
          "indexed": true,
          "internalType": "uint256",
          "name": "tokenId",
          "type": "uint256"
        }
      ],
      "name": "membershipNFTBurnt",
      "type": "event"
    },
    {
      "anonymous": false,
      "inputs": [
        {
          "indexed": true,
          "internalType": "address",
          "name": "owner",
          "type": "address"
        },
        {
          "indexed": true,
          "internalType": "uint256",
          "name": "tokenId",
          "type": "uint256"
        }
      ],
      "name": "membershipNFTMinted",
      "type": "event"
    },
    {
      "anonymous": false,
      "inputs": [
        {
          "indexed": true,
          "internalType": "uint256",
          "name": "newMembershipPrice",
          "type": "uint256"
        }
      ],
      "name": "membershipPriceUpdated",
      "type": "event"
    },
    {
      "anonymous": false,
      "inputs": [
        {
          "indexed": true,
          "internalType": "uint256",
          "name": "tokenId",
          "type": "uint256"
        },
        {
          "indexed": false,
          "internalType": "string",
          "name": "newTokenURI",
          "type": "string"
        }
      ],
      "name": "tokenURIUpdated",
      "type": "event"
    },
    {
      "anonymous": false,
      "inputs": [
        {
          "indexed": true,
          "internalType": "string",
          "name": "typeIdThatWasUpdated",
          "type": "string"
        },
        {
          "indexed": true,
          "internalType": "uint256",
          "name": "newTypeId",
          "type": "uint256"
        }
      ],
      "name": "typeIdUpdated",
      "type": "event"
    },
    {
      "inputs": [],
      "name": "_tokenIds",
      "outputs": [
        {
          "internalType": "uint256",
          "name": "_value",
          "type": "uint256"
        }
      ],
      "stateMutability": "view",
      "type": "function"
    },
    {
      "inputs": [
        {
          "internalType": "address",
          "name": "memberAddress",
          "type": "address"
        }
      ],
      "name": "addMember",
      "outputs": [],
      "stateMutability": "nonpayable",
      "type": "function"
    },
    {
      "inputs": [
        {
          "internalType": "address",
          "name": "whiteListAddress",
          "type": "address"
        },
        {
          "internalType": "uint256",
          "name": "tokenId",
          "type": "uint256"
        }
      ],
      "name": "addWhiteListToToken",
      "outputs": [],
      "stateMutability": "nonpayable",
      "type": "function"
    },
    {
      "inputs": [
        {
          "internalType": "address",
          "name": "",
          "type": "address"
        }
      ],
      "name": "addressIsAdmin",
      "outputs": [
        {
          "internalType": "bool",
          "name": "",
          "type": "bool"
        }
      ],
      "stateMutability": "view",
      "type": "function"
    },
    {
      "inputs": [
        {
          "internalType": "address",
          "name": "",
          "type": "address"
        }
      ],
      "name": "addressIsMember",
      "outputs": [
        {
          "internalType": "bool",
          "name": "",
          "type": "bool"
        }
      ],
      "stateMutability": "view",
      "type": "function"
    },
    {
      "inputs": [
        {
          "internalType": "address",
          "name": "",
          "type": "address"
        }
      ],
      "name": "addressToMemberNFTCount",
      "outputs": [
        {
          "internalType": "uint256",
          "name": "",
          "type": "uint256"
        }
      ],
      "stateMutability": "view",
      "type": "function"
    },
    {
      "inputs": [
        {
          "internalType": "address",
          "name": "",
          "type": "address"
        }
      ],
      "name": "addressToMembershipDiscount",
      "outputs": [
        {
          "internalType": "uint256",
          "name": "",
          "type": "uint256"
        }
      ],
      "stateMutability": "view",
      "type": "function"
    },
    {
      "inputs": [
        {
          "internalType": "address",
          "name": "to",
          "type": "address"
        },
        {
          "internalType": "uint256",
          "name": "tokenId",
          "type": "uint256"
        }
      ],
      "name": "approve",
      "outputs": [],
      "stateMutability": "nonpayable",
      "type": "function"
    },
    {
      "inputs": [
        {
          "internalType": "address",
          "name": "owner",
          "type": "address"
        }
      ],
      "name": "balanceOf",
      "outputs": [
        {
          "internalType": "uint256",
          "name": "",
          "type": "uint256"
        }
      ],
      "stateMutability": "view",
      "type": "function"
    },
    {
      "inputs": [
        {
          "internalType": "uint256",
          "name": "tokenId",
          "type": "uint256"
        }
      ],
      "name": "burnMembershiptNFTManually",
      "outputs": [],
      "stateMutability": "nonpayable",
      "type": "function"
    },
    {
      "inputs": [],
      "name": "cardinalToken",
      "outputs": [
        {
          "internalType": "contract CardinalToken",
          "name": "",
          "type": "address"
        }
      ],
      "stateMutability": "view",
      "type": "function"
    },
    {
      "inputs": [
        {
          "internalType": "address",
          "name": "member",
          "type": "address"
        },
        {
          "internalType": "uint256",
          "name": "tokenId",
          "type": "uint256"
        },
        {
          "internalType": "uint256",
          "name": "currTimeStamp",
          "type": "uint256"
        }
      ],
      "name": "chargeMemberForMembership",
      "outputs": [
        {
          "internalType": "uint256",
          "name": "",
          "type": "uint256"
        }
      ],
      "stateMutability": "nonpayable",
      "type": "function"
    },
    {
      "inputs": [
        {
          "internalType": "string",
          "name": "newTokenURI",
          "type": "string"
        },
        {
          "internalType": "uint256",
          "name": "typeId",
          "type": "uint256"
        },
        {
          "internalType": "uint256",
          "name": "listingFee",
          "type": "uint256"
        },
        {
          "internalType": "uint256",
          "name": "currTimeStamp",
          "type": "uint256"
        }
      ],
      "name": "createToken",
      "outputs": [
        {
          "internalType": "uint256",
          "name": "",
          "type": "uint256"
        }
      ],
      "stateMutability": "nonpayable",
      "type": "function"
    },
    {
      "inputs": [
        {
          "internalType": "uint256",
          "name": "tokenId",
          "type": "uint256"
        }
      ],
      "name": "getApproved",
      "outputs": [
        {
          "internalType": "address",
          "name": "",
          "type": "address"
        }
      ],
      "stateMutability": "view",
      "type": "function"
    },
    {
      "inputs": [],
      "name": "getMembershipTokenIds",
      "outputs": [
        {
          "internalType": "uint256[]",
          "name": "",
          "type": "uint256[]"
        }
      ],
      "stateMutability": "view",
      "type": "function"
    },
    {
      "inputs": [],
      "name": "getOriginalCardinalTokenIds",
      "outputs": [
        {
          "internalType": "uint256[]",
          "name": "",
          "type": "uint256[]"
        }
      ],
      "stateMutability": "view",
      "type": "function"
    },
    {
      "inputs": [
        {
          "internalType": "address",
          "name": "userAddress",
          "type": "address"
        }
      ],
      "name": "getUserMembershipTokenURIs",
      "outputs": [
        {
          "internalType": "string[]",
          "name": "",
          "type": "string[]"
        }
      ],
      "stateMutability": "view",
      "type": "function"
    },
    {
      "inputs": [
        {
          "internalType": "address",
          "name": "userAddress",
          "type": "address"
        }
      ],
      "name": "getUserOriginalCardinalTokenURIs",
      "outputs": [
        {
          "internalType": "string[]",
          "name": "",
          "type": "string[]"
        }
      ],
      "stateMutability": "view",
      "type": "function"
    },
    {
      "inputs": [
        {
          "internalType": "address",
          "name": "userAddress",
          "type": "address"
        }
      ],
      "name": "getUserServiceTokenURIs",
      "outputs": [
        {
          "internalType": "string[]",
          "name": "",
          "type": "string[]"
        }
      ],
      "stateMutability": "view",
      "type": "function"
    },
    {
      "inputs": [
        {
          "internalType": "address",
          "name": "userAddress",
          "type": "address"
        }
      ],
      "name": "getUserTokenURIs",
      "outputs": [
        {
          "internalType": "string[]",
          "name": "",
          "type": "string[]"
        }
      ],
      "stateMutability": "view",
      "type": "function"
    },
    {
      "inputs": [
        {
          "internalType": "address",
          "name": "owner",
          "type": "address"
        },
        {
          "internalType": "address",
          "name": "operator",
          "type": "address"
        }
      ],
      "name": "isApprovedForAll",
      "outputs": [
        {
          "internalType": "bool",
          "name": "",
          "type": "bool"
        }
      ],
      "stateMutability": "view",
      "type": "function"
    },
    {
      "inputs": [],
      "name": "marketplaceAddress",
      "outputs": [
        {
          "internalType": "address",
          "name": "",
          "type": "address"
        }
      ],
      "stateMutability": "view",
      "type": "function"
    },
    {
      "inputs": [
        {
          "internalType": "uint256",
          "name": "",
          "type": "uint256"
        }
      ],
      "name": "membershipNFTToLastPaid",
      "outputs": [
        {
          "internalType": "uint256",
          "name": "",
          "type": "uint256"
        }
      ],
      "stateMutability": "view",
      "type": "function"
    },
    {
      "inputs": [],
      "name": "membershipPriceInCardinalTokens",
      "outputs": [
        {
          "internalType": "uint256",
          "name": "",
          "type": "uint256"
        }
      ],
      "stateMutability": "view",
      "type": "function"
    },
    {
      "inputs": [
        {
          "internalType": "uint256",
          "name": "",
          "type": "uint256"
        }
      ],
      "name": "membershipTokenIds",
      "outputs": [
        {
          "internalType": "uint256",
          "name": "",
          "type": "uint256"
        }
      ],
      "stateMutability": "view",
      "type": "function"
    },
    {
      "inputs": [],
      "name": "membershipTokenURI",
      "outputs": [
        {
          "internalType": "string",
          "name": "",
          "type": "string"
        }
      ],
      "stateMutability": "view",
      "type": "function"
    },
    {
      "inputs": [],
      "name": "membershipTypeId",
      "outputs": [
        {
          "internalType": "uint256",
          "name": "",
          "type": "uint256"
        }
      ],
      "stateMutability": "view",
      "type": "function"
    },
    {
      "inputs": [],
      "name": "mintMembershipNFT",
      "outputs": [
        {
          "internalType": "uint256",
          "name": "",
          "type": "uint256"
        }
      ],
      "stateMutability": "nonpayable",
      "type": "function"
    },
    {
      "inputs": [],
      "name": "name",
      "outputs": [
        {
          "internalType": "string",
          "name": "",
          "type": "string"
        }
      ],
      "stateMutability": "view",
      "type": "function"
    },
    {
      "inputs": [
        {
          "internalType": "uint256",
          "name": "",
          "type": "uint256"
        }
      ],
      "name": "originalCardinalTokenIds",
      "outputs": [
        {
          "internalType": "uint256",
          "name": "",
          "type": "uint256"
        }
      ],
      "stateMutability": "view",
      "type": "function"
    },
    {
      "inputs": [],
      "name": "originalCardinalTypeId",
      "outputs": [
        {
          "internalType": "uint256",
          "name": "",
          "type": "uint256"
        }
      ],
      "stateMutability": "view",
      "type": "function"
    },
    {
      "inputs": [],
      "name": "owner",
      "outputs": [
        {
          "internalType": "address",
          "name": "",
          "type": "address"
        }
      ],
      "stateMutability": "view",
      "type": "function"
    },
    {
      "inputs": [
        {
          "internalType": "uint256",
          "name": "tokenId",
          "type": "uint256"
        }
      ],
      "name": "ownerOf",
      "outputs": [
        {
          "internalType": "address",
          "name": "",
          "type": "address"
        }
      ],
      "stateMutability": "view",
      "type": "function"
    },
    {
      "inputs": [
        {
          "internalType": "address",
          "name": "memberAddress",
          "type": "address"
        }
      ],
      "name": "removeMember",
      "outputs": [],
      "stateMutability": "nonpayable",
      "type": "function"
    },
    {
      "inputs": [],
      "name": "renounceOwnership",
      "outputs": [],
      "stateMutability": "nonpayable",
      "type": "function"
    },
    {
      "inputs": [
        {
          "internalType": "address",
          "name": "from",
          "type": "address"
        },
        {
          "internalType": "address",
          "name": "to",
          "type": "address"
        },
        {
          "internalType": "uint256",
          "name": "tokenId",
          "type": "uint256"
        }
      ],
      "name": "safeTransferFrom",
      "outputs": [],
      "stateMutability": "nonpayable",
      "type": "function"
    },
    {
      "inputs": [
        {
          "internalType": "address",
          "name": "from",
          "type": "address"
        },
        {
          "internalType": "address",
          "name": "to",
          "type": "address"
        },
        {
          "internalType": "uint256",
          "name": "tokenId",
          "type": "uint256"
        },
        {
          "internalType": "bytes",
          "name": "_data",
          "type": "bytes"
        }
      ],
      "name": "safeTransferFrom",
      "outputs": [],
      "stateMutability": "nonpayable",
      "type": "function"
    },
    {
      "inputs": [],
      "name": "serviceTypeId",
      "outputs": [
        {
          "internalType": "uint256",
          "name": "",
          "type": "uint256"
        }
      ],
      "stateMutability": "view",
      "type": "function"
    },
    {
      "inputs": [
        {
          "internalType": "address",
          "name": "adminAddress",
          "type": "address"
        },
        {
          "internalType": "bool",
          "name": "isAdmin",
          "type": "bool"
        }
      ],
      "name": "setAdminUser",
      "outputs": [],
      "stateMutability": "nonpayable",
      "type": "function"
    },
    {
      "inputs": [
        {
          "internalType": "address",
          "name": "operator",
          "type": "address"
        },
        {
          "internalType": "bool",
          "name": "approved",
          "type": "bool"
        }
      ],
      "name": "setApprovalForAll",
      "outputs": [],
      "stateMutability": "nonpayable",
      "type": "function"
    },
    {
      "inputs": [
        {
          "internalType": "address payable",
          "name": "cardinalTokenAddress",
          "type": "address"
        }
      ],
      "name": "setCardinalToken",
      "outputs": [],
      "stateMutability": "nonpayable",
      "type": "function"
    },
    {
      "inputs": [
        {
          "internalType": "address",
          "name": "memberAddress",
          "type": "address"
        },
        {
          "internalType": "uint256",
          "name": "discountAmount",
          "type": "uint256"
        }
      ],
      "name": "setMemberDiscount",
      "outputs": [],
      "stateMutability": "nonpayable",
      "type": "function"
    },
    {
      "inputs": [
        {
          "internalType": "uint256",
          "name": "tokenId",
          "type": "uint256"
        },
        {
          "internalType": "string",
          "name": "newTokenURI",
          "type": "string"
        }
      ],
      "name": "setTokenURI",
      "outputs": [],
      "stateMutability": "nonpayable",
      "type": "function"
    },
    {
      "inputs": [
        {
          "internalType": "bytes4",
          "name": "interfaceId",
          "type": "bytes4"
        }
      ],
      "name": "supportsInterface",
      "outputs": [
        {
          "internalType": "bool",
          "name": "",
          "type": "bool"
        }
      ],
      "stateMutability": "view",
      "type": "function"
    },
    {
      "inputs": [],
      "name": "symbol",
      "outputs": [
        {
          "internalType": "string",
          "name": "",
          "type": "string"
        }
      ],
      "stateMutability": "view",
      "type": "function"
    },
    {
      "inputs": [
        {
          "internalType": "uint256",
          "name": "",
          "type": "uint256"
        }
      ],
      "name": "tokenIdToListingFee",
      "outputs": [
        {
          "internalType": "uint256",
          "name": "",
          "type": "uint256"
        }
      ],
      "stateMutability": "view",
      "type": "function"
    },
    {
      "inputs": [
        {
          "internalType": "uint256",
          "name": "",
          "type": "uint256"
        }
      ],
      "name": "tokenIdToTypeId",
      "outputs": [
        {
          "internalType": "uint256",
          "name": "",
          "type": "uint256"
        }
      ],
      "stateMutability": "view",
      "type": "function"
    },
    {
      "inputs": [
        {
          "internalType": "uint256",
          "name": "",
          "type": "uint256"
        }
      ],
      "name": "tokenIdToWhitelistAddress",
      "outputs": [
        {
          "internalType": "address",
          "name": "",
          "type": "address"
        }
      ],
      "stateMutability": "view",
      "type": "function"
    },
    {
      "inputs": [
        {
          "internalType": "uint256",
          "name": "tokenId",
          "type": "uint256"
        }
      ],
      "name": "tokenURI",
      "outputs": [
        {
          "internalType": "string",
          "name": "",
          "type": "string"
        }
      ],
      "stateMutability": "view",
      "type": "function"
    },
    {
      "inputs": [
        {
          "internalType": "address",
          "name": "from",
          "type": "address"
        },
        {
          "internalType": "address",
          "name": "to",
          "type": "address"
        },
        {
          "internalType": "uint256",
          "name": "tokenId",
          "type": "uint256"
        }
      ],
      "name": "transferFrom",
      "outputs": [],
      "stateMutability": "nonpayable",
      "type": "function"
    },
    {
      "inputs": [
        {
          "internalType": "address",
          "name": "newOwner",
          "type": "address"
        }
      ],
      "name": "transferOwnership",
      "outputs": [],
      "stateMutability": "nonpayable",
      "type": "function"
    },
    {
      "inputs": [
        {
          "internalType": "uint256",
          "name": "tokenId",
          "type": "uint256"
        },
        {
          "internalType": "uint256",
          "name": "lastPaidTimestamp",
          "type": "uint256"
        }
      ],
      "name": "updateMembershipNFTLastPaid",
      "outputs": [],
      "stateMutability": "nonpayable",
      "type": "function"
    },
    {
      "inputs": [
        {
          "internalType": "uint256",
          "name": "newMembershipPrice",
          "type": "uint256"
        }
      ],
      "name": "updateMembershipPrice",
      "outputs": [],
      "stateMutability": "nonpayable",
      "type": "function"
    },
    {
      "inputs": [
        {
          "internalType": "string",
          "name": "newMembershipTokenURI",
          "type": "string"
        }
      ],
      "name": "updateMembershipTokenURI",
      "outputs": [],
      "stateMutability": "nonpayable",
      "type": "function"
    },
    {
      "inputs": [
        {
          "internalType": "uint256",
          "name": "newMembershipTypeId",
          "type": "uint256"
        }
      ],
      "name": "updateMembershipTypeId",
      "outputs": [],
      "stateMutability": "nonpayable",
      "type": "function"
    },
    {
      "inputs": [
        {
          "internalType": "uint256",
          "name": "newOriginalCardinalTypeId",
          "type": "uint256"
        }
      ],
      "name": "updateOriginalCardinalTypeId",
      "outputs": [],
      "stateMutability": "nonpayable",
      "type": "function"
    },
    {
      "inputs": [
        {
          "internalType": "uint256",
          "name": "newServiceTypeId",
          "type": "uint256"
        }
      ],
      "name": "updateServiceTypeId",
      "outputs": [],
      "stateMutability": "nonpayable",
      "type": "function"
    },
    {
      "inputs": [
        {
          "internalType": "uint256",
          "name": "tokenId",
          "type": "uint256"
        },
        {
          "internalType": "uint256",
          "name": "newListingFee",
          "type": "uint256"
        }
      ],
      "name": "updateTokenListingFee",
      "outputs": [],
      "stateMutability": "nonpayable",
      "type": "function"
    },
    {
      "inputs": [
        {
          "internalType": "uint256",
          "name": "tokenId",
          "type": "uint256"
        },
        {
          "internalType": "uint256",
          "name": "newTypeId",
          "type": "uint256"
        }
      ],
      "name": "updateTokenTypeId",
      "outputs": [],
      "stateMutability": "nonpayable",
      "type": "function"
    },
    {
      "inputs": [],
      "name": "withdrawMembershipNFTFunds",
      "outputs": [],
      "stateMutability": "nonpayable",
      "type": "function"
    }
  ],
  "bytecode": "60806040526001601355600260145560036015553480156200002057600080fd5b5060405162003da438038062003da4833981016040819052620000439162000214565b604080518082018252601081526f10d85c991a5b985b121bdd5cd953919560821b60208083019182528351808501909452600784526610d4939313919560ca1b9084015281519192916200009a9160009162000155565b508051620000b090600190602084019062000155565b505050620000cd620000c7620000ff60201b60201c565b62000103565b600980546001600160a01b039384166001600160a01b031991821617909155600a805492909316911617905562000290565b3390565b600780546001600160a01b038381166001600160a01b0319831681179093556040519116919082907f8be0079c531659141344cd1fd0a4f28419497f9722a3daafe3b4186f6b6457e090600090a35050565b828054620001639062000253565b90600052602060002090601f016020900481019282620001875760008555620001d2565b82601f10620001a257805160ff1916838001178555620001d2565b82800160010185558215620001d2579182015b82811115620001d2578251825591602001919060010190620001b5565b50620001e0929150620001e4565b5090565b5b80821115620001e05760008155600101620001e5565b6001600160a01b03811681146200021157600080fd5b50565b600080604083850312156200022857600080fd5b82516200023581620001fb565b60208401519092506200024881620001fb565b809150509250929050565b600181811c908216806200026857607f821691505b602082108114156200028a57634e487b7160e01b600052602260045260246000fd5b50919050565b613b0480620002a06000396000f3fe608060405234801561001057600080fd5b50600436106103a45760003560e01c80638f01785d116101e9578063c79ba39c1161010f578063e4e0a931116100ad578063f2fde38b1161007c578063f2fde38b14610854578063fd18b84114610867578063fe0596f21461087a578063ffeab8a41461088357600080fd5b8063e4e0a931146107ea578063e985e9c5146107f2578063ebaa42ed1461082e578063eecbbec41461084157600080fd5b8063d2793d4a116100e9578063d2793d4a1461078f578063d473dab1146107a2578063daa17f49146107b7578063dca8bc47146107ca57600080fd5b8063c79ba39c14610756578063c87b56dd14610769578063ca6d56dc1461077c57600080fd5b8063b15d8d5f11610187578063b88d4fde11610156578063b88d4fde14610715578063bb3b407b14610728578063beb483261461073b578063c34e37821461074357600080fd5b8063b15d8d5f146106b9578063b27a5f98146106cc578063b43affda146106df578063b5c4b23d146106f257600080fd5b806396291db6116101c357806396291db614610669578063a22cb4651461067c578063aa46a4001461068f578063b063c9541461069957600080fd5b80638f01785d14610646578063959148751461065957806395d89b411461066157600080fd5b80634623c740116102ce57806370a082311161026c5780637498d2801161023b5780637498d280146106075780637867ccd11461060f57806386794f66146106225780638da5cb5b1461063557600080fd5b806370a08231146105d0578063715018a6146105e357806371af8374146105eb5780637417353f146105f457600080fd5b80635c23a67a116102a85780635c23a67a146105615780636352211e1461058a57806366a98ea31461059d5780636f48853b146105b057600080fd5b80634623c7401461053257806346d362301461054557806356060a741461054e57600080fd5b8063162094c4116103465780632517fc07116103155780632517fc07146104bc57806328da575b146104dc57806333a41510146104ff57806342842e0e1461051f57600080fd5b8063162094c41461047a578063175501651461048d5780631c652fb51461049657806323b872dd146104a957600080fd5b8063095ea7b311610382578063095ea7b3146104115780630b1ca49a146104265780630e1bac891461043957806311ab8df51461044c57600080fd5b806301ffc9a7146103a957806306fdde03146103d1578063081812fc146103e6575b600080fd5b6103bc6103b7366004613365565b610896565b60405190151581526020015b60405180910390f35b6103d96108e8565b6040516103c891906133da565b6103f96103f43660046133ed565b61097a565b6040516001600160a01b0390911681526020016103c8565b61042461041f36600461341b565b610a07565b005b610424610434366004613447565b610b1d565b600a546103f9906001600160a01b031681565b61046c61045a3660046133ed565b60106020526000908152604090205481565b6040519081526020016103c8565b610424610488366004613510565b610baf565b61046c60145481565b6104246104a4366004613557565b610c1f565b6104246104b7366004613579565b610c5b565b61046c6104ca366004613447565b60126020526000908152604090205481565b6103bc6104ea366004613447565b600e6020526000908152604090205460ff1681565b61051261050d366004613447565b610c8c565b6040516103c891906135ba565b61042461052d366004613579565b610e26565b61046c61054036600461361c565b610e41565b61046c60135481565b61051261055c366004613447565b610f98565b6103f961056f3660046133ed565b600d602052600090815260409020546001600160a01b031681565b6103f96105983660046133ed565b6110f6565b6104246105ab3660046133ed565b61116d565b61046c6105be3660046133ed565b600b6020526000908152604090205481565b61046c6105de366004613447565b6111f4565b61042461127b565b61046c60155481565b61042461060236600461341b565b6112b1565b61046c611309565b61042461061d366004613557565b611785565b6104246106303660046133ed565b6117c1565b6007546001600160a01b03166103f9565b610512610654366004613447565b611810565b6103d9611938565b6103d96119c6565b610424610677366004613670565b6119d5565b61042461068a3660046136b3565b611a16565b60085461046c9081565b61046c6106a73660046133ed565b600c6020526000908152604090205481565b61046c6106c73660046133ed565b611a21565b6104246106da3660046136b3565b611a42565b61046c6106ed3660046133ed565b611a97565b6103bc610700366004613447565b60116020526000908152604090205460ff1681565b6104246107233660046136ec565b611aa7565b61046c61073636600461376c565b611adf565b610424611eda565b610512610751366004613447565b612023565b610424610764366004613557565b612181565b6103d96107773660046133ed565b6121bd565b61042461078a366004613447565b61232c565b61042461079d366004613447565b6123bd565b6107aa612409565b6040516103c891906137a1565b6009546103f9906001600160a01b031681565b61046c6107d8366004613447565b600f6020526000908152604090205481565b6107aa612460565b6103bc6108003660046137e5565b6001600160a01b03918216600090815260056020908152604080832093909416825291909152205460ff1690565b61042461083c3660046133ed565b6124b6565b61042461084f3660046133ed565b612513565b610424610862366004613447565b612546565b61042461087536600461341b565b6125de565b61046c60195481565b6104246108913660046133ed565b6126a0565b60006001600160e01b031982166380ac58cd60e01b14806108c757506001600160e01b03198216635b5e139f60e01b145b806108e257506301ffc9a760e01b6001600160e01b03198316145b92915050565b6060600080546108f790613813565b80601f016020809104026020016040519081016040528092919081815260200182805461092390613813565b80156109705780601f1061094557610100808354040283529160200191610970565b820191906000526020600020905b81548152906001019060200180831161095357829003601f168201915b5050505050905090565b6000610985826126f2565b6109eb5760405162461bcd60e51b815260206004820152602c60248201527f4552433732313a20617070726f76656420717565727920666f72206e6f6e657860448201526b34b9ba32b73a103a37b5b2b760a11b60648201526084015b60405180910390fd5b506000908152600460205260409020546001600160a01b031690565b6000610a12826110f6565b9050806001600160a01b0316836001600160a01b03161415610a805760405162461bcd60e51b815260206004820152602160248201527f4552433732313a20617070726f76616c20746f2063757272656e74206f776e656044820152603960f91b60648201526084016109e2565b336001600160a01b0382161480610a9c5750610a9c8133610800565b610b0e5760405162461bcd60e51b815260206004820152603860248201527f4552433732313a20617070726f76652063616c6c6572206973206e6f74206f7760448201527f6e6572206e6f7220617070726f76656420666f7220616c6c000000000000000060648201526084016109e2565b610b18838361270f565b505050565b3360009081526011602052604090205460ff16610b8e5760405162461bcd60e51b815260206004820152602960248201527f4f6e6c7920636f6e74726163742061646d696e732063616e2072656d6f766520604482015268309036b2b6b132b91760b91b60648201526084016109e2565b6001600160a01b03166000908152600e60205260409020805460ff19169055565b6007546001600160a01b03163314610bd95760405162461bcd60e51b81526004016109e29061384e565b610be3828261277d565b817fc794e2271b51f209d8a645eec85692351ad1adc857ab2e06f9c5af7961cf07d582604051610c1391906133da565b60405180910390a25050565b6007546001600160a01b03163314610c495760405162461bcd60e51b81526004016109e29061384e565b60009182526010602052604090912055565b610c653382612808565b610c815760405162461bcd60e51b81526004016109e290613883565b610b188383836128ee565b60606000610c9960085490565b905060008060015b838111610d1e57856001600160a01b0316610cbb826110f6565b6001600160a01b0316148015610cf957506013546000828152600b60205260409020541480610cf957506014546000828152600b6020526040902054145b15610d0c57610d096001846138ea565b92505b80610d1681613902565b915050610ca1565b5060008267ffffffffffffffff811115610d3a57610d3a613464565b604051908082528060200260200182016040528015610d6d57816020015b6060815260200190600190039081610d585790505b50905060015b848111610e1c57866001600160a01b0316610d8d826110f6565b6001600160a01b0316148015610dcb57506013546000828152600b60205260409020541480610dcb57506014546000828152600b6020526040902054145b15610e0a576000610ddb826121bd565b905080838581518110610df057610df061391d565b6020908102919091010152610e066001856138ea565b9350505b80610e1481613902565b915050610d73565b5095945050505050565b610b1883838360405180602001604052806000815250611aa7565b6007546000906001600160a01b03163314610e6e5760405162461bcd60e51b81526004016109e29061384e565b610e7c600880546001019055565b6000610e8760085490565b6000818152600b60209081526040808320899055600c90915290208590559050610eb13382612a90565b610ebb818761277d565b610ec53082610a07565b600954610edc906001600160a01b03166001611a16565b601354851415610f2057601680546001810182556000919091527fd833147d7dc355ba459fc788f669e58cfaf9dc25ddcd0702e87d69c7b512428901819055610f8d565b601454851415610f8d57601780546001810182556000919091527fc624b66cc0138b8fabc209247f72d758e1cf3343756d543badbf24212bed8c15018190558215610f7b576000818152601060205260409020839055610f8d565b60008181526010602052604090204290555b90505b949350505050565b60606000610fa560085490565b905060008060015b83811161101157856001600160a01b0316610fc7826110f6565b6001600160a01b0316148015610fec57506013546000828152600b6020526040902054145b15610fff57610ffc6001846138ea565b92505b8061100981613902565b915050610fad565b5060008267ffffffffffffffff81111561102d5761102d613464565b60405190808252806020026020018201604052801561106057816020015b606081526020019060019003908161104b5790505b50905060015b848111610e1c57866001600160a01b0316611080826110f6565b6001600160a01b03161480156110a557506013546000828152600b6020526040902054145b156110e45760006110b5826121bd565b9050808385815181106110ca576110ca61391d565b60209081029190910101526110e06001856138ea565b9350505b806110ee81613902565b915050611066565b6000818152600260205260408120546001600160a01b0316806108e25760405162461bcd60e51b815260206004820152602960248201527f4552433732313a206f776e657220717565727920666f72206e6f6e657869737460448201526832b73a103a37b5b2b760b91b60648201526084016109e2565b6007546001600160a01b031633146111975760405162461bcd60e51b81526004016109e29061384e565b6013819055604051751bdc9a59da5b985b10d85c991a5b985b151e5c19525960521b815281906016015b604051908190038120907fa611ba47a2a0887b794d3e097d5cfb33522f6ed26df589ccd12c01d5c584800a90600090a350565b60006001600160a01b03821661125f5760405162461bcd60e51b815260206004820152602a60248201527f4552433732313a2062616c616e636520717565727920666f7220746865207a65604482015269726f206164647265737360b01b60648201526084016109e2565b506001600160a01b031660009081526003602052604090205490565b6007546001600160a01b031633146112a55760405162461bcd60e51b81526004016109e29061384e565b6112af6000612bcb565b565b6007546001600160a01b031633146112db5760405162461bcd60e51b81526004016109e29061384e565b6000908152600d6020526040902080546001600160a01b0319166001600160a01b0392909216919091179055565b6019543360009081526012602052604081205490919015611350573360009081526012602052604090205460195460649161134391613933565b61134d9190613968565b90505b600a546040516370a0823160e01b815233600482015282916001600160a01b0316906370a082319060240160206040518083038186803b15801561139357600080fd5b505afa1580156113a7573d6000803e3d6000fd5b505050506040513d601f19601f820116820180604052508101906113cb919061397c565b101561144d5760405162461bcd60e51b8152602060048201526044602482018190527f596f7520646f6e2774206861766520656e6f7567682043617264696e616c2054908201527f6f6b656e7320746f2070617920666f7220746865206d656d626572736869702060648201526327232a1760e11b608482015260a4016109e2565b600a54604051636eb1769f60e11b815233600482015230602482015282916001600160a01b03169063dd62ed3e9060440160206040518083038186803b15801561149657600080fd5b505afa1580156114aa573d6000803e3d6000fd5b505050506040513d601f19601f820116820180604052508101906114ce919061397c565b101561157a5760405162461bcd60e51b815260206004820152606960248201527f596f7520686176656e277420617070726f766564207468697320636f6e74726160448201527f637420746f207370656e6420656e6f756768206f6620796f757220436172646960648201527f6e616c20546f6b656e7320746f2070617920666f7220746865206d656d62657260848201526839b434b81027232a1760b91b60a482015260c4016109e2565b600a546040516323b872dd60e01b8152336004820152306024820152604481018390526001600160a01b03909116906323b872dd90606401602060405180830381600087803b1580156115cc57600080fd5b505af11580156115e0573d6000803e3d6000fd5b505050506040513d601f19601f820116820180604052508101906116049190613995565b50611613600880546001019055565b600061161e60085490565b6014546000828152600b6020908152604080832093909355600c905290812055905061164a3382612a90565b60008181526010602090815260408083204290553383526012909152812055601880546116ff91839161167c90613813565b80601f01602080910402602001604051908101604052809291908181526020018280546116a890613813565b80156116f55780601f106116ca576101008083540402835291602001916116f5565b820191906000526020600020905b8154815290600101906020018083116116d857829003601f168201915b505050505061277d565b6117093082610a07565b600954611720906001600160a01b03166001611a16565b6017805460018101825560009182527fc624b66cc0138b8fabc209247f72d758e1cf3343756d543badbf24212bed8c1501829055604051829133917f7430cefc529011c1b720a4803c3a12db2bfdf282e089e2d26ff4929ef11a703c9190a392915050565b6007546001600160a01b031633146117af5760405162461bcd60e51b81526004016109e29061384e565b6000918252600c602052604090912055565b6007546001600160a01b031633146117eb5760405162461bcd60e51b81526004016109e29061384e565b60158190556040516c1cd95c9d9a58d9551e5c195259609a1b81528190600d016111c1565b6060600061181d60085490565b905060008060015b83811161186e57856001600160a01b031661183f826110f6565b6001600160a01b0316141561185c576118596001846138ea565b92505b8061186681613902565b915050611825565b5060008267ffffffffffffffff81111561188a5761188a613464565b6040519080825280602002602001820160405280156118bd57816020015b60608152602001906001900390816118a85790505b50905060015b848111610e1c57866001600160a01b03166118dd826110f6565b6001600160a01b031614156119265760006118f7826121bd565b90508083858151811061190c5761190c61391d565b60209081029190910101526119226001856138ea565b9350505b8061193081613902565b9150506118c3565b6018805461194590613813565b80601f016020809104026020016040519081016040528092919081815260200182805461197190613813565b80156119be5780601f10611993576101008083540402835291602001916119be565b820191906000526020600020905b8154815290600101906020018083116119a157829003601f168201915b505050505081565b6060600180546108f790613813565b6007546001600160a01b031633146119ff5760405162461bcd60e51b81526004016109e29061384e565b8051611a129060189060208401906132b6565b5050565b611a12338383612c1d565b60178181548110611a3157600080fd5b600091825260209091200154905081565b6007546001600160a01b03163314611a6c5760405162461bcd60e51b81526004016109e29061384e565b6001600160a01b03919091166000908152601160205260409020805460ff1916911515919091179055565b60168181548110611a3157600080fd5b611ab13383612808565b611acd5760405162461bcd60e51b81526004016109e290613883565b611ad984848484612cec565b50505050565b6007546000906001600160a01b03163314611b0c5760405162461bcd60e51b81526004016109e29061384e565b836001600160a01b0316611b1f846110f6565b6001600160a01b031614611b895760405162461bcd60e51b815260206004820152602b60248201527f54686973206164647265737320646f65736e2774206f776e20746865204e465460448201526a1039b832b1b4b334b2b21760a91b60648201526084016109e2565b6007546001600160a01b0316611b9e846110f6565b6001600160a01b031614158015611bd157506009546001600160a01b0316611bc5846110f6565b6001600160a01b031614155b611c435760405162461bcd60e51b815260206004820152603960248201527f43616e27742063686172676520746865206f776e6572206f72206d61726b657460448201527f706c61636520666f7220746865206d656d626572736869702e0000000000000060648201526084016109e2565b6019546001600160a01b03851660009081526012602052604090205415611c99576001600160a01b038516600090815260126020526040902054601954606491611c8c91613933565b611c969190613968565b90505b600a546040516370a0823160e01b81526001600160a01b038781166004830152839216906370a082319060240160206040518083038186803b158015611cde57600080fd5b505afa158015611cf2573d6000803e3d6000fd5b505050506040513d601f19601f82011682018060405250810190611d16919061397c565b1080611da25750600a54604051636eb1769f60e11b81526001600160a01b0387811660048301523060248301528392169063dd62ed3e9060440160206040518083038186803b158015611d6857600080fd5b505afa158015611d7c573d6000803e3d6000fd5b505050506040513d601f19601f82011682018060405250810190611da0919061397c565b105b15611dba57611db084612d1f565b6001915050611ed3565b600a546040516323b872dd60e01b81526001600160a01b03878116600483015230602483015260448201849052909116906323b872dd90606401602060405180830381600087803b158015611e0e57600080fd5b505af1158015611e22573d6000803e3d6000fd5b505050506040513d601f19601f82011682018060405250810190611e469190613995565b508215611e63576000848152601060205260409020839055611e75565b60008481526010602052604090204290555b6001600160a01b03851660008181526012602090815260408083209290925581518481529081018690528692917f9170d37d9d267e1d271f28f3f225ac7e95b00677566675ba1d251944eb3c5924910160405180910390a360009150505b9392505050565b6007546001600160a01b03163314611f045760405162461bcd60e51b81526004016109e29061384e565b600a546001600160a01b031663a9059cbb611f276007546001600160a01b031690565b600a546040516370a0823160e01b81523060048201526001600160a01b03909116906370a082319060240160206040518083038186803b158015611f6a57600080fd5b505afa158015611f7e573d6000803e3d6000fd5b505050506040513d601f19601f82011682018060405250810190611fa2919061397c565b6040516001600160e01b031960e085901b1681526001600160a01b0390921660048301526024820152604401602060405180830381600087803b158015611fe857600080fd5b505af1158015611ffc573d6000803e3d6000fd5b505050506040513d601f19601f820116820180604052508101906120209190613995565b50565b6060600061203060085490565b905060008060015b83811161209c57856001600160a01b0316612052826110f6565b6001600160a01b031614801561207757506015546000828152600b6020526040902054145b1561208a576120876001846138ea565b92505b8061209481613902565b915050612038565b5060008267ffffffffffffffff8111156120b8576120b8613464565b6040519080825280602002602001820160405280156120eb57816020015b60608152602001906001900390816120d65790505b50905060015b848111610e1c57866001600160a01b031661210b826110f6565b6001600160a01b031614801561213057506015546000828152600b6020526040902054145b1561216f576000612140826121bd565b9050808385815181106121555761215561391d565b602090810291909101015261216b6001856138ea565b9350505b8061217981613902565b9150506120f1565b6007546001600160a01b031633146121ab5760405162461bcd60e51b81526004016109e29061384e565b6000918252600b602052604090912055565b60606121c8826126f2565b61222e5760405162461bcd60e51b815260206004820152603160248201527f45524337323155524953746f726167653a2055524920717565727920666f72206044820152703737b732bc34b9ba32b73a103a37b5b2b760791b60648201526084016109e2565b6000828152600660205260408120805461224790613813565b80601f016020809104026020016040519081016040528092919081815260200182805461227390613813565b80156122c05780601f10612295576101008083540402835291602001916122c0565b820191906000526020600020905b8154815290600101906020018083116122a357829003601f168201915b5050505050905060006122de60408051602081019091526000815290565b90508051600014156122f1575092915050565b81511561232357808260405160200161230b9291906139b2565b60405160208183030381529060405292505050919050565b610f9084612e5e565b3360009081526011602052604090205460ff166123995760405162461bcd60e51b815260206004820152602560248201527f4f6e6c7920636f6e74726163742061646d696e732063616e20616464206d656d6044820152643132b9399760d91b60648201526084016109e2565b6001600160a01b03166000908152600e60205260409020805460ff19166001179055565b6007546001600160a01b031633146123e75760405162461bcd60e51b81526004016109e29061384e565b600a80546001600160a01b0319166001600160a01b0392909216919091179055565b6060601780548060200260200160405190810160405280929190818152602001828054801561097057602002820191906000526020600020905b815481526020019060010190808311612443575050505050905090565b606060168054806020026020016040519081016040528092919081815260200182805480156109705760200282019190600052602060002090815481526020019060010190808311612443575050505050905090565b6007546001600160a01b031633146124e05760405162461bcd60e51b81526004016109e29061384e565b601981905560405181907f1361f6a741cb766ea2f0be44a0e1686df0e08320be065f6c8df9e4f639ab297a90600090a250565b6007546001600160a01b0316331461253d5760405162461bcd60e51b81526004016109e29061384e565b61202081612d1f565b6007546001600160a01b031633146125705760405162461bcd60e51b81526004016109e29061384e565b6001600160a01b0381166125d55760405162461bcd60e51b815260206004820152602660248201527f4f776e61626c653a206e6577206f776e657220697320746865207a65726f206160448201526564647265737360d01b60648201526084016109e2565b61202081612bcb565b3360009081526011602052604090205460ff166126595760405162461bcd60e51b815260206004820152603360248201527f4f6e6c7920636f6e74726163742061646d696e732063616e207365742061206d60448201527232b6b132b939b434b8103234b9b1b7bab73a1760691b60648201526084016109e2565b6001600160a01b038216600081815260126020526040808220849055518392917f874556b552951a64a8a3f7627516f395097b3de40cf93b85e87b03118cc02cf091a35050565b6007546001600160a01b031633146126ca5760405162461bcd60e51b81526004016109e29061384e565b60148190556040516f1b595b58995c9cda1a5c151e5c19525960821b815281906010016111c1565b6000908152600260205260409020546001600160a01b0316151590565b600081815260046020526040902080546001600160a01b0319166001600160a01b0384169081179091558190612744826110f6565b6001600160a01b03167f8c5be1e5ebec7d5bd14f71427d1e84f3dd0314c0f7b2291e5b200ac8c7c3b92560405160405180910390a45050565b612786826126f2565b6127e95760405162461bcd60e51b815260206004820152602e60248201527f45524337323155524953746f726167653a2055524920736574206f66206e6f6e60448201526d32bc34b9ba32b73a103a37b5b2b760911b60648201526084016109e2565b60008281526006602090815260409091208251610b18928401906132b6565b6000612813826126f2565b6128745760405162461bcd60e51b815260206004820152602c60248201527f4552433732313a206f70657261746f7220717565727920666f72206e6f6e657860448201526b34b9ba32b73a103a37b5b2b760a11b60648201526084016109e2565b600061287f836110f6565b9050806001600160a01b0316846001600160a01b031614806128ba5750836001600160a01b03166128af8461097a565b6001600160a01b0316145b80610f9057506001600160a01b0380821660009081526005602090815260408083209388168352929052205460ff16610f90565b826001600160a01b0316612901826110f6565b6001600160a01b0316146129655760405162461bcd60e51b815260206004820152602560248201527f4552433732313a207472616e736665722066726f6d20696e636f72726563742060448201526437bbb732b960d91b60648201526084016109e2565b6001600160a01b0382166129c75760405162461bcd60e51b8152602060048201526024808201527f4552433732313a207472616e7366657220746f20746865207a65726f206164646044820152637265737360e01b60648201526084016109e2565b6129d260008261270f565b6001600160a01b03831660009081526003602052604081208054600192906129fb9084906139e1565b90915550506001600160a01b0382166000908152600360205260408120805460019290612a299084906138ea565b909155505060008181526002602052604080822080546001600160a01b0319166001600160a01b0386811691821790925591518493918716917fddf252ad1be2c89b69c2b068fc378daa952ba7f163c4a11628f55a4df523b3ef91a4610b18838383612f35565b6001600160a01b038216612ae65760405162461bcd60e51b815260206004820181905260248201527f4552433732313a206d696e7420746f20746865207a65726f206164647265737360448201526064016109e2565b612aef816126f2565b15612b3c5760405162461bcd60e51b815260206004820152601c60248201527f4552433732313a20746f6b656e20616c7265616479206d696e7465640000000060448201526064016109e2565b6001600160a01b0382166000908152600360205260408120805460019290612b659084906138ea565b909155505060008181526002602052604080822080546001600160a01b0319166001600160a01b03861690811790915590518392907fddf252ad1be2c89b69c2b068fc378daa952ba7f163c4a11628f55a4df523b3ef908290a4611a1260008383612f35565b600780546001600160a01b038381166001600160a01b0319831681179093556040519116919082907f8be0079c531659141344cd1fd0a4f28419497f9722a3daafe3b4186f6b6457e090600090a35050565b816001600160a01b0316836001600160a01b03161415612c7f5760405162461bcd60e51b815260206004820152601960248201527f4552433732313a20617070726f766520746f2063616c6c65720000000000000060448201526064016109e2565b6001600160a01b03838116600081815260056020908152604080832094871680845294825291829020805460ff191686151590811790915591519182527f17307eab39ab6107e8899845ad3d59bd9653f200f220920489ca2b5937696c31910160405180910390a3505050565b612cf78484846128ee565b612d03848484846130ae565b611ad95760405162461bcd60e51b81526004016109e2906139f8565b60005b601754811015611a12578160178281548110612d4057612d4061391d565b90600052602060002001541415612e4c576000612d7960178381548110612d6957612d6961391d565b90600052602060002001546110f6565b9050612da3813060178581548110612d9357612d9361391d565b90600052602060002001546128ee565b60405183906001600160a01b038316907f5ab068fe2788c545757bcb78e3b2d842e34ec21c90f26c60e5ce7686e90b874990600090a360178054612de9906001906139e1565b81548110612df957612df961391d565b906000526020600020015460178381548110612e1757612e1761391d565b6000918252602090912001556017805480612e3457612e34613a4a565b60019003818190600052602060002001600090559055505b80612e5681613902565b915050612d22565b6060612e69826126f2565b612ecd5760405162461bcd60e51b815260206004820152602f60248201527f4552433732314d657461646174613a2055524920717565727920666f72206e6f60448201526e3732bc34b9ba32b73a103a37b5b2b760891b60648201526084016109e2565b6000612ee460408051602081019091526000815290565b90506000815111612f045760405180602001604052806000815250611ed3565b80612f0e846131b8565b604051602001612f1f9291906139b2565b6040516020818303038152906040529392505050565b6014546000828152600b60205260409020541480612f6257506013546000828152600b6020526040902054145b15610b18576007546001600160a01b03848116911614801590612f9357506009546001600160a01b03848116911614155b8015612fa757506001600160a01b03831615155b15613055576001600160a01b0383166000908152600f602052604090205415613034576001600160a01b0383166000908152600f6020526040902054612fef906001906139e1565b6001600160a01b0384166000908152600f6020526040902081905561302f576001600160a01b0383166000908152600e60205260409020805460ff191690555b613055565b6001600160a01b0383166000908152600e60205260409020805460ff191690555b6001600160a01b0382166000908152600e60209081526040808320805460ff19166001908117909155600f90925290912054613090916138ea565b6001600160a01b0383166000908152600f6020526040902055505050565b60006001600160a01b0384163b156131b057604051630a85bd0160e11b81526001600160a01b0385169063150b7a02906130f2903390899088908890600401613a60565b602060405180830381600087803b15801561310c57600080fd5b505af192505050801561313c575060408051601f3d908101601f1916820190925261313991810190613a9d565b60015b613196573d80801561316a576040519150601f19603f3d011682016040523d82523d6000602084013e61316f565b606091505b50805161318e5760405162461bcd60e51b81526004016109e2906139f8565b805181602001fd5b6001600160e01b031916630a85bd0160e11b149050610f90565b506001610f90565b6060816131dc5750506040805180820190915260018152600360fc1b602082015290565b8160005b811561320657806131f081613902565b91506131ff9050600a83613968565b91506131e0565b60008167ffffffffffffffff81111561322157613221613464565b6040519080825280601f01601f19166020018201604052801561324b576020820181803683370190505b5090505b8415610f90576132606001836139e1565b915061326d600a86613aba565b6132789060306138ea565b60f81b81838151811061328d5761328d61391d565b60200101906001600160f81b031916908160001a9053506132af600a86613968565b945061324f565b8280546132c290613813565b90600052602060002090601f0160209004810192826132e4576000855561332a565b82601f106132fd57805160ff191683800117855561332a565b8280016001018555821561332a579182015b8281111561332a57825182559160200191906001019061330f565b5061333692915061333a565b5090565b5b80821115613336576000815560010161333b565b6001600160e01b03198116811461202057600080fd5b60006020828403121561337757600080fd5b8135611ed38161334f565b60005b8381101561339d578181015183820152602001613385565b83811115611ad95750506000910152565b600081518084526133c6816020860160208601613382565b601f01601f19169290920160200192915050565b602081526000611ed360208301846133ae565b6000602082840312156133ff57600080fd5b5035919050565b6001600160a01b038116811461202057600080fd5b6000806040838503121561342e57600080fd5b823561343981613406565b946020939093013593505050565b60006020828403121561345957600080fd5b8135611ed381613406565b634e487b7160e01b600052604160045260246000fd5b600067ffffffffffffffff8084111561349557613495613464565b604051601f8501601f19908116603f011681019082821181831017156134bd576134bd613464565b816040528093508581528686860111156134d657600080fd5b858560208301376000602087830101525050509392505050565b600082601f83011261350157600080fd5b611ed38383356020850161347a565b6000806040838503121561352357600080fd5b82359150602083013567ffffffffffffffff81111561354157600080fd5b61354d858286016134f0565b9150509250929050565b6000806040838503121561356a57600080fd5b50508035926020909101359150565b60008060006060848603121561358e57600080fd5b833561359981613406565b925060208401356135a981613406565b929592945050506040919091013590565b6000602080830181845280855180835260408601915060408160051b870101925083870160005b8281101561360f57603f198886030184526135fd8583516133ae565b945092850192908501906001016135e1565b5092979650505050505050565b6000806000806080858703121561363257600080fd5b843567ffffffffffffffff81111561364957600080fd5b613655878288016134f0565b97602087013597506040870135966060013595509350505050565b60006020828403121561368257600080fd5b813567ffffffffffffffff81111561369957600080fd5b610f90848285016134f0565b801515811461202057600080fd5b600080604083850312156136c657600080fd5b82356136d181613406565b915060208301356136e1816136a5565b809150509250929050565b6000806000806080858703121561370257600080fd5b843561370d81613406565b9350602085013561371d81613406565b925060408501359150606085013567ffffffffffffffff81111561374057600080fd5b8501601f8101871361375157600080fd5b6137608782356020840161347a565b91505092959194509250565b60008060006060848603121561378157600080fd5b833561378c81613406565b95602085013595506040909401359392505050565b6020808252825182820181905260009190848201906040850190845b818110156137d9578351835292840192918401916001016137bd565b50909695505050505050565b600080604083850312156137f857600080fd5b823561380381613406565b915060208301356136e181613406565b600181811c9082168061382757607f821691505b6020821081141561384857634e487b7160e01b600052602260045260246000fd5b50919050565b6020808252818101527f4f776e61626c653a2063616c6c6572206973206e6f7420746865206f776e6572604082015260600190565b60208082526031908201527f4552433732313a207472616e736665722063616c6c6572206973206e6f74206f6040820152701ddb995c881b9bdc88185c1c1c9bdd9959607a1b606082015260800190565b634e487b7160e01b600052601160045260246000fd5b600082198211156138fd576138fd6138d4565b500190565b6000600019821415613916576139166138d4565b5060010190565b634e487b7160e01b600052603260045260246000fd5b600081600019048311821515161561394d5761394d6138d4565b500290565b634e487b7160e01b600052601260045260246000fd5b60008261397757613977613952565b500490565b60006020828403121561398e57600080fd5b5051919050565b6000602082840312156139a757600080fd5b8151611ed3816136a5565b600083516139c4818460208801613382565b8351908301906139d8818360208801613382565b01949350505050565b6000828210156139f3576139f36138d4565b500390565b60208082526032908201527f4552433732313a207472616e7366657220746f206e6f6e20455243373231526560408201527131b2b4bb32b91034b6b83632b6b2b73a32b960711b606082015260800190565b634e487b7160e01b600052603160045260246000fd5b6001600160a01b0385811682528416602082015260408101839052608060608201819052600090613a93908301846133ae565b9695505050505050565b600060208284031215613aaf57600080fd5b8151611ed38161334f565b600082613ac957613ac9613952565b50069056fea2646970667358221220efdd2e9cefb0548bd8968b2f9e281ca0e9e07c3b6915727ea7403d0d6751338864736f6c63430008080033",
  "bytecodeSha1": "b36e0b7e11d6bb8b74065ffef46ea311013d9099",
  "compiler": {
    "evm_version": "istanbul",
    "optimizer": {
      "enabled": true,
      "runs": 200
    },
    "version": "0.8.8+commit.dddeac2f"
  },
  "contractName": "CardinalNFT",
  "language": "Solidity",
  "natspec": {
    "details": "NFT contract that will be used with the marketplace contract",
    "kind": "dev",
    "methods": {
      "addMember(address)": {
        "details": "Allows contract admins to manually add an address as a member. Necessary for memberships purchased through Patreon.",
        "params": {
          "memberAddress": "the address of the member being added"
        }
      },
      "addWhiteListToToken(address,uint256)": {
        "details": "Function to assign an NFT to a whitelist spot so only one address can purchase the NFT.",
        "params": {
          "tokenId": "the ID of the NFT that the whitelist spot is for",
          "whiteListAddress": "the address of the user who will be able to purchase the NFT"
        }
      },
      "approve(address,uint256)": {
        "details": "See {IERC721-approve}."
      },
      "balanceOf(address)": {
        "details": "See {IERC721-balanceOf}."
      },
      "burnMembershiptNFTManually(uint256)": {
        "details": "Only owner function to burn a membership NFT",
        "params": {
          "tokenId": "the tokenId of the membership NFT to burn"
        }
      },
      "chargeMemberForMembership(address,uint256,uint256)": {
        "details": "Only owner function to take funds from an address to pay for the next month of a membership",
        "params": {
          "currTimeStamp": "the current timestamp for the transaction to avoid relying on block.timestamp",
          "member": "the address of the member that is being charged for the next month of a membership",
          "tokenId": "the token ID that the member is being charged"
        },
        "returns": {
          "_0": "0 for success, 1 for failure and NFT burn"
        }
      },
      "createToken(string,uint256,uint256,uint256)": {
        "details": "Only owner function to mint a new NFT.",
        "params": {
          "currTimeStamp": "the current timestamp for the transaction to avoid relying on block.timestamp",
          "listingFee": "the fee the user pays when putting the NFT for sale on the marketplace",
          "newTokenURI": "the token URI on IPFS for the NFT metadata",
          "typeId": "the type ID of the NFT to distinguish what type of NFT it is (Original Cardinal, membership, service)"
        },
        "returns": {
          "_0": "the ID of the newly minted NFT"
        }
      },
      "getApproved(uint256)": {
        "details": "See {IERC721-getApproved}."
      },
      "getMembershipTokenIds()": {
        "details": "Function to get a list of all the membership NFT IDs.",
        "returns": {
          "_0": "list of the membership NFT IDs"
        }
      },
      "getOriginalCardinalTokenIds()": {
        "details": "Function to get a list of all the Original Cardinal NFT IDs.",
        "returns": {
          "_0": "list of the Original Cardinal NFT IDs"
        }
      },
      "getUserMembershipTokenURIs(address)": {
        "details": "Function to get all token URIs for membership NFTs that a given user owns.",
        "params": {
          "userAddress": "the user's address to get token URIs of"
        },
        "returns": {
          "_0": "list of token URIs for a user's membership NFTs"
        }
      },
      "getUserOriginalCardinalTokenURIs(address)": {
        "details": "Function to get all token URIs for Original Cardinal NFTs that a given user owns.",
        "params": {
          "userAddress": "the user's address to get token URIs of"
        },
        "returns": {
          "_0": "list of token URIs for a user's Original Cardinal NFTs"
        }
      },
      "getUserServiceTokenURIs(address)": {
        "details": "Function to get all token URIs for service NFTs that a given user owns.",
        "params": {
          "userAddress": "the user's address to get token URIs of"
        },
        "returns": {
          "_0": "list of token URIs for a user's service NFTs"
        }
      },
      "getUserTokenURIs(address)": {
        "details": "Function to get all token URIs for tokens that a given user owns.",
        "params": {
          "userAddress": "the user's address to get token URIs of"
        },
        "returns": {
          "_0": "list of token URIs for a user's NFTs"
        }
      },
      "isApprovedForAll(address,address)": {
        "details": "See {IERC721-isApprovedForAll}."
      },
      "mintMembershipNFT()": {
        "details": "Allows someone to mint a membership NFT by paying Cardinal Tokens",
        "returns": {
          "_0": "the ID of the newly minted membership NFT"
        }
      },
      "name()": {
        "details": "See {IERC721Metadata-name}."
      },
      "owner()": {
        "details": "Returns the address of the current owner."
      },
      "ownerOf(uint256)": {
        "details": "See {IERC721-ownerOf}."
      },
      "removeMember(address)": {
        "details": "Allows contract admins to manually remove an address as a member. Necessary for when a membership bought through Patreon expires.",
        "params": {
          "memberAddress": "the address to remove from the membership list"
        }
      },
      "renounceOwnership()": {
        "details": "Leaves the contract without owner. It will not be possible to call `onlyOwner` functions anymore. Can only be called by the current owner. NOTE: Renouncing ownership will leave the contract without an owner, thereby removing any functionality that is only available to the owner."
      },
      "safeTransferFrom(address,address,uint256)": {
        "details": "See {IERC721-safeTransferFrom}."
      },
      "safeTransferFrom(address,address,uint256,bytes)": {
        "details": "See {IERC721-safeTransferFrom}."
      },
      "setAdminUser(address,bool)": {
        "details": "Only owner function to update the admin mapping.",
        "params": {
          "adminAddress": "the address to admin rights for",
          "isAdmin": "boolean to determine if the address is an admin or not"
        }
      },
      "setApprovalForAll(address,bool)": {
        "details": "See {IERC721-setApprovalForAll}."
      },
      "setCardinalToken(address)": {
        "details": "Only owner function to set the reference to the Cardinal Token contract",
        "params": {
          "cardinalTokenAddress": "the address for the Cardinal Token contract"
        }
      },
      "setMemberDiscount(address,uint256)": {
        "details": "Allows contract admins to set a membership discount for an address.",
        "params": {
          "discountAmount": "the discount amount, 90 for 90% of membership price, 75 for 75% of membership price, etc.",
          "memberAddress": "the address to give the discount to"
        }
      },
      "setTokenURI(uint256,string)": {
        "details": "Setter function for the token URI of an NFT.",
        "params": {
          "newTokenURI": "the token URI to update the NFT with",
          "tokenId": "the ID of the NFT to update the token URI of"
        }
      },
      "supportsInterface(bytes4)": {
        "details": "See {IERC165-supportsInterface}."
      },
      "symbol()": {
        "details": "See {IERC721Metadata-symbol}."
      },
      "tokenURI(uint256)": {
        "details": "See {IERC721Metadata-tokenURI}."
      },
      "transferFrom(address,address,uint256)": {
        "details": "See {IERC721-transferFrom}."
      },
      "transferOwnership(address)": {
        "details": "Transfers ownership of the contract to a new account (`newOwner`). Can only be called by the current owner."
      },
      "updateMembershipNFTLastPaid(uint256,uint256)": {
        "details": "Only owner function to update the timestamp for a membership NFT after it has been paid for for a month.",
        "params": {
          "lastPaidTimestamp": "the timestamp to update the membership NFT to for when it was last paid for",
          "tokenId": "the ID of the membership NFT to have the timestamp updated for"
        }
      },
      "updateMembershipPrice(uint256)": {
        "details": "sets the price of the membership NFTs in Cardinal Tokens",
        "params": {
          "newMembershipPrice": "the new price of the membership NFTs in Cardinal Tokens"
        }
      },
      "updateMembershipTokenURI(string)": {
        "details": "updates the membership NFT token URI",
        "params": {
          "newMembershipTokenURI": "the new type ID of the service NFTs"
        }
      },
      "updateMembershipTypeId(uint256)": {
        "details": "updates the type ID that represents the membership NFTs",
        "params": {
          "newMembershipTypeId": "the new type ID of the membership NFTs"
        }
      },
      "updateOriginalCardinalTypeId(uint256)": {
        "details": "updates the type ID that represents the Original Cardinal NFTs",
        "params": {
          "newOriginalCardinalTypeId": "the new type ID of the Original Cardinal NFTs"
        }
      },
      "updateServiceTypeId(uint256)": {
        "details": "updates the type ID that represents the service NFTs",
        "params": {
          "newServiceTypeId": "the new type ID of the service NFTs"
        }
      },
      "updateTokenListingFee(uint256,uint256)": {
        "details": "updates the listing fee of an NFT.",
        "params": {
          "newListingFee": "the listing fee value for the NFT",
          "tokenId": "the ID of the NFT to update the listing fee of"
        }
      },
      "updateTokenTypeId(uint256,uint256)": {
        "details": "updates the type ID of an NFT.",
        "params": {
          "newTypeId": "the type ID value for the NFT",
          "tokenId": "the ID of the NFT to update the type ID of"
        }
      },
      "withdrawMembershipNFTFunds()": {
        "details": "Only owner function to withdraw the Cardinal Tokens that are paid to this contract for the Membership NFTs."
      }
    },
    "title": "Cardinal House NFT Contract",
    "version": 1
  },
  "opcodes": "PUSH1 0x80 PUSH1 0x40 MSTORE CALLVALUE DUP1 ISZERO PUSH2 0x10 JUMPI PUSH1 0x0 DUP1 REVERT JUMPDEST POP PUSH1 0x4 CALLDATASIZE LT PUSH2 0x3A4 JUMPI PUSH1 0x0 CALLDATALOAD PUSH1 0xE0 SHR DUP1 PUSH4 0x8F01785D GT PUSH2 0x1E9 JUMPI DUP1 PUSH4 0xC79BA39C GT PUSH2 0x10F JUMPI DUP1 PUSH4 0xE4E0A931 GT PUSH2 0xAD JUMPI DUP1 PUSH4 0xF2FDE38B GT PUSH2 0x7C JUMPI DUP1 PUSH4 0xF2FDE38B EQ PUSH2 0x854 JUMPI DUP1 PUSH4 0xFD18B841 EQ PUSH2 0x867 JUMPI DUP1 PUSH4 0xFE0596F2 EQ PUSH2 0x87A JUMPI DUP1 PUSH4 0xFFEAB8A4 EQ PUSH2 0x883 JUMPI PUSH1 0x0 DUP1 REVERT JUMPDEST DUP1 PUSH4 0xE4E0A931 EQ PUSH2 0x7EA JUMPI DUP1 PUSH4 0xE985E9C5 EQ PUSH2 0x7F2 JUMPI DUP1 PUSH4 0xEBAA42ED EQ PUSH2 0x82E JUMPI DUP1 PUSH4 0xEECBBEC4 EQ PUSH2 0x841 JUMPI PUSH1 0x0 DUP1 REVERT JUMPDEST DUP1 PUSH4 0xD2793D4A GT PUSH2 0xE9 JUMPI DUP1 PUSH4 0xD2793D4A EQ PUSH2 0x78F JUMPI DUP1 PUSH4 0xD473DAB1 EQ PUSH2 0x7A2 JUMPI DUP1 PUSH4 0xDAA17F49 EQ PUSH2 0x7B7 JUMPI DUP1 PUSH4 0xDCA8BC47 EQ PUSH2 0x7CA JUMPI PUSH1 0x0 DUP1 REVERT JUMPDEST DUP1 PUSH4 0xC79BA39C EQ PUSH2 0x756 JUMPI DUP1 PUSH4 0xC87B56DD EQ PUSH2 0x769 JUMPI DUP1 PUSH4 0xCA6D56DC EQ PUSH2 0x77C JUMPI PUSH1 0x0 DUP1 REVERT JUMPDEST DUP1 PUSH4 0xB15D8D5F GT PUSH2 0x187 JUMPI DUP1 PUSH4 0xB88D4FDE GT PUSH2 0x156 JUMPI DUP1 PUSH4 0xB88D4FDE EQ PUSH2 0x715 JUMPI DUP1 PUSH4 0xBB3B407B EQ PUSH2 0x728 JUMPI DUP1 PUSH4 0xBEB48326 EQ PUSH2 0x73B JUMPI DUP1 PUSH4 0xC34E3782 EQ PUSH2 0x743 JUMPI PUSH1 0x0 DUP1 REVERT JUMPDEST DUP1 PUSH4 0xB15D8D5F EQ PUSH2 0x6B9 JUMPI DUP1 PUSH4 0xB27A5F98 EQ PUSH2 0x6CC JUMPI DUP1 PUSH4 0xB43AFFDA EQ PUSH2 0x6DF JUMPI DUP1 PUSH4 0xB5C4B23D EQ PUSH2 0x6F2 JUMPI PUSH1 0x0 DUP1 REVERT JUMPDEST DUP1 PUSH4 0x96291DB6 GT PUSH2 0x1C3 JUMPI DUP1 PUSH4 0x96291DB6 EQ PUSH2 0x669 JUMPI DUP1 PUSH4 0xA22CB465 EQ PUSH2 0x67C JUMPI DUP1 PUSH4 0xAA46A400 EQ PUSH2 0x68F JUMPI DUP1 PUSH4 0xB063C954 EQ PUSH2 0x699 JUMPI PUSH1 0x0 DUP1 REVERT JUMPDEST DUP1 PUSH4 0x8F01785D EQ PUSH2 0x646 JUMPI DUP1 PUSH4 0x95914875 EQ PUSH2 0x659 JUMPI DUP1 PUSH4 0x95D89B41 EQ PUSH2 0x661 JUMPI PUSH1 0x0 DUP1 REVERT JUMPDEST DUP1 PUSH4 0x4623C740 GT PUSH2 0x2CE JUMPI DUP1 PUSH4 0x70A08231 GT PUSH2 0x26C JUMPI DUP1 PUSH4 0x7498D280 GT PUSH2 0x23B JUMPI DUP1 PUSH4 0x7498D280 EQ PUSH2 0x607 JUMPI DUP1 PUSH4 0x7867CCD1 EQ PUSH2 0x60F JUMPI DUP1 PUSH4 0x86794F66 EQ PUSH2 0x622 JUMPI DUP1 PUSH4 0x8DA5CB5B EQ PUSH2 0x635 JUMPI PUSH1 0x0 DUP1 REVERT JUMPDEST DUP1 PUSH4 0x70A08231 EQ PUSH2 0x5D0 JUMPI DUP1 PUSH4 0x715018A6 EQ PUSH2 0x5E3 JUMPI DUP1 PUSH4 0x71AF8374 EQ PUSH2 0x5EB JUMPI DUP1 PUSH4 0x7417353F EQ PUSH2 0x5F4 JUMPI PUSH1 0x0 DUP1 REVERT JUMPDEST DUP1 PUSH4 0x5C23A67A GT PUSH2 0x2A8 JUMPI DUP1 PUSH4 0x5C23A67A EQ PUSH2 0x561 JUMPI DUP1 PUSH4 0x6352211E EQ PUSH2 0x58A JUMPI DUP1 PUSH4 0x66A98EA3 EQ PUSH2 0x59D JUMPI DUP1 PUSH4 0x6F48853B EQ PUSH2 0x5B0 JUMPI PUSH1 0x0 DUP1 REVERT JUMPDEST DUP1 PUSH4 0x4623C740 EQ PUSH2 0x532 JUMPI DUP1 PUSH4 0x46D36230 EQ PUSH2 0x545 JUMPI DUP1 PUSH4 0x56060A74 EQ PUSH2 0x54E JUMPI PUSH1 0x0 DUP1 REVERT JUMPDEST DUP1 PUSH4 0x162094C4 GT PUSH2 0x346 JUMPI DUP1 PUSH4 0x2517FC07 GT PUSH2 0x315 JUMPI DUP1 PUSH4 0x2517FC07 EQ PUSH2 0x4BC JUMPI DUP1 PUSH4 0x28DA575B EQ PUSH2 0x4DC JUMPI DUP1 PUSH4 0x33A41510 EQ PUSH2 0x4FF JUMPI DUP1 PUSH4 0x42842E0E EQ PUSH2 0x51F JUMPI PUSH1 0x0 DUP1 REVERT JUMPDEST DUP1 PUSH4 0x162094C4 EQ PUSH2 0x47A JUMPI DUP1 PUSH4 0x17550165 EQ PUSH2 0x48D JUMPI DUP1 PUSH4 0x1C652FB5 EQ PUSH2 0x496 JUMPI DUP1 PUSH4 0x23B872DD EQ PUSH2 0x4A9 JUMPI PUSH1 0x0 DUP1 REVERT JUMPDEST DUP1 PUSH4 0x95EA7B3 GT PUSH2 0x382 JUMPI DUP1 PUSH4 0x95EA7B3 EQ PUSH2 0x411 JUMPI DUP1 PUSH4 0xB1CA49A EQ PUSH2 0x426 JUMPI DUP1 PUSH4 0xE1BAC89 EQ PUSH2 0x439 JUMPI DUP1 PUSH4 0x11AB8DF5 EQ PUSH2 0x44C JUMPI PUSH1 0x0 DUP1 REVERT JUMPDEST DUP1 PUSH4 0x1FFC9A7 EQ PUSH2 0x3A9 JUMPI DUP1 PUSH4 0x6FDDE03 EQ PUSH2 0x3D1 JUMPI DUP1 PUSH4 0x81812FC EQ PUSH2 0x3E6 JUMPI JUMPDEST PUSH1 0x0 DUP1 REVERT JUMPDEST PUSH2 0x3BC PUSH2 0x3B7 CALLDATASIZE PUSH1 0x4 PUSH2 0x3365 JUMP JUMPDEST PUSH2 0x896 JUMP JUMPDEST PUSH1 0x40 MLOAD SWAP1 ISZERO ISZERO DUP2 MSTORE PUSH1 0x20 ADD JUMPDEST PUSH1 0x40 MLOAD DUP1 SWAP2 SUB SWAP1 RETURN JUMPDEST PUSH2 0x3D9 PUSH2 0x8E8 JUMP JUMPDEST PUSH1 0x40 MLOAD PUSH2 0x3C8 SWAP2 SWAP1 PUSH2 0x33DA JUMP JUMPDEST PUSH2 0x3F9 PUSH2 0x3F4 CALLDATASIZE PUSH1 0x4 PUSH2 0x33ED JUMP JUMPDEST PUSH2 0x97A JUMP JUMPDEST PUSH1 0x40 MLOAD PUSH1 0x1 PUSH1 0x1 PUSH1 0xA0 SHL SUB SWAP1 SWAP2 AND DUP2 MSTORE PUSH1 0x20 ADD PUSH2 0x3C8 JUMP JUMPDEST PUSH2 0x424 PUSH2 0x41F CALLDATASIZE PUSH1 0x4 PUSH2 0x341B JUMP JUMPDEST PUSH2 0xA07 JUMP JUMPDEST STOP JUMPDEST PUSH2 0x424 PUSH2 0x434 CALLDATASIZE PUSH1 0x4 PUSH2 0x3447 JUMP JUMPDEST PUSH2 0xB1D JUMP JUMPDEST PUSH1 0xA SLOAD PUSH2 0x3F9 SWAP1 PUSH1 0x1 PUSH1 0x1 PUSH1 0xA0 SHL SUB AND DUP2 JUMP JUMPDEST PUSH2 0x46C PUSH2 0x45A CALLDATASIZE PUSH1 0x4 PUSH2 0x33ED JUMP JUMPDEST PUSH1 0x10 PUSH1 0x20 MSTORE PUSH1 0x0 SWAP1 DUP2 MSTORE PUSH1 0x40 SWAP1 KECCAK256 SLOAD DUP2 JUMP JUMPDEST PUSH1 0x40 MLOAD SWAP1 DUP2 MSTORE PUSH1 0x20 ADD PUSH2 0x3C8 JUMP JUMPDEST PUSH2 0x424 PUSH2 0x488 CALLDATASIZE PUSH1 0x4 PUSH2 0x3510 JUMP JUMPDEST PUSH2 0xBAF JUMP JUMPDEST PUSH2 0x46C PUSH1 0x14 SLOAD DUP2 JUMP JUMPDEST PUSH2 0x424 PUSH2 0x4A4 CALLDATASIZE PUSH1 0x4 PUSH2 0x3557 JUMP JUMPDEST PUSH2 0xC1F JUMP JUMPDEST PUSH2 0x424 PUSH2 0x4B7 CALLDATASIZE PUSH1 0x4 PUSH2 0x3579 JUMP JUMPDEST PUSH2 0xC5B JUMP JUMPDEST PUSH2 0x46C PUSH2 0x4CA CALLDATASIZE PUSH1 0x4 PUSH2 0x3447 JUMP JUMPDEST PUSH1 0x12 PUSH1 0x20 MSTORE PUSH1 0x0 SWAP1 DUP2 MSTORE PUSH1 0x40 SWAP1 KECCAK256 SLOAD DUP2 JUMP JUMPDEST PUSH2 0x3BC PUSH2 0x4EA CALLDATASIZE PUSH1 0x4 PUSH2 0x3447 JUMP JUMPDEST PUSH1 0xE PUSH1 0x20 MSTORE PUSH1 0x0 SWAP1 DUP2 MSTORE PUSH1 0x40 SWAP1 KECCAK256 SLOAD PUSH1 0xFF AND DUP2 JUMP JUMPDEST PUSH2 0x512 PUSH2 0x50D CALLDATASIZE PUSH1 0x4 PUSH2 0x3447 JUMP JUMPDEST PUSH2 0xC8C JUMP JUMPDEST PUSH1 0x40 MLOAD PUSH2 0x3C8 SWAP2 SWAP1 PUSH2 0x35BA JUMP JUMPDEST PUSH2 0x424 PUSH2 0x52D CALLDATASIZE PUSH1 0x4 PUSH2 0x3579 JUMP JUMPDEST PUSH2 0xE26 JUMP JUMPDEST PUSH2 0x46C PUSH2 0x540 CALLDATASIZE PUSH1 0x4 PUSH2 0x361C JUMP JUMPDEST PUSH2 0xE41 JUMP JUMPDEST PUSH2 0x46C PUSH1 0x13 SLOAD DUP2 JUMP JUMPDEST PUSH2 0x512 PUSH2 0x55C CALLDATASIZE PUSH1 0x4 PUSH2 0x3447 JUMP JUMPDEST PUSH2 0xF98 JUMP JUMPDEST PUSH2 0x3F9 PUSH2 0x56F CALLDATASIZE PUSH1 0x4 PUSH2 0x33ED JUMP JUMPDEST PUSH1 0xD PUSH1 0x20 MSTORE PUSH1 0x0 SWAP1 DUP2 MSTORE PUSH1 0x40 SWAP1 KECCAK256 SLOAD PUSH1 0x1 PUSH1 0x1 PUSH1 0xA0 SHL SUB AND DUP2 JUMP JUMPDEST PUSH2 0x3F9 PUSH2 0x598 CALLDATASIZE PUSH1 0x4 PUSH2 0x33ED JUMP JUMPDEST PUSH2 0x10F6 JUMP JUMPDEST PUSH2 0x424 PUSH2 0x5AB CALLDATASIZE PUSH1 0x4 PUSH2 0x33ED JUMP JUMPDEST PUSH2 0x116D JUMP JUMPDEST PUSH2 0x46C PUSH2 0x5BE CALLDATASIZE PUSH1 0x4 PUSH2 0x33ED JUMP JUMPDEST PUSH1 0xB PUSH1 0x20 MSTORE PUSH1 0x0 SWAP1 DUP2 MSTORE PUSH1 0x40 SWAP1 KECCAK256 SLOAD DUP2 JUMP JUMPDEST PUSH2 0x46C PUSH2 0x5DE CALLDATASIZE PUSH1 0x4 PUSH2 0x3447 JUMP JUMPDEST PUSH2 0x11F4 JUMP JUMPDEST PUSH2 0x424 PUSH2 0x127B JUMP JUMPDEST PUSH2 0x46C PUSH1 0x15 SLOAD DUP2 JUMP JUMPDEST PUSH2 0x424 PUSH2 0x602 CALLDATASIZE PUSH1 0x4 PUSH2 0x341B JUMP JUMPDEST PUSH2 0x12B1 JUMP JUMPDEST PUSH2 0x46C PUSH2 0x1309 JUMP JUMPDEST PUSH2 0x424 PUSH2 0x61D CALLDATASIZE PUSH1 0x4 PUSH2 0x3557 JUMP JUMPDEST PUSH2 0x1785 JUMP JUMPDEST PUSH2 0x424 PUSH2 0x630 CALLDATASIZE PUSH1 0x4 PUSH2 0x33ED JUMP JUMPDEST PUSH2 0x17C1 JUMP JUMPDEST PUSH1 0x7 SLOAD PUSH1 0x1 PUSH1 0x1 PUSH1 0xA0 SHL SUB AND PUSH2 0x3F9 JUMP JUMPDEST PUSH2 0x512 PUSH2 0x654 CALLDATASIZE PUSH1 0x4 PUSH2 0x3447 JUMP JUMPDEST PUSH2 0x1810 JUMP JUMPDEST PUSH2 0x3D9 PUSH2 0x1938 JUMP JUMPDEST PUSH2 0x3D9 PUSH2 0x19C6 JUMP JUMPDEST PUSH2 0x424 PUSH2 0x677 CALLDATASIZE PUSH1 0x4 PUSH2 0x3670 JUMP JUMPDEST PUSH2 0x19D5 JUMP JUMPDEST PUSH2 0x424 PUSH2 0x68A CALLDATASIZE PUSH1 0x4 PUSH2 0x36B3 JUMP JUMPDEST PUSH2 0x1A16 JUMP JUMPDEST PUSH1 0x8 SLOAD PUSH2 0x46C SWAP1 DUP2 JUMP JUMPDEST PUSH2 0x46C PUSH2 0x6A7 CALLDATASIZE PUSH1 0x4 PUSH2 0x33ED JUMP JUMPDEST PUSH1 0xC PUSH1 0x20 MSTORE PUSH1 0x0 SWAP1 DUP2 MSTORE PUSH1 0x40 SWAP1 KECCAK256 SLOAD DUP2 JUMP JUMPDEST PUSH2 0x46C PUSH2 0x6C7 CALLDATASIZE PUSH1 0x4 PUSH2 0x33ED JUMP JUMPDEST PUSH2 0x1A21 JUMP JUMPDEST PUSH2 0x424 PUSH2 0x6DA CALLDATASIZE PUSH1 0x4 PUSH2 0x36B3 JUMP JUMPDEST PUSH2 0x1A42 JUMP JUMPDEST PUSH2 0x46C PUSH2 0x6ED CALLDATASIZE PUSH1 0x4 PUSH2 0x33ED JUMP JUMPDEST PUSH2 0x1A97 JUMP JUMPDEST PUSH2 0x3BC PUSH2 0x700 CALLDATASIZE PUSH1 0x4 PUSH2 0x3447 JUMP JUMPDEST PUSH1 0x11 PUSH1 0x20 MSTORE PUSH1 0x0 SWAP1 DUP2 MSTORE PUSH1 0x40 SWAP1 KECCAK256 SLOAD PUSH1 0xFF AND DUP2 JUMP JUMPDEST PUSH2 0x424 PUSH2 0x723 CALLDATASIZE PUSH1 0x4 PUSH2 0x36EC JUMP JUMPDEST PUSH2 0x1AA7 JUMP JUMPDEST PUSH2 0x46C PUSH2 0x736 CALLDATASIZE PUSH1 0x4 PUSH2 0x376C JUMP JUMPDEST PUSH2 0x1ADF JUMP JUMPDEST PUSH2 0x424 PUSH2 0x1EDA JUMP JUMPDEST PUSH2 0x512 PUSH2 0x751 CALLDATASIZE PUSH1 0x4 PUSH2 0x3447 JUMP JUMPDEST PUSH2 0x2023 JUMP JUMPDEST PUSH2 0x424 PUSH2 0x764 CALLDATASIZE PUSH1 0x4 PUSH2 0x3557 JUMP JUMPDEST PUSH2 0x2181 JUMP JUMPDEST PUSH2 0x3D9 PUSH2 0x777 CALLDATASIZE PUSH1 0x4 PUSH2 0x33ED JUMP JUMPDEST PUSH2 0x21BD JUMP JUMPDEST PUSH2 0x424 PUSH2 0x78A CALLDATASIZE PUSH1 0x4 PUSH2 0x3447 JUMP JUMPDEST PUSH2 0x232C JUMP JUMPDEST PUSH2 0x424 PUSH2 0x79D CALLDATASIZE PUSH1 0x4 PUSH2 0x3447 JUMP JUMPDEST PUSH2 0x23BD JUMP JUMPDEST PUSH2 0x7AA PUSH2 0x2409 JUMP JUMPDEST PUSH1 0x40 MLOAD PUSH2 0x3C8 SWAP2 SWAP1 PUSH2 0x37A1 JUMP JUMPDEST PUSH1 0x9 SLOAD PUSH2 0x3F9 SWAP1 PUSH1 0x1 PUSH1 0x1 PUSH1 0xA0 SHL SUB AND DUP2 JUMP JUMPDEST PUSH2 0x46C PUSH2 0x7D8 CALLDATASIZE PUSH1 0x4 PUSH2 0x3447 JUMP JUMPDEST PUSH1 0xF PUSH1 0x20 MSTORE PUSH1 0x0 SWAP1 DUP2 MSTORE PUSH1 0x40 SWAP1 KECCAK256 SLOAD DUP2 JUMP JUMPDEST PUSH2 0x7AA PUSH2 0x2460 JUMP JUMPDEST PUSH2 0x3BC PUSH2 0x800 CALLDATASIZE PUSH1 0x4 PUSH2 0x37E5 JUMP JUMPDEST PUSH1 0x1 PUSH1 0x1 PUSH1 0xA0 SHL SUB SWAP2 DUP3 AND PUSH1 0x0 SWAP1 DUP2 MSTORE PUSH1 0x5 PUSH1 0x20 SWAP1 DUP2 MSTORE PUSH1 0x40 DUP1 DUP4 KECCAK256 SWAP4 SWAP1 SWAP5 AND DUP3 MSTORE SWAP2 SWAP1 SWAP2 MSTORE KECCAK256 SLOAD PUSH1 0xFF AND SWAP1 JUMP JUMPDEST PUSH2 0x424 PUSH2 0x83C CALLDATASIZE PUSH1 0x4 PUSH2 0x33ED JUMP JUMPDEST PUSH2 0x24B6 JUMP JUMPDEST PUSH2 0x424 PUSH2 0x84F CALLDATASIZE PUSH1 0x4 PUSH2 0x33ED JUMP JUMPDEST PUSH2 0x2513 JUMP JUMPDEST PUSH2 0x424 PUSH2 0x862 CALLDATASIZE PUSH1 0x4 PUSH2 0x3447 JUMP JUMPDEST PUSH2 0x2546 JUMP JUMPDEST PUSH2 0x424 PUSH2 0x875 CALLDATASIZE PUSH1 0x4 PUSH2 0x341B JUMP JUMPDEST PUSH2 0x25DE JUMP JUMPDEST PUSH2 0x46C PUSH1 0x19 SLOAD DUP2 JUMP JUMPDEST PUSH2 0x424 PUSH2 0x891 CALLDATASIZE PUSH1 0x4 PUSH2 0x33ED JUMP JUMPDEST PUSH2 0x26A0 JUMP JUMPDEST PUSH1 0x0 PUSH1 0x1 PUSH1 0x1 PUSH1 0xE0 SHL SUB NOT DUP3 AND PUSH4 0x80AC58CD PUSH1 0xE0 SHL EQ DUP1 PUSH2 0x8C7 JUMPI POP PUSH1 0x1 PUSH1 0x1 PUSH1 0xE0 SHL SUB NOT DUP3 AND PUSH4 0x5B5E139F PUSH1 0xE0 SHL EQ JUMPDEST DUP1 PUSH2 0x8E2 JUMPI POP PUSH4 0x1FFC9A7 PUSH1 0xE0 SHL PUSH1 0x1 PUSH1 0x1 PUSH1 0xE0 SHL SUB NOT DUP4 AND EQ JUMPDEST SWAP3 SWAP2 POP POP JUMP JUMPDEST PUSH1 0x60 PUSH1 0x0 DUP1 SLOAD PUSH2 0x8F7 SWAP1 PUSH2 0x3813 JUMP JUMPDEST DUP1 PUSH1 0x1F ADD PUSH1 0x20 DUP1 SWAP2 DIV MUL PUSH1 0x20 ADD PUSH1 0x40 MLOAD SWAP1 DUP2 ADD PUSH1 0x40 MSTORE DUP1 SWAP3 SWAP2 SWAP1 DUP2 DUP2 MSTORE PUSH1 0x20 ADD DUP3 DUP1 SLOAD PUSH2 0x923 SWAP1 PUSH2 0x3813 JUMP JUMPDEST DUP1 ISZERO PUSH2 0x970 JUMPI DUP1 PUSH1 0x1F LT PUSH2 0x945 JUMPI PUSH2 0x100 DUP1 DUP4 SLOAD DIV MUL DUP4 MSTORE SWAP2 PUSH1 0x20 ADD SWAP2 PUSH2 0x970 JUMP JUMPDEST DUP3 ADD SWAP2 SWAP1 PUSH1 0x0 MSTORE PUSH1 0x20 PUSH1 0x0 KECCAK256 SWAP1 JUMPDEST DUP2 SLOAD DUP2 MSTORE SWAP1 PUSH1 0x1 ADD SWAP1 PUSH1 0x20 ADD DUP1 DUP4 GT PUSH2 0x953 JUMPI DUP3 SWAP1 SUB PUSH1 0x1F AND DUP3 ADD SWAP2 JUMPDEST POP POP POP POP POP SWAP1 POP SWAP1 JUMP JUMPDEST PUSH1 0x0 PUSH2 0x985 DUP3 PUSH2 0x26F2 JUMP JUMPDEST PUSH2 0x9EB JUMPI PUSH1 0x40 MLOAD PUSH3 0x461BCD PUSH1 0xE5 SHL DUP2 MSTORE PUSH1 0x20 PUSH1 0x4 DUP3 ADD MSTORE PUSH1 0x2C PUSH1 0x24 DUP3 ADD MSTORE PUSH32 0x4552433732313A20617070726F76656420717565727920666F72206E6F6E6578 PUSH1 0x44 DUP3 ADD MSTORE PUSH12 0x34B9BA32B73A103A37B5B2B7 PUSH1 0xA1 SHL PUSH1 0x64 DUP3 ADD MSTORE PUSH1 0x84 ADD JUMPDEST PUSH1 0x40 MLOAD DUP1 SWAP2 SUB SWAP1 REVERT JUMPDEST POP PUSH1 0x0 SWAP1 DUP2 MSTORE PUSH1 0x4 PUSH1 0x20 MSTORE PUSH1 0x40 SWAP1 KECCAK256 SLOAD PUSH1 0x1 PUSH1 0x1 PUSH1 0xA0 SHL SUB AND SWAP1 JUMP JUMPDEST PUSH1 0x0 PUSH2 0xA12 DUP3 PUSH2 0x10F6 JUMP JUMPDEST SWAP1 POP DUP1 PUSH1 0x1 PUSH1 0x1 PUSH1 0xA0 SHL SUB AND DUP4 PUSH1 0x1 PUSH1 0x1 PUSH1 0xA0 SHL SUB AND EQ ISZERO PUSH2 0xA80 JUMPI PUSH1 0x40 MLOAD PUSH3 0x461BCD PUSH1 0xE5 SHL DUP2 MSTORE PUSH1 0x20 PUSH1 0x4 DUP3 ADD MSTORE PUSH1 0x21 PUSH1 0x24 DUP3 ADD MSTORE PUSH32 0x4552433732313A20617070726F76616C20746F2063757272656E74206F776E65 PUSH1 0x44 DUP3 ADD MSTORE PUSH1 0x39 PUSH1 0xF9 SHL PUSH1 0x64 DUP3 ADD MSTORE PUSH1 0x84 ADD PUSH2 0x9E2 JUMP JUMPDEST CALLER PUSH1 0x1 PUSH1 0x1 PUSH1 0xA0 SHL SUB DUP3 AND EQ DUP1 PUSH2 0xA9C JUMPI POP PUSH2 0xA9C DUP2 CALLER PUSH2 0x800 JUMP JUMPDEST PUSH2 0xB0E JUMPI PUSH1 0x40 MLOAD PUSH3 0x461BCD PUSH1 0xE5 SHL DUP2 MSTORE PUSH1 0x20 PUSH1 0x4 DUP3 ADD MSTORE PUSH1 0x38 PUSH1 0x24 DUP3 ADD MSTORE PUSH32 0x4552433732313A20617070726F76652063616C6C6572206973206E6F74206F77 PUSH1 0x44 DUP3 ADD MSTORE PUSH32 0x6E6572206E6F7220617070726F76656420666F7220616C6C0000000000000000 PUSH1 0x64 DUP3 ADD MSTORE PUSH1 0x84 ADD PUSH2 0x9E2 JUMP JUMPDEST PUSH2 0xB18 DUP4 DUP4 PUSH2 0x270F JUMP JUMPDEST POP POP POP JUMP JUMPDEST CALLER PUSH1 0x0 SWAP1 DUP2 MSTORE PUSH1 0x11 PUSH1 0x20 MSTORE PUSH1 0x40 SWAP1 KECCAK256 SLOAD PUSH1 0xFF AND PUSH2 0xB8E JUMPI PUSH1 0x40 MLOAD PUSH3 0x461BCD PUSH1 0xE5 SHL DUP2 MSTORE PUSH1 0x20 PUSH1 0x4 DUP3 ADD MSTORE PUSH1 0x29 PUSH1 0x24 DUP3 ADD MSTORE PUSH32 0x4F6E6C7920636F6E74726163742061646D696E732063616E2072656D6F766520 PUSH1 0x44 DUP3 ADD MSTORE PUSH9 0x309036B2B6B132B917 PUSH1 0xB9 SHL PUSH1 0x64 DUP3 ADD MSTORE PUSH1 0x84 ADD PUSH2 0x9E2 JUMP JUMPDEST PUSH1 0x1 PUSH1 0x1 PUSH1 0xA0 SHL SUB AND PUSH1 0x0 SWAP1 DUP2 MSTORE PUSH1 0xE PUSH1 0x20 MSTORE PUSH1 0x40 SWAP1 KECCAK256 DUP1 SLOAD PUSH1 0xFF NOT AND SWAP1 SSTORE JUMP JUMPDEST PUSH1 0x7 SLOAD PUSH1 0x1 PUSH1 0x1 PUSH1 0xA0 SHL SUB AND CALLER EQ PUSH2 0xBD9 JUMPI PUSH1 0x40 MLOAD PUSH3 0x461BCD PUSH1 0xE5 SHL DUP2 MSTORE PUSH1 0x4 ADD PUSH2 0x9E2 SWAP1 PUSH2 0x384E JUMP JUMPDEST PUSH2 0xBE3 DUP3 DUP3 PUSH2 0x277D JUMP JUMPDEST DUP2 PUSH32 0xC794E2271B51F209D8A645EEC85692351AD1ADC857AB2E06F9C5AF7961CF07D5 DUP3 PUSH1 0x40 MLOAD PUSH2 0xC13 SWAP2 SWAP1 PUSH2 0x33DA JUMP JUMPDEST PUSH1 0x40 MLOAD DUP1 SWAP2 SUB SWAP1 LOG2 POP POP JUMP JUMPDEST PUSH1 0x7 SLOAD PUSH1 0x1 PUSH1 0x1 PUSH1 0xA0 SHL SUB AND CALLER EQ PUSH2 0xC49 JUMPI PUSH1 0x40 MLOAD PUSH3 0x461BCD PUSH1 0xE5 SHL DUP2 MSTORE PUSH1 0x4 ADD PUSH2 0x9E2 SWAP1 PUSH2 0x384E JUMP JUMPDEST PUSH1 0x0 SWAP2 DUP3 MSTORE PUSH1 0x10 PUSH1 0x20 MSTORE PUSH1 0x40 SWAP1 SWAP2 KECCAK256 SSTORE JUMP JUMPDEST PUSH2 0xC65 CALLER DUP3 PUSH2 0x2808 JUMP JUMPDEST PUSH2 0xC81 JUMPI PUSH1 0x40 MLOAD PUSH3 0x461BCD PUSH1 0xE5 SHL DUP2 MSTORE PUSH1 0x4 ADD PUSH2 0x9E2 SWAP1 PUSH2 0x3883 JUMP JUMPDEST PUSH2 0xB18 DUP4 DUP4 DUP4 PUSH2 0x28EE JUMP JUMPDEST PUSH1 0x60 PUSH1 0x0 PUSH2 0xC99 PUSH1 0x8 SLOAD SWAP1 JUMP JUMPDEST SWAP1 POP PUSH1 0x0 DUP1 PUSH1 0x1 JUMPDEST DUP4 DUP2 GT PUSH2 0xD1E JUMPI DUP6 PUSH1 0x1 PUSH1 0x1 PUSH1 0xA0 SHL SUB AND PUSH2 0xCBB DUP3 PUSH2 0x10F6 JUMP JUMPDEST PUSH1 0x1 PUSH1 0x1 PUSH1 0xA0 SHL SUB AND EQ DUP1 ISZERO PUSH2 0xCF9 JUMPI POP PUSH1 0x13 SLOAD PUSH1 0x0 DUP3 DUP2 MSTORE PUSH1 0xB PUSH1 0x20 MSTORE PUSH1 0x40 SWAP1 KECCAK256 SLOAD EQ DUP1 PUSH2 0xCF9 JUMPI POP PUSH1 0x14 SLOAD PUSH1 0x0 DUP3 DUP2 MSTORE PUSH1 0xB PUSH1 0x20 MSTORE PUSH1 0x40 SWAP1 KECCAK256 SLOAD EQ JUMPDEST ISZERO PUSH2 0xD0C JUMPI PUSH2 0xD09 PUSH1 0x1 DUP5 PUSH2 0x38EA JUMP JUMPDEST SWAP3 POP JUMPDEST DUP1 PUSH2 0xD16 DUP2 PUSH2 0x3902 JUMP JUMPDEST SWAP2 POP POP PUSH2 0xCA1 JUMP JUMPDEST POP PUSH1 0x0 DUP3 PUSH8 0xFFFFFFFFFFFFFFFF DUP2 GT ISZERO PUSH2 0xD3A JUMPI PUSH2 0xD3A PUSH2 0x3464 JUMP JUMPDEST PUSH1 0x40 MLOAD SWAP1 DUP1 DUP3 MSTORE DUP1 PUSH1 0x20 MUL PUSH1 0x20 ADD DUP3 ADD PUSH1 0x40 MSTORE DUP1 ISZERO PUSH2 0xD6D JUMPI DUP2 PUSH1 0x20 ADD JUMPDEST PUSH1 0x60 DUP2 MSTORE PUSH1 0x20 ADD SWAP1 PUSH1 0x1 SWAP1 SUB SWAP1 DUP2 PUSH2 0xD58 JUMPI SWAP1 POP JUMPDEST POP SWAP1 POP PUSH1 0x1 JUMPDEST DUP5 DUP2 GT PUSH2 0xE1C JUMPI DUP7 PUSH1 0x1 PUSH1 0x1 PUSH1 0xA0 SHL SUB AND PUSH2 0xD8D DUP3 PUSH2 0x10F6 JUMP JUMPDEST PUSH1 0x1 PUSH1 0x1 PUSH1 0xA0 SHL SUB AND EQ DUP1 ISZERO PUSH2 0xDCB JUMPI POP PUSH1 0x13 SLOAD PUSH1 0x0 DUP3 DUP2 MSTORE PUSH1 0xB PUSH1 0x20 MSTORE PUSH1 0x40 SWAP1 KECCAK256 SLOAD EQ DUP1 PUSH2 0xDCB JUMPI POP PUSH1 0x14 SLOAD PUSH1 0x0 DUP3 DUP2 MSTORE PUSH1 0xB PUSH1 0x20 MSTORE PUSH1 0x40 SWAP1 KECCAK256 SLOAD EQ JUMPDEST ISZERO PUSH2 0xE0A JUMPI PUSH1 0x0 PUSH2 0xDDB DUP3 PUSH2 0x21BD JUMP JUMPDEST SWAP1 POP DUP1 DUP4 DUP6 DUP2 MLOAD DUP2 LT PUSH2 0xDF0 JUMPI PUSH2 0xDF0 PUSH2 0x391D JUMP JUMPDEST PUSH1 0x20 SWAP1 DUP2 MUL SWAP2 SWAP1 SWAP2 ADD ADD MSTORE PUSH2 0xE06 PUSH1 0x1 DUP6 PUSH2 0x38EA JUMP JUMPDEST SWAP4 POP POP JUMPDEST DUP1 PUSH2 0xE14 DUP2 PUSH2 0x3902 JUMP JUMPDEST SWAP2 POP POP PUSH2 0xD73 JUMP JUMPDEST POP SWAP6 SWAP5 POP POP POP POP POP JUMP JUMPDEST PUSH2 0xB18 DUP4 DUP4 DUP4 PUSH1 0x40 MLOAD DUP1 PUSH1 0x20 ADD PUSH1 0x40 MSTORE DUP1 PUSH1 0x0 DUP2 MSTORE POP PUSH2 0x1AA7 JUMP JUMPDEST PUSH1 0x7 SLOAD PUSH1 0x0 SWAP1 PUSH1 0x1 PUSH1 0x1 PUSH1 0xA0 SHL SUB AND CALLER EQ PUSH2 0xE6E JUMPI PUSH1 0x40 MLOAD PUSH3 0x461BCD PUSH1 0xE5 SHL DUP2 MSTORE PUSH1 0x4 ADD PUSH2 0x9E2 SWAP1 PUSH2 0x384E JUMP JUMPDEST PUSH2 0xE7C PUSH1 0x8 DUP1 SLOAD PUSH1 0x1 ADD SWAP1 SSTORE JUMP JUMPDEST PUSH1 0x0 PUSH2 0xE87 PUSH1 0x8 SLOAD SWAP1 JUMP JUMPDEST PUSH1 0x0 DUP2 DUP2 MSTORE PUSH1 0xB PUSH1 0x20 SWAP1 DUP2 MSTORE PUSH1 0x40 DUP1 DUP4 KECCAK256 DUP10 SWAP1 SSTORE PUSH1 0xC SWAP1 SWAP2 MSTORE SWAP1 KECCAK256 DUP6 SWAP1 SSTORE SWAP1 POP PUSH2 0xEB1 CALLER DUP3 PUSH2 0x2A90 JUMP JUMPDEST PUSH2 0xEBB DUP2 DUP8 PUSH2 0x277D JUMP JUMPDEST PUSH2 0xEC5 ADDRESS DUP3 PUSH2 0xA07 JUMP JUMPDEST PUSH1 0x9 SLOAD PUSH2 0xEDC SWAP1 PUSH1 0x1 PUSH1 0x1 PUSH1 0xA0 SHL SUB AND PUSH1 0x1 PUSH2 0x1A16 JUMP JUMPDEST PUSH1 0x13 SLOAD DUP6 EQ ISZERO PUSH2 0xF20 JUMPI PUSH1 0x16 DUP1 SLOAD PUSH1 0x1 DUP2 ADD DUP3 SSTORE PUSH1 0x0 SWAP2 SWAP1 SWAP2 MSTORE PUSH32 0xD833147D7DC355BA459FC788F669E58CFAF9DC25DDCD0702E87D69C7B5124289 ADD DUP2 SWAP1 SSTORE PUSH2 0xF8D JUMP JUMPDEST PUSH1 0x14 SLOAD DUP6 EQ ISZERO PUSH2 0xF8D JUMPI PUSH1 0x17 DUP1 SLOAD PUSH1 0x1 DUP2 ADD DUP3 SSTORE PUSH1 0x0 SWAP2 SWAP1 SWAP2 MSTORE PUSH32 0xC624B66CC0138B8FABC209247F72D758E1CF3343756D543BADBF24212BED8C15 ADD DUP2 SWAP1 SSTORE DUP3 ISZERO PUSH2 0xF7B JUMPI PUSH1 0x0 DUP2 DUP2 MSTORE PUSH1 0x10 PUSH1 0x20 MSTORE PUSH1 0x40 SWAP1 KECCAK256 DUP4 SWAP1 SSTORE PUSH2 0xF8D JUMP JUMPDEST PUSH1 0x0 DUP2 DUP2 MSTORE PUSH1 0x10 PUSH1 0x20 MSTORE PUSH1 0x40 SWAP1 KECCAK256 TIMESTAMP SWAP1 SSTORE JUMPDEST SWAP1 POP JUMPDEST SWAP5 SWAP4 POP POP POP POP JUMP JUMPDEST PUSH1 0x60 PUSH1 0x0 PUSH2 0xFA5 PUSH1 0x8 SLOAD SWAP1 JUMP JUMPDEST SWAP1 POP PUSH1 0x0 DUP1 PUSH1 0x1 JUMPDEST DUP4 DUP2 GT PUSH2 0x1011 JUMPI DUP6 PUSH1 0x1 PUSH1 0x1 PUSH1 0xA0 SHL SUB AND PUSH2 0xFC7 DUP3 PUSH2 0x10F6 JUMP JUMPDEST PUSH1 0x1 PUSH1 0x1 PUSH1 0xA0 SHL SUB AND EQ DUP1 ISZERO PUSH2 0xFEC JUMPI POP PUSH1 0x13 SLOAD PUSH1 0x0 DUP3 DUP2 MSTORE PUSH1 0xB PUSH1 0x20 MSTORE PUSH1 0x40 SWAP1 KECCAK256 SLOAD EQ JUMPDEST ISZERO PUSH2 0xFFF JUMPI PUSH2 0xFFC PUSH1 0x1 DUP5 PUSH2 0x38EA JUMP JUMPDEST SWAP3 POP JUMPDEST DUP1 PUSH2 0x1009 DUP2 PUSH2 0x3902 JUMP JUMPDEST SWAP2 POP POP PUSH2 0xFAD JUMP JUMPDEST POP PUSH1 0x0 DUP3 PUSH8 0xFFFFFFFFFFFFFFFF DUP2 GT ISZERO PUSH2 0x102D JUMPI PUSH2 0x102D PUSH2 0x3464 JUMP JUMPDEST PUSH1 0x40 MLOAD SWAP1 DUP1 DUP3 MSTORE DUP1 PUSH1 0x20 MUL PUSH1 0x20 ADD DUP3 ADD PUSH1 0x40 MSTORE DUP1 ISZERO PUSH2 0x1060 JUMPI DUP2 PUSH1 0x20 ADD JUMPDEST PUSH1 0x60 DUP2 MSTORE PUSH1 0x20 ADD SWAP1 PUSH1 0x1 SWAP1 SUB SWAP1 DUP2 PUSH2 0x104B JUMPI SWAP1 POP JUMPDEST POP SWAP1 POP PUSH1 0x1 JUMPDEST DUP5 DUP2 GT PUSH2 0xE1C JUMPI DUP7 PUSH1 0x1 PUSH1 0x1 PUSH1 0xA0 SHL SUB AND PUSH2 0x1080 DUP3 PUSH2 0x10F6 JUMP JUMPDEST PUSH1 0x1 PUSH1 0x1 PUSH1 0xA0 SHL SUB AND EQ DUP1 ISZERO PUSH2 0x10A5 JUMPI POP PUSH1 0x13 SLOAD PUSH1 0x0 DUP3 DUP2 MSTORE PUSH1 0xB PUSH1 0x20 MSTORE PUSH1 0x40 SWAP1 KECCAK256 SLOAD EQ JUMPDEST ISZERO PUSH2 0x10E4 JUMPI PUSH1 0x0 PUSH2 0x10B5 DUP3 PUSH2 0x21BD JUMP JUMPDEST SWAP1 POP DUP1 DUP4 DUP6 DUP2 MLOAD DUP2 LT PUSH2 0x10CA JUMPI PUSH2 0x10CA PUSH2 0x391D JUMP JUMPDEST PUSH1 0x20 SWAP1 DUP2 MUL SWAP2 SWAP1 SWAP2 ADD ADD MSTORE PUSH2 0x10E0 PUSH1 0x1 DUP6 PUSH2 0x38EA JUMP JUMPDEST SWAP4 POP POP JUMPDEST DUP1 PUSH2 0x10EE DUP2 PUSH2 0x3902 JUMP JUMPDEST SWAP2 POP POP PUSH2 0x1066 JUMP JUMPDEST PUSH1 0x0 DUP2 DUP2 MSTORE PUSH1 0x2 PUSH1 0x20 MSTORE PUSH1 0x40 DUP2 KECCAK256 SLOAD PUSH1 0x1 PUSH1 0x1 PUSH1 0xA0 SHL SUB AND DUP1 PUSH2 0x8E2 JUMPI PUSH1 0x40 MLOAD PUSH3 0x461BCD PUSH1 0xE5 SHL DUP2 MSTORE PUSH1 0x20 PUSH1 0x4 DUP3 ADD MSTORE PUSH1 0x29 PUSH1 0x24 DUP3 ADD MSTORE PUSH32 0x4552433732313A206F776E657220717565727920666F72206E6F6E6578697374 PUSH1 0x44 DUP3 ADD MSTORE PUSH9 0x32B73A103A37B5B2B7 PUSH1 0xB9 SHL PUSH1 0x64 DUP3 ADD MSTORE PUSH1 0x84 ADD PUSH2 0x9E2 JUMP JUMPDEST PUSH1 0x7 SLOAD PUSH1 0x1 PUSH1 0x1 PUSH1 0xA0 SHL SUB AND CALLER EQ PUSH2 0x1197 JUMPI PUSH1 0x40 MLOAD PUSH3 0x461BCD PUSH1 0xE5 SHL DUP2 MSTORE PUSH1 0x4 ADD PUSH2 0x9E2 SWAP1 PUSH2 0x384E JUMP JUMPDEST PUSH1 0x13 DUP2 SWAP1 SSTORE PUSH1 0x40 MLOAD PUSH22 0x1BDC9A59DA5B985B10D85C991A5B985B151E5C195259 PUSH1 0x52 SHL DUP2 MSTORE DUP2 SWAP1 PUSH1 0x16 ADD JUMPDEST PUSH1 0x40 MLOAD SWAP1 DUP2 SWAP1 SUB DUP2 KECCAK256 SWAP1 PUSH32 0xA611BA47A2A0887B794D3E097D5CFB33522F6ED26DF589CCD12C01D5C584800A SWAP1 PUSH1 0x0 SWAP1 LOG3 POP JUMP JUMPDEST PUSH1 0x0 PUSH1 0x1 PUSH1 0x1 PUSH1 0xA0 SHL SUB DUP3 AND PUSH2 0x125F JUMPI PUSH1 0x40 MLOAD PUSH3 0x461BCD PUSH1 0xE5 SHL DUP2 MSTORE PUSH1 0x20 PUSH1 0x4 DUP3 ADD MSTORE PUSH1 0x2A PUSH1 0x24 DUP3 ADD MSTORE PUSH32 0x4552433732313A2062616C616E636520717565727920666F7220746865207A65 PUSH1 0x44 DUP3 ADD MSTORE PUSH10 0x726F2061646472657373 PUSH1 0xB0 SHL PUSH1 0x64 DUP3 ADD MSTORE PUSH1 0x84 ADD PUSH2 0x9E2 JUMP JUMPDEST POP PUSH1 0x1 PUSH1 0x1 PUSH1 0xA0 SHL SUB AND PUSH1 0x0 SWAP1 DUP2 MSTORE PUSH1 0x3 PUSH1 0x20 MSTORE PUSH1 0x40 SWAP1 KECCAK256 SLOAD SWAP1 JUMP JUMPDEST PUSH1 0x7 SLOAD PUSH1 0x1 PUSH1 0x1 PUSH1 0xA0 SHL SUB AND CALLER EQ PUSH2 0x12A5 JUMPI PUSH1 0x40 MLOAD PUSH3 0x461BCD PUSH1 0xE5 SHL DUP2 MSTORE PUSH1 0x4 ADD PUSH2 0x9E2 SWAP1 PUSH2 0x384E JUMP JUMPDEST PUSH2 0x12AF PUSH1 0x0 PUSH2 0x2BCB JUMP JUMPDEST JUMP JUMPDEST PUSH1 0x7 SLOAD PUSH1 0x1 PUSH1 0x1 PUSH1 0xA0 SHL SUB AND CALLER EQ PUSH2 0x12DB JUMPI PUSH1 0x40 MLOAD PUSH3 0x461BCD PUSH1 0xE5 SHL DUP2 MSTORE PUSH1 0x4 ADD PUSH2 0x9E2 SWAP1 PUSH2 0x384E JUMP JUMPDEST PUSH1 0x0 SWAP1 DUP2 MSTORE PUSH1 0xD PUSH1 0x20 MSTORE PUSH1 0x40 SWAP1 KECCAK256 DUP1 SLOAD PUSH1 0x1 PUSH1 0x1 PUSH1 0xA0 SHL SUB NOT AND PUSH1 0x1 PUSH1 0x1 PUSH1 0xA0 SHL SUB SWAP3 SWAP1 SWAP3 AND SWAP2 SWAP1 SWAP2 OR SWAP1 SSTORE JUMP JUMPDEST PUSH1 0x19 SLOAD CALLER PUSH1 0x0 SWAP1 DUP2 MSTORE PUSH1 0x12 PUSH1 0x20 MSTORE PUSH1 0x40 DUP2 KECCAK256 SLOAD SWAP1 SWAP2 SWAP1 ISZERO PUSH2 0x1350 JUMPI CALLER PUSH1 0x0 SWAP1 DUP2 MSTORE PUSH1 0x12 PUSH1 0x20 MSTORE PUSH1 0x40 SWAP1 KECCAK256 SLOAD PUSH1 0x19 SLOAD PUSH1 0x64 SWAP2 PUSH2 0x1343 SWAP2 PUSH2 0x3933 JUMP JUMPDEST PUSH2 0x134D SWAP2 SWAP1 PUSH2 0x3968 JUMP JUMPDEST SWAP1 POP JUMPDEST PUSH1 0xA SLOAD PUSH1 0x40 MLOAD PUSH4 0x70A08231 PUSH1 0xE0 SHL DUP2 MSTORE CALLER PUSH1 0x4 DUP3 ADD MSTORE DUP3 SWAP2 PUSH1 0x1 PUSH1 0x1 PUSH1 0xA0 SHL SUB AND SWAP1 PUSH4 0x70A08231 SWAP1 PUSH1 0x24 ADD PUSH1 0x20 PUSH1 0x40 MLOAD DUP1 DUP4 SUB DUP2 DUP7 DUP1 EXTCODESIZE ISZERO DUP1 ISZERO PUSH2 0x1393 JUMPI PUSH1 0x0 DUP1 REVERT JUMPDEST POP GAS STATICCALL ISZERO DUP1 ISZERO PUSH2 0x13A7 JUMPI RETURNDATASIZE PUSH1 0x0 DUP1 RETURNDATACOPY RETURNDATASIZE PUSH1 0x0 REVERT JUMPDEST POP POP POP POP PUSH1 0x40 MLOAD RETURNDATASIZE PUSH1 0x1F NOT PUSH1 0x1F DUP3 ADD AND DUP3 ADD DUP1 PUSH1 0x40 MSTORE POP DUP2 ADD SWAP1 PUSH2 0x13CB SWAP2 SWAP1 PUSH2 0x397C JUMP JUMPDEST LT ISZERO PUSH2 0x144D JUMPI PUSH1 0x40 MLOAD PUSH3 0x461BCD PUSH1 0xE5 SHL DUP2 MSTORE PUSH1 0x20 PUSH1 0x4 DUP3 ADD MSTORE PUSH1 0x44 PUSH1 0x24 DUP3 ADD DUP2 SWAP1 MSTORE PUSH32 0x596F7520646F6E2774206861766520656E6F7567682043617264696E616C2054 SWAP1 DUP3 ADD MSTORE PUSH32 0x6F6B656E7320746F2070617920666F7220746865206D656D6265727368697020 PUSH1 0x64 DUP3 ADD MSTORE PUSH4 0x27232A17 PUSH1 0xE1 SHL PUSH1 0x84 DUP3 ADD MSTORE PUSH1 0xA4 ADD PUSH2 0x9E2 JUMP JUMPDEST PUSH1 0xA SLOAD PUSH1 0x40 MLOAD PUSH4 0x6EB1769F PUSH1 0xE1 SHL DUP2 MSTORE CALLER PUSH1 0x4 DUP3 ADD MSTORE ADDRESS PUSH1 0x24 DUP3 ADD MSTORE DUP3 SWAP2 PUSH1 0x1 PUSH1 0x1 PUSH1 0xA0 SHL SUB AND SWAP1 PUSH4 0xDD62ED3E SWAP1 PUSH1 0x44 ADD PUSH1 0x20 PUSH1 0x40 MLOAD DUP1 DUP4 SUB DUP2 DUP7 DUP1 EXTCODESIZE ISZERO DUP1 ISZERO PUSH2 0x1496 JUMPI PUSH1 0x0 DUP1 REVERT JUMPDEST POP GAS STATICCALL ISZERO DUP1 ISZERO PUSH2 0x14AA JUMPI RETURNDATASIZE PUSH1 0x0 DUP1 RETURNDATACOPY RETURNDATASIZE PUSH1 0x0 REVERT JUMPDEST POP POP POP POP PUSH1 0x40 MLOAD RETURNDATASIZE PUSH1 0x1F NOT PUSH1 0x1F DUP3 ADD AND DUP3 ADD DUP1 PUSH1 0x40 MSTORE POP DUP2 ADD SWAP1 PUSH2 0x14CE SWAP2 SWAP1 PUSH2 0x397C JUMP JUMPDEST LT ISZERO PUSH2 0x157A JUMPI PUSH1 0x40 MLOAD PUSH3 0x461BCD PUSH1 0xE5 SHL DUP2 MSTORE PUSH1 0x20 PUSH1 0x4 DUP3 ADD MSTORE PUSH1 0x69 PUSH1 0x24 DUP3 ADD MSTORE PUSH32 0x596F7520686176656E277420617070726F766564207468697320636F6E747261 PUSH1 0x44 DUP3 ADD MSTORE PUSH32 0x637420746F207370656E6420656E6F756768206F6620796F7572204361726469 PUSH1 0x64 DUP3 ADD MSTORE PUSH32 0x6E616C20546F6B656E7320746F2070617920666F7220746865206D656D626572 PUSH1 0x84 DUP3 ADD MSTORE PUSH9 0x39B434B81027232A17 PUSH1 0xB9 SHL PUSH1 0xA4 DUP3 ADD MSTORE PUSH1 0xC4 ADD PUSH2 0x9E2 JUMP JUMPDEST PUSH1 0xA SLOAD PUSH1 0x40 MLOAD PUSH4 0x23B872DD PUSH1 0xE0 SHL DUP2 MSTORE CALLER PUSH1 0x4 DUP3 ADD MSTORE ADDRESS PUSH1 0x24 DUP3 ADD MSTORE PUSH1 0x44 DUP2 ADD DUP4 SWAP1 MSTORE PUSH1 0x1 PUSH1 0x1 PUSH1 0xA0 SHL SUB SWAP1 SWAP2 AND SWAP1 PUSH4 0x23B872DD SWAP1 PUSH1 0x64 ADD PUSH1 0x20 PUSH1 0x40 MLOAD DUP1 DUP4 SUB DUP2 PUSH1 0x0 DUP8 DUP1 EXTCODESIZE ISZERO DUP1 ISZERO PUSH2 0x15CC JUMPI PUSH1 0x0 DUP1 REVERT JUMPDEST POP GAS CALL ISZERO DUP1 ISZERO PUSH2 0x15E0 JUMPI RETURNDATASIZE PUSH1 0x0 DUP1 RETURNDATACOPY RETURNDATASIZE PUSH1 0x0 REVERT JUMPDEST POP POP POP POP PUSH1 0x40 MLOAD RETURNDATASIZE PUSH1 0x1F NOT PUSH1 0x1F DUP3 ADD AND DUP3 ADD DUP1 PUSH1 0x40 MSTORE POP DUP2 ADD SWAP1 PUSH2 0x1604 SWAP2 SWAP1 PUSH2 0x3995 JUMP JUMPDEST POP PUSH2 0x1613 PUSH1 0x8 DUP1 SLOAD PUSH1 0x1 ADD SWAP1 SSTORE JUMP JUMPDEST PUSH1 0x0 PUSH2 0x161E PUSH1 0x8 SLOAD SWAP1 JUMP JUMPDEST PUSH1 0x14 SLOAD PUSH1 0x0 DUP3 DUP2 MSTORE PUSH1 0xB PUSH1 0x20 SWAP1 DUP2 MSTORE PUSH1 0x40 DUP1 DUP4 KECCAK256 SWAP4 SWAP1 SWAP4 SSTORE PUSH1 0xC SWAP1 MSTORE SWAP1 DUP2 KECCAK256 SSTORE SWAP1 POP PUSH2 0x164A CALLER DUP3 PUSH2 0x2A90 JUMP JUMPDEST PUSH1 0x0 DUP2 DUP2 MSTORE PUSH1 0x10 PUSH1 0x20 SWAP1 DUP2 MSTORE PUSH1 0x40 DUP1 DUP4 KECCAK256 TIMESTAMP SWAP1 SSTORE CALLER DUP4 MSTORE PUSH1 0x12 SWAP1 SWAP2 MSTORE DUP2 KECCAK256 SSTORE PUSH1 0x18 DUP1 SLOAD PUSH2 0x16FF SWAP2 DUP4 SWAP2 PUSH2 0x167C SWAP1 PUSH2 0x3813 JUMP JUMPDEST DUP1 PUSH1 0x1F ADD PUSH1 0x20 DUP1 SWAP2 DIV MUL PUSH1 0x20 ADD PUSH1 0x40 MLOAD SWAP1 DUP2 ADD PUSH1 0x40 MSTORE DUP1 SWAP3 SWAP2 SWAP1 DUP2 DUP2 MSTORE PUSH1 0x20 ADD DUP3 DUP1 SLOAD PUSH2 0x16A8 SWAP1 PUSH2 0x3813 JUMP JUMPDEST DUP1 ISZERO PUSH2 0x16F5 JUMPI DUP1 PUSH1 0x1F LT PUSH2 0x16CA JUMPI PUSH2 0x100 DUP1 DUP4 SLOAD DIV MUL DUP4 MSTORE SWAP2 PUSH1 0x20 ADD SWAP2 PUSH2 0x16F5 JUMP JUMPDEST DUP3 ADD SWAP2 SWAP1 PUSH1 0x0 MSTORE PUSH1 0x20 PUSH1 0x0 KECCAK256 SWAP1 JUMPDEST DUP2 SLOAD DUP2 MSTORE SWAP1 PUSH1 0x1 ADD SWAP1 PUSH1 0x20 ADD DUP1 DUP4 GT PUSH2 0x16D8 JUMPI DUP3 SWAP1 SUB PUSH1 0x1F AND DUP3 ADD SWAP2 JUMPDEST POP POP POP POP POP PUSH2 0x277D JUMP JUMPDEST PUSH2 0x1709 ADDRESS DUP3 PUSH2 0xA07 JUMP JUMPDEST PUSH1 0x9 SLOAD PUSH2 0x1720 SWAP1 PUSH1 0x1 PUSH1 0x1 PUSH1 0xA0 SHL SUB AND PUSH1 0x1 PUSH2 0x1A16 JUMP JUMPDEST PUSH1 0x17 DUP1 SLOAD PUSH1 0x1 DUP2 ADD DUP3 SSTORE PUSH1 0x0 SWAP2 DUP3 MSTORE PUSH32 0xC624B66CC0138B8FABC209247F72D758E1CF3343756D543BADBF24212BED8C15 ADD DUP3 SWAP1 SSTORE PUSH1 0x40 MLOAD DUP3 SWAP2 CALLER SWAP2 PUSH32 0x7430CEFC529011C1B720A4803C3A12DB2BFDF282E089E2D26FF4929EF11A703C SWAP2 SWAP1 LOG3 SWAP3 SWAP2 POP POP JUMP JUMPDEST PUSH1 0x7 SLOAD PUSH1 0x1 PUSH1 0x1 PUSH1 0xA0 SHL SUB AND CALLER EQ PUSH2 0x17AF JUMPI PUSH1 0x40 MLOAD PUSH3 0x461BCD PUSH1 0xE5 SHL DUP2 MSTORE PUSH1 0x4 ADD PUSH2 0x9E2 SWAP1 PUSH2 0x384E JUMP JUMPDEST PUSH1 0x0 SWAP2 DUP3 MSTORE PUSH1 0xC PUSH1 0x20 MSTORE PUSH1 0x40 SWAP1 SWAP2 KECCAK256 SSTORE JUMP JUMPDEST PUSH1 0x7 SLOAD PUSH1 0x1 PUSH1 0x1 PUSH1 0xA0 SHL SUB AND CALLER EQ PUSH2 0x17EB JUMPI PUSH1 0x40 MLOAD PUSH3 0x461BCD PUSH1 0xE5 SHL DUP2 MSTORE PUSH1 0x4 ADD PUSH2 0x9E2 SWAP1 PUSH2 0x384E JUMP JUMPDEST PUSH1 0x15 DUP2 SWAP1 SSTORE PUSH1 0x40 MLOAD PUSH13 0x1CD95C9D9A58D9551E5C195259 PUSH1 0x9A SHL DUP2 MSTORE DUP2 SWAP1 PUSH1 0xD ADD PUSH2 0x11C1 JUMP JUMPDEST PUSH1 0x60 PUSH1 0x0 PUSH2 0x181D PUSH1 0x8 SLOAD SWAP1 JUMP JUMPDEST SWAP1 POP PUSH1 0x0 DUP1 PUSH1 0x1 JUMPDEST DUP4 DUP2 GT PUSH2 0x186E JUMPI DUP6 PUSH1 0x1 PUSH1 0x1 PUSH1 0xA0 SHL SUB AND PUSH2 0x183F DUP3 PUSH2 0x10F6 JUMP JUMPDEST PUSH1 0x1 PUSH1 0x1 PUSH1 0xA0 SHL SUB AND EQ ISZERO PUSH2 0x185C JUMPI PUSH2 0x1859 PUSH1 0x1 DUP5 PUSH2 0x38EA JUMP JUMPDEST SWAP3 POP JUMPDEST DUP1 PUSH2 0x1866 DUP2 PUSH2 0x3902 JUMP JUMPDEST SWAP2 POP POP PUSH2 0x1825 JUMP JUMPDEST POP PUSH1 0x0 DUP3 PUSH8 0xFFFFFFFFFFFFFFFF DUP2 GT ISZERO PUSH2 0x188A JUMPI PUSH2 0x188A PUSH2 0x3464 JUMP JUMPDEST PUSH1 0x40 MLOAD SWAP1 DUP1 DUP3 MSTORE DUP1 PUSH1 0x20 MUL PUSH1 0x20 ADD DUP3 ADD PUSH1 0x40 MSTORE DUP1 ISZERO PUSH2 0x18BD JUMPI DUP2 PUSH1 0x20 ADD JUMPDEST PUSH1 0x60 DUP2 MSTORE PUSH1 0x20 ADD SWAP1 PUSH1 0x1 SWAP1 SUB SWAP1 DUP2 PUSH2 0x18A8 JUMPI SWAP1 POP JUMPDEST POP SWAP1 POP PUSH1 0x1 JUMPDEST DUP5 DUP2 GT PUSH2 0xE1C JUMPI DUP7 PUSH1 0x1 PUSH1 0x1 PUSH1 0xA0 SHL SUB AND PUSH2 0x18DD DUP3 PUSH2 0x10F6 JUMP JUMPDEST PUSH1 0x1 PUSH1 0x1 PUSH1 0xA0 SHL SUB AND EQ ISZERO PUSH2 0x1926 JUMPI PUSH1 0x0 PUSH2 0x18F7 DUP3 PUSH2 0x21BD JUMP JUMPDEST SWAP1 POP DUP1 DUP4 DUP6 DUP2 MLOAD DUP2 LT PUSH2 0x190C JUMPI PUSH2 0x190C PUSH2 0x391D JUMP JUMPDEST PUSH1 0x20 SWAP1 DUP2 MUL SWAP2 SWAP1 SWAP2 ADD ADD MSTORE PUSH2 0x1922 PUSH1 0x1 DUP6 PUSH2 0x38EA JUMP JUMPDEST SWAP4 POP POP JUMPDEST DUP1 PUSH2 0x1930 DUP2 PUSH2 0x3902 JUMP JUMPDEST SWAP2 POP POP PUSH2 0x18C3 JUMP JUMPDEST PUSH1 0x18 DUP1 SLOAD PUSH2 0x1945 SWAP1 PUSH2 0x3813 JUMP JUMPDEST DUP1 PUSH1 0x1F ADD PUSH1 0x20 DUP1 SWAP2 DIV MUL PUSH1 0x20 ADD PUSH1 0x40 MLOAD SWAP1 DUP2 ADD PUSH1 0x40 MSTORE DUP1 SWAP3 SWAP2 SWAP1 DUP2 DUP2 MSTORE PUSH1 0x20 ADD DUP3 DUP1 SLOAD PUSH2 0x1971 SWAP1 PUSH2 0x3813 JUMP JUMPDEST DUP1 ISZERO PUSH2 0x19BE JUMPI DUP1 PUSH1 0x1F LT PUSH2 0x1993 JUMPI PUSH2 0x100 DUP1 DUP4 SLOAD DIV MUL DUP4 MSTORE SWAP2 PUSH1 0x20 ADD SWAP2 PUSH2 0x19BE JUMP JUMPDEST DUP3 ADD SWAP2 SWAP1 PUSH1 0x0 MSTORE PUSH1 0x20 PUSH1 0x0 KECCAK256 SWAP1 JUMPDEST DUP2 SLOAD DUP2 MSTORE SWAP1 PUSH1 0x1 ADD SWAP1 PUSH1 0x20 ADD DUP1 DUP4 GT PUSH2 0x19A1 JUMPI DUP3 SWAP1 SUB PUSH1 0x1F AND DUP3 ADD SWAP2 JUMPDEST POP POP POP POP POP DUP2 JUMP JUMPDEST PUSH1 0x60 PUSH1 0x1 DUP1 SLOAD PUSH2 0x8F7 SWAP1 PUSH2 0x3813 JUMP JUMPDEST PUSH1 0x7 SLOAD PUSH1 0x1 PUSH1 0x1 PUSH1 0xA0 SHL SUB AND CALLER EQ PUSH2 0x19FF JUMPI PUSH1 0x40 MLOAD PUSH3 0x461BCD PUSH1 0xE5 SHL DUP2 MSTORE PUSH1 0x4 ADD PUSH2 0x9E2 SWAP1 PUSH2 0x384E JUMP JUMPDEST DUP1 MLOAD PUSH2 0x1A12 SWAP1 PUSH1 0x18 SWAP1 PUSH1 0x20 DUP5 ADD SWAP1 PUSH2 0x32B6 JUMP JUMPDEST POP POP JUMP JUMPDEST PUSH2 0x1A12 CALLER DUP4 DUP4 PUSH2 0x2C1D JUMP JUMPDEST PUSH1 0x17 DUP2 DUP2 SLOAD DUP2 LT PUSH2 0x1A31 JUMPI PUSH1 0x0 DUP1 REVERT JUMPDEST PUSH1 0x0 SWAP2 DUP3 MSTORE PUSH1 0x20 SWAP1 SWAP2 KECCAK256 ADD SLOAD SWAP1 POP DUP2 JUMP JUMPDEST PUSH1 0x7 SLOAD PUSH1 0x1 PUSH1 0x1 PUSH1 0xA0 SHL SUB AND CALLER EQ PUSH2 0x1A6C JUMPI PUSH1 0x40 MLOAD PUSH3 0x461BCD PUSH1 0xE5 SHL DUP2 MSTORE PUSH1 0x4 ADD PUSH2 0x9E2 SWAP1 PUSH2 0x384E JUMP JUMPDEST PUSH1 0x1 PUSH1 0x1 PUSH1 0xA0 SHL SUB SWAP2 SWAP1 SWAP2 AND PUSH1 0x0 SWAP1 DUP2 MSTORE PUSH1 0x11 PUSH1 0x20 MSTORE PUSH1 0x40 SWAP1 KECCAK256 DUP1 SLOAD PUSH1 0xFF NOT AND SWAP2 ISZERO ISZERO SWAP2 SWAP1 SWAP2 OR SWAP1 SSTORE JUMP JUMPDEST PUSH1 0x16 DUP2 DUP2 SLOAD DUP2 LT PUSH2 0x1A31 JUMPI PUSH1 0x0 DUP1 REVERT JUMPDEST PUSH2 0x1AB1 CALLER DUP4 PUSH2 0x2808 JUMP JUMPDEST PUSH2 0x1ACD JUMPI PUSH1 0x40 MLOAD PUSH3 0x461BCD PUSH1 0xE5 SHL DUP2 MSTORE PUSH1 0x4 ADD PUSH2 0x9E2 SWAP1 PUSH2 0x3883 JUMP JUMPDEST PUSH2 0x1AD9 DUP5 DUP5 DUP5 DUP5 PUSH2 0x2CEC JUMP JUMPDEST POP POP POP POP JUMP JUMPDEST PUSH1 0x7 SLOAD PUSH1 0x0 SWAP1 PUSH1 0x1 PUSH1 0x1 PUSH1 0xA0 SHL SUB AND CALLER EQ PUSH2 0x1B0C JUMPI PUSH1 0x40 MLOAD PUSH3 0x461BCD PUSH1 0xE5 SHL DUP2 MSTORE PUSH1 0x4 ADD PUSH2 0x9E2 SWAP1 PUSH2 0x384E JUMP JUMPDEST DUP4 PUSH1 0x1 PUSH1 0x1 PUSH1 0xA0 SHL SUB AND PUSH2 0x1B1F DUP5 PUSH2 0x10F6 JUMP JUMPDEST PUSH1 0x1 PUSH1 0x1 PUSH1 0xA0 SHL SUB AND EQ PUSH2 0x1B89 JUMPI PUSH1 0x40 MLOAD PUSH3 0x461BCD PUSH1 0xE5 SHL DUP2 MSTORE PUSH1 0x20 PUSH1 0x4 DUP3 ADD MSTORE PUSH1 0x2B PUSH1 0x24 DUP3 ADD MSTORE PUSH32 0x54686973206164647265737320646F65736E2774206F776E20746865204E4654 PUSH1 0x44 DUP3 ADD MSTORE PUSH11 0x1039B832B1B4B334B2B217 PUSH1 0xA9 SHL PUSH1 0x64 DUP3 ADD MSTORE PUSH1 0x84 ADD PUSH2 0x9E2 JUMP JUMPDEST PUSH1 0x7 SLOAD PUSH1 0x1 PUSH1 0x1 PUSH1 0xA0 SHL SUB AND PUSH2 0x1B9E DUP5 PUSH2 0x10F6 JUMP JUMPDEST PUSH1 0x1 PUSH1 0x1 PUSH1 0xA0 SHL SUB AND EQ ISZERO DUP1 ISZERO PUSH2 0x1BD1 JUMPI POP PUSH1 0x9 SLOAD PUSH1 0x1 PUSH1 0x1 PUSH1 0xA0 SHL SUB AND PUSH2 0x1BC5 DUP5 PUSH2 0x10F6 JUMP JUMPDEST PUSH1 0x1 PUSH1 0x1 PUSH1 0xA0 SHL SUB AND EQ ISZERO JUMPDEST PUSH2 0x1C43 JUMPI PUSH1 0x40 MLOAD PUSH3 0x461BCD PUSH1 0xE5 SHL DUP2 MSTORE PUSH1 0x20 PUSH1 0x4 DUP3 ADD MSTORE PUSH1 0x39 PUSH1 0x24 DUP3 ADD MSTORE PUSH32 0x43616E27742063686172676520746865206F776E6572206F72206D61726B6574 PUSH1 0x44 DUP3 ADD MSTORE PUSH32 0x706C61636520666F7220746865206D656D626572736869702E00000000000000 PUSH1 0x64 DUP3 ADD MSTORE PUSH1 0x84 ADD PUSH2 0x9E2 JUMP JUMPDEST PUSH1 0x19 SLOAD PUSH1 0x1 PUSH1 0x1 PUSH1 0xA0 SHL SUB DUP6 AND PUSH1 0x0 SWAP1 DUP2 MSTORE PUSH1 0x12 PUSH1 0x20 MSTORE PUSH1 0x40 SWAP1 KECCAK256 SLOAD ISZERO PUSH2 0x1C99 JUMPI PUSH1 0x1 PUSH1 0x1 PUSH1 0xA0 SHL SUB DUP6 AND PUSH1 0x0 SWAP1 DUP2 MSTORE PUSH1 0x12 PUSH1 0x20 MSTORE PUSH1 0x40 SWAP1 KECCAK256 SLOAD PUSH1 0x19 SLOAD PUSH1 0x64 SWAP2 PUSH2 0x1C8C SWAP2 PUSH2 0x3933 JUMP JUMPDEST PUSH2 0x1C96 SWAP2 SWAP1 PUSH2 0x3968 JUMP JUMPDEST SWAP1 POP JUMPDEST PUSH1 0xA SLOAD PUSH1 0x40 MLOAD PUSH4 0x70A08231 PUSH1 0xE0 SHL DUP2 MSTORE PUSH1 0x1 PUSH1 0x1 PUSH1 0xA0 SHL SUB DUP8 DUP2 AND PUSH1 0x4 DUP4 ADD MSTORE DUP4 SWAP3 AND SWAP1 PUSH4 0x70A08231 SWAP1 PUSH1 0x24 ADD PUSH1 0x20 PUSH1 0x40 MLOAD DUP1 DUP4 SUB DUP2 DUP7 DUP1 EXTCODESIZE ISZERO DUP1 ISZERO PUSH2 0x1CDE JUMPI PUSH1 0x0 DUP1 REVERT JUMPDEST POP GAS STATICCALL ISZERO DUP1 ISZERO PUSH2 0x1CF2 JUMPI RETURNDATASIZE PUSH1 0x0 DUP1 RETURNDATACOPY RETURNDATASIZE PUSH1 0x0 REVERT JUMPDEST POP POP POP POP PUSH1 0x40 MLOAD RETURNDATASIZE PUSH1 0x1F NOT PUSH1 0x1F DUP3 ADD AND DUP3 ADD DUP1 PUSH1 0x40 MSTORE POP DUP2 ADD SWAP1 PUSH2 0x1D16 SWAP2 SWAP1 PUSH2 0x397C JUMP JUMPDEST LT DUP1 PUSH2 0x1DA2 JUMPI POP PUSH1 0xA SLOAD PUSH1 0x40 MLOAD PUSH4 0x6EB1769F PUSH1 0xE1 SHL DUP2 MSTORE PUSH1 0x1 PUSH1 0x1 PUSH1 0xA0 SHL SUB DUP8 DUP2 AND PUSH1 0x4 DUP4 ADD MSTORE ADDRESS PUSH1 0x24 DUP4 ADD MSTORE DUP4 SWAP3 AND SWAP1 PUSH4 0xDD62ED3E SWAP1 PUSH1 0x44 ADD PUSH1 0x20 PUSH1 0x40 MLOAD DUP1 DUP4 SUB DUP2 DUP7 DUP1 EXTCODESIZE ISZERO DUP1 ISZERO PUSH2 0x1D68 JUMPI PUSH1 0x0 DUP1 REVERT JUMPDEST POP GAS STATICCALL ISZERO DUP1 ISZERO PUSH2 0x1D7C JUMPI RETURNDATASIZE PUSH1 0x0 DUP1 RETURNDATACOPY RETURNDATASIZE PUSH1 0x0 REVERT JUMPDEST POP POP POP POP PUSH1 0x40 MLOAD RETURNDATASIZE PUSH1 0x1F NOT PUSH1 0x1F DUP3 ADD AND DUP3 ADD DUP1 PUSH1 0x40 MSTORE POP DUP2 ADD SWAP1 PUSH2 0x1DA0 SWAP2 SWAP1 PUSH2 0x397C JUMP JUMPDEST LT JUMPDEST ISZERO PUSH2 0x1DBA JUMPI PUSH2 0x1DB0 DUP5 PUSH2 0x2D1F JUMP JUMPDEST PUSH1 0x1 SWAP2 POP POP PUSH2 0x1ED3 JUMP JUMPDEST PUSH1 0xA SLOAD PUSH1 0x40 MLOAD PUSH4 0x23B872DD PUSH1 0xE0 SHL DUP2 MSTORE PUSH1 0x1 PUSH1 0x1 PUSH1 0xA0 SHL SUB DUP8 DUP2 AND PUSH1 0x4 DUP4 ADD MSTORE ADDRESS PUSH1 0x24 DUP4 ADD MSTORE PUSH1 0x44 DUP3 ADD DUP5 SWAP1 MSTORE SWAP1 SWAP2 AND SWAP1 PUSH4 0x23B872DD SWAP1 PUSH1 0x64 ADD PUSH1 0x20 PUSH1 0x40 MLOAD DUP1 DUP4 SUB DUP2 PUSH1 0x0 DUP8 DUP1 EXTCODESIZE ISZERO DUP1 ISZERO PUSH2 0x1E0E JUMPI PUSH1 0x0 DUP1 REVERT JUMPDEST POP GAS CALL ISZERO DUP1 ISZERO PUSH2 0x1E22 JUMPI RETURNDATASIZE PUSH1 0x0 DUP1 RETURNDATACOPY RETURNDATASIZE PUSH1 0x0 REVERT JUMPDEST POP POP POP POP PUSH1 0x40 MLOAD RETURNDATASIZE PUSH1 0x1F NOT PUSH1 0x1F DUP3 ADD AND DUP3 ADD DUP1 PUSH1 0x40 MSTORE POP DUP2 ADD SWAP1 PUSH2 0x1E46 SWAP2 SWAP1 PUSH2 0x3995 JUMP JUMPDEST POP DUP3 ISZERO PUSH2 0x1E63 JUMPI PUSH1 0x0 DUP5 DUP2 MSTORE PUSH1 0x10 PUSH1 0x20 MSTORE PUSH1 0x40 SWAP1 KECCAK256 DUP4 SWAP1 SSTORE PUSH2 0x1E75 JUMP JUMPDEST PUSH1 0x0 DUP5 DUP2 MSTORE PUSH1 0x10 PUSH1 0x20 MSTORE PUSH1 0x40 SWAP1 KECCAK256 TIMESTAMP SWAP1 SSTORE JUMPDEST PUSH1 0x1 PUSH1 0x1 PUSH1 0xA0 SHL SUB DUP6 AND PUSH1 0x0 DUP2 DUP2 MSTORE PUSH1 0x12 PUSH1 0x20 SWAP1 DUP2 MSTORE PUSH1 0x40 DUP1 DUP4 KECCAK256 SWAP3 SWAP1 SWAP3 SSTORE DUP2 MLOAD DUP5 DUP2 MSTORE SWAP1 DUP2 ADD DUP7 SWAP1 MSTORE DUP7 SWAP3 SWAP2 PUSH32 0x9170D37D9D267E1D271F28F3F225AC7E95B00677566675BA1D251944EB3C5924 SWAP2 ADD PUSH1 0x40 MLOAD DUP1 SWAP2 SUB SWAP1 LOG3 PUSH1 0x0 SWAP2 POP POP JUMPDEST SWAP4 SWAP3 POP POP POP JUMP JUMPDEST PUSH1 0x7 SLOAD PUSH1 0x1 PUSH1 0x1 PUSH1 0xA0 SHL SUB AND CALLER EQ PUSH2 0x1F04 JUMPI PUSH1 0x40 MLOAD PUSH3 0x461BCD PUSH1 0xE5 SHL DUP2 MSTORE PUSH1 0x4 ADD PUSH2 0x9E2 SWAP1 PUSH2 0x384E JUMP JUMPDEST PUSH1 0xA SLOAD PUSH1 0x1 PUSH1 0x1 PUSH1 0xA0 SHL SUB AND PUSH4 0xA9059CBB PUSH2 0x1F27 PUSH1 0x7 SLOAD PUSH1 0x1 PUSH1 0x1 PUSH1 0xA0 SHL SUB AND SWAP1 JUMP JUMPDEST PUSH1 0xA SLOAD PUSH1 0x40 MLOAD PUSH4 0x70A08231 PUSH1 0xE0 SHL DUP2 MSTORE ADDRESS PUSH1 0x4 DUP3 ADD MSTORE PUSH1 0x1 PUSH1 0x1 PUSH1 0xA0 SHL SUB SWAP1 SWAP2 AND SWAP1 PUSH4 0x70A08231 SWAP1 PUSH1 0x24 ADD PUSH1 0x20 PUSH1 0x40 MLOAD DUP1 DUP4 SUB DUP2 DUP7 DUP1 EXTCODESIZE ISZERO DUP1 ISZERO PUSH2 0x1F6A JUMPI PUSH1 0x0 DUP1 REVERT JUMPDEST POP GAS STATICCALL ISZERO DUP1 ISZERO PUSH2 0x1F7E JUMPI RETURNDATASIZE PUSH1 0x0 DUP1 RETURNDATACOPY RETURNDATASIZE PUSH1 0x0 REVERT JUMPDEST POP POP POP POP PUSH1 0x40 MLOAD RETURNDATASIZE PUSH1 0x1F NOT PUSH1 0x1F DUP3 ADD AND DUP3 ADD DUP1 PUSH1 0x40 MSTORE POP DUP2 ADD SWAP1 PUSH2 0x1FA2 SWAP2 SWAP1 PUSH2 0x397C JUMP JUMPDEST PUSH1 0x40 MLOAD PUSH1 0x1 PUSH1 0x1 PUSH1 0xE0 SHL SUB NOT PUSH1 0xE0 DUP6 SWAP1 SHL AND DUP2 MSTORE PUSH1 0x1 PUSH1 0x1 PUSH1 0xA0 SHL SUB SWAP1 SWAP3 AND PUSH1 0x4 DUP4 ADD MSTORE PUSH1 0x24 DUP3 ADD MSTORE PUSH1 0x44 ADD PUSH1 0x20 PUSH1 0x40 MLOAD DUP1 DUP4 SUB DUP2 PUSH1 0x0 DUP8 DUP1 EXTCODESIZE ISZERO DUP1 ISZERO PUSH2 0x1FE8 JUMPI PUSH1 0x0 DUP1 REVERT JUMPDEST POP GAS CALL ISZERO DUP1 ISZERO PUSH2 0x1FFC JUMPI RETURNDATASIZE PUSH1 0x0 DUP1 RETURNDATACOPY RETURNDATASIZE PUSH1 0x0 REVERT JUMPDEST POP POP POP POP PUSH1 0x40 MLOAD RETURNDATASIZE PUSH1 0x1F NOT PUSH1 0x1F DUP3 ADD AND DUP3 ADD DUP1 PUSH1 0x40 MSTORE POP DUP2 ADD SWAP1 PUSH2 0x2020 SWAP2 SWAP1 PUSH2 0x3995 JUMP JUMPDEST POP JUMP JUMPDEST PUSH1 0x60 PUSH1 0x0 PUSH2 0x2030 PUSH1 0x8 SLOAD SWAP1 JUMP JUMPDEST SWAP1 POP PUSH1 0x0 DUP1 PUSH1 0x1 JUMPDEST DUP4 DUP2 GT PUSH2 0x209C JUMPI DUP6 PUSH1 0x1 PUSH1 0x1 PUSH1 0xA0 SHL SUB AND PUSH2 0x2052 DUP3 PUSH2 0x10F6 JUMP JUMPDEST PUSH1 0x1 PUSH1 0x1 PUSH1 0xA0 SHL SUB AND EQ DUP1 ISZERO PUSH2 0x2077 JUMPI POP PUSH1 0x15 SLOAD PUSH1 0x0 DUP3 DUP2 MSTORE PUSH1 0xB PUSH1 0x20 MSTORE PUSH1 0x40 SWAP1 KECCAK256 SLOAD EQ JUMPDEST ISZERO PUSH2 0x208A JUMPI PUSH2 0x2087 PUSH1 0x1 DUP5 PUSH2 0x38EA JUMP JUMPDEST SWAP3 POP JUMPDEST DUP1 PUSH2 0x2094 DUP2 PUSH2 0x3902 JUMP JUMPDEST SWAP2 POP POP PUSH2 0x2038 JUMP JUMPDEST POP PUSH1 0x0 DUP3 PUSH8 0xFFFFFFFFFFFFFFFF DUP2 GT ISZERO PUSH2 0x20B8 JUMPI PUSH2 0x20B8 PUSH2 0x3464 JUMP JUMPDEST PUSH1 0x40 MLOAD SWAP1 DUP1 DUP3 MSTORE DUP1 PUSH1 0x20 MUL PUSH1 0x20 ADD DUP3 ADD PUSH1 0x40 MSTORE DUP1 ISZERO PUSH2 0x20EB JUMPI DUP2 PUSH1 0x20 ADD JUMPDEST PUSH1 0x60 DUP2 MSTORE PUSH1 0x20 ADD SWAP1 PUSH1 0x1 SWAP1 SUB SWAP1 DUP2 PUSH2 0x20D6 JUMPI SWAP1 POP JUMPDEST POP SWAP1 POP PUSH1 0x1 JUMPDEST DUP5 DUP2 GT PUSH2 0xE1C JUMPI DUP7 PUSH1 0x1 PUSH1 0x1 PUSH1 0xA0 SHL SUB AND PUSH2 0x210B DUP3 PUSH2 0x10F6 JUMP JUMPDEST PUSH1 0x1 PUSH1 0x1 PUSH1 0xA0 SHL SUB AND EQ DUP1 ISZERO PUSH2 0x2130 JUMPI POP PUSH1 0x15 SLOAD PUSH1 0x0 DUP3 DUP2 MSTORE PUSH1 0xB PUSH1 0x20 MSTORE PUSH1 0x40 SWAP1 KECCAK256 SLOAD EQ JUMPDEST ISZERO PUSH2 0x216F JUMPI PUSH1 0x0 PUSH2 0x2140 DUP3 PUSH2 0x21BD JUMP JUMPDEST SWAP1 POP DUP1 DUP4 DUP6 DUP2 MLOAD DUP2 LT PUSH2 0x2155 JUMPI PUSH2 0x2155 PUSH2 0x391D JUMP JUMPDEST PUSH1 0x20 SWAP1 DUP2 MUL SWAP2 SWAP1 SWAP2 ADD ADD MSTORE PUSH2 0x216B PUSH1 0x1 DUP6 PUSH2 0x38EA JUMP JUMPDEST SWAP4 POP POP JUMPDEST DUP1 PUSH2 0x2179 DUP2 PUSH2 0x3902 JUMP JUMPDEST SWAP2 POP POP PUSH2 0x20F1 JUMP JUMPDEST PUSH1 0x7 SLOAD PUSH1 0x1 PUSH1 0x1 PUSH1 0xA0 SHL SUB AND CALLER EQ PUSH2 0x21AB JUMPI PUSH1 0x40 MLOAD PUSH3 0x461BCD PUSH1 0xE5 SHL DUP2 MSTORE PUSH1 0x4 ADD PUSH2 0x9E2 SWAP1 PUSH2 0x384E JUMP JUMPDEST PUSH1 0x0 SWAP2 DUP3 MSTORE PUSH1 0xB PUSH1 0x20 MSTORE PUSH1 0x40 SWAP1 SWAP2 KECCAK256 SSTORE JUMP JUMPDEST PUSH1 0x60 PUSH2 0x21C8 DUP3 PUSH2 0x26F2 JUMP JUMPDEST PUSH2 0x222E JUMPI PUSH1 0x40 MLOAD PUSH3 0x461BCD PUSH1 0xE5 SHL DUP2 MSTORE PUSH1 0x20 PUSH1 0x4 DUP3 ADD MSTORE PUSH1 0x31 PUSH1 0x24 DUP3 ADD MSTORE PUSH32 0x45524337323155524953746F726167653A2055524920717565727920666F7220 PUSH1 0x44 DUP3 ADD MSTORE PUSH17 0x3737B732BC34B9BA32B73A103A37B5B2B7 PUSH1 0x79 SHL PUSH1 0x64 DUP3 ADD MSTORE PUSH1 0x84 ADD PUSH2 0x9E2 JUMP JUMPDEST PUSH1 0x0 DUP3 DUP2 MSTORE PUSH1 0x6 PUSH1 0x20 MSTORE PUSH1 0x40 DUP2 KECCAK256 DUP1 SLOAD PUSH2 0x2247 SWAP1 PUSH2 0x3813 JUMP JUMPDEST DUP1 PUSH1 0x1F ADD PUSH1 0x20 DUP1 SWAP2 DIV MUL PUSH1 0x20 ADD PUSH1 0x40 MLOAD SWAP1 DUP2 ADD PUSH1 0x40 MSTORE DUP1 SWAP3 SWAP2 SWAP1 DUP2 DUP2 MSTORE PUSH1 0x20 ADD DUP3 DUP1 SLOAD PUSH2 0x2273 SWAP1 PUSH2 0x3813 JUMP JUMPDEST DUP1 ISZERO PUSH2 0x22C0 JUMPI DUP1 PUSH1 0x1F LT PUSH2 0x2295 JUMPI PUSH2 0x100 DUP1 DUP4 SLOAD DIV MUL DUP4 MSTORE SWAP2 PUSH1 0x20 ADD SWAP2 PUSH2 0x22C0 JUMP JUMPDEST DUP3 ADD SWAP2 SWAP1 PUSH1 0x0 MSTORE PUSH1 0x20 PUSH1 0x0 KECCAK256 SWAP1 JUMPDEST DUP2 SLOAD DUP2 MSTORE SWAP1 PUSH1 0x1 ADD SWAP1 PUSH1 0x20 ADD DUP1 DUP4 GT PUSH2 0x22A3 JUMPI DUP3 SWAP1 SUB PUSH1 0x1F AND DUP3 ADD SWAP2 JUMPDEST POP POP POP POP POP SWAP1 POP PUSH1 0x0 PUSH2 0x22DE PUSH1 0x40 DUP1 MLOAD PUSH1 0x20 DUP2 ADD SWAP1 SWAP2 MSTORE PUSH1 0x0 DUP2 MSTORE SWAP1 JUMP JUMPDEST SWAP1 POP DUP1 MLOAD PUSH1 0x0 EQ ISZERO PUSH2 0x22F1 JUMPI POP SWAP3 SWAP2 POP POP JUMP JUMPDEST DUP2 MLOAD ISZERO PUSH2 0x2323 JUMPI DUP1 DUP3 PUSH1 0x40 MLOAD PUSH1 0x20 ADD PUSH2 0x230B SWAP3 SWAP2 SWAP1 PUSH2 0x39B2 JUMP JUMPDEST PUSH1 0x40 MLOAD PUSH1 0x20 DUP2 DUP4 SUB SUB DUP2 MSTORE SWAP1 PUSH1 0x40 MSTORE SWAP3 POP POP POP SWAP2 SWAP1 POP JUMP JUMPDEST PUSH2 0xF90 DUP5 PUSH2 0x2E5E JUMP JUMPDEST CALLER PUSH1 0x0 SWAP1 DUP2 MSTORE PUSH1 0x11 PUSH1 0x20 MSTORE PUSH1 0x40 SWAP1 KECCAK256 SLOAD PUSH1 0xFF AND PUSH2 0x2399 JUMPI PUSH1 0x40 MLOAD PUSH3 0x461BCD PUSH1 0xE5 SHL DUP2 MSTORE PUSH1 0x20 PUSH1 0x4 DUP3 ADD MSTORE PUSH1 0x25 PUSH1 0x24 DUP3 ADD MSTORE PUSH32 0x4F6E6C7920636F6E74726163742061646D696E732063616E20616464206D656D PUSH1 0x44 DUP3 ADD MSTORE PUSH5 0x3132B93997 PUSH1 0xD9 SHL PUSH1 0x64 DUP3 ADD MSTORE PUSH1 0x84 ADD PUSH2 0x9E2 JUMP JUMPDEST PUSH1 0x1 PUSH1 0x1 PUSH1 0xA0 SHL SUB AND PUSH1 0x0 SWAP1 DUP2 MSTORE PUSH1 0xE PUSH1 0x20 MSTORE PUSH1 0x40 SWAP1 KECCAK256 DUP1 SLOAD PUSH1 0xFF NOT AND PUSH1 0x1 OR SWAP1 SSTORE JUMP JUMPDEST PUSH1 0x7 SLOAD PUSH1 0x1 PUSH1 0x1 PUSH1 0xA0 SHL SUB AND CALLER EQ PUSH2 0x23E7 JUMPI PUSH1 0x40 MLOAD PUSH3 0x461BCD PUSH1 0xE5 SHL DUP2 MSTORE PUSH1 0x4 ADD PUSH2 0x9E2 SWAP1 PUSH2 0x384E JUMP JUMPDEST PUSH1 0xA DUP1 SLOAD PUSH1 0x1 PUSH1 0x1 PUSH1 0xA0 SHL SUB NOT AND PUSH1 0x1 PUSH1 0x1 PUSH1 0xA0 SHL SUB SWAP3 SWAP1 SWAP3 AND SWAP2 SWAP1 SWAP2 OR SWAP1 SSTORE JUMP JUMPDEST PUSH1 0x60 PUSH1 0x17 DUP1 SLOAD DUP1 PUSH1 0x20 MUL PUSH1 0x20 ADD PUSH1 0x40 MLOAD SWAP1 DUP2 ADD PUSH1 0x40 MSTORE DUP1 SWAP3 SWAP2 SWAP1 DUP2 DUP2 MSTORE PUSH1 0x20 ADD DUP3 DUP1 SLOAD DUP1 ISZERO PUSH2 0x970 JUMPI PUSH1 0x20 MUL DUP3 ADD SWAP2 SWAP1 PUSH1 0x0 MSTORE PUSH1 0x20 PUSH1 0x0 KECCAK256 SWAP1 JUMPDEST DUP2 SLOAD DUP2 MSTORE PUSH1 0x20 ADD SWAP1 PUSH1 0x1 ADD SWAP1 DUP1 DUP4 GT PUSH2 0x2443 JUMPI POP POP POP POP POP SWAP1 POP SWAP1 JUMP JUMPDEST PUSH1 0x60 PUSH1 0x16 DUP1 SLOAD DUP1 PUSH1 0x20 MUL PUSH1 0x20 ADD PUSH1 0x40 MLOAD SWAP1 DUP2 ADD PUSH1 0x40 MSTORE DUP1 SWAP3 SWAP2 SWAP1 DUP2 DUP2 MSTORE PUSH1 0x20 ADD DUP3 DUP1 SLOAD DUP1 ISZERO PUSH2 0x970 JUMPI PUSH1 0x20 MUL DUP3 ADD SWAP2 SWAP1 PUSH1 0x0 MSTORE PUSH1 0x20 PUSH1 0x0 KECCAK256 SWAP1 DUP2 SLOAD DUP2 MSTORE PUSH1 0x20 ADD SWAP1 PUSH1 0x1 ADD SWAP1 DUP1 DUP4 GT PUSH2 0x2443 JUMPI POP POP POP POP POP SWAP1 POP SWAP1 JUMP JUMPDEST PUSH1 0x7 SLOAD PUSH1 0x1 PUSH1 0x1 PUSH1 0xA0 SHL SUB AND CALLER EQ PUSH2 0x24E0 JUMPI PUSH1 0x40 MLOAD PUSH3 0x461BCD PUSH1 0xE5 SHL DUP2 MSTORE PUSH1 0x4 ADD PUSH2 0x9E2 SWAP1 PUSH2 0x384E JUMP JUMPDEST PUSH1 0x19 DUP2 SWAP1 SSTORE PUSH1 0x40 MLOAD DUP2 SWAP1 PUSH32 0x1361F6A741CB766EA2F0BE44A0E1686DF0E08320BE065F6C8DF9E4F639AB297A SWAP1 PUSH1 0x0 SWAP1 LOG2 POP JUMP JUMPDEST PUSH1 0x7 SLOAD PUSH1 0x1 PUSH1 0x1 PUSH1 0xA0 SHL SUB AND CALLER EQ PUSH2 0x253D JUMPI PUSH1 0x40 MLOAD PUSH3 0x461BCD PUSH1 0xE5 SHL DUP2 MSTORE PUSH1 0x4 ADD PUSH2 0x9E2 SWAP1 PUSH2 0x384E JUMP JUMPDEST PUSH2 0x2020 DUP2 PUSH2 0x2D1F JUMP JUMPDEST PUSH1 0x7 SLOAD PUSH1 0x1 PUSH1 0x1 PUSH1 0xA0 SHL SUB AND CALLER EQ PUSH2 0x2570 JUMPI PUSH1 0x40 MLOAD PUSH3 0x461BCD PUSH1 0xE5 SHL DUP2 MSTORE PUSH1 0x4 ADD PUSH2 0x9E2 SWAP1 PUSH2 0x384E JUMP JUMPDEST PUSH1 0x1 PUSH1 0x1 PUSH1 0xA0 SHL SUB DUP2 AND PUSH2 0x25D5 JUMPI PUSH1 0x40 MLOAD PUSH3 0x461BCD PUSH1 0xE5 SHL DUP2 MSTORE PUSH1 0x20 PUSH1 0x4 DUP3 ADD MSTORE PUSH1 0x26 PUSH1 0x24 DUP3 ADD MSTORE PUSH32 0x4F776E61626C653A206E6577206F776E657220697320746865207A65726F2061 PUSH1 0x44 DUP3 ADD MSTORE PUSH6 0x646472657373 PUSH1 0xD0 SHL PUSH1 0x64 DUP3 ADD MSTORE PUSH1 0x84 ADD PUSH2 0x9E2 JUMP JUMPDEST PUSH2 0x2020 DUP2 PUSH2 0x2BCB JUMP JUMPDEST CALLER PUSH1 0x0 SWAP1 DUP2 MSTORE PUSH1 0x11 PUSH1 0x20 MSTORE PUSH1 0x40 SWAP1 KECCAK256 SLOAD PUSH1 0xFF AND PUSH2 0x2659 JUMPI PUSH1 0x40 MLOAD PUSH3 0x461BCD PUSH1 0xE5 SHL DUP2 MSTORE PUSH1 0x20 PUSH1 0x4 DUP3 ADD MSTORE PUSH1 0x33 PUSH1 0x24 DUP3 ADD MSTORE PUSH32 0x4F6E6C7920636F6E74726163742061646D696E732063616E207365742061206D PUSH1 0x44 DUP3 ADD MSTORE PUSH19 0x32B6B132B939B434B8103234B9B1B7BAB73A17 PUSH1 0x69 SHL PUSH1 0x64 DUP3 ADD MSTORE PUSH1 0x84 ADD PUSH2 0x9E2 JUMP JUMPDEST PUSH1 0x1 PUSH1 0x1 PUSH1 0xA0 SHL SUB DUP3 AND PUSH1 0x0 DUP2 DUP2 MSTORE PUSH1 0x12 PUSH1 0x20 MSTORE PUSH1 0x40 DUP1 DUP3 KECCAK256 DUP5 SWAP1 SSTORE MLOAD DUP4 SWAP3 SWAP2 PUSH32 0x874556B552951A64A8A3F7627516F395097B3DE40CF93B85E87B03118CC02CF0 SWAP2 LOG3 POP POP JUMP JUMPDEST PUSH1 0x7 SLOAD PUSH1 0x1 PUSH1 0x1 PUSH1 0xA0 SHL SUB AND CALLER EQ PUSH2 0x26CA JUMPI PUSH1 0x40 MLOAD PUSH3 0x461BCD PUSH1 0xE5 SHL DUP2 MSTORE PUSH1 0x4 ADD PUSH2 0x9E2 SWAP1 PUSH2 0x384E JUMP JUMPDEST PUSH1 0x14 DUP2 SWAP1 SSTORE PUSH1 0x40 MLOAD PUSH16 0x1B595B58995C9CDA1A5C151E5C195259 PUSH1 0x82 SHL DUP2 MSTORE DUP2 SWAP1 PUSH1 0x10 ADD PUSH2 0x11C1 JUMP JUMPDEST PUSH1 0x0 SWAP1 DUP2 MSTORE PUSH1 0x2 PUSH1 0x20 MSTORE PUSH1 0x40 SWAP1 KECCAK256 SLOAD PUSH1 0x1 PUSH1 0x1 PUSH1 0xA0 SHL SUB AND ISZERO ISZERO SWAP1 JUMP JUMPDEST PUSH1 0x0 DUP2 DUP2 MSTORE PUSH1 0x4 PUSH1 0x20 MSTORE PUSH1 0x40 SWAP1 KECCAK256 DUP1 SLOAD PUSH1 0x1 PUSH1 0x1 PUSH1 0xA0 SHL SUB NOT AND PUSH1 0x1 PUSH1 0x1 PUSH1 0xA0 SHL SUB DUP5 AND SWAP1 DUP2 OR SWAP1 SWAP2 SSTORE DUP2 SWAP1 PUSH2 0x2744 DUP3 PUSH2 0x10F6 JUMP JUMPDEST PUSH1 0x1 PUSH1 0x1 PUSH1 0xA0 SHL SUB AND PUSH32 0x8C5BE1E5EBEC7D5BD14F71427D1E84F3DD0314C0F7B2291E5B200AC8C7C3B925 PUSH1 0x40 MLOAD PUSH1 0x40 MLOAD DUP1 SWAP2 SUB SWAP1 LOG4 POP POP JUMP JUMPDEST PUSH2 0x2786 DUP3 PUSH2 0x26F2 JUMP JUMPDEST PUSH2 0x27E9 JUMPI PUSH1 0x40 MLOAD PUSH3 0x461BCD PUSH1 0xE5 SHL DUP2 MSTORE PUSH1 0x20 PUSH1 0x4 DUP3 ADD MSTORE PUSH1 0x2E PUSH1 0x24 DUP3 ADD MSTORE PUSH32 0x45524337323155524953746F726167653A2055524920736574206F66206E6F6E PUSH1 0x44 DUP3 ADD MSTORE PUSH14 0x32BC34B9BA32B73A103A37B5B2B7 PUSH1 0x91 SHL PUSH1 0x64 DUP3 ADD MSTORE PUSH1 0x84 ADD PUSH2 0x9E2 JUMP JUMPDEST PUSH1 0x0 DUP3 DUP2 MSTORE PUSH1 0x6 PUSH1 0x20 SWAP1 DUP2 MSTORE PUSH1 0x40 SWAP1 SWAP2 KECCAK256 DUP3 MLOAD PUSH2 0xB18 SWAP3 DUP5 ADD SWAP1 PUSH2 0x32B6 JUMP JUMPDEST PUSH1 0x0 PUSH2 0x2813 DUP3 PUSH2 0x26F2 JUMP JUMPDEST PUSH2 0x2874 JUMPI PUSH1 0x40 MLOAD PUSH3 0x461BCD PUSH1 0xE5 SHL DUP2 MSTORE PUSH1 0x20 PUSH1 0x4 DUP3 ADD MSTORE PUSH1 0x2C PUSH1 0x24 DUP3 ADD MSTORE PUSH32 0x4552433732313A206F70657261746F7220717565727920666F72206E6F6E6578 PUSH1 0x44 DUP3 ADD MSTORE PUSH12 0x34B9BA32B73A103A37B5B2B7 PUSH1 0xA1 SHL PUSH1 0x64 DUP3 ADD MSTORE PUSH1 0x84 ADD PUSH2 0x9E2 JUMP JUMPDEST PUSH1 0x0 PUSH2 0x287F DUP4 PUSH2 0x10F6 JUMP JUMPDEST SWAP1 POP DUP1 PUSH1 0x1 PUSH1 0x1 PUSH1 0xA0 SHL SUB AND DUP5 PUSH1 0x1 PUSH1 0x1 PUSH1 0xA0 SHL SUB AND EQ DUP1 PUSH2 0x28BA JUMPI POP DUP4 PUSH1 0x1 PUSH1 0x1 PUSH1 0xA0 SHL SUB AND PUSH2 0x28AF DUP5 PUSH2 0x97A JUMP JUMPDEST PUSH1 0x1 PUSH1 0x1 PUSH1 0xA0 SHL SUB AND EQ JUMPDEST DUP1 PUSH2 0xF90 JUMPI POP PUSH1 0x1 PUSH1 0x1 PUSH1 0xA0 SHL SUB DUP1 DUP3 AND PUSH1 0x0 SWAP1 DUP2 MSTORE PUSH1 0x5 PUSH1 0x20 SWAP1 DUP2 MSTORE PUSH1 0x40 DUP1 DUP4 KECCAK256 SWAP4 DUP9 AND DUP4 MSTORE SWAP3 SWAP1 MSTORE KECCAK256 SLOAD PUSH1 0xFF AND PUSH2 0xF90 JUMP JUMPDEST DUP3 PUSH1 0x1 PUSH1 0x1 PUSH1 0xA0 SHL SUB AND PUSH2 0x2901 DUP3 PUSH2 0x10F6 JUMP JUMPDEST PUSH1 0x1 PUSH1 0x1 PUSH1 0xA0 SHL SUB AND EQ PUSH2 0x2965 JUMPI PUSH1 0x40 MLOAD PUSH3 0x461BCD PUSH1 0xE5 SHL DUP2 MSTORE PUSH1 0x20 PUSH1 0x4 DUP3 ADD MSTORE PUSH1 0x25 PUSH1 0x24 DUP3 ADD MSTORE PUSH32 0x4552433732313A207472616E736665722066726F6D20696E636F727265637420 PUSH1 0x44 DUP3 ADD MSTORE PUSH5 0x37BBB732B9 PUSH1 0xD9 SHL PUSH1 0x64 DUP3 ADD MSTORE PUSH1 0x84 ADD PUSH2 0x9E2 JUMP JUMPDEST PUSH1 0x1 PUSH1 0x1 PUSH1 0xA0 SHL SUB DUP3 AND PUSH2 0x29C7 JUMPI PUSH1 0x40 MLOAD PUSH3 0x461BCD PUSH1 0xE5 SHL DUP2 MSTORE PUSH1 0x20 PUSH1 0x4 DUP3 ADD MSTORE PUSH1 0x24 DUP1 DUP3 ADD MSTORE PUSH32 0x4552433732313A207472616E7366657220746F20746865207A65726F20616464 PUSH1 0x44 DUP3 ADD MSTORE PUSH4 0x72657373 PUSH1 0xE0 SHL PUSH1 0x64 DUP3 ADD MSTORE PUSH1 0x84 ADD PUSH2 0x9E2 JUMP JUMPDEST PUSH2 0x29D2 PUSH1 0x0 DUP3 PUSH2 0x270F JUMP JUMPDEST PUSH1 0x1 PUSH1 0x1 PUSH1 0xA0 SHL SUB DUP4 AND PUSH1 0x0 SWAP1 DUP2 MSTORE PUSH1 0x3 PUSH1 0x20 MSTORE PUSH1 0x40 DUP2 KECCAK256 DUP1 SLOAD PUSH1 0x1 SWAP3 SWAP1 PUSH2 0x29FB SWAP1 DUP5 SWAP1 PUSH2 0x39E1 JUMP JUMPDEST SWAP1 SWAP2 SSTORE POP POP PUSH1 0x1 PUSH1 0x1 PUSH1 0xA0 SHL SUB DUP3 AND PUSH1 0x0 SWAP1 DUP2 MSTORE PUSH1 0x3 PUSH1 0x20 MSTORE PUSH1 0x40 DUP2 KECCAK256 DUP1 SLOAD PUSH1 0x1 SWAP3 SWAP1 PUSH2 0x2A29 SWAP1 DUP5 SWAP1 PUSH2 0x38EA JUMP JUMPDEST SWAP1 SWAP2 SSTORE POP POP PUSH1 0x0 DUP2 DUP2 MSTORE PUSH1 0x2 PUSH1 0x20 MSTORE PUSH1 0x40 DUP1 DUP3 KECCAK256 DUP1 SLOAD PUSH1 0x1 PUSH1 0x1 PUSH1 0xA0 SHL SUB NOT AND PUSH1 0x1 PUSH1 0x1 PUSH1 0xA0 SHL SUB DUP7 DUP2 AND SWAP2 DUP3 OR SWAP1 SWAP3 SSTORE SWAP2 MLOAD DUP5 SWAP4 SWAP2 DUP8 AND SWAP2 PUSH32 0xDDF252AD1BE2C89B69C2B068FC378DAA952BA7F163C4A11628F55A4DF523B3EF SWAP2 LOG4 PUSH2 0xB18 DUP4 DUP4 DUP4 PUSH2 0x2F35 JUMP JUMPDEST PUSH1 0x1 PUSH1 0x1 PUSH1 0xA0 SHL SUB DUP3 AND PUSH2 0x2AE6 JUMPI PUSH1 0x40 MLOAD PUSH3 0x461BCD PUSH1 0xE5 SHL DUP2 MSTORE PUSH1 0x20 PUSH1 0x4 DUP3 ADD DUP2 SWAP1 MSTORE PUSH1 0x24 DUP3 ADD MSTORE PUSH32 0x4552433732313A206D696E7420746F20746865207A65726F2061646472657373 PUSH1 0x44 DUP3 ADD MSTORE PUSH1 0x64 ADD PUSH2 0x9E2 JUMP JUMPDEST PUSH2 0x2AEF DUP2 PUSH2 0x26F2 JUMP JUMPDEST ISZERO PUSH2 0x2B3C JUMPI PUSH1 0x40 MLOAD PUSH3 0x461BCD PUSH1 0xE5 SHL DUP2 MSTORE PUSH1 0x20 PUSH1 0x4 DUP3 ADD MSTORE PUSH1 0x1C PUSH1 0x24 DUP3 ADD MSTORE PUSH32 0x4552433732313A20746F6B656E20616C7265616479206D696E74656400000000 PUSH1 0x44 DUP3 ADD MSTORE PUSH1 0x64 ADD PUSH2 0x9E2 JUMP JUMPDEST PUSH1 0x1 PUSH1 0x1 PUSH1 0xA0 SHL SUB DUP3 AND PUSH1 0x0 SWAP1 DUP2 MSTORE PUSH1 0x3 PUSH1 0x20 MSTORE PUSH1 0x40 DUP2 KECCAK256 DUP1 SLOAD PUSH1 0x1 SWAP3 SWAP1 PUSH2 0x2B65 SWAP1 DUP5 SWAP1 PUSH2 0x38EA JUMP JUMPDEST SWAP1 SWAP2 SSTORE POP POP PUSH1 0x0 DUP2 DUP2 MSTORE PUSH1 0x2 PUSH1 0x20 MSTORE PUSH1 0x40 DUP1 DUP3 KECCAK256 DUP1 SLOAD PUSH1 0x1 PUSH1 0x1 PUSH1 0xA0 SHL SUB NOT AND PUSH1 0x1 PUSH1 0x1 PUSH1 0xA0 SHL SUB DUP7 AND SWAP1 DUP2 OR SWAP1 SWAP2 SSTORE SWAP1 MLOAD DUP4 SWAP3 SWAP1 PUSH32 0xDDF252AD1BE2C89B69C2B068FC378DAA952BA7F163C4A11628F55A4DF523B3EF SWAP1 DUP3 SWAP1 LOG4 PUSH2 0x1A12 PUSH1 0x0 DUP4 DUP4 PUSH2 0x2F35 JUMP JUMPDEST PUSH1 0x7 DUP1 SLOAD PUSH1 0x1 PUSH1 0x1 PUSH1 0xA0 SHL SUB DUP4 DUP2 AND PUSH1 0x1 PUSH1 0x1 PUSH1 0xA0 SHL SUB NOT DUP4 AND DUP2 OR SWAP1 SWAP4 SSTORE PUSH1 0x40 MLOAD SWAP2 AND SWAP2 SWAP1 DUP3 SWAP1 PUSH32 0x8BE0079C531659141344CD1FD0A4F28419497F9722A3DAAFE3B4186F6B6457E0 SWAP1 PUSH1 0x0 SWAP1 LOG3 POP POP JUMP JUMPDEST DUP2 PUSH1 0x1 PUSH1 0x1 PUSH1 0xA0 SHL SUB AND DUP4 PUSH1 0x1 PUSH1 0x1 PUSH1 0xA0 SHL SUB AND EQ ISZERO PUSH2 0x2C7F JUMPI PUSH1 0x40 MLOAD PUSH3 0x461BCD PUSH1 0xE5 SHL DUP2 MSTORE PUSH1 0x20 PUSH1 0x4 DUP3 ADD MSTORE PUSH1 0x19 PUSH1 0x24 DUP3 ADD MSTORE PUSH32 0x4552433732313A20617070726F766520746F2063616C6C657200000000000000 PUSH1 0x44 DUP3 ADD MSTORE PUSH1 0x64 ADD PUSH2 0x9E2 JUMP JUMPDEST PUSH1 0x1 PUSH1 0x1 PUSH1 0xA0 SHL SUB DUP4 DUP2 AND PUSH1 0x0 DUP2 DUP2 MSTORE PUSH1 0x5 PUSH1 0x20 SWAP1 DUP2 MSTORE PUSH1 0x40 DUP1 DUP4 KECCAK256 SWAP5 DUP8 AND DUP1 DUP5 MSTORE SWAP5 DUP3 MSTORE SWAP2 DUP3 SWAP1 KECCAK256 DUP1 SLOAD PUSH1 0xFF NOT AND DUP7 ISZERO ISZERO SWAP1 DUP2 OR SWAP1 SWAP2 SSTORE SWAP2 MLOAD SWAP2 DUP3 MSTORE PUSH32 0x17307EAB39AB6107E8899845AD3D59BD9653F200F220920489CA2B5937696C31 SWAP2 ADD PUSH1 0x40 MLOAD DUP1 SWAP2 SUB SWAP1 LOG3 POP POP POP JUMP JUMPDEST PUSH2 0x2CF7 DUP5 DUP5 DUP5 PUSH2 0x28EE JUMP JUMPDEST PUSH2 0x2D03 DUP5 DUP5 DUP5 DUP5 PUSH2 0x30AE JUMP JUMPDEST PUSH2 0x1AD9 JUMPI PUSH1 0x40 MLOAD PUSH3 0x461BCD PUSH1 0xE5 SHL DUP2 MSTORE PUSH1 0x4 ADD PUSH2 0x9E2 SWAP1 PUSH2 0x39F8 JUMP JUMPDEST PUSH1 0x0 JUMPDEST PUSH1 0x17 SLOAD DUP2 LT ISZERO PUSH2 0x1A12 JUMPI DUP2 PUSH1 0x17 DUP3 DUP2 SLOAD DUP2 LT PUSH2 0x2D40 JUMPI PUSH2 0x2D40 PUSH2 0x391D JUMP JUMPDEST SWAP1 PUSH1 0x0 MSTORE PUSH1 0x20 PUSH1 0x0 KECCAK256 ADD SLOAD EQ ISZERO PUSH2 0x2E4C JUMPI PUSH1 0x0 PUSH2 0x2D79 PUSH1 0x17 DUP4 DUP2 SLOAD DUP2 LT PUSH2 0x2D69 JUMPI PUSH2 0x2D69 PUSH2 0x391D JUMP JUMPDEST SWAP1 PUSH1 0x0 MSTORE PUSH1 0x20 PUSH1 0x0 KECCAK256 ADD SLOAD PUSH2 0x10F6 JUMP JUMPDEST SWAP1 POP PUSH2 0x2DA3 DUP2 ADDRESS PUSH1 0x17 DUP6 DUP2 SLOAD DUP2 LT PUSH2 0x2D93 JUMPI PUSH2 0x2D93 PUSH2 0x391D JUMP JUMPDEST SWAP1 PUSH1 0x0 MSTORE PUSH1 0x20 PUSH1 0x0 KECCAK256 ADD SLOAD PUSH2 0x28EE JUMP JUMPDEST PUSH1 0x40 MLOAD DUP4 SWAP1 PUSH1 0x1 PUSH1 0x1 PUSH1 0xA0 SHL SUB DUP4 AND SWAP1 PUSH32 0x5AB068FE2788C545757BCB78E3B2D842E34EC21C90F26C60E5CE7686E90B8749 SWAP1 PUSH1 0x0 SWAP1 LOG3 PUSH1 0x17 DUP1 SLOAD PUSH2 0x2DE9 SWAP1 PUSH1 0x1 SWAP1 PUSH2 0x39E1 JUMP JUMPDEST DUP2 SLOAD DUP2 LT PUSH2 0x2DF9 JUMPI PUSH2 0x2DF9 PUSH2 0x391D JUMP JUMPDEST SWAP1 PUSH1 0x0 MSTORE PUSH1 0x20 PUSH1 0x0 KECCAK256 ADD SLOAD PUSH1 0x17 DUP4 DUP2 SLOAD DUP2 LT PUSH2 0x2E17 JUMPI PUSH2 0x2E17 PUSH2 0x391D JUMP JUMPDEST PUSH1 0x0 SWAP2 DUP3 MSTORE PUSH1 0x20 SWAP1 SWAP2 KECCAK256 ADD SSTORE PUSH1 0x17 DUP1 SLOAD DUP1 PUSH2 0x2E34 JUMPI PUSH2 0x2E34 PUSH2 0x3A4A JUMP JUMPDEST PUSH1 0x1 SWAP1 SUB DUP2 DUP2 SWAP1 PUSH1 0x0 MSTORE PUSH1 0x20 PUSH1 0x0 KECCAK256 ADD PUSH1 0x0 SWAP1 SSTORE SWAP1 SSTORE POP JUMPDEST DUP1 PUSH2 0x2E56 DUP2 PUSH2 0x3902 JUMP JUMPDEST SWAP2 POP POP PUSH2 0x2D22 JUMP JUMPDEST PUSH1 0x60 PUSH2 0x2E69 DUP3 PUSH2 0x26F2 JUMP JUMPDEST PUSH2 0x2ECD JUMPI PUSH1 0x40 MLOAD PUSH3 0x461BCD PUSH1 0xE5 SHL DUP2 MSTORE PUSH1 0x20 PUSH1 0x4 DUP3 ADD MSTORE PUSH1 0x2F PUSH1 0x24 DUP3 ADD MSTORE PUSH32 0x4552433732314D657461646174613A2055524920717565727920666F72206E6F PUSH1 0x44 DUP3 ADD MSTORE PUSH15 0x3732BC34B9BA32B73A103A37B5B2B7 PUSH1 0x89 SHL PUSH1 0x64 DUP3 ADD MSTORE PUSH1 0x84 ADD PUSH2 0x9E2 JUMP JUMPDEST PUSH1 0x0 PUSH2 0x2EE4 PUSH1 0x40 DUP1 MLOAD PUSH1 0x20 DUP2 ADD SWAP1 SWAP2 MSTORE PUSH1 0x0 DUP2 MSTORE SWAP1 JUMP JUMPDEST SWAP1 POP PUSH1 0x0 DUP2 MLOAD GT PUSH2 0x2F04 JUMPI PUSH1 0x40 MLOAD DUP1 PUSH1 0x20 ADD PUSH1 0x40 MSTORE DUP1 PUSH1 0x0 DUP2 MSTORE POP PUSH2 0x1ED3 JUMP JUMPDEST DUP1 PUSH2 0x2F0E DUP5 PUSH2 0x31B8 JUMP JUMPDEST PUSH1 0x40 MLOAD PUSH1 0x20 ADD PUSH2 0x2F1F SWAP3 SWAP2 SWAP1 PUSH2 0x39B2 JUMP JUMPDEST PUSH1 0x40 MLOAD PUSH1 0x20 DUP2 DUP4 SUB SUB DUP2 MSTORE SWAP1 PUSH1 0x40 MSTORE SWAP4 SWAP3 POP POP POP JUMP JUMPDEST PUSH1 0x14 SLOAD PUSH1 0x0 DUP3 DUP2 MSTORE PUSH1 0xB PUSH1 0x20 MSTORE PUSH1 0x40 SWAP1 KECCAK256 SLOAD EQ DUP1 PUSH2 0x2F62 JUMPI POP PUSH1 0x13 SLOAD PUSH1 0x0 DUP3 DUP2 MSTORE PUSH1 0xB PUSH1 0x20 MSTORE PUSH1 0x40 SWAP1 KECCAK256 SLOAD EQ JUMPDEST ISZERO PUSH2 0xB18 JUMPI PUSH1 0x7 SLOAD PUSH1 0x1 PUSH1 0x1 PUSH1 0xA0 SHL SUB DUP5 DUP2 AND SWAP2 AND EQ DUP1 ISZERO SWAP1 PUSH2 0x2F93 JUMPI POP PUSH1 0x9 SLOAD PUSH1 0x1 PUSH1 0x1 PUSH1 0xA0 SHL SUB DUP5 DUP2 AND SWAP2 AND EQ ISZERO JUMPDEST DUP1 ISZERO PUSH2 0x2FA7 JUMPI POP PUSH1 0x1 PUSH1 0x1 PUSH1 0xA0 SHL SUB DUP4 AND ISZERO ISZERO JUMPDEST ISZERO PUSH2 0x3055 JUMPI PUSH1 0x1 PUSH1 0x1 PUSH1 0xA0 SHL SUB DUP4 AND PUSH1 0x0 SWAP1 DUP2 MSTORE PUSH1 0xF PUSH1 0x20 MSTORE PUSH1 0x40 SWAP1 KECCAK256 SLOAD ISZERO PUSH2 0x3034 JUMPI PUSH1 0x1 PUSH1 0x1 PUSH1 0xA0 SHL SUB DUP4 AND PUSH1 0x0 SWAP1 DUP2 MSTORE PUSH1 0xF PUSH1 0x20 MSTORE PUSH1 0x40 SWAP1 KECCAK256 SLOAD PUSH2 0x2FEF SWAP1 PUSH1 0x1 SWAP1 PUSH2 0x39E1 JUMP JUMPDEST PUSH1 0x1 PUSH1 0x1 PUSH1 0xA0 SHL SUB DUP5 AND PUSH1 0x0 SWAP1 DUP2 MSTORE PUSH1 0xF PUSH1 0x20 MSTORE PUSH1 0x40 SWAP1 KECCAK256 DUP2 SWAP1 SSTORE PUSH2 0x302F JUMPI PUSH1 0x1 PUSH1 0x1 PUSH1 0xA0 SHL SUB DUP4 AND PUSH1 0x0 SWAP1 DUP2 MSTORE PUSH1 0xE PUSH1 0x20 MSTORE PUSH1 0x40 SWAP1 KECCAK256 DUP1 SLOAD PUSH1 0xFF NOT AND SWAP1 SSTORE JUMPDEST PUSH2 0x3055 JUMP JUMPDEST PUSH1 0x1 PUSH1 0x1 PUSH1 0xA0 SHL SUB DUP4 AND PUSH1 0x0 SWAP1 DUP2 MSTORE PUSH1 0xE PUSH1 0x20 MSTORE PUSH1 0x40 SWAP1 KECCAK256 DUP1 SLOAD PUSH1 0xFF NOT AND SWAP1 SSTORE JUMPDEST PUSH1 0x1 PUSH1 0x1 PUSH1 0xA0 SHL SUB DUP3 AND PUSH1 0x0 SWAP1 DUP2 MSTORE PUSH1 0xE PUSH1 0x20 SWAP1 DUP2 MSTORE PUSH1 0x40 DUP1 DUP4 KECCAK256 DUP1 SLOAD PUSH1 0xFF NOT AND PUSH1 0x1 SWAP1 DUP2 OR SWAP1 SWAP2 SSTORE PUSH1 0xF SWAP1 SWAP3 MSTORE SWAP1 SWAP2 KECCAK256 SLOAD PUSH2 0x3090 SWAP2 PUSH2 0x38EA JUMP JUMPDEST PUSH1 0x1 PUSH1 0x1 PUSH1 0xA0 SHL SUB DUP4 AND PUSH1 0x0 SWAP1 DUP2 MSTORE PUSH1 0xF PUSH1 0x20 MSTORE PUSH1 0x40 SWAP1 KECCAK256 SSTORE POP POP POP JUMP JUMPDEST PUSH1 0x0 PUSH1 0x1 PUSH1 0x1 PUSH1 0xA0 SHL SUB DUP5 AND EXTCODESIZE ISZERO PUSH2 0x31B0 JUMPI PUSH1 0x40 MLOAD PUSH4 0xA85BD01 PUSH1 0xE1 SHL DUP2 MSTORE PUSH1 0x1 PUSH1 0x1 PUSH1 0xA0 SHL SUB DUP6 AND SWAP1 PUSH4 0x150B7A02 SWAP1 PUSH2 0x30F2 SWAP1 CALLER SWAP1 DUP10 SWAP1 DUP9 SWAP1 DUP9 SWAP1 PUSH1 0x4 ADD PUSH2 0x3A60 JUMP JUMPDEST PUSH1 0x20 PUSH1 0x40 MLOAD DUP1 DUP4 SUB DUP2 PUSH1 0x0 DUP8 DUP1 EXTCODESIZE ISZERO DUP1 ISZERO PUSH2 0x310C JUMPI PUSH1 0x0 DUP1 REVERT JUMPDEST POP GAS CALL SWAP3 POP POP POP DUP1 ISZERO PUSH2 0x313C JUMPI POP PUSH1 0x40 DUP1 MLOAD PUSH1 0x1F RETURNDATASIZE SWAP1 DUP2 ADD PUSH1 0x1F NOT AND DUP3 ADD SWAP1 SWAP3 MSTORE PUSH2 0x3139 SWAP2 DUP2 ADD SWAP1 PUSH2 0x3A9D JUMP JUMPDEST PUSH1 0x1 JUMPDEST PUSH2 0x3196 JUMPI RETURNDATASIZE DUP1 DUP1 ISZERO PUSH2 0x316A JUMPI PUSH1 0x40 MLOAD SWAP2 POP PUSH1 0x1F NOT PUSH1 0x3F RETURNDATASIZE ADD AND DUP3 ADD PUSH1 0x40 MSTORE RETURNDATASIZE DUP3 MSTORE RETURNDATASIZE PUSH1 0x0 PUSH1 0x20 DUP5 ADD RETURNDATACOPY PUSH2 0x316F JUMP JUMPDEST PUSH1 0x60 SWAP2 POP JUMPDEST POP DUP1 MLOAD PUSH2 0x318E JUMPI PUSH1 0x40 MLOAD PUSH3 0x461BCD PUSH1 0xE5 SHL DUP2 MSTORE PUSH1 0x4 ADD PUSH2 0x9E2 SWAP1 PUSH2 0x39F8 JUMP JUMPDEST DUP1 MLOAD DUP2 PUSH1 0x20 ADD REVERT JUMPDEST PUSH1 0x1 PUSH1 0x1 PUSH1 0xE0 SHL SUB NOT AND PUSH4 0xA85BD01 PUSH1 0xE1 SHL EQ SWAP1 POP PUSH2 0xF90 JUMP JUMPDEST POP PUSH1 0x1 PUSH2 0xF90 JUMP JUMPDEST PUSH1 0x60 DUP2 PUSH2 0x31DC JUMPI POP POP PUSH1 0x40 DUP1 MLOAD DUP1 DUP3 ADD SWAP1 SWAP2 MSTORE PUSH1 0x1 DUP2 MSTORE PUSH1 0x3 PUSH1 0xFC SHL PUSH1 0x20 DUP3 ADD MSTORE SWAP1 JUMP JUMPDEST DUP2 PUSH1 0x0 JUMPDEST DUP2 ISZERO PUSH2 0x3206 JUMPI DUP1 PUSH2 0x31F0 DUP2 PUSH2 0x3902 JUMP JUMPDEST SWAP2 POP PUSH2 0x31FF SWAP1 POP PUSH1 0xA DUP4 PUSH2 0x3968 JUMP JUMPDEST SWAP2 POP PUSH2 0x31E0 JUMP JUMPDEST PUSH1 0x0 DUP2 PUSH8 0xFFFFFFFFFFFFFFFF DUP2 GT ISZERO PUSH2 0x3221 JUMPI PUSH2 0x3221 PUSH2 0x3464 JUMP JUMPDEST PUSH1 0x40 MLOAD SWAP1 DUP1 DUP3 MSTORE DUP1 PUSH1 0x1F ADD PUSH1 0x1F NOT AND PUSH1 0x20 ADD DUP3 ADD PUSH1 0x40 MSTORE DUP1 ISZERO PUSH2 0x324B JUMPI PUSH1 0x20 DUP3 ADD DUP2 DUP1 CALLDATASIZE DUP4 CALLDATACOPY ADD SWAP1 POP JUMPDEST POP SWAP1 POP JUMPDEST DUP5 ISZERO PUSH2 0xF90 JUMPI PUSH2 0x3260 PUSH1 0x1 DUP4 PUSH2 0x39E1 JUMP JUMPDEST SWAP2 POP PUSH2 0x326D PUSH1 0xA DUP7 PUSH2 0x3ABA JUMP JUMPDEST PUSH2 0x3278 SWAP1 PUSH1 0x30 PUSH2 0x38EA JUMP JUMPDEST PUSH1 0xF8 SHL DUP2 DUP4 DUP2 MLOAD DUP2 LT PUSH2 0x328D JUMPI PUSH2 0x328D PUSH2 0x391D JUMP JUMPDEST PUSH1 0x20 ADD ADD SWAP1 PUSH1 0x1 PUSH1 0x1 PUSH1 0xF8 SHL SUB NOT AND SWAP1 DUP2 PUSH1 0x0 BYTE SWAP1 MSTORE8 POP PUSH2 0x32AF PUSH1 0xA DUP7 PUSH2 0x3968 JUMP JUMPDEST SWAP5 POP PUSH2 0x324F JUMP JUMPDEST DUP3 DUP1 SLOAD PUSH2 0x32C2 SWAP1 PUSH2 0x3813 JUMP JUMPDEST SWAP1 PUSH1 0x0 MSTORE PUSH1 0x20 PUSH1 0x0 KECCAK256 SWAP1 PUSH1 0x1F ADD PUSH1 0x20 SWAP1 DIV DUP2 ADD SWAP3 DUP3 PUSH2 0x32E4 JUMPI PUSH1 0x0 DUP6 SSTORE PUSH2 0x332A JUMP JUMPDEST DUP3 PUSH1 0x1F LT PUSH2 0x32FD JUMPI DUP1 MLOAD PUSH1 0xFF NOT AND DUP4 DUP1 ADD OR DUP6 SSTORE PUSH2 0x332A JUMP JUMPDEST DUP3 DUP1 ADD PUSH1 0x1 ADD DUP6 SSTORE DUP3 ISZERO PUSH2 0x332A JUMPI SWAP2 DUP3 ADD JUMPDEST DUP3 DUP2 GT ISZERO PUSH2 0x332A JUMPI DUP3 MLOAD DUP3 SSTORE SWAP2 PUSH1 0x20 ADD SWAP2 SWAP1 PUSH1 0x1 ADD SWAP1 PUSH2 0x330F JUMP JUMPDEST POP PUSH2 0x3336 SWAP3 SWAP2 POP PUSH2 0x333A JUMP JUMPDEST POP SWAP1 JUMP JUMPDEST JUMPDEST DUP1 DUP3 GT ISZERO PUSH2 0x3336 JUMPI PUSH1 0x0 DUP2 SSTORE PUSH1 0x1 ADD PUSH2 0x333B JUMP JUMPDEST PUSH1 0x1 PUSH1 0x1 PUSH1 0xE0 SHL SUB NOT DUP2 AND DUP2 EQ PUSH2 0x2020 JUMPI PUSH1 0x0 DUP1 REVERT JUMPDEST PUSH1 0x0 PUSH1 0x20 DUP3 DUP5 SUB SLT ISZERO PUSH2 0x3377 JUMPI PUSH1 0x0 DUP1 REVERT JUMPDEST DUP2 CALLDATALOAD PUSH2 0x1ED3 DUP2 PUSH2 0x334F JUMP JUMPDEST PUSH1 0x0 JUMPDEST DUP4 DUP2 LT ISZERO PUSH2 0x339D JUMPI DUP2 DUP2 ADD MLOAD DUP4 DUP3 ADD MSTORE PUSH1 0x20 ADD PUSH2 0x3385 JUMP JUMPDEST DUP4 DUP2 GT ISZERO PUSH2 0x1AD9 JUMPI POP POP PUSH1 0x0 SWAP2 ADD MSTORE JUMP JUMPDEST PUSH1 0x0 DUP2 MLOAD DUP1 DUP5 MSTORE PUSH2 0x33C6 DUP2 PUSH1 0x20 DUP7 ADD PUSH1 0x20 DUP7 ADD PUSH2 0x3382 JUMP JUMPDEST PUSH1 0x1F ADD PUSH1 0x1F NOT AND SWAP3 SWAP1 SWAP3 ADD PUSH1 0x20 ADD SWAP3 SWAP2 POP POP JUMP JUMPDEST PUSH1 0x20 DUP2 MSTORE PUSH1 0x0 PUSH2 0x1ED3 PUSH1 0x20 DUP4 ADD DUP5 PUSH2 0x33AE JUMP JUMPDEST PUSH1 0x0 PUSH1 0x20 DUP3 DUP5 SUB SLT ISZERO PUSH2 0x33FF JUMPI PUSH1 0x0 DUP1 REVERT JUMPDEST POP CALLDATALOAD SWAP2 SWAP1 POP JUMP JUMPDEST PUSH1 0x1 PUSH1 0x1 PUSH1 0xA0 SHL SUB DUP2 AND DUP2 EQ PUSH2 0x2020 JUMPI PUSH1 0x0 DUP1 REVERT JUMPDEST PUSH1 0x0 DUP1 PUSH1 0x40 DUP4 DUP6 SUB SLT ISZERO PUSH2 0x342E JUMPI PUSH1 0x0 DUP1 REVERT JUMPDEST DUP3 CALLDATALOAD PUSH2 0x3439 DUP2 PUSH2 0x3406 JUMP JUMPDEST SWAP5 PUSH1 0x20 SWAP4 SWAP1 SWAP4 ADD CALLDATALOAD SWAP4 POP POP POP JUMP JUMPDEST PUSH1 0x0 PUSH1 0x20 DUP3 DUP5 SUB SLT ISZERO PUSH2 0x3459 JUMPI PUSH1 0x0 DUP1 REVERT JUMPDEST DUP2 CALLDATALOAD PUSH2 0x1ED3 DUP2 PUSH2 0x3406 JUMP JUMPDEST PUSH4 0x4E487B71 PUSH1 0xE0 SHL PUSH1 0x0 MSTORE PUSH1 0x41 PUSH1 0x4 MSTORE PUSH1 0x24 PUSH1 0x0 REVERT JUMPDEST PUSH1 0x0 PUSH8 0xFFFFFFFFFFFFFFFF DUP1 DUP5 GT ISZERO PUSH2 0x3495 JUMPI PUSH2 0x3495 PUSH2 0x3464 JUMP JUMPDEST PUSH1 0x40 MLOAD PUSH1 0x1F DUP6 ADD PUSH1 0x1F NOT SWAP1 DUP2 AND PUSH1 0x3F ADD AND DUP2 ADD SWAP1 DUP3 DUP3 GT DUP2 DUP4 LT OR ISZERO PUSH2 0x34BD JUMPI PUSH2 0x34BD PUSH2 0x3464 JUMP JUMPDEST DUP2 PUSH1 0x40 MSTORE DUP1 SWAP4 POP DUP6 DUP2 MSTORE DUP7 DUP7 DUP7 ADD GT ISZERO PUSH2 0x34D6 JUMPI PUSH1 0x0 DUP1 REVERT JUMPDEST DUP6 DUP6 PUSH1 0x20 DUP4 ADD CALLDATACOPY PUSH1 0x0 PUSH1 0x20 DUP8 DUP4 ADD ADD MSTORE POP POP POP SWAP4 SWAP3 POP POP POP JUMP JUMPDEST PUSH1 0x0 DUP3 PUSH1 0x1F DUP4 ADD SLT PUSH2 0x3501 JUMPI PUSH1 0x0 DUP1 REVERT JUMPDEST PUSH2 0x1ED3 DUP4 DUP4 CALLDATALOAD PUSH1 0x20 DUP6 ADD PUSH2 0x347A JUMP JUMPDEST PUSH1 0x0 DUP1 PUSH1 0x40 DUP4 DUP6 SUB SLT ISZERO PUSH2 0x3523 JUMPI PUSH1 0x0 DUP1 REVERT JUMPDEST DUP3 CALLDATALOAD SWAP2 POP PUSH1 0x20 DUP4 ADD CALLDATALOAD PUSH8 0xFFFFFFFFFFFFFFFF DUP2 GT ISZERO PUSH2 0x3541 JUMPI PUSH1 0x0 DUP1 REVERT JUMPDEST PUSH2 0x354D DUP6 DUP3 DUP7 ADD PUSH2 0x34F0 JUMP JUMPDEST SWAP2 POP POP SWAP3 POP SWAP3 SWAP1 POP JUMP JUMPDEST PUSH1 0x0 DUP1 PUSH1 0x40 DUP4 DUP6 SUB SLT ISZERO PUSH2 0x356A JUMPI PUSH1 0x0 DUP1 REVERT JUMPDEST POP POP DUP1 CALLDATALOAD SWAP3 PUSH1 0x20 SWAP1 SWAP2 ADD CALLDATALOAD SWAP2 POP JUMP JUMPDEST PUSH1 0x0 DUP1 PUSH1 0x0 PUSH1 0x60 DUP5 DUP7 SUB SLT ISZERO PUSH2 0x358E JUMPI PUSH1 0x0 DUP1 REVERT JUMPDEST DUP4 CALLDATALOAD PUSH2 0x3599 DUP2 PUSH2 0x3406 JUMP JUMPDEST SWAP3 POP PUSH1 0x20 DUP5 ADD CALLDATALOAD PUSH2 0x35A9 DUP2 PUSH2 0x3406 JUMP JUMPDEST SWAP3 SWAP6 SWAP3 SWAP5 POP POP POP PUSH1 0x40 SWAP2 SWAP1 SWAP2 ADD CALLDATALOAD SWAP1 JUMP JUMPDEST PUSH1 0x0 PUSH1 0x20 DUP1 DUP4 ADD DUP2 DUP5 MSTORE DUP1 DUP6 MLOAD DUP1 DUP4 MSTORE PUSH1 0x40 DUP7 ADD SWAP2 POP PUSH1 0x40 DUP2 PUSH1 0x5 SHL DUP8 ADD ADD SWAP3 POP DUP4 DUP8 ADD PUSH1 0x0 JUMPDEST DUP3 DUP2 LT ISZERO PUSH2 0x360F JUMPI PUSH1 0x3F NOT DUP9 DUP7 SUB ADD DUP5 MSTORE PUSH2 0x35FD DUP6 DUP4 MLOAD PUSH2 0x33AE JUMP JUMPDEST SWAP5 POP SWAP3 DUP6 ADD SWAP3 SWAP1 DUP6 ADD SWAP1 PUSH1 0x1 ADD PUSH2 0x35E1 JUMP JUMPDEST POP SWAP3 SWAP8 SWAP7 POP POP POP POP POP POP POP JUMP JUMPDEST PUSH1 0x0 DUP1 PUSH1 0x0 DUP1 PUSH1 0x80 DUP6 DUP8 SUB SLT ISZERO PUSH2 0x3632 JUMPI PUSH1 0x0 DUP1 REVERT JUMPDEST DUP5 CALLDATALOAD PUSH8 0xFFFFFFFFFFFFFFFF DUP2 GT ISZERO PUSH2 0x3649 JUMPI PUSH1 0x0 DUP1 REVERT JUMPDEST PUSH2 0x3655 DUP8 DUP3 DUP9 ADD PUSH2 0x34F0 JUMP JUMPDEST SWAP8 PUSH1 0x20 DUP8 ADD CALLDATALOAD SWAP8 POP PUSH1 0x40 DUP8 ADD CALLDATALOAD SWAP7 PUSH1 0x60 ADD CALLDATALOAD SWAP6 POP SWAP4 POP POP POP POP JUMP JUMPDEST PUSH1 0x0 PUSH1 0x20 DUP3 DUP5 SUB SLT ISZERO PUSH2 0x3682 JUMPI PUSH1 0x0 DUP1 REVERT JUMPDEST DUP2 CALLDATALOAD PUSH8 0xFFFFFFFFFFFFFFFF DUP2 GT ISZERO PUSH2 0x3699 JUMPI PUSH1 0x0 DUP1 REVERT JUMPDEST PUSH2 0xF90 DUP5 DUP3 DUP6 ADD PUSH2 0x34F0 JUMP JUMPDEST DUP1 ISZERO ISZERO DUP2 EQ PUSH2 0x2020 JUMPI PUSH1 0x0 DUP1 REVERT JUMPDEST PUSH1 0x0 DUP1 PUSH1 0x40 DUP4 DUP6 SUB SLT ISZERO PUSH2 0x36C6 JUMPI PUSH1 0x0 DUP1 REVERT JUMPDEST DUP3 CALLDATALOAD PUSH2 0x36D1 DUP2 PUSH2 0x3406 JUMP JUMPDEST SWAP2 POP PUSH1 0x20 DUP4 ADD CALLDATALOAD PUSH2 0x36E1 DUP2 PUSH2 0x36A5 JUMP JUMPDEST DUP1 SWAP2 POP POP SWAP3 POP SWAP3 SWAP1 POP JUMP JUMPDEST PUSH1 0x0 DUP1 PUSH1 0x0 DUP1 PUSH1 0x80 DUP6 DUP8 SUB SLT ISZERO PUSH2 0x3702 JUMPI PUSH1 0x0 DUP1 REVERT JUMPDEST DUP5 CALLDATALOAD PUSH2 0x370D DUP2 PUSH2 0x3406 JUMP JUMPDEST SWAP4 POP PUSH1 0x20 DUP6 ADD CALLDATALOAD PUSH2 0x371D DUP2 PUSH2 0x3406 JUMP JUMPDEST SWAP3 POP PUSH1 0x40 DUP6 ADD CALLDATALOAD SWAP2 POP PUSH1 0x60 DUP6 ADD CALLDATALOAD PUSH8 0xFFFFFFFFFFFFFFFF DUP2 GT ISZERO PUSH2 0x3740 JUMPI PUSH1 0x0 DUP1 REVERT JUMPDEST DUP6 ADD PUSH1 0x1F DUP2 ADD DUP8 SGT PUSH2 0x3751 JUMPI PUSH1 0x0 DUP1 REVERT JUMPDEST PUSH2 0x3760 DUP8 DUP3 CALLDATALOAD PUSH1 0x20 DUP5 ADD PUSH2 0x347A JUMP JUMPDEST SWAP2 POP POP SWAP3 SWAP6 SWAP2 SWAP5 POP SWAP3 POP JUMP JUMPDEST PUSH1 0x0 DUP1 PUSH1 0x0 PUSH1 0x60 DUP5 DUP7 SUB SLT ISZERO PUSH2 0x3781 JUMPI PUSH1 0x0 DUP1 REVERT JUMPDEST DUP4 CALLDATALOAD PUSH2 0x378C DUP2 PUSH2 0x3406 JUMP JUMPDEST SWAP6 PUSH1 0x20 DUP6 ADD CALLDATALOAD SWAP6 POP PUSH1 0x40 SWAP1 SWAP5 ADD CALLDATALOAD SWAP4 SWAP3 POP POP POP JUMP JUMPDEST PUSH1 0x20 DUP1 DUP3 MSTORE DUP3 MLOAD DUP3 DUP3 ADD DUP2 SWAP1 MSTORE PUSH1 0x0 SWAP2 SWAP1 DUP5 DUP3 ADD SWAP1 PUSH1 0x40 DUP6 ADD SWAP1 DUP5 JUMPDEST DUP2 DUP2 LT ISZERO PUSH2 0x37D9 JUMPI DUP4 MLOAD DUP4 MSTORE SWAP3 DUP5 ADD SWAP3 SWAP2 DUP5 ADD SWAP2 PUSH1 0x1 ADD PUSH2 0x37BD JUMP JUMPDEST POP SWAP1 SWAP7 SWAP6 POP POP POP POP POP POP JUMP JUMPDEST PUSH1 0x0 DUP1 PUSH1 0x40 DUP4 DUP6 SUB SLT ISZERO PUSH2 0x37F8 JUMPI PUSH1 0x0 DUP1 REVERT JUMPDEST DUP3 CALLDATALOAD PUSH2 0x3803 DUP2 PUSH2 0x3406 JUMP JUMPDEST SWAP2 POP PUSH1 0x20 DUP4 ADD CALLDATALOAD PUSH2 0x36E1 DUP2 PUSH2 0x3406 JUMP JUMPDEST PUSH1 0x1 DUP2 DUP2 SHR SWAP1 DUP3 AND DUP1 PUSH2 0x3827 JUMPI PUSH1 0x7F DUP3 AND SWAP2 POP JUMPDEST PUSH1 0x20 DUP3 LT DUP2 EQ ISZERO PUSH2 0x3848 JUMPI PUSH4 0x4E487B71 PUSH1 0xE0 SHL PUSH1 0x0 MSTORE PUSH1 0x22 PUSH1 0x4 MSTORE PUSH1 0x24 PUSH1 0x0 REVERT JUMPDEST POP SWAP2 SWAP1 POP JUMP JUMPDEST PUSH1 0x20 DUP1 DUP3 MSTORE DUP2 DUP2 ADD MSTORE PUSH32 0x4F776E61626C653A2063616C6C6572206973206E6F7420746865206F776E6572 PUSH1 0x40 DUP3 ADD MSTORE PUSH1 0x60 ADD SWAP1 JUMP JUMPDEST PUSH1 0x20 DUP1 DUP3 MSTORE PUSH1 0x31 SWAP1 DUP3 ADD MSTORE PUSH32 0x4552433732313A207472616E736665722063616C6C6572206973206E6F74206F PUSH1 0x40 DUP3 ADD MSTORE PUSH17 0x1DDB995C881B9BDC88185C1C1C9BDD9959 PUSH1 0x7A SHL PUSH1 0x60 DUP3 ADD MSTORE PUSH1 0x80 ADD SWAP1 JUMP JUMPDEST PUSH4 0x4E487B71 PUSH1 0xE0 SHL PUSH1 0x0 MSTORE PUSH1 0x11 PUSH1 0x4 MSTORE PUSH1 0x24 PUSH1 0x0 REVERT JUMPDEST PUSH1 0x0 DUP3 NOT DUP3 GT ISZERO PUSH2 0x38FD JUMPI PUSH2 0x38FD PUSH2 0x38D4 JUMP JUMPDEST POP ADD SWAP1 JUMP JUMPDEST PUSH1 0x0 PUSH1 0x0 NOT DUP3 EQ ISZERO PUSH2 0x3916 JUMPI PUSH2 0x3916 PUSH2 0x38D4 JUMP JUMPDEST POP PUSH1 0x1 ADD SWAP1 JUMP JUMPDEST PUSH4 0x4E487B71 PUSH1 0xE0 SHL PUSH1 0x0 MSTORE PUSH1 0x32 PUSH1 0x4 MSTORE PUSH1 0x24 PUSH1 0x0 REVERT JUMPDEST PUSH1 0x0 DUP2 PUSH1 0x0 NOT DIV DUP4 GT DUP3 ISZERO ISZERO AND ISZERO PUSH2 0x394D JUMPI PUSH2 0x394D PUSH2 0x38D4 JUMP JUMPDEST POP MUL SWAP1 JUMP JUMPDEST PUSH4 0x4E487B71 PUSH1 0xE0 SHL PUSH1 0x0 MSTORE PUSH1 0x12 PUSH1 0x4 MSTORE PUSH1 0x24 PUSH1 0x0 REVERT JUMPDEST PUSH1 0x0 DUP3 PUSH2 0x3977 JUMPI PUSH2 0x3977 PUSH2 0x3952 JUMP JUMPDEST POP DIV SWAP1 JUMP JUMPDEST PUSH1 0x0 PUSH1 0x20 DUP3 DUP5 SUB SLT ISZERO PUSH2 0x398E JUMPI PUSH1 0x0 DUP1 REVERT JUMPDEST POP MLOAD SWAP2 SWAP1 POP JUMP JUMPDEST PUSH1 0x0 PUSH1 0x20 DUP3 DUP5 SUB SLT ISZERO PUSH2 0x39A7 JUMPI PUSH1 0x0 DUP1 REVERT JUMPDEST DUP2 MLOAD PUSH2 0x1ED3 DUP2 PUSH2 0x36A5 JUMP JUMPDEST PUSH1 0x0 DUP4 MLOAD PUSH2 0x39C4 DUP2 DUP5 PUSH1 0x20 DUP9 ADD PUSH2 0x3382 JUMP JUMPDEST DUP4 MLOAD SWAP1 DUP4 ADD SWAP1 PUSH2 0x39D8 DUP2 DUP4 PUSH1 0x20 DUP9 ADD PUSH2 0x3382 JUMP JUMPDEST ADD SWAP5 SWAP4 POP POP POP POP JUMP JUMPDEST PUSH1 0x0 DUP3 DUP3 LT ISZERO PUSH2 0x39F3 JUMPI PUSH2 0x39F3 PUSH2 0x38D4 JUMP JUMPDEST POP SUB SWAP1 JUMP JUMPDEST PUSH1 0x20 DUP1 DUP3 MSTORE PUSH1 0x32 SWAP1 DUP3 ADD MSTORE PUSH32 0x4552433732313A207472616E7366657220746F206E6F6E204552433732315265 PUSH1 0x40 DUP3 ADD MSTORE PUSH18 0x31B2B4BB32B91034B6B83632B6B2B73A32B9 PUSH1 0x71 SHL PUSH1 0x60 DUP3 ADD MSTORE PUSH1 0x80 ADD SWAP1 JUMP JUMPDEST PUSH4 0x4E487B71 PUSH1 0xE0 SHL PUSH1 0x0 MSTORE PUSH1 0x31 PUSH1 0x4 MSTORE PUSH1 0x24 PUSH1 0x0 REVERT JUMPDEST PUSH1 0x1 PUSH1 0x1 PUSH1 0xA0 SHL SUB DUP6 DUP2 AND DUP3 MSTORE DUP5 AND PUSH1 0x20 DUP3 ADD MSTORE PUSH1 0x40 DUP2 ADD DUP4 SWAP1 MSTORE PUSH1 0x80 PUSH1 0x60 DUP3 ADD DUP2 SWAP1 MSTORE PUSH1 0x0 SWAP1 PUSH2 0x3A93 SWAP1 DUP4 ADD DUP5 PUSH2 0x33AE JUMP JUMPDEST SWAP7 SWAP6 POP POP POP POP POP POP JUMP JUMPDEST PUSH1 0x0 PUSH1 0x20 DUP3 DUP5 SUB SLT ISZERO PUSH2 0x3AAF JUMPI PUSH1 0x0 DUP1 REVERT JUMPDEST DUP2 MLOAD PUSH2 0x1ED3 DUP2 PUSH2 0x334F JUMP JUMPDEST PUSH1 0x0 DUP3 PUSH2 0x3AC9 JUMPI PUSH2 0x3AC9 PUSH2 0x3952 JUMP JUMPDEST POP MOD SWAP1 JUMP INVALID LOG2 PUSH5 0x6970667358 0x22 SLT KECCAK256 0xEF 0xDD 0x2E SWAP13 0xEF 0xB0 SLOAD DUP12 0xD8 SWAP7 DUP12 0x2F SWAP15 0x28 SHR LOG0 0xE9 0xE0 PUSH29 0x3B6915727EA7403D0D6751338864736F6C634300080800330000000000 ",
  "sha1": "d7fc3e67f66e4c516ad1ae96792ee7f390675a75",
  "source": "// SPDX-License-Identifier: MIT\npragma solidity 0.8.8;\n\nimport \"@openzeppelin/contracts/utils/Counters.sol\";\nimport \"@openzeppelin/contracts/token/ERC721/extensions/ERC721URIStorage.sol\";\nimport \"@openzeppelin/contracts/token/ERC721/ERC721.sol\";\nimport \"@openzeppelin/contracts/access/Ownable.sol\";\nimport \"./CardinalToken.sol\";\n\n/**\n * @title Cardinal House NFT Contract\n * @dev NFT contract that will be used with the marketplace contract\n */\ncontract CardinalNFT is ERC721URIStorage, Ownable {\n    using Counters for Counters.Counter;\n\n    // Counter to give each NFT a unique ID.\n    Counters.Counter public _tokenIds;\n\n    // Address of the Cardinal NFT marketplace.\n    address public marketplaceAddress;\n\n    // Contract for the Cardinal Token (CRNL).\n    CardinalToken public cardinalToken;\n\n    // Each NFT will be associated with an ID that determines the type of NFT it is\n    // This makes it easy to identify sets of NFTs like Original Cardinal NFTs, membership NFTs, and service NFTs\n    mapping(uint256 => uint256) public tokenIdToTypeId;\n\n    // Each NFT will have a unique listing fee that is kept track of in this mapping.\n    mapping(uint256 => uint256) public tokenIdToListingFee;\n    \n    // Mapping of token ID to address for whitelist spots.\n    mapping(uint256 => address) public tokenIdToWhitelistAddress;\n\n    // Mapping to determine if an address has a membership (either Original Cardinal NFT or membership NFT)\n    mapping(address => bool) public addressIsMember;\n\n    // Mapping to determine the number of membership NFTs an address has (especially if they have Original Cardinal NFT and membership NFT)\n    mapping(address => uint256) public addressToMemberNFTCount;\n\n    // Maps each membership NFT ID to the last block timestamp that the membership was paid for.\n    mapping(uint256 => uint256) public membershipNFTToLastPaid;\n\n    // Mapping to determine which addresses can add and remove other addresses from the member mapping.\n    mapping (address => bool) public addressIsAdmin;\n\n    // Mapping to determine membership discount for addresses.\n    mapping (address => uint256) public addressToMembershipDiscount;\n\n    // The type ID for the Original Cardinal NFTs.\n    uint256 public originalCardinalTypeId = 1;\n\n    // The type ID for the membership NFTs.\n    uint256 public membershipTypeId = 2;\n\n    // The type ID for the service NFTs.\n    uint256 public serviceTypeId = 3;\n\n    // Array of the Original Cardinal token IDs.\n    uint256[] public originalCardinalTokenIds;\n\n    // Array of the membership token IDs.\n    uint256[] public membershipTokenIds;\n\n    // The token URI for all membership NFTs\n    string public membershipTokenURI;\n\n    // The current price of the membership NFT in Cardinal Tokens\n    uint256 public membershipPriceInCardinalTokens;\n\n    event membershipNFTMinted(address indexed owner, uint256 indexed tokenId);\n    event memberChargedForMembership(address indexed member, uint256 indexed tokenId, uint256 membershipPrice, uint256 currTimeStamp);\n    event membershipNFTBurnt(address indexed owner, uint256 indexed tokenId);\n    event tokenURIUpdated(uint256 indexed tokenId, string newTokenURI);\n    event membershipPriceUpdated(uint256 indexed newMembershipPrice);\n    event typeIdUpdated(string indexed typeIdThatWasUpdated, uint256 indexed newTypeId);\n    event memberDiscountSet(address indexed member, uint256 indexed discountAmount);\n\n    constructor(address _marketplaceAddress, address payable _cardinalTokenAddress) ERC721(\"CardinalHouseNFT\", \"CRNLNFT\") {\n        marketplaceAddress = _marketplaceAddress;\n        cardinalToken = CardinalToken(_cardinalTokenAddress);\n    }\n\n    /**\n    * @dev Only owner function to burn a membership NFT\n    * @param tokenId the tokenId of the membership NFT to burn\n     */\n    function burnMembershipNFT(uint256 tokenId) private {\n        for (uint i = 0; i < membershipTokenIds.length; i++) {\n            if (membershipTokenIds[i] == tokenId) {\n                address NFTOwner = ownerOf(membershipTokenIds[i]);\n                _transfer(NFTOwner, address(this), membershipTokenIds[i]);\n\n                emit membershipNFTBurnt(NFTOwner, tokenId);\n\n                membershipTokenIds[i] = membershipTokenIds[membershipTokenIds.length-1];\n                membershipTokenIds.pop();\n            }\n        }\n    }\n\n    /**\n    * @dev Only owner function to burn a membership NFT\n    * @param tokenId the tokenId of the membership NFT to burn\n     */\n    function burnMembershiptNFTManually(uint256 tokenId) external onlyOwner {\n        burnMembershipNFT(tokenId);\n    }\n\n    /**\n     * @dev After a token transfer, update the addressToMember mapping if the NFT is an Original Cardinal or membership NFT\n     * @param from the sender's address\n     * @param to the recipient's address\n     * @param tokenId the tokenId that was transferred\n     */\n    function _afterTokenTransfer(address from, address to, uint256 tokenId) internal virtual override {\n        if (tokenIdToTypeId[tokenId] == membershipTypeId || tokenIdToTypeId[tokenId] == originalCardinalTypeId) {\n            if (from != owner() && from != marketplaceAddress && from != address(0)) {\n                if (addressToMemberNFTCount[from] > 0) {\n                    addressToMemberNFTCount[from] = addressToMemberNFTCount[from] - 1;\n                    if (addressToMemberNFTCount[from] == 0) {\n                        addressIsMember[from] = false;\n                    }\n                }\n                else {\n                    addressIsMember[from] = false;\n                }\n            }\n            addressIsMember[to] = true;\n            addressToMemberNFTCount[to] = addressToMemberNFTCount[to] + 1;\n        }\n\n        super._afterTokenTransfer(from, to, tokenId);\n    }\n\n    /**\n    * @dev Allows someone to mint a membership NFT by paying Cardinal Tokens\n    * @return the ID of the newly minted membership NFT\n     */\n    function mintMembershipNFT() external returns (uint) {\n        uint256 currMembershipPriceInCardinalTokens = membershipPriceInCardinalTokens;\n\n        if (addressToMembershipDiscount[msg.sender] > 0) {\n            currMembershipPriceInCardinalTokens = membershipPriceInCardinalTokens * addressToMembershipDiscount[msg.sender] / 100;\n        }\n\n        require(cardinalToken.balanceOf(msg.sender) >= currMembershipPriceInCardinalTokens, \"You don't have enough Cardinal Tokens to pay for the membership NFT.\");\n        require(cardinalToken.allowance(msg.sender, address(this)) >= currMembershipPriceInCardinalTokens, \"You haven't approved this contract to spend enough of your Cardinal Tokens to pay for the membership NFT.\");\n        \n        cardinalToken.transferFrom(msg.sender, address(this), currMembershipPriceInCardinalTokens);\n\n        _tokenIds.increment();\n        uint256 newItemId = _tokenIds.current();\n\n        tokenIdToTypeId[newItemId] = membershipTypeId;\n        tokenIdToListingFee[newItemId] = 0;\n        _mint(msg.sender, newItemId);\n        membershipNFTToLastPaid[newItemId] = block.timestamp;\n        addressToMembershipDiscount[msg.sender] = 0;\n        _setTokenURI(newItemId, membershipTokenURI);\n        approve(address(this), newItemId);\n        setApprovalForAll(marketplaceAddress, true);\n\n        membershipTokenIds.push(newItemId);\n\n        emit membershipNFTMinted(msg.sender, newItemId);\n\n        return newItemId;\n    }\n\n    /**\n    * @dev Only owner function to update the timestamp for a membership NFT after it has been paid for for a month.\n    * @param tokenId the ID of the membership NFT to have the timestamp updated for\n    * @param lastPaidTimestamp the timestamp to update the membership NFT to for when it was last paid for\n     */\n    function updateMembershipNFTLastPaid(uint256 tokenId, uint256 lastPaidTimestamp) external onlyOwner {\n        membershipNFTToLastPaid[tokenId] = lastPaidTimestamp;\n    }\n\n    /**\n    * @dev Only owner function to take funds from an address to pay for the next month of a membership\n    * @param member the address of the member that is being charged for the next month of a membership\n    * @param tokenId the token ID that the member is being charged\n    * @param currTimeStamp the current timestamp for the transaction to avoid relying on block.timestamp\n    * @return 0 for success, 1 for failure and NFT burn\n     */\n    function chargeMemberForMembership(address member, uint256 tokenId, uint256 currTimeStamp) external onlyOwner returns (uint) {\n        require(ownerOf(tokenId) == member, \"This address doesn't own the NFT specified.\");\n        require(ownerOf(tokenId) != owner() && ownerOf(tokenId) != marketplaceAddress, \"Can't charge the owner or marketplace for the membership.\");\n\n        uint256 currMembershipPriceInCardinalTokens = membershipPriceInCardinalTokens;\n\n        if (addressToMembershipDiscount[member] > 0) {\n            currMembershipPriceInCardinalTokens = membershipPriceInCardinalTokens * addressToMembershipDiscount[member] / 100;\n        }\n\n        if (cardinalToken.balanceOf(member) < currMembershipPriceInCardinalTokens || cardinalToken.allowance(member, address(this)) < currMembershipPriceInCardinalTokens) {\n            burnMembershipNFT(tokenId);\n            return 1;\n        }\n\n        cardinalToken.transferFrom(member, address(this), currMembershipPriceInCardinalTokens);\n\n        if (currTimeStamp > 0) {\n            membershipNFTToLastPaid[tokenId] = currTimeStamp;\n        }\n        else {\n            membershipNFTToLastPaid[tokenId] = block.timestamp;\n        }\n\n        addressToMembershipDiscount[member] = 0;\n\n        emit memberChargedForMembership(member, tokenId, currMembershipPriceInCardinalTokens, currTimeStamp);\n\n        return 0;\n    }\n\n    /**\n    * @dev Only owner function to withdraw the Cardinal Tokens that are paid to this contract for the Membership NFTs.\n     */\n    function withdrawMembershipNFTFunds() external onlyOwner {\n        cardinalToken.transfer(owner(), cardinalToken.balanceOf(address(this)));\n    }\n\n    /**\n    * @dev Only owner function to mint a new NFT.\n    * @param newTokenURI the token URI on IPFS for the NFT metadata\n    * @param typeId the type ID of the NFT to distinguish what type of NFT it is (Original Cardinal, membership, service)\n    * @param listingFee the fee the user pays when putting the NFT for sale on the marketplace\n    * @param currTimeStamp the current timestamp for the transaction to avoid relying on block.timestamp\n    * @return the ID of the newly minted NFT\n     */\n    function createToken(string memory newTokenURI, uint256 typeId, uint256 listingFee, uint256 currTimeStamp) external onlyOwner returns (uint) {\n        _tokenIds.increment();\n        uint256 newItemId = _tokenIds.current();\n\n        tokenIdToTypeId[newItemId] = typeId;\n        tokenIdToListingFee[newItemId] = listingFee;\n        _mint(msg.sender, newItemId);\n        _setTokenURI(newItemId, newTokenURI);\n        approve(address(this), newItemId);\n        setApprovalForAll(marketplaceAddress, true);\n\n        if (typeId == originalCardinalTypeId) {\n            originalCardinalTokenIds.push(newItemId);\n        }\n        else if (typeId == membershipTypeId) {\n            membershipTokenIds.push(newItemId);\n\n            if (currTimeStamp > 0) {\n                membershipNFTToLastPaid[newItemId] = currTimeStamp;\n            }\n            else {\n                membershipNFTToLastPaid[newItemId] = block.timestamp;\n            }\n        }\n\n        return newItemId;\n    }\n\n    /**\n    * @dev Setter function for the token URI of an NFT.\n    * @param tokenId the ID of the NFT to update the token URI of\n    * @param newTokenURI the token URI to update the NFT with\n     */\n    function setTokenURI(uint256 tokenId, string memory newTokenURI) external onlyOwner {\n        _setTokenURI(tokenId, newTokenURI);\n        emit tokenURIUpdated(tokenId, newTokenURI);\n    }\n\n    /**\n    * @dev Function to get all token URIs for tokens that a given user owns.\n    * @param userAddress the user's address to get token URIs of\n    * @return list of token URIs for a user's NFTs\n     */\n    function getUserTokenURIs(address userAddress) external view returns (string[] memory) {\n        uint NFTCount = _tokenIds.current();\n        uint userNFTCount = 0;\n        uint currentIndex = 0;\n\n        for (uint id = 1; id <= NFTCount; id++) {\n            if (ownerOf(id) == userAddress) {\n                userNFTCount += 1;\n            }\n        }\n\n        string[] memory userNFTTokenURIs = new string[](userNFTCount);\n\n        for (uint id = 1; id <= NFTCount; id++) {\n            if (ownerOf(id) == userAddress) {\n                string memory currentNFT = tokenURI(id);\n                userNFTTokenURIs[currentIndex] = currentNFT;\n                currentIndex += 1;\n            }\n        }\n        \n        return userNFTTokenURIs;\n    }\n\n    /**\n    * @dev Function to get all token URIs for Original Cardinal NFTs that a given user owns.\n    * @param userAddress the user's address to get token URIs of\n    * @return list of token URIs for a user's Original Cardinal NFTs\n     */\n    function getUserOriginalCardinalTokenURIs(address userAddress) external view returns (string[] memory) {\n        uint NFTCount = _tokenIds.current();\n        uint userNFTCount = 0;\n        uint currentIndex = 0;\n\n        for (uint id = 1; id <= NFTCount; id++) {\n            if (ownerOf(id) == userAddress && tokenIdToTypeId[id] == originalCardinalTypeId) {\n                userNFTCount += 1;\n            }\n        }\n\n        string[] memory userNFTTokenURIs = new string[](userNFTCount);\n\n        for (uint id = 1; id <= NFTCount; id++) {\n            if (ownerOf(id) == userAddress && tokenIdToTypeId[id] == originalCardinalTypeId) {\n                string memory currentNFT = tokenURI(id);\n                userNFTTokenURIs[currentIndex] = currentNFT;\n                currentIndex += 1;\n            }\n        }\n        \n        return userNFTTokenURIs;\n    }\n\n    /**\n    * @dev Function to get all token URIs for membership NFTs that a given user owns.\n    * @param userAddress the user's address to get token URIs of\n    * @return list of token URIs for a user's membership NFTs\n     */\n    function getUserMembershipTokenURIs(address userAddress) external view returns (string[] memory) {\n        uint NFTCount = _tokenIds.current();\n        uint userNFTCount = 0;\n        uint currentIndex = 0;\n\n        for (uint id = 1; id <= NFTCount; id++) {\n            if (ownerOf(id) == userAddress && (tokenIdToTypeId[id] == originalCardinalTypeId || tokenIdToTypeId[id] == membershipTypeId)) {\n                userNFTCount += 1;\n            }\n        }\n\n        string[] memory userNFTTokenURIs = new string[](userNFTCount);\n\n        for (uint id = 1; id <= NFTCount; id++) {\n            if (ownerOf(id) == userAddress && (tokenIdToTypeId[id] == originalCardinalTypeId || tokenIdToTypeId[id] == membershipTypeId)) {\n                string memory currentNFT = tokenURI(id);\n                userNFTTokenURIs[currentIndex] = currentNFT;\n                currentIndex += 1;\n            }\n        }\n        \n        return userNFTTokenURIs;\n    }\n\n    /**\n    * @dev Function to get all token URIs for service NFTs that a given user owns.\n    * @param userAddress the user's address to get token URIs of\n    * @return list of token URIs for a user's service NFTs\n     */\n    function getUserServiceTokenURIs(address userAddress) external view returns (string[] memory) {\n        uint NFTCount = _tokenIds.current();\n        uint userNFTCount = 0;\n        uint currentIndex = 0;\n\n        for (uint id = 1; id <= NFTCount; id++) {\n            if (ownerOf(id) == userAddress && tokenIdToTypeId[id] == serviceTypeId) {\n                userNFTCount += 1;\n            }\n        }\n\n        string[] memory userNFTTokenURIs = new string[](userNFTCount);\n\n        for (uint id = 1; id <= NFTCount; id++) {\n            if (ownerOf(id) == userAddress && tokenIdToTypeId[id] == serviceTypeId) {\n                string memory currentNFT = tokenURI(id);\n                userNFTTokenURIs[currentIndex] = currentNFT;\n                currentIndex += 1;\n            }\n        }\n        \n        return userNFTTokenURIs;\n    }\n\n    /**\n    * @dev Function to get a list of all the Original Cardinal NFT IDs.\n    * @return list of the Original Cardinal NFT IDs\n     */\n    function getOriginalCardinalTokenIds() external view returns (uint256[] memory) {\n        return originalCardinalTokenIds;\n    }\n\n    /**\n    * @dev Function to get a list of all the membership NFT IDs.\n    * @return list of the membership NFT IDs\n     */\n    function getMembershipTokenIds() external view returns (uint256[] memory) {\n        return membershipTokenIds;\n    }\n\n    /**\n    * @dev Function to assign an NFT to a whitelist spot so only one address can purchase the NFT.\n    * @param whiteListAddress the address of the user who will be able to purchase the NFT\n    * @param tokenId the ID of the NFT that the whitelist spot is for\n     */\n    function addWhiteListToToken(address whiteListAddress, uint256 tokenId) external onlyOwner {\n        tokenIdToWhitelistAddress[tokenId] = whiteListAddress;\n    }\n\n    /**\n    * @dev updates the listing fee of an NFT.\n    * @param tokenId the ID of the NFT to update the listing fee of\n    * @param newListingFee the listing fee value for the NFT\n     */\n    function updateTokenListingFee(uint256 tokenId, uint256 newListingFee) external onlyOwner {\n        tokenIdToListingFee[tokenId] = newListingFee;\n    }\n\n    /**\n    * @dev updates the type ID of an NFT.\n    * @param tokenId the ID of the NFT to update the type ID of\n    * @param newTypeId the type ID value for the NFT\n     */\n    function updateTokenTypeId(uint256 tokenId, uint256 newTypeId) external onlyOwner {\n        tokenIdToTypeId[tokenId] = newTypeId;\n    }\n\n    /**\n    * @dev updates the type ID that represents the Original Cardinal NFTs\n    * @param newOriginalCardinalTypeId the new type ID of the Original Cardinal NFTs\n     */\n    function updateOriginalCardinalTypeId(uint256 newOriginalCardinalTypeId) external onlyOwner {\n        originalCardinalTypeId = newOriginalCardinalTypeId;\n        emit typeIdUpdated(\"originalCardinalTypeId\", newOriginalCardinalTypeId);\n    }\n\n    /**\n    * @dev updates the type ID that represents the membership NFTs\n    * @param newMembershipTypeId the new type ID of the membership NFTs\n     */\n    function updateMembershipTypeId(uint256 newMembershipTypeId) external onlyOwner {\n        membershipTypeId = newMembershipTypeId;\n        emit typeIdUpdated(\"membershipTypeId\", newMembershipTypeId);\n    }\n\n    /**\n    * @dev updates the type ID that represents the service NFTs\n    * @param newServiceTypeId the new type ID of the service NFTs\n     */\n    function updateServiceTypeId(uint256 newServiceTypeId) external onlyOwner {\n        serviceTypeId = newServiceTypeId;\n        emit typeIdUpdated(\"serviceTypeId\", newServiceTypeId);\n    }\n\n    /**\n    * @dev updates the membership NFT token URI\n    * @param newMembershipTokenURI the new type ID of the service NFTs\n     */\n    function updateMembershipTokenURI(string memory newMembershipTokenURI) external onlyOwner {\n        membershipTokenURI = newMembershipTokenURI;\n    }\n\n    /**\n    * @dev sets the price of the membership NFTs in Cardinal Tokens\n    * @param newMembershipPrice the new price of the membership NFTs in Cardinal Tokens\n     */\n    function updateMembershipPrice(uint256 newMembershipPrice) external onlyOwner {\n        membershipPriceInCardinalTokens = newMembershipPrice;\n        emit membershipPriceUpdated(newMembershipPrice);\n    }\n\n    /**\n    * @dev Only owner function to set the reference to the Cardinal Token contract\n    * @param cardinalTokenAddress the address for the Cardinal Token contract\n    */\n    function setCardinalToken(address payable cardinalTokenAddress) external onlyOwner {\n        cardinalToken = CardinalToken(cardinalTokenAddress);\n    }\n\n    /**\n    * @dev Only owner function to update the admin mapping.\n    * @param adminAddress the address to admin rights for\n    * @param isAdmin boolean to determine if the address is an admin or not\n    */\n    function setAdminUser(address adminAddress, bool isAdmin) external onlyOwner {\n        addressIsAdmin[adminAddress] = isAdmin;\n    }\n\n    /**\n    * @dev Allows contract admins to manually add an address as a member. Necessary for memberships purchased through Patreon.\n    * @param memberAddress the address of the member being added\n    */\n    function addMember(address memberAddress) external {\n        require(addressIsAdmin[msg.sender], \"Only contract admins can add members.\");\n\n        addressIsMember[memberAddress] = true;\n    }\n\n    /**\n    * @dev Allows contract admins to manually remove an address as a member. Necessary for when a membership bought through Patreon expires.\n    * @param memberAddress the address to remove from the membership list\n    */\n    function removeMember(address memberAddress) external {\n        require(addressIsAdmin[msg.sender], \"Only contract admins can remove a member.\");\n\n        addressIsMember[memberAddress] = false;\n    }\n\n    /**\n    * @dev Allows contract admins to set a membership discount for an address.\n    * @param memberAddress the address to give the discount to\n    * @param discountAmount the discount amount, 90 for 90% of membership price, 75 for 75% of membership price, etc.\n    */\n    function setMemberDiscount(address memberAddress, uint256 discountAmount) external {\n        require(addressIsAdmin[msg.sender], \"Only contract admins can set a membership discount.\");\n        addressToMembershipDiscount[memberAddress] = discountAmount;\n        emit memberDiscountSet(memberAddress, discountAmount);\n    }\n}",
  "sourcePath": "contracts/CardinalNFT.sol",
  "type": "contract"
}