{
  "abi": [
    {
      "inputs": [
        {
          "internalType": "address",
          "name": "_marketplaceAddress",
          "type": "address"
        },
        {
          "internalType": "address payable",
          "name": "_cardinalTokenAddress",
          "type": "address"
        }
      ],
      "stateMutability": "nonpayable",
      "type": "constructor"
    },
    {
      "anonymous": false,
      "inputs": [
        {
          "indexed": true,
          "internalType": "address",
          "name": "owner",
          "type": "address"
        },
        {
          "indexed": true,
          "internalType": "address",
          "name": "approved",
          "type": "address"
        },
        {
          "indexed": true,
          "internalType": "uint256",
          "name": "tokenId",
          "type": "uint256"
        }
      ],
      "name": "Approval",
      "type": "event"
    },
    {
      "anonymous": false,
      "inputs": [
        {
          "indexed": true,
          "internalType": "address",
          "name": "owner",
          "type": "address"
        },
        {
          "indexed": true,
          "internalType": "address",
          "name": "operator",
          "type": "address"
        },
        {
          "indexed": false,
          "internalType": "bool",
          "name": "approved",
          "type": "bool"
        }
      ],
      "name": "ApprovalForAll",
      "type": "event"
    },
    {
      "anonymous": false,
      "inputs": [
        {
          "indexed": true,
          "internalType": "address",
          "name": "previousOwner",
          "type": "address"
        },
        {
          "indexed": true,
          "internalType": "address",
          "name": "newOwner",
          "type": "address"
        }
      ],
      "name": "OwnershipTransferred",
      "type": "event"
    },
    {
      "anonymous": false,
      "inputs": [
        {
          "indexed": true,
          "internalType": "address",
          "name": "from",
          "type": "address"
        },
        {
          "indexed": true,
          "internalType": "address",
          "name": "to",
          "type": "address"
        },
        {
          "indexed": true,
          "internalType": "uint256",
          "name": "tokenId",
          "type": "uint256"
        }
      ],
      "name": "Transfer",
      "type": "event"
    },
    {
      "inputs": [],
      "name": "_tokenIds",
      "outputs": [
        {
          "internalType": "uint256",
          "name": "_value",
          "type": "uint256"
        }
      ],
      "stateMutability": "view",
      "type": "function"
    },
    {
      "inputs": [
        {
          "internalType": "address",
          "name": "whiteListAddress",
          "type": "address"
        },
        {
          "internalType": "uint256",
          "name": "tokenId",
          "type": "uint256"
        }
      ],
      "name": "addWhiteListToToken",
      "outputs": [],
      "stateMutability": "nonpayable",
      "type": "function"
    },
    {
      "inputs": [
        {
          "internalType": "address",
          "name": "",
          "type": "address"
        }
      ],
      "name": "addressIsMember",
      "outputs": [
        {
          "internalType": "bool",
          "name": "",
          "type": "bool"
        }
      ],
      "stateMutability": "view",
      "type": "function"
    },
    {
      "inputs": [
        {
          "internalType": "address",
          "name": "",
          "type": "address"
        }
      ],
      "name": "addressToMemberNFTCount",
      "outputs": [
        {
          "internalType": "uint256",
          "name": "",
          "type": "uint256"
        }
      ],
      "stateMutability": "view",
      "type": "function"
    },
    {
      "inputs": [
        {
          "internalType": "address",
          "name": "to",
          "type": "address"
        },
        {
          "internalType": "uint256",
          "name": "tokenId",
          "type": "uint256"
        }
      ],
      "name": "approve",
      "outputs": [],
      "stateMutability": "nonpayable",
      "type": "function"
    },
    {
      "inputs": [
        {
          "internalType": "address",
          "name": "owner",
          "type": "address"
        }
      ],
      "name": "balanceOf",
      "outputs": [
        {
          "internalType": "uint256",
          "name": "",
          "type": "uint256"
        }
      ],
      "stateMutability": "view",
      "type": "function"
    },
    {
      "inputs": [
        {
          "internalType": "uint256",
          "name": "tokenId",
          "type": "uint256"
        }
      ],
      "name": "burnMembershiptNFTManually",
      "outputs": [],
      "stateMutability": "nonpayable",
      "type": "function"
    },
    {
      "inputs": [],
      "name": "cardinalToken",
      "outputs": [
        {
          "internalType": "contract CardinalToken",
          "name": "",
          "type": "address"
        }
      ],
      "stateMutability": "view",
      "type": "function"
    },
    {
      "inputs": [
        {
          "internalType": "address",
          "name": "member",
          "type": "address"
        },
        {
          "internalType": "uint256",
          "name": "tokenId",
          "type": "uint256"
        }
      ],
      "name": "chargeMemberForMembership",
      "outputs": [
        {
          "internalType": "uint256",
          "name": "",
          "type": "uint256"
        }
      ],
      "stateMutability": "nonpayable",
      "type": "function"
    },
    {
      "inputs": [
        {
          "internalType": "string",
          "name": "tokenURI",
          "type": "string"
        },
        {
          "internalType": "uint256",
          "name": "typeId",
          "type": "uint256"
        },
        {
          "internalType": "uint256",
          "name": "listingFee",
          "type": "uint256"
        }
      ],
      "name": "createToken",
      "outputs": [
        {
          "internalType": "uint256",
          "name": "",
          "type": "uint256"
        }
      ],
      "stateMutability": "nonpayable",
      "type": "function"
    },
    {
      "inputs": [
        {
          "internalType": "uint256",
          "name": "tokenId",
          "type": "uint256"
        }
      ],
      "name": "getApproved",
      "outputs": [
        {
          "internalType": "address",
          "name": "",
          "type": "address"
        }
      ],
      "stateMutability": "view",
      "type": "function"
    },
    {
      "inputs": [],
      "name": "getMembershipTokenIds",
      "outputs": [
        {
          "internalType": "uint256[]",
          "name": "",
          "type": "uint256[]"
        }
      ],
      "stateMutability": "view",
      "type": "function"
    },
    {
      "inputs": [],
      "name": "getOriginalCardinalTokenIds",
      "outputs": [
        {
          "internalType": "uint256[]",
          "name": "",
          "type": "uint256[]"
        }
      ],
      "stateMutability": "view",
      "type": "function"
    },
    {
      "inputs": [
        {
          "internalType": "address",
          "name": "userAddress",
          "type": "address"
        }
      ],
      "name": "getUserMembershipTokenURIs",
      "outputs": [
        {
          "internalType": "string[]",
          "name": "",
          "type": "string[]"
        }
      ],
      "stateMutability": "view",
      "type": "function"
    },
    {
      "inputs": [
        {
          "internalType": "address",
          "name": "userAddress",
          "type": "address"
        }
      ],
      "name": "getUserOriginalCardinalTokenURIs",
      "outputs": [
        {
          "internalType": "string[]",
          "name": "",
          "type": "string[]"
        }
      ],
      "stateMutability": "view",
      "type": "function"
    },
    {
      "inputs": [
        {
          "internalType": "address",
          "name": "userAddress",
          "type": "address"
        }
      ],
      "name": "getUserServiceTokenURIs",
      "outputs": [
        {
          "internalType": "string[]",
          "name": "",
          "type": "string[]"
        }
      ],
      "stateMutability": "view",
      "type": "function"
    },
    {
      "inputs": [
        {
          "internalType": "address",
          "name": "userAddress",
          "type": "address"
        }
      ],
      "name": "getUserTokenURIs",
      "outputs": [
        {
          "internalType": "string[]",
          "name": "",
          "type": "string[]"
        }
      ],
      "stateMutability": "view",
      "type": "function"
    },
    {
      "inputs": [
        {
          "internalType": "address",
          "name": "owner",
          "type": "address"
        },
        {
          "internalType": "address",
          "name": "operator",
          "type": "address"
        }
      ],
      "name": "isApprovedForAll",
      "outputs": [
        {
          "internalType": "bool",
          "name": "",
          "type": "bool"
        }
      ],
      "stateMutability": "view",
      "type": "function"
    },
    {
      "inputs": [],
      "name": "marketplaceAddress",
      "outputs": [
        {
          "internalType": "address",
          "name": "",
          "type": "address"
        }
      ],
      "stateMutability": "view",
      "type": "function"
    },
    {
      "inputs": [
        {
          "internalType": "uint256",
          "name": "",
          "type": "uint256"
        }
      ],
      "name": "membershipNFTToLastPaid",
      "outputs": [
        {
          "internalType": "uint256",
          "name": "",
          "type": "uint256"
        }
      ],
      "stateMutability": "view",
      "type": "function"
    },
    {
      "inputs": [],
      "name": "membershipPriceInCardinalTokens",
      "outputs": [
        {
          "internalType": "uint256",
          "name": "",
          "type": "uint256"
        }
      ],
      "stateMutability": "view",
      "type": "function"
    },
    {
      "inputs": [
        {
          "internalType": "uint256",
          "name": "",
          "type": "uint256"
        }
      ],
      "name": "membershipTokenIds",
      "outputs": [
        {
          "internalType": "uint256",
          "name": "",
          "type": "uint256"
        }
      ],
      "stateMutability": "view",
      "type": "function"
    },
    {
      "inputs": [],
      "name": "membershipTokenURI",
      "outputs": [
        {
          "internalType": "string",
          "name": "",
          "type": "string"
        }
      ],
      "stateMutability": "view",
      "type": "function"
    },
    {
      "inputs": [],
      "name": "membershipTypeId",
      "outputs": [
        {
          "internalType": "uint256",
          "name": "",
          "type": "uint256"
        }
      ],
      "stateMutability": "view",
      "type": "function"
    },
    {
      "inputs": [],
      "name": "mintMembershipNFT",
      "outputs": [
        {
          "internalType": "uint256",
          "name": "",
          "type": "uint256"
        }
      ],
      "stateMutability": "nonpayable",
      "type": "function"
    },
    {
      "inputs": [],
      "name": "name",
      "outputs": [
        {
          "internalType": "string",
          "name": "",
          "type": "string"
        }
      ],
      "stateMutability": "view",
      "type": "function"
    },
    {
      "inputs": [
        {
          "internalType": "uint256",
          "name": "",
          "type": "uint256"
        }
      ],
      "name": "originalCardinalTokenIds",
      "outputs": [
        {
          "internalType": "uint256",
          "name": "",
          "type": "uint256"
        }
      ],
      "stateMutability": "view",
      "type": "function"
    },
    {
      "inputs": [],
      "name": "originalCardinalTypeId",
      "outputs": [
        {
          "internalType": "uint256",
          "name": "",
          "type": "uint256"
        }
      ],
      "stateMutability": "view",
      "type": "function"
    },
    {
      "inputs": [],
      "name": "owner",
      "outputs": [
        {
          "internalType": "address",
          "name": "",
          "type": "address"
        }
      ],
      "stateMutability": "view",
      "type": "function"
    },
    {
      "inputs": [
        {
          "internalType": "uint256",
          "name": "tokenId",
          "type": "uint256"
        }
      ],
      "name": "ownerOf",
      "outputs": [
        {
          "internalType": "address",
          "name": "",
          "type": "address"
        }
      ],
      "stateMutability": "view",
      "type": "function"
    },
    {
      "inputs": [],
      "name": "renounceOwnership",
      "outputs": [],
      "stateMutability": "nonpayable",
      "type": "function"
    },
    {
      "inputs": [
        {
          "internalType": "address",
          "name": "from",
          "type": "address"
        },
        {
          "internalType": "address",
          "name": "to",
          "type": "address"
        },
        {
          "internalType": "uint256",
          "name": "tokenId",
          "type": "uint256"
        }
      ],
      "name": "safeTransferFrom",
      "outputs": [],
      "stateMutability": "nonpayable",
      "type": "function"
    },
    {
      "inputs": [
        {
          "internalType": "address",
          "name": "from",
          "type": "address"
        },
        {
          "internalType": "address",
          "name": "to",
          "type": "address"
        },
        {
          "internalType": "uint256",
          "name": "tokenId",
          "type": "uint256"
        },
        {
          "internalType": "bytes",
          "name": "_data",
          "type": "bytes"
        }
      ],
      "name": "safeTransferFrom",
      "outputs": [],
      "stateMutability": "nonpayable",
      "type": "function"
    },
    {
      "inputs": [],
      "name": "serviceTypeId",
      "outputs": [
        {
          "internalType": "uint256",
          "name": "",
          "type": "uint256"
        }
      ],
      "stateMutability": "view",
      "type": "function"
    },
    {
      "inputs": [
        {
          "internalType": "address",
          "name": "operator",
          "type": "address"
        },
        {
          "internalType": "bool",
          "name": "approved",
          "type": "bool"
        }
      ],
      "name": "setApprovalForAll",
      "outputs": [],
      "stateMutability": "nonpayable",
      "type": "function"
    },
    {
      "inputs": [
        {
          "internalType": "address payable",
          "name": "cardinalTokenAddress",
          "type": "address"
        }
      ],
      "name": "setCardinalToken",
      "outputs": [],
      "stateMutability": "nonpayable",
      "type": "function"
    },
    {
      "inputs": [
        {
          "internalType": "uint256",
          "name": "tokenId",
          "type": "uint256"
        },
        {
          "internalType": "string",
          "name": "newTokenURI",
          "type": "string"
        }
      ],
      "name": "setTokenURI",
      "outputs": [],
      "stateMutability": "nonpayable",
      "type": "function"
    },
    {
      "inputs": [
        {
          "internalType": "bytes4",
          "name": "interfaceId",
          "type": "bytes4"
        }
      ],
      "name": "supportsInterface",
      "outputs": [
        {
          "internalType": "bool",
          "name": "",
          "type": "bool"
        }
      ],
      "stateMutability": "view",
      "type": "function"
    },
    {
      "inputs": [],
      "name": "symbol",
      "outputs": [
        {
          "internalType": "string",
          "name": "",
          "type": "string"
        }
      ],
      "stateMutability": "view",
      "type": "function"
    },
    {
      "inputs": [
        {
          "internalType": "uint256",
          "name": "",
          "type": "uint256"
        }
      ],
      "name": "tokenIdToListingFee",
      "outputs": [
        {
          "internalType": "uint256",
          "name": "",
          "type": "uint256"
        }
      ],
      "stateMutability": "view",
      "type": "function"
    },
    {
      "inputs": [
        {
          "internalType": "uint256",
          "name": "",
          "type": "uint256"
        }
      ],
      "name": "tokenIdToTypeId",
      "outputs": [
        {
          "internalType": "uint256",
          "name": "",
          "type": "uint256"
        }
      ],
      "stateMutability": "view",
      "type": "function"
    },
    {
      "inputs": [
        {
          "internalType": "uint256",
          "name": "",
          "type": "uint256"
        }
      ],
      "name": "tokenIdToWhitelistAddress",
      "outputs": [
        {
          "internalType": "address",
          "name": "",
          "type": "address"
        }
      ],
      "stateMutability": "view",
      "type": "function"
    },
    {
      "inputs": [
        {
          "internalType": "uint256",
          "name": "tokenId",
          "type": "uint256"
        }
      ],
      "name": "tokenURI",
      "outputs": [
        {
          "internalType": "string",
          "name": "",
          "type": "string"
        }
      ],
      "stateMutability": "view",
      "type": "function"
    },
    {
      "inputs": [
        {
          "internalType": "address",
          "name": "from",
          "type": "address"
        },
        {
          "internalType": "address",
          "name": "to",
          "type": "address"
        },
        {
          "internalType": "uint256",
          "name": "tokenId",
          "type": "uint256"
        }
      ],
      "name": "transferFrom",
      "outputs": [],
      "stateMutability": "nonpayable",
      "type": "function"
    },
    {
      "inputs": [
        {
          "internalType": "address",
          "name": "newOwner",
          "type": "address"
        }
      ],
      "name": "transferOwnership",
      "outputs": [],
      "stateMutability": "nonpayable",
      "type": "function"
    },
    {
      "inputs": [
        {
          "internalType": "uint256",
          "name": "tokenId",
          "type": "uint256"
        },
        {
          "internalType": "uint256",
          "name": "lastPaidTimestamp",
          "type": "uint256"
        }
      ],
      "name": "updateMembershipNFTLastPaid",
      "outputs": [],
      "stateMutability": "nonpayable",
      "type": "function"
    },
    {
      "inputs": [
        {
          "internalType": "uint256",
          "name": "newMembershipPrice",
          "type": "uint256"
        }
      ],
      "name": "updateMembershipPrice",
      "outputs": [],
      "stateMutability": "nonpayable",
      "type": "function"
    },
    {
      "inputs": [
        {
          "internalType": "string",
          "name": "newMembershipTokenURI",
          "type": "string"
        }
      ],
      "name": "updateMembershipTokenURI",
      "outputs": [],
      "stateMutability": "nonpayable",
      "type": "function"
    },
    {
      "inputs": [
        {
          "internalType": "uint256",
          "name": "newMembershipTypeId",
          "type": "uint256"
        }
      ],
      "name": "updateMembershipTypeId",
      "outputs": [],
      "stateMutability": "nonpayable",
      "type": "function"
    },
    {
      "inputs": [
        {
          "internalType": "uint256",
          "name": "newOriginalCardinalTypeId",
          "type": "uint256"
        }
      ],
      "name": "updateOriginalCardinalTypeId",
      "outputs": [],
      "stateMutability": "nonpayable",
      "type": "function"
    },
    {
      "inputs": [
        {
          "internalType": "uint256",
          "name": "newServiceTypeId",
          "type": "uint256"
        }
      ],
      "name": "updateServiceTypeId",
      "outputs": [],
      "stateMutability": "nonpayable",
      "type": "function"
    },
    {
      "inputs": [
        {
          "internalType": "uint256",
          "name": "tokenId",
          "type": "uint256"
        },
        {
          "internalType": "uint256",
          "name": "newListingFee",
          "type": "uint256"
        }
      ],
      "name": "updateTokenListingFee",
      "outputs": [],
      "stateMutability": "nonpayable",
      "type": "function"
    },
    {
      "inputs": [
        {
          "internalType": "uint256",
          "name": "tokenId",
          "type": "uint256"
        },
        {
          "internalType": "uint256",
          "name": "newTypeId",
          "type": "uint256"
        }
      ],
      "name": "updateTokenTypeId",
      "outputs": [],
      "stateMutability": "nonpayable",
      "type": "function"
    },
    {
      "inputs": [],
      "name": "withdrawMembershipNFTFunds",
      "outputs": [],
      "stateMutability": "nonpayable",
      "type": "function"
    }
  ],
  "bytecode": "60806040526001601155600260125560036013553480156200002057600080fd5b506040516200378538038062003785833981016040819052620000439162000214565b604080518082018252601081526f10d85c991a5b985b121bdd5cd953919560821b60208083019182528351808501909452600784526610d4939313919560ca1b9084015281519192916200009a9160009162000155565b508051620000b090600190602084019062000155565b505050620000cd620000c7620000ff60201b60201c565b62000103565b600980546001600160a01b039384166001600160a01b031991821617909155600a805492909316911617905562000290565b3390565b600780546001600160a01b038381166001600160a01b0319831681179093556040519116919082907f8be0079c531659141344cd1fd0a4f28419497f9722a3daafe3b4186f6b6457e090600090a35050565b828054620001639062000253565b90600052602060002090601f016020900481019282620001875760008555620001d2565b82601f10620001a257805160ff1916838001178555620001d2565b82800160010185558215620001d2579182015b82811115620001d2578251825591602001919060010190620001b5565b50620001e0929150620001e4565b5090565b5b80821115620001e05760008155600101620001e5565b6001600160a01b03811681146200021157600080fd5b50565b600080604083850312156200022857600080fd5b82516200023581620001fb565b60208401519092506200024881620001fb565b809150509250929050565b600181811c908216806200026857607f821691505b602082108114156200028a57634e487b7160e01b600052602260045260246000fd5b50919050565b6134e580620002a06000396000f3fe608060405234801561001057600080fd5b50600436106103425760003560e01c80638da5cb5b116101b8578063c34e378211610104578063e4e0a931116100a2578063eecbbec41161007c578063eecbbec414610763578063f2fde38b14610776578063fe0596f214610789578063ffeab8a41461079257600080fd5b8063e4e0a9311461070c578063e985e9c514610714578063ebaa42ed1461075057600080fd5b8063d2793d4a116100de578063d2793d4a146106b1578063d473dab1146106c4578063daa17f49146106d9578063dca8bc47146106ec57600080fd5b8063c34e378214610678578063c79ba39c1461068b578063c87b56dd1461069e57600080fd5b8063aa46a40011610171578063b43affda1161014b578063b43affda14610637578063b88d4fde1461064a578063beb483261461065d578063bec2a7c51461066557600080fd5b8063aa46a400146105fa578063b063c95414610604578063b15d8d5f1461062457600080fd5b80638da5cb5b146105a05780638f01785d146105b157806395914875146105c457806395d89b41146105cc57806396291db6146105d4578063a22cb465146105e757600080fd5b806342842e0e1161029257806370a08231116102305780637417353f1161020a5780637417353f1461055f5780637498d280146105725780637867ccd11461057a57806386794f661461058d57600080fd5b806370a082311461053b578063715018a61461054e57806371af83741461055657600080fd5b80635c23a67a1161026c5780635c23a67a146104cc5780636352211e146104f557806366a98ea3146105085780636f48853b1461051b57600080fd5b806342842e0e1461049d57806346d36230146104b057806356060a74146104b957600080fd5b806311ab8df5116102ff5780631c652fb5116102d95780631c652fb51461043457806323b872dd1461044757806328da575b1461045a57806333a415101461047d57600080fd5b806311ab8df5146103f8578063162094c414610418578063175501651461042b57600080fd5b806301ffc9a71461034757806306fdde031461036f578063081812fc14610384578063095ea7b3146103af5780630becd3bb146103c45780630e1bac89146103e5575b600080fd5b61035a610355366004612da0565b6107a5565b60405190151581526020015b60405180910390f35b6103776107f7565b6040516103669190612e15565b610397610392366004612e28565b610889565b6040516001600160a01b039091168152602001610366565b6103c26103bd366004612e56565b610916565b005b6103d76103d2366004612e56565b610a2c565b604051908152602001610366565b600a54610397906001600160a01b031681565b6103d7610406366004612e28565b60106020526000908152604090205481565b6103c2610426366004612f2e565b610d5c565b6103d760125481565b6103c2610442366004612f75565b610d94565b6103c2610455366004612f97565b610dd0565b61035a610468366004612fd8565b600e6020526000908152604090205460ff1681565b61049061048b366004612fd8565b610e01565b6040516103669190612ff5565b6103c26104ab366004612f97565b610f9b565b6103d760115481565b6104906104c7366004612fd8565b610fb6565b6103976104da366004612e28565b600d602052600090815260409020546001600160a01b031681565b610397610503366004612e28565b611114565b6103c2610516366004612e28565b61118b565b6103d7610529366004612e28565b600b6020526000908152604090205481565b6103d7610549366004612fd8565b6111ba565b6103c2611241565b6103d760135481565b6103c261056d366004612e56565b611277565b6103d76112cf565b6103c2610588366004612f75565b6116d7565b6103c261059b366004612e28565b611713565b6007546001600160a01b0316610397565b6104906105bf366004612fd8565b611742565b61037761186a565b6103776118f8565b6103c26105e2366004613057565b611907565b6103c26105f536600461309a565b611944565b6008546103d79081565b6103d7610612366004612e28565b600c6020526000908152604090205481565b6103d7610632366004612e28565b61194f565b6103d7610645366004612e28565b611970565b6103c26106583660046130d3565b611980565b6103c26119b8565b6103d7610673366004613153565b611b01565b610490610686366004612fd8565b611c34565b6103c2610699366004612f75565b611d92565b6103776106ac366004612e28565b611dce565b6103c26106bf366004612fd8565b611f3d565b6106cc611f89565b60405161036691906131a1565b600954610397906001600160a01b031681565b6103d76106fa366004612fd8565b600f6020526000908152604090205481565b6106cc611fe0565b61035a6107223660046131e5565b6001600160a01b03918216600090815260056020908152604080832093909416825291909152205460ff1690565b6103c261075e366004612e28565b612036565b6103c2610771366004612e28565b612065565b6103c2610784366004612fd8565b612098565b6103d760175481565b6103c26107a0366004612e28565b612130565b60006001600160e01b031982166380ac58cd60e01b14806107d657506001600160e01b03198216635b5e139f60e01b145b806107f157506301ffc9a760e01b6001600160e01b03198316145b92915050565b60606000805461080690613213565b80601f016020809104026020016040519081016040528092919081815260200182805461083290613213565b801561087f5780601f106108545761010080835404028352916020019161087f565b820191906000526020600020905b81548152906001019060200180831161086257829003601f168201915b5050505050905090565b60006108948261215f565b6108fa5760405162461bcd60e51b815260206004820152602c60248201527f4552433732313a20617070726f76656420717565727920666f72206e6f6e657860448201526b34b9ba32b73a103a37b5b2b760a11b60648201526084015b60405180910390fd5b506000908152600460205260409020546001600160a01b031690565b600061092182611114565b9050806001600160a01b0316836001600160a01b0316141561098f5760405162461bcd60e51b815260206004820152602160248201527f4552433732313a20617070726f76616c20746f2063757272656e74206f776e656044820152603960f91b60648201526084016108f1565b336001600160a01b03821614806109ab57506109ab8133610722565b610a1d5760405162461bcd60e51b815260206004820152603860248201527f4552433732313a20617070726f76652063616c6c6572206973206e6f74206f7760448201527f6e6572206e6f7220617070726f76656420666f7220616c6c000000000000000060648201526084016108f1565b610a27838361217c565b505050565b6007546000906001600160a01b03163314610a595760405162461bcd60e51b81526004016108f19061324e565b826001600160a01b0316610a6c83611114565b6001600160a01b031614610ad65760405162461bcd60e51b815260206004820152602b60248201527f54686973206164647265737320646f65736e2774206f776e20746865204e465460448201526a1039b832b1b4b334b2b21760a91b60648201526084016108f1565b6007546001600160a01b0316610aeb83611114565b6001600160a01b031614158015610b1e57506009546001600160a01b0316610b1283611114565b6001600160a01b031614155b610b905760405162461bcd60e51b815260206004820152603960248201527f43616e27742063686172676520746865206f776e6572206f72206d61726b657460448201527f706c61636520666f7220746865206d656d626572736869702e0000000000000060648201526084016108f1565b601754600a546040516370a0823160e01b81526001600160a01b038681166004830152909116906370a082319060240160206040518083038186803b158015610bd857600080fd5b505afa158015610bec573d6000803e3d6000fd5b505050506040513d601f19601f82011682018060405250810190610c109190613283565b1080610c9f5750601754600a54604051636eb1769f60e11b81526001600160a01b0386811660048301523060248301529091169063dd62ed3e9060440160206040518083038186803b158015610c6557600080fd5b505afa158015610c79573d6000803e3d6000fd5b505050506040513d601f19601f82011682018060405250810190610c9d9190613283565b105b15610cb557610cad826121ea565b5060016107f1565b600a546017546040516323b872dd60e01b81526001600160a01b03868116600483015230602483015260448201929092529116906323b872dd90606401602060405180830381600087803b158015610d0c57600080fd5b505af1158015610d20573d6000803e3d6000fd5b505050506040513d601f19601f82011682018060405250810190610d44919061329c565b50506000908152601060205260408120429055919050565b6007546001600160a01b03163314610d865760405162461bcd60e51b81526004016108f19061324e565b610d9082826122f3565b5050565b6007546001600160a01b03163314610dbe5760405162461bcd60e51b81526004016108f19061324e565b60009182526010602052604090912055565b610dda338261237e565b610df65760405162461bcd60e51b81526004016108f1906132b9565b610a27838383612464565b60606000610e0e60085490565b905060008060015b838111610e9357856001600160a01b0316610e3082611114565b6001600160a01b0316148015610e6e57506011546000828152600b60205260409020541480610e6e57506012546000828152600b6020526040902054145b15610e8157610e7e600184613320565b92505b80610e8b81613338565b915050610e16565b5060008267ffffffffffffffff811115610eaf57610eaf612e82565b604051908082528060200260200182016040528015610ee257816020015b6060815260200190600190039081610ecd5790505b50905060015b848111610f9157866001600160a01b0316610f0282611114565b6001600160a01b0316148015610f4057506011546000828152600b60205260409020541480610f4057506012546000828152600b6020526040902054145b15610f7f576000610f5082611dce565b905080838581518110610f6557610f65613353565b6020908102919091010152610f7b600185613320565b9350505b80610f8981613338565b915050610ee8565b5095945050505050565b610a2783838360405180602001604052806000815250611980565b60606000610fc360085490565b905060008060015b83811161102f57856001600160a01b0316610fe582611114565b6001600160a01b031614801561100a57506011546000828152600b6020526040902054145b1561101d5761101a600184613320565b92505b8061102781613338565b915050610fcb565b5060008267ffffffffffffffff81111561104b5761104b612e82565b60405190808252806020026020018201604052801561107e57816020015b60608152602001906001900390816110695790505b50905060015b848111610f9157866001600160a01b031661109e82611114565b6001600160a01b03161480156110c357506011546000828152600b6020526040902054145b156111025760006110d382611dce565b9050808385815181106110e8576110e8613353565b60209081029190910101526110fe600185613320565b9350505b8061110c81613338565b915050611084565b6000818152600260205260408120546001600160a01b0316806107f15760405162461bcd60e51b815260206004820152602960248201527f4552433732313a206f776e657220717565727920666f72206e6f6e657869737460448201526832b73a103a37b5b2b760b91b60648201526084016108f1565b6007546001600160a01b031633146111b55760405162461bcd60e51b81526004016108f19061324e565b601155565b60006001600160a01b0382166112255760405162461bcd60e51b815260206004820152602a60248201527f4552433732313a2062616c616e636520717565727920666f7220746865207a65604482015269726f206164647265737360b01b60648201526084016108f1565b506001600160a01b031660009081526003602052604090205490565b6007546001600160a01b0316331461126b5760405162461bcd60e51b81526004016108f19061324e565b6112756000612606565b565b6007546001600160a01b031633146112a15760405162461bcd60e51b81526004016108f19061324e565b6000908152600d6020526040902080546001600160a01b0319166001600160a01b0392909216919091179055565b601754600a546040516370a0823160e01b8152336004820152600092916001600160a01b0316906370a082319060240160206040518083038186803b15801561131757600080fd5b505afa15801561132b573d6000803e3d6000fd5b505050506040513d601f19601f8201168201806040525081019061134f9190613283565b10156113d15760405162461bcd60e51b8152602060048201526044602482018190527f596f7520646f6e2774206861766520656e6f7567682043617264696e616c2054908201527f6f6b656e7320746f2070617920666f7220746865206d656d626572736869702060648201526327232a1760e11b608482015260a4016108f1565b601754600a54604051636eb1769f60e11b81523360048201523060248201526001600160a01b039091169063dd62ed3e9060440160206040518083038186803b15801561141d57600080fd5b505afa158015611431573d6000803e3d6000fd5b505050506040513d601f19601f820116820180604052508101906114559190613283565b10156115015760405162461bcd60e51b815260206004820152606960248201527f596f7520686176656e277420617070726f766564207468697320636f6e74726160448201527f637420746f207370656e6420656e6f756768206f6620796f757220436172646960648201527f6e616c20546f6b656e7320746f2070617920666f7220746865206d656d62657260848201526839b434b81027232a1760b91b60a482015260c4016108f1565b600a546017546040516323b872dd60e01b815233600482015230602482015260448101919091526001600160a01b03909116906323b872dd90606401602060405180830381600087803b15801561155757600080fd5b505af115801561156b573d6000803e3d6000fd5b505050506040513d601f19601f8201168201806040525081019061158f919061329c565b5061159e600880546001019055565b60006115a960085490565b6012546000828152600b6020908152604080832093909355600c90529081205590506115d53382612658565b60008181526010602052604090204290556016805461167c9183916115f990613213565b80601f016020809104026020016040519081016040528092919081815260200182805461162590613213565b80156116725780601f1061164757610100808354040283529160200191611672565b820191906000526020600020905b81548152906001019060200180831161165557829003601f168201915b50505050506122f3565b6116863082610916565b60095461169d906001600160a01b03166001611944565b601580546001810182556000919091527f55f448fdea98c4d29eb340757ef0a66cd03dbb9538908a6a81d96026b71ec47501819055919050565b6007546001600160a01b031633146117015760405162461bcd60e51b81526004016108f19061324e565b6000918252600c602052604090912055565b6007546001600160a01b0316331461173d5760405162461bcd60e51b81526004016108f19061324e565b601355565b6060600061174f60085490565b905060008060015b8381116117a057856001600160a01b031661177182611114565b6001600160a01b0316141561178e5761178b600184613320565b92505b8061179881613338565b915050611757565b5060008267ffffffffffffffff8111156117bc576117bc612e82565b6040519080825280602002602001820160405280156117ef57816020015b60608152602001906001900390816117da5790505b50905060015b848111610f9157866001600160a01b031661180f82611114565b6001600160a01b0316141561185857600061182982611dce565b90508083858151811061183e5761183e613353565b6020908102919091010152611854600185613320565b9350505b8061186281613338565b9150506117f5565b6016805461187790613213565b80601f01602080910402602001604051908101604052809291908181526020018280546118a390613213565b80156118f05780601f106118c5576101008083540402835291602001916118f0565b820191906000526020600020905b8154815290600101906020018083116118d357829003601f168201915b505050505081565b60606001805461080690613213565b6007546001600160a01b031633146119315760405162461bcd60e51b81526004016108f19061324e565b8051610d90906016906020840190612cf1565b610d90338383612793565b6015818154811061195f57600080fd5b600091825260209091200154905081565b6014818154811061195f57600080fd5b61198a338361237e565b6119a65760405162461bcd60e51b81526004016108f1906132b9565b6119b284848484612862565b50505050565b6007546001600160a01b031633146119e25760405162461bcd60e51b81526004016108f19061324e565b600a546001600160a01b031663a9059cbb611a056007546001600160a01b031690565b600a546040516370a0823160e01b81523060048201526001600160a01b03909116906370a082319060240160206040518083038186803b158015611a4857600080fd5b505afa158015611a5c573d6000803e3d6000fd5b505050506040513d601f19601f82011682018060405250810190611a809190613283565b6040516001600160e01b031960e085901b1681526001600160a01b0390921660048301526024820152604401602060405180830381600087803b158015611ac657600080fd5b505af1158015611ada573d6000803e3d6000fd5b505050506040513d601f19601f82011682018060405250810190611afe919061329c565b50565b6007546000906001600160a01b03163314611b2e5760405162461bcd60e51b81526004016108f19061324e565b611b3c600880546001019055565b6000611b4760085490565b9050611b533382612658565b6000818152600b60209081526040808320879055600c9091529020839055611b7b81866122f3565b611b853082610916565b600954611b9c906001600160a01b03166001611944565b601154841415611be057601480546001810182556000919091527fce6d7b5282bd9a3661ae061feed1dbda4e52ab073b1f9285be6e155d9c38d4ec01819055611c2c565b601254841415611c2c5760158054600181019091557f55f448fdea98c4d29eb340757ef0a66cd03dbb9538908a6a81d96026b71ec4750181905560008181526010602052604090204290555b949350505050565b60606000611c4160085490565b905060008060015b838111611cad57856001600160a01b0316611c6382611114565b6001600160a01b0316148015611c8857506013546000828152600b6020526040902054145b15611c9b57611c98600184613320565b92505b80611ca581613338565b915050611c49565b5060008267ffffffffffffffff811115611cc957611cc9612e82565b604051908082528060200260200182016040528015611cfc57816020015b6060815260200190600190039081611ce75790505b50905060015b848111610f9157866001600160a01b0316611d1c82611114565b6001600160a01b0316148015611d4157506013546000828152600b6020526040902054145b15611d80576000611d5182611dce565b905080838581518110611d6657611d66613353565b6020908102919091010152611d7c600185613320565b9350505b80611d8a81613338565b915050611d02565b6007546001600160a01b03163314611dbc5760405162461bcd60e51b81526004016108f19061324e565b6000918252600b602052604090912055565b6060611dd98261215f565b611e3f5760405162461bcd60e51b815260206004820152603160248201527f45524337323155524953746f726167653a2055524920717565727920666f72206044820152703737b732bc34b9ba32b73a103a37b5b2b760791b60648201526084016108f1565b60008281526006602052604081208054611e5890613213565b80601f0160208091040260200160405190810160405280929190818152602001828054611e8490613213565b8015611ed15780601f10611ea657610100808354040283529160200191611ed1565b820191906000526020600020905b815481529060010190602001808311611eb457829003601f168201915b505050505090506000611eef60408051602081019091526000815290565b9050805160001415611f02575092915050565b815115611f34578082604051602001611f1c929190613369565b60405160208183030381529060405292505050919050565b611c2c84612895565b6007546001600160a01b03163314611f675760405162461bcd60e51b81526004016108f19061324e565b600a80546001600160a01b0319166001600160a01b0392909216919091179055565b6060601580548060200260200160405190810160405280929190818152602001828054801561087f57602002820191906000526020600020905b815481526020019060010190808311611fc3575050505050905090565b6060601480548060200260200160405190810160405280929190818152602001828054801561087f5760200282019190600052602060002090815481526020019060010190808311611fc3575050505050905090565b6007546001600160a01b031633146120605760405162461bcd60e51b81526004016108f19061324e565b601755565b6007546001600160a01b0316331461208f5760405162461bcd60e51b81526004016108f19061324e565b611afe816121ea565b6007546001600160a01b031633146120c25760405162461bcd60e51b81526004016108f19061324e565b6001600160a01b0381166121275760405162461bcd60e51b815260206004820152602660248201527f4f776e61626c653a206e6577206f776e657220697320746865207a65726f206160448201526564647265737360d01b60648201526084016108f1565b611afe81612606565b6007546001600160a01b0316331461215a5760405162461bcd60e51b81526004016108f19061324e565b601255565b6000908152600260205260409020546001600160a01b0316151590565b600081815260046020526040902080546001600160a01b0319166001600160a01b03841690811790915581906121b182611114565b6001600160a01b03167f8c5be1e5ebec7d5bd14f71427d1e84f3dd0314c0f7b2291e5b200ac8c7c3b92560405160405180910390a45050565b60005b601554811015610d9057816015828154811061220b5761220b613353565b906000526020600020015414156122e15760006122446015838154811061223457612234613353565b9060005260206000200154611114565b905061226e81306015858154811061225e5761225e613353565b9060005260206000200154612464565b6015805461227e90600190613398565b8154811061228e5761228e613353565b9060005260206000200154601583815481106122ac576122ac613353565b60009182526020909120015560158054806122c9576122c96133af565b60019003818190600052602060002001600090559055505b806122eb81613338565b9150506121ed565b6122fc8261215f565b61235f5760405162461bcd60e51b815260206004820152602e60248201527f45524337323155524953746f726167653a2055524920736574206f66206e6f6e60448201526d32bc34b9ba32b73a103a37b5b2b760911b60648201526084016108f1565b60008281526006602090815260409091208251610a2792840190612cf1565b60006123898261215f565b6123ea5760405162461bcd60e51b815260206004820152602c60248201527f4552433732313a206f70657261746f7220717565727920666f72206e6f6e657860448201526b34b9ba32b73a103a37b5b2b760a11b60648201526084016108f1565b60006123f583611114565b9050806001600160a01b0316846001600160a01b031614806124305750836001600160a01b031661242584610889565b6001600160a01b0316145b80611c2c57506001600160a01b0380821660009081526005602090815260408083209388168352929052205460ff16611c2c565b826001600160a01b031661247782611114565b6001600160a01b0316146124db5760405162461bcd60e51b815260206004820152602560248201527f4552433732313a207472616e736665722066726f6d20696e636f72726563742060448201526437bbb732b960d91b60648201526084016108f1565b6001600160a01b03821661253d5760405162461bcd60e51b8152602060048201526024808201527f4552433732313a207472616e7366657220746f20746865207a65726f206164646044820152637265737360e01b60648201526084016108f1565b61254860008261217c565b6001600160a01b0383166000908152600360205260408120805460019290612571908490613398565b90915550506001600160a01b038216600090815260036020526040812080546001929061259f908490613320565b909155505060008181526002602052604080822080546001600160a01b0319166001600160a01b0386811691821790925591518493918716917fddf252ad1be2c89b69c2b068fc378daa952ba7f163c4a11628f55a4df523b3ef91a4610a2783838361296d565b600780546001600160a01b038381166001600160a01b0319831681179093556040519116919082907f8be0079c531659141344cd1fd0a4f28419497f9722a3daafe3b4186f6b6457e090600090a35050565b6001600160a01b0382166126ae5760405162461bcd60e51b815260206004820181905260248201527f4552433732313a206d696e7420746f20746865207a65726f206164647265737360448201526064016108f1565b6126b78161215f565b156127045760405162461bcd60e51b815260206004820152601c60248201527f4552433732313a20746f6b656e20616c7265616479206d696e7465640000000060448201526064016108f1565b6001600160a01b038216600090815260036020526040812080546001929061272d908490613320565b909155505060008181526002602052604080822080546001600160a01b0319166001600160a01b03861690811790915590518392907fddf252ad1be2c89b69c2b068fc378daa952ba7f163c4a11628f55a4df523b3ef908290a4610d906000838361296d565b816001600160a01b0316836001600160a01b031614156127f55760405162461bcd60e51b815260206004820152601960248201527f4552433732313a20617070726f766520746f2063616c6c65720000000000000060448201526064016108f1565b6001600160a01b03838116600081815260056020908152604080832094871680845294825291829020805460ff191686151590811790915591519182527f17307eab39ab6107e8899845ad3d59bd9653f200f220920489ca2b5937696c31910160405180910390a3505050565b61286d848484612464565b61287984848484612ae6565b6119b25760405162461bcd60e51b81526004016108f1906133c5565b60606128a08261215f565b6129045760405162461bcd60e51b815260206004820152602f60248201527f4552433732314d657461646174613a2055524920717565727920666f72206e6f60448201526e3732bc34b9ba32b73a103a37b5b2b760891b60648201526084016108f1565b600061291b60408051602081019091526000815290565b9050600081511161293b5760405180602001604052806000815250612966565b8061294584612bf3565b604051602001612956929190613369565b6040516020818303038152906040525b9392505050565b6012546000828152600b6020526040902054148061299a57506011546000828152600b6020526040902054145b15610a27576007546001600160a01b038481169116148015906129cb57506009546001600160a01b03848116911614155b80156129df57506001600160a01b03831615155b15612a8d576001600160a01b0383166000908152600f602052604090205415612a6c576001600160a01b0383166000908152600f6020526040902054612a2790600190613398565b6001600160a01b0384166000908152600f60205260409020819055612a67576001600160a01b0383166000908152600e60205260409020805460ff191690555b612a8d565b6001600160a01b0383166000908152600e60205260409020805460ff191690555b6001600160a01b0382166000908152600e60209081526040808320805460ff19166001908117909155600f90925290912054612ac891613320565b6001600160a01b0383166000908152600f6020526040902055505050565b60006001600160a01b0384163b15612be857604051630a85bd0160e11b81526001600160a01b0385169063150b7a0290612b2a903390899088908890600401613417565b602060405180830381600087803b158015612b4457600080fd5b505af1925050508015612b74575060408051601f3d908101601f19168201909252612b7191810190613454565b60015b612bce573d808015612ba2576040519150601f19603f3d011682016040523d82523d6000602084013e612ba7565b606091505b508051612bc65760405162461bcd60e51b81526004016108f1906133c5565b805181602001fd5b6001600160e01b031916630a85bd0160e11b149050611c2c565b506001949350505050565b606081612c175750506040805180820190915260018152600360fc1b602082015290565b8160005b8115612c415780612c2b81613338565b9150612c3a9050600a83613487565b9150612c1b565b60008167ffffffffffffffff811115612c5c57612c5c612e82565b6040519080825280601f01601f191660200182016040528015612c86576020820181803683370190505b5090505b8415611c2c57612c9b600183613398565b9150612ca8600a8661349b565b612cb3906030613320565b60f81b818381518110612cc857612cc8613353565b60200101906001600160f81b031916908160001a905350612cea600a86613487565b9450612c8a565b828054612cfd90613213565b90600052602060002090601f016020900481019282612d1f5760008555612d65565b82601f10612d3857805160ff1916838001178555612d65565b82800160010185558215612d65579182015b82811115612d65578251825591602001919060010190612d4a565b50612d71929150612d75565b5090565b5b80821115612d715760008155600101612d76565b6001600160e01b031981168114611afe57600080fd5b600060208284031215612db257600080fd5b813561296681612d8a565b60005b83811015612dd8578181015183820152602001612dc0565b838111156119b25750506000910152565b60008151808452612e01816020860160208601612dbd565b601f01601f19169290920160200192915050565b6020815260006129666020830184612de9565b600060208284031215612e3a57600080fd5b5035919050565b6001600160a01b0381168114611afe57600080fd5b60008060408385031215612e6957600080fd5b8235612e7481612e41565b946020939093013593505050565b634e487b7160e01b600052604160045260246000fd5b600067ffffffffffffffff80841115612eb357612eb3612e82565b604051601f8501601f19908116603f01168101908282118183101715612edb57612edb612e82565b81604052809350858152868686011115612ef457600080fd5b858560208301376000602087830101525050509392505050565b600082601f830112612f1f57600080fd5b61296683833560208501612e98565b60008060408385031215612f4157600080fd5b82359150602083013567ffffffffffffffff811115612f5f57600080fd5b612f6b85828601612f0e565b9150509250929050565b60008060408385031215612f8857600080fd5b50508035926020909101359150565b600080600060608486031215612fac57600080fd5b8335612fb781612e41565b92506020840135612fc781612e41565b929592945050506040919091013590565b600060208284031215612fea57600080fd5b813561296681612e41565b6000602080830181845280855180835260408601915060408160051b870101925083870160005b8281101561304a57603f19888603018452613038858351612de9565b9450928501929085019060010161301c565b5092979650505050505050565b60006020828403121561306957600080fd5b813567ffffffffffffffff81111561308057600080fd5b611c2c84828501612f0e565b8015158114611afe57600080fd5b600080604083850312156130ad57600080fd5b82356130b881612e41565b915060208301356130c88161308c565b809150509250929050565b600080600080608085870312156130e957600080fd5b84356130f481612e41565b9350602085013561310481612e41565b925060408501359150606085013567ffffffffffffffff81111561312757600080fd5b8501601f8101871361313857600080fd5b61314787823560208401612e98565b91505092959194509250565b60008060006060848603121561316857600080fd5b833567ffffffffffffffff81111561317f57600080fd5b61318b86828701612f0e565b9660208601359650604090950135949350505050565b6020808252825182820181905260009190848201906040850190845b818110156131d9578351835292840192918401916001016131bd565b50909695505050505050565b600080604083850312156131f857600080fd5b823561320381612e41565b915060208301356130c881612e41565b600181811c9082168061322757607f821691505b6020821081141561324857634e487b7160e01b600052602260045260246000fd5b50919050565b6020808252818101527f4f776e61626c653a2063616c6c6572206973206e6f7420746865206f776e6572604082015260600190565b60006020828403121561329557600080fd5b5051919050565b6000602082840312156132ae57600080fd5b81516129668161308c565b60208082526031908201527f4552433732313a207472616e736665722063616c6c6572206973206e6f74206f6040820152701ddb995c881b9bdc88185c1c1c9bdd9959607a1b606082015260800190565b634e487b7160e01b600052601160045260246000fd5b600082198211156133335761333361330a565b500190565b600060001982141561334c5761334c61330a565b5060010190565b634e487b7160e01b600052603260045260246000fd5b6000835161337b818460208801612dbd565b83519083019061338f818360208801612dbd565b01949350505050565b6000828210156133aa576133aa61330a565b500390565b634e487b7160e01b600052603160045260246000fd5b60208082526032908201527f4552433732313a207472616e7366657220746f206e6f6e20455243373231526560408201527131b2b4bb32b91034b6b83632b6b2b73a32b960711b606082015260800190565b6001600160a01b038581168252841660208201526040810183905260806060820181905260009061344a90830184612de9565b9695505050505050565b60006020828403121561346657600080fd5b815161296681612d8a565b634e487b7160e01b600052601260045260246000fd5b60008261349657613496613471565b500490565b6000826134aa576134aa613471565b50069056fea2646970667358221220722a7c74a4f0769dbeb527ccfff4c2dce0e1d95abd41f0a7a7e72d276bb6db8a64736f6c63430008080033",
  "bytecodeSha1": "a7138079d652030240fc595e5bc1ea5d5c38255a",
  "compiler": {
    "evm_version": "istanbul",
    "optimizer": {
      "enabled": true,
      "runs": 200
    },
    "version": "0.8.8+commit.dddeac2f"
  },
  "contractName": "CardinalNFT",
  "language": "Solidity",
  "natspec": {
    "details": "NFT contract that will be used with the marketplace contract",
    "kind": "dev",
    "methods": {
      "addWhiteListToToken(address,uint256)": {
        "details": "Function to assign an NFT to a whitelist spot so only one address can purchase the NFT.",
        "params": {
          "tokenId": "the ID of the NFT that the whitelist spot is for",
          "whiteListAddress": "the address of the user who will be able to purchase the NFT"
        }
      },
      "approve(address,uint256)": {
        "details": "See {IERC721-approve}."
      },
      "balanceOf(address)": {
        "details": "See {IERC721-balanceOf}."
      },
      "burnMembershiptNFTManually(uint256)": {
        "details": "Only owner function to burn a membership NFT",
        "params": {
          "tokenId": "the tokenId of the membership NFT to burn"
        }
      },
      "chargeMemberForMembership(address,uint256)": {
        "details": "Only owner function to take funds from an address to pay for the next month of a membership",
        "params": {
          "member": "the address of the member that is being charged for the next month of a membership",
          "tokenId": "the token ID that the member is being charged "
        },
        "returns": {
          "_0": "0 for success, 1 for failure and NFT burn"
        }
      },
      "createToken(string,uint256,uint256)": {
        "details": "Only owner function to mint a new NFT.",
        "params": {
          "listingFee": "the fee the user pays when putting the NFT for sale on the marketplace",
          "tokenURI": "the token URI on IPFS for the NFT metadata",
          "typeId": "the type ID of the NFT to distinguish what type of NFT it is (Original Cardinal, membership, service)"
        },
        "returns": {
          "_0": "the ID of the newly minted NFT"
        }
      },
      "getApproved(uint256)": {
        "details": "See {IERC721-getApproved}."
      },
      "getMembershipTokenIds()": {
        "details": "Function to get a list of all the membership NFT IDs.",
        "returns": {
          "_0": "list of the membership NFT IDs"
        }
      },
      "getOriginalCardinalTokenIds()": {
        "details": "Function to get a list of all the Original Cardinal NFT IDs.",
        "returns": {
          "_0": "list of the Original Cardinal NFT IDs"
        }
      },
      "getUserMembershipTokenURIs(address)": {
        "details": "Function to get all token URIs for membership NFTs that a given user owns.",
        "params": {
          "userAddress": "the user's address to get token URIs of"
        },
        "returns": {
          "_0": "list of token URIs for a user's membership NFTs"
        }
      },
      "getUserOriginalCardinalTokenURIs(address)": {
        "details": "Function to get all token URIs for Original Cardinal NFTs that a given user owns.",
        "params": {
          "userAddress": "the user's address to get token URIs of"
        },
        "returns": {
          "_0": "list of token URIs for a user's Original Cardinal NFTs"
        }
      },
      "getUserServiceTokenURIs(address)": {
        "details": "Function to get all token URIs for service NFTs that a given user owns.",
        "params": {
          "userAddress": "the user's address to get token URIs of"
        },
        "returns": {
          "_0": "list of token URIs for a user's service NFTs"
        }
      },
      "getUserTokenURIs(address)": {
        "details": "Function to get all token URIs for tokens that a given user owns.",
        "params": {
          "userAddress": "the user's address to get token URIs of"
        },
        "returns": {
          "_0": "list of token URIs for a user's NFTs"
        }
      },
      "isApprovedForAll(address,address)": {
        "details": "See {IERC721-isApprovedForAll}."
      },
      "mintMembershipNFT()": {
        "details": "Allows someone to mint a membership NFT by paying Cardinal Tokens",
        "returns": {
          "_0": "the ID of the newly minted membership NFT"
        }
      },
      "name()": {
        "details": "See {IERC721Metadata-name}."
      },
      "owner()": {
        "details": "Returns the address of the current owner."
      },
      "ownerOf(uint256)": {
        "details": "See {IERC721-ownerOf}."
      },
      "renounceOwnership()": {
        "details": "Leaves the contract without owner. It will not be possible to call `onlyOwner` functions anymore. Can only be called by the current owner. NOTE: Renouncing ownership will leave the contract without an owner, thereby removing any functionality that is only available to the owner."
      },
      "safeTransferFrom(address,address,uint256)": {
        "details": "See {IERC721-safeTransferFrom}."
      },
      "safeTransferFrom(address,address,uint256,bytes)": {
        "details": "See {IERC721-safeTransferFrom}."
      },
      "setApprovalForAll(address,bool)": {
        "details": "See {IERC721-setApprovalForAll}."
      },
      "setCardinalToken(address)": {
        "details": "Only owner function to set the reference to the Cardinal Token contract",
        "params": {
          "cardinalTokenAddress": "the address for the Cardinal Token contract"
        }
      },
      "setTokenURI(uint256,string)": {
        "details": "Setter function for the token URI of an NFT.",
        "params": {
          "newTokenURI": "the token URI to update the NFT with",
          "tokenId": "the ID of the NFT to update the token URI of"
        }
      },
      "supportsInterface(bytes4)": {
        "details": "See {IERC165-supportsInterface}."
      },
      "symbol()": {
        "details": "See {IERC721Metadata-symbol}."
      },
      "tokenURI(uint256)": {
        "details": "See {IERC721Metadata-tokenURI}."
      },
      "transferFrom(address,address,uint256)": {
        "details": "See {IERC721-transferFrom}."
      },
      "transferOwnership(address)": {
        "details": "Transfers ownership of the contract to a new account (`newOwner`). Can only be called by the current owner."
      },
      "updateMembershipNFTLastPaid(uint256,uint256)": {
        "details": "Only owner function to update the timestamp for a membership NFT after it has been paid for for a month.",
        "params": {
          "lastPaidTimestamp": "the timestamp to update the membership NFT to for when it was last paid for",
          "tokenId": "the ID of the membership NFT to have the timestamp updated for"
        }
      },
      "updateMembershipPrice(uint256)": {
        "details": "sets the price of the membership NFTs in Cardinal Tokens",
        "params": {
          "newMembershipPrice": "the new price of the membership NFTs in Cardinal Tokens"
        }
      },
      "updateMembershipTokenURI(string)": {
        "details": "updates the membership NFT token URI",
        "params": {
          "newMembershipTokenURI": "the new type ID of the service NFTs"
        }
      },
      "updateMembershipTypeId(uint256)": {
        "details": "updates the type ID that represents the membership NFTs",
        "params": {
          "newMembershipTypeId": "the new type ID of the membership NFTs"
        }
      },
      "updateOriginalCardinalTypeId(uint256)": {
        "details": "updates the type ID that represents the Original Cardinal NFTs",
        "params": {
          "newOriginalCardinalTypeId": "the new type ID of the Original Cardinal NFTs"
        }
      },
      "updateServiceTypeId(uint256)": {
        "details": "updates the type ID that represents the service NFTs",
        "params": {
          "newServiceTypeId": "the new type ID of the service NFTs"
        }
      },
      "updateTokenListingFee(uint256,uint256)": {
        "details": "updates the listing fee of an NFT.",
        "params": {
          "newListingFee": "the listing fee value for the NFT",
          "tokenId": "the ID of the NFT to update the listing fee of"
        }
      },
      "updateTokenTypeId(uint256,uint256)": {
        "details": "updates the type ID of an NFT.",
        "params": {
          "newTypeId": "the type ID value for the NFT",
          "tokenId": "the ID of the NFT to update the type ID of"
        }
      },
      "withdrawMembershipNFTFunds()": {
        "details": "Only owner function to withdraw the Cardinal Tokens that are paid to this contract for the Membership NFTs."
      }
    },
    "title": "Cardinal House NFT Contract",
    "version": 1
  },
  "opcodes": "PUSH1 0x80 PUSH1 0x40 MSTORE CALLVALUE DUP1 ISZERO PUSH2 0x10 JUMPI PUSH1 0x0 DUP1 REVERT JUMPDEST POP PUSH1 0x4 CALLDATASIZE LT PUSH2 0x342 JUMPI PUSH1 0x0 CALLDATALOAD PUSH1 0xE0 SHR DUP1 PUSH4 0x8DA5CB5B GT PUSH2 0x1B8 JUMPI DUP1 PUSH4 0xC34E3782 GT PUSH2 0x104 JUMPI DUP1 PUSH4 0xE4E0A931 GT PUSH2 0xA2 JUMPI DUP1 PUSH4 0xEECBBEC4 GT PUSH2 0x7C JUMPI DUP1 PUSH4 0xEECBBEC4 EQ PUSH2 0x763 JUMPI DUP1 PUSH4 0xF2FDE38B EQ PUSH2 0x776 JUMPI DUP1 PUSH4 0xFE0596F2 EQ PUSH2 0x789 JUMPI DUP1 PUSH4 0xFFEAB8A4 EQ PUSH2 0x792 JUMPI PUSH1 0x0 DUP1 REVERT JUMPDEST DUP1 PUSH4 0xE4E0A931 EQ PUSH2 0x70C JUMPI DUP1 PUSH4 0xE985E9C5 EQ PUSH2 0x714 JUMPI DUP1 PUSH4 0xEBAA42ED EQ PUSH2 0x750 JUMPI PUSH1 0x0 DUP1 REVERT JUMPDEST DUP1 PUSH4 0xD2793D4A GT PUSH2 0xDE JUMPI DUP1 PUSH4 0xD2793D4A EQ PUSH2 0x6B1 JUMPI DUP1 PUSH4 0xD473DAB1 EQ PUSH2 0x6C4 JUMPI DUP1 PUSH4 0xDAA17F49 EQ PUSH2 0x6D9 JUMPI DUP1 PUSH4 0xDCA8BC47 EQ PUSH2 0x6EC JUMPI PUSH1 0x0 DUP1 REVERT JUMPDEST DUP1 PUSH4 0xC34E3782 EQ PUSH2 0x678 JUMPI DUP1 PUSH4 0xC79BA39C EQ PUSH2 0x68B JUMPI DUP1 PUSH4 0xC87B56DD EQ PUSH2 0x69E JUMPI PUSH1 0x0 DUP1 REVERT JUMPDEST DUP1 PUSH4 0xAA46A400 GT PUSH2 0x171 JUMPI DUP1 PUSH4 0xB43AFFDA GT PUSH2 0x14B JUMPI DUP1 PUSH4 0xB43AFFDA EQ PUSH2 0x637 JUMPI DUP1 PUSH4 0xB88D4FDE EQ PUSH2 0x64A JUMPI DUP1 PUSH4 0xBEB48326 EQ PUSH2 0x65D JUMPI DUP1 PUSH4 0xBEC2A7C5 EQ PUSH2 0x665 JUMPI PUSH1 0x0 DUP1 REVERT JUMPDEST DUP1 PUSH4 0xAA46A400 EQ PUSH2 0x5FA JUMPI DUP1 PUSH4 0xB063C954 EQ PUSH2 0x604 JUMPI DUP1 PUSH4 0xB15D8D5F EQ PUSH2 0x624 JUMPI PUSH1 0x0 DUP1 REVERT JUMPDEST DUP1 PUSH4 0x8DA5CB5B EQ PUSH2 0x5A0 JUMPI DUP1 PUSH4 0x8F01785D EQ PUSH2 0x5B1 JUMPI DUP1 PUSH4 0x95914875 EQ PUSH2 0x5C4 JUMPI DUP1 PUSH4 0x95D89B41 EQ PUSH2 0x5CC JUMPI DUP1 PUSH4 0x96291DB6 EQ PUSH2 0x5D4 JUMPI DUP1 PUSH4 0xA22CB465 EQ PUSH2 0x5E7 JUMPI PUSH1 0x0 DUP1 REVERT JUMPDEST DUP1 PUSH4 0x42842E0E GT PUSH2 0x292 JUMPI DUP1 PUSH4 0x70A08231 GT PUSH2 0x230 JUMPI DUP1 PUSH4 0x7417353F GT PUSH2 0x20A JUMPI DUP1 PUSH4 0x7417353F EQ PUSH2 0x55F JUMPI DUP1 PUSH4 0x7498D280 EQ PUSH2 0x572 JUMPI DUP1 PUSH4 0x7867CCD1 EQ PUSH2 0x57A JUMPI DUP1 PUSH4 0x86794F66 EQ PUSH2 0x58D JUMPI PUSH1 0x0 DUP1 REVERT JUMPDEST DUP1 PUSH4 0x70A08231 EQ PUSH2 0x53B JUMPI DUP1 PUSH4 0x715018A6 EQ PUSH2 0x54E JUMPI DUP1 PUSH4 0x71AF8374 EQ PUSH2 0x556 JUMPI PUSH1 0x0 DUP1 REVERT JUMPDEST DUP1 PUSH4 0x5C23A67A GT PUSH2 0x26C JUMPI DUP1 PUSH4 0x5C23A67A EQ PUSH2 0x4CC JUMPI DUP1 PUSH4 0x6352211E EQ PUSH2 0x4F5 JUMPI DUP1 PUSH4 0x66A98EA3 EQ PUSH2 0x508 JUMPI DUP1 PUSH4 0x6F48853B EQ PUSH2 0x51B JUMPI PUSH1 0x0 DUP1 REVERT JUMPDEST DUP1 PUSH4 0x42842E0E EQ PUSH2 0x49D JUMPI DUP1 PUSH4 0x46D36230 EQ PUSH2 0x4B0 JUMPI DUP1 PUSH4 0x56060A74 EQ PUSH2 0x4B9 JUMPI PUSH1 0x0 DUP1 REVERT JUMPDEST DUP1 PUSH4 0x11AB8DF5 GT PUSH2 0x2FF JUMPI DUP1 PUSH4 0x1C652FB5 GT PUSH2 0x2D9 JUMPI DUP1 PUSH4 0x1C652FB5 EQ PUSH2 0x434 JUMPI DUP1 PUSH4 0x23B872DD EQ PUSH2 0x447 JUMPI DUP1 PUSH4 0x28DA575B EQ PUSH2 0x45A JUMPI DUP1 PUSH4 0x33A41510 EQ PUSH2 0x47D JUMPI PUSH1 0x0 DUP1 REVERT JUMPDEST DUP1 PUSH4 0x11AB8DF5 EQ PUSH2 0x3F8 JUMPI DUP1 PUSH4 0x162094C4 EQ PUSH2 0x418 JUMPI DUP1 PUSH4 0x17550165 EQ PUSH2 0x42B JUMPI PUSH1 0x0 DUP1 REVERT JUMPDEST DUP1 PUSH4 0x1FFC9A7 EQ PUSH2 0x347 JUMPI DUP1 PUSH4 0x6FDDE03 EQ PUSH2 0x36F JUMPI DUP1 PUSH4 0x81812FC EQ PUSH2 0x384 JUMPI DUP1 PUSH4 0x95EA7B3 EQ PUSH2 0x3AF JUMPI DUP1 PUSH4 0xBECD3BB EQ PUSH2 0x3C4 JUMPI DUP1 PUSH4 0xE1BAC89 EQ PUSH2 0x3E5 JUMPI JUMPDEST PUSH1 0x0 DUP1 REVERT JUMPDEST PUSH2 0x35A PUSH2 0x355 CALLDATASIZE PUSH1 0x4 PUSH2 0x2DA0 JUMP JUMPDEST PUSH2 0x7A5 JUMP JUMPDEST PUSH1 0x40 MLOAD SWAP1 ISZERO ISZERO DUP2 MSTORE PUSH1 0x20 ADD JUMPDEST PUSH1 0x40 MLOAD DUP1 SWAP2 SUB SWAP1 RETURN JUMPDEST PUSH2 0x377 PUSH2 0x7F7 JUMP JUMPDEST PUSH1 0x40 MLOAD PUSH2 0x366 SWAP2 SWAP1 PUSH2 0x2E15 JUMP JUMPDEST PUSH2 0x397 PUSH2 0x392 CALLDATASIZE PUSH1 0x4 PUSH2 0x2E28 JUMP JUMPDEST PUSH2 0x889 JUMP JUMPDEST PUSH1 0x40 MLOAD PUSH1 0x1 PUSH1 0x1 PUSH1 0xA0 SHL SUB SWAP1 SWAP2 AND DUP2 MSTORE PUSH1 0x20 ADD PUSH2 0x366 JUMP JUMPDEST PUSH2 0x3C2 PUSH2 0x3BD CALLDATASIZE PUSH1 0x4 PUSH2 0x2E56 JUMP JUMPDEST PUSH2 0x916 JUMP JUMPDEST STOP JUMPDEST PUSH2 0x3D7 PUSH2 0x3D2 CALLDATASIZE PUSH1 0x4 PUSH2 0x2E56 JUMP JUMPDEST PUSH2 0xA2C JUMP JUMPDEST PUSH1 0x40 MLOAD SWAP1 DUP2 MSTORE PUSH1 0x20 ADD PUSH2 0x366 JUMP JUMPDEST PUSH1 0xA SLOAD PUSH2 0x397 SWAP1 PUSH1 0x1 PUSH1 0x1 PUSH1 0xA0 SHL SUB AND DUP2 JUMP JUMPDEST PUSH2 0x3D7 PUSH2 0x406 CALLDATASIZE PUSH1 0x4 PUSH2 0x2E28 JUMP JUMPDEST PUSH1 0x10 PUSH1 0x20 MSTORE PUSH1 0x0 SWAP1 DUP2 MSTORE PUSH1 0x40 SWAP1 KECCAK256 SLOAD DUP2 JUMP JUMPDEST PUSH2 0x3C2 PUSH2 0x426 CALLDATASIZE PUSH1 0x4 PUSH2 0x2F2E JUMP JUMPDEST PUSH2 0xD5C JUMP JUMPDEST PUSH2 0x3D7 PUSH1 0x12 SLOAD DUP2 JUMP JUMPDEST PUSH2 0x3C2 PUSH2 0x442 CALLDATASIZE PUSH1 0x4 PUSH2 0x2F75 JUMP JUMPDEST PUSH2 0xD94 JUMP JUMPDEST PUSH2 0x3C2 PUSH2 0x455 CALLDATASIZE PUSH1 0x4 PUSH2 0x2F97 JUMP JUMPDEST PUSH2 0xDD0 JUMP JUMPDEST PUSH2 0x35A PUSH2 0x468 CALLDATASIZE PUSH1 0x4 PUSH2 0x2FD8 JUMP JUMPDEST PUSH1 0xE PUSH1 0x20 MSTORE PUSH1 0x0 SWAP1 DUP2 MSTORE PUSH1 0x40 SWAP1 KECCAK256 SLOAD PUSH1 0xFF AND DUP2 JUMP JUMPDEST PUSH2 0x490 PUSH2 0x48B CALLDATASIZE PUSH1 0x4 PUSH2 0x2FD8 JUMP JUMPDEST PUSH2 0xE01 JUMP JUMPDEST PUSH1 0x40 MLOAD PUSH2 0x366 SWAP2 SWAP1 PUSH2 0x2FF5 JUMP JUMPDEST PUSH2 0x3C2 PUSH2 0x4AB CALLDATASIZE PUSH1 0x4 PUSH2 0x2F97 JUMP JUMPDEST PUSH2 0xF9B JUMP JUMPDEST PUSH2 0x3D7 PUSH1 0x11 SLOAD DUP2 JUMP JUMPDEST PUSH2 0x490 PUSH2 0x4C7 CALLDATASIZE PUSH1 0x4 PUSH2 0x2FD8 JUMP JUMPDEST PUSH2 0xFB6 JUMP JUMPDEST PUSH2 0x397 PUSH2 0x4DA CALLDATASIZE PUSH1 0x4 PUSH2 0x2E28 JUMP JUMPDEST PUSH1 0xD PUSH1 0x20 MSTORE PUSH1 0x0 SWAP1 DUP2 MSTORE PUSH1 0x40 SWAP1 KECCAK256 SLOAD PUSH1 0x1 PUSH1 0x1 PUSH1 0xA0 SHL SUB AND DUP2 JUMP JUMPDEST PUSH2 0x397 PUSH2 0x503 CALLDATASIZE PUSH1 0x4 PUSH2 0x2E28 JUMP JUMPDEST PUSH2 0x1114 JUMP JUMPDEST PUSH2 0x3C2 PUSH2 0x516 CALLDATASIZE PUSH1 0x4 PUSH2 0x2E28 JUMP JUMPDEST PUSH2 0x118B JUMP JUMPDEST PUSH2 0x3D7 PUSH2 0x529 CALLDATASIZE PUSH1 0x4 PUSH2 0x2E28 JUMP JUMPDEST PUSH1 0xB PUSH1 0x20 MSTORE PUSH1 0x0 SWAP1 DUP2 MSTORE PUSH1 0x40 SWAP1 KECCAK256 SLOAD DUP2 JUMP JUMPDEST PUSH2 0x3D7 PUSH2 0x549 CALLDATASIZE PUSH1 0x4 PUSH2 0x2FD8 JUMP JUMPDEST PUSH2 0x11BA JUMP JUMPDEST PUSH2 0x3C2 PUSH2 0x1241 JUMP JUMPDEST PUSH2 0x3D7 PUSH1 0x13 SLOAD DUP2 JUMP JUMPDEST PUSH2 0x3C2 PUSH2 0x56D CALLDATASIZE PUSH1 0x4 PUSH2 0x2E56 JUMP JUMPDEST PUSH2 0x1277 JUMP JUMPDEST PUSH2 0x3D7 PUSH2 0x12CF JUMP JUMPDEST PUSH2 0x3C2 PUSH2 0x588 CALLDATASIZE PUSH1 0x4 PUSH2 0x2F75 JUMP JUMPDEST PUSH2 0x16D7 JUMP JUMPDEST PUSH2 0x3C2 PUSH2 0x59B CALLDATASIZE PUSH1 0x4 PUSH2 0x2E28 JUMP JUMPDEST PUSH2 0x1713 JUMP JUMPDEST PUSH1 0x7 SLOAD PUSH1 0x1 PUSH1 0x1 PUSH1 0xA0 SHL SUB AND PUSH2 0x397 JUMP JUMPDEST PUSH2 0x490 PUSH2 0x5BF CALLDATASIZE PUSH1 0x4 PUSH2 0x2FD8 JUMP JUMPDEST PUSH2 0x1742 JUMP JUMPDEST PUSH2 0x377 PUSH2 0x186A JUMP JUMPDEST PUSH2 0x377 PUSH2 0x18F8 JUMP JUMPDEST PUSH2 0x3C2 PUSH2 0x5E2 CALLDATASIZE PUSH1 0x4 PUSH2 0x3057 JUMP JUMPDEST PUSH2 0x1907 JUMP JUMPDEST PUSH2 0x3C2 PUSH2 0x5F5 CALLDATASIZE PUSH1 0x4 PUSH2 0x309A JUMP JUMPDEST PUSH2 0x1944 JUMP JUMPDEST PUSH1 0x8 SLOAD PUSH2 0x3D7 SWAP1 DUP2 JUMP JUMPDEST PUSH2 0x3D7 PUSH2 0x612 CALLDATASIZE PUSH1 0x4 PUSH2 0x2E28 JUMP JUMPDEST PUSH1 0xC PUSH1 0x20 MSTORE PUSH1 0x0 SWAP1 DUP2 MSTORE PUSH1 0x40 SWAP1 KECCAK256 SLOAD DUP2 JUMP JUMPDEST PUSH2 0x3D7 PUSH2 0x632 CALLDATASIZE PUSH1 0x4 PUSH2 0x2E28 JUMP JUMPDEST PUSH2 0x194F JUMP JUMPDEST PUSH2 0x3D7 PUSH2 0x645 CALLDATASIZE PUSH1 0x4 PUSH2 0x2E28 JUMP JUMPDEST PUSH2 0x1970 JUMP JUMPDEST PUSH2 0x3C2 PUSH2 0x658 CALLDATASIZE PUSH1 0x4 PUSH2 0x30D3 JUMP JUMPDEST PUSH2 0x1980 JUMP JUMPDEST PUSH2 0x3C2 PUSH2 0x19B8 JUMP JUMPDEST PUSH2 0x3D7 PUSH2 0x673 CALLDATASIZE PUSH1 0x4 PUSH2 0x3153 JUMP JUMPDEST PUSH2 0x1B01 JUMP JUMPDEST PUSH2 0x490 PUSH2 0x686 CALLDATASIZE PUSH1 0x4 PUSH2 0x2FD8 JUMP JUMPDEST PUSH2 0x1C34 JUMP JUMPDEST PUSH2 0x3C2 PUSH2 0x699 CALLDATASIZE PUSH1 0x4 PUSH2 0x2F75 JUMP JUMPDEST PUSH2 0x1D92 JUMP JUMPDEST PUSH2 0x377 PUSH2 0x6AC CALLDATASIZE PUSH1 0x4 PUSH2 0x2E28 JUMP JUMPDEST PUSH2 0x1DCE JUMP JUMPDEST PUSH2 0x3C2 PUSH2 0x6BF CALLDATASIZE PUSH1 0x4 PUSH2 0x2FD8 JUMP JUMPDEST PUSH2 0x1F3D JUMP JUMPDEST PUSH2 0x6CC PUSH2 0x1F89 JUMP JUMPDEST PUSH1 0x40 MLOAD PUSH2 0x366 SWAP2 SWAP1 PUSH2 0x31A1 JUMP JUMPDEST PUSH1 0x9 SLOAD PUSH2 0x397 SWAP1 PUSH1 0x1 PUSH1 0x1 PUSH1 0xA0 SHL SUB AND DUP2 JUMP JUMPDEST PUSH2 0x3D7 PUSH2 0x6FA CALLDATASIZE PUSH1 0x4 PUSH2 0x2FD8 JUMP JUMPDEST PUSH1 0xF PUSH1 0x20 MSTORE PUSH1 0x0 SWAP1 DUP2 MSTORE PUSH1 0x40 SWAP1 KECCAK256 SLOAD DUP2 JUMP JUMPDEST PUSH2 0x6CC PUSH2 0x1FE0 JUMP JUMPDEST PUSH2 0x35A PUSH2 0x722 CALLDATASIZE PUSH1 0x4 PUSH2 0x31E5 JUMP JUMPDEST PUSH1 0x1 PUSH1 0x1 PUSH1 0xA0 SHL SUB SWAP2 DUP3 AND PUSH1 0x0 SWAP1 DUP2 MSTORE PUSH1 0x5 PUSH1 0x20 SWAP1 DUP2 MSTORE PUSH1 0x40 DUP1 DUP4 KECCAK256 SWAP4 SWAP1 SWAP5 AND DUP3 MSTORE SWAP2 SWAP1 SWAP2 MSTORE KECCAK256 SLOAD PUSH1 0xFF AND SWAP1 JUMP JUMPDEST PUSH2 0x3C2 PUSH2 0x75E CALLDATASIZE PUSH1 0x4 PUSH2 0x2E28 JUMP JUMPDEST PUSH2 0x2036 JUMP JUMPDEST PUSH2 0x3C2 PUSH2 0x771 CALLDATASIZE PUSH1 0x4 PUSH2 0x2E28 JUMP JUMPDEST PUSH2 0x2065 JUMP JUMPDEST PUSH2 0x3C2 PUSH2 0x784 CALLDATASIZE PUSH1 0x4 PUSH2 0x2FD8 JUMP JUMPDEST PUSH2 0x2098 JUMP JUMPDEST PUSH2 0x3D7 PUSH1 0x17 SLOAD DUP2 JUMP JUMPDEST PUSH2 0x3C2 PUSH2 0x7A0 CALLDATASIZE PUSH1 0x4 PUSH2 0x2E28 JUMP JUMPDEST PUSH2 0x2130 JUMP JUMPDEST PUSH1 0x0 PUSH1 0x1 PUSH1 0x1 PUSH1 0xE0 SHL SUB NOT DUP3 AND PUSH4 0x80AC58CD PUSH1 0xE0 SHL EQ DUP1 PUSH2 0x7D6 JUMPI POP PUSH1 0x1 PUSH1 0x1 PUSH1 0xE0 SHL SUB NOT DUP3 AND PUSH4 0x5B5E139F PUSH1 0xE0 SHL EQ JUMPDEST DUP1 PUSH2 0x7F1 JUMPI POP PUSH4 0x1FFC9A7 PUSH1 0xE0 SHL PUSH1 0x1 PUSH1 0x1 PUSH1 0xE0 SHL SUB NOT DUP4 AND EQ JUMPDEST SWAP3 SWAP2 POP POP JUMP JUMPDEST PUSH1 0x60 PUSH1 0x0 DUP1 SLOAD PUSH2 0x806 SWAP1 PUSH2 0x3213 JUMP JUMPDEST DUP1 PUSH1 0x1F ADD PUSH1 0x20 DUP1 SWAP2 DIV MUL PUSH1 0x20 ADD PUSH1 0x40 MLOAD SWAP1 DUP2 ADD PUSH1 0x40 MSTORE DUP1 SWAP3 SWAP2 SWAP1 DUP2 DUP2 MSTORE PUSH1 0x20 ADD DUP3 DUP1 SLOAD PUSH2 0x832 SWAP1 PUSH2 0x3213 JUMP JUMPDEST DUP1 ISZERO PUSH2 0x87F JUMPI DUP1 PUSH1 0x1F LT PUSH2 0x854 JUMPI PUSH2 0x100 DUP1 DUP4 SLOAD DIV MUL DUP4 MSTORE SWAP2 PUSH1 0x20 ADD SWAP2 PUSH2 0x87F JUMP JUMPDEST DUP3 ADD SWAP2 SWAP1 PUSH1 0x0 MSTORE PUSH1 0x20 PUSH1 0x0 KECCAK256 SWAP1 JUMPDEST DUP2 SLOAD DUP2 MSTORE SWAP1 PUSH1 0x1 ADD SWAP1 PUSH1 0x20 ADD DUP1 DUP4 GT PUSH2 0x862 JUMPI DUP3 SWAP1 SUB PUSH1 0x1F AND DUP3 ADD SWAP2 JUMPDEST POP POP POP POP POP SWAP1 POP SWAP1 JUMP JUMPDEST PUSH1 0x0 PUSH2 0x894 DUP3 PUSH2 0x215F JUMP JUMPDEST PUSH2 0x8FA JUMPI PUSH1 0x40 MLOAD PUSH3 0x461BCD PUSH1 0xE5 SHL DUP2 MSTORE PUSH1 0x20 PUSH1 0x4 DUP3 ADD MSTORE PUSH1 0x2C PUSH1 0x24 DUP3 ADD MSTORE PUSH32 0x4552433732313A20617070726F76656420717565727920666F72206E6F6E6578 PUSH1 0x44 DUP3 ADD MSTORE PUSH12 0x34B9BA32B73A103A37B5B2B7 PUSH1 0xA1 SHL PUSH1 0x64 DUP3 ADD MSTORE PUSH1 0x84 ADD JUMPDEST PUSH1 0x40 MLOAD DUP1 SWAP2 SUB SWAP1 REVERT JUMPDEST POP PUSH1 0x0 SWAP1 DUP2 MSTORE PUSH1 0x4 PUSH1 0x20 MSTORE PUSH1 0x40 SWAP1 KECCAK256 SLOAD PUSH1 0x1 PUSH1 0x1 PUSH1 0xA0 SHL SUB AND SWAP1 JUMP JUMPDEST PUSH1 0x0 PUSH2 0x921 DUP3 PUSH2 0x1114 JUMP JUMPDEST SWAP1 POP DUP1 PUSH1 0x1 PUSH1 0x1 PUSH1 0xA0 SHL SUB AND DUP4 PUSH1 0x1 PUSH1 0x1 PUSH1 0xA0 SHL SUB AND EQ ISZERO PUSH2 0x98F JUMPI PUSH1 0x40 MLOAD PUSH3 0x461BCD PUSH1 0xE5 SHL DUP2 MSTORE PUSH1 0x20 PUSH1 0x4 DUP3 ADD MSTORE PUSH1 0x21 PUSH1 0x24 DUP3 ADD MSTORE PUSH32 0x4552433732313A20617070726F76616C20746F2063757272656E74206F776E65 PUSH1 0x44 DUP3 ADD MSTORE PUSH1 0x39 PUSH1 0xF9 SHL PUSH1 0x64 DUP3 ADD MSTORE PUSH1 0x84 ADD PUSH2 0x8F1 JUMP JUMPDEST CALLER PUSH1 0x1 PUSH1 0x1 PUSH1 0xA0 SHL SUB DUP3 AND EQ DUP1 PUSH2 0x9AB JUMPI POP PUSH2 0x9AB DUP2 CALLER PUSH2 0x722 JUMP JUMPDEST PUSH2 0xA1D JUMPI PUSH1 0x40 MLOAD PUSH3 0x461BCD PUSH1 0xE5 SHL DUP2 MSTORE PUSH1 0x20 PUSH1 0x4 DUP3 ADD MSTORE PUSH1 0x38 PUSH1 0x24 DUP3 ADD MSTORE PUSH32 0x4552433732313A20617070726F76652063616C6C6572206973206E6F74206F77 PUSH1 0x44 DUP3 ADD MSTORE PUSH32 0x6E6572206E6F7220617070726F76656420666F7220616C6C0000000000000000 PUSH1 0x64 DUP3 ADD MSTORE PUSH1 0x84 ADD PUSH2 0x8F1 JUMP JUMPDEST PUSH2 0xA27 DUP4 DUP4 PUSH2 0x217C JUMP JUMPDEST POP POP POP JUMP JUMPDEST PUSH1 0x7 SLOAD PUSH1 0x0 SWAP1 PUSH1 0x1 PUSH1 0x1 PUSH1 0xA0 SHL SUB AND CALLER EQ PUSH2 0xA59 JUMPI PUSH1 0x40 MLOAD PUSH3 0x461BCD PUSH1 0xE5 SHL DUP2 MSTORE PUSH1 0x4 ADD PUSH2 0x8F1 SWAP1 PUSH2 0x324E JUMP JUMPDEST DUP3 PUSH1 0x1 PUSH1 0x1 PUSH1 0xA0 SHL SUB AND PUSH2 0xA6C DUP4 PUSH2 0x1114 JUMP JUMPDEST PUSH1 0x1 PUSH1 0x1 PUSH1 0xA0 SHL SUB AND EQ PUSH2 0xAD6 JUMPI PUSH1 0x40 MLOAD PUSH3 0x461BCD PUSH1 0xE5 SHL DUP2 MSTORE PUSH1 0x20 PUSH1 0x4 DUP3 ADD MSTORE PUSH1 0x2B PUSH1 0x24 DUP3 ADD MSTORE PUSH32 0x54686973206164647265737320646F65736E2774206F776E20746865204E4654 PUSH1 0x44 DUP3 ADD MSTORE PUSH11 0x1039B832B1B4B334B2B217 PUSH1 0xA9 SHL PUSH1 0x64 DUP3 ADD MSTORE PUSH1 0x84 ADD PUSH2 0x8F1 JUMP JUMPDEST PUSH1 0x7 SLOAD PUSH1 0x1 PUSH1 0x1 PUSH1 0xA0 SHL SUB AND PUSH2 0xAEB DUP4 PUSH2 0x1114 JUMP JUMPDEST PUSH1 0x1 PUSH1 0x1 PUSH1 0xA0 SHL SUB AND EQ ISZERO DUP1 ISZERO PUSH2 0xB1E JUMPI POP PUSH1 0x9 SLOAD PUSH1 0x1 PUSH1 0x1 PUSH1 0xA0 SHL SUB AND PUSH2 0xB12 DUP4 PUSH2 0x1114 JUMP JUMPDEST PUSH1 0x1 PUSH1 0x1 PUSH1 0xA0 SHL SUB AND EQ ISZERO JUMPDEST PUSH2 0xB90 JUMPI PUSH1 0x40 MLOAD PUSH3 0x461BCD PUSH1 0xE5 SHL DUP2 MSTORE PUSH1 0x20 PUSH1 0x4 DUP3 ADD MSTORE PUSH1 0x39 PUSH1 0x24 DUP3 ADD MSTORE PUSH32 0x43616E27742063686172676520746865206F776E6572206F72206D61726B6574 PUSH1 0x44 DUP3 ADD MSTORE PUSH32 0x706C61636520666F7220746865206D656D626572736869702E00000000000000 PUSH1 0x64 DUP3 ADD MSTORE PUSH1 0x84 ADD PUSH2 0x8F1 JUMP JUMPDEST PUSH1 0x17 SLOAD PUSH1 0xA SLOAD PUSH1 0x40 MLOAD PUSH4 0x70A08231 PUSH1 0xE0 SHL DUP2 MSTORE PUSH1 0x1 PUSH1 0x1 PUSH1 0xA0 SHL SUB DUP7 DUP2 AND PUSH1 0x4 DUP4 ADD MSTORE SWAP1 SWAP2 AND SWAP1 PUSH4 0x70A08231 SWAP1 PUSH1 0x24 ADD PUSH1 0x20 PUSH1 0x40 MLOAD DUP1 DUP4 SUB DUP2 DUP7 DUP1 EXTCODESIZE ISZERO DUP1 ISZERO PUSH2 0xBD8 JUMPI PUSH1 0x0 DUP1 REVERT JUMPDEST POP GAS STATICCALL ISZERO DUP1 ISZERO PUSH2 0xBEC JUMPI RETURNDATASIZE PUSH1 0x0 DUP1 RETURNDATACOPY RETURNDATASIZE PUSH1 0x0 REVERT JUMPDEST POP POP POP POP PUSH1 0x40 MLOAD RETURNDATASIZE PUSH1 0x1F NOT PUSH1 0x1F DUP3 ADD AND DUP3 ADD DUP1 PUSH1 0x40 MSTORE POP DUP2 ADD SWAP1 PUSH2 0xC10 SWAP2 SWAP1 PUSH2 0x3283 JUMP JUMPDEST LT DUP1 PUSH2 0xC9F JUMPI POP PUSH1 0x17 SLOAD PUSH1 0xA SLOAD PUSH1 0x40 MLOAD PUSH4 0x6EB1769F PUSH1 0xE1 SHL DUP2 MSTORE PUSH1 0x1 PUSH1 0x1 PUSH1 0xA0 SHL SUB DUP7 DUP2 AND PUSH1 0x4 DUP4 ADD MSTORE ADDRESS PUSH1 0x24 DUP4 ADD MSTORE SWAP1 SWAP2 AND SWAP1 PUSH4 0xDD62ED3E SWAP1 PUSH1 0x44 ADD PUSH1 0x20 PUSH1 0x40 MLOAD DUP1 DUP4 SUB DUP2 DUP7 DUP1 EXTCODESIZE ISZERO DUP1 ISZERO PUSH2 0xC65 JUMPI PUSH1 0x0 DUP1 REVERT JUMPDEST POP GAS STATICCALL ISZERO DUP1 ISZERO PUSH2 0xC79 JUMPI RETURNDATASIZE PUSH1 0x0 DUP1 RETURNDATACOPY RETURNDATASIZE PUSH1 0x0 REVERT JUMPDEST POP POP POP POP PUSH1 0x40 MLOAD RETURNDATASIZE PUSH1 0x1F NOT PUSH1 0x1F DUP3 ADD AND DUP3 ADD DUP1 PUSH1 0x40 MSTORE POP DUP2 ADD SWAP1 PUSH2 0xC9D SWAP2 SWAP1 PUSH2 0x3283 JUMP JUMPDEST LT JUMPDEST ISZERO PUSH2 0xCB5 JUMPI PUSH2 0xCAD DUP3 PUSH2 0x21EA JUMP JUMPDEST POP PUSH1 0x1 PUSH2 0x7F1 JUMP JUMPDEST PUSH1 0xA SLOAD PUSH1 0x17 SLOAD PUSH1 0x40 MLOAD PUSH4 0x23B872DD PUSH1 0xE0 SHL DUP2 MSTORE PUSH1 0x1 PUSH1 0x1 PUSH1 0xA0 SHL SUB DUP7 DUP2 AND PUSH1 0x4 DUP4 ADD MSTORE ADDRESS PUSH1 0x24 DUP4 ADD MSTORE PUSH1 0x44 DUP3 ADD SWAP3 SWAP1 SWAP3 MSTORE SWAP2 AND SWAP1 PUSH4 0x23B872DD SWAP1 PUSH1 0x64 ADD PUSH1 0x20 PUSH1 0x40 MLOAD DUP1 DUP4 SUB DUP2 PUSH1 0x0 DUP8 DUP1 EXTCODESIZE ISZERO DUP1 ISZERO PUSH2 0xD0C JUMPI PUSH1 0x0 DUP1 REVERT JUMPDEST POP GAS CALL ISZERO DUP1 ISZERO PUSH2 0xD20 JUMPI RETURNDATASIZE PUSH1 0x0 DUP1 RETURNDATACOPY RETURNDATASIZE PUSH1 0x0 REVERT JUMPDEST POP POP POP POP PUSH1 0x40 MLOAD RETURNDATASIZE PUSH1 0x1F NOT PUSH1 0x1F DUP3 ADD AND DUP3 ADD DUP1 PUSH1 0x40 MSTORE POP DUP2 ADD SWAP1 PUSH2 0xD44 SWAP2 SWAP1 PUSH2 0x329C JUMP JUMPDEST POP POP PUSH1 0x0 SWAP1 DUP2 MSTORE PUSH1 0x10 PUSH1 0x20 MSTORE PUSH1 0x40 DUP2 KECCAK256 TIMESTAMP SWAP1 SSTORE SWAP2 SWAP1 POP JUMP JUMPDEST PUSH1 0x7 SLOAD PUSH1 0x1 PUSH1 0x1 PUSH1 0xA0 SHL SUB AND CALLER EQ PUSH2 0xD86 JUMPI PUSH1 0x40 MLOAD PUSH3 0x461BCD PUSH1 0xE5 SHL DUP2 MSTORE PUSH1 0x4 ADD PUSH2 0x8F1 SWAP1 PUSH2 0x324E JUMP JUMPDEST PUSH2 0xD90 DUP3 DUP3 PUSH2 0x22F3 JUMP JUMPDEST POP POP JUMP JUMPDEST PUSH1 0x7 SLOAD PUSH1 0x1 PUSH1 0x1 PUSH1 0xA0 SHL SUB AND CALLER EQ PUSH2 0xDBE JUMPI PUSH1 0x40 MLOAD PUSH3 0x461BCD PUSH1 0xE5 SHL DUP2 MSTORE PUSH1 0x4 ADD PUSH2 0x8F1 SWAP1 PUSH2 0x324E JUMP JUMPDEST PUSH1 0x0 SWAP2 DUP3 MSTORE PUSH1 0x10 PUSH1 0x20 MSTORE PUSH1 0x40 SWAP1 SWAP2 KECCAK256 SSTORE JUMP JUMPDEST PUSH2 0xDDA CALLER DUP3 PUSH2 0x237E JUMP JUMPDEST PUSH2 0xDF6 JUMPI PUSH1 0x40 MLOAD PUSH3 0x461BCD PUSH1 0xE5 SHL DUP2 MSTORE PUSH1 0x4 ADD PUSH2 0x8F1 SWAP1 PUSH2 0x32B9 JUMP JUMPDEST PUSH2 0xA27 DUP4 DUP4 DUP4 PUSH2 0x2464 JUMP JUMPDEST PUSH1 0x60 PUSH1 0x0 PUSH2 0xE0E PUSH1 0x8 SLOAD SWAP1 JUMP JUMPDEST SWAP1 POP PUSH1 0x0 DUP1 PUSH1 0x1 JUMPDEST DUP4 DUP2 GT PUSH2 0xE93 JUMPI DUP6 PUSH1 0x1 PUSH1 0x1 PUSH1 0xA0 SHL SUB AND PUSH2 0xE30 DUP3 PUSH2 0x1114 JUMP JUMPDEST PUSH1 0x1 PUSH1 0x1 PUSH1 0xA0 SHL SUB AND EQ DUP1 ISZERO PUSH2 0xE6E JUMPI POP PUSH1 0x11 SLOAD PUSH1 0x0 DUP3 DUP2 MSTORE PUSH1 0xB PUSH1 0x20 MSTORE PUSH1 0x40 SWAP1 KECCAK256 SLOAD EQ DUP1 PUSH2 0xE6E JUMPI POP PUSH1 0x12 SLOAD PUSH1 0x0 DUP3 DUP2 MSTORE PUSH1 0xB PUSH1 0x20 MSTORE PUSH1 0x40 SWAP1 KECCAK256 SLOAD EQ JUMPDEST ISZERO PUSH2 0xE81 JUMPI PUSH2 0xE7E PUSH1 0x1 DUP5 PUSH2 0x3320 JUMP JUMPDEST SWAP3 POP JUMPDEST DUP1 PUSH2 0xE8B DUP2 PUSH2 0x3338 JUMP JUMPDEST SWAP2 POP POP PUSH2 0xE16 JUMP JUMPDEST POP PUSH1 0x0 DUP3 PUSH8 0xFFFFFFFFFFFFFFFF DUP2 GT ISZERO PUSH2 0xEAF JUMPI PUSH2 0xEAF PUSH2 0x2E82 JUMP JUMPDEST PUSH1 0x40 MLOAD SWAP1 DUP1 DUP3 MSTORE DUP1 PUSH1 0x20 MUL PUSH1 0x20 ADD DUP3 ADD PUSH1 0x40 MSTORE DUP1 ISZERO PUSH2 0xEE2 JUMPI DUP2 PUSH1 0x20 ADD JUMPDEST PUSH1 0x60 DUP2 MSTORE PUSH1 0x20 ADD SWAP1 PUSH1 0x1 SWAP1 SUB SWAP1 DUP2 PUSH2 0xECD JUMPI SWAP1 POP JUMPDEST POP SWAP1 POP PUSH1 0x1 JUMPDEST DUP5 DUP2 GT PUSH2 0xF91 JUMPI DUP7 PUSH1 0x1 PUSH1 0x1 PUSH1 0xA0 SHL SUB AND PUSH2 0xF02 DUP3 PUSH2 0x1114 JUMP JUMPDEST PUSH1 0x1 PUSH1 0x1 PUSH1 0xA0 SHL SUB AND EQ DUP1 ISZERO PUSH2 0xF40 JUMPI POP PUSH1 0x11 SLOAD PUSH1 0x0 DUP3 DUP2 MSTORE PUSH1 0xB PUSH1 0x20 MSTORE PUSH1 0x40 SWAP1 KECCAK256 SLOAD EQ DUP1 PUSH2 0xF40 JUMPI POP PUSH1 0x12 SLOAD PUSH1 0x0 DUP3 DUP2 MSTORE PUSH1 0xB PUSH1 0x20 MSTORE PUSH1 0x40 SWAP1 KECCAK256 SLOAD EQ JUMPDEST ISZERO PUSH2 0xF7F JUMPI PUSH1 0x0 PUSH2 0xF50 DUP3 PUSH2 0x1DCE JUMP JUMPDEST SWAP1 POP DUP1 DUP4 DUP6 DUP2 MLOAD DUP2 LT PUSH2 0xF65 JUMPI PUSH2 0xF65 PUSH2 0x3353 JUMP JUMPDEST PUSH1 0x20 SWAP1 DUP2 MUL SWAP2 SWAP1 SWAP2 ADD ADD MSTORE PUSH2 0xF7B PUSH1 0x1 DUP6 PUSH2 0x3320 JUMP JUMPDEST SWAP4 POP POP JUMPDEST DUP1 PUSH2 0xF89 DUP2 PUSH2 0x3338 JUMP JUMPDEST SWAP2 POP POP PUSH2 0xEE8 JUMP JUMPDEST POP SWAP6 SWAP5 POP POP POP POP POP JUMP JUMPDEST PUSH2 0xA27 DUP4 DUP4 DUP4 PUSH1 0x40 MLOAD DUP1 PUSH1 0x20 ADD PUSH1 0x40 MSTORE DUP1 PUSH1 0x0 DUP2 MSTORE POP PUSH2 0x1980 JUMP JUMPDEST PUSH1 0x60 PUSH1 0x0 PUSH2 0xFC3 PUSH1 0x8 SLOAD SWAP1 JUMP JUMPDEST SWAP1 POP PUSH1 0x0 DUP1 PUSH1 0x1 JUMPDEST DUP4 DUP2 GT PUSH2 0x102F JUMPI DUP6 PUSH1 0x1 PUSH1 0x1 PUSH1 0xA0 SHL SUB AND PUSH2 0xFE5 DUP3 PUSH2 0x1114 JUMP JUMPDEST PUSH1 0x1 PUSH1 0x1 PUSH1 0xA0 SHL SUB AND EQ DUP1 ISZERO PUSH2 0x100A JUMPI POP PUSH1 0x11 SLOAD PUSH1 0x0 DUP3 DUP2 MSTORE PUSH1 0xB PUSH1 0x20 MSTORE PUSH1 0x40 SWAP1 KECCAK256 SLOAD EQ JUMPDEST ISZERO PUSH2 0x101D JUMPI PUSH2 0x101A PUSH1 0x1 DUP5 PUSH2 0x3320 JUMP JUMPDEST SWAP3 POP JUMPDEST DUP1 PUSH2 0x1027 DUP2 PUSH2 0x3338 JUMP JUMPDEST SWAP2 POP POP PUSH2 0xFCB JUMP JUMPDEST POP PUSH1 0x0 DUP3 PUSH8 0xFFFFFFFFFFFFFFFF DUP2 GT ISZERO PUSH2 0x104B JUMPI PUSH2 0x104B PUSH2 0x2E82 JUMP JUMPDEST PUSH1 0x40 MLOAD SWAP1 DUP1 DUP3 MSTORE DUP1 PUSH1 0x20 MUL PUSH1 0x20 ADD DUP3 ADD PUSH1 0x40 MSTORE DUP1 ISZERO PUSH2 0x107E JUMPI DUP2 PUSH1 0x20 ADD JUMPDEST PUSH1 0x60 DUP2 MSTORE PUSH1 0x20 ADD SWAP1 PUSH1 0x1 SWAP1 SUB SWAP1 DUP2 PUSH2 0x1069 JUMPI SWAP1 POP JUMPDEST POP SWAP1 POP PUSH1 0x1 JUMPDEST DUP5 DUP2 GT PUSH2 0xF91 JUMPI DUP7 PUSH1 0x1 PUSH1 0x1 PUSH1 0xA0 SHL SUB AND PUSH2 0x109E DUP3 PUSH2 0x1114 JUMP JUMPDEST PUSH1 0x1 PUSH1 0x1 PUSH1 0xA0 SHL SUB AND EQ DUP1 ISZERO PUSH2 0x10C3 JUMPI POP PUSH1 0x11 SLOAD PUSH1 0x0 DUP3 DUP2 MSTORE PUSH1 0xB PUSH1 0x20 MSTORE PUSH1 0x40 SWAP1 KECCAK256 SLOAD EQ JUMPDEST ISZERO PUSH2 0x1102 JUMPI PUSH1 0x0 PUSH2 0x10D3 DUP3 PUSH2 0x1DCE JUMP JUMPDEST SWAP1 POP DUP1 DUP4 DUP6 DUP2 MLOAD DUP2 LT PUSH2 0x10E8 JUMPI PUSH2 0x10E8 PUSH2 0x3353 JUMP JUMPDEST PUSH1 0x20 SWAP1 DUP2 MUL SWAP2 SWAP1 SWAP2 ADD ADD MSTORE PUSH2 0x10FE PUSH1 0x1 DUP6 PUSH2 0x3320 JUMP JUMPDEST SWAP4 POP POP JUMPDEST DUP1 PUSH2 0x110C DUP2 PUSH2 0x3338 JUMP JUMPDEST SWAP2 POP POP PUSH2 0x1084 JUMP JUMPDEST PUSH1 0x0 DUP2 DUP2 MSTORE PUSH1 0x2 PUSH1 0x20 MSTORE PUSH1 0x40 DUP2 KECCAK256 SLOAD PUSH1 0x1 PUSH1 0x1 PUSH1 0xA0 SHL SUB AND DUP1 PUSH2 0x7F1 JUMPI PUSH1 0x40 MLOAD PUSH3 0x461BCD PUSH1 0xE5 SHL DUP2 MSTORE PUSH1 0x20 PUSH1 0x4 DUP3 ADD MSTORE PUSH1 0x29 PUSH1 0x24 DUP3 ADD MSTORE PUSH32 0x4552433732313A206F776E657220717565727920666F72206E6F6E6578697374 PUSH1 0x44 DUP3 ADD MSTORE PUSH9 0x32B73A103A37B5B2B7 PUSH1 0xB9 SHL PUSH1 0x64 DUP3 ADD MSTORE PUSH1 0x84 ADD PUSH2 0x8F1 JUMP JUMPDEST PUSH1 0x7 SLOAD PUSH1 0x1 PUSH1 0x1 PUSH1 0xA0 SHL SUB AND CALLER EQ PUSH2 0x11B5 JUMPI PUSH1 0x40 MLOAD PUSH3 0x461BCD PUSH1 0xE5 SHL DUP2 MSTORE PUSH1 0x4 ADD PUSH2 0x8F1 SWAP1 PUSH2 0x324E JUMP JUMPDEST PUSH1 0x11 SSTORE JUMP JUMPDEST PUSH1 0x0 PUSH1 0x1 PUSH1 0x1 PUSH1 0xA0 SHL SUB DUP3 AND PUSH2 0x1225 JUMPI PUSH1 0x40 MLOAD PUSH3 0x461BCD PUSH1 0xE5 SHL DUP2 MSTORE PUSH1 0x20 PUSH1 0x4 DUP3 ADD MSTORE PUSH1 0x2A PUSH1 0x24 DUP3 ADD MSTORE PUSH32 0x4552433732313A2062616C616E636520717565727920666F7220746865207A65 PUSH1 0x44 DUP3 ADD MSTORE PUSH10 0x726F2061646472657373 PUSH1 0xB0 SHL PUSH1 0x64 DUP3 ADD MSTORE PUSH1 0x84 ADD PUSH2 0x8F1 JUMP JUMPDEST POP PUSH1 0x1 PUSH1 0x1 PUSH1 0xA0 SHL SUB AND PUSH1 0x0 SWAP1 DUP2 MSTORE PUSH1 0x3 PUSH1 0x20 MSTORE PUSH1 0x40 SWAP1 KECCAK256 SLOAD SWAP1 JUMP JUMPDEST PUSH1 0x7 SLOAD PUSH1 0x1 PUSH1 0x1 PUSH1 0xA0 SHL SUB AND CALLER EQ PUSH2 0x126B JUMPI PUSH1 0x40 MLOAD PUSH3 0x461BCD PUSH1 0xE5 SHL DUP2 MSTORE PUSH1 0x4 ADD PUSH2 0x8F1 SWAP1 PUSH2 0x324E JUMP JUMPDEST PUSH2 0x1275 PUSH1 0x0 PUSH2 0x2606 JUMP JUMPDEST JUMP JUMPDEST PUSH1 0x7 SLOAD PUSH1 0x1 PUSH1 0x1 PUSH1 0xA0 SHL SUB AND CALLER EQ PUSH2 0x12A1 JUMPI PUSH1 0x40 MLOAD PUSH3 0x461BCD PUSH1 0xE5 SHL DUP2 MSTORE PUSH1 0x4 ADD PUSH2 0x8F1 SWAP1 PUSH2 0x324E JUMP JUMPDEST PUSH1 0x0 SWAP1 DUP2 MSTORE PUSH1 0xD PUSH1 0x20 MSTORE PUSH1 0x40 SWAP1 KECCAK256 DUP1 SLOAD PUSH1 0x1 PUSH1 0x1 PUSH1 0xA0 SHL SUB NOT AND PUSH1 0x1 PUSH1 0x1 PUSH1 0xA0 SHL SUB SWAP3 SWAP1 SWAP3 AND SWAP2 SWAP1 SWAP2 OR SWAP1 SSTORE JUMP JUMPDEST PUSH1 0x17 SLOAD PUSH1 0xA SLOAD PUSH1 0x40 MLOAD PUSH4 0x70A08231 PUSH1 0xE0 SHL DUP2 MSTORE CALLER PUSH1 0x4 DUP3 ADD MSTORE PUSH1 0x0 SWAP3 SWAP2 PUSH1 0x1 PUSH1 0x1 PUSH1 0xA0 SHL SUB AND SWAP1 PUSH4 0x70A08231 SWAP1 PUSH1 0x24 ADD PUSH1 0x20 PUSH1 0x40 MLOAD DUP1 DUP4 SUB DUP2 DUP7 DUP1 EXTCODESIZE ISZERO DUP1 ISZERO PUSH2 0x1317 JUMPI PUSH1 0x0 DUP1 REVERT JUMPDEST POP GAS STATICCALL ISZERO DUP1 ISZERO PUSH2 0x132B JUMPI RETURNDATASIZE PUSH1 0x0 DUP1 RETURNDATACOPY RETURNDATASIZE PUSH1 0x0 REVERT JUMPDEST POP POP POP POP PUSH1 0x40 MLOAD RETURNDATASIZE PUSH1 0x1F NOT PUSH1 0x1F DUP3 ADD AND DUP3 ADD DUP1 PUSH1 0x40 MSTORE POP DUP2 ADD SWAP1 PUSH2 0x134F SWAP2 SWAP1 PUSH2 0x3283 JUMP JUMPDEST LT ISZERO PUSH2 0x13D1 JUMPI PUSH1 0x40 MLOAD PUSH3 0x461BCD PUSH1 0xE5 SHL DUP2 MSTORE PUSH1 0x20 PUSH1 0x4 DUP3 ADD MSTORE PUSH1 0x44 PUSH1 0x24 DUP3 ADD DUP2 SWAP1 MSTORE PUSH32 0x596F7520646F6E2774206861766520656E6F7567682043617264696E616C2054 SWAP1 DUP3 ADD MSTORE PUSH32 0x6F6B656E7320746F2070617920666F7220746865206D656D6265727368697020 PUSH1 0x64 DUP3 ADD MSTORE PUSH4 0x27232A17 PUSH1 0xE1 SHL PUSH1 0x84 DUP3 ADD MSTORE PUSH1 0xA4 ADD PUSH2 0x8F1 JUMP JUMPDEST PUSH1 0x17 SLOAD PUSH1 0xA SLOAD PUSH1 0x40 MLOAD PUSH4 0x6EB1769F PUSH1 0xE1 SHL DUP2 MSTORE CALLER PUSH1 0x4 DUP3 ADD MSTORE ADDRESS PUSH1 0x24 DUP3 ADD MSTORE PUSH1 0x1 PUSH1 0x1 PUSH1 0xA0 SHL SUB SWAP1 SWAP2 AND SWAP1 PUSH4 0xDD62ED3E SWAP1 PUSH1 0x44 ADD PUSH1 0x20 PUSH1 0x40 MLOAD DUP1 DUP4 SUB DUP2 DUP7 DUP1 EXTCODESIZE ISZERO DUP1 ISZERO PUSH2 0x141D JUMPI PUSH1 0x0 DUP1 REVERT JUMPDEST POP GAS STATICCALL ISZERO DUP1 ISZERO PUSH2 0x1431 JUMPI RETURNDATASIZE PUSH1 0x0 DUP1 RETURNDATACOPY RETURNDATASIZE PUSH1 0x0 REVERT JUMPDEST POP POP POP POP PUSH1 0x40 MLOAD RETURNDATASIZE PUSH1 0x1F NOT PUSH1 0x1F DUP3 ADD AND DUP3 ADD DUP1 PUSH1 0x40 MSTORE POP DUP2 ADD SWAP1 PUSH2 0x1455 SWAP2 SWAP1 PUSH2 0x3283 JUMP JUMPDEST LT ISZERO PUSH2 0x1501 JUMPI PUSH1 0x40 MLOAD PUSH3 0x461BCD PUSH1 0xE5 SHL DUP2 MSTORE PUSH1 0x20 PUSH1 0x4 DUP3 ADD MSTORE PUSH1 0x69 PUSH1 0x24 DUP3 ADD MSTORE PUSH32 0x596F7520686176656E277420617070726F766564207468697320636F6E747261 PUSH1 0x44 DUP3 ADD MSTORE PUSH32 0x637420746F207370656E6420656E6F756768206F6620796F7572204361726469 PUSH1 0x64 DUP3 ADD MSTORE PUSH32 0x6E616C20546F6B656E7320746F2070617920666F7220746865206D656D626572 PUSH1 0x84 DUP3 ADD MSTORE PUSH9 0x39B434B81027232A17 PUSH1 0xB9 SHL PUSH1 0xA4 DUP3 ADD MSTORE PUSH1 0xC4 ADD PUSH2 0x8F1 JUMP JUMPDEST PUSH1 0xA SLOAD PUSH1 0x17 SLOAD PUSH1 0x40 MLOAD PUSH4 0x23B872DD PUSH1 0xE0 SHL DUP2 MSTORE CALLER PUSH1 0x4 DUP3 ADD MSTORE ADDRESS PUSH1 0x24 DUP3 ADD MSTORE PUSH1 0x44 DUP2 ADD SWAP2 SWAP1 SWAP2 MSTORE PUSH1 0x1 PUSH1 0x1 PUSH1 0xA0 SHL SUB SWAP1 SWAP2 AND SWAP1 PUSH4 0x23B872DD SWAP1 PUSH1 0x64 ADD PUSH1 0x20 PUSH1 0x40 MLOAD DUP1 DUP4 SUB DUP2 PUSH1 0x0 DUP8 DUP1 EXTCODESIZE ISZERO DUP1 ISZERO PUSH2 0x1557 JUMPI PUSH1 0x0 DUP1 REVERT JUMPDEST POP GAS CALL ISZERO DUP1 ISZERO PUSH2 0x156B JUMPI RETURNDATASIZE PUSH1 0x0 DUP1 RETURNDATACOPY RETURNDATASIZE PUSH1 0x0 REVERT JUMPDEST POP POP POP POP PUSH1 0x40 MLOAD RETURNDATASIZE PUSH1 0x1F NOT PUSH1 0x1F DUP3 ADD AND DUP3 ADD DUP1 PUSH1 0x40 MSTORE POP DUP2 ADD SWAP1 PUSH2 0x158F SWAP2 SWAP1 PUSH2 0x329C JUMP JUMPDEST POP PUSH2 0x159E PUSH1 0x8 DUP1 SLOAD PUSH1 0x1 ADD SWAP1 SSTORE JUMP JUMPDEST PUSH1 0x0 PUSH2 0x15A9 PUSH1 0x8 SLOAD SWAP1 JUMP JUMPDEST PUSH1 0x12 SLOAD PUSH1 0x0 DUP3 DUP2 MSTORE PUSH1 0xB PUSH1 0x20 SWAP1 DUP2 MSTORE PUSH1 0x40 DUP1 DUP4 KECCAK256 SWAP4 SWAP1 SWAP4 SSTORE PUSH1 0xC SWAP1 MSTORE SWAP1 DUP2 KECCAK256 SSTORE SWAP1 POP PUSH2 0x15D5 CALLER DUP3 PUSH2 0x2658 JUMP JUMPDEST PUSH1 0x0 DUP2 DUP2 MSTORE PUSH1 0x10 PUSH1 0x20 MSTORE PUSH1 0x40 SWAP1 KECCAK256 TIMESTAMP SWAP1 SSTORE PUSH1 0x16 DUP1 SLOAD PUSH2 0x167C SWAP2 DUP4 SWAP2 PUSH2 0x15F9 SWAP1 PUSH2 0x3213 JUMP JUMPDEST DUP1 PUSH1 0x1F ADD PUSH1 0x20 DUP1 SWAP2 DIV MUL PUSH1 0x20 ADD PUSH1 0x40 MLOAD SWAP1 DUP2 ADD PUSH1 0x40 MSTORE DUP1 SWAP3 SWAP2 SWAP1 DUP2 DUP2 MSTORE PUSH1 0x20 ADD DUP3 DUP1 SLOAD PUSH2 0x1625 SWAP1 PUSH2 0x3213 JUMP JUMPDEST DUP1 ISZERO PUSH2 0x1672 JUMPI DUP1 PUSH1 0x1F LT PUSH2 0x1647 JUMPI PUSH2 0x100 DUP1 DUP4 SLOAD DIV MUL DUP4 MSTORE SWAP2 PUSH1 0x20 ADD SWAP2 PUSH2 0x1672 JUMP JUMPDEST DUP3 ADD SWAP2 SWAP1 PUSH1 0x0 MSTORE PUSH1 0x20 PUSH1 0x0 KECCAK256 SWAP1 JUMPDEST DUP2 SLOAD DUP2 MSTORE SWAP1 PUSH1 0x1 ADD SWAP1 PUSH1 0x20 ADD DUP1 DUP4 GT PUSH2 0x1655 JUMPI DUP3 SWAP1 SUB PUSH1 0x1F AND DUP3 ADD SWAP2 JUMPDEST POP POP POP POP POP PUSH2 0x22F3 JUMP JUMPDEST PUSH2 0x1686 ADDRESS DUP3 PUSH2 0x916 JUMP JUMPDEST PUSH1 0x9 SLOAD PUSH2 0x169D SWAP1 PUSH1 0x1 PUSH1 0x1 PUSH1 0xA0 SHL SUB AND PUSH1 0x1 PUSH2 0x1944 JUMP JUMPDEST PUSH1 0x15 DUP1 SLOAD PUSH1 0x1 DUP2 ADD DUP3 SSTORE PUSH1 0x0 SWAP2 SWAP1 SWAP2 MSTORE PUSH32 0x55F448FDEA98C4D29EB340757EF0A66CD03DBB9538908A6A81D96026B71EC475 ADD DUP2 SWAP1 SSTORE SWAP2 SWAP1 POP JUMP JUMPDEST PUSH1 0x7 SLOAD PUSH1 0x1 PUSH1 0x1 PUSH1 0xA0 SHL SUB AND CALLER EQ PUSH2 0x1701 JUMPI PUSH1 0x40 MLOAD PUSH3 0x461BCD PUSH1 0xE5 SHL DUP2 MSTORE PUSH1 0x4 ADD PUSH2 0x8F1 SWAP1 PUSH2 0x324E JUMP JUMPDEST PUSH1 0x0 SWAP2 DUP3 MSTORE PUSH1 0xC PUSH1 0x20 MSTORE PUSH1 0x40 SWAP1 SWAP2 KECCAK256 SSTORE JUMP JUMPDEST PUSH1 0x7 SLOAD PUSH1 0x1 PUSH1 0x1 PUSH1 0xA0 SHL SUB AND CALLER EQ PUSH2 0x173D JUMPI PUSH1 0x40 MLOAD PUSH3 0x461BCD PUSH1 0xE5 SHL DUP2 MSTORE PUSH1 0x4 ADD PUSH2 0x8F1 SWAP1 PUSH2 0x324E JUMP JUMPDEST PUSH1 0x13 SSTORE JUMP JUMPDEST PUSH1 0x60 PUSH1 0x0 PUSH2 0x174F PUSH1 0x8 SLOAD SWAP1 JUMP JUMPDEST SWAP1 POP PUSH1 0x0 DUP1 PUSH1 0x1 JUMPDEST DUP4 DUP2 GT PUSH2 0x17A0 JUMPI DUP6 PUSH1 0x1 PUSH1 0x1 PUSH1 0xA0 SHL SUB AND PUSH2 0x1771 DUP3 PUSH2 0x1114 JUMP JUMPDEST PUSH1 0x1 PUSH1 0x1 PUSH1 0xA0 SHL SUB AND EQ ISZERO PUSH2 0x178E JUMPI PUSH2 0x178B PUSH1 0x1 DUP5 PUSH2 0x3320 JUMP JUMPDEST SWAP3 POP JUMPDEST DUP1 PUSH2 0x1798 DUP2 PUSH2 0x3338 JUMP JUMPDEST SWAP2 POP POP PUSH2 0x1757 JUMP JUMPDEST POP PUSH1 0x0 DUP3 PUSH8 0xFFFFFFFFFFFFFFFF DUP2 GT ISZERO PUSH2 0x17BC JUMPI PUSH2 0x17BC PUSH2 0x2E82 JUMP JUMPDEST PUSH1 0x40 MLOAD SWAP1 DUP1 DUP3 MSTORE DUP1 PUSH1 0x20 MUL PUSH1 0x20 ADD DUP3 ADD PUSH1 0x40 MSTORE DUP1 ISZERO PUSH2 0x17EF JUMPI DUP2 PUSH1 0x20 ADD JUMPDEST PUSH1 0x60 DUP2 MSTORE PUSH1 0x20 ADD SWAP1 PUSH1 0x1 SWAP1 SUB SWAP1 DUP2 PUSH2 0x17DA JUMPI SWAP1 POP JUMPDEST POP SWAP1 POP PUSH1 0x1 JUMPDEST DUP5 DUP2 GT PUSH2 0xF91 JUMPI DUP7 PUSH1 0x1 PUSH1 0x1 PUSH1 0xA0 SHL SUB AND PUSH2 0x180F DUP3 PUSH2 0x1114 JUMP JUMPDEST PUSH1 0x1 PUSH1 0x1 PUSH1 0xA0 SHL SUB AND EQ ISZERO PUSH2 0x1858 JUMPI PUSH1 0x0 PUSH2 0x1829 DUP3 PUSH2 0x1DCE JUMP JUMPDEST SWAP1 POP DUP1 DUP4 DUP6 DUP2 MLOAD DUP2 LT PUSH2 0x183E JUMPI PUSH2 0x183E PUSH2 0x3353 JUMP JUMPDEST PUSH1 0x20 SWAP1 DUP2 MUL SWAP2 SWAP1 SWAP2 ADD ADD MSTORE PUSH2 0x1854 PUSH1 0x1 DUP6 PUSH2 0x3320 JUMP JUMPDEST SWAP4 POP POP JUMPDEST DUP1 PUSH2 0x1862 DUP2 PUSH2 0x3338 JUMP JUMPDEST SWAP2 POP POP PUSH2 0x17F5 JUMP JUMPDEST PUSH1 0x16 DUP1 SLOAD PUSH2 0x1877 SWAP1 PUSH2 0x3213 JUMP JUMPDEST DUP1 PUSH1 0x1F ADD PUSH1 0x20 DUP1 SWAP2 DIV MUL PUSH1 0x20 ADD PUSH1 0x40 MLOAD SWAP1 DUP2 ADD PUSH1 0x40 MSTORE DUP1 SWAP3 SWAP2 SWAP1 DUP2 DUP2 MSTORE PUSH1 0x20 ADD DUP3 DUP1 SLOAD PUSH2 0x18A3 SWAP1 PUSH2 0x3213 JUMP JUMPDEST DUP1 ISZERO PUSH2 0x18F0 JUMPI DUP1 PUSH1 0x1F LT PUSH2 0x18C5 JUMPI PUSH2 0x100 DUP1 DUP4 SLOAD DIV MUL DUP4 MSTORE SWAP2 PUSH1 0x20 ADD SWAP2 PUSH2 0x18F0 JUMP JUMPDEST DUP3 ADD SWAP2 SWAP1 PUSH1 0x0 MSTORE PUSH1 0x20 PUSH1 0x0 KECCAK256 SWAP1 JUMPDEST DUP2 SLOAD DUP2 MSTORE SWAP1 PUSH1 0x1 ADD SWAP1 PUSH1 0x20 ADD DUP1 DUP4 GT PUSH2 0x18D3 JUMPI DUP3 SWAP1 SUB PUSH1 0x1F AND DUP3 ADD SWAP2 JUMPDEST POP POP POP POP POP DUP2 JUMP JUMPDEST PUSH1 0x60 PUSH1 0x1 DUP1 SLOAD PUSH2 0x806 SWAP1 PUSH2 0x3213 JUMP JUMPDEST PUSH1 0x7 SLOAD PUSH1 0x1 PUSH1 0x1 PUSH1 0xA0 SHL SUB AND CALLER EQ PUSH2 0x1931 JUMPI PUSH1 0x40 MLOAD PUSH3 0x461BCD PUSH1 0xE5 SHL DUP2 MSTORE PUSH1 0x4 ADD PUSH2 0x8F1 SWAP1 PUSH2 0x324E JUMP JUMPDEST DUP1 MLOAD PUSH2 0xD90 SWAP1 PUSH1 0x16 SWAP1 PUSH1 0x20 DUP5 ADD SWAP1 PUSH2 0x2CF1 JUMP JUMPDEST PUSH2 0xD90 CALLER DUP4 DUP4 PUSH2 0x2793 JUMP JUMPDEST PUSH1 0x15 DUP2 DUP2 SLOAD DUP2 LT PUSH2 0x195F JUMPI PUSH1 0x0 DUP1 REVERT JUMPDEST PUSH1 0x0 SWAP2 DUP3 MSTORE PUSH1 0x20 SWAP1 SWAP2 KECCAK256 ADD SLOAD SWAP1 POP DUP2 JUMP JUMPDEST PUSH1 0x14 DUP2 DUP2 SLOAD DUP2 LT PUSH2 0x195F JUMPI PUSH1 0x0 DUP1 REVERT JUMPDEST PUSH2 0x198A CALLER DUP4 PUSH2 0x237E JUMP JUMPDEST PUSH2 0x19A6 JUMPI PUSH1 0x40 MLOAD PUSH3 0x461BCD PUSH1 0xE5 SHL DUP2 MSTORE PUSH1 0x4 ADD PUSH2 0x8F1 SWAP1 PUSH2 0x32B9 JUMP JUMPDEST PUSH2 0x19B2 DUP5 DUP5 DUP5 DUP5 PUSH2 0x2862 JUMP JUMPDEST POP POP POP POP JUMP JUMPDEST PUSH1 0x7 SLOAD PUSH1 0x1 PUSH1 0x1 PUSH1 0xA0 SHL SUB AND CALLER EQ PUSH2 0x19E2 JUMPI PUSH1 0x40 MLOAD PUSH3 0x461BCD PUSH1 0xE5 SHL DUP2 MSTORE PUSH1 0x4 ADD PUSH2 0x8F1 SWAP1 PUSH2 0x324E JUMP JUMPDEST PUSH1 0xA SLOAD PUSH1 0x1 PUSH1 0x1 PUSH1 0xA0 SHL SUB AND PUSH4 0xA9059CBB PUSH2 0x1A05 PUSH1 0x7 SLOAD PUSH1 0x1 PUSH1 0x1 PUSH1 0xA0 SHL SUB AND SWAP1 JUMP JUMPDEST PUSH1 0xA SLOAD PUSH1 0x40 MLOAD PUSH4 0x70A08231 PUSH1 0xE0 SHL DUP2 MSTORE ADDRESS PUSH1 0x4 DUP3 ADD MSTORE PUSH1 0x1 PUSH1 0x1 PUSH1 0xA0 SHL SUB SWAP1 SWAP2 AND SWAP1 PUSH4 0x70A08231 SWAP1 PUSH1 0x24 ADD PUSH1 0x20 PUSH1 0x40 MLOAD DUP1 DUP4 SUB DUP2 DUP7 DUP1 EXTCODESIZE ISZERO DUP1 ISZERO PUSH2 0x1A48 JUMPI PUSH1 0x0 DUP1 REVERT JUMPDEST POP GAS STATICCALL ISZERO DUP1 ISZERO PUSH2 0x1A5C JUMPI RETURNDATASIZE PUSH1 0x0 DUP1 RETURNDATACOPY RETURNDATASIZE PUSH1 0x0 REVERT JUMPDEST POP POP POP POP PUSH1 0x40 MLOAD RETURNDATASIZE PUSH1 0x1F NOT PUSH1 0x1F DUP3 ADD AND DUP3 ADD DUP1 PUSH1 0x40 MSTORE POP DUP2 ADD SWAP1 PUSH2 0x1A80 SWAP2 SWAP1 PUSH2 0x3283 JUMP JUMPDEST PUSH1 0x40 MLOAD PUSH1 0x1 PUSH1 0x1 PUSH1 0xE0 SHL SUB NOT PUSH1 0xE0 DUP6 SWAP1 SHL AND DUP2 MSTORE PUSH1 0x1 PUSH1 0x1 PUSH1 0xA0 SHL SUB SWAP1 SWAP3 AND PUSH1 0x4 DUP4 ADD MSTORE PUSH1 0x24 DUP3 ADD MSTORE PUSH1 0x44 ADD PUSH1 0x20 PUSH1 0x40 MLOAD DUP1 DUP4 SUB DUP2 PUSH1 0x0 DUP8 DUP1 EXTCODESIZE ISZERO DUP1 ISZERO PUSH2 0x1AC6 JUMPI PUSH1 0x0 DUP1 REVERT JUMPDEST POP GAS CALL ISZERO DUP1 ISZERO PUSH2 0x1ADA JUMPI RETURNDATASIZE PUSH1 0x0 DUP1 RETURNDATACOPY RETURNDATASIZE PUSH1 0x0 REVERT JUMPDEST POP POP POP POP PUSH1 0x40 MLOAD RETURNDATASIZE PUSH1 0x1F NOT PUSH1 0x1F DUP3 ADD AND DUP3 ADD DUP1 PUSH1 0x40 MSTORE POP DUP2 ADD SWAP1 PUSH2 0x1AFE SWAP2 SWAP1 PUSH2 0x329C JUMP JUMPDEST POP JUMP JUMPDEST PUSH1 0x7 SLOAD PUSH1 0x0 SWAP1 PUSH1 0x1 PUSH1 0x1 PUSH1 0xA0 SHL SUB AND CALLER EQ PUSH2 0x1B2E JUMPI PUSH1 0x40 MLOAD PUSH3 0x461BCD PUSH1 0xE5 SHL DUP2 MSTORE PUSH1 0x4 ADD PUSH2 0x8F1 SWAP1 PUSH2 0x324E JUMP JUMPDEST PUSH2 0x1B3C PUSH1 0x8 DUP1 SLOAD PUSH1 0x1 ADD SWAP1 SSTORE JUMP JUMPDEST PUSH1 0x0 PUSH2 0x1B47 PUSH1 0x8 SLOAD SWAP1 JUMP JUMPDEST SWAP1 POP PUSH2 0x1B53 CALLER DUP3 PUSH2 0x2658 JUMP JUMPDEST PUSH1 0x0 DUP2 DUP2 MSTORE PUSH1 0xB PUSH1 0x20 SWAP1 DUP2 MSTORE PUSH1 0x40 DUP1 DUP4 KECCAK256 DUP8 SWAP1 SSTORE PUSH1 0xC SWAP1 SWAP2 MSTORE SWAP1 KECCAK256 DUP4 SWAP1 SSTORE PUSH2 0x1B7B DUP2 DUP7 PUSH2 0x22F3 JUMP JUMPDEST PUSH2 0x1B85 ADDRESS DUP3 PUSH2 0x916 JUMP JUMPDEST PUSH1 0x9 SLOAD PUSH2 0x1B9C SWAP1 PUSH1 0x1 PUSH1 0x1 PUSH1 0xA0 SHL SUB AND PUSH1 0x1 PUSH2 0x1944 JUMP JUMPDEST PUSH1 0x11 SLOAD DUP5 EQ ISZERO PUSH2 0x1BE0 JUMPI PUSH1 0x14 DUP1 SLOAD PUSH1 0x1 DUP2 ADD DUP3 SSTORE PUSH1 0x0 SWAP2 SWAP1 SWAP2 MSTORE PUSH32 0xCE6D7B5282BD9A3661AE061FEED1DBDA4E52AB073B1F9285BE6E155D9C38D4EC ADD DUP2 SWAP1 SSTORE PUSH2 0x1C2C JUMP JUMPDEST PUSH1 0x12 SLOAD DUP5 EQ ISZERO PUSH2 0x1C2C JUMPI PUSH1 0x15 DUP1 SLOAD PUSH1 0x1 DUP2 ADD SWAP1 SWAP2 SSTORE PUSH32 0x55F448FDEA98C4D29EB340757EF0A66CD03DBB9538908A6A81D96026B71EC475 ADD DUP2 SWAP1 SSTORE PUSH1 0x0 DUP2 DUP2 MSTORE PUSH1 0x10 PUSH1 0x20 MSTORE PUSH1 0x40 SWAP1 KECCAK256 TIMESTAMP SWAP1 SSTORE JUMPDEST SWAP5 SWAP4 POP POP POP POP JUMP JUMPDEST PUSH1 0x60 PUSH1 0x0 PUSH2 0x1C41 PUSH1 0x8 SLOAD SWAP1 JUMP JUMPDEST SWAP1 POP PUSH1 0x0 DUP1 PUSH1 0x1 JUMPDEST DUP4 DUP2 GT PUSH2 0x1CAD JUMPI DUP6 PUSH1 0x1 PUSH1 0x1 PUSH1 0xA0 SHL SUB AND PUSH2 0x1C63 DUP3 PUSH2 0x1114 JUMP JUMPDEST PUSH1 0x1 PUSH1 0x1 PUSH1 0xA0 SHL SUB AND EQ DUP1 ISZERO PUSH2 0x1C88 JUMPI POP PUSH1 0x13 SLOAD PUSH1 0x0 DUP3 DUP2 MSTORE PUSH1 0xB PUSH1 0x20 MSTORE PUSH1 0x40 SWAP1 KECCAK256 SLOAD EQ JUMPDEST ISZERO PUSH2 0x1C9B JUMPI PUSH2 0x1C98 PUSH1 0x1 DUP5 PUSH2 0x3320 JUMP JUMPDEST SWAP3 POP JUMPDEST DUP1 PUSH2 0x1CA5 DUP2 PUSH2 0x3338 JUMP JUMPDEST SWAP2 POP POP PUSH2 0x1C49 JUMP JUMPDEST POP PUSH1 0x0 DUP3 PUSH8 0xFFFFFFFFFFFFFFFF DUP2 GT ISZERO PUSH2 0x1CC9 JUMPI PUSH2 0x1CC9 PUSH2 0x2E82 JUMP JUMPDEST PUSH1 0x40 MLOAD SWAP1 DUP1 DUP3 MSTORE DUP1 PUSH1 0x20 MUL PUSH1 0x20 ADD DUP3 ADD PUSH1 0x40 MSTORE DUP1 ISZERO PUSH2 0x1CFC JUMPI DUP2 PUSH1 0x20 ADD JUMPDEST PUSH1 0x60 DUP2 MSTORE PUSH1 0x20 ADD SWAP1 PUSH1 0x1 SWAP1 SUB SWAP1 DUP2 PUSH2 0x1CE7 JUMPI SWAP1 POP JUMPDEST POP SWAP1 POP PUSH1 0x1 JUMPDEST DUP5 DUP2 GT PUSH2 0xF91 JUMPI DUP7 PUSH1 0x1 PUSH1 0x1 PUSH1 0xA0 SHL SUB AND PUSH2 0x1D1C DUP3 PUSH2 0x1114 JUMP JUMPDEST PUSH1 0x1 PUSH1 0x1 PUSH1 0xA0 SHL SUB AND EQ DUP1 ISZERO PUSH2 0x1D41 JUMPI POP PUSH1 0x13 SLOAD PUSH1 0x0 DUP3 DUP2 MSTORE PUSH1 0xB PUSH1 0x20 MSTORE PUSH1 0x40 SWAP1 KECCAK256 SLOAD EQ JUMPDEST ISZERO PUSH2 0x1D80 JUMPI PUSH1 0x0 PUSH2 0x1D51 DUP3 PUSH2 0x1DCE JUMP JUMPDEST SWAP1 POP DUP1 DUP4 DUP6 DUP2 MLOAD DUP2 LT PUSH2 0x1D66 JUMPI PUSH2 0x1D66 PUSH2 0x3353 JUMP JUMPDEST PUSH1 0x20 SWAP1 DUP2 MUL SWAP2 SWAP1 SWAP2 ADD ADD MSTORE PUSH2 0x1D7C PUSH1 0x1 DUP6 PUSH2 0x3320 JUMP JUMPDEST SWAP4 POP POP JUMPDEST DUP1 PUSH2 0x1D8A DUP2 PUSH2 0x3338 JUMP JUMPDEST SWAP2 POP POP PUSH2 0x1D02 JUMP JUMPDEST PUSH1 0x7 SLOAD PUSH1 0x1 PUSH1 0x1 PUSH1 0xA0 SHL SUB AND CALLER EQ PUSH2 0x1DBC JUMPI PUSH1 0x40 MLOAD PUSH3 0x461BCD PUSH1 0xE5 SHL DUP2 MSTORE PUSH1 0x4 ADD PUSH2 0x8F1 SWAP1 PUSH2 0x324E JUMP JUMPDEST PUSH1 0x0 SWAP2 DUP3 MSTORE PUSH1 0xB PUSH1 0x20 MSTORE PUSH1 0x40 SWAP1 SWAP2 KECCAK256 SSTORE JUMP JUMPDEST PUSH1 0x60 PUSH2 0x1DD9 DUP3 PUSH2 0x215F JUMP JUMPDEST PUSH2 0x1E3F JUMPI PUSH1 0x40 MLOAD PUSH3 0x461BCD PUSH1 0xE5 SHL DUP2 MSTORE PUSH1 0x20 PUSH1 0x4 DUP3 ADD MSTORE PUSH1 0x31 PUSH1 0x24 DUP3 ADD MSTORE PUSH32 0x45524337323155524953746F726167653A2055524920717565727920666F7220 PUSH1 0x44 DUP3 ADD MSTORE PUSH17 0x3737B732BC34B9BA32B73A103A37B5B2B7 PUSH1 0x79 SHL PUSH1 0x64 DUP3 ADD MSTORE PUSH1 0x84 ADD PUSH2 0x8F1 JUMP JUMPDEST PUSH1 0x0 DUP3 DUP2 MSTORE PUSH1 0x6 PUSH1 0x20 MSTORE PUSH1 0x40 DUP2 KECCAK256 DUP1 SLOAD PUSH2 0x1E58 SWAP1 PUSH2 0x3213 JUMP JUMPDEST DUP1 PUSH1 0x1F ADD PUSH1 0x20 DUP1 SWAP2 DIV MUL PUSH1 0x20 ADD PUSH1 0x40 MLOAD SWAP1 DUP2 ADD PUSH1 0x40 MSTORE DUP1 SWAP3 SWAP2 SWAP1 DUP2 DUP2 MSTORE PUSH1 0x20 ADD DUP3 DUP1 SLOAD PUSH2 0x1E84 SWAP1 PUSH2 0x3213 JUMP JUMPDEST DUP1 ISZERO PUSH2 0x1ED1 JUMPI DUP1 PUSH1 0x1F LT PUSH2 0x1EA6 JUMPI PUSH2 0x100 DUP1 DUP4 SLOAD DIV MUL DUP4 MSTORE SWAP2 PUSH1 0x20 ADD SWAP2 PUSH2 0x1ED1 JUMP JUMPDEST DUP3 ADD SWAP2 SWAP1 PUSH1 0x0 MSTORE PUSH1 0x20 PUSH1 0x0 KECCAK256 SWAP1 JUMPDEST DUP2 SLOAD DUP2 MSTORE SWAP1 PUSH1 0x1 ADD SWAP1 PUSH1 0x20 ADD DUP1 DUP4 GT PUSH2 0x1EB4 JUMPI DUP3 SWAP1 SUB PUSH1 0x1F AND DUP3 ADD SWAP2 JUMPDEST POP POP POP POP POP SWAP1 POP PUSH1 0x0 PUSH2 0x1EEF PUSH1 0x40 DUP1 MLOAD PUSH1 0x20 DUP2 ADD SWAP1 SWAP2 MSTORE PUSH1 0x0 DUP2 MSTORE SWAP1 JUMP JUMPDEST SWAP1 POP DUP1 MLOAD PUSH1 0x0 EQ ISZERO PUSH2 0x1F02 JUMPI POP SWAP3 SWAP2 POP POP JUMP JUMPDEST DUP2 MLOAD ISZERO PUSH2 0x1F34 JUMPI DUP1 DUP3 PUSH1 0x40 MLOAD PUSH1 0x20 ADD PUSH2 0x1F1C SWAP3 SWAP2 SWAP1 PUSH2 0x3369 JUMP JUMPDEST PUSH1 0x40 MLOAD PUSH1 0x20 DUP2 DUP4 SUB SUB DUP2 MSTORE SWAP1 PUSH1 0x40 MSTORE SWAP3 POP POP POP SWAP2 SWAP1 POP JUMP JUMPDEST PUSH2 0x1C2C DUP5 PUSH2 0x2895 JUMP JUMPDEST PUSH1 0x7 SLOAD PUSH1 0x1 PUSH1 0x1 PUSH1 0xA0 SHL SUB AND CALLER EQ PUSH2 0x1F67 JUMPI PUSH1 0x40 MLOAD PUSH3 0x461BCD PUSH1 0xE5 SHL DUP2 MSTORE PUSH1 0x4 ADD PUSH2 0x8F1 SWAP1 PUSH2 0x324E JUMP JUMPDEST PUSH1 0xA DUP1 SLOAD PUSH1 0x1 PUSH1 0x1 PUSH1 0xA0 SHL SUB NOT AND PUSH1 0x1 PUSH1 0x1 PUSH1 0xA0 SHL SUB SWAP3 SWAP1 SWAP3 AND SWAP2 SWAP1 SWAP2 OR SWAP1 SSTORE JUMP JUMPDEST PUSH1 0x60 PUSH1 0x15 DUP1 SLOAD DUP1 PUSH1 0x20 MUL PUSH1 0x20 ADD PUSH1 0x40 MLOAD SWAP1 DUP2 ADD PUSH1 0x40 MSTORE DUP1 SWAP3 SWAP2 SWAP1 DUP2 DUP2 MSTORE PUSH1 0x20 ADD DUP3 DUP1 SLOAD DUP1 ISZERO PUSH2 0x87F JUMPI PUSH1 0x20 MUL DUP3 ADD SWAP2 SWAP1 PUSH1 0x0 MSTORE PUSH1 0x20 PUSH1 0x0 KECCAK256 SWAP1 JUMPDEST DUP2 SLOAD DUP2 MSTORE PUSH1 0x20 ADD SWAP1 PUSH1 0x1 ADD SWAP1 DUP1 DUP4 GT PUSH2 0x1FC3 JUMPI POP POP POP POP POP SWAP1 POP SWAP1 JUMP JUMPDEST PUSH1 0x60 PUSH1 0x14 DUP1 SLOAD DUP1 PUSH1 0x20 MUL PUSH1 0x20 ADD PUSH1 0x40 MLOAD SWAP1 DUP2 ADD PUSH1 0x40 MSTORE DUP1 SWAP3 SWAP2 SWAP1 DUP2 DUP2 MSTORE PUSH1 0x20 ADD DUP3 DUP1 SLOAD DUP1 ISZERO PUSH2 0x87F JUMPI PUSH1 0x20 MUL DUP3 ADD SWAP2 SWAP1 PUSH1 0x0 MSTORE PUSH1 0x20 PUSH1 0x0 KECCAK256 SWAP1 DUP2 SLOAD DUP2 MSTORE PUSH1 0x20 ADD SWAP1 PUSH1 0x1 ADD SWAP1 DUP1 DUP4 GT PUSH2 0x1FC3 JUMPI POP POP POP POP POP SWAP1 POP SWAP1 JUMP JUMPDEST PUSH1 0x7 SLOAD PUSH1 0x1 PUSH1 0x1 PUSH1 0xA0 SHL SUB AND CALLER EQ PUSH2 0x2060 JUMPI PUSH1 0x40 MLOAD PUSH3 0x461BCD PUSH1 0xE5 SHL DUP2 MSTORE PUSH1 0x4 ADD PUSH2 0x8F1 SWAP1 PUSH2 0x324E JUMP JUMPDEST PUSH1 0x17 SSTORE JUMP JUMPDEST PUSH1 0x7 SLOAD PUSH1 0x1 PUSH1 0x1 PUSH1 0xA0 SHL SUB AND CALLER EQ PUSH2 0x208F JUMPI PUSH1 0x40 MLOAD PUSH3 0x461BCD PUSH1 0xE5 SHL DUP2 MSTORE PUSH1 0x4 ADD PUSH2 0x8F1 SWAP1 PUSH2 0x324E JUMP JUMPDEST PUSH2 0x1AFE DUP2 PUSH2 0x21EA JUMP JUMPDEST PUSH1 0x7 SLOAD PUSH1 0x1 PUSH1 0x1 PUSH1 0xA0 SHL SUB AND CALLER EQ PUSH2 0x20C2 JUMPI PUSH1 0x40 MLOAD PUSH3 0x461BCD PUSH1 0xE5 SHL DUP2 MSTORE PUSH1 0x4 ADD PUSH2 0x8F1 SWAP1 PUSH2 0x324E JUMP JUMPDEST PUSH1 0x1 PUSH1 0x1 PUSH1 0xA0 SHL SUB DUP2 AND PUSH2 0x2127 JUMPI PUSH1 0x40 MLOAD PUSH3 0x461BCD PUSH1 0xE5 SHL DUP2 MSTORE PUSH1 0x20 PUSH1 0x4 DUP3 ADD MSTORE PUSH1 0x26 PUSH1 0x24 DUP3 ADD MSTORE PUSH32 0x4F776E61626C653A206E6577206F776E657220697320746865207A65726F2061 PUSH1 0x44 DUP3 ADD MSTORE PUSH6 0x646472657373 PUSH1 0xD0 SHL PUSH1 0x64 DUP3 ADD MSTORE PUSH1 0x84 ADD PUSH2 0x8F1 JUMP JUMPDEST PUSH2 0x1AFE DUP2 PUSH2 0x2606 JUMP JUMPDEST PUSH1 0x7 SLOAD PUSH1 0x1 PUSH1 0x1 PUSH1 0xA0 SHL SUB AND CALLER EQ PUSH2 0x215A JUMPI PUSH1 0x40 MLOAD PUSH3 0x461BCD PUSH1 0xE5 SHL DUP2 MSTORE PUSH1 0x4 ADD PUSH2 0x8F1 SWAP1 PUSH2 0x324E JUMP JUMPDEST PUSH1 0x12 SSTORE JUMP JUMPDEST PUSH1 0x0 SWAP1 DUP2 MSTORE PUSH1 0x2 PUSH1 0x20 MSTORE PUSH1 0x40 SWAP1 KECCAK256 SLOAD PUSH1 0x1 PUSH1 0x1 PUSH1 0xA0 SHL SUB AND ISZERO ISZERO SWAP1 JUMP JUMPDEST PUSH1 0x0 DUP2 DUP2 MSTORE PUSH1 0x4 PUSH1 0x20 MSTORE PUSH1 0x40 SWAP1 KECCAK256 DUP1 SLOAD PUSH1 0x1 PUSH1 0x1 PUSH1 0xA0 SHL SUB NOT AND PUSH1 0x1 PUSH1 0x1 PUSH1 0xA0 SHL SUB DUP5 AND SWAP1 DUP2 OR SWAP1 SWAP2 SSTORE DUP2 SWAP1 PUSH2 0x21B1 DUP3 PUSH2 0x1114 JUMP JUMPDEST PUSH1 0x1 PUSH1 0x1 PUSH1 0xA0 SHL SUB AND PUSH32 0x8C5BE1E5EBEC7D5BD14F71427D1E84F3DD0314C0F7B2291E5B200AC8C7C3B925 PUSH1 0x40 MLOAD PUSH1 0x40 MLOAD DUP1 SWAP2 SUB SWAP1 LOG4 POP POP JUMP JUMPDEST PUSH1 0x0 JUMPDEST PUSH1 0x15 SLOAD DUP2 LT ISZERO PUSH2 0xD90 JUMPI DUP2 PUSH1 0x15 DUP3 DUP2 SLOAD DUP2 LT PUSH2 0x220B JUMPI PUSH2 0x220B PUSH2 0x3353 JUMP JUMPDEST SWAP1 PUSH1 0x0 MSTORE PUSH1 0x20 PUSH1 0x0 KECCAK256 ADD SLOAD EQ ISZERO PUSH2 0x22E1 JUMPI PUSH1 0x0 PUSH2 0x2244 PUSH1 0x15 DUP4 DUP2 SLOAD DUP2 LT PUSH2 0x2234 JUMPI PUSH2 0x2234 PUSH2 0x3353 JUMP JUMPDEST SWAP1 PUSH1 0x0 MSTORE PUSH1 0x20 PUSH1 0x0 KECCAK256 ADD SLOAD PUSH2 0x1114 JUMP JUMPDEST SWAP1 POP PUSH2 0x226E DUP2 ADDRESS PUSH1 0x15 DUP6 DUP2 SLOAD DUP2 LT PUSH2 0x225E JUMPI PUSH2 0x225E PUSH2 0x3353 JUMP JUMPDEST SWAP1 PUSH1 0x0 MSTORE PUSH1 0x20 PUSH1 0x0 KECCAK256 ADD SLOAD PUSH2 0x2464 JUMP JUMPDEST PUSH1 0x15 DUP1 SLOAD PUSH2 0x227E SWAP1 PUSH1 0x1 SWAP1 PUSH2 0x3398 JUMP JUMPDEST DUP2 SLOAD DUP2 LT PUSH2 0x228E JUMPI PUSH2 0x228E PUSH2 0x3353 JUMP JUMPDEST SWAP1 PUSH1 0x0 MSTORE PUSH1 0x20 PUSH1 0x0 KECCAK256 ADD SLOAD PUSH1 0x15 DUP4 DUP2 SLOAD DUP2 LT PUSH2 0x22AC JUMPI PUSH2 0x22AC PUSH2 0x3353 JUMP JUMPDEST PUSH1 0x0 SWAP2 DUP3 MSTORE PUSH1 0x20 SWAP1 SWAP2 KECCAK256 ADD SSTORE PUSH1 0x15 DUP1 SLOAD DUP1 PUSH2 0x22C9 JUMPI PUSH2 0x22C9 PUSH2 0x33AF JUMP JUMPDEST PUSH1 0x1 SWAP1 SUB DUP2 DUP2 SWAP1 PUSH1 0x0 MSTORE PUSH1 0x20 PUSH1 0x0 KECCAK256 ADD PUSH1 0x0 SWAP1 SSTORE SWAP1 SSTORE POP JUMPDEST DUP1 PUSH2 0x22EB DUP2 PUSH2 0x3338 JUMP JUMPDEST SWAP2 POP POP PUSH2 0x21ED JUMP JUMPDEST PUSH2 0x22FC DUP3 PUSH2 0x215F JUMP JUMPDEST PUSH2 0x235F JUMPI PUSH1 0x40 MLOAD PUSH3 0x461BCD PUSH1 0xE5 SHL DUP2 MSTORE PUSH1 0x20 PUSH1 0x4 DUP3 ADD MSTORE PUSH1 0x2E PUSH1 0x24 DUP3 ADD MSTORE PUSH32 0x45524337323155524953746F726167653A2055524920736574206F66206E6F6E PUSH1 0x44 DUP3 ADD MSTORE PUSH14 0x32BC34B9BA32B73A103A37B5B2B7 PUSH1 0x91 SHL PUSH1 0x64 DUP3 ADD MSTORE PUSH1 0x84 ADD PUSH2 0x8F1 JUMP JUMPDEST PUSH1 0x0 DUP3 DUP2 MSTORE PUSH1 0x6 PUSH1 0x20 SWAP1 DUP2 MSTORE PUSH1 0x40 SWAP1 SWAP2 KECCAK256 DUP3 MLOAD PUSH2 0xA27 SWAP3 DUP5 ADD SWAP1 PUSH2 0x2CF1 JUMP JUMPDEST PUSH1 0x0 PUSH2 0x2389 DUP3 PUSH2 0x215F JUMP JUMPDEST PUSH2 0x23EA JUMPI PUSH1 0x40 MLOAD PUSH3 0x461BCD PUSH1 0xE5 SHL DUP2 MSTORE PUSH1 0x20 PUSH1 0x4 DUP3 ADD MSTORE PUSH1 0x2C PUSH1 0x24 DUP3 ADD MSTORE PUSH32 0x4552433732313A206F70657261746F7220717565727920666F72206E6F6E6578 PUSH1 0x44 DUP3 ADD MSTORE PUSH12 0x34B9BA32B73A103A37B5B2B7 PUSH1 0xA1 SHL PUSH1 0x64 DUP3 ADD MSTORE PUSH1 0x84 ADD PUSH2 0x8F1 JUMP JUMPDEST PUSH1 0x0 PUSH2 0x23F5 DUP4 PUSH2 0x1114 JUMP JUMPDEST SWAP1 POP DUP1 PUSH1 0x1 PUSH1 0x1 PUSH1 0xA0 SHL SUB AND DUP5 PUSH1 0x1 PUSH1 0x1 PUSH1 0xA0 SHL SUB AND EQ DUP1 PUSH2 0x2430 JUMPI POP DUP4 PUSH1 0x1 PUSH1 0x1 PUSH1 0xA0 SHL SUB AND PUSH2 0x2425 DUP5 PUSH2 0x889 JUMP JUMPDEST PUSH1 0x1 PUSH1 0x1 PUSH1 0xA0 SHL SUB AND EQ JUMPDEST DUP1 PUSH2 0x1C2C JUMPI POP PUSH1 0x1 PUSH1 0x1 PUSH1 0xA0 SHL SUB DUP1 DUP3 AND PUSH1 0x0 SWAP1 DUP2 MSTORE PUSH1 0x5 PUSH1 0x20 SWAP1 DUP2 MSTORE PUSH1 0x40 DUP1 DUP4 KECCAK256 SWAP4 DUP9 AND DUP4 MSTORE SWAP3 SWAP1 MSTORE KECCAK256 SLOAD PUSH1 0xFF AND PUSH2 0x1C2C JUMP JUMPDEST DUP3 PUSH1 0x1 PUSH1 0x1 PUSH1 0xA0 SHL SUB AND PUSH2 0x2477 DUP3 PUSH2 0x1114 JUMP JUMPDEST PUSH1 0x1 PUSH1 0x1 PUSH1 0xA0 SHL SUB AND EQ PUSH2 0x24DB JUMPI PUSH1 0x40 MLOAD PUSH3 0x461BCD PUSH1 0xE5 SHL DUP2 MSTORE PUSH1 0x20 PUSH1 0x4 DUP3 ADD MSTORE PUSH1 0x25 PUSH1 0x24 DUP3 ADD MSTORE PUSH32 0x4552433732313A207472616E736665722066726F6D20696E636F727265637420 PUSH1 0x44 DUP3 ADD MSTORE PUSH5 0x37BBB732B9 PUSH1 0xD9 SHL PUSH1 0x64 DUP3 ADD MSTORE PUSH1 0x84 ADD PUSH2 0x8F1 JUMP JUMPDEST PUSH1 0x1 PUSH1 0x1 PUSH1 0xA0 SHL SUB DUP3 AND PUSH2 0x253D JUMPI PUSH1 0x40 MLOAD PUSH3 0x461BCD PUSH1 0xE5 SHL DUP2 MSTORE PUSH1 0x20 PUSH1 0x4 DUP3 ADD MSTORE PUSH1 0x24 DUP1 DUP3 ADD MSTORE PUSH32 0x4552433732313A207472616E7366657220746F20746865207A65726F20616464 PUSH1 0x44 DUP3 ADD MSTORE PUSH4 0x72657373 PUSH1 0xE0 SHL PUSH1 0x64 DUP3 ADD MSTORE PUSH1 0x84 ADD PUSH2 0x8F1 JUMP JUMPDEST PUSH2 0x2548 PUSH1 0x0 DUP3 PUSH2 0x217C JUMP JUMPDEST PUSH1 0x1 PUSH1 0x1 PUSH1 0xA0 SHL SUB DUP4 AND PUSH1 0x0 SWAP1 DUP2 MSTORE PUSH1 0x3 PUSH1 0x20 MSTORE PUSH1 0x40 DUP2 KECCAK256 DUP1 SLOAD PUSH1 0x1 SWAP3 SWAP1 PUSH2 0x2571 SWAP1 DUP5 SWAP1 PUSH2 0x3398 JUMP JUMPDEST SWAP1 SWAP2 SSTORE POP POP PUSH1 0x1 PUSH1 0x1 PUSH1 0xA0 SHL SUB DUP3 AND PUSH1 0x0 SWAP1 DUP2 MSTORE PUSH1 0x3 PUSH1 0x20 MSTORE PUSH1 0x40 DUP2 KECCAK256 DUP1 SLOAD PUSH1 0x1 SWAP3 SWAP1 PUSH2 0x259F SWAP1 DUP5 SWAP1 PUSH2 0x3320 JUMP JUMPDEST SWAP1 SWAP2 SSTORE POP POP PUSH1 0x0 DUP2 DUP2 MSTORE PUSH1 0x2 PUSH1 0x20 MSTORE PUSH1 0x40 DUP1 DUP3 KECCAK256 DUP1 SLOAD PUSH1 0x1 PUSH1 0x1 PUSH1 0xA0 SHL SUB NOT AND PUSH1 0x1 PUSH1 0x1 PUSH1 0xA0 SHL SUB DUP7 DUP2 AND SWAP2 DUP3 OR SWAP1 SWAP3 SSTORE SWAP2 MLOAD DUP5 SWAP4 SWAP2 DUP8 AND SWAP2 PUSH32 0xDDF252AD1BE2C89B69C2B068FC378DAA952BA7F163C4A11628F55A4DF523B3EF SWAP2 LOG4 PUSH2 0xA27 DUP4 DUP4 DUP4 PUSH2 0x296D JUMP JUMPDEST PUSH1 0x7 DUP1 SLOAD PUSH1 0x1 PUSH1 0x1 PUSH1 0xA0 SHL SUB DUP4 DUP2 AND PUSH1 0x1 PUSH1 0x1 PUSH1 0xA0 SHL SUB NOT DUP4 AND DUP2 OR SWAP1 SWAP4 SSTORE PUSH1 0x40 MLOAD SWAP2 AND SWAP2 SWAP1 DUP3 SWAP1 PUSH32 0x8BE0079C531659141344CD1FD0A4F28419497F9722A3DAAFE3B4186F6B6457E0 SWAP1 PUSH1 0x0 SWAP1 LOG3 POP POP JUMP JUMPDEST PUSH1 0x1 PUSH1 0x1 PUSH1 0xA0 SHL SUB DUP3 AND PUSH2 0x26AE JUMPI PUSH1 0x40 MLOAD PUSH3 0x461BCD PUSH1 0xE5 SHL DUP2 MSTORE PUSH1 0x20 PUSH1 0x4 DUP3 ADD DUP2 SWAP1 MSTORE PUSH1 0x24 DUP3 ADD MSTORE PUSH32 0x4552433732313A206D696E7420746F20746865207A65726F2061646472657373 PUSH1 0x44 DUP3 ADD MSTORE PUSH1 0x64 ADD PUSH2 0x8F1 JUMP JUMPDEST PUSH2 0x26B7 DUP2 PUSH2 0x215F JUMP JUMPDEST ISZERO PUSH2 0x2704 JUMPI PUSH1 0x40 MLOAD PUSH3 0x461BCD PUSH1 0xE5 SHL DUP2 MSTORE PUSH1 0x20 PUSH1 0x4 DUP3 ADD MSTORE PUSH1 0x1C PUSH1 0x24 DUP3 ADD MSTORE PUSH32 0x4552433732313A20746F6B656E20616C7265616479206D696E74656400000000 PUSH1 0x44 DUP3 ADD MSTORE PUSH1 0x64 ADD PUSH2 0x8F1 JUMP JUMPDEST PUSH1 0x1 PUSH1 0x1 PUSH1 0xA0 SHL SUB DUP3 AND PUSH1 0x0 SWAP1 DUP2 MSTORE PUSH1 0x3 PUSH1 0x20 MSTORE PUSH1 0x40 DUP2 KECCAK256 DUP1 SLOAD PUSH1 0x1 SWAP3 SWAP1 PUSH2 0x272D SWAP1 DUP5 SWAP1 PUSH2 0x3320 JUMP JUMPDEST SWAP1 SWAP2 SSTORE POP POP PUSH1 0x0 DUP2 DUP2 MSTORE PUSH1 0x2 PUSH1 0x20 MSTORE PUSH1 0x40 DUP1 DUP3 KECCAK256 DUP1 SLOAD PUSH1 0x1 PUSH1 0x1 PUSH1 0xA0 SHL SUB NOT AND PUSH1 0x1 PUSH1 0x1 PUSH1 0xA0 SHL SUB DUP7 AND SWAP1 DUP2 OR SWAP1 SWAP2 SSTORE SWAP1 MLOAD DUP4 SWAP3 SWAP1 PUSH32 0xDDF252AD1BE2C89B69C2B068FC378DAA952BA7F163C4A11628F55A4DF523B3EF SWAP1 DUP3 SWAP1 LOG4 PUSH2 0xD90 PUSH1 0x0 DUP4 DUP4 PUSH2 0x296D JUMP JUMPDEST DUP2 PUSH1 0x1 PUSH1 0x1 PUSH1 0xA0 SHL SUB AND DUP4 PUSH1 0x1 PUSH1 0x1 PUSH1 0xA0 SHL SUB AND EQ ISZERO PUSH2 0x27F5 JUMPI PUSH1 0x40 MLOAD PUSH3 0x461BCD PUSH1 0xE5 SHL DUP2 MSTORE PUSH1 0x20 PUSH1 0x4 DUP3 ADD MSTORE PUSH1 0x19 PUSH1 0x24 DUP3 ADD MSTORE PUSH32 0x4552433732313A20617070726F766520746F2063616C6C657200000000000000 PUSH1 0x44 DUP3 ADD MSTORE PUSH1 0x64 ADD PUSH2 0x8F1 JUMP JUMPDEST PUSH1 0x1 PUSH1 0x1 PUSH1 0xA0 SHL SUB DUP4 DUP2 AND PUSH1 0x0 DUP2 DUP2 MSTORE PUSH1 0x5 PUSH1 0x20 SWAP1 DUP2 MSTORE PUSH1 0x40 DUP1 DUP4 KECCAK256 SWAP5 DUP8 AND DUP1 DUP5 MSTORE SWAP5 DUP3 MSTORE SWAP2 DUP3 SWAP1 KECCAK256 DUP1 SLOAD PUSH1 0xFF NOT AND DUP7 ISZERO ISZERO SWAP1 DUP2 OR SWAP1 SWAP2 SSTORE SWAP2 MLOAD SWAP2 DUP3 MSTORE PUSH32 0x17307EAB39AB6107E8899845AD3D59BD9653F200F220920489CA2B5937696C31 SWAP2 ADD PUSH1 0x40 MLOAD DUP1 SWAP2 SUB SWAP1 LOG3 POP POP POP JUMP JUMPDEST PUSH2 0x286D DUP5 DUP5 DUP5 PUSH2 0x2464 JUMP JUMPDEST PUSH2 0x2879 DUP5 DUP5 DUP5 DUP5 PUSH2 0x2AE6 JUMP JUMPDEST PUSH2 0x19B2 JUMPI PUSH1 0x40 MLOAD PUSH3 0x461BCD PUSH1 0xE5 SHL DUP2 MSTORE PUSH1 0x4 ADD PUSH2 0x8F1 SWAP1 PUSH2 0x33C5 JUMP JUMPDEST PUSH1 0x60 PUSH2 0x28A0 DUP3 PUSH2 0x215F JUMP JUMPDEST PUSH2 0x2904 JUMPI PUSH1 0x40 MLOAD PUSH3 0x461BCD PUSH1 0xE5 SHL DUP2 MSTORE PUSH1 0x20 PUSH1 0x4 DUP3 ADD MSTORE PUSH1 0x2F PUSH1 0x24 DUP3 ADD MSTORE PUSH32 0x4552433732314D657461646174613A2055524920717565727920666F72206E6F PUSH1 0x44 DUP3 ADD MSTORE PUSH15 0x3732BC34B9BA32B73A103A37B5B2B7 PUSH1 0x89 SHL PUSH1 0x64 DUP3 ADD MSTORE PUSH1 0x84 ADD PUSH2 0x8F1 JUMP JUMPDEST PUSH1 0x0 PUSH2 0x291B PUSH1 0x40 DUP1 MLOAD PUSH1 0x20 DUP2 ADD SWAP1 SWAP2 MSTORE PUSH1 0x0 DUP2 MSTORE SWAP1 JUMP JUMPDEST SWAP1 POP PUSH1 0x0 DUP2 MLOAD GT PUSH2 0x293B JUMPI PUSH1 0x40 MLOAD DUP1 PUSH1 0x20 ADD PUSH1 0x40 MSTORE DUP1 PUSH1 0x0 DUP2 MSTORE POP PUSH2 0x2966 JUMP JUMPDEST DUP1 PUSH2 0x2945 DUP5 PUSH2 0x2BF3 JUMP JUMPDEST PUSH1 0x40 MLOAD PUSH1 0x20 ADD PUSH2 0x2956 SWAP3 SWAP2 SWAP1 PUSH2 0x3369 JUMP JUMPDEST PUSH1 0x40 MLOAD PUSH1 0x20 DUP2 DUP4 SUB SUB DUP2 MSTORE SWAP1 PUSH1 0x40 MSTORE JUMPDEST SWAP4 SWAP3 POP POP POP JUMP JUMPDEST PUSH1 0x12 SLOAD PUSH1 0x0 DUP3 DUP2 MSTORE PUSH1 0xB PUSH1 0x20 MSTORE PUSH1 0x40 SWAP1 KECCAK256 SLOAD EQ DUP1 PUSH2 0x299A JUMPI POP PUSH1 0x11 SLOAD PUSH1 0x0 DUP3 DUP2 MSTORE PUSH1 0xB PUSH1 0x20 MSTORE PUSH1 0x40 SWAP1 KECCAK256 SLOAD EQ JUMPDEST ISZERO PUSH2 0xA27 JUMPI PUSH1 0x7 SLOAD PUSH1 0x1 PUSH1 0x1 PUSH1 0xA0 SHL SUB DUP5 DUP2 AND SWAP2 AND EQ DUP1 ISZERO SWAP1 PUSH2 0x29CB JUMPI POP PUSH1 0x9 SLOAD PUSH1 0x1 PUSH1 0x1 PUSH1 0xA0 SHL SUB DUP5 DUP2 AND SWAP2 AND EQ ISZERO JUMPDEST DUP1 ISZERO PUSH2 0x29DF JUMPI POP PUSH1 0x1 PUSH1 0x1 PUSH1 0xA0 SHL SUB DUP4 AND ISZERO ISZERO JUMPDEST ISZERO PUSH2 0x2A8D JUMPI PUSH1 0x1 PUSH1 0x1 PUSH1 0xA0 SHL SUB DUP4 AND PUSH1 0x0 SWAP1 DUP2 MSTORE PUSH1 0xF PUSH1 0x20 MSTORE PUSH1 0x40 SWAP1 KECCAK256 SLOAD ISZERO PUSH2 0x2A6C JUMPI PUSH1 0x1 PUSH1 0x1 PUSH1 0xA0 SHL SUB DUP4 AND PUSH1 0x0 SWAP1 DUP2 MSTORE PUSH1 0xF PUSH1 0x20 MSTORE PUSH1 0x40 SWAP1 KECCAK256 SLOAD PUSH2 0x2A27 SWAP1 PUSH1 0x1 SWAP1 PUSH2 0x3398 JUMP JUMPDEST PUSH1 0x1 PUSH1 0x1 PUSH1 0xA0 SHL SUB DUP5 AND PUSH1 0x0 SWAP1 DUP2 MSTORE PUSH1 0xF PUSH1 0x20 MSTORE PUSH1 0x40 SWAP1 KECCAK256 DUP2 SWAP1 SSTORE PUSH2 0x2A67 JUMPI PUSH1 0x1 PUSH1 0x1 PUSH1 0xA0 SHL SUB DUP4 AND PUSH1 0x0 SWAP1 DUP2 MSTORE PUSH1 0xE PUSH1 0x20 MSTORE PUSH1 0x40 SWAP1 KECCAK256 DUP1 SLOAD PUSH1 0xFF NOT AND SWAP1 SSTORE JUMPDEST PUSH2 0x2A8D JUMP JUMPDEST PUSH1 0x1 PUSH1 0x1 PUSH1 0xA0 SHL SUB DUP4 AND PUSH1 0x0 SWAP1 DUP2 MSTORE PUSH1 0xE PUSH1 0x20 MSTORE PUSH1 0x40 SWAP1 KECCAK256 DUP1 SLOAD PUSH1 0xFF NOT AND SWAP1 SSTORE JUMPDEST PUSH1 0x1 PUSH1 0x1 PUSH1 0xA0 SHL SUB DUP3 AND PUSH1 0x0 SWAP1 DUP2 MSTORE PUSH1 0xE PUSH1 0x20 SWAP1 DUP2 MSTORE PUSH1 0x40 DUP1 DUP4 KECCAK256 DUP1 SLOAD PUSH1 0xFF NOT AND PUSH1 0x1 SWAP1 DUP2 OR SWAP1 SWAP2 SSTORE PUSH1 0xF SWAP1 SWAP3 MSTORE SWAP1 SWAP2 KECCAK256 SLOAD PUSH2 0x2AC8 SWAP2 PUSH2 0x3320 JUMP JUMPDEST PUSH1 0x1 PUSH1 0x1 PUSH1 0xA0 SHL SUB DUP4 AND PUSH1 0x0 SWAP1 DUP2 MSTORE PUSH1 0xF PUSH1 0x20 MSTORE PUSH1 0x40 SWAP1 KECCAK256 SSTORE POP POP POP JUMP JUMPDEST PUSH1 0x0 PUSH1 0x1 PUSH1 0x1 PUSH1 0xA0 SHL SUB DUP5 AND EXTCODESIZE ISZERO PUSH2 0x2BE8 JUMPI PUSH1 0x40 MLOAD PUSH4 0xA85BD01 PUSH1 0xE1 SHL DUP2 MSTORE PUSH1 0x1 PUSH1 0x1 PUSH1 0xA0 SHL SUB DUP6 AND SWAP1 PUSH4 0x150B7A02 SWAP1 PUSH2 0x2B2A SWAP1 CALLER SWAP1 DUP10 SWAP1 DUP9 SWAP1 DUP9 SWAP1 PUSH1 0x4 ADD PUSH2 0x3417 JUMP JUMPDEST PUSH1 0x20 PUSH1 0x40 MLOAD DUP1 DUP4 SUB DUP2 PUSH1 0x0 DUP8 DUP1 EXTCODESIZE ISZERO DUP1 ISZERO PUSH2 0x2B44 JUMPI PUSH1 0x0 DUP1 REVERT JUMPDEST POP GAS CALL SWAP3 POP POP POP DUP1 ISZERO PUSH2 0x2B74 JUMPI POP PUSH1 0x40 DUP1 MLOAD PUSH1 0x1F RETURNDATASIZE SWAP1 DUP2 ADD PUSH1 0x1F NOT AND DUP3 ADD SWAP1 SWAP3 MSTORE PUSH2 0x2B71 SWAP2 DUP2 ADD SWAP1 PUSH2 0x3454 JUMP JUMPDEST PUSH1 0x1 JUMPDEST PUSH2 0x2BCE JUMPI RETURNDATASIZE DUP1 DUP1 ISZERO PUSH2 0x2BA2 JUMPI PUSH1 0x40 MLOAD SWAP2 POP PUSH1 0x1F NOT PUSH1 0x3F RETURNDATASIZE ADD AND DUP3 ADD PUSH1 0x40 MSTORE RETURNDATASIZE DUP3 MSTORE RETURNDATASIZE PUSH1 0x0 PUSH1 0x20 DUP5 ADD RETURNDATACOPY PUSH2 0x2BA7 JUMP JUMPDEST PUSH1 0x60 SWAP2 POP JUMPDEST POP DUP1 MLOAD PUSH2 0x2BC6 JUMPI PUSH1 0x40 MLOAD PUSH3 0x461BCD PUSH1 0xE5 SHL DUP2 MSTORE PUSH1 0x4 ADD PUSH2 0x8F1 SWAP1 PUSH2 0x33C5 JUMP JUMPDEST DUP1 MLOAD DUP2 PUSH1 0x20 ADD REVERT JUMPDEST PUSH1 0x1 PUSH1 0x1 PUSH1 0xE0 SHL SUB NOT AND PUSH4 0xA85BD01 PUSH1 0xE1 SHL EQ SWAP1 POP PUSH2 0x1C2C JUMP JUMPDEST POP PUSH1 0x1 SWAP5 SWAP4 POP POP POP POP JUMP JUMPDEST PUSH1 0x60 DUP2 PUSH2 0x2C17 JUMPI POP POP PUSH1 0x40 DUP1 MLOAD DUP1 DUP3 ADD SWAP1 SWAP2 MSTORE PUSH1 0x1 DUP2 MSTORE PUSH1 0x3 PUSH1 0xFC SHL PUSH1 0x20 DUP3 ADD MSTORE SWAP1 JUMP JUMPDEST DUP2 PUSH1 0x0 JUMPDEST DUP2 ISZERO PUSH2 0x2C41 JUMPI DUP1 PUSH2 0x2C2B DUP2 PUSH2 0x3338 JUMP JUMPDEST SWAP2 POP PUSH2 0x2C3A SWAP1 POP PUSH1 0xA DUP4 PUSH2 0x3487 JUMP JUMPDEST SWAP2 POP PUSH2 0x2C1B JUMP JUMPDEST PUSH1 0x0 DUP2 PUSH8 0xFFFFFFFFFFFFFFFF DUP2 GT ISZERO PUSH2 0x2C5C JUMPI PUSH2 0x2C5C PUSH2 0x2E82 JUMP JUMPDEST PUSH1 0x40 MLOAD SWAP1 DUP1 DUP3 MSTORE DUP1 PUSH1 0x1F ADD PUSH1 0x1F NOT AND PUSH1 0x20 ADD DUP3 ADD PUSH1 0x40 MSTORE DUP1 ISZERO PUSH2 0x2C86 JUMPI PUSH1 0x20 DUP3 ADD DUP2 DUP1 CALLDATASIZE DUP4 CALLDATACOPY ADD SWAP1 POP JUMPDEST POP SWAP1 POP JUMPDEST DUP5 ISZERO PUSH2 0x1C2C JUMPI PUSH2 0x2C9B PUSH1 0x1 DUP4 PUSH2 0x3398 JUMP JUMPDEST SWAP2 POP PUSH2 0x2CA8 PUSH1 0xA DUP7 PUSH2 0x349B JUMP JUMPDEST PUSH2 0x2CB3 SWAP1 PUSH1 0x30 PUSH2 0x3320 JUMP JUMPDEST PUSH1 0xF8 SHL DUP2 DUP4 DUP2 MLOAD DUP2 LT PUSH2 0x2CC8 JUMPI PUSH2 0x2CC8 PUSH2 0x3353 JUMP JUMPDEST PUSH1 0x20 ADD ADD SWAP1 PUSH1 0x1 PUSH1 0x1 PUSH1 0xF8 SHL SUB NOT AND SWAP1 DUP2 PUSH1 0x0 BYTE SWAP1 MSTORE8 POP PUSH2 0x2CEA PUSH1 0xA DUP7 PUSH2 0x3487 JUMP JUMPDEST SWAP5 POP PUSH2 0x2C8A JUMP JUMPDEST DUP3 DUP1 SLOAD PUSH2 0x2CFD SWAP1 PUSH2 0x3213 JUMP JUMPDEST SWAP1 PUSH1 0x0 MSTORE PUSH1 0x20 PUSH1 0x0 KECCAK256 SWAP1 PUSH1 0x1F ADD PUSH1 0x20 SWAP1 DIV DUP2 ADD SWAP3 DUP3 PUSH2 0x2D1F JUMPI PUSH1 0x0 DUP6 SSTORE PUSH2 0x2D65 JUMP JUMPDEST DUP3 PUSH1 0x1F LT PUSH2 0x2D38 JUMPI DUP1 MLOAD PUSH1 0xFF NOT AND DUP4 DUP1 ADD OR DUP6 SSTORE PUSH2 0x2D65 JUMP JUMPDEST DUP3 DUP1 ADD PUSH1 0x1 ADD DUP6 SSTORE DUP3 ISZERO PUSH2 0x2D65 JUMPI SWAP2 DUP3 ADD JUMPDEST DUP3 DUP2 GT ISZERO PUSH2 0x2D65 JUMPI DUP3 MLOAD DUP3 SSTORE SWAP2 PUSH1 0x20 ADD SWAP2 SWAP1 PUSH1 0x1 ADD SWAP1 PUSH2 0x2D4A JUMP JUMPDEST POP PUSH2 0x2D71 SWAP3 SWAP2 POP PUSH2 0x2D75 JUMP JUMPDEST POP SWAP1 JUMP JUMPDEST JUMPDEST DUP1 DUP3 GT ISZERO PUSH2 0x2D71 JUMPI PUSH1 0x0 DUP2 SSTORE PUSH1 0x1 ADD PUSH2 0x2D76 JUMP JUMPDEST PUSH1 0x1 PUSH1 0x1 PUSH1 0xE0 SHL SUB NOT DUP2 AND DUP2 EQ PUSH2 0x1AFE JUMPI PUSH1 0x0 DUP1 REVERT JUMPDEST PUSH1 0x0 PUSH1 0x20 DUP3 DUP5 SUB SLT ISZERO PUSH2 0x2DB2 JUMPI PUSH1 0x0 DUP1 REVERT JUMPDEST DUP2 CALLDATALOAD PUSH2 0x2966 DUP2 PUSH2 0x2D8A JUMP JUMPDEST PUSH1 0x0 JUMPDEST DUP4 DUP2 LT ISZERO PUSH2 0x2DD8 JUMPI DUP2 DUP2 ADD MLOAD DUP4 DUP3 ADD MSTORE PUSH1 0x20 ADD PUSH2 0x2DC0 JUMP JUMPDEST DUP4 DUP2 GT ISZERO PUSH2 0x19B2 JUMPI POP POP PUSH1 0x0 SWAP2 ADD MSTORE JUMP JUMPDEST PUSH1 0x0 DUP2 MLOAD DUP1 DUP5 MSTORE PUSH2 0x2E01 DUP2 PUSH1 0x20 DUP7 ADD PUSH1 0x20 DUP7 ADD PUSH2 0x2DBD JUMP JUMPDEST PUSH1 0x1F ADD PUSH1 0x1F NOT AND SWAP3 SWAP1 SWAP3 ADD PUSH1 0x20 ADD SWAP3 SWAP2 POP POP JUMP JUMPDEST PUSH1 0x20 DUP2 MSTORE PUSH1 0x0 PUSH2 0x2966 PUSH1 0x20 DUP4 ADD DUP5 PUSH2 0x2DE9 JUMP JUMPDEST PUSH1 0x0 PUSH1 0x20 DUP3 DUP5 SUB SLT ISZERO PUSH2 0x2E3A JUMPI PUSH1 0x0 DUP1 REVERT JUMPDEST POP CALLDATALOAD SWAP2 SWAP1 POP JUMP JUMPDEST PUSH1 0x1 PUSH1 0x1 PUSH1 0xA0 SHL SUB DUP2 AND DUP2 EQ PUSH2 0x1AFE JUMPI PUSH1 0x0 DUP1 REVERT JUMPDEST PUSH1 0x0 DUP1 PUSH1 0x40 DUP4 DUP6 SUB SLT ISZERO PUSH2 0x2E69 JUMPI PUSH1 0x0 DUP1 REVERT JUMPDEST DUP3 CALLDATALOAD PUSH2 0x2E74 DUP2 PUSH2 0x2E41 JUMP JUMPDEST SWAP5 PUSH1 0x20 SWAP4 SWAP1 SWAP4 ADD CALLDATALOAD SWAP4 POP POP POP JUMP JUMPDEST PUSH4 0x4E487B71 PUSH1 0xE0 SHL PUSH1 0x0 MSTORE PUSH1 0x41 PUSH1 0x4 MSTORE PUSH1 0x24 PUSH1 0x0 REVERT JUMPDEST PUSH1 0x0 PUSH8 0xFFFFFFFFFFFFFFFF DUP1 DUP5 GT ISZERO PUSH2 0x2EB3 JUMPI PUSH2 0x2EB3 PUSH2 0x2E82 JUMP JUMPDEST PUSH1 0x40 MLOAD PUSH1 0x1F DUP6 ADD PUSH1 0x1F NOT SWAP1 DUP2 AND PUSH1 0x3F ADD AND DUP2 ADD SWAP1 DUP3 DUP3 GT DUP2 DUP4 LT OR ISZERO PUSH2 0x2EDB JUMPI PUSH2 0x2EDB PUSH2 0x2E82 JUMP JUMPDEST DUP2 PUSH1 0x40 MSTORE DUP1 SWAP4 POP DUP6 DUP2 MSTORE DUP7 DUP7 DUP7 ADD GT ISZERO PUSH2 0x2EF4 JUMPI PUSH1 0x0 DUP1 REVERT JUMPDEST DUP6 DUP6 PUSH1 0x20 DUP4 ADD CALLDATACOPY PUSH1 0x0 PUSH1 0x20 DUP8 DUP4 ADD ADD MSTORE POP POP POP SWAP4 SWAP3 POP POP POP JUMP JUMPDEST PUSH1 0x0 DUP3 PUSH1 0x1F DUP4 ADD SLT PUSH2 0x2F1F JUMPI PUSH1 0x0 DUP1 REVERT JUMPDEST PUSH2 0x2966 DUP4 DUP4 CALLDATALOAD PUSH1 0x20 DUP6 ADD PUSH2 0x2E98 JUMP JUMPDEST PUSH1 0x0 DUP1 PUSH1 0x40 DUP4 DUP6 SUB SLT ISZERO PUSH2 0x2F41 JUMPI PUSH1 0x0 DUP1 REVERT JUMPDEST DUP3 CALLDATALOAD SWAP2 POP PUSH1 0x20 DUP4 ADD CALLDATALOAD PUSH8 0xFFFFFFFFFFFFFFFF DUP2 GT ISZERO PUSH2 0x2F5F JUMPI PUSH1 0x0 DUP1 REVERT JUMPDEST PUSH2 0x2F6B DUP6 DUP3 DUP7 ADD PUSH2 0x2F0E JUMP JUMPDEST SWAP2 POP POP SWAP3 POP SWAP3 SWAP1 POP JUMP JUMPDEST PUSH1 0x0 DUP1 PUSH1 0x40 DUP4 DUP6 SUB SLT ISZERO PUSH2 0x2F88 JUMPI PUSH1 0x0 DUP1 REVERT JUMPDEST POP POP DUP1 CALLDATALOAD SWAP3 PUSH1 0x20 SWAP1 SWAP2 ADD CALLDATALOAD SWAP2 POP JUMP JUMPDEST PUSH1 0x0 DUP1 PUSH1 0x0 PUSH1 0x60 DUP5 DUP7 SUB SLT ISZERO PUSH2 0x2FAC JUMPI PUSH1 0x0 DUP1 REVERT JUMPDEST DUP4 CALLDATALOAD PUSH2 0x2FB7 DUP2 PUSH2 0x2E41 JUMP JUMPDEST SWAP3 POP PUSH1 0x20 DUP5 ADD CALLDATALOAD PUSH2 0x2FC7 DUP2 PUSH2 0x2E41 JUMP JUMPDEST SWAP3 SWAP6 SWAP3 SWAP5 POP POP POP PUSH1 0x40 SWAP2 SWAP1 SWAP2 ADD CALLDATALOAD SWAP1 JUMP JUMPDEST PUSH1 0x0 PUSH1 0x20 DUP3 DUP5 SUB SLT ISZERO PUSH2 0x2FEA JUMPI PUSH1 0x0 DUP1 REVERT JUMPDEST DUP2 CALLDATALOAD PUSH2 0x2966 DUP2 PUSH2 0x2E41 JUMP JUMPDEST PUSH1 0x0 PUSH1 0x20 DUP1 DUP4 ADD DUP2 DUP5 MSTORE DUP1 DUP6 MLOAD DUP1 DUP4 MSTORE PUSH1 0x40 DUP7 ADD SWAP2 POP PUSH1 0x40 DUP2 PUSH1 0x5 SHL DUP8 ADD ADD SWAP3 POP DUP4 DUP8 ADD PUSH1 0x0 JUMPDEST DUP3 DUP2 LT ISZERO PUSH2 0x304A JUMPI PUSH1 0x3F NOT DUP9 DUP7 SUB ADD DUP5 MSTORE PUSH2 0x3038 DUP6 DUP4 MLOAD PUSH2 0x2DE9 JUMP JUMPDEST SWAP5 POP SWAP3 DUP6 ADD SWAP3 SWAP1 DUP6 ADD SWAP1 PUSH1 0x1 ADD PUSH2 0x301C JUMP JUMPDEST POP SWAP3 SWAP8 SWAP7 POP POP POP POP POP POP POP JUMP JUMPDEST PUSH1 0x0 PUSH1 0x20 DUP3 DUP5 SUB SLT ISZERO PUSH2 0x3069 JUMPI PUSH1 0x0 DUP1 REVERT JUMPDEST DUP2 CALLDATALOAD PUSH8 0xFFFFFFFFFFFFFFFF DUP2 GT ISZERO PUSH2 0x3080 JUMPI PUSH1 0x0 DUP1 REVERT JUMPDEST PUSH2 0x1C2C DUP5 DUP3 DUP6 ADD PUSH2 0x2F0E JUMP JUMPDEST DUP1 ISZERO ISZERO DUP2 EQ PUSH2 0x1AFE JUMPI PUSH1 0x0 DUP1 REVERT JUMPDEST PUSH1 0x0 DUP1 PUSH1 0x40 DUP4 DUP6 SUB SLT ISZERO PUSH2 0x30AD JUMPI PUSH1 0x0 DUP1 REVERT JUMPDEST DUP3 CALLDATALOAD PUSH2 0x30B8 DUP2 PUSH2 0x2E41 JUMP JUMPDEST SWAP2 POP PUSH1 0x20 DUP4 ADD CALLDATALOAD PUSH2 0x30C8 DUP2 PUSH2 0x308C JUMP JUMPDEST DUP1 SWAP2 POP POP SWAP3 POP SWAP3 SWAP1 POP JUMP JUMPDEST PUSH1 0x0 DUP1 PUSH1 0x0 DUP1 PUSH1 0x80 DUP6 DUP8 SUB SLT ISZERO PUSH2 0x30E9 JUMPI PUSH1 0x0 DUP1 REVERT JUMPDEST DUP5 CALLDATALOAD PUSH2 0x30F4 DUP2 PUSH2 0x2E41 JUMP JUMPDEST SWAP4 POP PUSH1 0x20 DUP6 ADD CALLDATALOAD PUSH2 0x3104 DUP2 PUSH2 0x2E41 JUMP JUMPDEST SWAP3 POP PUSH1 0x40 DUP6 ADD CALLDATALOAD SWAP2 POP PUSH1 0x60 DUP6 ADD CALLDATALOAD PUSH8 0xFFFFFFFFFFFFFFFF DUP2 GT ISZERO PUSH2 0x3127 JUMPI PUSH1 0x0 DUP1 REVERT JUMPDEST DUP6 ADD PUSH1 0x1F DUP2 ADD DUP8 SGT PUSH2 0x3138 JUMPI PUSH1 0x0 DUP1 REVERT JUMPDEST PUSH2 0x3147 DUP8 DUP3 CALLDATALOAD PUSH1 0x20 DUP5 ADD PUSH2 0x2E98 JUMP JUMPDEST SWAP2 POP POP SWAP3 SWAP6 SWAP2 SWAP5 POP SWAP3 POP JUMP JUMPDEST PUSH1 0x0 DUP1 PUSH1 0x0 PUSH1 0x60 DUP5 DUP7 SUB SLT ISZERO PUSH2 0x3168 JUMPI PUSH1 0x0 DUP1 REVERT JUMPDEST DUP4 CALLDATALOAD PUSH8 0xFFFFFFFFFFFFFFFF DUP2 GT ISZERO PUSH2 0x317F JUMPI PUSH1 0x0 DUP1 REVERT JUMPDEST PUSH2 0x318B DUP7 DUP3 DUP8 ADD PUSH2 0x2F0E JUMP JUMPDEST SWAP7 PUSH1 0x20 DUP7 ADD CALLDATALOAD SWAP7 POP PUSH1 0x40 SWAP1 SWAP6 ADD CALLDATALOAD SWAP5 SWAP4 POP POP POP POP JUMP JUMPDEST PUSH1 0x20 DUP1 DUP3 MSTORE DUP3 MLOAD DUP3 DUP3 ADD DUP2 SWAP1 MSTORE PUSH1 0x0 SWAP2 SWAP1 DUP5 DUP3 ADD SWAP1 PUSH1 0x40 DUP6 ADD SWAP1 DUP5 JUMPDEST DUP2 DUP2 LT ISZERO PUSH2 0x31D9 JUMPI DUP4 MLOAD DUP4 MSTORE SWAP3 DUP5 ADD SWAP3 SWAP2 DUP5 ADD SWAP2 PUSH1 0x1 ADD PUSH2 0x31BD JUMP JUMPDEST POP SWAP1 SWAP7 SWAP6 POP POP POP POP POP POP JUMP JUMPDEST PUSH1 0x0 DUP1 PUSH1 0x40 DUP4 DUP6 SUB SLT ISZERO PUSH2 0x31F8 JUMPI PUSH1 0x0 DUP1 REVERT JUMPDEST DUP3 CALLDATALOAD PUSH2 0x3203 DUP2 PUSH2 0x2E41 JUMP JUMPDEST SWAP2 POP PUSH1 0x20 DUP4 ADD CALLDATALOAD PUSH2 0x30C8 DUP2 PUSH2 0x2E41 JUMP JUMPDEST PUSH1 0x1 DUP2 DUP2 SHR SWAP1 DUP3 AND DUP1 PUSH2 0x3227 JUMPI PUSH1 0x7F DUP3 AND SWAP2 POP JUMPDEST PUSH1 0x20 DUP3 LT DUP2 EQ ISZERO PUSH2 0x3248 JUMPI PUSH4 0x4E487B71 PUSH1 0xE0 SHL PUSH1 0x0 MSTORE PUSH1 0x22 PUSH1 0x4 MSTORE PUSH1 0x24 PUSH1 0x0 REVERT JUMPDEST POP SWAP2 SWAP1 POP JUMP JUMPDEST PUSH1 0x20 DUP1 DUP3 MSTORE DUP2 DUP2 ADD MSTORE PUSH32 0x4F776E61626C653A2063616C6C6572206973206E6F7420746865206F776E6572 PUSH1 0x40 DUP3 ADD MSTORE PUSH1 0x60 ADD SWAP1 JUMP JUMPDEST PUSH1 0x0 PUSH1 0x20 DUP3 DUP5 SUB SLT ISZERO PUSH2 0x3295 JUMPI PUSH1 0x0 DUP1 REVERT JUMPDEST POP MLOAD SWAP2 SWAP1 POP JUMP JUMPDEST PUSH1 0x0 PUSH1 0x20 DUP3 DUP5 SUB SLT ISZERO PUSH2 0x32AE JUMPI PUSH1 0x0 DUP1 REVERT JUMPDEST DUP2 MLOAD PUSH2 0x2966 DUP2 PUSH2 0x308C JUMP JUMPDEST PUSH1 0x20 DUP1 DUP3 MSTORE PUSH1 0x31 SWAP1 DUP3 ADD MSTORE PUSH32 0x4552433732313A207472616E736665722063616C6C6572206973206E6F74206F PUSH1 0x40 DUP3 ADD MSTORE PUSH17 0x1DDB995C881B9BDC88185C1C1C9BDD9959 PUSH1 0x7A SHL PUSH1 0x60 DUP3 ADD MSTORE PUSH1 0x80 ADD SWAP1 JUMP JUMPDEST PUSH4 0x4E487B71 PUSH1 0xE0 SHL PUSH1 0x0 MSTORE PUSH1 0x11 PUSH1 0x4 MSTORE PUSH1 0x24 PUSH1 0x0 REVERT JUMPDEST PUSH1 0x0 DUP3 NOT DUP3 GT ISZERO PUSH2 0x3333 JUMPI PUSH2 0x3333 PUSH2 0x330A JUMP JUMPDEST POP ADD SWAP1 JUMP JUMPDEST PUSH1 0x0 PUSH1 0x0 NOT DUP3 EQ ISZERO PUSH2 0x334C JUMPI PUSH2 0x334C PUSH2 0x330A JUMP JUMPDEST POP PUSH1 0x1 ADD SWAP1 JUMP JUMPDEST PUSH4 0x4E487B71 PUSH1 0xE0 SHL PUSH1 0x0 MSTORE PUSH1 0x32 PUSH1 0x4 MSTORE PUSH1 0x24 PUSH1 0x0 REVERT JUMPDEST PUSH1 0x0 DUP4 MLOAD PUSH2 0x337B DUP2 DUP5 PUSH1 0x20 DUP9 ADD PUSH2 0x2DBD JUMP JUMPDEST DUP4 MLOAD SWAP1 DUP4 ADD SWAP1 PUSH2 0x338F DUP2 DUP4 PUSH1 0x20 DUP9 ADD PUSH2 0x2DBD JUMP JUMPDEST ADD SWAP5 SWAP4 POP POP POP POP JUMP JUMPDEST PUSH1 0x0 DUP3 DUP3 LT ISZERO PUSH2 0x33AA JUMPI PUSH2 0x33AA PUSH2 0x330A JUMP JUMPDEST POP SUB SWAP1 JUMP JUMPDEST PUSH4 0x4E487B71 PUSH1 0xE0 SHL PUSH1 0x0 MSTORE PUSH1 0x31 PUSH1 0x4 MSTORE PUSH1 0x24 PUSH1 0x0 REVERT JUMPDEST PUSH1 0x20 DUP1 DUP3 MSTORE PUSH1 0x32 SWAP1 DUP3 ADD MSTORE PUSH32 0x4552433732313A207472616E7366657220746F206E6F6E204552433732315265 PUSH1 0x40 DUP3 ADD MSTORE PUSH18 0x31B2B4BB32B91034B6B83632B6B2B73A32B9 PUSH1 0x71 SHL PUSH1 0x60 DUP3 ADD MSTORE PUSH1 0x80 ADD SWAP1 JUMP JUMPDEST PUSH1 0x1 PUSH1 0x1 PUSH1 0xA0 SHL SUB DUP6 DUP2 AND DUP3 MSTORE DUP5 AND PUSH1 0x20 DUP3 ADD MSTORE PUSH1 0x40 DUP2 ADD DUP4 SWAP1 MSTORE PUSH1 0x80 PUSH1 0x60 DUP3 ADD DUP2 SWAP1 MSTORE PUSH1 0x0 SWAP1 PUSH2 0x344A SWAP1 DUP4 ADD DUP5 PUSH2 0x2DE9 JUMP JUMPDEST SWAP7 SWAP6 POP POP POP POP POP POP JUMP JUMPDEST PUSH1 0x0 PUSH1 0x20 DUP3 DUP5 SUB SLT ISZERO PUSH2 0x3466 JUMPI PUSH1 0x0 DUP1 REVERT JUMPDEST DUP2 MLOAD PUSH2 0x2966 DUP2 PUSH2 0x2D8A JUMP JUMPDEST PUSH4 0x4E487B71 PUSH1 0xE0 SHL PUSH1 0x0 MSTORE PUSH1 0x12 PUSH1 0x4 MSTORE PUSH1 0x24 PUSH1 0x0 REVERT JUMPDEST PUSH1 0x0 DUP3 PUSH2 0x3496 JUMPI PUSH2 0x3496 PUSH2 0x3471 JUMP JUMPDEST POP DIV SWAP1 JUMP JUMPDEST PUSH1 0x0 DUP3 PUSH2 0x34AA JUMPI PUSH2 0x34AA PUSH2 0x3471 JUMP JUMPDEST POP MOD SWAP1 JUMP INVALID LOG2 PUSH5 0x6970667358 0x22 SLT KECCAK256 PUSH19 0x2A7C74A4F0769DBEB527CCFFF4C2DCE0E1D95A 0xBD COINBASE CREATE 0xA7 0xA7 0xE7 0x2D 0x27 PUSH12 0xB6DB8A64736F6C6343000808 STOP CALLER ",
  "sha1": "24a831083ad0e29352f520f91989354da007a83c",
  "source": "// SPDX-License-Identifier: MIT\npragma solidity >=0.8.0 <0.9.0;\n\nimport \"@openzeppelin/contracts/utils/Counters.sol\";\nimport \"@openzeppelin/contracts/token/ERC721/extensions/ERC721URIStorage.sol\";\nimport \"@openzeppelin/contracts/token/ERC721/ERC721.sol\";\nimport \"@openzeppelin/contracts/access/Ownable.sol\";\nimport \"./CardinalToken.sol\";\n\n/**\n * @title Cardinal House NFT Contract\n * @dev NFT contract that will be used with the marketplace contract\n */\ncontract CardinalNFT is ERC721URIStorage, Ownable {\n    using Counters for Counters.Counter;\n\n    // Counter to give each NFT a unique ID.\n    Counters.Counter public _tokenIds;\n\n    // Address of the Cardinal NFT marketplace.\n    address public marketplaceAddress;\n\n    // Contract for the Cardinal Token (CRNL).\n    CardinalToken public cardinalToken;\n\n    // Each NFT will be associated with an ID that determines the type of NFT it is\n    // This makes it easy to identify sets of NFTs like Original Cardinal NFTs, membership NFTs, and service NFTs\n    mapping(uint256 => uint256) public tokenIdToTypeId;\n\n    // Each NFT will have a unique listing fee that is kept track of in this mapping.\n    mapping(uint256 => uint256) public tokenIdToListingFee;\n    \n    // Mapping of token ID to address for whitelist spots.\n    mapping(uint256 => address) public tokenIdToWhitelistAddress;\n\n    // Mapping to determine if an address has a membership (either Original Cardinal NFT or membership NFT)\n    mapping(address => bool) public addressIsMember;\n\n    // Mapping to determine the number of membership NFTs an address has (especially if they have Original Cardinal NFT and membership NFT)\n    mapping(address => uint256) public addressToMemberNFTCount;\n\n    // Maps each membership NFT ID to the last block timestamp that the membership was paid for.\n    mapping(uint256 => uint256) public membershipNFTToLastPaid;\n\n    // The type ID for the Original Cardinal NFTs.\n    uint256 public originalCardinalTypeId = 1;\n\n    // The type ID for the membership NFTs.\n    uint256 public membershipTypeId = 2;\n\n    // The type ID for the service NFTs.\n    uint256 public serviceTypeId = 3;\n\n    // Array of the Original Cardinal token IDs.\n    uint256[] public originalCardinalTokenIds;\n\n    // Array of the membership token IDs.\n    uint256[] public membershipTokenIds;\n\n    // The token URI for all membership NFTs\n    string public membershipTokenURI;\n\n    // The current price of the membership NFT in Cardinal Tokens\n    uint256 public membershipPriceInCardinalTokens;\n\n    constructor(address _marketplaceAddress, address payable _cardinalTokenAddress) ERC721(\"CardinalHouseNFT\", \"CRNLNFT\") {\n        marketplaceAddress = _marketplaceAddress;\n        cardinalToken = CardinalToken(_cardinalTokenAddress);\n    }\n\n    /**\n    * @dev Only owner function to burn a membership NFT\n    * @param tokenId the tokenId of the membership NFT to burn\n     */\n    function burnMembershipNFT(uint256 tokenId) private {\n        for (uint i = 0; i < membershipTokenIds.length; i++) {\n            if (membershipTokenIds[i] == tokenId) {\n                address NFTOwner = ownerOf(membershipTokenIds[i]);\n                _transfer(NFTOwner, address(this), membershipTokenIds[i]);\n\n                membershipTokenIds[i] = membershipTokenIds[membershipTokenIds.length-1];\n                membershipTokenIds.pop();\n            }\n        }\n    }\n\n    /**\n    * @dev Only owner function to burn a membership NFT\n    * @param tokenId the tokenId of the membership NFT to burn\n     */\n    function burnMembershiptNFTManually(uint256 tokenId) public onlyOwner {\n        burnMembershipNFT(tokenId);\n    }\n\n    /**\n     * @dev After a token transfer, update the addressToMember mapping if the NFT is an Original Cardinal or membership NFT\n     * @param from the sender's address\n     * @param to the recipient's address\n     * @param tokenId the tokenId that was transferred\n     */\n    function _afterTokenTransfer(address from, address to, uint256 tokenId) internal virtual override {\n        if (tokenIdToTypeId[tokenId] == membershipTypeId || tokenIdToTypeId[tokenId] == originalCardinalTypeId) {\n            if (from != owner() && from != marketplaceAddress && from != address(0)) {\n                if (addressToMemberNFTCount[from] > 0) {\n                    addressToMemberNFTCount[from] = addressToMemberNFTCount[from] - 1;\n                    if (addressToMemberNFTCount[from] == 0) {\n                        addressIsMember[from] = false;\n                    }\n                }\n                else {\n                    addressIsMember[from] = false;\n                }\n            }\n            addressIsMember[to] = true;\n            addressToMemberNFTCount[to] = addressToMemberNFTCount[to] + 1;\n        }\n\n        super._afterTokenTransfer(from, to, tokenId);\n    }\n\n    /**\n    * @dev Allows someone to mint a membership NFT by paying Cardinal Tokens\n    * @return the ID of the newly minted membership NFT\n     */\n    function mintMembershipNFT() public returns (uint) {\n        require(cardinalToken.balanceOf(msg.sender) >= membershipPriceInCardinalTokens, \"You don't have enough Cardinal Tokens to pay for the membership NFT.\");\n        require(cardinalToken.allowance(msg.sender, address(this)) >= membershipPriceInCardinalTokens, \"You haven't approved this contract to spend enough of your Cardinal Tokens to pay for the membership NFT.\");\n        \n        cardinalToken.transferFrom(msg.sender, address(this), membershipPriceInCardinalTokens);\n\n        _tokenIds.increment();\n        uint256 newItemId = _tokenIds.current();\n\n        tokenIdToTypeId[newItemId] = membershipTypeId;\n        tokenIdToListingFee[newItemId] = 0;\n        _mint(msg.sender, newItemId);\n        membershipNFTToLastPaid[newItemId] = block.timestamp;\n        _setTokenURI(newItemId, membershipTokenURI);\n        approve(address(this), newItemId);\n        setApprovalForAll(marketplaceAddress, true);\n\n        membershipTokenIds.push(newItemId);\n\n        return newItemId;\n    }\n\n    /**\n    * @dev Only owner function to update the timestamp for a membership NFT after it has been paid for for a month.\n    * @param tokenId the ID of the membership NFT to have the timestamp updated for\n    * @param lastPaidTimestamp the timestamp to update the membership NFT to for when it was last paid for\n     */\n    function updateMembershipNFTLastPaid(uint256 tokenId, uint256 lastPaidTimestamp) public onlyOwner {\n        membershipNFTToLastPaid[tokenId] = lastPaidTimestamp;\n    }\n\n    /**\n    * @dev Only owner function to take funds from an address to pay for the next month of a membership\n    * @param member the address of the member that is being charged for the next month of a membership\n    * @param tokenId the token ID that the member is being charged \n    * @return 0 for success, 1 for failure and NFT burn\n     */\n    function chargeMemberForMembership(address member, uint256 tokenId) public onlyOwner returns (uint) {\n        require(ownerOf(tokenId) == member, \"This address doesn't own the NFT specified.\");\n        require(ownerOf(tokenId) != owner() && ownerOf(tokenId) != marketplaceAddress, \"Can't charge the owner or marketplace for the membership.\");\n\n        if (cardinalToken.balanceOf(member) < membershipPriceInCardinalTokens || cardinalToken.allowance(member, address(this)) < membershipPriceInCardinalTokens) {\n            burnMembershipNFT(tokenId);\n            return 1;\n        }\n        cardinalToken.transferFrom(member, address(this), membershipPriceInCardinalTokens);\n        membershipNFTToLastPaid[tokenId] = block.timestamp;\n        return 0;\n    }\n\n    /**\n    * @dev Only owner function to withdraw the Cardinal Tokens that are paid to this contract for the Membership NFTs.\n     */\n    function withdrawMembershipNFTFunds() public onlyOwner {\n        cardinalToken.transfer(owner(), cardinalToken.balanceOf(address(this)));\n    }\n\n    /**\n    * @dev Only owner function to mint a new NFT.\n    * @param tokenURI the token URI on IPFS for the NFT metadata\n    * @param typeId the type ID of the NFT to distinguish what type of NFT it is (Original Cardinal, membership, service)\n    * @param listingFee the fee the user pays when putting the NFT for sale on the marketplace\n    * @return the ID of the newly minted NFT\n     */\n    function createToken(string memory tokenURI, uint256 typeId, uint256 listingFee) public onlyOwner returns (uint) {\n        _tokenIds.increment();\n        uint256 newItemId = _tokenIds.current();\n\n        _mint(msg.sender, newItemId);\n        tokenIdToTypeId[newItemId] = typeId;\n        tokenIdToListingFee[newItemId] = listingFee;\n        _setTokenURI(newItemId, tokenURI);\n        approve(address(this), newItemId);\n        setApprovalForAll(marketplaceAddress, true);\n\n        if (typeId == originalCardinalTypeId) {\n            originalCardinalTokenIds.push(newItemId);\n        }\n        else if (typeId == membershipTypeId) {\n            membershipTokenIds.push(newItemId);\n            membershipNFTToLastPaid[newItemId] = block.timestamp;\n        }\n\n        return newItemId;\n    }\n\n    /**\n    * @dev Setter function for the token URI of an NFT.\n    * @param tokenId the ID of the NFT to update the token URI of\n    * @param newTokenURI the token URI to update the NFT with\n     */\n    function setTokenURI(uint256 tokenId, string memory newTokenURI) public onlyOwner {\n        _setTokenURI(tokenId, newTokenURI);\n    }\n\n    /**\n    * @dev Function to get all token URIs for tokens that a given user owns.\n    * @param userAddress the user's address to get token URIs of\n    * @return list of token URIs for a user's NFTs\n     */\n    function getUserTokenURIs(address userAddress) public view returns (string[] memory) {\n        uint NFTCount = _tokenIds.current();\n        uint userNFTCount = 0;\n        uint currentIndex = 0;\n\n        for (uint id = 1; id <= NFTCount; id++) {\n            if (ownerOf(id) == userAddress) {\n                userNFTCount += 1;\n            }\n        }\n\n        string[] memory userNFTTokenURIs = new string[](userNFTCount);\n\n        for (uint id = 1; id <= NFTCount; id++) {\n            if (ownerOf(id) == userAddress) {\n                string memory currentNFT = tokenURI(id);\n                userNFTTokenURIs[currentIndex] = currentNFT;\n                currentIndex += 1;\n            }\n        }\n        \n        return userNFTTokenURIs;\n    }\n\n    /**\n    * @dev Function to get all token URIs for Original Cardinal NFTs that a given user owns.\n    * @param userAddress the user's address to get token URIs of\n    * @return list of token URIs for a user's Original Cardinal NFTs\n     */\n    function getUserOriginalCardinalTokenURIs(address userAddress) public view returns (string[] memory) {\n        uint NFTCount = _tokenIds.current();\n        uint userNFTCount = 0;\n        uint currentIndex = 0;\n\n        for (uint id = 1; id <= NFTCount; id++) {\n            if (ownerOf(id) == userAddress && tokenIdToTypeId[id] == originalCardinalTypeId) {\n                userNFTCount += 1;\n            }\n        }\n\n        string[] memory userNFTTokenURIs = new string[](userNFTCount);\n\n        for (uint id = 1; id <= NFTCount; id++) {\n            if (ownerOf(id) == userAddress && tokenIdToTypeId[id] == originalCardinalTypeId) {\n                string memory currentNFT = tokenURI(id);\n                userNFTTokenURIs[currentIndex] = currentNFT;\n                currentIndex += 1;\n            }\n        }\n        \n        return userNFTTokenURIs;\n    }\n\n    /**\n    * @dev Function to get all token URIs for membership NFTs that a given user owns.\n    * @param userAddress the user's address to get token URIs of\n    * @return list of token URIs for a user's membership NFTs\n     */\n    function getUserMembershipTokenURIs(address userAddress) public view returns (string[] memory) {\n        uint NFTCount = _tokenIds.current();\n        uint userNFTCount = 0;\n        uint currentIndex = 0;\n\n        for (uint id = 1; id <= NFTCount; id++) {\n            if (ownerOf(id) == userAddress && (tokenIdToTypeId[id] == originalCardinalTypeId || tokenIdToTypeId[id] == membershipTypeId)) {\n                userNFTCount += 1;\n            }\n        }\n\n        string[] memory userNFTTokenURIs = new string[](userNFTCount);\n\n        for (uint id = 1; id <= NFTCount; id++) {\n            if (ownerOf(id) == userAddress && (tokenIdToTypeId[id] == originalCardinalTypeId || tokenIdToTypeId[id] == membershipTypeId)) {\n                string memory currentNFT = tokenURI(id);\n                userNFTTokenURIs[currentIndex] = currentNFT;\n                currentIndex += 1;\n            }\n        }\n        \n        return userNFTTokenURIs;\n    }\n\n    /**\n    * @dev Function to get all token URIs for service NFTs that a given user owns.\n    * @param userAddress the user's address to get token URIs of\n    * @return list of token URIs for a user's service NFTs\n     */\n    function getUserServiceTokenURIs(address userAddress) public view returns (string[] memory) {\n        uint NFTCount = _tokenIds.current();\n        uint userNFTCount = 0;\n        uint currentIndex = 0;\n\n        for (uint id = 1; id <= NFTCount; id++) {\n            if (ownerOf(id) == userAddress && tokenIdToTypeId[id] == serviceTypeId) {\n                userNFTCount += 1;\n            }\n        }\n\n        string[] memory userNFTTokenURIs = new string[](userNFTCount);\n\n        for (uint id = 1; id <= NFTCount; id++) {\n            if (ownerOf(id) == userAddress && tokenIdToTypeId[id] == serviceTypeId) {\n                string memory currentNFT = tokenURI(id);\n                userNFTTokenURIs[currentIndex] = currentNFT;\n                currentIndex += 1;\n            }\n        }\n        \n        return userNFTTokenURIs;\n    }\n\n    /**\n    * @dev Function to get a list of all the Original Cardinal NFT IDs.\n    * @return list of the Original Cardinal NFT IDs\n     */\n    function getOriginalCardinalTokenIds() public view returns (uint256[] memory) {\n        return originalCardinalTokenIds;\n    }\n\n    /**\n    * @dev Function to get a list of all the membership NFT IDs.\n    * @return list of the membership NFT IDs\n     */\n    function getMembershipTokenIds() public view returns (uint256[] memory) {\n        return membershipTokenIds;\n    }\n\n    /**\n    * @dev Function to assign an NFT to a whitelist spot so only one address can purchase the NFT.\n    * @param whiteListAddress the address of the user who will be able to purchase the NFT\n    * @param tokenId the ID of the NFT that the whitelist spot is for\n     */\n    function addWhiteListToToken(address whiteListAddress, uint256 tokenId) public onlyOwner {\n        tokenIdToWhitelistAddress[tokenId] = whiteListAddress;\n    }\n\n    /**\n    * @dev updates the listing fee of an NFT.\n    * @param tokenId the ID of the NFT to update the listing fee of\n    * @param newListingFee the listing fee value for the NFT\n     */\n    function updateTokenListingFee(uint256 tokenId, uint256 newListingFee) public onlyOwner {\n        tokenIdToListingFee[tokenId] = newListingFee;\n    }\n\n    /**\n    * @dev updates the type ID of an NFT.\n    * @param tokenId the ID of the NFT to update the type ID of\n    * @param newTypeId the type ID value for the NFT\n     */\n    function updateTokenTypeId(uint256 tokenId, uint256 newTypeId) public onlyOwner {\n        tokenIdToTypeId[tokenId] = newTypeId;\n    }\n\n    /**\n    * @dev updates the type ID that represents the Original Cardinal NFTs\n    * @param newOriginalCardinalTypeId the new type ID of the Original Cardinal NFTs\n     */\n    function updateOriginalCardinalTypeId(uint256 newOriginalCardinalTypeId) public onlyOwner {\n        originalCardinalTypeId = newOriginalCardinalTypeId;\n    }\n\n    /**\n    * @dev updates the type ID that represents the membership NFTs\n    * @param newMembershipTypeId the new type ID of the membership NFTs\n     */\n    function updateMembershipTypeId(uint256 newMembershipTypeId) public onlyOwner {\n        membershipTypeId = newMembershipTypeId;\n    }\n\n    /**\n    * @dev updates the type ID that represents the service NFTs\n    * @param newServiceTypeId the new type ID of the service NFTs\n     */\n    function updateServiceTypeId(uint256 newServiceTypeId) public onlyOwner {\n        serviceTypeId = newServiceTypeId;\n    }\n\n    /**\n    * @dev updates the membership NFT token URI\n    * @param newMembershipTokenURI the new type ID of the service NFTs\n     */\n    function updateMembershipTokenURI(string memory newMembershipTokenURI) public onlyOwner {\n        membershipTokenURI = newMembershipTokenURI;\n    }\n\n    /**\n    * @dev sets the price of the membership NFTs in Cardinal Tokens\n    * @param newMembershipPrice the new price of the membership NFTs in Cardinal Tokens\n     */\n    function updateMembershipPrice(uint256 newMembershipPrice) public onlyOwner {\n        membershipPriceInCardinalTokens = newMembershipPrice;\n    }\n\n    /**\n    * @dev Only owner function to set the reference to the Cardinal Token contract\n    * @param cardinalTokenAddress the address for the Cardinal Token contract\n    */\n    function setCardinalToken(address payable cardinalTokenAddress) public onlyOwner {\n        cardinalToken = CardinalToken(cardinalTokenAddress);\n    }\n\n}",
  "sourcePath": "contracts/CardinalNFT.sol",
  "type": "contract"
}