{
  "abi": [
    {
      "inputs": [
        {
          "internalType": "address",
          "name": "_marketplaceAddress",
          "type": "address"
        },
        {
          "internalType": "address payable",
          "name": "CardinalNFTAddress",
          "type": "address"
        },
        {
          "internalType": "address",
          "name": "_USDC",
          "type": "address"
        },
        {
          "internalType": "uint256",
          "name": "_defaultListingFee",
          "type": "uint256"
        },
        {
          "internalType": "uint256",
          "name": "_maxNFTs",
          "type": "uint256"
        },
        {
          "internalType": "uint256",
          "name": "_NFTPriceInUSDC",
          "type": "uint256"
        }
      ],
      "stateMutability": "nonpayable",
      "type": "constructor"
    },
    {
      "anonymous": false,
      "inputs": [
        {
          "indexed": true,
          "internalType": "address",
          "name": "owner",
          "type": "address"
        },
        {
          "indexed": true,
          "internalType": "address",
          "name": "approved",
          "type": "address"
        },
        {
          "indexed": true,
          "internalType": "uint256",
          "name": "tokenId",
          "type": "uint256"
        }
      ],
      "name": "Approval",
      "type": "event"
    },
    {
      "anonymous": false,
      "inputs": [
        {
          "indexed": true,
          "internalType": "address",
          "name": "owner",
          "type": "address"
        },
        {
          "indexed": true,
          "internalType": "address",
          "name": "operator",
          "type": "address"
        },
        {
          "indexed": false,
          "internalType": "bool",
          "name": "approved",
          "type": "bool"
        }
      ],
      "name": "ApprovalForAll",
      "type": "event"
    },
    {
      "anonymous": false,
      "inputs": [
        {
          "indexed": true,
          "internalType": "address",
          "name": "previousOwner",
          "type": "address"
        },
        {
          "indexed": true,
          "internalType": "address",
          "name": "newOwner",
          "type": "address"
        }
      ],
      "name": "OwnershipTransferred",
      "type": "event"
    },
    {
      "anonymous": false,
      "inputs": [
        {
          "indexed": true,
          "internalType": "address",
          "name": "from",
          "type": "address"
        },
        {
          "indexed": true,
          "internalType": "address",
          "name": "to",
          "type": "address"
        },
        {
          "indexed": true,
          "internalType": "uint256",
          "name": "tokenId",
          "type": "uint256"
        }
      ],
      "name": "Transfer",
      "type": "event"
    },
    {
      "anonymous": false,
      "inputs": [
        {
          "indexed": true,
          "internalType": "address",
          "name": "claimer",
          "type": "address"
        },
        {
          "indexed": false,
          "internalType": "uint256",
          "name": "amount",
          "type": "uint256"
        }
      ],
      "name": "nodeRewardsClaimed",
      "type": "event"
    },
    {
      "anonymous": false,
      "inputs": [
        {
          "indexed": true,
          "internalType": "uint256",
          "name": "amount",
          "type": "uint256"
        }
      ],
      "name": "nodeRewardsDeposited",
      "type": "event"
    },
    {
      "anonymous": false,
      "inputs": [
        {
          "indexed": true,
          "internalType": "address",
          "name": "owner",
          "type": "address"
        },
        {
          "indexed": true,
          "internalType": "uint256",
          "name": "tokenId",
          "type": "uint256"
        }
      ],
      "name": "nodeRunnerNFTMinted",
      "type": "event"
    },
    {
      "anonymous": false,
      "inputs": [
        {
          "indexed": true,
          "internalType": "uint256",
          "name": "tokenId",
          "type": "uint256"
        },
        {
          "indexed": false,
          "internalType": "string",
          "name": "newTokenURI",
          "type": "string"
        }
      ],
      "name": "tokenURIUpdated",
      "type": "event"
    },
    {
      "inputs": [],
      "name": "NFTPriceInUSDC",
      "outputs": [
        {
          "internalType": "uint256",
          "name": "",
          "type": "uint256"
        }
      ],
      "stateMutability": "view",
      "type": "function"
    },
    {
      "inputs": [],
      "name": "USDC",
      "outputs": [
        {
          "internalType": "contract IERC20",
          "name": "",
          "type": "address"
        }
      ],
      "stateMutability": "view",
      "type": "function"
    },
    {
      "inputs": [],
      "name": "_tokenIds",
      "outputs": [
        {
          "internalType": "uint256",
          "name": "_value",
          "type": "uint256"
        }
      ],
      "stateMutability": "view",
      "type": "function"
    },
    {
      "inputs": [
        {
          "internalType": "address",
          "name": "whiteListAddress",
          "type": "address"
        },
        {
          "internalType": "uint256",
          "name": "tokenId",
          "type": "uint256"
        }
      ],
      "name": "addWhiteListToToken",
      "outputs": [],
      "stateMutability": "nonpayable",
      "type": "function"
    },
    {
      "inputs": [
        {
          "internalType": "address",
          "name": "user",
          "type": "address"
        }
      ],
      "name": "addressIsMember",
      "outputs": [
        {
          "internalType": "bool",
          "name": "",
          "type": "bool"
        }
      ],
      "stateMutability": "nonpayable",
      "type": "function"
    },
    {
      "inputs": [
        {
          "internalType": "address",
          "name": "",
          "type": "address"
        }
      ],
      "name": "addressToMaticCanClaim",
      "outputs": [
        {
          "internalType": "uint256",
          "name": "",
          "type": "uint256"
        }
      ],
      "stateMutability": "view",
      "type": "function"
    },
    {
      "inputs": [
        {
          "internalType": "address",
          "name": "",
          "type": "address"
        }
      ],
      "name": "addressToMaticClaimed",
      "outputs": [
        {
          "internalType": "uint256",
          "name": "",
          "type": "uint256"
        }
      ],
      "stateMutability": "view",
      "type": "function"
    },
    {
      "inputs": [
        {
          "internalType": "address",
          "name": "to",
          "type": "address"
        },
        {
          "internalType": "uint256",
          "name": "tokenId",
          "type": "uint256"
        }
      ],
      "name": "approve",
      "outputs": [],
      "stateMutability": "nonpayable",
      "type": "function"
    },
    {
      "inputs": [
        {
          "internalType": "address",
          "name": "owner",
          "type": "address"
        }
      ],
      "name": "balanceOf",
      "outputs": [
        {
          "internalType": "uint256",
          "name": "",
          "type": "uint256"
        }
      ],
      "stateMutability": "view",
      "type": "function"
    },
    {
      "inputs": [],
      "name": "cardinalNFT",
      "outputs": [
        {
          "internalType": "contract CardinalNFT",
          "name": "",
          "type": "address"
        }
      ],
      "stateMutability": "view",
      "type": "function"
    },
    {
      "inputs": [],
      "name": "claimNodeRewards",
      "outputs": [],
      "stateMutability": "nonpayable",
      "type": "function"
    },
    {
      "inputs": [
        {
          "internalType": "string",
          "name": "newTokenURI",
          "type": "string"
        }
      ],
      "name": "createToken",
      "outputs": [
        {
          "internalType": "uint256",
          "name": "",
          "type": "uint256"
        }
      ],
      "stateMutability": "nonpayable",
      "type": "function"
    },
    {
      "inputs": [],
      "name": "defaultListingFee",
      "outputs": [
        {
          "internalType": "uint256",
          "name": "",
          "type": "uint256"
        }
      ],
      "stateMutability": "view",
      "type": "function"
    },
    {
      "inputs": [],
      "name": "depositNodeRewards",
      "outputs": [],
      "stateMutability": "payable",
      "type": "function"
    },
    {
      "inputs": [
        {
          "internalType": "uint256",
          "name": "tokenId",
          "type": "uint256"
        }
      ],
      "name": "getApproved",
      "outputs": [
        {
          "internalType": "address",
          "name": "",
          "type": "address"
        }
      ],
      "stateMutability": "view",
      "type": "function"
    },
    {
      "inputs": [
        {
          "internalType": "address",
          "name": "userAddress",
          "type": "address"
        }
      ],
      "name": "getUserTokenIDs",
      "outputs": [
        {
          "internalType": "uint256[]",
          "name": "",
          "type": "uint256[]"
        }
      ],
      "stateMutability": "view",
      "type": "function"
    },
    {
      "inputs": [
        {
          "internalType": "address",
          "name": "userAddress",
          "type": "address"
        }
      ],
      "name": "getUserTokenURIs",
      "outputs": [
        {
          "internalType": "string[]",
          "name": "",
          "type": "string[]"
        }
      ],
      "stateMutability": "view",
      "type": "function"
    },
    {
      "inputs": [
        {
          "internalType": "address",
          "name": "owner",
          "type": "address"
        },
        {
          "internalType": "address",
          "name": "operator",
          "type": "address"
        }
      ],
      "name": "isApprovedForAll",
      "outputs": [
        {
          "internalType": "bool",
          "name": "",
          "type": "bool"
        }
      ],
      "stateMutability": "view",
      "type": "function"
    },
    {
      "inputs": [],
      "name": "marketplaceAddress",
      "outputs": [
        {
          "internalType": "address",
          "name": "",
          "type": "address"
        }
      ],
      "stateMutability": "view",
      "type": "function"
    },
    {
      "inputs": [],
      "name": "maxNFTs",
      "outputs": [
        {
          "internalType": "uint256",
          "name": "",
          "type": "uint256"
        }
      ],
      "stateMutability": "view",
      "type": "function"
    },
    {
      "inputs": [
        {
          "internalType": "uint256",
          "name": "nftCount",
          "type": "uint256"
        }
      ],
      "name": "mintNodeRunnerNFT",
      "outputs": [
        {
          "internalType": "uint256[]",
          "name": "",
          "type": "uint256[]"
        }
      ],
      "stateMutability": "nonpayable",
      "type": "function"
    },
    {
      "inputs": [],
      "name": "name",
      "outputs": [
        {
          "internalType": "string",
          "name": "",
          "type": "string"
        }
      ],
      "stateMutability": "view",
      "type": "function"
    },
    {
      "inputs": [],
      "name": "nodeRunnerTokenURI",
      "outputs": [
        {
          "internalType": "string",
          "name": "",
          "type": "string"
        }
      ],
      "stateMutability": "view",
      "type": "function"
    },
    {
      "inputs": [],
      "name": "owner",
      "outputs": [
        {
          "internalType": "address",
          "name": "",
          "type": "address"
        }
      ],
      "stateMutability": "view",
      "type": "function"
    },
    {
      "inputs": [
        {
          "internalType": "uint256",
          "name": "tokenId",
          "type": "uint256"
        }
      ],
      "name": "ownerOf",
      "outputs": [
        {
          "internalType": "address",
          "name": "",
          "type": "address"
        }
      ],
      "stateMutability": "view",
      "type": "function"
    },
    {
      "inputs": [],
      "name": "renounceOwnership",
      "outputs": [],
      "stateMutability": "nonpayable",
      "type": "function"
    },
    {
      "inputs": [
        {
          "internalType": "address",
          "name": "from",
          "type": "address"
        },
        {
          "internalType": "address",
          "name": "to",
          "type": "address"
        },
        {
          "internalType": "uint256",
          "name": "tokenId",
          "type": "uint256"
        }
      ],
      "name": "safeTransferFrom",
      "outputs": [],
      "stateMutability": "nonpayable",
      "type": "function"
    },
    {
      "inputs": [
        {
          "internalType": "address",
          "name": "from",
          "type": "address"
        },
        {
          "internalType": "address",
          "name": "to",
          "type": "address"
        },
        {
          "internalType": "uint256",
          "name": "tokenId",
          "type": "uint256"
        },
        {
          "internalType": "bytes",
          "name": "_data",
          "type": "bytes"
        }
      ],
      "name": "safeTransferFrom",
      "outputs": [],
      "stateMutability": "nonpayable",
      "type": "function"
    },
    {
      "inputs": [
        {
          "internalType": "address",
          "name": "operator",
          "type": "address"
        },
        {
          "internalType": "bool",
          "name": "approved",
          "type": "bool"
        }
      ],
      "name": "setApprovalForAll",
      "outputs": [],
      "stateMutability": "nonpayable",
      "type": "function"
    },
    {
      "inputs": [
        {
          "internalType": "uint256",
          "name": "tokenId",
          "type": "uint256"
        },
        {
          "internalType": "string",
          "name": "newTokenURI",
          "type": "string"
        }
      ],
      "name": "setTokenURI",
      "outputs": [],
      "stateMutability": "nonpayable",
      "type": "function"
    },
    {
      "inputs": [
        {
          "internalType": "bytes4",
          "name": "interfaceId",
          "type": "bytes4"
        }
      ],
      "name": "supportsInterface",
      "outputs": [
        {
          "internalType": "bool",
          "name": "",
          "type": "bool"
        }
      ],
      "stateMutability": "view",
      "type": "function"
    },
    {
      "inputs": [],
      "name": "symbol",
      "outputs": [
        {
          "internalType": "string",
          "name": "",
          "type": "string"
        }
      ],
      "stateMutability": "view",
      "type": "function"
    },
    {
      "inputs": [
        {
          "internalType": "uint256",
          "name": "index",
          "type": "uint256"
        }
      ],
      "name": "tokenByIndex",
      "outputs": [
        {
          "internalType": "uint256",
          "name": "",
          "type": "uint256"
        }
      ],
      "stateMutability": "view",
      "type": "function"
    },
    {
      "inputs": [
        {
          "internalType": "uint256",
          "name": "",
          "type": "uint256"
        }
      ],
      "name": "tokenIdToListingFee",
      "outputs": [
        {
          "internalType": "uint256",
          "name": "",
          "type": "uint256"
        }
      ],
      "stateMutability": "view",
      "type": "function"
    },
    {
      "inputs": [
        {
          "internalType": "uint256",
          "name": "",
          "type": "uint256"
        }
      ],
      "name": "tokenIdToWhitelistAddress",
      "outputs": [
        {
          "internalType": "address",
          "name": "",
          "type": "address"
        }
      ],
      "stateMutability": "view",
      "type": "function"
    },
    {
      "inputs": [
        {
          "internalType": "address",
          "name": "owner",
          "type": "address"
        },
        {
          "internalType": "uint256",
          "name": "index",
          "type": "uint256"
        }
      ],
      "name": "tokenOfOwnerByIndex",
      "outputs": [
        {
          "internalType": "uint256",
          "name": "",
          "type": "uint256"
        }
      ],
      "stateMutability": "view",
      "type": "function"
    },
    {
      "inputs": [
        {
          "internalType": "uint256",
          "name": "tokenId",
          "type": "uint256"
        }
      ],
      "name": "tokenURI",
      "outputs": [
        {
          "internalType": "string",
          "name": "",
          "type": "string"
        }
      ],
      "stateMutability": "view",
      "type": "function"
    },
    {
      "inputs": [],
      "name": "totalSupply",
      "outputs": [
        {
          "internalType": "uint256",
          "name": "",
          "type": "uint256"
        }
      ],
      "stateMutability": "view",
      "type": "function"
    },
    {
      "inputs": [
        {
          "internalType": "address",
          "name": "from",
          "type": "address"
        },
        {
          "internalType": "address",
          "name": "to",
          "type": "address"
        },
        {
          "internalType": "uint256",
          "name": "tokenId",
          "type": "uint256"
        }
      ],
      "name": "transferFrom",
      "outputs": [],
      "stateMutability": "nonpayable",
      "type": "function"
    },
    {
      "inputs": [
        {
          "internalType": "address",
          "name": "newOwner",
          "type": "address"
        }
      ],
      "name": "transferOwnership",
      "outputs": [],
      "stateMutability": "nonpayable",
      "type": "function"
    },
    {
      "inputs": [
        {
          "internalType": "uint256",
          "name": "newDefaultListingFee",
          "type": "uint256"
        }
      ],
      "name": "updateDefaultListingFee",
      "outputs": [],
      "stateMutability": "nonpayable",
      "type": "function"
    },
    {
      "inputs": [
        {
          "internalType": "address",
          "name": "newMarketplaceAddress",
          "type": "address"
        }
      ],
      "name": "updateMarketplaceAddress",
      "outputs": [],
      "stateMutability": "nonpayable",
      "type": "function"
    },
    {
      "inputs": [
        {
          "internalType": "uint256",
          "name": "newMaxNFTs",
          "type": "uint256"
        }
      ],
      "name": "updateMaxNFTs",
      "outputs": [],
      "stateMutability": "nonpayable",
      "type": "function"
    },
    {
      "inputs": [
        {
          "internalType": "uint256",
          "name": "newNFTPriceInUSDC",
          "type": "uint256"
        }
      ],
      "name": "updateNFTPriceInUSDC",
      "outputs": [],
      "stateMutability": "nonpayable",
      "type": "function"
    },
    {
      "inputs": [
        {
          "internalType": "string",
          "name": "newNodeRunnerTokenURI",
          "type": "string"
        }
      ],
      "name": "updateNodeRunnerTokenURI",
      "outputs": [],
      "stateMutability": "nonpayable",
      "type": "function"
    },
    {
      "inputs": [
        {
          "internalType": "uint256",
          "name": "tokenId",
          "type": "uint256"
        },
        {
          "internalType": "uint256",
          "name": "newListingFee",
          "type": "uint256"
        }
      ],
      "name": "updateTokenListingFee",
      "outputs": [],
      "stateMutability": "nonpayable",
      "type": "function"
    },
    {
      "inputs": [
        {
          "internalType": "address",
          "name": "newUSDCAddress",
          "type": "address"
        }
      ],
      "name": "updateUSDCAddress",
      "outputs": [],
      "stateMutability": "nonpayable",
      "type": "function"
    },
    {
      "inputs": [],
      "name": "withdrawNodeFunds",
      "outputs": [],
      "stateMutability": "nonpayable",
      "type": "function"
    }
  ],
  "bytecode": "60806040523480156200001157600080fd5b50604051620037f9380380620037f9833981016040819052620000349162000221565b604080518082018252600d81526c139bd919549d5b9b995c939195609a1b602080830191825283518085019094526005845264139493919560da1b908401528151919291620000869160009162000162565b5080516200009c90600190602084019062000162565b505050620000b9620000b36200010c60201b60201c565b62000110565b600d80546001600160a01b03199081166001600160a01b0398891617909155600e8054821696881696909617909555600f80549095169390951692909217909255601091909155601155601255620002ce565b3390565b600b80546001600160a01b038381166001600160a01b0319831681179093556040519116919082907f8be0079c531659141344cd1fd0a4f28419497f9722a3daafe3b4186f6b6457e090600090a35050565b828054620001709062000291565b90600052602060002090601f016020900481019282620001945760008555620001df565b82601f10620001af57805160ff1916838001178555620001df565b82800160010185558215620001df579182015b82811115620001df578251825591602001919060010190620001c2565b50620001ed929150620001f1565b5090565b5b80821115620001ed5760008155600101620001f2565b6001600160a01b03811681146200021e57600080fd5b50565b60008060008060008060c087890312156200023b57600080fd5b8651620002488162000208565b60208801519096506200025b8162000208565b60408801519095506200026e8162000208565b80945050606087015192506080870151915060a087015190509295509295509295565b600181811c90821680620002a657607f821691505b60208210811415620002c857634e487b7160e01b600052602260045260246000fd5b50919050565b61351b80620002de6000396000f3fe6080604052600436106102935760003560e01c80637867ccd11161015a578063b063c954116100c1578063d283b9861161007a578063d283b986146107f2578063daa17f4914610807578063e4ace31a14610827578063e985e9c514610847578063f2fde38b14610890578063f7634a17146108b057600080fd5b8063b063c95414610722578063b88d4fde1461074f578063c4a896c91461076f578063c51969311461079c578063c87b56dd146107b2578063c98f56e0146107d257600080fd5b80638f01785d116101135780638f01785d1461067457806395d89b41146106a1578063983a7fa7146106b6578063a22cb465146106d6578063a58b603b146106f6578063aa46a4001461070b57600080fd5b80637867ccd1146105ce5780637d81c4c1146105ee578063849ca6181461060e57806388913ce21461062e57806389a30271146106365780638da5cb5b1461065657600080fd5b806342842e0e116101fe5780635c23a67a116101b75780635c23a67a1461050e5780636352211e1461054457806364ca44a51461056457806370a0823114610579578063715018a6146105995780637417353f146105ae57600080fd5b806342842e0e1461043e57806345576f941461045e5780634e9e1ec61461047e5780634f6ccce7146104945780635506a120146104b4578063595ee598146104e157600080fd5b806323002c711161025057806323002c711461038857806323b872dd146103a857806328da575b146103c857806328e6de93146103e85780632f745c59146104085780633e22ceb01461042857600080fd5b806301ffc9a71461029857806306fdde03146102cd578063081812fc146102ef578063095ea7b314610327578063162094c41461034957806318160ddd14610369575b600080fd5b3480156102a457600080fd5b506102b86102b3366004612dcf565b6108d0565b60405190151581526020015b60405180910390f35b3480156102d957600080fd5b506102e26108e1565b6040516102c49190612e44565b3480156102fb57600080fd5b5061030f61030a366004612e57565b610973565b6040516001600160a01b0390911681526020016102c4565b34801561033357600080fd5b50610347610342366004612e87565b610a00565b005b34801561035557600080fd5b50610347610364366004612f5d565b610b16565b34801561037557600080fd5b506009545b6040519081526020016102c4565b34801561039457600080fd5b506103476103a3366004612e57565b610b86565b3480156103b457600080fd5b506103476103c3366004612fa4565b610bb5565b3480156103d457600080fd5b506102b86103e3366004612fe0565b610be6565b3480156103f457600080fd5b50610347610403366004612e57565b610c64565b34801561041457600080fd5b5061037a610423366004612e87565b610c93565b34801561043457600080fd5b5061037a60105481565b34801561044a57600080fd5b50610347610459366004612fa4565b610d29565b34801561046a57600080fd5b5061037a610479366004612ffb565b610d44565b34801561048a57600080fd5b5061037a60115481565b3480156104a057600080fd5b5061037a6104af366004612e57565b610e92565b3480156104c057600080fd5b5061037a6104cf366004612fe0565b60166020526000908152604090205481565b3480156104ed57600080fd5b506105016104fc366004612fe0565b610f25565b6040516102c49190613030565b34801561051a57600080fd5b5061030f610529366004612e57565b6015602052600090815260409020546001600160a01b031681565b34801561055057600080fd5b5061030f61055f366004612e57565b610fc7565b34801561057057600080fd5b5061034761103e565b34801561058557600080fd5b5061037a610594366004612fe0565b611187565b3480156105a557600080fd5b5061034761120e565b3480156105ba57600080fd5b506103476105c9366004612e87565b611244565b3480156105da57600080fd5b506103476105e9366004613074565b61129c565b3480156105fa57600080fd5b50610347610609366004612fe0565b6112d8565b34801561061a57600080fd5b50610347610629366004612ffb565b611324565b610347611365565b34801561064257600080fd5b50600f5461030f906001600160a01b031681565b34801561066257600080fd5b50600b546001600160a01b031661030f565b34801561068057600080fd5b5061069461068f366004612fe0565b611521565b6040516102c49190613096565b3480156106ad57600080fd5b506102e26115db565b3480156106c257600080fd5b506103476106d1366004612e57565b6115ea565b3480156106e257600080fd5b506103476106f1366004613106565b611619565b34801561070257600080fd5b50610347611624565b34801561071757600080fd5b50600c5461037a9081565b34801561072e57600080fd5b5061037a61073d366004612e57565b60146020526000908152604090205481565b34801561075b57600080fd5b5061034761076a36600461313d565b611888565b34801561077b57600080fd5b5061037a61078a366004612fe0565b60176020526000908152604090205481565b3480156107a857600080fd5b5061037a60125481565b3480156107be57600080fd5b506102e26107cd366004612e57565b6118c0565b3480156107de57600080fd5b50600e5461030f906001600160a01b031681565b3480156107fe57600080fd5b506102e26118cb565b34801561081357600080fd5b50600d5461030f906001600160a01b031681565b34801561083357600080fd5b50610347610842366004612fe0565b611959565b34801561085357600080fd5b506102b86108623660046131b9565b6001600160a01b03918216600090815260056020908152604080832093909416825291909152205460ff1690565b34801561089c57600080fd5b506103476108ab366004612fe0565b6119a5565b3480156108bc57600080fd5b506105016108cb366004612e57565b611a3d565b60006108db82611fcc565b92915050565b6060600080546108f0906131ec565b80601f016020809104026020016040519081016040528092919081815260200182805461091c906131ec565b80156109695780601f1061093e57610100808354040283529160200191610969565b820191906000526020600020905b81548152906001019060200180831161094c57829003601f168201915b5050505050905090565b600061097e82611ff1565b6109e45760405162461bcd60e51b815260206004820152602c60248201527f4552433732313a20617070726f76656420717565727920666f72206e6f6e657860448201526b34b9ba32b73a103a37b5b2b760a11b60648201526084015b60405180910390fd5b506000908152600460205260409020546001600160a01b031690565b6000610a0b82610fc7565b9050806001600160a01b0316836001600160a01b03161415610a795760405162461bcd60e51b815260206004820152602160248201527f4552433732313a20617070726f76616c20746f2063757272656e74206f776e656044820152603960f91b60648201526084016109db565b336001600160a01b0382161480610a955750610a958133610862565b610b075760405162461bcd60e51b815260206004820152603860248201527f4552433732313a20617070726f76652063616c6c6572206973206e6f74206f7760448201527f6e6572206e6f7220617070726f76656420666f7220616c6c000000000000000060648201526084016109db565b610b11838361200e565b505050565b600b546001600160a01b03163314610b405760405162461bcd60e51b81526004016109db90613227565b610b4a828261207c565b817fc794e2271b51f209d8a645eec85692351ad1adc857ab2e06f9c5af7961cf07d582604051610b7a9190612e44565b60405180910390a25050565b600b546001600160a01b03163314610bb05760405162461bcd60e51b81526004016109db90613227565b601255565b610bbf3382612107565b610bdb5760405162461bcd60e51b81526004016109db9061325c565b610b118383836121f1565b600e546040516328da575b60e01b81526001600160a01b03838116600483015260009216906328da575b9060240160206040518083038186803b158015610c2c57600080fd5b505afa158015610c40573d6000803e3d6000fd5b505050506040513d601f19601f820116820180604052508101906108db91906132ad565b600b546001600160a01b03163314610c8e5760405162461bcd60e51b81526004016109db90613227565b601055565b6000610c9e83611187565b8210610d005760405162461bcd60e51b815260206004820152602b60248201527f455243373231456e756d657261626c653a206f776e657220696e646578206f7560448201526a74206f6620626f756e647360a81b60648201526084016109db565b506001600160a01b03919091166000908152600760209081526040808320938352929052205490565b610b1183838360405180602001604052806000815250611888565b600b546000906001600160a01b03163314610d715760405162461bcd60e51b81526004016109db90613227565b610d7f600c80546001019055565b6000610d8a600c5490565b6010546000828152601460205260409020559050610da83382612398565b610e3c8160138054610db9906131ec565b80601f0160208091040260200160405190810160405280929190818152602001828054610de5906131ec565b8015610e325780601f10610e0757610100808354040283529160200191610e32565b820191906000526020600020905b815481529060010190602001808311610e1557829003601f168201915b505050505061207c565b610e463082610a00565b600d54610e5d906001600160a01b03166001611619565b604051819033907f86c96e58b5e24fd4db3ea2d3803238d011fc9babe088b2cb856f8a1a80a224a990600090a390505b919050565b6000610e9d60095490565b8210610f005760405162461bcd60e51b815260206004820152602c60248201527f455243373231456e756d657261626c653a20676c6f62616c20696e646578206f60448201526b7574206f6620626f756e647360a01b60648201526084016109db565b60098281548110610f1357610f136132ca565b90600052602060002001549050919050565b60606000610f3283611187565b905060008167ffffffffffffffff811115610f4f57610f4f612eb1565b604051908082528060200260200182016040528015610f78578160200160208202803683370190505b50905060005b82811015610fbf57610f908582610c93565b828281518110610fa257610fa26132ca565b602090810291909101015280610fb7816132f6565b915050610f7e565b509392505050565b6000818152600260205260408120546001600160a01b0316806108db5760405162461bcd60e51b815260206004820152602960248201527f4552433732313a206f776e657220717565727920666f72206e6f6e657869737460448201526832b73a103a37b5b2b760b91b60648201526084016109db565b600b546001600160a01b031633146110685760405162461bcd60e51b81526004016109db90613227565b600f546001600160a01b031663a9059cbb61108b600b546001600160a01b031690565b600f546040516370a0823160e01b81523060048201526001600160a01b03909116906370a082319060240160206040518083038186803b1580156110ce57600080fd5b505afa1580156110e2573d6000803e3d6000fd5b505050506040513d601f19601f820116820180604052508101906111069190613311565b6040516001600160e01b031960e085901b1681526001600160a01b0390921660048301526024820152604401602060405180830381600087803b15801561114c57600080fd5b505af1158015611160573d6000803e3d6000fd5b505050506040513d601f19601f8201168201806040525081019061118491906132ad565b50565b60006001600160a01b0382166111f25760405162461bcd60e51b815260206004820152602a60248201527f4552433732313a2062616c616e636520717565727920666f7220746865207a65604482015269726f206164647265737360b01b60648201526084016109db565b506001600160a01b031660009081526003602052604090205490565b600b546001600160a01b031633146112385760405162461bcd60e51b81526004016109db90613227565b61124260006124d7565b565b600b546001600160a01b0316331461126e5760405162461bcd60e51b81526004016109db90613227565b600090815260156020526040902080546001600160a01b0319166001600160a01b0392909216919091179055565b600b546001600160a01b031633146112c65760405162461bcd60e51b81526004016109db90613227565b60009182526014602052604090912055565b600b546001600160a01b031633146113025760405162461bcd60e51b81526004016109db90613227565b600f80546001600160a01b0319166001600160a01b0392909216919091179055565b600b546001600160a01b0316331461134e5760405162461bcd60e51b81526004016109db90613227565b8051611361906013906020840190612d20565b5050565b6011543410156114115760405162461bcd60e51b815260206004820152606560248201527f596f75206d757374206465706f73697420656e6f756768204d6174696320736f60448201527f2069742063616e206265206469766964656420627920746865206d6178696d7560648201527f6d206e756d626572206f66204e465420686f6c6465727320666f7220746865206084820152643737b2329760d91b60a482015260c4016109db565b600061141c600c5490565b1161147d5760405162461bcd60e51b815260206004820152602b60248201527f4e6f204e4654732068617665206265656e206d696e74656420666f722074686960448201526a39903737b232903cb2ba1760a91b60648201526084016109db565b60015b600c5481116114f357600061149482610fc7565b9050601154346114a49190613340565b6001600160a01b0382166000908152601660205260409020546114c79190613354565b6001600160a01b03909116600090815260166020526040902055806114eb816132f6565b915050611480565b5060405134907f01212adf0641ffefb93fbb2948f91da450c6375780dba1d933e2ef7ba1c543ed90600090a2565b6060600061152e83611187565b90506000808267ffffffffffffffff81111561154c5761154c612eb1565b60405190808252806020026020018201604052801561157f57816020015b606081526020019060019003908161156a5790505b50905060005b838110156115d2576115978682610c93565b92506115a2836118c0565b8282815181106115b4576115b46132ca565b602002602001018190525080806115ca906132f6565b915050611585565b50949350505050565b6060600180546108f0906131ec565b600b546001600160a01b031633146116145760405162461bcd60e51b81526004016109db90613227565b601155565b611361338383612529565b600e546040516328da575b60e01b81523360048201526001600160a01b03909116906328da575b9060240160206040518083038186803b15801561166757600080fd5b505afa15801561167b573d6000803e3d6000fd5b505050506040513d601f19601f8201168201806040525081019061169f91906132ad565b6116bb5760405162461bcd60e51b81526004016109db9061336c565b336000908152601660205260409020546117825760405162461bcd60e51b815260206004820152607660248201527f596f7520646f6e2774206861766520616e79206e6f646520726577617264732060448201527f746f20636c61696d2120496620796f75206861766520616e204e465420666f7260648201527f2074686973206e6f64652c20706c65617365207761697420756e74696c20746860848201527532903732bc3a103932bbb0b932103232b837b9b4ba1760511b60a482015260c4016109db565b33600081815260166020526040808220805490839055905190929083908381818185875af1925050503d80600081146117d7576040519150601f19603f3d011682016040523d82523d6000602084013e6117dc565b606091505b50509050806118245760405162461bcd60e51b81526020600482015260146024820152734661696c656420746f2073656e64204d6174696360601b60448201526064016109db565b60405182815233907fab9726b9e4373f49134c144584366728ebc3e8aba47220872606a5760ac9b0409060200160405180910390a233600090815260176020526040902054611874908390613354565b336000908152601760205260409020555050565b6118923383612107565b6118ae5760405162461bcd60e51b81526004016109db9061325c565b6118ba848484846125f8565b50505050565b60606108db8261262b565b601380546118d8906131ec565b80601f0160208091040260200160405190810160405280929190818152602001828054611904906131ec565b80156119515780601f1061192657610100808354040283529160200191611951565b820191906000526020600020905b81548152906001019060200180831161193457829003601f168201915b505050505081565b600b546001600160a01b031633146119835760405162461bcd60e51b81526004016109db90613227565b600d80546001600160a01b0319166001600160a01b0392909216919091179055565b600b546001600160a01b031633146119cf5760405162461bcd60e51b81526004016109db90613227565b6001600160a01b038116611a345760405162461bcd60e51b815260206004820152602660248201527f4f776e61626c653a206e6577206f776e657220697320746865207a65726f206160448201526564647265737360d01b60648201526084016109db565b611184816124d7565b606060008211611aa65760405162461bcd60e51b815260206004820152602e60248201527f596f75206861766520746f206d696e74206174206c65617374206f6e65204e6f60448201526d323290293ab73732b91027233a1760911b60648201526084016109db565b601154600c54611ab69084613354565b1115611b765760405162461bcd60e51b815260206004820152607d60248201527f5468657265206172656e277420656e6f756768204e6f64652052756e6e65722060448201527f4e46547320666f722074686973206e6f646520666f7220796f7520746f206d6960648201527f6e7420796f7520616d6f756e7420796f752063686f73652e20416e6f7468657260848201527f206e6f64652077696c6c20626520617661696c61626c6520736f6f6e2100000060a482015260c4016109db565b600e546040516328da575b60e01b81523360048201526001600160a01b03909116906328da575b9060240160206040518083038186803b158015611bb957600080fd5b505afa158015611bcd573d6000803e3d6000fd5b505050506040513d601f19601f82011682018060405250810190611bf191906132ad565b611c0d5760405162461bcd60e51b81526004016109db9061336c565b601254600f546040516370a0823160e01b81523360048201526001600160a01b03909116906370a082319060240160206040518083038186803b158015611c5357600080fd5b505afa158015611c67573d6000803e3d6000fd5b505050506040513d601f19601f82011682018060405250810190611c8b9190613311565b1015611cff5760405162461bcd60e51b815260206004820152603a60248201527f596f7520646f6e2774206861766520656e6f756768205553444320746f20706160448201527f7920666f7220746865204e6f64652052756e6e6572204e46542e00000000000060648201526084016109db565b601254600f54604051636eb1769f60e11b81523360048201523060248201526001600160a01b039091169063dd62ed3e9060440160206040518083038186803b158015611d4b57600080fd5b505afa158015611d5f573d6000803e3d6000fd5b505050506040513d601f19601f82011682018060405250810190611d839190613311565b1015611e1d5760405162461bcd60e51b815260206004820152605f60248201527f596f7520686176656e277420617070726f766564207468697320636f6e74726160448201527f637420746f207370656e6420656e6f756768206f6620796f757220555344432060648201527f746f2070617920666f7220746865204e6f64652052756e6e6572204e46542e00608482015260a4016109db565b60008267ffffffffffffffff811115611e3857611e38612eb1565b604051908082528060200260200182016040528015611e61578160200160208202803683370190505b50905060005b83811015611fc557600f546012546040516323b872dd60e01b815233600482015230602482015260448101919091526001600160a01b03909116906323b872dd90606401602060405180830381600087803b158015611ec557600080fd5b505af1158015611ed9573d6000803e3d6000fd5b505050506040513d601f19601f82011682018060405250810190611efd91906132ad565b50611f0c600c80546001019055565b6000611f17600c5490565b6010546000828152601460205260409020559050611f353382612398565b611f468160138054610db9906131ec565b611f503082610a00565b600d54611f67906001600160a01b03166001611619565b80838381518110611f7a57611f7a6132ca565b6020908102919091010152604051819033907f86c96e58b5e24fd4db3ea2d3803238d011fc9babe088b2cb856f8a1a80a224a990600090a350611fbe600182613354565b9050611e67565b5092915050565b60006001600160e01b0319821663780e9d6360e01b14806108db57506108db8261279a565b6000908152600260205260409020546001600160a01b0316151590565b600081815260046020526040902080546001600160a01b0319166001600160a01b038416908117909155819061204382610fc7565b6001600160a01b03167f8c5be1e5ebec7d5bd14f71427d1e84f3dd0314c0f7b2291e5b200ac8c7c3b92560405160405180910390a45050565b61208582611ff1565b6120e85760405162461bcd60e51b815260206004820152602e60248201527f45524337323155524953746f726167653a2055524920736574206f66206e6f6e60448201526d32bc34b9ba32b73a103a37b5b2b760911b60648201526084016109db565b60008281526006602090815260409091208251610b1192840190612d20565b600061211282611ff1565b6121735760405162461bcd60e51b815260206004820152602c60248201527f4552433732313a206f70657261746f7220717565727920666f72206e6f6e657860448201526b34b9ba32b73a103a37b5b2b760a11b60648201526084016109db565b600061217e83610fc7565b9050806001600160a01b0316846001600160a01b031614806121b95750836001600160a01b03166121ae84610973565b6001600160a01b0316145b806121e957506001600160a01b0380821660009081526005602090815260408083209388168352929052205460ff165b949350505050565b826001600160a01b031661220482610fc7565b6001600160a01b0316146122685760405162461bcd60e51b815260206004820152602560248201527f4552433732313a207472616e736665722066726f6d20696e636f72726563742060448201526437bbb732b960d91b60648201526084016109db565b6001600160a01b0382166122ca5760405162461bcd60e51b8152602060048201526024808201527f4552433732313a207472616e7366657220746f20746865207a65726f206164646044820152637265737360e01b60648201526084016109db565b6122d58383836127ea565b6122e060008261200e565b6001600160a01b03831660009081526003602052604081208054600192906123099084906133c9565b90915550506001600160a01b0382166000908152600360205260408120805460019290612337908490613354565b909155505060008181526002602052604080822080546001600160a01b0319166001600160a01b0386811691821790925591518493918716917fddf252ad1be2c89b69c2b068fc378daa952ba7f163c4a11628f55a4df523b3ef91a4505050565b6001600160a01b0382166123ee5760405162461bcd60e51b815260206004820181905260248201527f4552433732313a206d696e7420746f20746865207a65726f206164647265737360448201526064016109db565b6123f781611ff1565b156124445760405162461bcd60e51b815260206004820152601c60248201527f4552433732313a20746f6b656e20616c7265616479206d696e7465640000000060448201526064016109db565b612450600083836127ea565b6001600160a01b0382166000908152600360205260408120805460019290612479908490613354565b909155505060008181526002602052604080822080546001600160a01b0319166001600160a01b03861690811790915590518392907fddf252ad1be2c89b69c2b068fc378daa952ba7f163c4a11628f55a4df523b3ef908290a45050565b600b80546001600160a01b038381166001600160a01b0319831681179093556040519116919082907f8be0079c531659141344cd1fd0a4f28419497f9722a3daafe3b4186f6b6457e090600090a35050565b816001600160a01b0316836001600160a01b0316141561258b5760405162461bcd60e51b815260206004820152601960248201527f4552433732313a20617070726f766520746f2063616c6c65720000000000000060448201526064016109db565b6001600160a01b03838116600081815260056020908152604080832094871680845294825291829020805460ff191686151590811790915591519182527f17307eab39ab6107e8899845ad3d59bd9653f200f220920489ca2b5937696c31910160405180910390a3505050565b6126038484846121f1565b61260f848484846127f5565b6118ba5760405162461bcd60e51b81526004016109db906133e0565b606061263682611ff1565b61269c5760405162461bcd60e51b815260206004820152603160248201527f45524337323155524953746f726167653a2055524920717565727920666f72206044820152703737b732bc34b9ba32b73a103a37b5b2b760791b60648201526084016109db565b600082815260066020526040812080546126b5906131ec565b80601f01602080910402602001604051908101604052809291908181526020018280546126e1906131ec565b801561272e5780601f106127035761010080835404028352916020019161272e565b820191906000526020600020905b81548152906001019060200180831161271157829003601f168201915b50505050509050600061274c60408051602081019091526000815290565b905080516000141561275f575092915050565b815115612791578082604051602001612779929190613432565b60405160208183030381529060405292505050919050565b6121e984612902565b60006001600160e01b031982166380ac58cd60e01b14806127cb57506001600160e01b03198216635b5e139f60e01b145b806108db57506301ffc9a760e01b6001600160e01b03198316146108db565b610b118383836129da565b60006001600160a01b0384163b156128f757604051630a85bd0160e11b81526001600160a01b0385169063150b7a0290612839903390899088908890600401613461565b602060405180830381600087803b15801561285357600080fd5b505af1925050508015612883575060408051601f3d908101601f191682019092526128809181019061349e565b60015b6128dd573d8080156128b1576040519150601f19603f3d011682016040523d82523d6000602084013e6128b6565b606091505b5080516128d55760405162461bcd60e51b81526004016109db906133e0565b805181602001fd5b6001600160e01b031916630a85bd0160e11b1490506121e9565b506001949350505050565b606061290d82611ff1565b6129715760405162461bcd60e51b815260206004820152602f60248201527f4552433732314d657461646174613a2055524920717565727920666f72206e6f60448201526e3732bc34b9ba32b73a103a37b5b2b760891b60648201526084016109db565b600061298860408051602081019091526000815290565b905060008151116129a857604051806020016040528060008152506129d3565b806129b284612a92565b6040516020016129c3929190613432565b6040516020818303038152906040525b9392505050565b6001600160a01b038316612a3557612a3081600980546000838152600a60205260408120829055600182018355919091527f6e1540171b6c0c960b71a7020d9f60077f6af931a8bbf590da0223dacf75c7af0155565b612a58565b816001600160a01b0316836001600160a01b031614612a5857612a588382612b90565b6001600160a01b038216612a6f57610b1181612c2d565b826001600160a01b0316826001600160a01b031614610b1157610b118282612cdc565b606081612ab65750506040805180820190915260018152600360fc1b602082015290565b8160005b8115612ae05780612aca816132f6565b9150612ad99050600a83613340565b9150612aba565b60008167ffffffffffffffff811115612afb57612afb612eb1565b6040519080825280601f01601f191660200182016040528015612b25576020820181803683370190505b5090505b84156121e957612b3a6001836133c9565b9150612b47600a866134bb565b612b52906030613354565b60f81b818381518110612b6757612b676132ca565b60200101906001600160f81b031916908160001a905350612b89600a86613340565b9450612b29565b60006001612b9d84611187565b612ba791906133c9565b600083815260086020526040902054909150808214612bfa576001600160a01b03841660009081526007602090815260408083208584528252808320548484528184208190558352600890915290208190555b5060009182526008602090815260408084208490556001600160a01b039094168352600781528383209183525290812055565b600954600090612c3f906001906133c9565b6000838152600a602052604081205460098054939450909284908110612c6757612c676132ca565b906000526020600020015490508060098381548110612c8857612c886132ca565b6000918252602080832090910192909255828152600a90915260408082208490558582528120556009805480612cc057612cc06134cf565b6001900381819060005260206000200160009055905550505050565b6000612ce783611187565b6001600160a01b039093166000908152600760209081526040808320868452825280832085905593825260089052919091209190915550565b828054612d2c906131ec565b90600052602060002090601f016020900481019282612d4e5760008555612d94565b82601f10612d6757805160ff1916838001178555612d94565b82800160010185558215612d94579182015b82811115612d94578251825591602001919060010190612d79565b50612da0929150612da4565b5090565b5b80821115612da05760008155600101612da5565b6001600160e01b03198116811461118457600080fd5b600060208284031215612de157600080fd5b81356129d381612db9565b60005b83811015612e07578181015183820152602001612def565b838111156118ba5750506000910152565b60008151808452612e30816020860160208601612dec565b601f01601f19169290920160200192915050565b6020815260006129d36020830184612e18565b600060208284031215612e6957600080fd5b5035919050565b80356001600160a01b0381168114610e8d57600080fd5b60008060408385031215612e9a57600080fd5b612ea383612e70565b946020939093013593505050565b634e487b7160e01b600052604160045260246000fd5b600067ffffffffffffffff80841115612ee257612ee2612eb1565b604051601f8501601f19908116603f01168101908282118183101715612f0a57612f0a612eb1565b81604052809350858152868686011115612f2357600080fd5b858560208301376000602087830101525050509392505050565b600082601f830112612f4e57600080fd5b6129d383833560208501612ec7565b60008060408385031215612f7057600080fd5b82359150602083013567ffffffffffffffff811115612f8e57600080fd5b612f9a85828601612f3d565b9150509250929050565b600080600060608486031215612fb957600080fd5b612fc284612e70565b9250612fd060208501612e70565b9150604084013590509250925092565b600060208284031215612ff257600080fd5b6129d382612e70565b60006020828403121561300d57600080fd5b813567ffffffffffffffff81111561302457600080fd5b6121e984828501612f3d565b6020808252825182820181905260009190848201906040850190845b818110156130685783518352928401929184019160010161304c565b50909695505050505050565b6000806040838503121561308757600080fd5b50508035926020909101359150565b6000602080830181845280855180835260408601915060408160051b870101925083870160005b828110156130eb57603f198886030184526130d9858351612e18565b945092850192908501906001016130bd565b5092979650505050505050565b801515811461118457600080fd5b6000806040838503121561311957600080fd5b61312283612e70565b91506020830135613132816130f8565b809150509250929050565b6000806000806080858703121561315357600080fd5b61315c85612e70565b935061316a60208601612e70565b925060408501359150606085013567ffffffffffffffff81111561318d57600080fd5b8501601f8101871361319e57600080fd5b6131ad87823560208401612ec7565b91505092959194509250565b600080604083850312156131cc57600080fd5b6131d583612e70565b91506131e360208401612e70565b90509250929050565b600181811c9082168061320057607f821691505b6020821081141561322157634e487b7160e01b600052602260045260246000fd5b50919050565b6020808252818101527f4f776e61626c653a2063616c6c6572206973206e6f7420746865206f776e6572604082015260600190565b60208082526031908201527f4552433732313a207472616e736665722063616c6c6572206973206e6f74206f6040820152701ddb995c881b9bdc88185c1c1c9bdd9959607a1b606082015260800190565b6000602082840312156132bf57600080fd5b81516129d3816130f8565b634e487b7160e01b600052603260045260246000fd5b634e487b7160e01b600052601160045260246000fd5b600060001982141561330a5761330a6132e0565b5060010190565b60006020828403121561332357600080fd5b5051919050565b634e487b7160e01b600052601260045260246000fd5b60008261334f5761334f61332a565b500490565b60008219821115613367576133676132e0565b500190565b6020808252603a908201527f4f6e6c792043617264696e616c2043726577204d656d626572732063616e207060408201527f6172746963697061746520696e204e6f64652052756e6e65722e000000000000606082015260800190565b6000828210156133db576133db6132e0565b500390565b60208082526032908201527f4552433732313a207472616e7366657220746f206e6f6e20455243373231526560408201527131b2b4bb32b91034b6b83632b6b2b73a32b960711b606082015260800190565b60008351613444818460208801612dec565b835190830190613458818360208801612dec565b01949350505050565b6001600160a01b038581168252841660208201526040810183905260806060820181905260009061349490830184612e18565b9695505050505050565b6000602082840312156134b057600080fd5b81516129d381612db9565b6000826134ca576134ca61332a565b500690565b634e487b7160e01b600052603160045260246000fdfea264697066735822122065d001f554e6ebcf8656e2f4815c42cfcf4129604f58ed2d54b006e0f3dd632b64736f6c63430008080033",
  "bytecodeSha1": "05e103da924f9521b3cf505719180cfaf5a3f010",
  "compiler": {
    "evm_version": "istanbul",
    "optimizer": {
      "enabled": true,
      "runs": 200
    },
    "version": "0.8.8+commit.dddeac2f"
  },
  "contractName": "NodeRunner",
  "language": "Solidity",
  "natspec": {
    "details": "NFT contract that will be used with the marketplace contract",
    "kind": "dev",
    "methods": {
      "addWhiteListToToken(address,uint256)": {
        "details": "Function to assign an NFT to a whitelist spot so only one address can purchase the NFT.",
        "params": {
          "tokenId": "the ID of the NFT that the whitelist spot is for",
          "whiteListAddress": "the address of the user who will be able to purchase the NFT"
        }
      },
      "addressIsMember(address)": {
        "details": "function for the marketplace to determine if an address is a Cardinal Crew member.",
        "params": {
          "user": "the address to check the Cardinal Crew membership of"
        }
      },
      "approve(address,uint256)": {
        "details": "See {IERC721-approve}."
      },
      "balanceOf(address)": {
        "details": "See {IERC721-balanceOf}."
      },
      "claimNodeRewards()": {
        "details": "Function for NFT holders to claim their node rewards."
      },
      "createToken(string)": {
        "details": "Only owner function to mint a new NFT.",
        "params": {
          "newTokenURI": "the token URI on IPFS for the NFT metadata"
        },
        "returns": {
          "_0": "newItemId the ID of the newly minted NFT"
        }
      },
      "depositNodeRewards()": {
        "details": "Function to deposit rewards in Matic from the node into the contract for NFT holders to claim."
      },
      "getApproved(uint256)": {
        "details": "See {IERC721-getApproved}."
      },
      "getUserTokenIDs(address)": {
        "details": "Function to get all token IDs for tokens that a given user owns.",
        "params": {
          "userAddress": "the user's address to get token IDs of"
        },
        "returns": {
          "_0": "list of token IDs for a user's NFTs"
        }
      },
      "getUserTokenURIs(address)": {
        "details": "Function to get all token URIs for tokens that a given user owns.",
        "params": {
          "userAddress": "the user's address to get token URIs of"
        },
        "returns": {
          "_0": "list of token URIs for a user's NFTs"
        }
      },
      "isApprovedForAll(address,address)": {
        "details": "See {IERC721-isApprovedForAll}."
      },
      "mintNodeRunnerNFT(uint256)": {
        "details": "Allows someone to mint a Node Runner NFT by paying USDC",
        "params": {
          "nftCount": "the number of NFTs to mint"
        },
        "returns": {
          "_0": "newItemId the ID of the newly minted Node Runner NFT"
        }
      },
      "name()": {
        "details": "See {IERC721Metadata-name}."
      },
      "owner()": {
        "details": "Returns the address of the current owner."
      },
      "ownerOf(uint256)": {
        "details": "See {IERC721-ownerOf}."
      },
      "renounceOwnership()": {
        "details": "Leaves the contract without owner. It will not be possible to call `onlyOwner` functions anymore. Can only be called by the current owner. NOTE: Renouncing ownership will leave the contract without an owner, thereby removing any functionality that is only available to the owner."
      },
      "safeTransferFrom(address,address,uint256)": {
        "details": "See {IERC721-safeTransferFrom}."
      },
      "safeTransferFrom(address,address,uint256,bytes)": {
        "details": "See {IERC721-safeTransferFrom}."
      },
      "setApprovalForAll(address,bool)": {
        "details": "See {IERC721-setApprovalForAll}."
      },
      "setTokenURI(uint256,string)": {
        "details": "Setter function for the token URI of an NFT.",
        "params": {
          "newTokenURI": "the token URI to update the NFT with",
          "tokenId": "the ID of the NFT to update the token URI of"
        }
      },
      "symbol()": {
        "details": "See {IERC721Metadata-symbol}."
      },
      "tokenByIndex(uint256)": {
        "details": "See {IERC721Enumerable-tokenByIndex}."
      },
      "tokenOfOwnerByIndex(address,uint256)": {
        "details": "See {IERC721Enumerable-tokenOfOwnerByIndex}."
      },
      "totalSupply()": {
        "details": "See {IERC721Enumerable-totalSupply}."
      },
      "transferFrom(address,address,uint256)": {
        "details": "See {IERC721-transferFrom}."
      },
      "transferOwnership(address)": {
        "details": "Transfers ownership of the contract to a new account (`newOwner`). Can only be called by the current owner."
      },
      "updateDefaultListingFee(uint256)": {
        "details": "updates the default listing fee for the NFTs.",
        "params": {
          "newDefaultListingFee": "the new default listing fee"
        }
      },
      "updateMarketplaceAddress(address)": {
        "details": "updates the marketplace address.",
        "params": {
          "newMarketplaceAddress": "the new marketplace address"
        }
      },
      "updateMaxNFTs(uint256)": {
        "details": "updates the maximum number of NFTs that can be minted for the node this contract represents.",
        "params": {
          "newMaxNFTs": "the new maximum number of NFTs that can be minted in this contract"
        }
      },
      "updateNFTPriceInUSDC(uint256)": {
        "details": "updates the price of each NFT.",
        "params": {
          "newNFTPriceInUSDC": "the price of each NFT in USDC"
        }
      },
      "updateNodeRunnerTokenURI(string)": {
        "details": "updates the Node Runner NFT token URI",
        "params": {
          "newNodeRunnerTokenURI": "the new type ID of the Node Runner NFTs"
        }
      },
      "updateTokenListingFee(uint256,uint256)": {
        "details": "updates the listing fee of an NFT.",
        "params": {
          "newListingFee": "the listing fee value for the NFT",
          "tokenId": "the ID of the NFT to update the listing fee of"
        }
      },
      "updateUSDCAddress(address)": {
        "details": "updates the USDC contract.",
        "params": {
          "newUSDCAddress": "the new USDC address"
        }
      },
      "withdrawNodeFunds()": {
        "details": "Only owner function to withdraw the USDC that is paid to this contract for the Node Runner NFTs."
      }
    },
    "title": "Node Runner Contract",
    "version": 1
  },
  "opcodes": "PUSH1 0x80 PUSH1 0x40 MSTORE PUSH1 0x4 CALLDATASIZE LT PUSH2 0x293 JUMPI PUSH1 0x0 CALLDATALOAD PUSH1 0xE0 SHR DUP1 PUSH4 0x7867CCD1 GT PUSH2 0x15A JUMPI DUP1 PUSH4 0xB063C954 GT PUSH2 0xC1 JUMPI DUP1 PUSH4 0xD283B986 GT PUSH2 0x7A JUMPI DUP1 PUSH4 0xD283B986 EQ PUSH2 0x7F2 JUMPI DUP1 PUSH4 0xDAA17F49 EQ PUSH2 0x807 JUMPI DUP1 PUSH4 0xE4ACE31A EQ PUSH2 0x827 JUMPI DUP1 PUSH4 0xE985E9C5 EQ PUSH2 0x847 JUMPI DUP1 PUSH4 0xF2FDE38B EQ PUSH2 0x890 JUMPI DUP1 PUSH4 0xF7634A17 EQ PUSH2 0x8B0 JUMPI PUSH1 0x0 DUP1 REVERT JUMPDEST DUP1 PUSH4 0xB063C954 EQ PUSH2 0x722 JUMPI DUP1 PUSH4 0xB88D4FDE EQ PUSH2 0x74F JUMPI DUP1 PUSH4 0xC4A896C9 EQ PUSH2 0x76F JUMPI DUP1 PUSH4 0xC5196931 EQ PUSH2 0x79C JUMPI DUP1 PUSH4 0xC87B56DD EQ PUSH2 0x7B2 JUMPI DUP1 PUSH4 0xC98F56E0 EQ PUSH2 0x7D2 JUMPI PUSH1 0x0 DUP1 REVERT JUMPDEST DUP1 PUSH4 0x8F01785D GT PUSH2 0x113 JUMPI DUP1 PUSH4 0x8F01785D EQ PUSH2 0x674 JUMPI DUP1 PUSH4 0x95D89B41 EQ PUSH2 0x6A1 JUMPI DUP1 PUSH4 0x983A7FA7 EQ PUSH2 0x6B6 JUMPI DUP1 PUSH4 0xA22CB465 EQ PUSH2 0x6D6 JUMPI DUP1 PUSH4 0xA58B603B EQ PUSH2 0x6F6 JUMPI DUP1 PUSH4 0xAA46A400 EQ PUSH2 0x70B JUMPI PUSH1 0x0 DUP1 REVERT JUMPDEST DUP1 PUSH4 0x7867CCD1 EQ PUSH2 0x5CE JUMPI DUP1 PUSH4 0x7D81C4C1 EQ PUSH2 0x5EE JUMPI DUP1 PUSH4 0x849CA618 EQ PUSH2 0x60E JUMPI DUP1 PUSH4 0x88913CE2 EQ PUSH2 0x62E JUMPI DUP1 PUSH4 0x89A30271 EQ PUSH2 0x636 JUMPI DUP1 PUSH4 0x8DA5CB5B EQ PUSH2 0x656 JUMPI PUSH1 0x0 DUP1 REVERT JUMPDEST DUP1 PUSH4 0x42842E0E GT PUSH2 0x1FE JUMPI DUP1 PUSH4 0x5C23A67A GT PUSH2 0x1B7 JUMPI DUP1 PUSH4 0x5C23A67A EQ PUSH2 0x50E JUMPI DUP1 PUSH4 0x6352211E EQ PUSH2 0x544 JUMPI DUP1 PUSH4 0x64CA44A5 EQ PUSH2 0x564 JUMPI DUP1 PUSH4 0x70A08231 EQ PUSH2 0x579 JUMPI DUP1 PUSH4 0x715018A6 EQ PUSH2 0x599 JUMPI DUP1 PUSH4 0x7417353F EQ PUSH2 0x5AE JUMPI PUSH1 0x0 DUP1 REVERT JUMPDEST DUP1 PUSH4 0x42842E0E EQ PUSH2 0x43E JUMPI DUP1 PUSH4 0x45576F94 EQ PUSH2 0x45E JUMPI DUP1 PUSH4 0x4E9E1EC6 EQ PUSH2 0x47E JUMPI DUP1 PUSH4 0x4F6CCCE7 EQ PUSH2 0x494 JUMPI DUP1 PUSH4 0x5506A120 EQ PUSH2 0x4B4 JUMPI DUP1 PUSH4 0x595EE598 EQ PUSH2 0x4E1 JUMPI PUSH1 0x0 DUP1 REVERT JUMPDEST DUP1 PUSH4 0x23002C71 GT PUSH2 0x250 JUMPI DUP1 PUSH4 0x23002C71 EQ PUSH2 0x388 JUMPI DUP1 PUSH4 0x23B872DD EQ PUSH2 0x3A8 JUMPI DUP1 PUSH4 0x28DA575B EQ PUSH2 0x3C8 JUMPI DUP1 PUSH4 0x28E6DE93 EQ PUSH2 0x3E8 JUMPI DUP1 PUSH4 0x2F745C59 EQ PUSH2 0x408 JUMPI DUP1 PUSH4 0x3E22CEB0 EQ PUSH2 0x428 JUMPI PUSH1 0x0 DUP1 REVERT JUMPDEST DUP1 PUSH4 0x1FFC9A7 EQ PUSH2 0x298 JUMPI DUP1 PUSH4 0x6FDDE03 EQ PUSH2 0x2CD JUMPI DUP1 PUSH4 0x81812FC EQ PUSH2 0x2EF JUMPI DUP1 PUSH4 0x95EA7B3 EQ PUSH2 0x327 JUMPI DUP1 PUSH4 0x162094C4 EQ PUSH2 0x349 JUMPI DUP1 PUSH4 0x18160DDD EQ PUSH2 0x369 JUMPI JUMPDEST PUSH1 0x0 DUP1 REVERT JUMPDEST CALLVALUE DUP1 ISZERO PUSH2 0x2A4 JUMPI PUSH1 0x0 DUP1 REVERT JUMPDEST POP PUSH2 0x2B8 PUSH2 0x2B3 CALLDATASIZE PUSH1 0x4 PUSH2 0x2DCF JUMP JUMPDEST PUSH2 0x8D0 JUMP JUMPDEST PUSH1 0x40 MLOAD SWAP1 ISZERO ISZERO DUP2 MSTORE PUSH1 0x20 ADD JUMPDEST PUSH1 0x40 MLOAD DUP1 SWAP2 SUB SWAP1 RETURN JUMPDEST CALLVALUE DUP1 ISZERO PUSH2 0x2D9 JUMPI PUSH1 0x0 DUP1 REVERT JUMPDEST POP PUSH2 0x2E2 PUSH2 0x8E1 JUMP JUMPDEST PUSH1 0x40 MLOAD PUSH2 0x2C4 SWAP2 SWAP1 PUSH2 0x2E44 JUMP JUMPDEST CALLVALUE DUP1 ISZERO PUSH2 0x2FB JUMPI PUSH1 0x0 DUP1 REVERT JUMPDEST POP PUSH2 0x30F PUSH2 0x30A CALLDATASIZE PUSH1 0x4 PUSH2 0x2E57 JUMP JUMPDEST PUSH2 0x973 JUMP JUMPDEST PUSH1 0x40 MLOAD PUSH1 0x1 PUSH1 0x1 PUSH1 0xA0 SHL SUB SWAP1 SWAP2 AND DUP2 MSTORE PUSH1 0x20 ADD PUSH2 0x2C4 JUMP JUMPDEST CALLVALUE DUP1 ISZERO PUSH2 0x333 JUMPI PUSH1 0x0 DUP1 REVERT JUMPDEST POP PUSH2 0x347 PUSH2 0x342 CALLDATASIZE PUSH1 0x4 PUSH2 0x2E87 JUMP JUMPDEST PUSH2 0xA00 JUMP JUMPDEST STOP JUMPDEST CALLVALUE DUP1 ISZERO PUSH2 0x355 JUMPI PUSH1 0x0 DUP1 REVERT JUMPDEST POP PUSH2 0x347 PUSH2 0x364 CALLDATASIZE PUSH1 0x4 PUSH2 0x2F5D JUMP JUMPDEST PUSH2 0xB16 JUMP JUMPDEST CALLVALUE DUP1 ISZERO PUSH2 0x375 JUMPI PUSH1 0x0 DUP1 REVERT JUMPDEST POP PUSH1 0x9 SLOAD JUMPDEST PUSH1 0x40 MLOAD SWAP1 DUP2 MSTORE PUSH1 0x20 ADD PUSH2 0x2C4 JUMP JUMPDEST CALLVALUE DUP1 ISZERO PUSH2 0x394 JUMPI PUSH1 0x0 DUP1 REVERT JUMPDEST POP PUSH2 0x347 PUSH2 0x3A3 CALLDATASIZE PUSH1 0x4 PUSH2 0x2E57 JUMP JUMPDEST PUSH2 0xB86 JUMP JUMPDEST CALLVALUE DUP1 ISZERO PUSH2 0x3B4 JUMPI PUSH1 0x0 DUP1 REVERT JUMPDEST POP PUSH2 0x347 PUSH2 0x3C3 CALLDATASIZE PUSH1 0x4 PUSH2 0x2FA4 JUMP JUMPDEST PUSH2 0xBB5 JUMP JUMPDEST CALLVALUE DUP1 ISZERO PUSH2 0x3D4 JUMPI PUSH1 0x0 DUP1 REVERT JUMPDEST POP PUSH2 0x2B8 PUSH2 0x3E3 CALLDATASIZE PUSH1 0x4 PUSH2 0x2FE0 JUMP JUMPDEST PUSH2 0xBE6 JUMP JUMPDEST CALLVALUE DUP1 ISZERO PUSH2 0x3F4 JUMPI PUSH1 0x0 DUP1 REVERT JUMPDEST POP PUSH2 0x347 PUSH2 0x403 CALLDATASIZE PUSH1 0x4 PUSH2 0x2E57 JUMP JUMPDEST PUSH2 0xC64 JUMP JUMPDEST CALLVALUE DUP1 ISZERO PUSH2 0x414 JUMPI PUSH1 0x0 DUP1 REVERT JUMPDEST POP PUSH2 0x37A PUSH2 0x423 CALLDATASIZE PUSH1 0x4 PUSH2 0x2E87 JUMP JUMPDEST PUSH2 0xC93 JUMP JUMPDEST CALLVALUE DUP1 ISZERO PUSH2 0x434 JUMPI PUSH1 0x0 DUP1 REVERT JUMPDEST POP PUSH2 0x37A PUSH1 0x10 SLOAD DUP2 JUMP JUMPDEST CALLVALUE DUP1 ISZERO PUSH2 0x44A JUMPI PUSH1 0x0 DUP1 REVERT JUMPDEST POP PUSH2 0x347 PUSH2 0x459 CALLDATASIZE PUSH1 0x4 PUSH2 0x2FA4 JUMP JUMPDEST PUSH2 0xD29 JUMP JUMPDEST CALLVALUE DUP1 ISZERO PUSH2 0x46A JUMPI PUSH1 0x0 DUP1 REVERT JUMPDEST POP PUSH2 0x37A PUSH2 0x479 CALLDATASIZE PUSH1 0x4 PUSH2 0x2FFB JUMP JUMPDEST PUSH2 0xD44 JUMP JUMPDEST CALLVALUE DUP1 ISZERO PUSH2 0x48A JUMPI PUSH1 0x0 DUP1 REVERT JUMPDEST POP PUSH2 0x37A PUSH1 0x11 SLOAD DUP2 JUMP JUMPDEST CALLVALUE DUP1 ISZERO PUSH2 0x4A0 JUMPI PUSH1 0x0 DUP1 REVERT JUMPDEST POP PUSH2 0x37A PUSH2 0x4AF CALLDATASIZE PUSH1 0x4 PUSH2 0x2E57 JUMP JUMPDEST PUSH2 0xE92 JUMP JUMPDEST CALLVALUE DUP1 ISZERO PUSH2 0x4C0 JUMPI PUSH1 0x0 DUP1 REVERT JUMPDEST POP PUSH2 0x37A PUSH2 0x4CF CALLDATASIZE PUSH1 0x4 PUSH2 0x2FE0 JUMP JUMPDEST PUSH1 0x16 PUSH1 0x20 MSTORE PUSH1 0x0 SWAP1 DUP2 MSTORE PUSH1 0x40 SWAP1 KECCAK256 SLOAD DUP2 JUMP JUMPDEST CALLVALUE DUP1 ISZERO PUSH2 0x4ED JUMPI PUSH1 0x0 DUP1 REVERT JUMPDEST POP PUSH2 0x501 PUSH2 0x4FC CALLDATASIZE PUSH1 0x4 PUSH2 0x2FE0 JUMP JUMPDEST PUSH2 0xF25 JUMP JUMPDEST PUSH1 0x40 MLOAD PUSH2 0x2C4 SWAP2 SWAP1 PUSH2 0x3030 JUMP JUMPDEST CALLVALUE DUP1 ISZERO PUSH2 0x51A JUMPI PUSH1 0x0 DUP1 REVERT JUMPDEST POP PUSH2 0x30F PUSH2 0x529 CALLDATASIZE PUSH1 0x4 PUSH2 0x2E57 JUMP JUMPDEST PUSH1 0x15 PUSH1 0x20 MSTORE PUSH1 0x0 SWAP1 DUP2 MSTORE PUSH1 0x40 SWAP1 KECCAK256 SLOAD PUSH1 0x1 PUSH1 0x1 PUSH1 0xA0 SHL SUB AND DUP2 JUMP JUMPDEST CALLVALUE DUP1 ISZERO PUSH2 0x550 JUMPI PUSH1 0x0 DUP1 REVERT JUMPDEST POP PUSH2 0x30F PUSH2 0x55F CALLDATASIZE PUSH1 0x4 PUSH2 0x2E57 JUMP JUMPDEST PUSH2 0xFC7 JUMP JUMPDEST CALLVALUE DUP1 ISZERO PUSH2 0x570 JUMPI PUSH1 0x0 DUP1 REVERT JUMPDEST POP PUSH2 0x347 PUSH2 0x103E JUMP JUMPDEST CALLVALUE DUP1 ISZERO PUSH2 0x585 JUMPI PUSH1 0x0 DUP1 REVERT JUMPDEST POP PUSH2 0x37A PUSH2 0x594 CALLDATASIZE PUSH1 0x4 PUSH2 0x2FE0 JUMP JUMPDEST PUSH2 0x1187 JUMP JUMPDEST CALLVALUE DUP1 ISZERO PUSH2 0x5A5 JUMPI PUSH1 0x0 DUP1 REVERT JUMPDEST POP PUSH2 0x347 PUSH2 0x120E JUMP JUMPDEST CALLVALUE DUP1 ISZERO PUSH2 0x5BA JUMPI PUSH1 0x0 DUP1 REVERT JUMPDEST POP PUSH2 0x347 PUSH2 0x5C9 CALLDATASIZE PUSH1 0x4 PUSH2 0x2E87 JUMP JUMPDEST PUSH2 0x1244 JUMP JUMPDEST CALLVALUE DUP1 ISZERO PUSH2 0x5DA JUMPI PUSH1 0x0 DUP1 REVERT JUMPDEST POP PUSH2 0x347 PUSH2 0x5E9 CALLDATASIZE PUSH1 0x4 PUSH2 0x3074 JUMP JUMPDEST PUSH2 0x129C JUMP JUMPDEST CALLVALUE DUP1 ISZERO PUSH2 0x5FA JUMPI PUSH1 0x0 DUP1 REVERT JUMPDEST POP PUSH2 0x347 PUSH2 0x609 CALLDATASIZE PUSH1 0x4 PUSH2 0x2FE0 JUMP JUMPDEST PUSH2 0x12D8 JUMP JUMPDEST CALLVALUE DUP1 ISZERO PUSH2 0x61A JUMPI PUSH1 0x0 DUP1 REVERT JUMPDEST POP PUSH2 0x347 PUSH2 0x629 CALLDATASIZE PUSH1 0x4 PUSH2 0x2FFB JUMP JUMPDEST PUSH2 0x1324 JUMP JUMPDEST PUSH2 0x347 PUSH2 0x1365 JUMP JUMPDEST CALLVALUE DUP1 ISZERO PUSH2 0x642 JUMPI PUSH1 0x0 DUP1 REVERT JUMPDEST POP PUSH1 0xF SLOAD PUSH2 0x30F SWAP1 PUSH1 0x1 PUSH1 0x1 PUSH1 0xA0 SHL SUB AND DUP2 JUMP JUMPDEST CALLVALUE DUP1 ISZERO PUSH2 0x662 JUMPI PUSH1 0x0 DUP1 REVERT JUMPDEST POP PUSH1 0xB SLOAD PUSH1 0x1 PUSH1 0x1 PUSH1 0xA0 SHL SUB AND PUSH2 0x30F JUMP JUMPDEST CALLVALUE DUP1 ISZERO PUSH2 0x680 JUMPI PUSH1 0x0 DUP1 REVERT JUMPDEST POP PUSH2 0x694 PUSH2 0x68F CALLDATASIZE PUSH1 0x4 PUSH2 0x2FE0 JUMP JUMPDEST PUSH2 0x1521 JUMP JUMPDEST PUSH1 0x40 MLOAD PUSH2 0x2C4 SWAP2 SWAP1 PUSH2 0x3096 JUMP JUMPDEST CALLVALUE DUP1 ISZERO PUSH2 0x6AD JUMPI PUSH1 0x0 DUP1 REVERT JUMPDEST POP PUSH2 0x2E2 PUSH2 0x15DB JUMP JUMPDEST CALLVALUE DUP1 ISZERO PUSH2 0x6C2 JUMPI PUSH1 0x0 DUP1 REVERT JUMPDEST POP PUSH2 0x347 PUSH2 0x6D1 CALLDATASIZE PUSH1 0x4 PUSH2 0x2E57 JUMP JUMPDEST PUSH2 0x15EA JUMP JUMPDEST CALLVALUE DUP1 ISZERO PUSH2 0x6E2 JUMPI PUSH1 0x0 DUP1 REVERT JUMPDEST POP PUSH2 0x347 PUSH2 0x6F1 CALLDATASIZE PUSH1 0x4 PUSH2 0x3106 JUMP JUMPDEST PUSH2 0x1619 JUMP JUMPDEST CALLVALUE DUP1 ISZERO PUSH2 0x702 JUMPI PUSH1 0x0 DUP1 REVERT JUMPDEST POP PUSH2 0x347 PUSH2 0x1624 JUMP JUMPDEST CALLVALUE DUP1 ISZERO PUSH2 0x717 JUMPI PUSH1 0x0 DUP1 REVERT JUMPDEST POP PUSH1 0xC SLOAD PUSH2 0x37A SWAP1 DUP2 JUMP JUMPDEST CALLVALUE DUP1 ISZERO PUSH2 0x72E JUMPI PUSH1 0x0 DUP1 REVERT JUMPDEST POP PUSH2 0x37A PUSH2 0x73D CALLDATASIZE PUSH1 0x4 PUSH2 0x2E57 JUMP JUMPDEST PUSH1 0x14 PUSH1 0x20 MSTORE PUSH1 0x0 SWAP1 DUP2 MSTORE PUSH1 0x40 SWAP1 KECCAK256 SLOAD DUP2 JUMP JUMPDEST CALLVALUE DUP1 ISZERO PUSH2 0x75B JUMPI PUSH1 0x0 DUP1 REVERT JUMPDEST POP PUSH2 0x347 PUSH2 0x76A CALLDATASIZE PUSH1 0x4 PUSH2 0x313D JUMP JUMPDEST PUSH2 0x1888 JUMP JUMPDEST CALLVALUE DUP1 ISZERO PUSH2 0x77B JUMPI PUSH1 0x0 DUP1 REVERT JUMPDEST POP PUSH2 0x37A PUSH2 0x78A CALLDATASIZE PUSH1 0x4 PUSH2 0x2FE0 JUMP JUMPDEST PUSH1 0x17 PUSH1 0x20 MSTORE PUSH1 0x0 SWAP1 DUP2 MSTORE PUSH1 0x40 SWAP1 KECCAK256 SLOAD DUP2 JUMP JUMPDEST CALLVALUE DUP1 ISZERO PUSH2 0x7A8 JUMPI PUSH1 0x0 DUP1 REVERT JUMPDEST POP PUSH2 0x37A PUSH1 0x12 SLOAD DUP2 JUMP JUMPDEST CALLVALUE DUP1 ISZERO PUSH2 0x7BE JUMPI PUSH1 0x0 DUP1 REVERT JUMPDEST POP PUSH2 0x2E2 PUSH2 0x7CD CALLDATASIZE PUSH1 0x4 PUSH2 0x2E57 JUMP JUMPDEST PUSH2 0x18C0 JUMP JUMPDEST CALLVALUE DUP1 ISZERO PUSH2 0x7DE JUMPI PUSH1 0x0 DUP1 REVERT JUMPDEST POP PUSH1 0xE SLOAD PUSH2 0x30F SWAP1 PUSH1 0x1 PUSH1 0x1 PUSH1 0xA0 SHL SUB AND DUP2 JUMP JUMPDEST CALLVALUE DUP1 ISZERO PUSH2 0x7FE JUMPI PUSH1 0x0 DUP1 REVERT JUMPDEST POP PUSH2 0x2E2 PUSH2 0x18CB JUMP JUMPDEST CALLVALUE DUP1 ISZERO PUSH2 0x813 JUMPI PUSH1 0x0 DUP1 REVERT JUMPDEST POP PUSH1 0xD SLOAD PUSH2 0x30F SWAP1 PUSH1 0x1 PUSH1 0x1 PUSH1 0xA0 SHL SUB AND DUP2 JUMP JUMPDEST CALLVALUE DUP1 ISZERO PUSH2 0x833 JUMPI PUSH1 0x0 DUP1 REVERT JUMPDEST POP PUSH2 0x347 PUSH2 0x842 CALLDATASIZE PUSH1 0x4 PUSH2 0x2FE0 JUMP JUMPDEST PUSH2 0x1959 JUMP JUMPDEST CALLVALUE DUP1 ISZERO PUSH2 0x853 JUMPI PUSH1 0x0 DUP1 REVERT JUMPDEST POP PUSH2 0x2B8 PUSH2 0x862 CALLDATASIZE PUSH1 0x4 PUSH2 0x31B9 JUMP JUMPDEST PUSH1 0x1 PUSH1 0x1 PUSH1 0xA0 SHL SUB SWAP2 DUP3 AND PUSH1 0x0 SWAP1 DUP2 MSTORE PUSH1 0x5 PUSH1 0x20 SWAP1 DUP2 MSTORE PUSH1 0x40 DUP1 DUP4 KECCAK256 SWAP4 SWAP1 SWAP5 AND DUP3 MSTORE SWAP2 SWAP1 SWAP2 MSTORE KECCAK256 SLOAD PUSH1 0xFF AND SWAP1 JUMP JUMPDEST CALLVALUE DUP1 ISZERO PUSH2 0x89C JUMPI PUSH1 0x0 DUP1 REVERT JUMPDEST POP PUSH2 0x347 PUSH2 0x8AB CALLDATASIZE PUSH1 0x4 PUSH2 0x2FE0 JUMP JUMPDEST PUSH2 0x19A5 JUMP JUMPDEST CALLVALUE DUP1 ISZERO PUSH2 0x8BC JUMPI PUSH1 0x0 DUP1 REVERT JUMPDEST POP PUSH2 0x501 PUSH2 0x8CB CALLDATASIZE PUSH1 0x4 PUSH2 0x2E57 JUMP JUMPDEST PUSH2 0x1A3D JUMP JUMPDEST PUSH1 0x0 PUSH2 0x8DB DUP3 PUSH2 0x1FCC JUMP JUMPDEST SWAP3 SWAP2 POP POP JUMP JUMPDEST PUSH1 0x60 PUSH1 0x0 DUP1 SLOAD PUSH2 0x8F0 SWAP1 PUSH2 0x31EC JUMP JUMPDEST DUP1 PUSH1 0x1F ADD PUSH1 0x20 DUP1 SWAP2 DIV MUL PUSH1 0x20 ADD PUSH1 0x40 MLOAD SWAP1 DUP2 ADD PUSH1 0x40 MSTORE DUP1 SWAP3 SWAP2 SWAP1 DUP2 DUP2 MSTORE PUSH1 0x20 ADD DUP3 DUP1 SLOAD PUSH2 0x91C SWAP1 PUSH2 0x31EC JUMP JUMPDEST DUP1 ISZERO PUSH2 0x969 JUMPI DUP1 PUSH1 0x1F LT PUSH2 0x93E JUMPI PUSH2 0x100 DUP1 DUP4 SLOAD DIV MUL DUP4 MSTORE SWAP2 PUSH1 0x20 ADD SWAP2 PUSH2 0x969 JUMP JUMPDEST DUP3 ADD SWAP2 SWAP1 PUSH1 0x0 MSTORE PUSH1 0x20 PUSH1 0x0 KECCAK256 SWAP1 JUMPDEST DUP2 SLOAD DUP2 MSTORE SWAP1 PUSH1 0x1 ADD SWAP1 PUSH1 0x20 ADD DUP1 DUP4 GT PUSH2 0x94C JUMPI DUP3 SWAP1 SUB PUSH1 0x1F AND DUP3 ADD SWAP2 JUMPDEST POP POP POP POP POP SWAP1 POP SWAP1 JUMP JUMPDEST PUSH1 0x0 PUSH2 0x97E DUP3 PUSH2 0x1FF1 JUMP JUMPDEST PUSH2 0x9E4 JUMPI PUSH1 0x40 MLOAD PUSH3 0x461BCD PUSH1 0xE5 SHL DUP2 MSTORE PUSH1 0x20 PUSH1 0x4 DUP3 ADD MSTORE PUSH1 0x2C PUSH1 0x24 DUP3 ADD MSTORE PUSH32 0x4552433732313A20617070726F76656420717565727920666F72206E6F6E6578 PUSH1 0x44 DUP3 ADD MSTORE PUSH12 0x34B9BA32B73A103A37B5B2B7 PUSH1 0xA1 SHL PUSH1 0x64 DUP3 ADD MSTORE PUSH1 0x84 ADD JUMPDEST PUSH1 0x40 MLOAD DUP1 SWAP2 SUB SWAP1 REVERT JUMPDEST POP PUSH1 0x0 SWAP1 DUP2 MSTORE PUSH1 0x4 PUSH1 0x20 MSTORE PUSH1 0x40 SWAP1 KECCAK256 SLOAD PUSH1 0x1 PUSH1 0x1 PUSH1 0xA0 SHL SUB AND SWAP1 JUMP JUMPDEST PUSH1 0x0 PUSH2 0xA0B DUP3 PUSH2 0xFC7 JUMP JUMPDEST SWAP1 POP DUP1 PUSH1 0x1 PUSH1 0x1 PUSH1 0xA0 SHL SUB AND DUP4 PUSH1 0x1 PUSH1 0x1 PUSH1 0xA0 SHL SUB AND EQ ISZERO PUSH2 0xA79 JUMPI PUSH1 0x40 MLOAD PUSH3 0x461BCD PUSH1 0xE5 SHL DUP2 MSTORE PUSH1 0x20 PUSH1 0x4 DUP3 ADD MSTORE PUSH1 0x21 PUSH1 0x24 DUP3 ADD MSTORE PUSH32 0x4552433732313A20617070726F76616C20746F2063757272656E74206F776E65 PUSH1 0x44 DUP3 ADD MSTORE PUSH1 0x39 PUSH1 0xF9 SHL PUSH1 0x64 DUP3 ADD MSTORE PUSH1 0x84 ADD PUSH2 0x9DB JUMP JUMPDEST CALLER PUSH1 0x1 PUSH1 0x1 PUSH1 0xA0 SHL SUB DUP3 AND EQ DUP1 PUSH2 0xA95 JUMPI POP PUSH2 0xA95 DUP2 CALLER PUSH2 0x862 JUMP JUMPDEST PUSH2 0xB07 JUMPI PUSH1 0x40 MLOAD PUSH3 0x461BCD PUSH1 0xE5 SHL DUP2 MSTORE PUSH1 0x20 PUSH1 0x4 DUP3 ADD MSTORE PUSH1 0x38 PUSH1 0x24 DUP3 ADD MSTORE PUSH32 0x4552433732313A20617070726F76652063616C6C6572206973206E6F74206F77 PUSH1 0x44 DUP3 ADD MSTORE PUSH32 0x6E6572206E6F7220617070726F76656420666F7220616C6C0000000000000000 PUSH1 0x64 DUP3 ADD MSTORE PUSH1 0x84 ADD PUSH2 0x9DB JUMP JUMPDEST PUSH2 0xB11 DUP4 DUP4 PUSH2 0x200E JUMP JUMPDEST POP POP POP JUMP JUMPDEST PUSH1 0xB SLOAD PUSH1 0x1 PUSH1 0x1 PUSH1 0xA0 SHL SUB AND CALLER EQ PUSH2 0xB40 JUMPI PUSH1 0x40 MLOAD PUSH3 0x461BCD PUSH1 0xE5 SHL DUP2 MSTORE PUSH1 0x4 ADD PUSH2 0x9DB SWAP1 PUSH2 0x3227 JUMP JUMPDEST PUSH2 0xB4A DUP3 DUP3 PUSH2 0x207C JUMP JUMPDEST DUP2 PUSH32 0xC794E2271B51F209D8A645EEC85692351AD1ADC857AB2E06F9C5AF7961CF07D5 DUP3 PUSH1 0x40 MLOAD PUSH2 0xB7A SWAP2 SWAP1 PUSH2 0x2E44 JUMP JUMPDEST PUSH1 0x40 MLOAD DUP1 SWAP2 SUB SWAP1 LOG2 POP POP JUMP JUMPDEST PUSH1 0xB SLOAD PUSH1 0x1 PUSH1 0x1 PUSH1 0xA0 SHL SUB AND CALLER EQ PUSH2 0xBB0 JUMPI PUSH1 0x40 MLOAD PUSH3 0x461BCD PUSH1 0xE5 SHL DUP2 MSTORE PUSH1 0x4 ADD PUSH2 0x9DB SWAP1 PUSH2 0x3227 JUMP JUMPDEST PUSH1 0x12 SSTORE JUMP JUMPDEST PUSH2 0xBBF CALLER DUP3 PUSH2 0x2107 JUMP JUMPDEST PUSH2 0xBDB JUMPI PUSH1 0x40 MLOAD PUSH3 0x461BCD PUSH1 0xE5 SHL DUP2 MSTORE PUSH1 0x4 ADD PUSH2 0x9DB SWAP1 PUSH2 0x325C JUMP JUMPDEST PUSH2 0xB11 DUP4 DUP4 DUP4 PUSH2 0x21F1 JUMP JUMPDEST PUSH1 0xE SLOAD PUSH1 0x40 MLOAD PUSH4 0x28DA575B PUSH1 0xE0 SHL DUP2 MSTORE PUSH1 0x1 PUSH1 0x1 PUSH1 0xA0 SHL SUB DUP4 DUP2 AND PUSH1 0x4 DUP4 ADD MSTORE PUSH1 0x0 SWAP3 AND SWAP1 PUSH4 0x28DA575B SWAP1 PUSH1 0x24 ADD PUSH1 0x20 PUSH1 0x40 MLOAD DUP1 DUP4 SUB DUP2 DUP7 DUP1 EXTCODESIZE ISZERO DUP1 ISZERO PUSH2 0xC2C JUMPI PUSH1 0x0 DUP1 REVERT JUMPDEST POP GAS STATICCALL ISZERO DUP1 ISZERO PUSH2 0xC40 JUMPI RETURNDATASIZE PUSH1 0x0 DUP1 RETURNDATACOPY RETURNDATASIZE PUSH1 0x0 REVERT JUMPDEST POP POP POP POP PUSH1 0x40 MLOAD RETURNDATASIZE PUSH1 0x1F NOT PUSH1 0x1F DUP3 ADD AND DUP3 ADD DUP1 PUSH1 0x40 MSTORE POP DUP2 ADD SWAP1 PUSH2 0x8DB SWAP2 SWAP1 PUSH2 0x32AD JUMP JUMPDEST PUSH1 0xB SLOAD PUSH1 0x1 PUSH1 0x1 PUSH1 0xA0 SHL SUB AND CALLER EQ PUSH2 0xC8E JUMPI PUSH1 0x40 MLOAD PUSH3 0x461BCD PUSH1 0xE5 SHL DUP2 MSTORE PUSH1 0x4 ADD PUSH2 0x9DB SWAP1 PUSH2 0x3227 JUMP JUMPDEST PUSH1 0x10 SSTORE JUMP JUMPDEST PUSH1 0x0 PUSH2 0xC9E DUP4 PUSH2 0x1187 JUMP JUMPDEST DUP3 LT PUSH2 0xD00 JUMPI PUSH1 0x40 MLOAD PUSH3 0x461BCD PUSH1 0xE5 SHL DUP2 MSTORE PUSH1 0x20 PUSH1 0x4 DUP3 ADD MSTORE PUSH1 0x2B PUSH1 0x24 DUP3 ADD MSTORE PUSH32 0x455243373231456E756D657261626C653A206F776E657220696E646578206F75 PUSH1 0x44 DUP3 ADD MSTORE PUSH11 0x74206F6620626F756E6473 PUSH1 0xA8 SHL PUSH1 0x64 DUP3 ADD MSTORE PUSH1 0x84 ADD PUSH2 0x9DB JUMP JUMPDEST POP PUSH1 0x1 PUSH1 0x1 PUSH1 0xA0 SHL SUB SWAP2 SWAP1 SWAP2 AND PUSH1 0x0 SWAP1 DUP2 MSTORE PUSH1 0x7 PUSH1 0x20 SWAP1 DUP2 MSTORE PUSH1 0x40 DUP1 DUP4 KECCAK256 SWAP4 DUP4 MSTORE SWAP3 SWAP1 MSTORE KECCAK256 SLOAD SWAP1 JUMP JUMPDEST PUSH2 0xB11 DUP4 DUP4 DUP4 PUSH1 0x40 MLOAD DUP1 PUSH1 0x20 ADD PUSH1 0x40 MSTORE DUP1 PUSH1 0x0 DUP2 MSTORE POP PUSH2 0x1888 JUMP JUMPDEST PUSH1 0xB SLOAD PUSH1 0x0 SWAP1 PUSH1 0x1 PUSH1 0x1 PUSH1 0xA0 SHL SUB AND CALLER EQ PUSH2 0xD71 JUMPI PUSH1 0x40 MLOAD PUSH3 0x461BCD PUSH1 0xE5 SHL DUP2 MSTORE PUSH1 0x4 ADD PUSH2 0x9DB SWAP1 PUSH2 0x3227 JUMP JUMPDEST PUSH2 0xD7F PUSH1 0xC DUP1 SLOAD PUSH1 0x1 ADD SWAP1 SSTORE JUMP JUMPDEST PUSH1 0x0 PUSH2 0xD8A PUSH1 0xC SLOAD SWAP1 JUMP JUMPDEST PUSH1 0x10 SLOAD PUSH1 0x0 DUP3 DUP2 MSTORE PUSH1 0x14 PUSH1 0x20 MSTORE PUSH1 0x40 SWAP1 KECCAK256 SSTORE SWAP1 POP PUSH2 0xDA8 CALLER DUP3 PUSH2 0x2398 JUMP JUMPDEST PUSH2 0xE3C DUP2 PUSH1 0x13 DUP1 SLOAD PUSH2 0xDB9 SWAP1 PUSH2 0x31EC JUMP JUMPDEST DUP1 PUSH1 0x1F ADD PUSH1 0x20 DUP1 SWAP2 DIV MUL PUSH1 0x20 ADD PUSH1 0x40 MLOAD SWAP1 DUP2 ADD PUSH1 0x40 MSTORE DUP1 SWAP3 SWAP2 SWAP1 DUP2 DUP2 MSTORE PUSH1 0x20 ADD DUP3 DUP1 SLOAD PUSH2 0xDE5 SWAP1 PUSH2 0x31EC JUMP JUMPDEST DUP1 ISZERO PUSH2 0xE32 JUMPI DUP1 PUSH1 0x1F LT PUSH2 0xE07 JUMPI PUSH2 0x100 DUP1 DUP4 SLOAD DIV MUL DUP4 MSTORE SWAP2 PUSH1 0x20 ADD SWAP2 PUSH2 0xE32 JUMP JUMPDEST DUP3 ADD SWAP2 SWAP1 PUSH1 0x0 MSTORE PUSH1 0x20 PUSH1 0x0 KECCAK256 SWAP1 JUMPDEST DUP2 SLOAD DUP2 MSTORE SWAP1 PUSH1 0x1 ADD SWAP1 PUSH1 0x20 ADD DUP1 DUP4 GT PUSH2 0xE15 JUMPI DUP3 SWAP1 SUB PUSH1 0x1F AND DUP3 ADD SWAP2 JUMPDEST POP POP POP POP POP PUSH2 0x207C JUMP JUMPDEST PUSH2 0xE46 ADDRESS DUP3 PUSH2 0xA00 JUMP JUMPDEST PUSH1 0xD SLOAD PUSH2 0xE5D SWAP1 PUSH1 0x1 PUSH1 0x1 PUSH1 0xA0 SHL SUB AND PUSH1 0x1 PUSH2 0x1619 JUMP JUMPDEST PUSH1 0x40 MLOAD DUP2 SWAP1 CALLER SWAP1 PUSH32 0x86C96E58B5E24FD4DB3EA2D3803238D011FC9BABE088B2CB856F8A1A80A224A9 SWAP1 PUSH1 0x0 SWAP1 LOG3 SWAP1 POP JUMPDEST SWAP2 SWAP1 POP JUMP JUMPDEST PUSH1 0x0 PUSH2 0xE9D PUSH1 0x9 SLOAD SWAP1 JUMP JUMPDEST DUP3 LT PUSH2 0xF00 JUMPI PUSH1 0x40 MLOAD PUSH3 0x461BCD PUSH1 0xE5 SHL DUP2 MSTORE PUSH1 0x20 PUSH1 0x4 DUP3 ADD MSTORE PUSH1 0x2C PUSH1 0x24 DUP3 ADD MSTORE PUSH32 0x455243373231456E756D657261626C653A20676C6F62616C20696E646578206F PUSH1 0x44 DUP3 ADD MSTORE PUSH12 0x7574206F6620626F756E6473 PUSH1 0xA0 SHL PUSH1 0x64 DUP3 ADD MSTORE PUSH1 0x84 ADD PUSH2 0x9DB JUMP JUMPDEST PUSH1 0x9 DUP3 DUP2 SLOAD DUP2 LT PUSH2 0xF13 JUMPI PUSH2 0xF13 PUSH2 0x32CA JUMP JUMPDEST SWAP1 PUSH1 0x0 MSTORE PUSH1 0x20 PUSH1 0x0 KECCAK256 ADD SLOAD SWAP1 POP SWAP2 SWAP1 POP JUMP JUMPDEST PUSH1 0x60 PUSH1 0x0 PUSH2 0xF32 DUP4 PUSH2 0x1187 JUMP JUMPDEST SWAP1 POP PUSH1 0x0 DUP2 PUSH8 0xFFFFFFFFFFFFFFFF DUP2 GT ISZERO PUSH2 0xF4F JUMPI PUSH2 0xF4F PUSH2 0x2EB1 JUMP JUMPDEST PUSH1 0x40 MLOAD SWAP1 DUP1 DUP3 MSTORE DUP1 PUSH1 0x20 MUL PUSH1 0x20 ADD DUP3 ADD PUSH1 0x40 MSTORE DUP1 ISZERO PUSH2 0xF78 JUMPI DUP2 PUSH1 0x20 ADD PUSH1 0x20 DUP3 MUL DUP1 CALLDATASIZE DUP4 CALLDATACOPY ADD SWAP1 POP JUMPDEST POP SWAP1 POP PUSH1 0x0 JUMPDEST DUP3 DUP2 LT ISZERO PUSH2 0xFBF JUMPI PUSH2 0xF90 DUP6 DUP3 PUSH2 0xC93 JUMP JUMPDEST DUP3 DUP3 DUP2 MLOAD DUP2 LT PUSH2 0xFA2 JUMPI PUSH2 0xFA2 PUSH2 0x32CA JUMP JUMPDEST PUSH1 0x20 SWAP1 DUP2 MUL SWAP2 SWAP1 SWAP2 ADD ADD MSTORE DUP1 PUSH2 0xFB7 DUP2 PUSH2 0x32F6 JUMP JUMPDEST SWAP2 POP POP PUSH2 0xF7E JUMP JUMPDEST POP SWAP4 SWAP3 POP POP POP JUMP JUMPDEST PUSH1 0x0 DUP2 DUP2 MSTORE PUSH1 0x2 PUSH1 0x20 MSTORE PUSH1 0x40 DUP2 KECCAK256 SLOAD PUSH1 0x1 PUSH1 0x1 PUSH1 0xA0 SHL SUB AND DUP1 PUSH2 0x8DB JUMPI PUSH1 0x40 MLOAD PUSH3 0x461BCD PUSH1 0xE5 SHL DUP2 MSTORE PUSH1 0x20 PUSH1 0x4 DUP3 ADD MSTORE PUSH1 0x29 PUSH1 0x24 DUP3 ADD MSTORE PUSH32 0x4552433732313A206F776E657220717565727920666F72206E6F6E6578697374 PUSH1 0x44 DUP3 ADD MSTORE PUSH9 0x32B73A103A37B5B2B7 PUSH1 0xB9 SHL PUSH1 0x64 DUP3 ADD MSTORE PUSH1 0x84 ADD PUSH2 0x9DB JUMP JUMPDEST PUSH1 0xB SLOAD PUSH1 0x1 PUSH1 0x1 PUSH1 0xA0 SHL SUB AND CALLER EQ PUSH2 0x1068 JUMPI PUSH1 0x40 MLOAD PUSH3 0x461BCD PUSH1 0xE5 SHL DUP2 MSTORE PUSH1 0x4 ADD PUSH2 0x9DB SWAP1 PUSH2 0x3227 JUMP JUMPDEST PUSH1 0xF SLOAD PUSH1 0x1 PUSH1 0x1 PUSH1 0xA0 SHL SUB AND PUSH4 0xA9059CBB PUSH2 0x108B PUSH1 0xB SLOAD PUSH1 0x1 PUSH1 0x1 PUSH1 0xA0 SHL SUB AND SWAP1 JUMP JUMPDEST PUSH1 0xF SLOAD PUSH1 0x40 MLOAD PUSH4 0x70A08231 PUSH1 0xE0 SHL DUP2 MSTORE ADDRESS PUSH1 0x4 DUP3 ADD MSTORE PUSH1 0x1 PUSH1 0x1 PUSH1 0xA0 SHL SUB SWAP1 SWAP2 AND SWAP1 PUSH4 0x70A08231 SWAP1 PUSH1 0x24 ADD PUSH1 0x20 PUSH1 0x40 MLOAD DUP1 DUP4 SUB DUP2 DUP7 DUP1 EXTCODESIZE ISZERO DUP1 ISZERO PUSH2 0x10CE JUMPI PUSH1 0x0 DUP1 REVERT JUMPDEST POP GAS STATICCALL ISZERO DUP1 ISZERO PUSH2 0x10E2 JUMPI RETURNDATASIZE PUSH1 0x0 DUP1 RETURNDATACOPY RETURNDATASIZE PUSH1 0x0 REVERT JUMPDEST POP POP POP POP PUSH1 0x40 MLOAD RETURNDATASIZE PUSH1 0x1F NOT PUSH1 0x1F DUP3 ADD AND DUP3 ADD DUP1 PUSH1 0x40 MSTORE POP DUP2 ADD SWAP1 PUSH2 0x1106 SWAP2 SWAP1 PUSH2 0x3311 JUMP JUMPDEST PUSH1 0x40 MLOAD PUSH1 0x1 PUSH1 0x1 PUSH1 0xE0 SHL SUB NOT PUSH1 0xE0 DUP6 SWAP1 SHL AND DUP2 MSTORE PUSH1 0x1 PUSH1 0x1 PUSH1 0xA0 SHL SUB SWAP1 SWAP3 AND PUSH1 0x4 DUP4 ADD MSTORE PUSH1 0x24 DUP3 ADD MSTORE PUSH1 0x44 ADD PUSH1 0x20 PUSH1 0x40 MLOAD DUP1 DUP4 SUB DUP2 PUSH1 0x0 DUP8 DUP1 EXTCODESIZE ISZERO DUP1 ISZERO PUSH2 0x114C JUMPI PUSH1 0x0 DUP1 REVERT JUMPDEST POP GAS CALL ISZERO DUP1 ISZERO PUSH2 0x1160 JUMPI RETURNDATASIZE PUSH1 0x0 DUP1 RETURNDATACOPY RETURNDATASIZE PUSH1 0x0 REVERT JUMPDEST POP POP POP POP PUSH1 0x40 MLOAD RETURNDATASIZE PUSH1 0x1F NOT PUSH1 0x1F DUP3 ADD AND DUP3 ADD DUP1 PUSH1 0x40 MSTORE POP DUP2 ADD SWAP1 PUSH2 0x1184 SWAP2 SWAP1 PUSH2 0x32AD JUMP JUMPDEST POP JUMP JUMPDEST PUSH1 0x0 PUSH1 0x1 PUSH1 0x1 PUSH1 0xA0 SHL SUB DUP3 AND PUSH2 0x11F2 JUMPI PUSH1 0x40 MLOAD PUSH3 0x461BCD PUSH1 0xE5 SHL DUP2 MSTORE PUSH1 0x20 PUSH1 0x4 DUP3 ADD MSTORE PUSH1 0x2A PUSH1 0x24 DUP3 ADD MSTORE PUSH32 0x4552433732313A2062616C616E636520717565727920666F7220746865207A65 PUSH1 0x44 DUP3 ADD MSTORE PUSH10 0x726F2061646472657373 PUSH1 0xB0 SHL PUSH1 0x64 DUP3 ADD MSTORE PUSH1 0x84 ADD PUSH2 0x9DB JUMP JUMPDEST POP PUSH1 0x1 PUSH1 0x1 PUSH1 0xA0 SHL SUB AND PUSH1 0x0 SWAP1 DUP2 MSTORE PUSH1 0x3 PUSH1 0x20 MSTORE PUSH1 0x40 SWAP1 KECCAK256 SLOAD SWAP1 JUMP JUMPDEST PUSH1 0xB SLOAD PUSH1 0x1 PUSH1 0x1 PUSH1 0xA0 SHL SUB AND CALLER EQ PUSH2 0x1238 JUMPI PUSH1 0x40 MLOAD PUSH3 0x461BCD PUSH1 0xE5 SHL DUP2 MSTORE PUSH1 0x4 ADD PUSH2 0x9DB SWAP1 PUSH2 0x3227 JUMP JUMPDEST PUSH2 0x1242 PUSH1 0x0 PUSH2 0x24D7 JUMP JUMPDEST JUMP JUMPDEST PUSH1 0xB SLOAD PUSH1 0x1 PUSH1 0x1 PUSH1 0xA0 SHL SUB AND CALLER EQ PUSH2 0x126E JUMPI PUSH1 0x40 MLOAD PUSH3 0x461BCD PUSH1 0xE5 SHL DUP2 MSTORE PUSH1 0x4 ADD PUSH2 0x9DB SWAP1 PUSH2 0x3227 JUMP JUMPDEST PUSH1 0x0 SWAP1 DUP2 MSTORE PUSH1 0x15 PUSH1 0x20 MSTORE PUSH1 0x40 SWAP1 KECCAK256 DUP1 SLOAD PUSH1 0x1 PUSH1 0x1 PUSH1 0xA0 SHL SUB NOT AND PUSH1 0x1 PUSH1 0x1 PUSH1 0xA0 SHL SUB SWAP3 SWAP1 SWAP3 AND SWAP2 SWAP1 SWAP2 OR SWAP1 SSTORE JUMP JUMPDEST PUSH1 0xB SLOAD PUSH1 0x1 PUSH1 0x1 PUSH1 0xA0 SHL SUB AND CALLER EQ PUSH2 0x12C6 JUMPI PUSH1 0x40 MLOAD PUSH3 0x461BCD PUSH1 0xE5 SHL DUP2 MSTORE PUSH1 0x4 ADD PUSH2 0x9DB SWAP1 PUSH2 0x3227 JUMP JUMPDEST PUSH1 0x0 SWAP2 DUP3 MSTORE PUSH1 0x14 PUSH1 0x20 MSTORE PUSH1 0x40 SWAP1 SWAP2 KECCAK256 SSTORE JUMP JUMPDEST PUSH1 0xB SLOAD PUSH1 0x1 PUSH1 0x1 PUSH1 0xA0 SHL SUB AND CALLER EQ PUSH2 0x1302 JUMPI PUSH1 0x40 MLOAD PUSH3 0x461BCD PUSH1 0xE5 SHL DUP2 MSTORE PUSH1 0x4 ADD PUSH2 0x9DB SWAP1 PUSH2 0x3227 JUMP JUMPDEST PUSH1 0xF DUP1 SLOAD PUSH1 0x1 PUSH1 0x1 PUSH1 0xA0 SHL SUB NOT AND PUSH1 0x1 PUSH1 0x1 PUSH1 0xA0 SHL SUB SWAP3 SWAP1 SWAP3 AND SWAP2 SWAP1 SWAP2 OR SWAP1 SSTORE JUMP JUMPDEST PUSH1 0xB SLOAD PUSH1 0x1 PUSH1 0x1 PUSH1 0xA0 SHL SUB AND CALLER EQ PUSH2 0x134E JUMPI PUSH1 0x40 MLOAD PUSH3 0x461BCD PUSH1 0xE5 SHL DUP2 MSTORE PUSH1 0x4 ADD PUSH2 0x9DB SWAP1 PUSH2 0x3227 JUMP JUMPDEST DUP1 MLOAD PUSH2 0x1361 SWAP1 PUSH1 0x13 SWAP1 PUSH1 0x20 DUP5 ADD SWAP1 PUSH2 0x2D20 JUMP JUMPDEST POP POP JUMP JUMPDEST PUSH1 0x11 SLOAD CALLVALUE LT ISZERO PUSH2 0x1411 JUMPI PUSH1 0x40 MLOAD PUSH3 0x461BCD PUSH1 0xE5 SHL DUP2 MSTORE PUSH1 0x20 PUSH1 0x4 DUP3 ADD MSTORE PUSH1 0x65 PUSH1 0x24 DUP3 ADD MSTORE PUSH32 0x596F75206D757374206465706F73697420656E6F756768204D6174696320736F PUSH1 0x44 DUP3 ADD MSTORE PUSH32 0x2069742063616E206265206469766964656420627920746865206D6178696D75 PUSH1 0x64 DUP3 ADD MSTORE PUSH32 0x6D206E756D626572206F66204E465420686F6C6465727320666F722074686520 PUSH1 0x84 DUP3 ADD MSTORE PUSH5 0x3737B23297 PUSH1 0xD9 SHL PUSH1 0xA4 DUP3 ADD MSTORE PUSH1 0xC4 ADD PUSH2 0x9DB JUMP JUMPDEST PUSH1 0x0 PUSH2 0x141C PUSH1 0xC SLOAD SWAP1 JUMP JUMPDEST GT PUSH2 0x147D JUMPI PUSH1 0x40 MLOAD PUSH3 0x461BCD PUSH1 0xE5 SHL DUP2 MSTORE PUSH1 0x20 PUSH1 0x4 DUP3 ADD MSTORE PUSH1 0x2B PUSH1 0x24 DUP3 ADD MSTORE PUSH32 0x4E6F204E4654732068617665206265656E206D696E74656420666F7220746869 PUSH1 0x44 DUP3 ADD MSTORE PUSH11 0x39903737B232903CB2BA17 PUSH1 0xA9 SHL PUSH1 0x64 DUP3 ADD MSTORE PUSH1 0x84 ADD PUSH2 0x9DB JUMP JUMPDEST PUSH1 0x1 JUMPDEST PUSH1 0xC SLOAD DUP2 GT PUSH2 0x14F3 JUMPI PUSH1 0x0 PUSH2 0x1494 DUP3 PUSH2 0xFC7 JUMP JUMPDEST SWAP1 POP PUSH1 0x11 SLOAD CALLVALUE PUSH2 0x14A4 SWAP2 SWAP1 PUSH2 0x3340 JUMP JUMPDEST PUSH1 0x1 PUSH1 0x1 PUSH1 0xA0 SHL SUB DUP3 AND PUSH1 0x0 SWAP1 DUP2 MSTORE PUSH1 0x16 PUSH1 0x20 MSTORE PUSH1 0x40 SWAP1 KECCAK256 SLOAD PUSH2 0x14C7 SWAP2 SWAP1 PUSH2 0x3354 JUMP JUMPDEST PUSH1 0x1 PUSH1 0x1 PUSH1 0xA0 SHL SUB SWAP1 SWAP2 AND PUSH1 0x0 SWAP1 DUP2 MSTORE PUSH1 0x16 PUSH1 0x20 MSTORE PUSH1 0x40 SWAP1 KECCAK256 SSTORE DUP1 PUSH2 0x14EB DUP2 PUSH2 0x32F6 JUMP JUMPDEST SWAP2 POP POP PUSH2 0x1480 JUMP JUMPDEST POP PUSH1 0x40 MLOAD CALLVALUE SWAP1 PUSH32 0x1212ADF0641FFEFB93FBB2948F91DA450C6375780DBA1D933E2EF7BA1C543ED SWAP1 PUSH1 0x0 SWAP1 LOG2 JUMP JUMPDEST PUSH1 0x60 PUSH1 0x0 PUSH2 0x152E DUP4 PUSH2 0x1187 JUMP JUMPDEST SWAP1 POP PUSH1 0x0 DUP1 DUP3 PUSH8 0xFFFFFFFFFFFFFFFF DUP2 GT ISZERO PUSH2 0x154C JUMPI PUSH2 0x154C PUSH2 0x2EB1 JUMP JUMPDEST PUSH1 0x40 MLOAD SWAP1 DUP1 DUP3 MSTORE DUP1 PUSH1 0x20 MUL PUSH1 0x20 ADD DUP3 ADD PUSH1 0x40 MSTORE DUP1 ISZERO PUSH2 0x157F JUMPI DUP2 PUSH1 0x20 ADD JUMPDEST PUSH1 0x60 DUP2 MSTORE PUSH1 0x20 ADD SWAP1 PUSH1 0x1 SWAP1 SUB SWAP1 DUP2 PUSH2 0x156A JUMPI SWAP1 POP JUMPDEST POP SWAP1 POP PUSH1 0x0 JUMPDEST DUP4 DUP2 LT ISZERO PUSH2 0x15D2 JUMPI PUSH2 0x1597 DUP7 DUP3 PUSH2 0xC93 JUMP JUMPDEST SWAP3 POP PUSH2 0x15A2 DUP4 PUSH2 0x18C0 JUMP JUMPDEST DUP3 DUP3 DUP2 MLOAD DUP2 LT PUSH2 0x15B4 JUMPI PUSH2 0x15B4 PUSH2 0x32CA JUMP JUMPDEST PUSH1 0x20 MUL PUSH1 0x20 ADD ADD DUP2 SWAP1 MSTORE POP DUP1 DUP1 PUSH2 0x15CA SWAP1 PUSH2 0x32F6 JUMP JUMPDEST SWAP2 POP POP PUSH2 0x1585 JUMP JUMPDEST POP SWAP5 SWAP4 POP POP POP POP JUMP JUMPDEST PUSH1 0x60 PUSH1 0x1 DUP1 SLOAD PUSH2 0x8F0 SWAP1 PUSH2 0x31EC JUMP JUMPDEST PUSH1 0xB SLOAD PUSH1 0x1 PUSH1 0x1 PUSH1 0xA0 SHL SUB AND CALLER EQ PUSH2 0x1614 JUMPI PUSH1 0x40 MLOAD PUSH3 0x461BCD PUSH1 0xE5 SHL DUP2 MSTORE PUSH1 0x4 ADD PUSH2 0x9DB SWAP1 PUSH2 0x3227 JUMP JUMPDEST PUSH1 0x11 SSTORE JUMP JUMPDEST PUSH2 0x1361 CALLER DUP4 DUP4 PUSH2 0x2529 JUMP JUMPDEST PUSH1 0xE SLOAD PUSH1 0x40 MLOAD PUSH4 0x28DA575B PUSH1 0xE0 SHL DUP2 MSTORE CALLER PUSH1 0x4 DUP3 ADD MSTORE PUSH1 0x1 PUSH1 0x1 PUSH1 0xA0 SHL SUB SWAP1 SWAP2 AND SWAP1 PUSH4 0x28DA575B SWAP1 PUSH1 0x24 ADD PUSH1 0x20 PUSH1 0x40 MLOAD DUP1 DUP4 SUB DUP2 DUP7 DUP1 EXTCODESIZE ISZERO DUP1 ISZERO PUSH2 0x1667 JUMPI PUSH1 0x0 DUP1 REVERT JUMPDEST POP GAS STATICCALL ISZERO DUP1 ISZERO PUSH2 0x167B JUMPI RETURNDATASIZE PUSH1 0x0 DUP1 RETURNDATACOPY RETURNDATASIZE PUSH1 0x0 REVERT JUMPDEST POP POP POP POP PUSH1 0x40 MLOAD RETURNDATASIZE PUSH1 0x1F NOT PUSH1 0x1F DUP3 ADD AND DUP3 ADD DUP1 PUSH1 0x40 MSTORE POP DUP2 ADD SWAP1 PUSH2 0x169F SWAP2 SWAP1 PUSH2 0x32AD JUMP JUMPDEST PUSH2 0x16BB JUMPI PUSH1 0x40 MLOAD PUSH3 0x461BCD PUSH1 0xE5 SHL DUP2 MSTORE PUSH1 0x4 ADD PUSH2 0x9DB SWAP1 PUSH2 0x336C JUMP JUMPDEST CALLER PUSH1 0x0 SWAP1 DUP2 MSTORE PUSH1 0x16 PUSH1 0x20 MSTORE PUSH1 0x40 SWAP1 KECCAK256 SLOAD PUSH2 0x1782 JUMPI PUSH1 0x40 MLOAD PUSH3 0x461BCD PUSH1 0xE5 SHL DUP2 MSTORE PUSH1 0x20 PUSH1 0x4 DUP3 ADD MSTORE PUSH1 0x76 PUSH1 0x24 DUP3 ADD MSTORE PUSH32 0x596F7520646F6E2774206861766520616E79206E6F6465207265776172647320 PUSH1 0x44 DUP3 ADD MSTORE PUSH32 0x746F20636C61696D2120496620796F75206861766520616E204E465420666F72 PUSH1 0x64 DUP3 ADD MSTORE PUSH32 0x2074686973206E6F64652C20706C65617365207761697420756E74696C207468 PUSH1 0x84 DUP3 ADD MSTORE PUSH22 0x32903732BC3A103932BBB0B932103232B837B9B4BA17 PUSH1 0x51 SHL PUSH1 0xA4 DUP3 ADD MSTORE PUSH1 0xC4 ADD PUSH2 0x9DB JUMP JUMPDEST CALLER PUSH1 0x0 DUP2 DUP2 MSTORE PUSH1 0x16 PUSH1 0x20 MSTORE PUSH1 0x40 DUP1 DUP3 KECCAK256 DUP1 SLOAD SWAP1 DUP4 SWAP1 SSTORE SWAP1 MLOAD SWAP1 SWAP3 SWAP1 DUP4 SWAP1 DUP4 DUP2 DUP2 DUP2 DUP6 DUP8 GAS CALL SWAP3 POP POP POP RETURNDATASIZE DUP1 PUSH1 0x0 DUP2 EQ PUSH2 0x17D7 JUMPI PUSH1 0x40 MLOAD SWAP2 POP PUSH1 0x1F NOT PUSH1 0x3F RETURNDATASIZE ADD AND DUP3 ADD PUSH1 0x40 MSTORE RETURNDATASIZE DUP3 MSTORE RETURNDATASIZE PUSH1 0x0 PUSH1 0x20 DUP5 ADD RETURNDATACOPY PUSH2 0x17DC JUMP JUMPDEST PUSH1 0x60 SWAP2 POP JUMPDEST POP POP SWAP1 POP DUP1 PUSH2 0x1824 JUMPI PUSH1 0x40 MLOAD PUSH3 0x461BCD PUSH1 0xE5 SHL DUP2 MSTORE PUSH1 0x20 PUSH1 0x4 DUP3 ADD MSTORE PUSH1 0x14 PUSH1 0x24 DUP3 ADD MSTORE PUSH20 0x4661696C656420746F2073656E64204D61746963 PUSH1 0x60 SHL PUSH1 0x44 DUP3 ADD MSTORE PUSH1 0x64 ADD PUSH2 0x9DB JUMP JUMPDEST PUSH1 0x40 MLOAD DUP3 DUP2 MSTORE CALLER SWAP1 PUSH32 0xAB9726B9E4373F49134C144584366728EBC3E8ABA47220872606A5760AC9B040 SWAP1 PUSH1 0x20 ADD PUSH1 0x40 MLOAD DUP1 SWAP2 SUB SWAP1 LOG2 CALLER PUSH1 0x0 SWAP1 DUP2 MSTORE PUSH1 0x17 PUSH1 0x20 MSTORE PUSH1 0x40 SWAP1 KECCAK256 SLOAD PUSH2 0x1874 SWAP1 DUP4 SWAP1 PUSH2 0x3354 JUMP JUMPDEST CALLER PUSH1 0x0 SWAP1 DUP2 MSTORE PUSH1 0x17 PUSH1 0x20 MSTORE PUSH1 0x40 SWAP1 KECCAK256 SSTORE POP POP JUMP JUMPDEST PUSH2 0x1892 CALLER DUP4 PUSH2 0x2107 JUMP JUMPDEST PUSH2 0x18AE JUMPI PUSH1 0x40 MLOAD PUSH3 0x461BCD PUSH1 0xE5 SHL DUP2 MSTORE PUSH1 0x4 ADD PUSH2 0x9DB SWAP1 PUSH2 0x325C JUMP JUMPDEST PUSH2 0x18BA DUP5 DUP5 DUP5 DUP5 PUSH2 0x25F8 JUMP JUMPDEST POP POP POP POP JUMP JUMPDEST PUSH1 0x60 PUSH2 0x8DB DUP3 PUSH2 0x262B JUMP JUMPDEST PUSH1 0x13 DUP1 SLOAD PUSH2 0x18D8 SWAP1 PUSH2 0x31EC JUMP JUMPDEST DUP1 PUSH1 0x1F ADD PUSH1 0x20 DUP1 SWAP2 DIV MUL PUSH1 0x20 ADD PUSH1 0x40 MLOAD SWAP1 DUP2 ADD PUSH1 0x40 MSTORE DUP1 SWAP3 SWAP2 SWAP1 DUP2 DUP2 MSTORE PUSH1 0x20 ADD DUP3 DUP1 SLOAD PUSH2 0x1904 SWAP1 PUSH2 0x31EC JUMP JUMPDEST DUP1 ISZERO PUSH2 0x1951 JUMPI DUP1 PUSH1 0x1F LT PUSH2 0x1926 JUMPI PUSH2 0x100 DUP1 DUP4 SLOAD DIV MUL DUP4 MSTORE SWAP2 PUSH1 0x20 ADD SWAP2 PUSH2 0x1951 JUMP JUMPDEST DUP3 ADD SWAP2 SWAP1 PUSH1 0x0 MSTORE PUSH1 0x20 PUSH1 0x0 KECCAK256 SWAP1 JUMPDEST DUP2 SLOAD DUP2 MSTORE SWAP1 PUSH1 0x1 ADD SWAP1 PUSH1 0x20 ADD DUP1 DUP4 GT PUSH2 0x1934 JUMPI DUP3 SWAP1 SUB PUSH1 0x1F AND DUP3 ADD SWAP2 JUMPDEST POP POP POP POP POP DUP2 JUMP JUMPDEST PUSH1 0xB SLOAD PUSH1 0x1 PUSH1 0x1 PUSH1 0xA0 SHL SUB AND CALLER EQ PUSH2 0x1983 JUMPI PUSH1 0x40 MLOAD PUSH3 0x461BCD PUSH1 0xE5 SHL DUP2 MSTORE PUSH1 0x4 ADD PUSH2 0x9DB SWAP1 PUSH2 0x3227 JUMP JUMPDEST PUSH1 0xD DUP1 SLOAD PUSH1 0x1 PUSH1 0x1 PUSH1 0xA0 SHL SUB NOT AND PUSH1 0x1 PUSH1 0x1 PUSH1 0xA0 SHL SUB SWAP3 SWAP1 SWAP3 AND SWAP2 SWAP1 SWAP2 OR SWAP1 SSTORE JUMP JUMPDEST PUSH1 0xB SLOAD PUSH1 0x1 PUSH1 0x1 PUSH1 0xA0 SHL SUB AND CALLER EQ PUSH2 0x19CF JUMPI PUSH1 0x40 MLOAD PUSH3 0x461BCD PUSH1 0xE5 SHL DUP2 MSTORE PUSH1 0x4 ADD PUSH2 0x9DB SWAP1 PUSH2 0x3227 JUMP JUMPDEST PUSH1 0x1 PUSH1 0x1 PUSH1 0xA0 SHL SUB DUP2 AND PUSH2 0x1A34 JUMPI PUSH1 0x40 MLOAD PUSH3 0x461BCD PUSH1 0xE5 SHL DUP2 MSTORE PUSH1 0x20 PUSH1 0x4 DUP3 ADD MSTORE PUSH1 0x26 PUSH1 0x24 DUP3 ADD MSTORE PUSH32 0x4F776E61626C653A206E6577206F776E657220697320746865207A65726F2061 PUSH1 0x44 DUP3 ADD MSTORE PUSH6 0x646472657373 PUSH1 0xD0 SHL PUSH1 0x64 DUP3 ADD MSTORE PUSH1 0x84 ADD PUSH2 0x9DB JUMP JUMPDEST PUSH2 0x1184 DUP2 PUSH2 0x24D7 JUMP JUMPDEST PUSH1 0x60 PUSH1 0x0 DUP3 GT PUSH2 0x1AA6 JUMPI PUSH1 0x40 MLOAD PUSH3 0x461BCD PUSH1 0xE5 SHL DUP2 MSTORE PUSH1 0x20 PUSH1 0x4 DUP3 ADD MSTORE PUSH1 0x2E PUSH1 0x24 DUP3 ADD MSTORE PUSH32 0x596F75206861766520746F206D696E74206174206C65617374206F6E65204E6F PUSH1 0x44 DUP3 ADD MSTORE PUSH14 0x323290293AB73732B91027233A17 PUSH1 0x91 SHL PUSH1 0x64 DUP3 ADD MSTORE PUSH1 0x84 ADD PUSH2 0x9DB JUMP JUMPDEST PUSH1 0x11 SLOAD PUSH1 0xC SLOAD PUSH2 0x1AB6 SWAP1 DUP5 PUSH2 0x3354 JUMP JUMPDEST GT ISZERO PUSH2 0x1B76 JUMPI PUSH1 0x40 MLOAD PUSH3 0x461BCD PUSH1 0xE5 SHL DUP2 MSTORE PUSH1 0x20 PUSH1 0x4 DUP3 ADD MSTORE PUSH1 0x7D PUSH1 0x24 DUP3 ADD MSTORE PUSH32 0x5468657265206172656E277420656E6F756768204E6F64652052756E6E657220 PUSH1 0x44 DUP3 ADD MSTORE PUSH32 0x4E46547320666F722074686973206E6F646520666F7220796F7520746F206D69 PUSH1 0x64 DUP3 ADD MSTORE PUSH32 0x6E7420796F7520616D6F756E7420796F752063686F73652E20416E6F74686572 PUSH1 0x84 DUP3 ADD MSTORE PUSH32 0x206E6F64652077696C6C20626520617661696C61626C6520736F6F6E21000000 PUSH1 0xA4 DUP3 ADD MSTORE PUSH1 0xC4 ADD PUSH2 0x9DB JUMP JUMPDEST PUSH1 0xE SLOAD PUSH1 0x40 MLOAD PUSH4 0x28DA575B PUSH1 0xE0 SHL DUP2 MSTORE CALLER PUSH1 0x4 DUP3 ADD MSTORE PUSH1 0x1 PUSH1 0x1 PUSH1 0xA0 SHL SUB SWAP1 SWAP2 AND SWAP1 PUSH4 0x28DA575B SWAP1 PUSH1 0x24 ADD PUSH1 0x20 PUSH1 0x40 MLOAD DUP1 DUP4 SUB DUP2 DUP7 DUP1 EXTCODESIZE ISZERO DUP1 ISZERO PUSH2 0x1BB9 JUMPI PUSH1 0x0 DUP1 REVERT JUMPDEST POP GAS STATICCALL ISZERO DUP1 ISZERO PUSH2 0x1BCD JUMPI RETURNDATASIZE PUSH1 0x0 DUP1 RETURNDATACOPY RETURNDATASIZE PUSH1 0x0 REVERT JUMPDEST POP POP POP POP PUSH1 0x40 MLOAD RETURNDATASIZE PUSH1 0x1F NOT PUSH1 0x1F DUP3 ADD AND DUP3 ADD DUP1 PUSH1 0x40 MSTORE POP DUP2 ADD SWAP1 PUSH2 0x1BF1 SWAP2 SWAP1 PUSH2 0x32AD JUMP JUMPDEST PUSH2 0x1C0D JUMPI PUSH1 0x40 MLOAD PUSH3 0x461BCD PUSH1 0xE5 SHL DUP2 MSTORE PUSH1 0x4 ADD PUSH2 0x9DB SWAP1 PUSH2 0x336C JUMP JUMPDEST PUSH1 0x12 SLOAD PUSH1 0xF SLOAD PUSH1 0x40 MLOAD PUSH4 0x70A08231 PUSH1 0xE0 SHL DUP2 MSTORE CALLER PUSH1 0x4 DUP3 ADD MSTORE PUSH1 0x1 PUSH1 0x1 PUSH1 0xA0 SHL SUB SWAP1 SWAP2 AND SWAP1 PUSH4 0x70A08231 SWAP1 PUSH1 0x24 ADD PUSH1 0x20 PUSH1 0x40 MLOAD DUP1 DUP4 SUB DUP2 DUP7 DUP1 EXTCODESIZE ISZERO DUP1 ISZERO PUSH2 0x1C53 JUMPI PUSH1 0x0 DUP1 REVERT JUMPDEST POP GAS STATICCALL ISZERO DUP1 ISZERO PUSH2 0x1C67 JUMPI RETURNDATASIZE PUSH1 0x0 DUP1 RETURNDATACOPY RETURNDATASIZE PUSH1 0x0 REVERT JUMPDEST POP POP POP POP PUSH1 0x40 MLOAD RETURNDATASIZE PUSH1 0x1F NOT PUSH1 0x1F DUP3 ADD AND DUP3 ADD DUP1 PUSH1 0x40 MSTORE POP DUP2 ADD SWAP1 PUSH2 0x1C8B SWAP2 SWAP1 PUSH2 0x3311 JUMP JUMPDEST LT ISZERO PUSH2 0x1CFF JUMPI PUSH1 0x40 MLOAD PUSH3 0x461BCD PUSH1 0xE5 SHL DUP2 MSTORE PUSH1 0x20 PUSH1 0x4 DUP3 ADD MSTORE PUSH1 0x3A PUSH1 0x24 DUP3 ADD MSTORE PUSH32 0x596F7520646F6E2774206861766520656E6F756768205553444320746F207061 PUSH1 0x44 DUP3 ADD MSTORE PUSH32 0x7920666F7220746865204E6F64652052756E6E6572204E46542E000000000000 PUSH1 0x64 DUP3 ADD MSTORE PUSH1 0x84 ADD PUSH2 0x9DB JUMP JUMPDEST PUSH1 0x12 SLOAD PUSH1 0xF SLOAD PUSH1 0x40 MLOAD PUSH4 0x6EB1769F PUSH1 0xE1 SHL DUP2 MSTORE CALLER PUSH1 0x4 DUP3 ADD MSTORE ADDRESS PUSH1 0x24 DUP3 ADD MSTORE PUSH1 0x1 PUSH1 0x1 PUSH1 0xA0 SHL SUB SWAP1 SWAP2 AND SWAP1 PUSH4 0xDD62ED3E SWAP1 PUSH1 0x44 ADD PUSH1 0x20 PUSH1 0x40 MLOAD DUP1 DUP4 SUB DUP2 DUP7 DUP1 EXTCODESIZE ISZERO DUP1 ISZERO PUSH2 0x1D4B JUMPI PUSH1 0x0 DUP1 REVERT JUMPDEST POP GAS STATICCALL ISZERO DUP1 ISZERO PUSH2 0x1D5F JUMPI RETURNDATASIZE PUSH1 0x0 DUP1 RETURNDATACOPY RETURNDATASIZE PUSH1 0x0 REVERT JUMPDEST POP POP POP POP PUSH1 0x40 MLOAD RETURNDATASIZE PUSH1 0x1F NOT PUSH1 0x1F DUP3 ADD AND DUP3 ADD DUP1 PUSH1 0x40 MSTORE POP DUP2 ADD SWAP1 PUSH2 0x1D83 SWAP2 SWAP1 PUSH2 0x3311 JUMP JUMPDEST LT ISZERO PUSH2 0x1E1D JUMPI PUSH1 0x40 MLOAD PUSH3 0x461BCD PUSH1 0xE5 SHL DUP2 MSTORE PUSH1 0x20 PUSH1 0x4 DUP3 ADD MSTORE PUSH1 0x5F PUSH1 0x24 DUP3 ADD MSTORE PUSH32 0x596F7520686176656E277420617070726F766564207468697320636F6E747261 PUSH1 0x44 DUP3 ADD MSTORE PUSH32 0x637420746F207370656E6420656E6F756768206F6620796F7572205553444320 PUSH1 0x64 DUP3 ADD MSTORE PUSH32 0x746F2070617920666F7220746865204E6F64652052756E6E6572204E46542E00 PUSH1 0x84 DUP3 ADD MSTORE PUSH1 0xA4 ADD PUSH2 0x9DB JUMP JUMPDEST PUSH1 0x0 DUP3 PUSH8 0xFFFFFFFFFFFFFFFF DUP2 GT ISZERO PUSH2 0x1E38 JUMPI PUSH2 0x1E38 PUSH2 0x2EB1 JUMP JUMPDEST PUSH1 0x40 MLOAD SWAP1 DUP1 DUP3 MSTORE DUP1 PUSH1 0x20 MUL PUSH1 0x20 ADD DUP3 ADD PUSH1 0x40 MSTORE DUP1 ISZERO PUSH2 0x1E61 JUMPI DUP2 PUSH1 0x20 ADD PUSH1 0x20 DUP3 MUL DUP1 CALLDATASIZE DUP4 CALLDATACOPY ADD SWAP1 POP JUMPDEST POP SWAP1 POP PUSH1 0x0 JUMPDEST DUP4 DUP2 LT ISZERO PUSH2 0x1FC5 JUMPI PUSH1 0xF SLOAD PUSH1 0x12 SLOAD PUSH1 0x40 MLOAD PUSH4 0x23B872DD PUSH1 0xE0 SHL DUP2 MSTORE CALLER PUSH1 0x4 DUP3 ADD MSTORE ADDRESS PUSH1 0x24 DUP3 ADD MSTORE PUSH1 0x44 DUP2 ADD SWAP2 SWAP1 SWAP2 MSTORE PUSH1 0x1 PUSH1 0x1 PUSH1 0xA0 SHL SUB SWAP1 SWAP2 AND SWAP1 PUSH4 0x23B872DD SWAP1 PUSH1 0x64 ADD PUSH1 0x20 PUSH1 0x40 MLOAD DUP1 DUP4 SUB DUP2 PUSH1 0x0 DUP8 DUP1 EXTCODESIZE ISZERO DUP1 ISZERO PUSH2 0x1EC5 JUMPI PUSH1 0x0 DUP1 REVERT JUMPDEST POP GAS CALL ISZERO DUP1 ISZERO PUSH2 0x1ED9 JUMPI RETURNDATASIZE PUSH1 0x0 DUP1 RETURNDATACOPY RETURNDATASIZE PUSH1 0x0 REVERT JUMPDEST POP POP POP POP PUSH1 0x40 MLOAD RETURNDATASIZE PUSH1 0x1F NOT PUSH1 0x1F DUP3 ADD AND DUP3 ADD DUP1 PUSH1 0x40 MSTORE POP DUP2 ADD SWAP1 PUSH2 0x1EFD SWAP2 SWAP1 PUSH2 0x32AD JUMP JUMPDEST POP PUSH2 0x1F0C PUSH1 0xC DUP1 SLOAD PUSH1 0x1 ADD SWAP1 SSTORE JUMP JUMPDEST PUSH1 0x0 PUSH2 0x1F17 PUSH1 0xC SLOAD SWAP1 JUMP JUMPDEST PUSH1 0x10 SLOAD PUSH1 0x0 DUP3 DUP2 MSTORE PUSH1 0x14 PUSH1 0x20 MSTORE PUSH1 0x40 SWAP1 KECCAK256 SSTORE SWAP1 POP PUSH2 0x1F35 CALLER DUP3 PUSH2 0x2398 JUMP JUMPDEST PUSH2 0x1F46 DUP2 PUSH1 0x13 DUP1 SLOAD PUSH2 0xDB9 SWAP1 PUSH2 0x31EC JUMP JUMPDEST PUSH2 0x1F50 ADDRESS DUP3 PUSH2 0xA00 JUMP JUMPDEST PUSH1 0xD SLOAD PUSH2 0x1F67 SWAP1 PUSH1 0x1 PUSH1 0x1 PUSH1 0xA0 SHL SUB AND PUSH1 0x1 PUSH2 0x1619 JUMP JUMPDEST DUP1 DUP4 DUP4 DUP2 MLOAD DUP2 LT PUSH2 0x1F7A JUMPI PUSH2 0x1F7A PUSH2 0x32CA JUMP JUMPDEST PUSH1 0x20 SWAP1 DUP2 MUL SWAP2 SWAP1 SWAP2 ADD ADD MSTORE PUSH1 0x40 MLOAD DUP2 SWAP1 CALLER SWAP1 PUSH32 0x86C96E58B5E24FD4DB3EA2D3803238D011FC9BABE088B2CB856F8A1A80A224A9 SWAP1 PUSH1 0x0 SWAP1 LOG3 POP PUSH2 0x1FBE PUSH1 0x1 DUP3 PUSH2 0x3354 JUMP JUMPDEST SWAP1 POP PUSH2 0x1E67 JUMP JUMPDEST POP SWAP3 SWAP2 POP POP JUMP JUMPDEST PUSH1 0x0 PUSH1 0x1 PUSH1 0x1 PUSH1 0xE0 SHL SUB NOT DUP3 AND PUSH4 0x780E9D63 PUSH1 0xE0 SHL EQ DUP1 PUSH2 0x8DB JUMPI POP PUSH2 0x8DB DUP3 PUSH2 0x279A JUMP JUMPDEST PUSH1 0x0 SWAP1 DUP2 MSTORE PUSH1 0x2 PUSH1 0x20 MSTORE PUSH1 0x40 SWAP1 KECCAK256 SLOAD PUSH1 0x1 PUSH1 0x1 PUSH1 0xA0 SHL SUB AND ISZERO ISZERO SWAP1 JUMP JUMPDEST PUSH1 0x0 DUP2 DUP2 MSTORE PUSH1 0x4 PUSH1 0x20 MSTORE PUSH1 0x40 SWAP1 KECCAK256 DUP1 SLOAD PUSH1 0x1 PUSH1 0x1 PUSH1 0xA0 SHL SUB NOT AND PUSH1 0x1 PUSH1 0x1 PUSH1 0xA0 SHL SUB DUP5 AND SWAP1 DUP2 OR SWAP1 SWAP2 SSTORE DUP2 SWAP1 PUSH2 0x2043 DUP3 PUSH2 0xFC7 JUMP JUMPDEST PUSH1 0x1 PUSH1 0x1 PUSH1 0xA0 SHL SUB AND PUSH32 0x8C5BE1E5EBEC7D5BD14F71427D1E84F3DD0314C0F7B2291E5B200AC8C7C3B925 PUSH1 0x40 MLOAD PUSH1 0x40 MLOAD DUP1 SWAP2 SUB SWAP1 LOG4 POP POP JUMP JUMPDEST PUSH2 0x2085 DUP3 PUSH2 0x1FF1 JUMP JUMPDEST PUSH2 0x20E8 JUMPI PUSH1 0x40 MLOAD PUSH3 0x461BCD PUSH1 0xE5 SHL DUP2 MSTORE PUSH1 0x20 PUSH1 0x4 DUP3 ADD MSTORE PUSH1 0x2E PUSH1 0x24 DUP3 ADD MSTORE PUSH32 0x45524337323155524953746F726167653A2055524920736574206F66206E6F6E PUSH1 0x44 DUP3 ADD MSTORE PUSH14 0x32BC34B9BA32B73A103A37B5B2B7 PUSH1 0x91 SHL PUSH1 0x64 DUP3 ADD MSTORE PUSH1 0x84 ADD PUSH2 0x9DB JUMP JUMPDEST PUSH1 0x0 DUP3 DUP2 MSTORE PUSH1 0x6 PUSH1 0x20 SWAP1 DUP2 MSTORE PUSH1 0x40 SWAP1 SWAP2 KECCAK256 DUP3 MLOAD PUSH2 0xB11 SWAP3 DUP5 ADD SWAP1 PUSH2 0x2D20 JUMP JUMPDEST PUSH1 0x0 PUSH2 0x2112 DUP3 PUSH2 0x1FF1 JUMP JUMPDEST PUSH2 0x2173 JUMPI PUSH1 0x40 MLOAD PUSH3 0x461BCD PUSH1 0xE5 SHL DUP2 MSTORE PUSH1 0x20 PUSH1 0x4 DUP3 ADD MSTORE PUSH1 0x2C PUSH1 0x24 DUP3 ADD MSTORE PUSH32 0x4552433732313A206F70657261746F7220717565727920666F72206E6F6E6578 PUSH1 0x44 DUP3 ADD MSTORE PUSH12 0x34B9BA32B73A103A37B5B2B7 PUSH1 0xA1 SHL PUSH1 0x64 DUP3 ADD MSTORE PUSH1 0x84 ADD PUSH2 0x9DB JUMP JUMPDEST PUSH1 0x0 PUSH2 0x217E DUP4 PUSH2 0xFC7 JUMP JUMPDEST SWAP1 POP DUP1 PUSH1 0x1 PUSH1 0x1 PUSH1 0xA0 SHL SUB AND DUP5 PUSH1 0x1 PUSH1 0x1 PUSH1 0xA0 SHL SUB AND EQ DUP1 PUSH2 0x21B9 JUMPI POP DUP4 PUSH1 0x1 PUSH1 0x1 PUSH1 0xA0 SHL SUB AND PUSH2 0x21AE DUP5 PUSH2 0x973 JUMP JUMPDEST PUSH1 0x1 PUSH1 0x1 PUSH1 0xA0 SHL SUB AND EQ JUMPDEST DUP1 PUSH2 0x21E9 JUMPI POP PUSH1 0x1 PUSH1 0x1 PUSH1 0xA0 SHL SUB DUP1 DUP3 AND PUSH1 0x0 SWAP1 DUP2 MSTORE PUSH1 0x5 PUSH1 0x20 SWAP1 DUP2 MSTORE PUSH1 0x40 DUP1 DUP4 KECCAK256 SWAP4 DUP9 AND DUP4 MSTORE SWAP3 SWAP1 MSTORE KECCAK256 SLOAD PUSH1 0xFF AND JUMPDEST SWAP5 SWAP4 POP POP POP POP JUMP JUMPDEST DUP3 PUSH1 0x1 PUSH1 0x1 PUSH1 0xA0 SHL SUB AND PUSH2 0x2204 DUP3 PUSH2 0xFC7 JUMP JUMPDEST PUSH1 0x1 PUSH1 0x1 PUSH1 0xA0 SHL SUB AND EQ PUSH2 0x2268 JUMPI PUSH1 0x40 MLOAD PUSH3 0x461BCD PUSH1 0xE5 SHL DUP2 MSTORE PUSH1 0x20 PUSH1 0x4 DUP3 ADD MSTORE PUSH1 0x25 PUSH1 0x24 DUP3 ADD MSTORE PUSH32 0x4552433732313A207472616E736665722066726F6D20696E636F727265637420 PUSH1 0x44 DUP3 ADD MSTORE PUSH5 0x37BBB732B9 PUSH1 0xD9 SHL PUSH1 0x64 DUP3 ADD MSTORE PUSH1 0x84 ADD PUSH2 0x9DB JUMP JUMPDEST PUSH1 0x1 PUSH1 0x1 PUSH1 0xA0 SHL SUB DUP3 AND PUSH2 0x22CA JUMPI PUSH1 0x40 MLOAD PUSH3 0x461BCD PUSH1 0xE5 SHL DUP2 MSTORE PUSH1 0x20 PUSH1 0x4 DUP3 ADD MSTORE PUSH1 0x24 DUP1 DUP3 ADD MSTORE PUSH32 0x4552433732313A207472616E7366657220746F20746865207A65726F20616464 PUSH1 0x44 DUP3 ADD MSTORE PUSH4 0x72657373 PUSH1 0xE0 SHL PUSH1 0x64 DUP3 ADD MSTORE PUSH1 0x84 ADD PUSH2 0x9DB JUMP JUMPDEST PUSH2 0x22D5 DUP4 DUP4 DUP4 PUSH2 0x27EA JUMP JUMPDEST PUSH2 0x22E0 PUSH1 0x0 DUP3 PUSH2 0x200E JUMP JUMPDEST PUSH1 0x1 PUSH1 0x1 PUSH1 0xA0 SHL SUB DUP4 AND PUSH1 0x0 SWAP1 DUP2 MSTORE PUSH1 0x3 PUSH1 0x20 MSTORE PUSH1 0x40 DUP2 KECCAK256 DUP1 SLOAD PUSH1 0x1 SWAP3 SWAP1 PUSH2 0x2309 SWAP1 DUP5 SWAP1 PUSH2 0x33C9 JUMP JUMPDEST SWAP1 SWAP2 SSTORE POP POP PUSH1 0x1 PUSH1 0x1 PUSH1 0xA0 SHL SUB DUP3 AND PUSH1 0x0 SWAP1 DUP2 MSTORE PUSH1 0x3 PUSH1 0x20 MSTORE PUSH1 0x40 DUP2 KECCAK256 DUP1 SLOAD PUSH1 0x1 SWAP3 SWAP1 PUSH2 0x2337 SWAP1 DUP5 SWAP1 PUSH2 0x3354 JUMP JUMPDEST SWAP1 SWAP2 SSTORE POP POP PUSH1 0x0 DUP2 DUP2 MSTORE PUSH1 0x2 PUSH1 0x20 MSTORE PUSH1 0x40 DUP1 DUP3 KECCAK256 DUP1 SLOAD PUSH1 0x1 PUSH1 0x1 PUSH1 0xA0 SHL SUB NOT AND PUSH1 0x1 PUSH1 0x1 PUSH1 0xA0 SHL SUB DUP7 DUP2 AND SWAP2 DUP3 OR SWAP1 SWAP3 SSTORE SWAP2 MLOAD DUP5 SWAP4 SWAP2 DUP8 AND SWAP2 PUSH32 0xDDF252AD1BE2C89B69C2B068FC378DAA952BA7F163C4A11628F55A4DF523B3EF SWAP2 LOG4 POP POP POP JUMP JUMPDEST PUSH1 0x1 PUSH1 0x1 PUSH1 0xA0 SHL SUB DUP3 AND PUSH2 0x23EE JUMPI PUSH1 0x40 MLOAD PUSH3 0x461BCD PUSH1 0xE5 SHL DUP2 MSTORE PUSH1 0x20 PUSH1 0x4 DUP3 ADD DUP2 SWAP1 MSTORE PUSH1 0x24 DUP3 ADD MSTORE PUSH32 0x4552433732313A206D696E7420746F20746865207A65726F2061646472657373 PUSH1 0x44 DUP3 ADD MSTORE PUSH1 0x64 ADD PUSH2 0x9DB JUMP JUMPDEST PUSH2 0x23F7 DUP2 PUSH2 0x1FF1 JUMP JUMPDEST ISZERO PUSH2 0x2444 JUMPI PUSH1 0x40 MLOAD PUSH3 0x461BCD PUSH1 0xE5 SHL DUP2 MSTORE PUSH1 0x20 PUSH1 0x4 DUP3 ADD MSTORE PUSH1 0x1C PUSH1 0x24 DUP3 ADD MSTORE PUSH32 0x4552433732313A20746F6B656E20616C7265616479206D696E74656400000000 PUSH1 0x44 DUP3 ADD MSTORE PUSH1 0x64 ADD PUSH2 0x9DB JUMP JUMPDEST PUSH2 0x2450 PUSH1 0x0 DUP4 DUP4 PUSH2 0x27EA JUMP JUMPDEST PUSH1 0x1 PUSH1 0x1 PUSH1 0xA0 SHL SUB DUP3 AND PUSH1 0x0 SWAP1 DUP2 MSTORE PUSH1 0x3 PUSH1 0x20 MSTORE PUSH1 0x40 DUP2 KECCAK256 DUP1 SLOAD PUSH1 0x1 SWAP3 SWAP1 PUSH2 0x2479 SWAP1 DUP5 SWAP1 PUSH2 0x3354 JUMP JUMPDEST SWAP1 SWAP2 SSTORE POP POP PUSH1 0x0 DUP2 DUP2 MSTORE PUSH1 0x2 PUSH1 0x20 MSTORE PUSH1 0x40 DUP1 DUP3 KECCAK256 DUP1 SLOAD PUSH1 0x1 PUSH1 0x1 PUSH1 0xA0 SHL SUB NOT AND PUSH1 0x1 PUSH1 0x1 PUSH1 0xA0 SHL SUB DUP7 AND SWAP1 DUP2 OR SWAP1 SWAP2 SSTORE SWAP1 MLOAD DUP4 SWAP3 SWAP1 PUSH32 0xDDF252AD1BE2C89B69C2B068FC378DAA952BA7F163C4A11628F55A4DF523B3EF SWAP1 DUP3 SWAP1 LOG4 POP POP JUMP JUMPDEST PUSH1 0xB DUP1 SLOAD PUSH1 0x1 PUSH1 0x1 PUSH1 0xA0 SHL SUB DUP4 DUP2 AND PUSH1 0x1 PUSH1 0x1 PUSH1 0xA0 SHL SUB NOT DUP4 AND DUP2 OR SWAP1 SWAP4 SSTORE PUSH1 0x40 MLOAD SWAP2 AND SWAP2 SWAP1 DUP3 SWAP1 PUSH32 0x8BE0079C531659141344CD1FD0A4F28419497F9722A3DAAFE3B4186F6B6457E0 SWAP1 PUSH1 0x0 SWAP1 LOG3 POP POP JUMP JUMPDEST DUP2 PUSH1 0x1 PUSH1 0x1 PUSH1 0xA0 SHL SUB AND DUP4 PUSH1 0x1 PUSH1 0x1 PUSH1 0xA0 SHL SUB AND EQ ISZERO PUSH2 0x258B JUMPI PUSH1 0x40 MLOAD PUSH3 0x461BCD PUSH1 0xE5 SHL DUP2 MSTORE PUSH1 0x20 PUSH1 0x4 DUP3 ADD MSTORE PUSH1 0x19 PUSH1 0x24 DUP3 ADD MSTORE PUSH32 0x4552433732313A20617070726F766520746F2063616C6C657200000000000000 PUSH1 0x44 DUP3 ADD MSTORE PUSH1 0x64 ADD PUSH2 0x9DB JUMP JUMPDEST PUSH1 0x1 PUSH1 0x1 PUSH1 0xA0 SHL SUB DUP4 DUP2 AND PUSH1 0x0 DUP2 DUP2 MSTORE PUSH1 0x5 PUSH1 0x20 SWAP1 DUP2 MSTORE PUSH1 0x40 DUP1 DUP4 KECCAK256 SWAP5 DUP8 AND DUP1 DUP5 MSTORE SWAP5 DUP3 MSTORE SWAP2 DUP3 SWAP1 KECCAK256 DUP1 SLOAD PUSH1 0xFF NOT AND DUP7 ISZERO ISZERO SWAP1 DUP2 OR SWAP1 SWAP2 SSTORE SWAP2 MLOAD SWAP2 DUP3 MSTORE PUSH32 0x17307EAB39AB6107E8899845AD3D59BD9653F200F220920489CA2B5937696C31 SWAP2 ADD PUSH1 0x40 MLOAD DUP1 SWAP2 SUB SWAP1 LOG3 POP POP POP JUMP JUMPDEST PUSH2 0x2603 DUP5 DUP5 DUP5 PUSH2 0x21F1 JUMP JUMPDEST PUSH2 0x260F DUP5 DUP5 DUP5 DUP5 PUSH2 0x27F5 JUMP JUMPDEST PUSH2 0x18BA JUMPI PUSH1 0x40 MLOAD PUSH3 0x461BCD PUSH1 0xE5 SHL DUP2 MSTORE PUSH1 0x4 ADD PUSH2 0x9DB SWAP1 PUSH2 0x33E0 JUMP JUMPDEST PUSH1 0x60 PUSH2 0x2636 DUP3 PUSH2 0x1FF1 JUMP JUMPDEST PUSH2 0x269C JUMPI PUSH1 0x40 MLOAD PUSH3 0x461BCD PUSH1 0xE5 SHL DUP2 MSTORE PUSH1 0x20 PUSH1 0x4 DUP3 ADD MSTORE PUSH1 0x31 PUSH1 0x24 DUP3 ADD MSTORE PUSH32 0x45524337323155524953746F726167653A2055524920717565727920666F7220 PUSH1 0x44 DUP3 ADD MSTORE PUSH17 0x3737B732BC34B9BA32B73A103A37B5B2B7 PUSH1 0x79 SHL PUSH1 0x64 DUP3 ADD MSTORE PUSH1 0x84 ADD PUSH2 0x9DB JUMP JUMPDEST PUSH1 0x0 DUP3 DUP2 MSTORE PUSH1 0x6 PUSH1 0x20 MSTORE PUSH1 0x40 DUP2 KECCAK256 DUP1 SLOAD PUSH2 0x26B5 SWAP1 PUSH2 0x31EC JUMP JUMPDEST DUP1 PUSH1 0x1F ADD PUSH1 0x20 DUP1 SWAP2 DIV MUL PUSH1 0x20 ADD PUSH1 0x40 MLOAD SWAP1 DUP2 ADD PUSH1 0x40 MSTORE DUP1 SWAP3 SWAP2 SWAP1 DUP2 DUP2 MSTORE PUSH1 0x20 ADD DUP3 DUP1 SLOAD PUSH2 0x26E1 SWAP1 PUSH2 0x31EC JUMP JUMPDEST DUP1 ISZERO PUSH2 0x272E JUMPI DUP1 PUSH1 0x1F LT PUSH2 0x2703 JUMPI PUSH2 0x100 DUP1 DUP4 SLOAD DIV MUL DUP4 MSTORE SWAP2 PUSH1 0x20 ADD SWAP2 PUSH2 0x272E JUMP JUMPDEST DUP3 ADD SWAP2 SWAP1 PUSH1 0x0 MSTORE PUSH1 0x20 PUSH1 0x0 KECCAK256 SWAP1 JUMPDEST DUP2 SLOAD DUP2 MSTORE SWAP1 PUSH1 0x1 ADD SWAP1 PUSH1 0x20 ADD DUP1 DUP4 GT PUSH2 0x2711 JUMPI DUP3 SWAP1 SUB PUSH1 0x1F AND DUP3 ADD SWAP2 JUMPDEST POP POP POP POP POP SWAP1 POP PUSH1 0x0 PUSH2 0x274C PUSH1 0x40 DUP1 MLOAD PUSH1 0x20 DUP2 ADD SWAP1 SWAP2 MSTORE PUSH1 0x0 DUP2 MSTORE SWAP1 JUMP JUMPDEST SWAP1 POP DUP1 MLOAD PUSH1 0x0 EQ ISZERO PUSH2 0x275F JUMPI POP SWAP3 SWAP2 POP POP JUMP JUMPDEST DUP2 MLOAD ISZERO PUSH2 0x2791 JUMPI DUP1 DUP3 PUSH1 0x40 MLOAD PUSH1 0x20 ADD PUSH2 0x2779 SWAP3 SWAP2 SWAP1 PUSH2 0x3432 JUMP JUMPDEST PUSH1 0x40 MLOAD PUSH1 0x20 DUP2 DUP4 SUB SUB DUP2 MSTORE SWAP1 PUSH1 0x40 MSTORE SWAP3 POP POP POP SWAP2 SWAP1 POP JUMP JUMPDEST PUSH2 0x21E9 DUP5 PUSH2 0x2902 JUMP JUMPDEST PUSH1 0x0 PUSH1 0x1 PUSH1 0x1 PUSH1 0xE0 SHL SUB NOT DUP3 AND PUSH4 0x80AC58CD PUSH1 0xE0 SHL EQ DUP1 PUSH2 0x27CB JUMPI POP PUSH1 0x1 PUSH1 0x1 PUSH1 0xE0 SHL SUB NOT DUP3 AND PUSH4 0x5B5E139F PUSH1 0xE0 SHL EQ JUMPDEST DUP1 PUSH2 0x8DB JUMPI POP PUSH4 0x1FFC9A7 PUSH1 0xE0 SHL PUSH1 0x1 PUSH1 0x1 PUSH1 0xE0 SHL SUB NOT DUP4 AND EQ PUSH2 0x8DB JUMP JUMPDEST PUSH2 0xB11 DUP4 DUP4 DUP4 PUSH2 0x29DA JUMP JUMPDEST PUSH1 0x0 PUSH1 0x1 PUSH1 0x1 PUSH1 0xA0 SHL SUB DUP5 AND EXTCODESIZE ISZERO PUSH2 0x28F7 JUMPI PUSH1 0x40 MLOAD PUSH4 0xA85BD01 PUSH1 0xE1 SHL DUP2 MSTORE PUSH1 0x1 PUSH1 0x1 PUSH1 0xA0 SHL SUB DUP6 AND SWAP1 PUSH4 0x150B7A02 SWAP1 PUSH2 0x2839 SWAP1 CALLER SWAP1 DUP10 SWAP1 DUP9 SWAP1 DUP9 SWAP1 PUSH1 0x4 ADD PUSH2 0x3461 JUMP JUMPDEST PUSH1 0x20 PUSH1 0x40 MLOAD DUP1 DUP4 SUB DUP2 PUSH1 0x0 DUP8 DUP1 EXTCODESIZE ISZERO DUP1 ISZERO PUSH2 0x2853 JUMPI PUSH1 0x0 DUP1 REVERT JUMPDEST POP GAS CALL SWAP3 POP POP POP DUP1 ISZERO PUSH2 0x2883 JUMPI POP PUSH1 0x40 DUP1 MLOAD PUSH1 0x1F RETURNDATASIZE SWAP1 DUP2 ADD PUSH1 0x1F NOT AND DUP3 ADD SWAP1 SWAP3 MSTORE PUSH2 0x2880 SWAP2 DUP2 ADD SWAP1 PUSH2 0x349E JUMP JUMPDEST PUSH1 0x1 JUMPDEST PUSH2 0x28DD JUMPI RETURNDATASIZE DUP1 DUP1 ISZERO PUSH2 0x28B1 JUMPI PUSH1 0x40 MLOAD SWAP2 POP PUSH1 0x1F NOT PUSH1 0x3F RETURNDATASIZE ADD AND DUP3 ADD PUSH1 0x40 MSTORE RETURNDATASIZE DUP3 MSTORE RETURNDATASIZE PUSH1 0x0 PUSH1 0x20 DUP5 ADD RETURNDATACOPY PUSH2 0x28B6 JUMP JUMPDEST PUSH1 0x60 SWAP2 POP JUMPDEST POP DUP1 MLOAD PUSH2 0x28D5 JUMPI PUSH1 0x40 MLOAD PUSH3 0x461BCD PUSH1 0xE5 SHL DUP2 MSTORE PUSH1 0x4 ADD PUSH2 0x9DB SWAP1 PUSH2 0x33E0 JUMP JUMPDEST DUP1 MLOAD DUP2 PUSH1 0x20 ADD REVERT JUMPDEST PUSH1 0x1 PUSH1 0x1 PUSH1 0xE0 SHL SUB NOT AND PUSH4 0xA85BD01 PUSH1 0xE1 SHL EQ SWAP1 POP PUSH2 0x21E9 JUMP JUMPDEST POP PUSH1 0x1 SWAP5 SWAP4 POP POP POP POP JUMP JUMPDEST PUSH1 0x60 PUSH2 0x290D DUP3 PUSH2 0x1FF1 JUMP JUMPDEST PUSH2 0x2971 JUMPI PUSH1 0x40 MLOAD PUSH3 0x461BCD PUSH1 0xE5 SHL DUP2 MSTORE PUSH1 0x20 PUSH1 0x4 DUP3 ADD MSTORE PUSH1 0x2F PUSH1 0x24 DUP3 ADD MSTORE PUSH32 0x4552433732314D657461646174613A2055524920717565727920666F72206E6F PUSH1 0x44 DUP3 ADD MSTORE PUSH15 0x3732BC34B9BA32B73A103A37B5B2B7 PUSH1 0x89 SHL PUSH1 0x64 DUP3 ADD MSTORE PUSH1 0x84 ADD PUSH2 0x9DB JUMP JUMPDEST PUSH1 0x0 PUSH2 0x2988 PUSH1 0x40 DUP1 MLOAD PUSH1 0x20 DUP2 ADD SWAP1 SWAP2 MSTORE PUSH1 0x0 DUP2 MSTORE SWAP1 JUMP JUMPDEST SWAP1 POP PUSH1 0x0 DUP2 MLOAD GT PUSH2 0x29A8 JUMPI PUSH1 0x40 MLOAD DUP1 PUSH1 0x20 ADD PUSH1 0x40 MSTORE DUP1 PUSH1 0x0 DUP2 MSTORE POP PUSH2 0x29D3 JUMP JUMPDEST DUP1 PUSH2 0x29B2 DUP5 PUSH2 0x2A92 JUMP JUMPDEST PUSH1 0x40 MLOAD PUSH1 0x20 ADD PUSH2 0x29C3 SWAP3 SWAP2 SWAP1 PUSH2 0x3432 JUMP JUMPDEST PUSH1 0x40 MLOAD PUSH1 0x20 DUP2 DUP4 SUB SUB DUP2 MSTORE SWAP1 PUSH1 0x40 MSTORE JUMPDEST SWAP4 SWAP3 POP POP POP JUMP JUMPDEST PUSH1 0x1 PUSH1 0x1 PUSH1 0xA0 SHL SUB DUP4 AND PUSH2 0x2A35 JUMPI PUSH2 0x2A30 DUP2 PUSH1 0x9 DUP1 SLOAD PUSH1 0x0 DUP4 DUP2 MSTORE PUSH1 0xA PUSH1 0x20 MSTORE PUSH1 0x40 DUP2 KECCAK256 DUP3 SWAP1 SSTORE PUSH1 0x1 DUP3 ADD DUP4 SSTORE SWAP2 SWAP1 SWAP2 MSTORE PUSH32 0x6E1540171B6C0C960B71A7020D9F60077F6AF931A8BBF590DA0223DACF75C7AF ADD SSTORE JUMP JUMPDEST PUSH2 0x2A58 JUMP JUMPDEST DUP2 PUSH1 0x1 PUSH1 0x1 PUSH1 0xA0 SHL SUB AND DUP4 PUSH1 0x1 PUSH1 0x1 PUSH1 0xA0 SHL SUB AND EQ PUSH2 0x2A58 JUMPI PUSH2 0x2A58 DUP4 DUP3 PUSH2 0x2B90 JUMP JUMPDEST PUSH1 0x1 PUSH1 0x1 PUSH1 0xA0 SHL SUB DUP3 AND PUSH2 0x2A6F JUMPI PUSH2 0xB11 DUP2 PUSH2 0x2C2D JUMP JUMPDEST DUP3 PUSH1 0x1 PUSH1 0x1 PUSH1 0xA0 SHL SUB AND DUP3 PUSH1 0x1 PUSH1 0x1 PUSH1 0xA0 SHL SUB AND EQ PUSH2 0xB11 JUMPI PUSH2 0xB11 DUP3 DUP3 PUSH2 0x2CDC JUMP JUMPDEST PUSH1 0x60 DUP2 PUSH2 0x2AB6 JUMPI POP POP PUSH1 0x40 DUP1 MLOAD DUP1 DUP3 ADD SWAP1 SWAP2 MSTORE PUSH1 0x1 DUP2 MSTORE PUSH1 0x3 PUSH1 0xFC SHL PUSH1 0x20 DUP3 ADD MSTORE SWAP1 JUMP JUMPDEST DUP2 PUSH1 0x0 JUMPDEST DUP2 ISZERO PUSH2 0x2AE0 JUMPI DUP1 PUSH2 0x2ACA DUP2 PUSH2 0x32F6 JUMP JUMPDEST SWAP2 POP PUSH2 0x2AD9 SWAP1 POP PUSH1 0xA DUP4 PUSH2 0x3340 JUMP JUMPDEST SWAP2 POP PUSH2 0x2ABA JUMP JUMPDEST PUSH1 0x0 DUP2 PUSH8 0xFFFFFFFFFFFFFFFF DUP2 GT ISZERO PUSH2 0x2AFB JUMPI PUSH2 0x2AFB PUSH2 0x2EB1 JUMP JUMPDEST PUSH1 0x40 MLOAD SWAP1 DUP1 DUP3 MSTORE DUP1 PUSH1 0x1F ADD PUSH1 0x1F NOT AND PUSH1 0x20 ADD DUP3 ADD PUSH1 0x40 MSTORE DUP1 ISZERO PUSH2 0x2B25 JUMPI PUSH1 0x20 DUP3 ADD DUP2 DUP1 CALLDATASIZE DUP4 CALLDATACOPY ADD SWAP1 POP JUMPDEST POP SWAP1 POP JUMPDEST DUP5 ISZERO PUSH2 0x21E9 JUMPI PUSH2 0x2B3A PUSH1 0x1 DUP4 PUSH2 0x33C9 JUMP JUMPDEST SWAP2 POP PUSH2 0x2B47 PUSH1 0xA DUP7 PUSH2 0x34BB JUMP JUMPDEST PUSH2 0x2B52 SWAP1 PUSH1 0x30 PUSH2 0x3354 JUMP JUMPDEST PUSH1 0xF8 SHL DUP2 DUP4 DUP2 MLOAD DUP2 LT PUSH2 0x2B67 JUMPI PUSH2 0x2B67 PUSH2 0x32CA JUMP JUMPDEST PUSH1 0x20 ADD ADD SWAP1 PUSH1 0x1 PUSH1 0x1 PUSH1 0xF8 SHL SUB NOT AND SWAP1 DUP2 PUSH1 0x0 BYTE SWAP1 MSTORE8 POP PUSH2 0x2B89 PUSH1 0xA DUP7 PUSH2 0x3340 JUMP JUMPDEST SWAP5 POP PUSH2 0x2B29 JUMP JUMPDEST PUSH1 0x0 PUSH1 0x1 PUSH2 0x2B9D DUP5 PUSH2 0x1187 JUMP JUMPDEST PUSH2 0x2BA7 SWAP2 SWAP1 PUSH2 0x33C9 JUMP JUMPDEST PUSH1 0x0 DUP4 DUP2 MSTORE PUSH1 0x8 PUSH1 0x20 MSTORE PUSH1 0x40 SWAP1 KECCAK256 SLOAD SWAP1 SWAP2 POP DUP1 DUP3 EQ PUSH2 0x2BFA JUMPI PUSH1 0x1 PUSH1 0x1 PUSH1 0xA0 SHL SUB DUP5 AND PUSH1 0x0 SWAP1 DUP2 MSTORE PUSH1 0x7 PUSH1 0x20 SWAP1 DUP2 MSTORE PUSH1 0x40 DUP1 DUP4 KECCAK256 DUP6 DUP5 MSTORE DUP3 MSTORE DUP1 DUP4 KECCAK256 SLOAD DUP5 DUP5 MSTORE DUP2 DUP5 KECCAK256 DUP2 SWAP1 SSTORE DUP4 MSTORE PUSH1 0x8 SWAP1 SWAP2 MSTORE SWAP1 KECCAK256 DUP2 SWAP1 SSTORE JUMPDEST POP PUSH1 0x0 SWAP2 DUP3 MSTORE PUSH1 0x8 PUSH1 0x20 SWAP1 DUP2 MSTORE PUSH1 0x40 DUP1 DUP5 KECCAK256 DUP5 SWAP1 SSTORE PUSH1 0x1 PUSH1 0x1 PUSH1 0xA0 SHL SUB SWAP1 SWAP5 AND DUP4 MSTORE PUSH1 0x7 DUP2 MSTORE DUP4 DUP4 KECCAK256 SWAP2 DUP4 MSTORE MSTORE SWAP1 DUP2 KECCAK256 SSTORE JUMP JUMPDEST PUSH1 0x9 SLOAD PUSH1 0x0 SWAP1 PUSH2 0x2C3F SWAP1 PUSH1 0x1 SWAP1 PUSH2 0x33C9 JUMP JUMPDEST PUSH1 0x0 DUP4 DUP2 MSTORE PUSH1 0xA PUSH1 0x20 MSTORE PUSH1 0x40 DUP2 KECCAK256 SLOAD PUSH1 0x9 DUP1 SLOAD SWAP4 SWAP5 POP SWAP1 SWAP3 DUP5 SWAP1 DUP2 LT PUSH2 0x2C67 JUMPI PUSH2 0x2C67 PUSH2 0x32CA JUMP JUMPDEST SWAP1 PUSH1 0x0 MSTORE PUSH1 0x20 PUSH1 0x0 KECCAK256 ADD SLOAD SWAP1 POP DUP1 PUSH1 0x9 DUP4 DUP2 SLOAD DUP2 LT PUSH2 0x2C88 JUMPI PUSH2 0x2C88 PUSH2 0x32CA JUMP JUMPDEST PUSH1 0x0 SWAP2 DUP3 MSTORE PUSH1 0x20 DUP1 DUP4 KECCAK256 SWAP1 SWAP2 ADD SWAP3 SWAP1 SWAP3 SSTORE DUP3 DUP2 MSTORE PUSH1 0xA SWAP1 SWAP2 MSTORE PUSH1 0x40 DUP1 DUP3 KECCAK256 DUP5 SWAP1 SSTORE DUP6 DUP3 MSTORE DUP2 KECCAK256 SSTORE PUSH1 0x9 DUP1 SLOAD DUP1 PUSH2 0x2CC0 JUMPI PUSH2 0x2CC0 PUSH2 0x34CF JUMP JUMPDEST PUSH1 0x1 SWAP1 SUB DUP2 DUP2 SWAP1 PUSH1 0x0 MSTORE PUSH1 0x20 PUSH1 0x0 KECCAK256 ADD PUSH1 0x0 SWAP1 SSTORE SWAP1 SSTORE POP POP POP POP JUMP JUMPDEST PUSH1 0x0 PUSH2 0x2CE7 DUP4 PUSH2 0x1187 JUMP JUMPDEST PUSH1 0x1 PUSH1 0x1 PUSH1 0xA0 SHL SUB SWAP1 SWAP4 AND PUSH1 0x0 SWAP1 DUP2 MSTORE PUSH1 0x7 PUSH1 0x20 SWAP1 DUP2 MSTORE PUSH1 0x40 DUP1 DUP4 KECCAK256 DUP7 DUP5 MSTORE DUP3 MSTORE DUP1 DUP4 KECCAK256 DUP6 SWAP1 SSTORE SWAP4 DUP3 MSTORE PUSH1 0x8 SWAP1 MSTORE SWAP2 SWAP1 SWAP2 KECCAK256 SWAP2 SWAP1 SWAP2 SSTORE POP JUMP JUMPDEST DUP3 DUP1 SLOAD PUSH2 0x2D2C SWAP1 PUSH2 0x31EC JUMP JUMPDEST SWAP1 PUSH1 0x0 MSTORE PUSH1 0x20 PUSH1 0x0 KECCAK256 SWAP1 PUSH1 0x1F ADD PUSH1 0x20 SWAP1 DIV DUP2 ADD SWAP3 DUP3 PUSH2 0x2D4E JUMPI PUSH1 0x0 DUP6 SSTORE PUSH2 0x2D94 JUMP JUMPDEST DUP3 PUSH1 0x1F LT PUSH2 0x2D67 JUMPI DUP1 MLOAD PUSH1 0xFF NOT AND DUP4 DUP1 ADD OR DUP6 SSTORE PUSH2 0x2D94 JUMP JUMPDEST DUP3 DUP1 ADD PUSH1 0x1 ADD DUP6 SSTORE DUP3 ISZERO PUSH2 0x2D94 JUMPI SWAP2 DUP3 ADD JUMPDEST DUP3 DUP2 GT ISZERO PUSH2 0x2D94 JUMPI DUP3 MLOAD DUP3 SSTORE SWAP2 PUSH1 0x20 ADD SWAP2 SWAP1 PUSH1 0x1 ADD SWAP1 PUSH2 0x2D79 JUMP JUMPDEST POP PUSH2 0x2DA0 SWAP3 SWAP2 POP PUSH2 0x2DA4 JUMP JUMPDEST POP SWAP1 JUMP JUMPDEST JUMPDEST DUP1 DUP3 GT ISZERO PUSH2 0x2DA0 JUMPI PUSH1 0x0 DUP2 SSTORE PUSH1 0x1 ADD PUSH2 0x2DA5 JUMP JUMPDEST PUSH1 0x1 PUSH1 0x1 PUSH1 0xE0 SHL SUB NOT DUP2 AND DUP2 EQ PUSH2 0x1184 JUMPI PUSH1 0x0 DUP1 REVERT JUMPDEST PUSH1 0x0 PUSH1 0x20 DUP3 DUP5 SUB SLT ISZERO PUSH2 0x2DE1 JUMPI PUSH1 0x0 DUP1 REVERT JUMPDEST DUP2 CALLDATALOAD PUSH2 0x29D3 DUP2 PUSH2 0x2DB9 JUMP JUMPDEST PUSH1 0x0 JUMPDEST DUP4 DUP2 LT ISZERO PUSH2 0x2E07 JUMPI DUP2 DUP2 ADD MLOAD DUP4 DUP3 ADD MSTORE PUSH1 0x20 ADD PUSH2 0x2DEF JUMP JUMPDEST DUP4 DUP2 GT ISZERO PUSH2 0x18BA JUMPI POP POP PUSH1 0x0 SWAP2 ADD MSTORE JUMP JUMPDEST PUSH1 0x0 DUP2 MLOAD DUP1 DUP5 MSTORE PUSH2 0x2E30 DUP2 PUSH1 0x20 DUP7 ADD PUSH1 0x20 DUP7 ADD PUSH2 0x2DEC JUMP JUMPDEST PUSH1 0x1F ADD PUSH1 0x1F NOT AND SWAP3 SWAP1 SWAP3 ADD PUSH1 0x20 ADD SWAP3 SWAP2 POP POP JUMP JUMPDEST PUSH1 0x20 DUP2 MSTORE PUSH1 0x0 PUSH2 0x29D3 PUSH1 0x20 DUP4 ADD DUP5 PUSH2 0x2E18 JUMP JUMPDEST PUSH1 0x0 PUSH1 0x20 DUP3 DUP5 SUB SLT ISZERO PUSH2 0x2E69 JUMPI PUSH1 0x0 DUP1 REVERT JUMPDEST POP CALLDATALOAD SWAP2 SWAP1 POP JUMP JUMPDEST DUP1 CALLDATALOAD PUSH1 0x1 PUSH1 0x1 PUSH1 0xA0 SHL SUB DUP2 AND DUP2 EQ PUSH2 0xE8D JUMPI PUSH1 0x0 DUP1 REVERT JUMPDEST PUSH1 0x0 DUP1 PUSH1 0x40 DUP4 DUP6 SUB SLT ISZERO PUSH2 0x2E9A JUMPI PUSH1 0x0 DUP1 REVERT JUMPDEST PUSH2 0x2EA3 DUP4 PUSH2 0x2E70 JUMP JUMPDEST SWAP5 PUSH1 0x20 SWAP4 SWAP1 SWAP4 ADD CALLDATALOAD SWAP4 POP POP POP JUMP JUMPDEST PUSH4 0x4E487B71 PUSH1 0xE0 SHL PUSH1 0x0 MSTORE PUSH1 0x41 PUSH1 0x4 MSTORE PUSH1 0x24 PUSH1 0x0 REVERT JUMPDEST PUSH1 0x0 PUSH8 0xFFFFFFFFFFFFFFFF DUP1 DUP5 GT ISZERO PUSH2 0x2EE2 JUMPI PUSH2 0x2EE2 PUSH2 0x2EB1 JUMP JUMPDEST PUSH1 0x40 MLOAD PUSH1 0x1F DUP6 ADD PUSH1 0x1F NOT SWAP1 DUP2 AND PUSH1 0x3F ADD AND DUP2 ADD SWAP1 DUP3 DUP3 GT DUP2 DUP4 LT OR ISZERO PUSH2 0x2F0A JUMPI PUSH2 0x2F0A PUSH2 0x2EB1 JUMP JUMPDEST DUP2 PUSH1 0x40 MSTORE DUP1 SWAP4 POP DUP6 DUP2 MSTORE DUP7 DUP7 DUP7 ADD GT ISZERO PUSH2 0x2F23 JUMPI PUSH1 0x0 DUP1 REVERT JUMPDEST DUP6 DUP6 PUSH1 0x20 DUP4 ADD CALLDATACOPY PUSH1 0x0 PUSH1 0x20 DUP8 DUP4 ADD ADD MSTORE POP POP POP SWAP4 SWAP3 POP POP POP JUMP JUMPDEST PUSH1 0x0 DUP3 PUSH1 0x1F DUP4 ADD SLT PUSH2 0x2F4E JUMPI PUSH1 0x0 DUP1 REVERT JUMPDEST PUSH2 0x29D3 DUP4 DUP4 CALLDATALOAD PUSH1 0x20 DUP6 ADD PUSH2 0x2EC7 JUMP JUMPDEST PUSH1 0x0 DUP1 PUSH1 0x40 DUP4 DUP6 SUB SLT ISZERO PUSH2 0x2F70 JUMPI PUSH1 0x0 DUP1 REVERT JUMPDEST DUP3 CALLDATALOAD SWAP2 POP PUSH1 0x20 DUP4 ADD CALLDATALOAD PUSH8 0xFFFFFFFFFFFFFFFF DUP2 GT ISZERO PUSH2 0x2F8E JUMPI PUSH1 0x0 DUP1 REVERT JUMPDEST PUSH2 0x2F9A DUP6 DUP3 DUP7 ADD PUSH2 0x2F3D JUMP JUMPDEST SWAP2 POP POP SWAP3 POP SWAP3 SWAP1 POP JUMP JUMPDEST PUSH1 0x0 DUP1 PUSH1 0x0 PUSH1 0x60 DUP5 DUP7 SUB SLT ISZERO PUSH2 0x2FB9 JUMPI PUSH1 0x0 DUP1 REVERT JUMPDEST PUSH2 0x2FC2 DUP5 PUSH2 0x2E70 JUMP JUMPDEST SWAP3 POP PUSH2 0x2FD0 PUSH1 0x20 DUP6 ADD PUSH2 0x2E70 JUMP JUMPDEST SWAP2 POP PUSH1 0x40 DUP5 ADD CALLDATALOAD SWAP1 POP SWAP3 POP SWAP3 POP SWAP3 JUMP JUMPDEST PUSH1 0x0 PUSH1 0x20 DUP3 DUP5 SUB SLT ISZERO PUSH2 0x2FF2 JUMPI PUSH1 0x0 DUP1 REVERT JUMPDEST PUSH2 0x29D3 DUP3 PUSH2 0x2E70 JUMP JUMPDEST PUSH1 0x0 PUSH1 0x20 DUP3 DUP5 SUB SLT ISZERO PUSH2 0x300D JUMPI PUSH1 0x0 DUP1 REVERT JUMPDEST DUP2 CALLDATALOAD PUSH8 0xFFFFFFFFFFFFFFFF DUP2 GT ISZERO PUSH2 0x3024 JUMPI PUSH1 0x0 DUP1 REVERT JUMPDEST PUSH2 0x21E9 DUP5 DUP3 DUP6 ADD PUSH2 0x2F3D JUMP JUMPDEST PUSH1 0x20 DUP1 DUP3 MSTORE DUP3 MLOAD DUP3 DUP3 ADD DUP2 SWAP1 MSTORE PUSH1 0x0 SWAP2 SWAP1 DUP5 DUP3 ADD SWAP1 PUSH1 0x40 DUP6 ADD SWAP1 DUP5 JUMPDEST DUP2 DUP2 LT ISZERO PUSH2 0x3068 JUMPI DUP4 MLOAD DUP4 MSTORE SWAP3 DUP5 ADD SWAP3 SWAP2 DUP5 ADD SWAP2 PUSH1 0x1 ADD PUSH2 0x304C JUMP JUMPDEST POP SWAP1 SWAP7 SWAP6 POP POP POP POP POP POP JUMP JUMPDEST PUSH1 0x0 DUP1 PUSH1 0x40 DUP4 DUP6 SUB SLT ISZERO PUSH2 0x3087 JUMPI PUSH1 0x0 DUP1 REVERT JUMPDEST POP POP DUP1 CALLDATALOAD SWAP3 PUSH1 0x20 SWAP1 SWAP2 ADD CALLDATALOAD SWAP2 POP JUMP JUMPDEST PUSH1 0x0 PUSH1 0x20 DUP1 DUP4 ADD DUP2 DUP5 MSTORE DUP1 DUP6 MLOAD DUP1 DUP4 MSTORE PUSH1 0x40 DUP7 ADD SWAP2 POP PUSH1 0x40 DUP2 PUSH1 0x5 SHL DUP8 ADD ADD SWAP3 POP DUP4 DUP8 ADD PUSH1 0x0 JUMPDEST DUP3 DUP2 LT ISZERO PUSH2 0x30EB JUMPI PUSH1 0x3F NOT DUP9 DUP7 SUB ADD DUP5 MSTORE PUSH2 0x30D9 DUP6 DUP4 MLOAD PUSH2 0x2E18 JUMP JUMPDEST SWAP5 POP SWAP3 DUP6 ADD SWAP3 SWAP1 DUP6 ADD SWAP1 PUSH1 0x1 ADD PUSH2 0x30BD JUMP JUMPDEST POP SWAP3 SWAP8 SWAP7 POP POP POP POP POP POP POP JUMP JUMPDEST DUP1 ISZERO ISZERO DUP2 EQ PUSH2 0x1184 JUMPI PUSH1 0x0 DUP1 REVERT JUMPDEST PUSH1 0x0 DUP1 PUSH1 0x40 DUP4 DUP6 SUB SLT ISZERO PUSH2 0x3119 JUMPI PUSH1 0x0 DUP1 REVERT JUMPDEST PUSH2 0x3122 DUP4 PUSH2 0x2E70 JUMP JUMPDEST SWAP2 POP PUSH1 0x20 DUP4 ADD CALLDATALOAD PUSH2 0x3132 DUP2 PUSH2 0x30F8 JUMP JUMPDEST DUP1 SWAP2 POP POP SWAP3 POP SWAP3 SWAP1 POP JUMP JUMPDEST PUSH1 0x0 DUP1 PUSH1 0x0 DUP1 PUSH1 0x80 DUP6 DUP8 SUB SLT ISZERO PUSH2 0x3153 JUMPI PUSH1 0x0 DUP1 REVERT JUMPDEST PUSH2 0x315C DUP6 PUSH2 0x2E70 JUMP JUMPDEST SWAP4 POP PUSH2 0x316A PUSH1 0x20 DUP7 ADD PUSH2 0x2E70 JUMP JUMPDEST SWAP3 POP PUSH1 0x40 DUP6 ADD CALLDATALOAD SWAP2 POP PUSH1 0x60 DUP6 ADD CALLDATALOAD PUSH8 0xFFFFFFFFFFFFFFFF DUP2 GT ISZERO PUSH2 0x318D JUMPI PUSH1 0x0 DUP1 REVERT JUMPDEST DUP6 ADD PUSH1 0x1F DUP2 ADD DUP8 SGT PUSH2 0x319E JUMPI PUSH1 0x0 DUP1 REVERT JUMPDEST PUSH2 0x31AD DUP8 DUP3 CALLDATALOAD PUSH1 0x20 DUP5 ADD PUSH2 0x2EC7 JUMP JUMPDEST SWAP2 POP POP SWAP3 SWAP6 SWAP2 SWAP5 POP SWAP3 POP JUMP JUMPDEST PUSH1 0x0 DUP1 PUSH1 0x40 DUP4 DUP6 SUB SLT ISZERO PUSH2 0x31CC JUMPI PUSH1 0x0 DUP1 REVERT JUMPDEST PUSH2 0x31D5 DUP4 PUSH2 0x2E70 JUMP JUMPDEST SWAP2 POP PUSH2 0x31E3 PUSH1 0x20 DUP5 ADD PUSH2 0x2E70 JUMP JUMPDEST SWAP1 POP SWAP3 POP SWAP3 SWAP1 POP JUMP JUMPDEST PUSH1 0x1 DUP2 DUP2 SHR SWAP1 DUP3 AND DUP1 PUSH2 0x3200 JUMPI PUSH1 0x7F DUP3 AND SWAP2 POP JUMPDEST PUSH1 0x20 DUP3 LT DUP2 EQ ISZERO PUSH2 0x3221 JUMPI PUSH4 0x4E487B71 PUSH1 0xE0 SHL PUSH1 0x0 MSTORE PUSH1 0x22 PUSH1 0x4 MSTORE PUSH1 0x24 PUSH1 0x0 REVERT JUMPDEST POP SWAP2 SWAP1 POP JUMP JUMPDEST PUSH1 0x20 DUP1 DUP3 MSTORE DUP2 DUP2 ADD MSTORE PUSH32 0x4F776E61626C653A2063616C6C6572206973206E6F7420746865206F776E6572 PUSH1 0x40 DUP3 ADD MSTORE PUSH1 0x60 ADD SWAP1 JUMP JUMPDEST PUSH1 0x20 DUP1 DUP3 MSTORE PUSH1 0x31 SWAP1 DUP3 ADD MSTORE PUSH32 0x4552433732313A207472616E736665722063616C6C6572206973206E6F74206F PUSH1 0x40 DUP3 ADD MSTORE PUSH17 0x1DDB995C881B9BDC88185C1C1C9BDD9959 PUSH1 0x7A SHL PUSH1 0x60 DUP3 ADD MSTORE PUSH1 0x80 ADD SWAP1 JUMP JUMPDEST PUSH1 0x0 PUSH1 0x20 DUP3 DUP5 SUB SLT ISZERO PUSH2 0x32BF JUMPI PUSH1 0x0 DUP1 REVERT JUMPDEST DUP2 MLOAD PUSH2 0x29D3 DUP2 PUSH2 0x30F8 JUMP JUMPDEST PUSH4 0x4E487B71 PUSH1 0xE0 SHL PUSH1 0x0 MSTORE PUSH1 0x32 PUSH1 0x4 MSTORE PUSH1 0x24 PUSH1 0x0 REVERT JUMPDEST PUSH4 0x4E487B71 PUSH1 0xE0 SHL PUSH1 0x0 MSTORE PUSH1 0x11 PUSH1 0x4 MSTORE PUSH1 0x24 PUSH1 0x0 REVERT JUMPDEST PUSH1 0x0 PUSH1 0x0 NOT DUP3 EQ ISZERO PUSH2 0x330A JUMPI PUSH2 0x330A PUSH2 0x32E0 JUMP JUMPDEST POP PUSH1 0x1 ADD SWAP1 JUMP JUMPDEST PUSH1 0x0 PUSH1 0x20 DUP3 DUP5 SUB SLT ISZERO PUSH2 0x3323 JUMPI PUSH1 0x0 DUP1 REVERT JUMPDEST POP MLOAD SWAP2 SWAP1 POP JUMP JUMPDEST PUSH4 0x4E487B71 PUSH1 0xE0 SHL PUSH1 0x0 MSTORE PUSH1 0x12 PUSH1 0x4 MSTORE PUSH1 0x24 PUSH1 0x0 REVERT JUMPDEST PUSH1 0x0 DUP3 PUSH2 0x334F JUMPI PUSH2 0x334F PUSH2 0x332A JUMP JUMPDEST POP DIV SWAP1 JUMP JUMPDEST PUSH1 0x0 DUP3 NOT DUP3 GT ISZERO PUSH2 0x3367 JUMPI PUSH2 0x3367 PUSH2 0x32E0 JUMP JUMPDEST POP ADD SWAP1 JUMP JUMPDEST PUSH1 0x20 DUP1 DUP3 MSTORE PUSH1 0x3A SWAP1 DUP3 ADD MSTORE PUSH32 0x4F6E6C792043617264696E616C2043726577204D656D626572732063616E2070 PUSH1 0x40 DUP3 ADD MSTORE PUSH32 0x6172746963697061746520696E204E6F64652052756E6E65722E000000000000 PUSH1 0x60 DUP3 ADD MSTORE PUSH1 0x80 ADD SWAP1 JUMP JUMPDEST PUSH1 0x0 DUP3 DUP3 LT ISZERO PUSH2 0x33DB JUMPI PUSH2 0x33DB PUSH2 0x32E0 JUMP JUMPDEST POP SUB SWAP1 JUMP JUMPDEST PUSH1 0x20 DUP1 DUP3 MSTORE PUSH1 0x32 SWAP1 DUP3 ADD MSTORE PUSH32 0x4552433732313A207472616E7366657220746F206E6F6E204552433732315265 PUSH1 0x40 DUP3 ADD MSTORE PUSH18 0x31B2B4BB32B91034B6B83632B6B2B73A32B9 PUSH1 0x71 SHL PUSH1 0x60 DUP3 ADD MSTORE PUSH1 0x80 ADD SWAP1 JUMP JUMPDEST PUSH1 0x0 DUP4 MLOAD PUSH2 0x3444 DUP2 DUP5 PUSH1 0x20 DUP9 ADD PUSH2 0x2DEC JUMP JUMPDEST DUP4 MLOAD SWAP1 DUP4 ADD SWAP1 PUSH2 0x3458 DUP2 DUP4 PUSH1 0x20 DUP9 ADD PUSH2 0x2DEC JUMP JUMPDEST ADD SWAP5 SWAP4 POP POP POP POP JUMP JUMPDEST PUSH1 0x1 PUSH1 0x1 PUSH1 0xA0 SHL SUB DUP6 DUP2 AND DUP3 MSTORE DUP5 AND PUSH1 0x20 DUP3 ADD MSTORE PUSH1 0x40 DUP2 ADD DUP4 SWAP1 MSTORE PUSH1 0x80 PUSH1 0x60 DUP3 ADD DUP2 SWAP1 MSTORE PUSH1 0x0 SWAP1 PUSH2 0x3494 SWAP1 DUP4 ADD DUP5 PUSH2 0x2E18 JUMP JUMPDEST SWAP7 SWAP6 POP POP POP POP POP POP JUMP JUMPDEST PUSH1 0x0 PUSH1 0x20 DUP3 DUP5 SUB SLT ISZERO PUSH2 0x34B0 JUMPI PUSH1 0x0 DUP1 REVERT JUMPDEST DUP2 MLOAD PUSH2 0x29D3 DUP2 PUSH2 0x2DB9 JUMP JUMPDEST PUSH1 0x0 DUP3 PUSH2 0x34CA JUMPI PUSH2 0x34CA PUSH2 0x332A JUMP JUMPDEST POP MOD SWAP1 JUMP JUMPDEST PUSH4 0x4E487B71 PUSH1 0xE0 SHL PUSH1 0x0 MSTORE PUSH1 0x31 PUSH1 0x4 MSTORE PUSH1 0x24 PUSH1 0x0 REVERT INVALID LOG2 PUSH5 0x6970667358 0x22 SLT KECCAK256 PUSH6 0xD001F554E6EB 0xCF DUP7 JUMP 0xE2 DELEGATECALL DUP2 0x5C TIMESTAMP 0xCF 0xCF COINBASE 0x29 PUSH1 0x4F PC 0xED 0x2D SLOAD 0xB0 MOD 0xE0 RETURN 0xDD PUSH4 0x2B64736F PUSH13 0x63430008080033000000000000 ",
  "sha1": "78bb492ac3ac176750542cadbb5b5dc6dbb2f9fe",
  "source": "// SPDX-License-Identifier: MIT\npragma solidity 0.8.8;\n\nimport \"@openzeppelin/contracts/utils/Counters.sol\";\nimport \"@openzeppelin/contracts/token/ERC721/extensions/ERC721URIStorage.sol\";\nimport \"@openzeppelin/contracts/token/ERC721/extensions/ERC721Enumerable.sol\";\nimport \"@openzeppelin/contracts/token/ERC721/ERC721.sol\";\nimport \"@openzeppelin/contracts/access/Ownable.sol\";\nimport \"@openzeppelin/contracts/token/ERC20/IERC20.sol\";\nimport './CardinalNFT.sol';\n\n/**\n * @title Node Runner Contract\n * @dev NFT contract that will be used with the marketplace contract\n */\ncontract NodeRunner is ERC721URIStorage, ERC721Enumerable, Ownable {\n    using Counters for Counters.Counter;\n\n    // Counter to give each NFT a unique ID.\n    Counters.Counter public _tokenIds;\n\n    // Address of the Cardinal House marketplace.\n    address public marketplaceAddress;\n\n    // References the deployed Cardinal NFT contract.\n    CardinalNFT public cardinalNFT;\n\n    // Contract for USDC - for NFT payments\n    IERC20 public USDC;\n\n    // Default listing fee for NFTs\n    uint256 public defaultListingFee;\n\n    // Number of NFTs that can be minted for this node.\n    uint256 public maxNFTs;\n\n    // NFT price in USDC\n    uint256 public NFTPriceInUSDC;\n\n    // The token URI for all of the NFTs in this contract\n    string public nodeRunnerTokenURI;\n\n    // Each NFT will have a unique listing fee that is kept track of in this mapping.\n    mapping(uint256 => uint256) public tokenIdToListingFee;\n    \n    // Mapping of token ID to address for whitelist spots.\n    mapping(uint256 => address) public tokenIdToWhitelistAddress;\n\n    // Mapping to determine how much Matic each address can withdraw from node rewards.\n    mapping(address => uint256) public addressToMaticCanClaim;\n\n    // Mapping to determine how much Matic each address has claimed.\n    mapping(address => uint256) public addressToMaticClaimed;\n\n    event nodeRunnerNFTMinted(address indexed owner, uint256 indexed tokenId);\n    event nodeRewardsDeposited(uint256 indexed amount);\n    event nodeRewardsClaimed(address indexed claimer, uint256 amount);\n    event tokenURIUpdated(uint256 indexed tokenId, string newTokenURI);\n\n    constructor(address _marketplaceAddress, address payable CardinalNFTAddress, address _USDC, uint256 _defaultListingFee, uint256 _maxNFTs, uint256 _NFTPriceInUSDC) ERC721(\"NodeRunnerNFT\", \"NRNFT\") {\n        marketplaceAddress = _marketplaceAddress;\n        cardinalNFT = CardinalNFT(CardinalNFTAddress);\n        USDC = IERC20(_USDC);\n        defaultListingFee = _defaultListingFee;\n        maxNFTs = _maxNFTs;\n        NFTPriceInUSDC = _NFTPriceInUSDC;\n    }\n\n    /**\n    * @dev Allows someone to mint a Node Runner NFT by paying USDC\n    * @param nftCount the number of NFTs to mint\n    * @return newItemId the ID of the newly minted Node Runner NFT\n     */\n    function mintNodeRunnerNFT(uint256 nftCount) external returns (uint[] memory) {\n        require(nftCount > 0, \"You have to mint at least one Node Runner NFt.\");\n        require(nftCount + _tokenIds.current() <= maxNFTs, \"There aren't enough Node Runner NFTs for this node for you to mint you amount you chose. Another node will be available soon!\");\n        require(cardinalNFT.addressIsMember(msg.sender), \"Only Cardinal Crew Members can participate in Node Runner.\");\n        require(USDC.balanceOf(msg.sender) >= NFTPriceInUSDC, \"You don't have enough USDC to pay for the Node Runner NFT.\");\n        require(USDC.allowance(msg.sender, address(this)) >= NFTPriceInUSDC, \"You haven't approved this contract to spend enough of your USDC to pay for the Node Runner NFT.\");\n        \n        uint256[] memory mintedNFTIds = new uint256[](nftCount);\n        uint256 i = 0;\n\n        for (i = 0; i < nftCount; i += 1) {\n            USDC.transferFrom(msg.sender, address(this), NFTPriceInUSDC);\n\n            _tokenIds.increment();\n            uint256 newItemId = _tokenIds.current();\n\n            tokenIdToListingFee[newItemId] = defaultListingFee;\n            _mint(msg.sender, newItemId);\n            _setTokenURI(newItemId, nodeRunnerTokenURI);\n            approve(address(this), newItemId);\n            setApprovalForAll(marketplaceAddress, true);\n\n            mintedNFTIds[i] = newItemId;\n\n            emit nodeRunnerNFTMinted(msg.sender, newItemId);\n        }\n\n        return mintedNFTIds;\n    }\n\n    /**\n    * @dev Only owner function to mint a new NFT.\n    * @param newTokenURI the token URI on IPFS for the NFT metadata\n    * @return newItemId the ID of the newly minted NFT\n     */\n    function createToken(string memory newTokenURI) external onlyOwner returns (uint) {\n        _tokenIds.increment();\n        uint256 newItemId = _tokenIds.current();\n\n        tokenIdToListingFee[newItemId] = defaultListingFee;\n        _mint(msg.sender, newItemId);\n        _setTokenURI(newItemId, nodeRunnerTokenURI);\n        approve(address(this), newItemId);\n        setApprovalForAll(marketplaceAddress, true);\n\n        emit nodeRunnerNFTMinted(msg.sender, newItemId);\n\n        return newItemId;\n    }\n\n    /**\n    * @dev Function to deposit rewards in Matic from the node into the contract for NFT holders to claim.\n    */\n    function depositNodeRewards() external payable {\n        require(msg.value >= maxNFTs, \"You must deposit enough Matic so it can be divided by the maximum number of NFT holders for the node.\");\n        require(_tokenIds.current() > 0, \"No NFTs have been minted for this node yet.\");\n\n        for (uint i = 1; i <= _tokenIds.current(); i++) {\n            address NFTOwner = ownerOf(i);\n            addressToMaticCanClaim[NFTOwner] = addressToMaticCanClaim[NFTOwner] + (msg.value / maxNFTs);\n        }\n\n        emit nodeRewardsDeposited(msg.value);\n    }\n\n    /**\n    @dev Function for NFT holders to claim their node rewards.\n    */\n    function claimNodeRewards() external {\n        require(cardinalNFT.addressIsMember(msg.sender), \"Only Cardinal Crew Members can participate in Node Runner.\");\n        require(addressToMaticCanClaim[msg.sender] > 0, \"You don't have any node rewards to claim! If you have an NFT for this node, please wait until the next reward deposit.\");\n        \n        uint256 claimAmount = addressToMaticCanClaim[msg.sender];\n        addressToMaticCanClaim[msg.sender] = 0;\n        (bool success, ) = msg.sender.call{value: claimAmount}(\"\");\n        require(success, \"Failed to send Matic\");\n\n        emit nodeRewardsClaimed(msg.sender, claimAmount);\n\n        addressToMaticClaimed[msg.sender] = addressToMaticClaimed[msg.sender] + claimAmount;\n    }\n\n    /**\n    * @dev Only owner function to withdraw the USDC that is paid to this contract for the Node Runner NFTs.\n     */\n    function withdrawNodeFunds() external onlyOwner {\n        USDC.transfer(owner(), USDC.balanceOf(address(this)));\n    }\n\n    /**\n    * @dev Setter function for the token URI of an NFT.\n    * @param tokenId the ID of the NFT to update the token URI of\n    * @param newTokenURI the token URI to update the NFT with\n     */\n    function setTokenURI(uint256 tokenId, string memory newTokenURI) external onlyOwner {\n        _setTokenURI(tokenId, newTokenURI);\n        emit tokenURIUpdated(tokenId, newTokenURI);\n    }\n\n    /**\n    * @dev Function to get all token URIs for tokens that a given user owns.\n    * @param userAddress the user's address to get token URIs of\n    * @return list of token URIs for a user's NFTs\n     */\n    function getUserTokenURIs(address userAddress) external view returns (string[] memory) {\n        uint256 userTokenCount = balanceOf(userAddress);\n        uint256 currTokenId = 0;\n        string[] memory userNFTTokenURIs = new string[](userTokenCount);\n\n        for (uint256 i; i < userTokenCount; i++) {\n            currTokenId = tokenOfOwnerByIndex(userAddress, i);\n            userNFTTokenURIs[i] = tokenURI(currTokenId);\n        }\n\n        return userNFTTokenURIs;\n    }\n\n    /**\n    * @dev Function to get all token IDs for tokens that a given user owns.\n    * @param userAddress the user's address to get token IDs of\n    * @return list of token IDs for a user's NFTs\n     */\n    function getUserTokenIDs(address userAddress) external view returns (uint256[] memory) {\n        uint256 userTokenCount = balanceOf(userAddress);\n        uint256[] memory userNFTTokenIDs = new uint256[](userTokenCount);\n\n        for (uint256 i; i < userTokenCount; i++) {\n            userNFTTokenIDs[i] = tokenOfOwnerByIndex(userAddress, i);\n        }\n\n        return userNFTTokenIDs;\n    }\n\n    /**\n    * @dev updates the Node Runner NFT token URI\n    * @param newNodeRunnerTokenURI the new type ID of the Node Runner NFTs\n     */\n    function updateNodeRunnerTokenURI(string memory newNodeRunnerTokenURI) external onlyOwner {\n        nodeRunnerTokenURI = newNodeRunnerTokenURI;\n    }\n\n    /**\n    * @dev Function to assign an NFT to a whitelist spot so only one address can purchase the NFT.\n    * @param whiteListAddress the address of the user who will be able to purchase the NFT\n    * @param tokenId the ID of the NFT that the whitelist spot is for\n     */\n    function addWhiteListToToken(address whiteListAddress, uint256 tokenId) external onlyOwner {\n        tokenIdToWhitelistAddress[tokenId] = whiteListAddress;\n    }\n\n    /**\n    * @dev updates the listing fee of an NFT.\n    * @param tokenId the ID of the NFT to update the listing fee of\n    * @param newListingFee the listing fee value for the NFT\n     */\n    function updateTokenListingFee(uint256 tokenId, uint256 newListingFee) external onlyOwner {\n        tokenIdToListingFee[tokenId] = newListingFee;\n    }\n\n    /**\n    * @dev updates the marketplace address.\n    * @param newMarketplaceAddress the new marketplace address\n     */\n    function updateMarketplaceAddress(address newMarketplaceAddress) external onlyOwner {\n        marketplaceAddress = newMarketplaceAddress;\n    }\n\n    /**\n    * @dev updates the USDC contract.\n    * @param newUSDCAddress the new USDC address\n     */\n    function updateUSDCAddress(address newUSDCAddress) external onlyOwner {\n        USDC = IERC20(newUSDCAddress);\n    }\n\n    /**\n    * @dev updates the default listing fee for the NFTs.\n    * @param newDefaultListingFee the new default listing fee\n     */\n    function updateDefaultListingFee(uint256 newDefaultListingFee) external onlyOwner {\n        defaultListingFee = newDefaultListingFee;\n    }\n\n    /**\n    * @dev updates the maximum number of NFTs that can be minted for the node this contract represents.\n    * @param newMaxNFTs the new maximum number of NFTs that can be minted in this contract\n     */\n    function updateMaxNFTs(uint256 newMaxNFTs) external onlyOwner {\n        maxNFTs = newMaxNFTs;\n    }\n\n    /**\n    * @dev updates the price of each NFT.\n    * @param newNFTPriceInUSDC the price of each NFT in USDC\n     */\n    function updateNFTPriceInUSDC(uint256 newNFTPriceInUSDC) external onlyOwner {\n        NFTPriceInUSDC = newNFTPriceInUSDC;\n    }\n\n    /**\n    * @dev function for the marketplace to determine if an address is a Cardinal Crew member.\n    * @param user the address to check the Cardinal Crew membership of\n    */\n    function addressIsMember(address user) external returns (bool) {\n        return cardinalNFT.addressIsMember(user);\n    }\n\n    // Override function since both ERC721URIStorage and ERC721Enumerable inherit from ERC721 and so both have a definition for _burn.\n    function _burn(uint256 tokenId) internal override(ERC721, ERC721URIStorage) {\n        super._burn(tokenId);\n    }\n\n    // Override function since both ERC721URIStorage and ERC721Enumerable inherit from ERC721 and so both have a definition for _beforeTokenTransfer.\n    function _beforeTokenTransfer(address from, address to, uint256 tokenId) internal override(ERC721, ERC721Enumerable) {\n        super._beforeTokenTransfer(from, to, tokenId);\n    }\n\n    // Override function since both ERC721URIStorage and ERC721Enumerable inherit from ERC721 and so both have a definition for supportsInterface.\n    function supportsInterface(bytes4 interfaceId) public view override(ERC721, ERC721Enumerable) returns (bool) {\n        return super.supportsInterface(interfaceId);\n    }\n\n    // Override function since both ERC721URIStorage and ERC721Enumerable inherit from ERC721 and so both have a definition for tokenURI.\n    function tokenURI(uint256 tokenId) public view override(ERC721, ERC721URIStorage) returns (string memory) {\n        return super.tokenURI(tokenId);\n    }\n}",
  "sourcePath": "contracts/NodeRunner.sol",
  "type": "contract"
}